{
  "_format": "hh-sol-artifact-1",
  "contractName": "GovToken",
  "sourceName": "contracts/contract/GovToken.sol",
  "abi": [
    {
      "inputs": [
        {
          "internalType": "address",
          "name": "_minter",
          "type": "address"
        },
        {
          "internalType": "string",
          "name": "_name",
          "type": "string"
        },
        {
          "internalType": "string",
          "name": "_symbol",
          "type": "string"
        },
        {
          "internalType": "uint256",
          "name": "_amount",
          "type": "uint256"
        },
        {
          "internalType": "string",
          "name": "_uri",
          "type": "string"
        }
      ],
      "stateMutability": "nonpayable",
      "type": "constructor"
    },
    {
      "anonymous": false,
      "inputs": [
        {
          "indexed": true,
          "internalType": "address",
          "name": "owner",
          "type": "address"
        },
        {
          "indexed": true,
          "internalType": "address",
          "name": "spender",
          "type": "address"
        },
        {
          "indexed": false,
          "internalType": "uint256",
          "name": "value",
          "type": "uint256"
        }
      ],
      "name": "Approval",
      "type": "event"
    },
    {
      "anonymous": false,
      "inputs": [
        {
          "indexed": true,
          "internalType": "address",
          "name": "from",
          "type": "address"
        },
        {
          "indexed": true,
          "internalType": "address",
          "name": "to",
          "type": "address"
        },
        {
          "indexed": false,
          "internalType": "uint256",
          "name": "value",
          "type": "uint256"
        }
      ],
      "name": "Transfer",
      "type": "event"
    },
    {
      "inputs": [
        {
          "internalType": "address",
          "name": "owner",
          "type": "address"
        },
        {
          "internalType": "uint256",
          "name": "amount",
          "type": "uint256"
        }
      ],
      "name": "_burn",
      "outputs": [],
      "stateMutability": "nonpayable",
      "type": "function"
    },
    {
      "inputs": [
        {
          "internalType": "address",
          "name": "to",
          "type": "address"
        },
        {
          "internalType": "uint256",
          "name": "amount",
          "type": "uint256"
        }
      ],
      "name": "_mint",
      "outputs": [],
      "stateMutability": "nonpayable",
      "type": "function"
    },
    {
      "inputs": [
        {
          "internalType": "address",
          "name": "owner",
          "type": "address"
        },
        {
          "internalType": "address",
          "name": "spender",
          "type": "address"
        }
      ],
      "name": "allowance",
      "outputs": [
        {
          "internalType": "uint256",
          "name": "",
          "type": "uint256"
        }
      ],
      "stateMutability": "view",
      "type": "function"
    },
    {
      "inputs": [
        {
          "internalType": "address",
          "name": "",
          "type": "address"
        },
        {
          "internalType": "address",
          "name": "",
          "type": "address"
        }
      ],
      "name": "allowances",
      "outputs": [
        {
          "internalType": "uint256",
          "name": "",
          "type": "uint256"
        }
      ],
      "stateMutability": "view",
      "type": "function"
    },
    {
      "inputs": [
        {
          "internalType": "address",
          "name": "spender",
          "type": "address"
        },
        {
          "internalType": "uint256",
          "name": "amount",
          "type": "uint256"
        }
      ],
      "name": "approve",
      "outputs": [
        {
          "internalType": "bool",
          "name": "",
          "type": "bool"
        }
      ],
      "stateMutability": "nonpayable",
      "type": "function"
    },
    {
      "inputs": [
        {
          "internalType": "address",
          "name": "account",
          "type": "address"
        }
      ],
      "name": "balanceOf",
      "outputs": [
        {
          "internalType": "uint256",
          "name": "",
          "type": "uint256"
        }
      ],
      "stateMutability": "view",
      "type": "function"
    },
    {
      "inputs": [
        {
          "internalType": "address",
          "name": "",
          "type": "address"
        }
      ],
      "name": "balances",
      "outputs": [
        {
          "internalType": "uint256",
          "name": "",
          "type": "uint256"
        }
      ],
      "stateMutability": "view",
      "type": "function"
    },
    {
      "inputs": [
        {
          "internalType": "address",
          "name": "owner",
          "type": "address"
        },
        {
          "internalType": "uint256",
          "name": "amount",
          "type": "uint256"
        }
      ],
      "name": "burn",
      "outputs": [],
      "stateMutability": "nonpayable",
      "type": "function"
    },
    {
      "inputs": [
        {
          "internalType": "address",
          "name": "to",
          "type": "address"
        },
        {
          "internalType": "uint256",
          "name": "amount",
          "type": "uint256"
        }
      ],
      "name": "mint",
      "outputs": [],
      "stateMutability": "nonpayable",
      "type": "function"
    },
    {
      "inputs": [],
      "name": "name",
      "outputs": [
        {
          "internalType": "string",
          "name": "",
          "type": "string"
        }
      ],
      "stateMutability": "view",
      "type": "function"
    },
    {
      "inputs": [],
      "name": "symbol",
      "outputs": [
        {
          "internalType": "string",
          "name": "",
          "type": "string"
        }
      ],
      "stateMutability": "view",
      "type": "function"
    },
    {
      "inputs": [
        {
          "internalType": "string",
          "name": "_imageUri",
          "type": "string"
        }
      ],
      "name": "tokenURI",
      "outputs": [
        {
          "internalType": "string",
          "name": "",
          "type": "string"
        }
      ],
      "stateMutability": "pure",
      "type": "function"
    },
    {
      "inputs": [],
      "name": "totalSupply",
      "outputs": [
        {
          "internalType": "uint256",
          "name": "",
          "type": "uint256"
        }
      ],
      "stateMutability": "view",
      "type": "function"
    },
    {
      "inputs": [
        {
          "internalType": "address",
          "name": "to",
          "type": "address"
        },
        {
          "internalType": "uint256",
          "name": "amount",
          "type": "uint256"
        }
      ],
      "name": "transfer",
      "outputs": [
        {
          "internalType": "bool",
          "name": "",
          "type": "bool"
        }
      ],
      "stateMutability": "nonpayable",
      "type": "function"
    },
    {
      "inputs": [
        {
          "internalType": "address",
          "name": "from",
          "type": "address"
        },
        {
          "internalType": "address",
          "name": "to",
          "type": "address"
        },
        {
          "internalType": "uint256",
          "name": "amount",
          "type": "uint256"
        }
      ],
      "name": "transfer",
      "outputs": [
        {
          "internalType": "bool",
          "name": "",
          "type": "bool"
        }
      ],
      "stateMutability": "nonpayable",
      "type": "function"
    },
    {
      "inputs": [
        {
          "internalType": "address",
          "name": "from",
          "type": "address"
        },
        {
          "internalType": "address",
          "name": "to",
          "type": "address"
        },
        {
          "internalType": "uint256",
          "name": "value",
          "type": "uint256"
        }
      ],
      "name": "transferFrom",
      "outputs": [
        {
          "internalType": "bool",
          "name": "",
          "type": "bool"
        }
      ],
      "stateMutability": "nonpayable",
      "type": "function"
    },
    {
      "inputs": [],
      "name": "uri",
      "outputs": [
        {
          "internalType": "string",
          "name": "",
          "type": "string"
        }
      ],
      "stateMutability": "view",
      "type": "function"
    }
  ],
  "bytecode": "0x608060405260126003553480156200001657600080fd5b5060405162001e4e38038062001e4e83398181016040528101906200003c919062000426565b8383838383600090816200005191906200074c565b5082600190816200006391906200074c565b5062000075816200011f60201b60201c565b600290816200008591906200074c565b50600073f39fd6e51aad88f6f4ce6ab8827279cfffb922669050620000ce33600354600a620000b59190620009b6565b85620000c2919062000a07565b6200015b60201b60201c565b505050505084600760006101000a81548173ffffffffffffffffffffffffffffffffffffffff021916908373ffffffffffffffffffffffffffffffffffffffff160217905550505050505062000af7565b606062000131620001d260201b60201c565b826040516020016200014592919062000a94565b6040516020818303038152906040529050919050565b80600560008473ffffffffffffffffffffffffffffffffffffffff1673ffffffffffffffffffffffffffffffffffffffff1681526020019081526020016000206000828254620001ac919062000abc565b925050819055508060046000828254620001c7919062000abc565b925050819055505050565b606060405180606001604052806035815260200162001e1960359139905090565b6000604051905090565b600080fd5b600080fd5b600073ffffffffffffffffffffffffffffffffffffffff82169050919050565b6000620002348262000207565b9050919050565b620002468162000227565b81146200025257600080fd5b50565b60008151905062000266816200023b565b92915050565b600080fd5b600080fd5b6000601f19601f8301169050919050565b7f4e487b7100000000000000000000000000000000000000000000000000000000600052604160045260246000fd5b620002c18262000276565b810181811067ffffffffffffffff82111715620002e357620002e262000287565b5b80604052505050565b6000620002f8620001f3565b9050620003068282620002b6565b919050565b600067ffffffffffffffff82111562000329576200032862000287565b5b620003348262000276565b9050602081019050919050565b60005b838110156200036157808201518184015260208101905062000344565b60008484015250505050565b6000620003846200037e846200030b565b620002ec565b905082815260208101848484011115620003a357620003a262000271565b5b620003b084828562000341565b509392505050565b600082601f830112620003d057620003cf6200026c565b5b8151620003e28482602086016200036d565b91505092915050565b6000819050919050565b6200040081620003eb565b81146200040c57600080fd5b50565b6000815190506200042081620003f5565b92915050565b600080600080600060a08688031215620004455762000444620001fd565b5b6000620004558882890162000255565b955050602086015167ffffffffffffffff81111562000479576200047862000202565b5b6200048788828901620003b8565b945050604086015167ffffffffffffffff811115620004ab57620004aa62000202565b5b620004b988828901620003b8565b9350506060620004cc888289016200040f565b925050608086015167ffffffffffffffff811115620004f057620004ef62000202565b5b620004fe88828901620003b8565b9150509295509295909350565b600081519050919050565b7f4e487b7100000000000000000000000000000000000000000000000000000000600052602260045260246000fd5b600060028204905060018216806200055e57607f821691505b60208210810362000574576200057362000516565b5b50919050565b60008190508160005260206000209050919050565b60006020601f8301049050919050565b600082821b905092915050565b600060088302620005de7fffffffffffffffffffffffffffffffffffffffffffffffffffffffffffffffff826200059f565b620005ea86836200059f565b95508019841693508086168417925050509392505050565b6000819050919050565b60006200062d620006276200062184620003eb565b62000602565b620003eb565b9050919050565b6000819050919050565b62000649836200060c565b62000661620006588262000634565b848454620005ac565b825550505050565b600090565b6200067862000669565b620006858184846200063e565b505050565b5b81811015620006ad57620006a16000826200066e565b6001810190506200068b565b5050565b601f821115620006fc57620006c6816200057a565b620006d1846200058f565b81016020851015620006e1578190505b620006f9620006f0856200058f565b8301826200068a565b50505b505050565b600082821c905092915050565b6000620007216000198460080262000701565b1980831691505092915050565b60006200073c83836200070e565b9150826002028217905092915050565b62000757826200050b565b67ffffffffffffffff81111562000773576200077262000287565b5b6200077f825462000545565b6200078c828285620006b1565b600060209050601f831160018114620007c45760008415620007af578287015190505b620007bb85826200072e565b8655506200082b565b601f198416620007d4866200057a565b60005b82811015620007fe57848901518255600182019150602085019450602081019050620007d7565b868310156200081e57848901516200081a601f8916826200070e565b8355505b6001600288020188555050505b505050505050565b7f4e487b7100000000000000000000000000000000000000000000000000000000600052601160045260246000fd5b60008160011c9050919050565b6000808291508390505b6001851115620008c15780860481111562000899576200089862000833565b5b6001851615620008a95780820291505b8081029050620008b98562000862565b945062000879565b94509492505050565b600082620008dc5760019050620009af565b81620008ec5760009050620009af565b8160018114620009055760028114620009105762000946565b6001915050620009af565b60ff84111562000925576200092462000833565b5b8360020a9150848211156200093f576200093e62000833565b5b50620009af565b5060208310610133831016604e8410600b8410161715620009805782820a9050838111156200097a576200097962000833565b5b620009af565b6200098f84848460016200086f565b92509050818404811115620009a957620009a862000833565b5b81810290505b9392505050565b6000620009c382620003eb565b9150620009d083620003eb565b9250620009ff7fffffffffffffffffffffffffffffffffffffffffffffffffffffffffffffffff8484620008ca565b905092915050565b600062000a1482620003eb565b915062000a2183620003eb565b925082820262000a3181620003eb565b9150828204841483151762000a4b5762000a4a62000833565b5b5092915050565b600081905092915050565b600062000a6a826200050b565b62000a76818562000a52565b935062000a8881856020860162000341565b80840191505092915050565b600062000aa2828562000a5d565b915062000ab0828462000a5d565b91508190509392505050565b600062000ac982620003eb565b915062000ad683620003eb565b925082820190508082111562000af15762000af062000833565b5b92915050565b6113128062000b076000396000f3fe608060405234801561001057600080fd5b506004361061010b5760003560e01c806355b6ed5c116100a25780639dc29fac116100715780639dc29fac146102de578063a9059cbb146102fa578063beabacc81461032a578063dd62ed3e1461035a578063eac989f81461038a5761010b565b806355b6ed5c146102445780636161eb181461027457806370a082311461029057806395d89b41146102c05761010b565b806327e235e3116100de57806327e235e3146101ac57806340c10f19146101dc5780634cf12d26146101f85780634e6ec247146102285761010b565b806306fdde0314610110578063095ea7b31461012e57806318160ddd1461015e57806323b872dd1461017c575b600080fd5b6101186103a8565b6040516101259190610d3c565b60405180910390f35b61014860048036038101906101439190610e06565b610436565b6040516101559190610e61565b60405180910390f35b6101666104c3565b6040516101739190610e8b565b60405180910390f35b61019660048036038101906101919190610ea6565b6104c9565b6040516101a39190610e61565b60405180910390f35b6101c660048036038101906101c19190610ef9565b61069e565b6040516101d39190610e8b565b60405180910390f35b6101f660048036038101906101f19190610e06565b6106b6565b005b610212600480360381019061020d919061105b565b610754565b60405161021f9190610d3c565b60405180910390f35b610242600480360381019061023d9190610e06565b610786565b005b61025e600480360381019061025991906110a4565b6107f9565b60405161026b9190610e8b565b60405180910390f35b61028e60048036038101906102899190610e06565b61081e565b005b6102aa60048036038101906102a59190610ef9565b610891565b6040516102b79190610e8b565b60405180910390f35b6102c86108da565b6040516102d59190610d3c565b60405180910390f35b6102f860048036038101906102f39190610e06565b610968565b005b610314600480360381019061030f9190610e06565b610a06565b6040516103219190610e61565b60405180910390f35b610344600480360381019061033f9190610ea6565b610abe565b6040516103519190610e61565b60405180910390f35b610374600480360381019061036f91906110a4565b610b77565b6040516103819190610e8b565b60405180910390f35b610392610bfe565b60405161039f9190610d3c565b60405180910390f35b600080546103b590611113565b80601f01602080910402602001604051908101604052809291908181526020018280546103e190611113565b801561042e5780601f106104035761010080835404028352916020019161042e565b820191906000526020600020905b81548152906001019060200180831161041157829003601f168201915b505050505081565b600081600660003373ffffffffffffffffffffffffffffffffffffffff1673ffffffffffffffffffffffffffffffffffffffff16815260200190815260200160002060008573ffffffffffffffffffffffffffffffffffffffff1673ffffffffffffffffffffffffffffffffffffffff168152602001908152602001600020819055506001905092915050565b60045481565b600081600660008673ffffffffffffffffffffffffffffffffffffffff1673ffffffffffffffffffffffffffffffffffffffff16815260200190815260200160002060003373ffffffffffffffffffffffffffffffffffffffff1673ffffffffffffffffffffffffffffffffffffffff16815260200190815260200160002054101561055457600080fd5b81600660008673ffffffffffffffffffffffffffffffffffffffff1673ffffffffffffffffffffffffffffffffffffffff16815260200190815260200160002060003373ffffffffffffffffffffffffffffffffffffffff1673ffffffffffffffffffffffffffffffffffffffff16815260200190815260200160002060008282546105e09190611173565b9250508190555081600560008673ffffffffffffffffffffffffffffffffffffffff1673ffffffffffffffffffffffffffffffffffffffff16815260200190815260200160002060008282546106369190611173565b9250508190555081600560008573ffffffffffffffffffffffffffffffffffffffff1673ffffffffffffffffffffffffffffffffffffffff168152602001908152602001600020600082825461068c91906111a7565b92505081905550600190509392505050565b60056020528060005260406000206000915090505481565b600760009054906101000a900473ffffffffffffffffffffffffffffffffffffffff1673ffffffffffffffffffffffffffffffffffffffff163373ffffffffffffffffffffffffffffffffffffffff1614610746576040517f08c379a000000000000000000000000000000000000000000000000000000000815260040161073d90611227565b60405180910390fd5b6107508282610786565b5050565b606061075e610c8c565b82604051602001610770929190611283565b6040516020818303038152906040529050919050565b80600560008473ffffffffffffffffffffffffffffffffffffffff1673ffffffffffffffffffffffffffffffffffffffff16815260200190815260200160002060008282546107d591906111a7565b9250508190555080600460008282546107ee91906111a7565b925050819055505050565b6006602052816000526040600020602052806000526040600020600091509150505481565b80600560008473ffffffffffffffffffffffffffffffffffffffff1673ffffffffffffffffffffffffffffffffffffffff168152602001908152602001600020600082825461086d9190611173565b9250508190555080600460008282546108869190611173565b925050819055505050565b6000600560008373ffffffffffffffffffffffffffffffffffffffff1673ffffffffffffffffffffffffffffffffffffffff168152602001908152602001600020549050919050565b600180546108e790611113565b80601f016020809104026020016040519081016040528092919081815260200182805461091390611113565b80156109605780601f1061093557610100808354040283529160200191610960565b820191906000526020600020905b81548152906001019060200180831161094357829003601f168201915b505050505081565b600760009054906101000a900473ffffffffffffffffffffffffffffffffffffffff1673ffffffffffffffffffffffffffffffffffffffff163373ffffffffffffffffffffffffffffffffffffffff16146109f8576040517f08c379a00000000000000000000000000000000000000000000000000000000081526004016109ef90611227565b60405180910390fd5b610a02828261081e565b5050565b600081600560003373ffffffffffffffffffffffffffffffffffffffff1673ffffffffffffffffffffffffffffffffffffffff1681526020019081526020016000206000828254610a579190611173565b9250508190555081600560008573ffffffffffffffffffffffffffffffffffffffff1673ffffffffffffffffffffffffffffffffffffffff1681526020019081526020016000206000828254610aad91906111a7565b925050819055506001905092915050565b600081600560008673ffffffffffffffffffffffffffffffffffffffff1673ffffffffffffffffffffffffffffffffffffffff1681526020019081526020016000206000828254610b0f9190611173565b9250508190555081600560008573ffffffffffffffffffffffffffffffffffffffff1673ffffffffffffffffffffffffffffffffffffffff1681526020019081526020016000206000828254610b6591906111a7565b92505081905550600190509392505050565b6000600660008473ffffffffffffffffffffffffffffffffffffffff1673ffffffffffffffffffffffffffffffffffffffff16815260200190815260200160002060008373ffffffffffffffffffffffffffffffffffffffff1673ffffffffffffffffffffffffffffffffffffffff16815260200190815260200160002054905092915050565b60028054610c0b90611113565b80601f0160208091040260200160405190810160405280929190818152602001828054610c3790611113565b8015610c845780601f10610c5957610100808354040283529160200191610c84565b820191906000526020600020905b815481529060010190602001808311610c6757829003601f168201915b505050505081565b60606040518060600160405280603581526020016112a860359139905090565b600081519050919050565b600082825260208201905092915050565b60005b83811015610ce6578082015181840152602081019050610ccb565b60008484015250505050565b6000601f19601f8301169050919050565b6000610d0e82610cac565b610d188185610cb7565b9350610d28818560208601610cc8565b610d3181610cf2565b840191505092915050565b60006020820190508181036000830152610d568184610d03565b905092915050565b6000604051905090565b600080fd5b600080fd5b600073ffffffffffffffffffffffffffffffffffffffff82169050919050565b6000610d9d82610d72565b9050919050565b610dad81610d92565b8114610db857600080fd5b50565b600081359050610dca81610da4565b92915050565b6000819050919050565b610de381610dd0565b8114610dee57600080fd5b50565b600081359050610e0081610dda565b92915050565b60008060408385031215610e1d57610e1c610d68565b5b6000610e2b85828601610dbb565b9250506020610e3c85828601610df1565b9150509250929050565b60008115159050919050565b610e5b81610e46565b82525050565b6000602082019050610e766000830184610e52565b92915050565b610e8581610dd0565b82525050565b6000602082019050610ea06000830184610e7c565b92915050565b600080600060608486031215610ebf57610ebe610d68565b5b6000610ecd86828701610dbb565b9350506020610ede86828701610dbb565b9250506040610eef86828701610df1565b9150509250925092565b600060208284031215610f0f57610f0e610d68565b5b6000610f1d84828501610dbb565b91505092915050565b600080fd5b600080fd5b7f4e487b7100000000000000000000000000000000000000000000000000000000600052604160045260246000fd5b610f6882610cf2565b810181811067ffffffffffffffff82111715610f8757610f86610f30565b5b80604052505050565b6000610f9a610d5e565b9050610fa68282610f5f565b919050565b600067ffffffffffffffff821115610fc657610fc5610f30565b5b610fcf82610cf2565b9050602081019050919050565b82818337600083830152505050565b6000610ffe610ff984610fab565b610f90565b90508281526020810184848401111561101a57611019610f2b565b5b611025848285610fdc565b509392505050565b600082601f83011261104257611041610f26565b5b8135611052848260208601610feb565b91505092915050565b60006020828403121561107157611070610d68565b5b600082013567ffffffffffffffff81111561108f5761108e610d6d565b5b61109b8482850161102d565b91505092915050565b600080604083850312156110bb576110ba610d68565b5b60006110c985828601610dbb565b92505060206110da85828601610dbb565b9150509250929050565b7f4e487b7100000000000000000000000000000000000000000000000000000000600052602260045260246000fd5b6000600282049050600182168061112b57607f821691505b60208210810361113e5761113d6110e4565b5b50919050565b7f4e487b7100000000000000000000000000000000000000000000000000000000600052601160045260246000fd5b600061117e82610dd0565b915061118983610dd0565b92508282039050818111156111a1576111a0611144565b5b92915050565b60006111b282610dd0565b91506111bd83610dd0565b92508282019050808211156111d5576111d4611144565b5b92915050565b7f6e6f74206d696e74657200000000000000000000000000000000000000000000600082015250565b6000611211600a83610cb7565b915061121c826111db565b602082019050919050565b6000602082019050818103600083015261124081611204565b9050919050565b600081905092915050565b600061125d82610cac565b6112678185611247565b9350611277818560208601610cc8565b80840191505092915050565b600061128f8285611252565b915061129b8284611252565b9150819050939250505056fe68747470733a2f2f6372696d736f6e2d67656e65726f75732d616e742d3339352e6d7970696e6174612e636c6f75642f697066732fa264697066735822122066f3fee3ee9420f02a76b8122f85ea6119fd07cbdad9402a6a5be7d5a656c47964736f6c6343000814003368747470733a2f2f6372696d736f6e2d67656e65726f75732d616e742d3339352e6d7970696e6174612e636c6f75642f697066732f",
  "linkReferences": {},
  "deployedLinkReferences": {}
}