{
  "_format": "hh-sol-artifact-1",
  "contractName": "GovToken",
  "sourceName": "contracts/contract/GovToken.sol",
  "abi": [
    {
      "inputs": [
        {
          "internalType": "address",
          "name": "_minter",
          "type": "address"
        },
        {
          "internalType": "string",
          "name": "_name",
          "type": "string"
        },
        {
          "internalType": "string",
          "name": "_symbol",
          "type": "string"
        },
        {
          "internalType": "uint256",
          "name": "_amount",
          "type": "uint256"
        },
        {
          "internalType": "string",
          "name": "_uri",
          "type": "string"
        }
      ],
      "stateMutability": "nonpayable",
      "type": "constructor"
    },
    {
      "anonymous": false,
      "inputs": [
        {
          "indexed": true,
          "internalType": "address",
          "name": "owner",
          "type": "address"
        },
        {
          "indexed": true,
          "internalType": "address",
          "name": "spender",
          "type": "address"
        },
        {
          "indexed": false,
          "internalType": "uint256",
          "name": "value",
          "type": "uint256"
        }
      ],
      "name": "Approval",
      "type": "event"
    },
    {
      "anonymous": false,
      "inputs": [
        {
          "indexed": true,
          "internalType": "address",
          "name": "from",
          "type": "address"
        },
        {
          "indexed": true,
          "internalType": "address",
          "name": "to",
          "type": "address"
        },
        {
          "indexed": false,
          "internalType": "uint256",
          "name": "value",
          "type": "uint256"
        }
      ],
      "name": "Transfer",
      "type": "event"
    },
    {
      "inputs": [
        {
          "internalType": "address",
          "name": "owner",
          "type": "address"
        },
        {
          "internalType": "uint256",
          "name": "amount",
          "type": "uint256"
        }
      ],
      "name": "_burn",
      "outputs": [],
      "stateMutability": "nonpayable",
      "type": "function"
    },
    {
      "inputs": [
        {
          "internalType": "address",
          "name": "to",
          "type": "address"
        },
        {
          "internalType": "uint256",
          "name": "amount",
          "type": "uint256"
        }
      ],
      "name": "_mint",
      "outputs": [],
      "stateMutability": "nonpayable",
      "type": "function"
    },
    {
      "inputs": [
        {
          "internalType": "address",
          "name": "owner",
          "type": "address"
        },
        {
          "internalType": "address",
          "name": "spender",
          "type": "address"
        }
      ],
      "name": "allowance",
      "outputs": [
        {
          "internalType": "uint256",
          "name": "",
          "type": "uint256"
        }
      ],
      "stateMutability": "view",
      "type": "function"
    },
    {
      "inputs": [
        {
          "internalType": "address",
          "name": "",
          "type": "address"
        },
        {
          "internalType": "address",
          "name": "",
          "type": "address"
        }
      ],
      "name": "allowances",
      "outputs": [
        {
          "internalType": "uint256",
          "name": "",
          "type": "uint256"
        }
      ],
      "stateMutability": "view",
      "type": "function"
    },
    {
      "inputs": [
        {
          "internalType": "address",
          "name": "spender",
          "type": "address"
        },
        {
          "internalType": "uint256",
          "name": "amount",
          "type": "uint256"
        }
      ],
      "name": "approve",
      "outputs": [
        {
          "internalType": "bool",
          "name": "",
          "type": "bool"
        }
      ],
      "stateMutability": "nonpayable",
      "type": "function"
    },
    {
      "inputs": [
        {
          "internalType": "address",
          "name": "account",
          "type": "address"
        }
      ],
      "name": "balanceOf",
      "outputs": [
        {
          "internalType": "uint256",
          "name": "",
          "type": "uint256"
        }
      ],
      "stateMutability": "view",
      "type": "function"
    },
    {
      "inputs": [
        {
          "internalType": "address",
          "name": "",
          "type": "address"
        }
      ],
      "name": "balances",
      "outputs": [
        {
          "internalType": "uint256",
          "name": "",
          "type": "uint256"
        }
      ],
      "stateMutability": "view",
      "type": "function"
    },
    {
      "inputs": [
        {
          "internalType": "address",
          "name": "owner",
          "type": "address"
        },
        {
          "internalType": "uint256",
          "name": "amount",
          "type": "uint256"
        }
      ],
      "name": "burn",
      "outputs": [],
      "stateMutability": "nonpayable",
      "type": "function"
    },
    {
      "inputs": [
        {
          "internalType": "address",
          "name": "to",
          "type": "address"
        },
        {
          "internalType": "uint256",
          "name": "amount",
          "type": "uint256"
        }
      ],
      "name": "mint",
      "outputs": [],
      "stateMutability": "nonpayable",
      "type": "function"
    },
    {
      "inputs": [],
      "name": "name",
      "outputs": [
        {
          "internalType": "string",
          "name": "",
          "type": "string"
        }
      ],
      "stateMutability": "view",
      "type": "function"
    },
    {
      "inputs": [],
      "name": "symbol",
      "outputs": [
        {
          "internalType": "string",
          "name": "",
          "type": "string"
        }
      ],
      "stateMutability": "view",
      "type": "function"
    },
    {
      "inputs": [
        {
          "internalType": "string",
          "name": "_imageUri",
          "type": "string"
        }
      ],
      "name": "tokenURI",
      "outputs": [
        {
          "internalType": "string",
          "name": "",
          "type": "string"
        }
      ],
      "stateMutability": "pure",
      "type": "function"
    },
    {
      "inputs": [],
      "name": "totalSupply",
      "outputs": [
        {
          "internalType": "uint256",
          "name": "",
          "type": "uint256"
        }
      ],
      "stateMutability": "view",
      "type": "function"
    },
    {
      "inputs": [
        {
          "internalType": "address",
          "name": "to",
          "type": "address"
        },
        {
          "internalType": "uint256",
          "name": "amount",
          "type": "uint256"
        }
      ],
      "name": "transfer",
      "outputs": [
        {
          "internalType": "bool",
          "name": "",
          "type": "bool"
        }
      ],
      "stateMutability": "nonpayable",
      "type": "function"
    },
    {
      "inputs": [
        {
          "internalType": "address",
          "name": "from",
          "type": "address"
        },
        {
          "internalType": "address",
          "name": "to",
          "type": "address"
        },
        {
          "internalType": "uint256",
          "name": "value",
          "type": "uint256"
        }
      ],
      "name": "transferFrom",
      "outputs": [
        {
          "internalType": "bool",
          "name": "",
          "type": "bool"
        }
      ],
      "stateMutability": "nonpayable",
      "type": "function"
    },
    {
      "inputs": [],
      "name": "uri",
      "outputs": [
        {
          "internalType": "string",
          "name": "",
          "type": "string"
        }
      ],
      "stateMutability": "view",
      "type": "function"
    }
  ],
  "bytecode": "0x608060405260126003553480156200001657600080fd5b5060405162001d4038038062001d4083398181016040528101906200003c91906200040c565b83838383836000908162000051919062000732565b50826001908162000063919062000732565b5062000075816200010560201b60201c565b6002908162000085919062000732565b50620000b533600354600a6200009c91906200099c565b84620000a99190620009ed565b6200014160201b60201c565b5050505084600760006101000a81548173ffffffffffffffffffffffffffffffffffffffff021916908373ffffffffffffffffffffffffffffffffffffffff160217905550505050505062000add565b606062000117620001b860201b60201c565b826040516020016200012b92919062000a7a565b6040516020818303038152906040529050919050565b80600560008473ffffffffffffffffffffffffffffffffffffffff1673ffffffffffffffffffffffffffffffffffffffff168152602001908152602001600020600082825462000192919062000aa2565b925050819055508060046000828254620001ad919062000aa2565b925050819055505050565b606060405180606001604052806035815260200162001d0b60359139905090565b6000604051905090565b600080fd5b600080fd5b600073ffffffffffffffffffffffffffffffffffffffff82169050919050565b60006200021a82620001ed565b9050919050565b6200022c816200020d565b81146200023857600080fd5b50565b6000815190506200024c8162000221565b92915050565b600080fd5b600080fd5b6000601f19601f8301169050919050565b7f4e487b7100000000000000000000000000000000000000000000000000000000600052604160045260246000fd5b620002a7826200025c565b810181811067ffffffffffffffff82111715620002c957620002c86200026d565b5b80604052505050565b6000620002de620001d9565b9050620002ec82826200029c565b919050565b600067ffffffffffffffff8211156200030f576200030e6200026d565b5b6200031a826200025c565b9050602081019050919050565b60005b83811015620003475780820151818401526020810190506200032a565b60008484015250505050565b60006200036a6200036484620002f1565b620002d2565b90508281526020810184848401111562000389576200038862000257565b5b6200039684828562000327565b509392505050565b600082601f830112620003b657620003b562000252565b5b8151620003c884826020860162000353565b91505092915050565b6000819050919050565b620003e681620003d1565b8114620003f257600080fd5b50565b6000815190506200040681620003db565b92915050565b600080600080600060a086880312156200042b576200042a620001e3565b5b60006200043b888289016200023b565b955050602086015167ffffffffffffffff8111156200045f576200045e620001e8565b5b6200046d888289016200039e565b945050604086015167ffffffffffffffff811115620004915762000490620001e8565b5b6200049f888289016200039e565b9350506060620004b288828901620003f5565b925050608086015167ffffffffffffffff811115620004d657620004d5620001e8565b5b620004e4888289016200039e565b9150509295509295909350565b600081519050919050565b7f4e487b7100000000000000000000000000000000000000000000000000000000600052602260045260246000fd5b600060028204905060018216806200054457607f821691505b6020821081036200055a5762000559620004fc565b5b50919050565b60008190508160005260206000209050919050565b60006020601f8301049050919050565b600082821b905092915050565b600060088302620005c47fffffffffffffffffffffffffffffffffffffffffffffffffffffffffffffffff8262000585565b620005d0868362000585565b95508019841693508086168417925050509392505050565b6000819050919050565b6000620006136200060d6200060784620003d1565b620005e8565b620003d1565b9050919050565b6000819050919050565b6200062f83620005f2565b620006476200063e826200061a565b84845462000592565b825550505050565b600090565b6200065e6200064f565b6200066b81848462000624565b505050565b5b8181101562000693576200068760008262000654565b60018101905062000671565b5050565b601f821115620006e257620006ac8162000560565b620006b78462000575565b81016020851015620006c7578190505b620006df620006d68562000575565b83018262000670565b50505b505050565b600082821c905092915050565b60006200070760001984600802620006e7565b1980831691505092915050565b6000620007228383620006f4565b9150826002028217905092915050565b6200073d82620004f1565b67ffffffffffffffff8111156200075957620007586200026d565b5b6200076582546200052b565b6200077282828562000697565b600060209050601f831160018114620007aa576000841562000795578287015190505b620007a1858262000714565b86555062000811565b601f198416620007ba8662000560565b60005b82811015620007e457848901518255600182019150602085019450602081019050620007bd565b8683101562000804578489015162000800601f891682620006f4565b8355505b6001600288020188555050505b505050505050565b7f4e487b7100000000000000000000000000000000000000000000000000000000600052601160045260246000fd5b60008160011c9050919050565b6000808291508390505b6001851115620008a7578086048111156200087f576200087e62000819565b5b60018516156200088f5780820291505b80810290506200089f8562000848565b94506200085f565b94509492505050565b600082620008c2576001905062000995565b81620008d2576000905062000995565b8160018114620008eb5760028114620008f6576200092c565b600191505062000995565b60ff8411156200090b576200090a62000819565b5b8360020a91508482111562000925576200092462000819565b5b5062000995565b5060208310610133831016604e8410600b8410161715620009665782820a90508381111562000960576200095f62000819565b5b62000995565b62000975848484600162000855565b925090508184048111156200098f576200098e62000819565b5b81810290505b9392505050565b6000620009a982620003d1565b9150620009b683620003d1565b9250620009e57fffffffffffffffffffffffffffffffffffffffffffffffffffffffffffffffff8484620008b0565b905092915050565b6000620009fa82620003d1565b915062000a0783620003d1565b925082820262000a1781620003d1565b9150828204841483151762000a315762000a3062000819565b5b5092915050565b600081905092915050565b600062000a5082620004f1565b62000a5c818562000a38565b935062000a6e81856020860162000327565b80840191505092915050565b600062000a88828562000a43565b915062000a96828462000a43565b91508190509392505050565b600062000aaf82620003d1565b915062000abc83620003d1565b925082820190508082111562000ad75762000ad662000819565b5b92915050565b61121e8062000aed6000396000f3fe608060405234801561001057600080fd5b50600436106101005760003560e01c806355b6ed5c116100975780639dc29fac116100665780639dc29fac146102d3578063a9059cbb146102ef578063dd62ed3e1461031f578063eac989f81461034f57610100565b806355b6ed5c146102395780636161eb181461026957806370a082311461028557806395d89b41146102b557610100565b806327e235e3116100d357806327e235e3146101a157806340c10f19146101d15780634cf12d26146101ed5780634e6ec2471461021d57610100565b806306fdde0314610105578063095ea7b31461012357806318160ddd1461015357806323b872dd14610171575b600080fd5b61010d61036d565b60405161011a9190610c48565b60405180910390f35b61013d60048036038101906101389190610d12565b6103fb565b60405161014a9190610d6d565b60405180910390f35b61015b610488565b6040516101689190610d97565b60405180910390f35b61018b60048036038101906101869190610db2565b61048e565b6040516101989190610d6d565b60405180910390f35b6101bb60048036038101906101b69190610e05565b610663565b6040516101c89190610d97565b60405180910390f35b6101eb60048036038101906101e69190610d12565b61067b565b005b61020760048036038101906102029190610f67565b610719565b6040516102149190610c48565b60405180910390f35b61023760048036038101906102329190610d12565b61074b565b005b610253600480360381019061024e9190610fb0565b6107be565b6040516102609190610d97565b60405180910390f35b610283600480360381019061027e9190610d12565b6107e3565b005b61029f600480360381019061029a9190610e05565b610856565b6040516102ac9190610d97565b60405180910390f35b6102bd61089f565b6040516102ca9190610c48565b60405180910390f35b6102ed60048036038101906102e89190610d12565b61092d565b005b61030960048036038101906103049190610d12565b6109cb565b6040516103169190610d6d565b60405180910390f35b61033960048036038101906103349190610fb0565b610a83565b6040516103469190610d97565b60405180910390f35b610357610b0a565b6040516103649190610c48565b60405180910390f35b6000805461037a9061101f565b80601f01602080910402602001604051908101604052809291908181526020018280546103a69061101f565b80156103f35780601f106103c8576101008083540402835291602001916103f3565b820191906000526020600020905b8154815290600101906020018083116103d657829003601f168201915b505050505081565b600081600660003373ffffffffffffffffffffffffffffffffffffffff1673ffffffffffffffffffffffffffffffffffffffff16815260200190815260200160002060008573ffffffffffffffffffffffffffffffffffffffff1673ffffffffffffffffffffffffffffffffffffffff168152602001908152602001600020819055506001905092915050565b60045481565b600081600660008673ffffffffffffffffffffffffffffffffffffffff1673ffffffffffffffffffffffffffffffffffffffff16815260200190815260200160002060003373ffffffffffffffffffffffffffffffffffffffff1673ffffffffffffffffffffffffffffffffffffffff16815260200190815260200160002054101561051957600080fd5b81600660008673ffffffffffffffffffffffffffffffffffffffff1673ffffffffffffffffffffffffffffffffffffffff16815260200190815260200160002060003373ffffffffffffffffffffffffffffffffffffffff1673ffffffffffffffffffffffffffffffffffffffff16815260200190815260200160002060008282546105a5919061107f565b9250508190555081600560008673ffffffffffffffffffffffffffffffffffffffff1673ffffffffffffffffffffffffffffffffffffffff16815260200190815260200160002060008282546105fb919061107f565b9250508190555081600560008573ffffffffffffffffffffffffffffffffffffffff1673ffffffffffffffffffffffffffffffffffffffff168152602001908152602001600020600082825461065191906110b3565b92505081905550600190509392505050565b60056020528060005260406000206000915090505481565b600760009054906101000a900473ffffffffffffffffffffffffffffffffffffffff1673ffffffffffffffffffffffffffffffffffffffff163373ffffffffffffffffffffffffffffffffffffffff161461070b576040517f08c379a000000000000000000000000000000000000000000000000000000000815260040161070290611133565b60405180910390fd5b610715828261074b565b5050565b6060610723610b98565b8260405160200161073592919061118f565b6040516020818303038152906040529050919050565b80600560008473ffffffffffffffffffffffffffffffffffffffff1673ffffffffffffffffffffffffffffffffffffffff168152602001908152602001600020600082825461079a91906110b3565b9250508190555080600460008282546107b391906110b3565b925050819055505050565b6006602052816000526040600020602052806000526040600020600091509150505481565b80600560008473ffffffffffffffffffffffffffffffffffffffff1673ffffffffffffffffffffffffffffffffffffffff1681526020019081526020016000206000828254610832919061107f565b92505081905550806004600082825461084b919061107f565b925050819055505050565b6000600560008373ffffffffffffffffffffffffffffffffffffffff1673ffffffffffffffffffffffffffffffffffffffff168152602001908152602001600020549050919050565b600180546108ac9061101f565b80601f01602080910402602001604051908101604052809291908181526020018280546108d89061101f565b80156109255780601f106108fa57610100808354040283529160200191610925565b820191906000526020600020905b81548152906001019060200180831161090857829003601f168201915b505050505081565b600760009054906101000a900473ffffffffffffffffffffffffffffffffffffffff1673ffffffffffffffffffffffffffffffffffffffff163373ffffffffffffffffffffffffffffffffffffffff16146109bd576040517f08c379a00000000000000000000000000000000000000000000000000000000081526004016109b490611133565b60405180910390fd5b6109c782826107e3565b5050565b600081600560003373ffffffffffffffffffffffffffffffffffffffff1673ffffffffffffffffffffffffffffffffffffffff1681526020019081526020016000206000828254610a1c919061107f565b9250508190555081600560008573ffffffffffffffffffffffffffffffffffffffff1673ffffffffffffffffffffffffffffffffffffffff1681526020019081526020016000206000828254610a7291906110b3565b925050819055506001905092915050565b6000600660008473ffffffffffffffffffffffffffffffffffffffff1673ffffffffffffffffffffffffffffffffffffffff16815260200190815260200160002060008373ffffffffffffffffffffffffffffffffffffffff1673ffffffffffffffffffffffffffffffffffffffff16815260200190815260200160002054905092915050565b60028054610b179061101f565b80601f0160208091040260200160405190810160405280929190818152602001828054610b439061101f565b8015610b905780601f10610b6557610100808354040283529160200191610b90565b820191906000526020600020905b815481529060010190602001808311610b7357829003601f168201915b505050505081565b60606040518060600160405280603581526020016111b460359139905090565b600081519050919050565b600082825260208201905092915050565b60005b83811015610bf2578082015181840152602081019050610bd7565b60008484015250505050565b6000601f19601f8301169050919050565b6000610c1a82610bb8565b610c248185610bc3565b9350610c34818560208601610bd4565b610c3d81610bfe565b840191505092915050565b60006020820190508181036000830152610c628184610c0f565b905092915050565b6000604051905090565b600080fd5b600080fd5b600073ffffffffffffffffffffffffffffffffffffffff82169050919050565b6000610ca982610c7e565b9050919050565b610cb981610c9e565b8114610cc457600080fd5b50565b600081359050610cd681610cb0565b92915050565b6000819050919050565b610cef81610cdc565b8114610cfa57600080fd5b50565b600081359050610d0c81610ce6565b92915050565b60008060408385031215610d2957610d28610c74565b5b6000610d3785828601610cc7565b9250506020610d4885828601610cfd565b9150509250929050565b60008115159050919050565b610d6781610d52565b82525050565b6000602082019050610d826000830184610d5e565b92915050565b610d9181610cdc565b82525050565b6000602082019050610dac6000830184610d88565b92915050565b600080600060608486031215610dcb57610dca610c74565b5b6000610dd986828701610cc7565b9350506020610dea86828701610cc7565b9250506040610dfb86828701610cfd565b9150509250925092565b600060208284031215610e1b57610e1a610c74565b5b6000610e2984828501610cc7565b91505092915050565b600080fd5b600080fd5b7f4e487b7100000000000000000000000000000000000000000000000000000000600052604160045260246000fd5b610e7482610bfe565b810181811067ffffffffffffffff82111715610e9357610e92610e3c565b5b80604052505050565b6000610ea6610c6a565b9050610eb28282610e6b565b919050565b600067ffffffffffffffff821115610ed257610ed1610e3c565b5b610edb82610bfe565b9050602081019050919050565b82818337600083830152505050565b6000610f0a610f0584610eb7565b610e9c565b905082815260208101848484011115610f2657610f25610e37565b5b610f31848285610ee8565b509392505050565b600082601f830112610f4e57610f4d610e32565b5b8135610f5e848260208601610ef7565b91505092915050565b600060208284031215610f7d57610f7c610c74565b5b600082013567ffffffffffffffff811115610f9b57610f9a610c79565b5b610fa784828501610f39565b91505092915050565b60008060408385031215610fc757610fc6610c74565b5b6000610fd585828601610cc7565b9250506020610fe685828601610cc7565b9150509250929050565b7f4e487b7100000000000000000000000000000000000000000000000000000000600052602260045260246000fd5b6000600282049050600182168061103757607f821691505b60208210810361104a57611049610ff0565b5b50919050565b7f4e487b7100000000000000000000000000000000000000000000000000000000600052601160045260246000fd5b600061108a82610cdc565b915061109583610cdc565b92508282039050818111156110ad576110ac611050565b5b92915050565b60006110be82610cdc565b91506110c983610cdc565b92508282019050808211156110e1576110e0611050565b5b92915050565b7f6e6f74206d696e74657200000000000000000000000000000000000000000000600082015250565b600061111d600a83610bc3565b9150611128826110e7565b602082019050919050565b6000602082019050818103600083015261114c81611110565b9050919050565b600081905092915050565b600061116982610bb8565b6111738185611153565b9350611183818560208601610bd4565b80840191505092915050565b600061119b828561115e565b91506111a7828461115e565b9150819050939250505056fe68747470733a2f2f6372696d736f6e2d67656e65726f75732d616e742d3339352e6d7970696e6174612e636c6f75642f697066732fa2646970667358221220a775c518a606568680fa88e2603ebfa9b43b16e4a685c1c176dcb407c13a49f664736f6c6343000814003368747470733a2f2f6372696d736f6e2d67656e65726f75732d616e742d3339352e6d7970696e6174612e636c6f75642f697066732f",
  "linkReferences": {},
  "deployedLinkReferences": {}
}