{
  "_format": "hh-sol-artifact-1",
  "contractName": "Swap",
  "sourceName": "contracts/contract/Swap.sol",
  "abi": [
    {
      "inputs": [
        {
          "internalType": "address",
          "name": "_dataAddress",
          "type": "address"
        },
        {
          "internalType": "address",
          "name": "_wbncAddress",
          "type": "address"
        }
      ],
      "stateMutability": "nonpayable",
      "type": "constructor"
    },
    {
      "anonymous": false,
      "inputs": [
        {
          "indexed": true,
          "internalType": "address",
          "name": "sender",
          "type": "address"
        },
        {
          "indexed": false,
          "internalType": "uint256",
          "name": "amount0In",
          "type": "uint256"
        },
        {
          "indexed": false,
          "internalType": "uint256",
          "name": "amount1In",
          "type": "uint256"
        },
        {
          "indexed": false,
          "internalType": "uint256",
          "name": "amount0Out",
          "type": "uint256"
        },
        {
          "indexed": false,
          "internalType": "uint256",
          "name": "amount1Out",
          "type": "uint256"
        },
        {
          "indexed": true,
          "internalType": "address",
          "name": "to",
          "type": "address"
        }
      ],
      "name": "Swap",
      "type": "event"
    },
    {
      "inputs": [
        {
          "internalType": "address",
          "name": "pairAddress",
          "type": "address"
        },
        {
          "internalType": "uint256",
          "name": "outputAmount",
          "type": "uint256"
        },
        {
          "internalType": "address[2]",
          "name": "path",
          "type": "address[2]"
        },
        {
          "internalType": "address",
          "name": "to",
          "type": "address"
        }
      ],
      "name": "bNCForExactTokens",
      "outputs": [
        {
          "internalType": "bool",
          "name": "",
          "type": "bool"
        }
      ],
      "stateMutability": "payable",
      "type": "function"
    },
    {
      "inputs": [
        {
          "internalType": "address",
          "name": "pairAddress",
          "type": "address"
        },
        {
          "internalType": "uint256",
          "name": "inputAmount",
          "type": "uint256"
        },
        {
          "internalType": "uint256",
          "name": "minToken",
          "type": "uint256"
        },
        {
          "internalType": "address[2]",
          "name": "path",
          "type": "address[2]"
        },
        {
          "internalType": "address",
          "name": "to",
          "type": "address"
        }
      ],
      "name": "exactBNCForTokens",
      "outputs": [],
      "stateMutability": "payable",
      "type": "function"
    },
    {
      "inputs": [
        {
          "internalType": "address",
          "name": "pairAddress",
          "type": "address"
        },
        {
          "internalType": "uint256",
          "name": "inputAmount",
          "type": "uint256"
        },
        {
          "internalType": "uint256",
          "name": "minToken",
          "type": "uint256"
        },
        {
          "internalType": "address[2]",
          "name": "path",
          "type": "address[2]"
        },
        {
          "internalType": "address",
          "name": "to",
          "type": "address"
        }
      ],
      "name": "exactTokensForBNC",
      "outputs": [
        {
          "internalType": "bool",
          "name": "",
          "type": "bool"
        }
      ],
      "stateMutability": "payable",
      "type": "function"
    },
    {
      "inputs": [
        {
          "internalType": "address",
          "name": "pairAddress",
          "type": "address"
        },
        {
          "internalType": "uint256",
          "name": "inputAmount",
          "type": "uint256"
        },
        {
          "internalType": "uint256",
          "name": "minToken",
          "type": "uint256"
        },
        {
          "internalType": "address[2]",
          "name": "path",
          "type": "address[2]"
        },
        {
          "internalType": "address",
          "name": "to",
          "type": "address"
        }
      ],
      "name": "exactTokensForTokens",
      "outputs": [
        {
          "internalType": "bool",
          "name": "",
          "type": "bool"
        }
      ],
      "stateMutability": "nonpayable",
      "type": "function"
    },
    {
      "inputs": [
        {
          "internalType": "address",
          "name": "pairAddress",
          "type": "address"
        },
        {
          "internalType": "uint256",
          "name": "outputAmount",
          "type": "uint256"
        },
        {
          "internalType": "address[2]",
          "name": "path",
          "type": "address[2]"
        }
      ],
      "name": "getAmountIn",
      "outputs": [
        {
          "internalType": "uint256",
          "name": "amountIn",
          "type": "uint256"
        }
      ],
      "stateMutability": "view",
      "type": "function"
    },
    {
      "inputs": [
        {
          "internalType": "address",
          "name": "pairAddress",
          "type": "address"
        },
        {
          "internalType": "uint256",
          "name": "inputAmount",
          "type": "uint256"
        },
        {
          "internalType": "address[2]",
          "name": "path",
          "type": "address[2]"
        }
      ],
      "name": "getAmountOut",
      "outputs": [
        {
          "internalType": "uint256",
          "name": "amountOut",
          "type": "uint256"
        }
      ],
      "stateMutability": "view",
      "type": "function"
    },
    {
      "inputs": [
        {
          "internalType": "address",
          "name": "pairAddress",
          "type": "address"
        },
        {
          "internalType": "uint256",
          "name": "outputAmount",
          "type": "uint256"
        },
        {
          "internalType": "uint256",
          "name": "maxToken",
          "type": "uint256"
        },
        {
          "internalType": "address[2]",
          "name": "path",
          "type": "address[2]"
        },
        {
          "internalType": "address",
          "name": "to",
          "type": "address"
        }
      ],
      "name": "tokensForExactBNC",
      "outputs": [
        {
          "internalType": "bool",
          "name": "",
          "type": "bool"
        }
      ],
      "stateMutability": "nonpayable",
      "type": "function"
    },
    {
      "inputs": [
        {
          "internalType": "address",
          "name": "pairAddress",
          "type": "address"
        },
        {
          "internalType": "uint256",
          "name": "outputAmount",
          "type": "uint256"
        },
        {
          "internalType": "uint256",
          "name": "maxToken",
          "type": "uint256"
        },
        {
          "internalType": "address[2]",
          "name": "path",
          "type": "address[2]"
        },
        {
          "internalType": "address",
          "name": "to",
          "type": "address"
        }
      ],
      "name": "tokensForExactTokens",
      "outputs": [
        {
          "internalType": "bool",
          "name": "",
          "type": "bool"
        }
      ],
      "stateMutability": "nonpayable",
      "type": "function"
    }
  ],
  "bytecode": "0x608060405260016003553480156200001657600080fd5b5060405162002fe138038062002fe183398181016040528101906200003c919062000170565b816000806101000a81548173ffffffffffffffffffffffffffffffffffffffff021916908373ffffffffffffffffffffffffffffffffffffffff16021790555080600160006101000a81548173ffffffffffffffffffffffffffffffffffffffff021916908373ffffffffffffffffffffffffffffffffffffffff16021790555080600260006101000a81548173ffffffffffffffffffffffffffffffffffffffff021916908373ffffffffffffffffffffffffffffffffffffffff1602179055505050620001b7565b600080fd5b600073ffffffffffffffffffffffffffffffffffffffff82169050919050565b600062000138826200010b565b9050919050565b6200014a816200012b565b81146200015657600080fd5b50565b6000815190506200016a816200013f565b92915050565b600080604083850312156200018a576200018962000106565b5b60006200019a8582860162000159565b9250506020620001ad8582860162000159565b9150509250929050565b612e1a80620001c76000396000f3fe60806040526004361061007b5760003560e01c8063a49056101161004e578063a490561014610153578063d5083e6414610183578063e2541aae146101b3578063ef30c11c146101f05761007b565b806345d17e93146100805780635d6854a3146100bd5780636e17ad30146100fa5780638c4898a914610137575b600080fd5b34801561008c57600080fd5b506100a760048036038101906100a291906120e7565b61022d565b6040516100b4919061217d565b60405180910390f35b3480156100c957600080fd5b506100e460048036038101906100df91906120e7565b6103b0565b6040516100f1919061217d565b60405180910390f35b34801561010657600080fd5b50610121600480360381019061011c91906122da565b610720565b60405161012e919061233c565b60405180910390f35b610151600480360381019061014c91906120e7565b610926565b005b61016d600480360381019061016891906120e7565b610bec565b60405161017a919061217d565b60405180910390f35b61019d60048036038101906101989190612357565b610f5c565b6040516101aa919061217d565b60405180910390f35b3480156101bf57600080fd5b506101da60048036038101906101d591906122da565b6112a2565b6040516101e7919061233c565b60405180910390f35b3480156101fc57600080fd5b50610217600480360381019061021291906120e7565b6114fd565b604051610224919061217d565b60405180910390f35b6000806102728787866002806020026040519081016040528092919082600260200280828437600081840152601f19601f8201169050808301925050505050506112a2565b9050848111156102b7576040517f08c379a00000000000000000000000000000000000000000000000000000000081526004016102ae9061241b565b60405180910390fd5b836000600281106102cb576102ca61243b565b5b6020020160208101906102de919061246a565b73ffffffffffffffffffffffffffffffffffffffff166323b872dd8489846040518463ffffffff1660e01b815260040161031a939291906124a6565b6020604051808303816000875af1158015610339573d6000803e3d6000fd5b505050506040513d601f19601f8201168201806040525081019061035d9190612509565b506103a2838888876002806020026040519081016040528092919082600260200280828437600081840152601f19601f82011690508083019250505050505087611680565b600191505095945050505050565b6000600260009054906101000a900473ffffffffffffffffffffffffffffffffffffffff1673ffffffffffffffffffffffffffffffffffffffff16836001600281106103ff576103fe61243b565b5b602002016020810190610412919061246a565b73ffffffffffffffffffffffffffffffffffffffff1614610468576040517f08c379a000000000000000000000000000000000000000000000000000000000815260040161045f90612582565b60405180910390fd5b60006104ac8787866002806020026040519081016040528092919082600260200280828437600081840152601f19601f8201169050808301925050505050506112a2565b9050848111156104f1576040517f08c379a00000000000000000000000000000000000000000000000000000000081526004016104e89061241b565b60405180910390fd5b836000600281106105055761050461243b565b5b602002016020810190610518919061246a565b73ffffffffffffffffffffffffffffffffffffffff166323b872dd8489846040518463ffffffff1660e01b8152600401610554939291906124a6565b6020604051808303816000875af1158015610573573d6000803e3d6000fd5b505050506040513d601f19601f820116820180604052508101906105979190612509565b506105dc838888876002806020026040519081016040528092919082600260200280828437600081840152601f19601f82011690508083019250505050505030611680565b600160009054906101000a900473ffffffffffffffffffffffffffffffffffffffff1673ffffffffffffffffffffffffffffffffffffffff16632e1a7d4d876040518263ffffffff1660e01b8152600401610637919061233c565b600060405180830381600087803b15801561065157600080fd5b505af1158015610665573d6000803e3d6000fd5b5050505060008373ffffffffffffffffffffffffffffffffffffffff168760405161068f906125d3565b60006040518083038185875af1925050503d80600081146106cc576040519150601f19603f3d011682016040523d82523d6000602084013e6106d1565b606091505b5050905080610715576040517f08c379a000000000000000000000000000000000000000000000000000000000815260040161070c9061265a565b60405180910390fd5b505095945050505050565b6000808311610764576040517f08c379a000000000000000000000000000000000000000000000000000000000815260040161075b9061241b565b60405180910390fd5b60008490506000808273ffffffffffffffffffffffffffffffffffffffff16630902f1ac6040518163ffffffff1660e01b8152600401606060405180830381865afa1580156107b7573d6000803e3d6000fd5b505050506040513d601f19601f820116820180604052508101906107db91906126fc565b506dffffffffffffffffffffffffffff1691506dffffffffffffffffffffffffffff169150600080866000600281106108175761081661243b565b5b602002015173ffffffffffffffffffffffffffffffffffffffff168573ffffffffffffffffffffffffffffffffffffffff16630dfe16816040518163ffffffff1660e01b8152600401602060405180830381865afa15801561087d573d6000803e3d6000fd5b505050506040513d601f19601f820116820180604052508101906108a19190612764565b73ffffffffffffffffffffffffffffffffffffffff16146108c35782846108c6565b83835b9150915060006103e5896108da91906127c0565b9050600082826108ea91906127c0565b90506000826103e8866108fd91906127c0565b6109079190612802565b905080826109159190612865565b985050505050505050509392505050565b600260009054906101000a900473ffffffffffffffffffffffffffffffffffffffff1673ffffffffffffffffffffffffffffffffffffffff16826000600281106109735761097261243b565b5b602002016020810190610986919061246a565b73ffffffffffffffffffffffffffffffffffffffff16146109dc576040517f08c379a00000000000000000000000000000000000000000000000000000000081526004016109d390612582565b60405180910390fd5b6000610a208686856002806020026040519081016040528092919082600260200280828437600081840152601f19601f820116905080830192505050505050610720565b905083811015610a65576040517f08c379a0000000000000000000000000000000000000000000000000000000008152600401610a5c906128e2565b60405180910390fd5b600160009054906101000a900473ffffffffffffffffffffffffffffffffffffffff1673ffffffffffffffffffffffffffffffffffffffff1663b6b55f2586876040518363ffffffff1660e01b8152600401610ac1919061233c565b6000604051808303818588803b158015610ada57600080fd5b505af1158015610aee573d6000803e3d6000fd5b5050505050600160009054906101000a900473ffffffffffffffffffffffffffffffffffffffff1673ffffffffffffffffffffffffffffffffffffffff1663a9059cbb87876040518363ffffffff1660e01b8152600401610b50929190612902565b6020604051808303816000875af1158015610b6f573d6000803e3d6000fd5b505050506040513d601f19601f82011682018060405250810190610b939190612509565b610ba057610b9f61292b565b5b610be4828783866002806020026040519081016040528092919082600260200280828437600081840152601f19601f82011690508083019250505050505086611680565b505050505050565b6000600260009054906101000a900473ffffffffffffffffffffffffffffffffffffffff1673ffffffffffffffffffffffffffffffffffffffff1683600160028110610c3b57610c3a61243b565b5b602002016020810190610c4e919061246a565b73ffffffffffffffffffffffffffffffffffffffff1614610ca4576040517f08c379a0000000000000000000000000000000000000000000000000000000008152600401610c9b90612582565b60405180910390fd5b6000610ce88787866002806020026040519081016040528092919082600260200280828437600081840152601f19601f820116905080830192505050505050610720565b905084811015610d2d576040517f08c379a0000000000000000000000000000000000000000000000000000000008152600401610d24906128e2565b60405180910390fd5b83600060028110610d4157610d4061243b565b5b602002016020810190610d54919061246a565b73ffffffffffffffffffffffffffffffffffffffff166323b872dd8489896040518463ffffffff1660e01b8152600401610d90939291906124a6565b6020604051808303816000875af1158015610daf573d6000803e3d6000fd5b505050506040513d601f19601f82011682018060405250810190610dd39190612509565b50610e18838883876002806020026040519081016040528092919082600260200280828437600081840152601f19601f82011690508083019250505050505030611680565b600160009054906101000a900473ffffffffffffffffffffffffffffffffffffffff1673ffffffffffffffffffffffffffffffffffffffff16632e1a7d4d826040518263ffffffff1660e01b8152600401610e73919061233c565b600060405180830381600087803b158015610e8d57600080fd5b505af1158015610ea1573d6000803e3d6000fd5b5050505060008373ffffffffffffffffffffffffffffffffffffffff1682604051610ecb906125d3565b60006040518083038185875af1925050503d8060008114610f08576040519150601f19603f3d011682016040523d82523d6000602084013e610f0d565b606091505b5050905080610f51576040517f08c379a0000000000000000000000000000000000000000000000000000000008152600401610f489061265a565b60405180910390fd5b505095945050505050565b6000600260009054906101000a900473ffffffffffffffffffffffffffffffffffffffff1673ffffffffffffffffffffffffffffffffffffffff1683600060028110610fab57610faa61243b565b5b602002016020810190610fbe919061246a565b73ffffffffffffffffffffffffffffffffffffffff1614611014576040517f08c379a000000000000000000000000000000000000000000000000000000000815260040161100b90612582565b60405180910390fd5b60006110588686866002806020026040519081016040528092919082600260200280828437600081840152601f19601f8201169050808301925050505050506112a2565b90503481111561109d576040517f08c379a0000000000000000000000000000000000000000000000000000000008152600401611094906129a6565b60405180910390fd5b600160009054906101000a900473ffffffffffffffffffffffffffffffffffffffff1673ffffffffffffffffffffffffffffffffffffffff1663b6b55f2582836040518363ffffffff1660e01b81526004016110f9919061233c565b6000604051808303818588803b15801561111257600080fd5b505af1158015611126573d6000803e3d6000fd5b5050505050600160009054906101000a900473ffffffffffffffffffffffffffffffffffffffff1673ffffffffffffffffffffffffffffffffffffffff1663a9059cbb87836040518363ffffffff1660e01b8152600401611188929190612902565b6020604051808303816000875af11580156111a7573d6000803e3d6000fd5b505050506040513d601f19601f820116820180604052508101906111cb9190612509565b6111d8576111d761292b565b5b61121c838787876002806020026040519081016040528092919082600260200280828437600081840152601f19601f82011690508083019250505050505087611680565b80341115611299578273ffffffffffffffffffffffffffffffffffffffff16813461124791906129c6565b604051611253906125d3565b60006040518083038185875af1925050503d8060008114611290576040519150601f19603f3d011682016040523d82523d6000602084013e611295565b606091505b5050505b50949350505050565b60008083116112e6576040517f08c379a00000000000000000000000000000000000000000000000000000000081526004016112dd906128e2565b60405180910390fd5b60008490506000808273ffffffffffffffffffffffffffffffffffffffff16630902f1ac6040518163ffffffff1660e01b8152600401606060405180830381865afa158015611339573d6000803e3d6000fd5b505050506040513d601f19601f8201168201806040525081019061135d91906126fc565b506dffffffffffffffffffffffffffff1691506dffffffffffffffffffffffffffff169150600080866000600281106113995761139861243b565b5b602002015173ffffffffffffffffffffffffffffffffffffffff168573ffffffffffffffffffffffffffffffffffffffff16630dfe16816040518163ffffffff1660e01b8152600401602060405180830381865afa1580156113ff573d6000803e3d6000fd5b505050506040513d601f19601f820116820180604052508101906114239190612764565b73ffffffffffffffffffffffffffffffffffffffff1614611445578284611448565b83835b9150915060008211801561145c5750600081115b61149b576040517f08c379a000000000000000000000000000000000000000000000000000000000815260040161149290612a46565b60405180910390fd5b60006103e889846114ac91906127c0565b6114b691906127c0565b905060006103e58a846114c991906129c6565b6114d391906127c0565b9050600181836114e39190612865565b6114ed9190612802565b9750505050505050509392505050565b6000806115428787866002806020026040519081016040528092919082600260200280828437600081840152601f19601f820116905080830192505050505050610720565b905084811015611587576040517f08c379a000000000000000000000000000000000000000000000000000000000815260040161157e906128e2565b60405180910390fd5b8360006002811061159b5761159a61243b565b5b6020020160208101906115ae919061246a565b73ffffffffffffffffffffffffffffffffffffffff166323b872dd8489896040518463ffffffff1660e01b81526004016115ea939291906124a6565b6020604051808303816000875af1158015611609573d6000803e3d6000fd5b505050506040513d601f19601f8201168201806040525081019061162d9190612509565b50611672838883876002806020026040519081016040528092919082600260200280828437600081840152601f19601f82011690508083019250505050505087611680565b600191505095945050505050565b600080836000600281106116975761169661243b565b5b6020020151846001600281106116b0576116af61243b565b5b6020020151915091506000808273ffffffffffffffffffffffffffffffffffffffff168473ffffffffffffffffffffffffffffffffffffffff16106116f65782846116f9565b83835b915091506000808373ffffffffffffffffffffffffffffffffffffffff168673ffffffffffffffffffffffffffffffffffffffff161461173b5788600061173f565b6000895b915091506117508b8b84848b61175d565b5050505050505050505050565b6001600354146117a2576040517f08c379a000000000000000000000000000000000000000000000000000000000815260040161179990612ab2565b60405180910390fd5b600060038190555060008311806117b95750600082115b6117f8576040517f08c379a00000000000000000000000000000000000000000000000000000000081526004016117ef906128e2565b60405180910390fd5b60008490506000808273ffffffffffffffffffffffffffffffffffffffff16630902f1ac6040518163ffffffff1660e01b8152600401606060405180830381865afa15801561184b573d6000803e3d6000fd5b505050506040513d601f19601f8201168201806040525081019061186f91906126fc565b5091509150816dffffffffffffffffffffffffffff16861080156118a25750806dffffffffffffffffffffffffffff1685105b6118e1576040517f08c379a00000000000000000000000000000000000000000000000000000000081526004016118d890612b1e565b60405180910390fd5b60008060008573ffffffffffffffffffffffffffffffffffffffff16630dfe16816040518163ffffffff1660e01b8152600401602060405180830381865afa158015611931573d6000803e3d6000fd5b505050506040513d601f19601f820116820180604052508101906119559190612764565b905060008673ffffffffffffffffffffffffffffffffffffffff1663d21220a76040518163ffffffff1660e01b8152600401602060405180830381865afa1580156119a4573d6000803e3d6000fd5b505050506040513d601f19601f820116820180604052508101906119c89190612764565b90508173ffffffffffffffffffffffffffffffffffffffff168873ffffffffffffffffffffffffffffffffffffffff1614158015611a3257508073ffffffffffffffffffffffffffffffffffffffff168873ffffffffffffffffffffffffffffffffffffffff1614155b611a71576040517f08c379a0000000000000000000000000000000000000000000000000000000008152600401611a6890612b8a565b60405180910390fd5b60008a1115611afa578173ffffffffffffffffffffffffffffffffffffffff1663a9059cbb898c6040518363ffffffff1660e01b8152600401611ab5929190612902565b6020604051808303816000875af1158015611ad4573d6000803e3d6000fd5b505050506040513d601f19601f82011682018060405250810190611af89190612509565b505b6000891115611b83578073ffffffffffffffffffffffffffffffffffffffff1663a9059cbb898b6040518363ffffffff1660e01b8152600401611b3e929190612902565b6020604051808303816000875af1158015611b5d573d6000803e3d6000fd5b505050506040513d601f19601f82011682018060405250810190611b819190612509565b505b8173ffffffffffffffffffffffffffffffffffffffff166370a082318c6040518263ffffffff1660e01b8152600401611bbc9190612baa565b602060405180830381865afa158015611bd9573d6000803e3d6000fd5b505050506040513d601f19601f82011682018060405250810190611bfd9190612bda565b93508073ffffffffffffffffffffffffffffffffffffffff166370a082318c6040518263ffffffff1660e01b8152600401611c389190612baa565b602060405180830381865afa158015611c55573d6000803e3d6000fd5b505050506040513d601f19601f82011682018060405250810190611c799190612bda565b92505050600088856dffffffffffffffffffffffffffff16611c9b91906129c6565b8311611ca8576000611cd0565b88856dffffffffffffffffffffffffffff16611cc491906129c6565b83611ccf91906129c6565b5b9050600088856dffffffffffffffffffffffffffff16611cf091906129c6565b8311611cfd576000611d25565b88856dffffffffffffffffffffffffffff16611d1991906129c6565b83611d2491906129c6565b5b90506000821180611d365750600081115b611d75576040517f08c379a0000000000000000000000000000000000000000000000000000000008152600401611d6c9061241b565b60405180910390fd5b6000611d96611d86866103e8611f30565b611d91856003611f30565b611fb1565b90506000611db9611da9866103e8611f30565b611db4856003611f30565b611fb1565b9050611df1611de8896dffffffffffffffffffffffffffff16896dffffffffffffffffffffffffffff16611f30565b620f4240611f30565b611dfb8383611f30565b1015611e3c576040517f08c379a0000000000000000000000000000000000000000000000000000000008152600401611e3390612c53565b60405180910390fd5b50508673ffffffffffffffffffffffffffffffffffffffff16637dc0a1fa858589896040518563ffffffff1660e01b8152600401611e7d9493929190612c82565b600060405180830381600087803b158015611e9757600080fd5b505af1158015611eab573d6000803e3d6000fd5b505050508a73ffffffffffffffffffffffffffffffffffffffff168c73ffffffffffffffffffffffffffffffffffffffff167fd78ad95fa46c994b6551d0da85fc275fe613ce37657fb8d5e3d130840159d82284848e8e604051611f129493929190612cc7565b60405180910390a35050505050505060016003819055505050505050565b6000808284611f3f91906127c0565b90506000831480611f68575083838486611f5991906127c0565b925082611f669190612865565b145b611fa7576040517f08c379a0000000000000000000000000000000000000000000000000000000008152600401611f9e90612d58565b60405180910390fd5b8091505092915050565b6000808284611fc091906129c6565b9050838385611fcf91906129c6565b9150811115612013576040517f08c379a000000000000000000000000000000000000000000000000000000000815260040161200a90612dc4565b60405180910390fd5b8091505092915050565b6000604051905090565b600080fd5b600073ffffffffffffffffffffffffffffffffffffffff82169050919050565b60006120578261202c565b9050919050565b6120678161204c565b811461207257600080fd5b50565b6000813590506120848161205e565b92915050565b6000819050919050565b61209d8161208a565b81146120a857600080fd5b50565b6000813590506120ba81612094565b92915050565b600080fd5b6000819050826020600202820111156120e1576120e06120c0565b5b92915050565b600080600080600060c0868803121561210357612102612027565b5b600061211188828901612075565b9550506020612122888289016120ab565b9450506040612133888289016120ab565b9350506060612144888289016120c5565b92505060a061215588828901612075565b9150509295509295909350565b60008115159050919050565b61217781612162565b82525050565b6000602082019050612192600083018461216e565b92915050565b600080fd5b6000601f19601f8301169050919050565b7f4e487b7100000000000000000000000000000000000000000000000000000000600052604160045260246000fd5b6121e68261219d565b810181811067ffffffffffffffff82111715612205576122046121ae565b5b80604052505050565b600061221861201d565b905061222482826121dd565b919050565b600067ffffffffffffffff821115612244576122436121ae565b5b602082029050919050565b600061226261225d84612229565b61220e565b9050806020840283018581111561227c5761227b6120c0565b5b835b818110156122a557806122918882612075565b84526020840193505060208101905061227e565b5050509392505050565b600082601f8301126122c4576122c3612198565b5b60026122d184828561224f565b91505092915050565b6000806000608084860312156122f3576122f2612027565b5b600061230186828701612075565b9350506020612312868287016120ab565b9250506040612323868287016122af565b9150509250925092565b6123368161208a565b82525050565b6000602082019050612351600083018461232d565b92915050565b60008060008060a0858703121561237157612370612027565b5b600061237f87828801612075565b9450506020612390878288016120ab565b93505060406123a1878288016120c5565b92505060806123b287828801612075565b91505092959194509250565b600082825260208201905092915050565b7f494e53554646494349454e545f494e5055545f414d4f554e5400000000000000600082015250565b60006124056019836123be565b9150612410826123cf565b602082019050919050565b60006020820190508181036000830152612434816123f8565b9050919050565b7f4e487b7100000000000000000000000000000000000000000000000000000000600052603260045260246000fd5b6000602082840312156124805761247f612027565b5b600061248e84828501612075565b91505092915050565b6124a08161204c565b82525050565b60006060820190506124bb6000830186612497565b6124c86020830185612497565b6124d5604083018461232d565b949350505050565b6124e681612162565b81146124f157600080fd5b50565b600081519050612503816124dd565b92915050565b60006020828403121561251f5761251e612027565b5b600061252d848285016124f4565b91505092915050565b7f494e56414c49445f504154480000000000000000000000000000000000000000600082015250565b600061256c600c836123be565b915061257782612536565b602082019050919050565b6000602082019050818103600083015261259b8161255f565b9050919050565b600081905092915050565b50565b60006125bd6000836125a2565b91506125c8826125ad565b600082019050919050565b60006125de826125b0565b9150819050919050565b7f5472616e7366657248656c7065723a20455448207472616e736665722066616960008201527f6c65640000000000000000000000000000000000000000000000000000000000602082015250565b60006126446023836123be565b915061264f826125e8565b604082019050919050565b6000602082019050818103600083015261267381612637565b9050919050565b60006dffffffffffffffffffffffffffff82169050919050565b61269d8161267a565b81146126a857600080fd5b50565b6000815190506126ba81612694565b92915050565b600063ffffffff82169050919050565b6126d9816126c0565b81146126e457600080fd5b50565b6000815190506126f6816126d0565b92915050565b60008060006060848603121561271557612714612027565b5b6000612723868287016126ab565b9350506020612734868287016126ab565b9250506040612745868287016126e7565b9150509250925092565b60008151905061275e8161205e565b92915050565b60006020828403121561277a57612779612027565b5b60006127888482850161274f565b91505092915050565b7f4e487b7100000000000000000000000000000000000000000000000000000000600052601160045260246000fd5b60006127cb8261208a565b91506127d68361208a565b92508282026127e48161208a565b915082820484148315176127fb576127fa612791565b5b5092915050565b600061280d8261208a565b91506128188361208a565b92508282019050808211156128305761282f612791565b5b92915050565b7f4e487b7100000000000000000000000000000000000000000000000000000000600052601260045260246000fd5b60006128708261208a565b915061287b8361208a565b92508261288b5761288a612836565b5b828204905092915050565b7f494e53554646494349454e545f4f55545055545f414d4f554e54000000000000600082015250565b60006128cc601a836123be565b91506128d782612896565b602082019050919050565b600060208201905081810360008301526128fb816128bf565b9050919050565b60006040820190506129176000830185612497565b612924602083018461232d565b9392505050565b7f4e487b7100000000000000000000000000000000000000000000000000000000600052600160045260246000fd5b7f4558434553534956455f494e5055545f414d4f554e5400000000000000000000600082015250565b60006129906016836123be565b915061299b8261295a565b602082019050919050565b600060208201905081810360008301526129bf81612983565b9050919050565b60006129d18261208a565b91506129dc8361208a565b92508282039050818111156129f4576129f3612791565b5b92915050565b7f494e53554646494349454e54294c495155494449545900000000000000000000600082015250565b6000612a306016836123be565b9150612a3b826129fa565b602082019050919050565b60006020820190508181036000830152612a5f81612a23565b9050919050565b7f556e697377617056323a204c4f434b4544000000000000000000000000000000600082015250565b6000612a9c6011836123be565b9150612aa782612a66565b602082019050919050565b60006020820190508181036000830152612acb81612a8f565b9050919050565b7f494e53554646494349454e545f4c495155494449545900000000000000000000600082015250565b6000612b086016836123be565b9150612b1382612ad2565b602082019050919050565b60006020820190508181036000830152612b3781612afb565b9050919050565b7f494e56414c49445f544f00000000000000000000000000000000000000000000600082015250565b6000612b74600a836123be565b9150612b7f82612b3e565b602082019050919050565b60006020820190508181036000830152612ba381612b67565b9050919050565b6000602082019050612bbf6000830184612497565b92915050565b600081519050612bd481612094565b92915050565b600060208284031215612bf057612bef612027565b5b6000612bfe84828501612bc5565b91505092915050565b7f556e697377617056323a204b0000000000000000000000000000000000000000600082015250565b6000612c3d600c836123be565b9150612c4882612c07565b602082019050919050565b60006020820190508181036000830152612c6c81612c30565b9050919050565b612c7c8161267a565b82525050565b6000608082019050612c97600083018761232d565b612ca4602083018661232d565b612cb16040830185612c73565b612cbe6060830184612c73565b95945050505050565b6000608082019050612cdc600083018761232d565b612ce9602083018661232d565b612cf6604083018561232d565b612d03606083018461232d565b95945050505050565b7f64732d6d6174682d6d756c2d6f766572666c6f77000000000000000000000000600082015250565b6000612d426014836123be565b9150612d4d82612d0c565b602082019050919050565b60006020820190508181036000830152612d7181612d35565b9050919050565b7f64732d6d6174682d7375622d756e646572666c6f770000000000000000000000600082015250565b6000612dae6015836123be565b9150612db982612d78565b602082019050919050565b60006020820190508181036000830152612ddd81612da1565b905091905056fea2646970667358221220caa5133304937ebb42fd5cd483296a56ef30a87f6f2d61e8fceb8fe4a70b28f064736f6c63430008140033",
  "linkReferences": {},
  "deployedLinkReferences": {}
}