{
  "_format": "hh-sol-artifact-1",
  "contractName": "Token",
  "sourceName": "contracts/contract/Token.sol",
  "abi": [
    {
      "inputs": [
        {
          "internalType": "string",
          "name": "_name",
          "type": "string"
        },
        {
          "internalType": "string",
          "name": "_symbol",
          "type": "string"
        },
        {
          "internalType": "uint256",
          "name": "_amount",
          "type": "uint256"
        },
        {
          "internalType": "string",
          "name": "_uri",
          "type": "string"
        }
      ],
      "stateMutability": "nonpayable",
      "type": "constructor"
    },
    {
      "anonymous": false,
      "inputs": [
        {
          "indexed": true,
          "internalType": "address",
          "name": "owner",
          "type": "address"
        },
        {
          "indexed": true,
          "internalType": "address",
          "name": "spender",
          "type": "address"
        },
        {
          "indexed": false,
          "internalType": "uint256",
          "name": "value",
          "type": "uint256"
        }
      ],
      "name": "Approval",
      "type": "event"
    },
    {
      "anonymous": false,
      "inputs": [
        {
          "indexed": true,
          "internalType": "address",
          "name": "from",
          "type": "address"
        },
        {
          "indexed": true,
          "internalType": "address",
          "name": "to",
          "type": "address"
        },
        {
          "indexed": false,
          "internalType": "uint256",
          "name": "value",
          "type": "uint256"
        }
      ],
      "name": "Transfer",
      "type": "event"
    },
    {
      "inputs": [
        {
          "internalType": "address",
          "name": "owner",
          "type": "address"
        },
        {
          "internalType": "uint256",
          "name": "amount",
          "type": "uint256"
        }
      ],
      "name": "_burn",
      "outputs": [],
      "stateMutability": "nonpayable",
      "type": "function"
    },
    {
      "inputs": [
        {
          "internalType": "address",
          "name": "to",
          "type": "address"
        },
        {
          "internalType": "uint256",
          "name": "amount",
          "type": "uint256"
        }
      ],
      "name": "_mint",
      "outputs": [],
      "stateMutability": "nonpayable",
      "type": "function"
    },
    {
      "inputs": [
        {
          "internalType": "address",
          "name": "owner",
          "type": "address"
        },
        {
          "internalType": "address",
          "name": "spender",
          "type": "address"
        }
      ],
      "name": "allowance",
      "outputs": [
        {
          "internalType": "uint256",
          "name": "",
          "type": "uint256"
        }
      ],
      "stateMutability": "view",
      "type": "function"
    },
    {
      "inputs": [
        {
          "internalType": "address",
          "name": "",
          "type": "address"
        },
        {
          "internalType": "address",
          "name": "",
          "type": "address"
        }
      ],
      "name": "allowances",
      "outputs": [
        {
          "internalType": "uint256",
          "name": "",
          "type": "uint256"
        }
      ],
      "stateMutability": "view",
      "type": "function"
    },
    {
      "inputs": [
        {
          "internalType": "address",
          "name": "spender",
          "type": "address"
        },
        {
          "internalType": "uint256",
          "name": "amount",
          "type": "uint256"
        }
      ],
      "name": "approve",
      "outputs": [
        {
          "internalType": "bool",
          "name": "",
          "type": "bool"
        }
      ],
      "stateMutability": "nonpayable",
      "type": "function"
    },
    {
      "inputs": [
        {
          "internalType": "address",
          "name": "account",
          "type": "address"
        }
      ],
      "name": "balanceOf",
      "outputs": [
        {
          "internalType": "uint256",
          "name": "",
          "type": "uint256"
        }
      ],
      "stateMutability": "view",
      "type": "function"
    },
    {
      "inputs": [
        {
          "internalType": "address",
          "name": "",
          "type": "address"
        }
      ],
      "name": "balances",
      "outputs": [
        {
          "internalType": "uint256",
          "name": "",
          "type": "uint256"
        }
      ],
      "stateMutability": "view",
      "type": "function"
    },
    {
      "inputs": [],
      "name": "name",
      "outputs": [
        {
          "internalType": "string",
          "name": "",
          "type": "string"
        }
      ],
      "stateMutability": "view",
      "type": "function"
    },
    {
      "inputs": [],
      "name": "symbol",
      "outputs": [
        {
          "internalType": "string",
          "name": "",
          "type": "string"
        }
      ],
      "stateMutability": "view",
      "type": "function"
    },
    {
      "inputs": [
        {
          "internalType": "string",
          "name": "_imageUri",
          "type": "string"
        }
      ],
      "name": "tokenURI",
      "outputs": [
        {
          "internalType": "string",
          "name": "",
          "type": "string"
        }
      ],
      "stateMutability": "pure",
      "type": "function"
    },
    {
      "inputs": [],
      "name": "totalSupply",
      "outputs": [
        {
          "internalType": "uint256",
          "name": "",
          "type": "uint256"
        }
      ],
      "stateMutability": "view",
      "type": "function"
    },
    {
      "inputs": [
        {
          "internalType": "address",
          "name": "to",
          "type": "address"
        },
        {
          "internalType": "uint256",
          "name": "amount",
          "type": "uint256"
        }
      ],
      "name": "transfer",
      "outputs": [
        {
          "internalType": "bool",
          "name": "",
          "type": "bool"
        }
      ],
      "stateMutability": "nonpayable",
      "type": "function"
    },
    {
      "inputs": [
        {
          "internalType": "address",
          "name": "from",
          "type": "address"
        },
        {
          "internalType": "address",
          "name": "to",
          "type": "address"
        },
        {
          "internalType": "uint256",
          "name": "value",
          "type": "uint256"
        }
      ],
      "name": "transferFrom",
      "outputs": [
        {
          "internalType": "bool",
          "name": "",
          "type": "bool"
        }
      ],
      "stateMutability": "nonpayable",
      "type": "function"
    },
    {
      "inputs": [],
      "name": "uri",
      "outputs": [
        {
          "internalType": "string",
          "name": "",
          "type": "string"
        }
      ],
      "stateMutability": "view",
      "type": "function"
    }
  ],
  "bytecode": "0x6080604052601260035534801562000015575f80fd5b50604051620019d3380380620019d383398181016040528101906200003b919062000346565b835f90816200004b919062000640565b5082600190816200005d919062000640565b506200006f81620000b960201b60201c565b600290816200007f919062000640565b50620000af33600354600a620000969190620008a1565b84620000a39190620008f1565b620000f560201b60201c565b50505050620009dc565b6060620000cb6200016860201b60201c565b82604051602001620000df9291906200097b565b6040516020818303038152906040529050919050565b8060055f8473ffffffffffffffffffffffffffffffffffffffff1673ffffffffffffffffffffffffffffffffffffffff1681526020019081526020015f205f828254620001439190620009a2565b925050819055508060045f8282546200015d9190620009a2565b925050819055505050565b60606040518060600160405280603581526020016200199e60359139905090565b5f604051905090565b5f80fd5b5f80fd5b5f80fd5b5f80fd5b5f601f19601f8301169050919050565b7f4e487b71000000000000000000000000000000000000000000000000000000005f52604160045260245ffd5b620001ea82620001a2565b810181811067ffffffffffffffff821117156200020c576200020b620001b2565b5b80604052505050565b5f6200022062000189565b90506200022e8282620001df565b919050565b5f67ffffffffffffffff82111562000250576200024f620001b2565b5b6200025b82620001a2565b9050602081019050919050565b5f5b83811015620002875780820151818401526020810190506200026a565b5f8484015250505050565b5f620002a8620002a28462000233565b62000215565b905082815260208101848484011115620002c757620002c66200019e565b5b620002d484828562000268565b509392505050565b5f82601f830112620002f357620002f26200019a565b5b81516200030584826020860162000292565b91505092915050565b5f819050919050565b62000322816200030e565b81146200032d575f80fd5b50565b5f81519050620003408162000317565b92915050565b5f805f806080858703121562000361576200036062000192565b5b5f85015167ffffffffffffffff81111562000381576200038062000196565b5b6200038f87828801620002dc565b945050602085015167ffffffffffffffff811115620003b357620003b262000196565b5b620003c187828801620002dc565b9350506040620003d48782880162000330565b925050606085015167ffffffffffffffff811115620003f857620003f762000196565b5b6200040687828801620002dc565b91505092959194509250565b5f81519050919050565b7f4e487b71000000000000000000000000000000000000000000000000000000005f52602260045260245ffd5b5f60028204905060018216806200046157607f821691505b6020821081036200047757620004766200041c565b5b50919050565b5f819050815f5260205f209050919050565b5f6020601f8301049050919050565b5f82821b905092915050565b5f60088302620004db7fffffffffffffffffffffffffffffffffffffffffffffffffffffffffffffffff826200049e565b620004e786836200049e565b95508019841693508086168417925050509392505050565b5f819050919050565b5f62000528620005226200051c846200030e565b620004ff565b6200030e565b9050919050565b5f819050919050565b620005438362000508565b6200055b62000552826200052f565b848454620004aa565b825550505050565b5f90565b6200057162000563565b6200057e81848462000538565b505050565b5b81811015620005a557620005995f8262000567565b60018101905062000584565b5050565b601f821115620005f457620005be816200047d565b620005c9846200048f565b81016020851015620005d9578190505b620005f1620005e8856200048f565b83018262000583565b50505b505050565b5f82821c905092915050565b5f620006165f1984600802620005f9565b1980831691505092915050565b5f62000630838362000605565b9150826002028217905092915050565b6200064b8262000412565b67ffffffffffffffff811115620006675762000666620001b2565b5b62000673825462000449565b62000680828285620005a9565b5f60209050601f831160018114620006b6575f8415620006a1578287015190505b620006ad858262000623565b8655506200071c565b601f198416620006c6866200047d565b5f5b82811015620006ef57848901518255600182019150602085019450602081019050620006c8565b868310156200070f57848901516200070b601f89168262000605565b8355505b6001600288020188555050505b505050505050565b7f4e487b71000000000000000000000000000000000000000000000000000000005f52601160045260245ffd5b5f8160011c9050919050565b5f808291508390505b6001851115620007ae5780860481111562000786576200078562000724565b5b6001851615620007965780820291505b8081029050620007a68562000751565b945062000766565b94509492505050565b5f82620007c857600190506200089a565b81620007d7575f90506200089a565b8160018114620007f05760028114620007fb5762000831565b60019150506200089a565b60ff84111562000810576200080f62000724565b5b8360020a9150848211156200082a576200082962000724565b5b506200089a565b5060208310610133831016604e8410600b84101617156200086b5782820a90508381111562000865576200086462000724565b5b6200089a565b6200087a84848460016200075d565b9250905081840481111562000894576200089362000724565b5b81810290505b9392505050565b5f620008ad826200030e565b9150620008ba836200030e565b9250620008e97fffffffffffffffffffffffffffffffffffffffffffffffffffffffffffffffff8484620007b7565b905092915050565b5f620008fd826200030e565b91506200090a836200030e565b92508282026200091a816200030e565b9150828204841483151762000934576200093362000724565b5b5092915050565b5f81905092915050565b5f620009518262000412565b6200095d81856200093b565b93506200096f81856020860162000268565b80840191505092915050565b5f62000988828562000945565b915062000996828462000945565b91508190509392505050565b5f620009ae826200030e565b9150620009bb836200030e565b9250828201905080821115620009d657620009d562000724565b5b92915050565b610fb480620009ea5f395ff3fe608060405234801561000f575f80fd5b50600436106100e8575f3560e01c806355b6ed5c1161008a57806395d89b411161006457806395d89b4114610280578063a9059cbb1461029e578063dd62ed3e146102ce578063eac989f8146102fe576100e8565b806355b6ed5c146102045780636161eb181461023457806370a0823114610250576100e8565b806323b872dd116100c657806323b872dd1461015857806327e235e3146101885780634cf12d26146101b85780634e6ec247146101e8576100e8565b806306fdde03146100ec578063095ea7b31461010a57806318160ddd1461013a575b5f80fd5b6100f461031c565b6040516101019190610a79565b60405180910390f35b610124600480360381019061011f9190610b37565b6103a7565b6040516101319190610b8f565b60405180910390f35b61014261042f565b60405161014f9190610bb7565b60405180910390f35b610172600480360381019061016d9190610bd0565b610435565b60405161017f9190610b8f565b60405180910390f35b6101a2600480360381019061019d9190610c20565b6105f9565b6040516101af9190610bb7565b60405180910390f35b6101d260048036038101906101cd9190610d77565b61060e565b6040516101df9190610a79565b60405180910390f35b61020260048036038101906101fd9190610b37565b610640565b005b61021e60048036038101906102199190610dbe565b6106af565b60405161022b9190610bb7565b60405180910390f35b61024e60048036038101906102499190610b37565b6106cf565b005b61026a60048036038101906102659190610c20565b61073e565b6040516102779190610bb7565b60405180910390f35b610288610784565b6040516102959190610a79565b60405180910390f35b6102b860048036038101906102b39190610b37565b610810565b6040516102c59190610b8f565b60405180910390f35b6102e860048036038101906102e39190610dbe565b6108c1565b6040516102f59190610bb7565b60405180910390f35b610306610943565b6040516103139190610a79565b60405180910390f35b5f805461032890610e29565b80601f016020809104026020016040519081016040528092919081815260200182805461035490610e29565b801561039f5780601f106103765761010080835404028352916020019161039f565b820191905f5260205f20905b81548152906001019060200180831161038257829003601f168201915b505050505081565b5f8160065f3373ffffffffffffffffffffffffffffffffffffffff1673ffffffffffffffffffffffffffffffffffffffff1681526020019081526020015f205f8573ffffffffffffffffffffffffffffffffffffffff1673ffffffffffffffffffffffffffffffffffffffff1681526020019081526020015f20819055506001905092915050565b60045481565b5f8160065f8673ffffffffffffffffffffffffffffffffffffffff1673ffffffffffffffffffffffffffffffffffffffff1681526020019081526020015f205f3373ffffffffffffffffffffffffffffffffffffffff1673ffffffffffffffffffffffffffffffffffffffff1681526020019081526020015f205410156104ba575f80fd5b8160065f8673ffffffffffffffffffffffffffffffffffffffff1673ffffffffffffffffffffffffffffffffffffffff1681526020019081526020015f205f3373ffffffffffffffffffffffffffffffffffffffff1673ffffffffffffffffffffffffffffffffffffffff1681526020019081526020015f205f8282546105419190610e86565b925050819055508160055f8673ffffffffffffffffffffffffffffffffffffffff1673ffffffffffffffffffffffffffffffffffffffff1681526020019081526020015f205f8282546105949190610e86565b925050819055508160055f8573ffffffffffffffffffffffffffffffffffffffff1673ffffffffffffffffffffffffffffffffffffffff1681526020019081526020015f205f8282546105e79190610eb9565b92505081905550600190509392505050565b6005602052805f5260405f205f915090505481565b60606106186109cf565b8260405160200161062a929190610f26565b6040516020818303038152906040529050919050565b8060055f8473ffffffffffffffffffffffffffffffffffffffff1673ffffffffffffffffffffffffffffffffffffffff1681526020019081526020015f205f82825461068c9190610eb9565b925050819055508060045f8282546106a49190610eb9565b925050819055505050565b6006602052815f5260405f20602052805f5260405f205f91509150505481565b8060055f8473ffffffffffffffffffffffffffffffffffffffff1673ffffffffffffffffffffffffffffffffffffffff1681526020019081526020015f205f82825461071b9190610e86565b925050819055508060045f8282546107339190610e86565b925050819055505050565b5f60055f8373ffffffffffffffffffffffffffffffffffffffff1673ffffffffffffffffffffffffffffffffffffffff1681526020019081526020015f20549050919050565b6001805461079190610e29565b80601f01602080910402602001604051908101604052809291908181526020018280546107bd90610e29565b80156108085780601f106107df57610100808354040283529160200191610808565b820191905f5260205f20905b8154815290600101906020018083116107eb57829003601f168201915b505050505081565b5f8160055f3373ffffffffffffffffffffffffffffffffffffffff1673ffffffffffffffffffffffffffffffffffffffff1681526020019081526020015f205f82825461085d9190610e86565b925050819055508160055f8573ffffffffffffffffffffffffffffffffffffffff1673ffffffffffffffffffffffffffffffffffffffff1681526020019081526020015f205f8282546108b09190610eb9565b925050819055506001905092915050565b5f60065f8473ffffffffffffffffffffffffffffffffffffffff1673ffffffffffffffffffffffffffffffffffffffff1681526020019081526020015f205f8373ffffffffffffffffffffffffffffffffffffffff1673ffffffffffffffffffffffffffffffffffffffff1681526020019081526020015f2054905092915050565b6002805461095090610e29565b80601f016020809104026020016040519081016040528092919081815260200182805461097c90610e29565b80156109c75780601f1061099e576101008083540402835291602001916109c7565b820191905f5260205f20905b8154815290600101906020018083116109aa57829003601f168201915b505050505081565b6060604051806060016040528060358152602001610f4a60359139905090565b5f81519050919050565b5f82825260208201905092915050565b5f5b83811015610a26578082015181840152602081019050610a0b565b5f8484015250505050565b5f601f19601f8301169050919050565b5f610a4b826109ef565b610a5581856109f9565b9350610a65818560208601610a09565b610a6e81610a31565b840191505092915050565b5f6020820190508181035f830152610a918184610a41565b905092915050565b5f604051905090565b5f80fd5b5f80fd5b5f73ffffffffffffffffffffffffffffffffffffffff82169050919050565b5f610ad382610aaa565b9050919050565b610ae381610ac9565b8114610aed575f80fd5b50565b5f81359050610afe81610ada565b92915050565b5f819050919050565b610b1681610b04565b8114610b20575f80fd5b50565b5f81359050610b3181610b0d565b92915050565b5f8060408385031215610b4d57610b4c610aa2565b5b5f610b5a85828601610af0565b9250506020610b6b85828601610b23565b9150509250929050565b5f8115159050919050565b610b8981610b75565b82525050565b5f602082019050610ba25f830184610b80565b92915050565b610bb181610b04565b82525050565b5f602082019050610bca5f830184610ba8565b92915050565b5f805f60608486031215610be757610be6610aa2565b5b5f610bf486828701610af0565b9350506020610c0586828701610af0565b9250506040610c1686828701610b23565b9150509250925092565b5f60208284031215610c3557610c34610aa2565b5b5f610c4284828501610af0565b91505092915050565b5f80fd5b5f80fd5b7f4e487b71000000000000000000000000000000000000000000000000000000005f52604160045260245ffd5b610c8982610a31565b810181811067ffffffffffffffff82111715610ca857610ca7610c53565b5b80604052505050565b5f610cba610a99565b9050610cc68282610c80565b919050565b5f67ffffffffffffffff821115610ce557610ce4610c53565b5b610cee82610a31565b9050602081019050919050565b828183375f83830152505050565b5f610d1b610d1684610ccb565b610cb1565b905082815260208101848484011115610d3757610d36610c4f565b5b610d42848285610cfb565b509392505050565b5f82601f830112610d5e57610d5d610c4b565b5b8135610d6e848260208601610d09565b91505092915050565b5f60208284031215610d8c57610d8b610aa2565b5b5f82013567ffffffffffffffff811115610da957610da8610aa6565b5b610db584828501610d4a565b91505092915050565b5f8060408385031215610dd457610dd3610aa2565b5b5f610de185828601610af0565b9250506020610df285828601610af0565b9150509250929050565b7f4e487b71000000000000000000000000000000000000000000000000000000005f52602260045260245ffd5b5f6002820490506001821680610e4057607f821691505b602082108103610e5357610e52610dfc565b5b50919050565b7f4e487b71000000000000000000000000000000000000000000000000000000005f52601160045260245ffd5b5f610e9082610b04565b9150610e9b83610b04565b9250828203905081811115610eb357610eb2610e59565b5b92915050565b5f610ec382610b04565b9150610ece83610b04565b9250828201905080821115610ee657610ee5610e59565b5b92915050565b5f81905092915050565b5f610f00826109ef565b610f0a8185610eec565b9350610f1a818560208601610a09565b80840191505092915050565b5f610f318285610ef6565b9150610f3d8284610ef6565b9150819050939250505056fe68747470733a2f2f6372696d736f6e2d67656e65726f75732d616e742d3339352e6d7970696e6174612e636c6f75642f697066732fa264697066735822122015bcc8034e70735f497d0c5714a17d7689194328636b3dd4ab69aa4905d9096c64736f6c6343000814003368747470733a2f2f6372696d736f6e2d67656e65726f75732d616e742d3339352e6d7970696e6174612e636c6f75642f697066732f",
  "linkReferences": {},
  "deployedLinkReferences": {}
}