{
  "_format": "hh-sol-artifact-1",
  "contractName": "Token",
  "sourceName": "contracts/contract/Token.sol",
  "abi": [
    {
      "inputs": [
        {
          "internalType": "string",
          "name": "_name",
          "type": "string"
        },
        {
          "internalType": "string",
          "name": "_symbol",
          "type": "string"
        },
        {
          "internalType": "uint256",
          "name": "_amount",
          "type": "uint256"
        },
        {
          "internalType": "string",
          "name": "_uri",
          "type": "string"
        }
      ],
      "stateMutability": "nonpayable",
      "type": "constructor"
    },
    {
      "anonymous": false,
      "inputs": [
        {
          "indexed": true,
          "internalType": "address",
          "name": "owner",
          "type": "address"
        },
        {
          "indexed": true,
          "internalType": "address",
          "name": "spender",
          "type": "address"
        },
        {
          "indexed": false,
          "internalType": "uint256",
          "name": "value",
          "type": "uint256"
        }
      ],
      "name": "Approval",
      "type": "event"
    },
    {
      "anonymous": false,
      "inputs": [
        {
          "indexed": true,
          "internalType": "address",
          "name": "from",
          "type": "address"
        },
        {
          "indexed": true,
          "internalType": "address",
          "name": "to",
          "type": "address"
        },
        {
          "indexed": false,
          "internalType": "uint256",
          "name": "value",
          "type": "uint256"
        }
      ],
      "name": "Transfer",
      "type": "event"
    },
    {
      "inputs": [
        {
          "internalType": "address",
          "name": "owner",
          "type": "address"
        },
        {
          "internalType": "uint256",
          "name": "amount",
          "type": "uint256"
        }
      ],
      "name": "_burn",
      "outputs": [],
      "stateMutability": "nonpayable",
      "type": "function"
    },
    {
      "inputs": [
        {
          "internalType": "address",
          "name": "to",
          "type": "address"
        },
        {
          "internalType": "uint256",
          "name": "amount",
          "type": "uint256"
        }
      ],
      "name": "_mint",
      "outputs": [],
      "stateMutability": "nonpayable",
      "type": "function"
    },
    {
      "inputs": [
        {
          "internalType": "address",
          "name": "owner",
          "type": "address"
        },
        {
          "internalType": "address",
          "name": "spender",
          "type": "address"
        }
      ],
      "name": "allowance",
      "outputs": [
        {
          "internalType": "uint256",
          "name": "",
          "type": "uint256"
        }
      ],
      "stateMutability": "view",
      "type": "function"
    },
    {
      "inputs": [
        {
          "internalType": "address",
          "name": "",
          "type": "address"
        },
        {
          "internalType": "address",
          "name": "",
          "type": "address"
        }
      ],
      "name": "allowances",
      "outputs": [
        {
          "internalType": "uint256",
          "name": "",
          "type": "uint256"
        }
      ],
      "stateMutability": "view",
      "type": "function"
    },
    {
      "inputs": [
        {
          "internalType": "address",
          "name": "spender",
          "type": "address"
        },
        {
          "internalType": "uint256",
          "name": "amount",
          "type": "uint256"
        }
      ],
      "name": "approve",
      "outputs": [
        {
          "internalType": "bool",
          "name": "",
          "type": "bool"
        }
      ],
      "stateMutability": "nonpayable",
      "type": "function"
    },
    {
      "inputs": [
        {
          "internalType": "address",
          "name": "account",
          "type": "address"
        }
      ],
      "name": "balanceOf",
      "outputs": [
        {
          "internalType": "uint256",
          "name": "",
          "type": "uint256"
        }
      ],
      "stateMutability": "view",
      "type": "function"
    },
    {
      "inputs": [
        {
          "internalType": "address",
          "name": "",
          "type": "address"
        }
      ],
      "name": "balances",
      "outputs": [
        {
          "internalType": "uint256",
          "name": "",
          "type": "uint256"
        }
      ],
      "stateMutability": "view",
      "type": "function"
    },
    {
      "inputs": [],
      "name": "name",
      "outputs": [
        {
          "internalType": "string",
          "name": "",
          "type": "string"
        }
      ],
      "stateMutability": "view",
      "type": "function"
    },
    {
      "inputs": [],
      "name": "symbol",
      "outputs": [
        {
          "internalType": "string",
          "name": "",
          "type": "string"
        }
      ],
      "stateMutability": "view",
      "type": "function"
    },
    {
      "inputs": [
        {
          "internalType": "string",
          "name": "_imageUri",
          "type": "string"
        }
      ],
      "name": "tokenURI",
      "outputs": [
        {
          "internalType": "string",
          "name": "",
          "type": "string"
        }
      ],
      "stateMutability": "pure",
      "type": "function"
    },
    {
      "inputs": [],
      "name": "totalSupply",
      "outputs": [
        {
          "internalType": "uint256",
          "name": "",
          "type": "uint256"
        }
      ],
      "stateMutability": "view",
      "type": "function"
    },
    {
      "inputs": [
        {
          "internalType": "address",
          "name": "to",
          "type": "address"
        },
        {
          "internalType": "uint256",
          "name": "amount",
          "type": "uint256"
        }
      ],
      "name": "transfer",
      "outputs": [
        {
          "internalType": "bool",
          "name": "",
          "type": "bool"
        }
      ],
      "stateMutability": "nonpayable",
      "type": "function"
    },
    {
      "inputs": [
        {
          "internalType": "address",
          "name": "from",
          "type": "address"
        },
        {
          "internalType": "address",
          "name": "to",
          "type": "address"
        },
        {
          "internalType": "uint256",
          "name": "value",
          "type": "uint256"
        }
      ],
      "name": "transferFrom",
      "outputs": [
        {
          "internalType": "bool",
          "name": "",
          "type": "bool"
        }
      ],
      "stateMutability": "nonpayable",
      "type": "function"
    },
    {
      "inputs": [],
      "name": "uri",
      "outputs": [
        {
          "internalType": "string",
          "name": "",
          "type": "string"
        }
      ],
      "stateMutability": "view",
      "type": "function"
    }
  ],
  "bytecode": "0x608060405260126003553480156200001657600080fd5b5060405162001a8538038062001a8583398181016040528101906200003c91906200035d565b83600090816200004d91906200066d565b5082600190816200005f91906200066d565b506200007181620000bb60201b60201c565b600290816200008191906200066d565b50620000b133600354600a620000989190620008d7565b84620000a5919062000928565b620000f760201b60201c565b5050505062000a18565b6060620000cd6200016e60201b60201c565b82604051602001620000e1929190620009b5565b6040516020818303038152906040529050919050565b80600560008473ffffffffffffffffffffffffffffffffffffffff1673ffffffffffffffffffffffffffffffffffffffff1681526020019081526020016000206000828254620001489190620009dd565b925050819055508060046000828254620001639190620009dd565b925050819055505050565b606060405180606001604052806035815260200162001a5060359139905090565b6000604051905090565b600080fd5b600080fd5b600080fd5b600080fd5b6000601f19601f8301169050919050565b7f4e487b7100000000000000000000000000000000000000000000000000000000600052604160045260246000fd5b620001f882620001ad565b810181811067ffffffffffffffff821117156200021a5762000219620001be565b5b80604052505050565b60006200022f6200018f565b90506200023d8282620001ed565b919050565b600067ffffffffffffffff82111562000260576200025f620001be565b5b6200026b82620001ad565b9050602081019050919050565b60005b83811015620002985780820151818401526020810190506200027b565b60008484015250505050565b6000620002bb620002b58462000242565b62000223565b905082815260208101848484011115620002da57620002d9620001a8565b5b620002e784828562000278565b509392505050565b600082601f830112620003075762000306620001a3565b5b815162000319848260208601620002a4565b91505092915050565b6000819050919050565b620003378162000322565b81146200034357600080fd5b50565b60008151905062000357816200032c565b92915050565b600080600080608085870312156200037a576200037962000199565b5b600085015167ffffffffffffffff8111156200039b576200039a6200019e565b5b620003a987828801620002ef565b945050602085015167ffffffffffffffff811115620003cd57620003cc6200019e565b5b620003db87828801620002ef565b9350506040620003ee8782880162000346565b925050606085015167ffffffffffffffff8111156200041257620004116200019e565b5b6200042087828801620002ef565b91505092959194509250565b600081519050919050565b7f4e487b7100000000000000000000000000000000000000000000000000000000600052602260045260246000fd5b600060028204905060018216806200047f57607f821691505b60208210810362000495576200049462000437565b5b50919050565b60008190508160005260206000209050919050565b60006020601f8301049050919050565b600082821b905092915050565b600060088302620004ff7fffffffffffffffffffffffffffffffffffffffffffffffffffffffffffffffff82620004c0565b6200050b8683620004c0565b95508019841693508086168417925050509392505050565b6000819050919050565b60006200054e62000548620005428462000322565b62000523565b62000322565b9050919050565b6000819050919050565b6200056a836200052d565b62000582620005798262000555565b848454620004cd565b825550505050565b600090565b620005996200058a565b620005a68184846200055f565b505050565b5b81811015620005ce57620005c26000826200058f565b600181019050620005ac565b5050565b601f8211156200061d57620005e7816200049b565b620005f284620004b0565b8101602085101562000602578190505b6200061a6200061185620004b0565b830182620005ab565b50505b505050565b600082821c905092915050565b6000620006426000198460080262000622565b1980831691505092915050565b60006200065d83836200062f565b9150826002028217905092915050565b62000678826200042c565b67ffffffffffffffff811115620006945762000693620001be565b5b620006a0825462000466565b620006ad828285620005d2565b600060209050601f831160018114620006e55760008415620006d0578287015190505b620006dc85826200064f565b8655506200074c565b601f198416620006f5866200049b565b60005b828110156200071f57848901518255600182019150602085019450602081019050620006f8565b868310156200073f57848901516200073b601f8916826200062f565b8355505b6001600288020188555050505b505050505050565b7f4e487b7100000000000000000000000000000000000000000000000000000000600052601160045260246000fd5b60008160011c9050919050565b6000808291508390505b6001851115620007e257808604811115620007ba57620007b962000754565b5b6001851615620007ca5780820291505b8081029050620007da8562000783565b94506200079a565b94509492505050565b600082620007fd5760019050620008d0565b816200080d5760009050620008d0565b8160018114620008265760028114620008315762000867565b6001915050620008d0565b60ff84111562000846576200084562000754565b5b8360020a91508482111562000860576200085f62000754565b5b50620008d0565b5060208310610133831016604e8410600b8410161715620008a15782820a9050838111156200089b576200089a62000754565b5b620008d0565b620008b0848484600162000790565b92509050818404811115620008ca57620008c962000754565b5b81810290505b9392505050565b6000620008e48262000322565b9150620008f18362000322565b9250620009207fffffffffffffffffffffffffffffffffffffffffffffffffffffffffffffffff8484620007eb565b905092915050565b6000620009358262000322565b9150620009428362000322565b9250828202620009528162000322565b915082820484148315176200096c576200096b62000754565b5b5092915050565b600081905092915050565b60006200098b826200042c565b62000997818562000973565b9350620009a981856020860162000278565b80840191505092915050565b6000620009c382856200097e565b9150620009d182846200097e565b91508190509392505050565b6000620009ea8262000322565b9150620009f78362000322565b925082820190508082111562000a125762000a1162000754565b5b92915050565b6110288062000a286000396000f3fe608060405234801561001057600080fd5b50600436106100ea5760003560e01c806355b6ed5c1161008c57806395d89b411161006657806395d89b4114610283578063a9059cbb146102a1578063dd62ed3e146102d1578063eac989f814610301576100ea565b806355b6ed5c146102075780636161eb181461023757806370a0823114610253576100ea565b806323b872dd116100c857806323b872dd1461015b57806327e235e31461018b5780634cf12d26146101bb5780634e6ec247146101eb576100ea565b806306fdde03146100ef578063095ea7b31461010d57806318160ddd1461013d575b600080fd5b6100f761031f565b6040516101049190610abe565b60405180910390f35b61012760048036038101906101229190610b88565b6103ad565b6040516101349190610be3565b60405180910390f35b61014561043a565b6040516101529190610c0d565b60405180910390f35b61017560048036038101906101709190610c28565b610440565b6040516101829190610be3565b60405180910390f35b6101a560048036038101906101a09190610c7b565b610615565b6040516101b29190610c0d565b60405180910390f35b6101d560048036038101906101d09190610ddd565b61062d565b6040516101e29190610abe565b60405180910390f35b61020560048036038101906102009190610b88565b61065f565b005b610221600480360381019061021c9190610e26565b6106d2565b60405161022e9190610c0d565b60405180910390f35b610251600480360381019061024c9190610b88565b6106f7565b005b61026d60048036038101906102689190610c7b565b61076a565b60405161027a9190610c0d565b60405180910390f35b61028b6107b3565b6040516102989190610abe565b60405180910390f35b6102bb60048036038101906102b69190610b88565b610841565b6040516102c89190610be3565b60405180910390f35b6102eb60048036038101906102e69190610e26565b6108f9565b6040516102f89190610c0d565b60405180910390f35b610309610980565b6040516103169190610abe565b60405180910390f35b6000805461032c90610e95565b80601f016020809104026020016040519081016040528092919081815260200182805461035890610e95565b80156103a55780601f1061037a576101008083540402835291602001916103a5565b820191906000526020600020905b81548152906001019060200180831161038857829003601f168201915b505050505081565b600081600660003373ffffffffffffffffffffffffffffffffffffffff1673ffffffffffffffffffffffffffffffffffffffff16815260200190815260200160002060008573ffffffffffffffffffffffffffffffffffffffff1673ffffffffffffffffffffffffffffffffffffffff168152602001908152602001600020819055506001905092915050565b60045481565b600081600660008673ffffffffffffffffffffffffffffffffffffffff1673ffffffffffffffffffffffffffffffffffffffff16815260200190815260200160002060003373ffffffffffffffffffffffffffffffffffffffff1673ffffffffffffffffffffffffffffffffffffffff1681526020019081526020016000205410156104cb57600080fd5b81600660008673ffffffffffffffffffffffffffffffffffffffff1673ffffffffffffffffffffffffffffffffffffffff16815260200190815260200160002060003373ffffffffffffffffffffffffffffffffffffffff1673ffffffffffffffffffffffffffffffffffffffff16815260200190815260200160002060008282546105579190610ef5565b9250508190555081600560008673ffffffffffffffffffffffffffffffffffffffff1673ffffffffffffffffffffffffffffffffffffffff16815260200190815260200160002060008282546105ad9190610ef5565b9250508190555081600560008573ffffffffffffffffffffffffffffffffffffffff1673ffffffffffffffffffffffffffffffffffffffff16815260200190815260200160002060008282546106039190610f29565b92505081905550600190509392505050565b60056020528060005260406000206000915090505481565b6060610637610a0e565b82604051602001610649929190610f99565b6040516020818303038152906040529050919050565b80600560008473ffffffffffffffffffffffffffffffffffffffff1673ffffffffffffffffffffffffffffffffffffffff16815260200190815260200160002060008282546106ae9190610f29565b9250508190555080600460008282546106c79190610f29565b925050819055505050565b6006602052816000526040600020602052806000526040600020600091509150505481565b80600560008473ffffffffffffffffffffffffffffffffffffffff1673ffffffffffffffffffffffffffffffffffffffff16815260200190815260200160002060008282546107469190610ef5565b92505081905550806004600082825461075f9190610ef5565b925050819055505050565b6000600560008373ffffffffffffffffffffffffffffffffffffffff1673ffffffffffffffffffffffffffffffffffffffff168152602001908152602001600020549050919050565b600180546107c090610e95565b80601f01602080910402602001604051908101604052809291908181526020018280546107ec90610e95565b80156108395780601f1061080e57610100808354040283529160200191610839565b820191906000526020600020905b81548152906001019060200180831161081c57829003601f168201915b505050505081565b600081600560003373ffffffffffffffffffffffffffffffffffffffff1673ffffffffffffffffffffffffffffffffffffffff16815260200190815260200160002060008282546108929190610ef5565b9250508190555081600560008573ffffffffffffffffffffffffffffffffffffffff1673ffffffffffffffffffffffffffffffffffffffff16815260200190815260200160002060008282546108e89190610f29565b925050819055506001905092915050565b6000600660008473ffffffffffffffffffffffffffffffffffffffff1673ffffffffffffffffffffffffffffffffffffffff16815260200190815260200160002060008373ffffffffffffffffffffffffffffffffffffffff1673ffffffffffffffffffffffffffffffffffffffff16815260200190815260200160002054905092915050565b6002805461098d90610e95565b80601f01602080910402602001604051908101604052809291908181526020018280546109b990610e95565b8015610a065780601f106109db57610100808354040283529160200191610a06565b820191906000526020600020905b8154815290600101906020018083116109e957829003601f168201915b505050505081565b6060604051806060016040528060358152602001610fbe60359139905090565b600081519050919050565b600082825260208201905092915050565b60005b83811015610a68578082015181840152602081019050610a4d565b60008484015250505050565b6000601f19601f8301169050919050565b6000610a9082610a2e565b610a9a8185610a39565b9350610aaa818560208601610a4a565b610ab381610a74565b840191505092915050565b60006020820190508181036000830152610ad88184610a85565b905092915050565b6000604051905090565b600080fd5b600080fd5b600073ffffffffffffffffffffffffffffffffffffffff82169050919050565b6000610b1f82610af4565b9050919050565b610b2f81610b14565b8114610b3a57600080fd5b50565b600081359050610b4c81610b26565b92915050565b6000819050919050565b610b6581610b52565b8114610b7057600080fd5b50565b600081359050610b8281610b5c565b92915050565b60008060408385031215610b9f57610b9e610aea565b5b6000610bad85828601610b3d565b9250506020610bbe85828601610b73565b9150509250929050565b60008115159050919050565b610bdd81610bc8565b82525050565b6000602082019050610bf86000830184610bd4565b92915050565b610c0781610b52565b82525050565b6000602082019050610c226000830184610bfe565b92915050565b600080600060608486031215610c4157610c40610aea565b5b6000610c4f86828701610b3d565b9350506020610c6086828701610b3d565b9250506040610c7186828701610b73565b9150509250925092565b600060208284031215610c9157610c90610aea565b5b6000610c9f84828501610b3d565b91505092915050565b600080fd5b600080fd5b7f4e487b7100000000000000000000000000000000000000000000000000000000600052604160045260246000fd5b610cea82610a74565b810181811067ffffffffffffffff82111715610d0957610d08610cb2565b5b80604052505050565b6000610d1c610ae0565b9050610d288282610ce1565b919050565b600067ffffffffffffffff821115610d4857610d47610cb2565b5b610d5182610a74565b9050602081019050919050565b82818337600083830152505050565b6000610d80610d7b84610d2d565b610d12565b905082815260208101848484011115610d9c57610d9b610cad565b5b610da7848285610d5e565b509392505050565b600082601f830112610dc457610dc3610ca8565b5b8135610dd4848260208601610d6d565b91505092915050565b600060208284031215610df357610df2610aea565b5b600082013567ffffffffffffffff811115610e1157610e10610aef565b5b610e1d84828501610daf565b91505092915050565b60008060408385031215610e3d57610e3c610aea565b5b6000610e4b85828601610b3d565b9250506020610e5c85828601610b3d565b9150509250929050565b7f4e487b7100000000000000000000000000000000000000000000000000000000600052602260045260246000fd5b60006002820490506001821680610ead57607f821691505b602082108103610ec057610ebf610e66565b5b50919050565b7f4e487b7100000000000000000000000000000000000000000000000000000000600052601160045260246000fd5b6000610f0082610b52565b9150610f0b83610b52565b9250828203905081811115610f2357610f22610ec6565b5b92915050565b6000610f3482610b52565b9150610f3f83610b52565b9250828201905080821115610f5757610f56610ec6565b5b92915050565b600081905092915050565b6000610f7382610a2e565b610f7d8185610f5d565b9350610f8d818560208601610a4a565b80840191505092915050565b6000610fa58285610f68565b9150610fb18284610f68565b9150819050939250505056fe68747470733a2f2f6372696d736f6e2d67656e65726f75732d616e742d3339352e6d7970696e6174612e636c6f75642f697066732fa26469706673582212207f6b5a15e3159c8aeaed0c6aee0cb1dbbf1288e1d1c6d2ce65cea88b9d51bd5c64736f6c6343000814003368747470733a2f2f6372696d736f6e2d67656e65726f75732d616e742d3339352e6d7970696e6174612e636c6f75642f697066732f",
  "linkReferences": {},
  "deployedLinkReferences": {}
}