{
	"contracts/contract/Test.sol": {
		"Test": {
			"abi": [
				{
					"inputs": [
						{
							"components": [
								{
									"internalType": "string",
									"name": "name",
									"type": "string"
								},
								{
									"internalType": "uint256[]",
									"name": "args",
									"type": "uint256[]"
								}
							],
							"internalType": "struct Test.functionInfo[]",
							"name": "functionInfos",
							"type": "tuple[]"
						}
					],
					"name": "initialPlay",
					"outputs": [
						{
							"components": [
								{
									"internalType": "string",
									"name": "name",
									"type": "string"
								},
								{
									"internalType": "uint256[]",
									"name": "args",
									"type": "uint256[]"
								}
							],
							"internalType": "struct Test.functionInfo[]",
							"name": "",
							"type": "tuple[]"
						}
					],
					"stateMutability": "nonpayable",
					"type": "function"
				}
			],
			"devdoc": {
				"kind": "dev",
				"methods": {},
				"version": 1
			},
			"evm": {
				"assembly": "    /* \"contracts/contract/Test.sol\":58:1352  contract Test {... */\n  mstore(0x40, 0x80)\n  callvalue\n  dup1\n  iszero\n  tag_1\n  jumpi\n  0x00\n  dup1\n  revert\ntag_1:\n  pop\n  dataSize(sub_0)\n  dup1\n  dataOffset(sub_0)\n  0x00\n  codecopy\n  0x00\n  return\nstop\n\nsub_0: assembly {\n        /* \"contracts/contract/Test.sol\":58:1352  contract Test {... */\n      mstore(0x40, 0x80)\n      callvalue\n      dup1\n      iszero\n      tag_1\n      jumpi\n      0x00\n      dup1\n      revert\n    tag_1:\n      pop\n      jumpi(tag_2, lt(calldatasize, 0x04))\n      shr(0xe0, calldataload(0x00))\n      dup1\n      0x86c07647\n      eq\n      tag_3\n      jumpi\n    tag_2:\n      0x00\n      dup1\n      revert\n        /* \"contracts/contract/Test.sol\":309:1350  function initialPlay(functionInfo[] memory functionInfos) public returns (functionInfo[] memory) {... */\n    tag_3:\n      tag_4\n      0x04\n      dup1\n      calldatasize\n      sub\n      dup2\n      add\n      swap1\n      tag_5\n      swap2\n      swap1\n      tag_6\n      jump\t// in\n    tag_5:\n      tag_7\n      jump\t// in\n    tag_4:\n      mload(0x40)\n      tag_8\n      swap2\n      swap1\n      tag_9\n      jump\t// in\n    tag_8:\n      mload(0x40)\n      dup1\n      swap2\n      sub\n      swap1\n      return\n    tag_7:\n        /* \"contracts/contract/Test.sol\":383:404  functionInfo[] memory */\n      0x60\n        /* \"contracts/contract/Test.sol\":424:437  functionInfos */\n      dup2\n        /* \"contracts/contract/Test.sol\":417:437  return functionInfos */\n      swap1\n      pop\n        /* \"contracts/contract/Test.sol\":309:1350  function initialPlay(functionInfo[] memory functionInfos) public returns (functionInfo[] memory) {... */\n      swap2\n      swap1\n      pop\n      jump\t// out\n        /* \"#utility.yul\":7:82   */\n    tag_11:\n        /* \"#utility.yul\":40:46   */\n      0x00\n        /* \"#utility.yul\":73:75   */\n      0x40\n        /* \"#utility.yul\":67:76   */\n      mload\n        /* \"#utility.yul\":57:76   */\n      swap1\n      pop\n        /* \"#utility.yul\":7:82   */\n      swap1\n      jump\t// out\n        /* \"#utility.yul\":88:205   */\n    tag_12:\n        /* \"#utility.yul\":197:198   */\n      0x00\n        /* \"#utility.yul\":194:195   */\n      dup1\n        /* \"#utility.yul\":187:199   */\n      revert\n        /* \"#utility.yul\":211:328   */\n    tag_13:\n        /* \"#utility.yul\":320:321   */\n      0x00\n        /* \"#utility.yul\":317:318   */\n      dup1\n        /* \"#utility.yul\":310:322   */\n      revert\n        /* \"#utility.yul\":334:451   */\n    tag_14:\n        /* \"#utility.yul\":443:444   */\n      0x00\n        /* \"#utility.yul\":440:441   */\n      dup1\n        /* \"#utility.yul\":433:445   */\n      revert\n        /* \"#utility.yul\":457:559   */\n    tag_15:\n        /* \"#utility.yul\":498:504   */\n      0x00\n        /* \"#utility.yul\":549:551   */\n      0x1f\n        /* \"#utility.yul\":545:552   */\n      not\n        /* \"#utility.yul\":540:542   */\n      0x1f\n        /* \"#utility.yul\":533:538   */\n      dup4\n        /* \"#utility.yul\":529:543   */\n      add\n        /* \"#utility.yul\":525:553   */\n      and\n        /* \"#utility.yul\":515:553   */\n      swap1\n      pop\n        /* \"#utility.yul\":457:559   */\n      swap2\n      swap1\n      pop\n      jump\t// out\n        /* \"#utility.yul\":565:745   */\n    tag_16:\n        /* \"#utility.yul\":613:690   */\n      0x4e487b7100000000000000000000000000000000000000000000000000000000\n        /* \"#utility.yul\":610:611   */\n      0x00\n        /* \"#utility.yul\":603:691   */\n      mstore\n        /* \"#utility.yul\":710:714   */\n      0x41\n        /* \"#utility.yul\":707:708   */\n      0x04\n        /* \"#utility.yul\":700:715   */\n      mstore\n        /* \"#utility.yul\":734:738   */\n      0x24\n        /* \"#utility.yul\":731:732   */\n      0x00\n        /* \"#utility.yul\":724:739   */\n      revert\n        /* \"#utility.yul\":751:1032   */\n    tag_17:\n        /* \"#utility.yul\":834:861   */\n      tag_63\n        /* \"#utility.yul\":856:860   */\n      dup3\n        /* \"#utility.yul\":834:861   */\n      tag_15\n      jump\t// in\n    tag_63:\n        /* \"#utility.yul\":826:832   */\n      dup2\n        /* \"#utility.yul\":822:862   */\n      add\n        /* \"#utility.yul\":964:970   */\n      dup2\n        /* \"#utility.yul\":952:962   */\n      dup2\n        /* \"#utility.yul\":949:971   */\n      lt\n        /* \"#utility.yul\":928:946   */\n      0xffffffffffffffff\n        /* \"#utility.yul\":916:926   */\n      dup3\n        /* \"#utility.yul\":913:947   */\n      gt\n        /* \"#utility.yul\":910:972   */\n      or\n        /* \"#utility.yul\":907:995   */\n      iszero\n      tag_64\n      jumpi\n        /* \"#utility.yul\":975:993   */\n      tag_65\n      tag_16\n      jump\t// in\n    tag_65:\n        /* \"#utility.yul\":907:995   */\n    tag_64:\n        /* \"#utility.yul\":1015:1025   */\n      dup1\n        /* \"#utility.yul\":1011:1013   */\n      0x40\n        /* \"#utility.yul\":1004:1026   */\n      mstore\n        /* \"#utility.yul\":794:1032   */\n      pop\n        /* \"#utility.yul\":751:1032   */\n      pop\n      pop\n      jump\t// out\n        /* \"#utility.yul\":1038:1167   */\n    tag_18:\n        /* \"#utility.yul\":1072:1078   */\n      0x00\n        /* \"#utility.yul\":1099:1119   */\n      tag_67\n      tag_11\n      jump\t// in\n    tag_67:\n        /* \"#utility.yul\":1089:1119   */\n      swap1\n      pop\n        /* \"#utility.yul\":1128:1161   */\n      tag_68\n        /* \"#utility.yul\":1156:1160   */\n      dup3\n        /* \"#utility.yul\":1148:1154   */\n      dup3\n        /* \"#utility.yul\":1128:1161   */\n      tag_17\n      jump\t// in\n    tag_68:\n        /* \"#utility.yul\":1038:1167   */\n      swap2\n      swap1\n      pop\n      jump\t// out\n        /* \"#utility.yul\":1173:1511   */\n    tag_19:\n        /* \"#utility.yul\":1277:1281   */\n      0x00\n        /* \"#utility.yul\":1367:1385   */\n      0xffffffffffffffff\n        /* \"#utility.yul\":1359:1365   */\n      dup3\n        /* \"#utility.yul\":1356:1386   */\n      gt\n        /* \"#utility.yul\":1353:1409   */\n      iszero\n      tag_70\n      jumpi\n        /* \"#utility.yul\":1389:1407   */\n      tag_71\n      tag_16\n      jump\t// in\n    tag_71:\n        /* \"#utility.yul\":1353:1409   */\n    tag_70:\n        /* \"#utility.yul\":1439:1443   */\n      0x20\n        /* \"#utility.yul\":1431:1437   */\n      dup3\n        /* \"#utility.yul\":1427:1444   */\n      mul\n        /* \"#utility.yul\":1419:1444   */\n      swap1\n      pop\n        /* \"#utility.yul\":1499:1503   */\n      0x20\n        /* \"#utility.yul\":1493:1497   */\n      dup2\n        /* \"#utility.yul\":1489:1504   */\n      add\n        /* \"#utility.yul\":1481:1504   */\n      swap1\n      pop\n        /* \"#utility.yul\":1173:1511   */\n      swap2\n      swap1\n      pop\n      jump\t// out\n        /* \"#utility.yul\":1517:1634   */\n    tag_20:\n        /* \"#utility.yul\":1626:1627   */\n      0x00\n        /* \"#utility.yul\":1623:1624   */\n      dup1\n        /* \"#utility.yul\":1616:1628   */\n      revert\n        /* \"#utility.yul\":1640:1757   */\n    tag_21:\n        /* \"#utility.yul\":1749:1750   */\n      0x00\n        /* \"#utility.yul\":1746:1747   */\n      dup1\n        /* \"#utility.yul\":1739:1751   */\n      revert\n        /* \"#utility.yul\":1763:1880   */\n    tag_22:\n        /* \"#utility.yul\":1872:1873   */\n      0x00\n        /* \"#utility.yul\":1869:1870   */\n      dup1\n        /* \"#utility.yul\":1862:1874   */\n      revert\n        /* \"#utility.yul\":1886:2003   */\n    tag_23:\n        /* \"#utility.yul\":1995:1996   */\n      0x00\n        /* \"#utility.yul\":1992:1993   */\n      dup1\n        /* \"#utility.yul\":1985:1997   */\n      revert\n        /* \"#utility.yul\":2009:2317   */\n    tag_24:\n        /* \"#utility.yul\":2071:2075   */\n      0x00\n        /* \"#utility.yul\":2161:2179   */\n      0xffffffffffffffff\n        /* \"#utility.yul\":2153:2159   */\n      dup3\n        /* \"#utility.yul\":2150:2180   */\n      gt\n        /* \"#utility.yul\":2147:2203   */\n      iszero\n      tag_77\n      jumpi\n        /* \"#utility.yul\":2183:2201   */\n      tag_78\n      tag_16\n      jump\t// in\n    tag_78:\n        /* \"#utility.yul\":2147:2203   */\n    tag_77:\n        /* \"#utility.yul\":2221:2250   */\n      tag_79\n        /* \"#utility.yul\":2243:2249   */\n      dup3\n        /* \"#utility.yul\":2221:2250   */\n      tag_15\n      jump\t// in\n    tag_79:\n        /* \"#utility.yul\":2213:2250   */\n      swap1\n      pop\n        /* \"#utility.yul\":2305:2309   */\n      0x20\n        /* \"#utility.yul\":2299:2303   */\n      dup2\n        /* \"#utility.yul\":2295:2310   */\n      add\n        /* \"#utility.yul\":2287:2310   */\n      swap1\n      pop\n        /* \"#utility.yul\":2009:2317   */\n      swap2\n      swap1\n      pop\n      jump\t// out\n        /* \"#utility.yul\":2323:2469   */\n    tag_25:\n        /* \"#utility.yul\":2420:2426   */\n      dup3\n        /* \"#utility.yul\":2415:2418   */\n      dup2\n        /* \"#utility.yul\":2410:2413   */\n      dup4\n        /* \"#utility.yul\":2397:2427   */\n      calldatacopy\n        /* \"#utility.yul\":2461:2462   */\n      0x00\n        /* \"#utility.yul\":2452:2458   */\n      dup4\n        /* \"#utility.yul\":2447:2450   */\n      dup4\n        /* \"#utility.yul\":2443:2459   */\n      add\n        /* \"#utility.yul\":2436:2463   */\n      mstore\n        /* \"#utility.yul\":2323:2469   */\n      pop\n      pop\n      pop\n      jump\t// out\n        /* \"#utility.yul\":2475:2900   */\n    tag_26:\n        /* \"#utility.yul\":2553:2558   */\n      0x00\n        /* \"#utility.yul\":2578:2644   */\n      tag_82\n        /* \"#utility.yul\":2594:2643   */\n      tag_83\n        /* \"#utility.yul\":2636:2642   */\n      dup5\n        /* \"#utility.yul\":2594:2643   */\n      tag_24\n      jump\t// in\n    tag_83:\n        /* \"#utility.yul\":2578:2644   */\n      tag_18\n      jump\t// in\n    tag_82:\n        /* \"#utility.yul\":2569:2644   */\n      swap1\n      pop\n        /* \"#utility.yul\":2667:2673   */\n      dup3\n        /* \"#utility.yul\":2660:2665   */\n      dup2\n        /* \"#utility.yul\":2653:2674   */\n      mstore\n        /* \"#utility.yul\":2705:2709   */\n      0x20\n        /* \"#utility.yul\":2698:2703   */\n      dup2\n        /* \"#utility.yul\":2694:2710   */\n      add\n        /* \"#utility.yul\":2743:2746   */\n      dup5\n        /* \"#utility.yul\":2734:2740   */\n      dup5\n        /* \"#utility.yul\":2729:2732   */\n      dup5\n        /* \"#utility.yul\":2725:2741   */\n      add\n        /* \"#utility.yul\":2722:2747   */\n      gt\n        /* \"#utility.yul\":2719:2831   */\n      iszero\n      tag_84\n      jumpi\n        /* \"#utility.yul\":2750:2829   */\n      tag_85\n      tag_23\n      jump\t// in\n    tag_85:\n        /* \"#utility.yul\":2719:2831   */\n    tag_84:\n        /* \"#utility.yul\":2840:2894   */\n      tag_86\n        /* \"#utility.yul\":2887:2893   */\n      dup5\n        /* \"#utility.yul\":2882:2885   */\n      dup3\n        /* \"#utility.yul\":2877:2880   */\n      dup6\n        /* \"#utility.yul\":2840:2894   */\n      tag_25\n      jump\t// in\n    tag_86:\n        /* \"#utility.yul\":2559:2900   */\n      pop\n        /* \"#utility.yul\":2475:2900   */\n      swap4\n      swap3\n      pop\n      pop\n      pop\n      jump\t// out\n        /* \"#utility.yul\":2920:3260   */\n    tag_27:\n        /* \"#utility.yul\":2976:2981   */\n      0x00\n        /* \"#utility.yul\":3025:3028   */\n      dup3\n        /* \"#utility.yul\":3018:3022   */\n      0x1f\n        /* \"#utility.yul\":3010:3016   */\n      dup4\n        /* \"#utility.yul\":3006:3023   */\n      add\n        /* \"#utility.yul\":3002:3029   */\n      slt\n        /* \"#utility.yul\":2992:3114   */\n      tag_88\n      jumpi\n        /* \"#utility.yul\":3033:3112   */\n      tag_89\n      tag_14\n      jump\t// in\n    tag_89:\n        /* \"#utility.yul\":2992:3114   */\n    tag_88:\n        /* \"#utility.yul\":3150:3156   */\n      dup2\n        /* \"#utility.yul\":3137:3157   */\n      calldataload\n        /* \"#utility.yul\":3175:3254   */\n      tag_90\n        /* \"#utility.yul\":3250:3253   */\n      dup5\n        /* \"#utility.yul\":3242:3248   */\n      dup3\n        /* \"#utility.yul\":3235:3239   */\n      0x20\n        /* \"#utility.yul\":3227:3233   */\n      dup7\n        /* \"#utility.yul\":3223:3240   */\n      add\n        /* \"#utility.yul\":3175:3254   */\n      tag_26\n      jump\t// in\n    tag_90:\n        /* \"#utility.yul\":3166:3254   */\n      swap2\n      pop\n        /* \"#utility.yul\":2982:3260   */\n      pop\n        /* \"#utility.yul\":2920:3260   */\n      swap3\n      swap2\n      pop\n      pop\n      jump\t// out\n        /* \"#utility.yul\":3266:3577   */\n    tag_28:\n        /* \"#utility.yul\":3343:3347   */\n      0x00\n        /* \"#utility.yul\":3433:3451   */\n      0xffffffffffffffff\n        /* \"#utility.yul\":3425:3431   */\n      dup3\n        /* \"#utility.yul\":3422:3452   */\n      gt\n        /* \"#utility.yul\":3419:3475   */\n      iszero\n      tag_92\n      jumpi\n        /* \"#utility.yul\":3455:3473   */\n      tag_93\n      tag_16\n      jump\t// in\n    tag_93:\n        /* \"#utility.yul\":3419:3475   */\n    tag_92:\n        /* \"#utility.yul\":3505:3509   */\n      0x20\n        /* \"#utility.yul\":3497:3503   */\n      dup3\n        /* \"#utility.yul\":3493:3510   */\n      mul\n        /* \"#utility.yul\":3485:3510   */\n      swap1\n      pop\n        /* \"#utility.yul\":3565:3569   */\n      0x20\n        /* \"#utility.yul\":3559:3563   */\n      dup2\n        /* \"#utility.yul\":3555:3570   */\n      add\n        /* \"#utility.yul\":3547:3570   */\n      swap1\n      pop\n        /* \"#utility.yul\":3266:3577   */\n      swap2\n      swap1\n      pop\n      jump\t// out\n        /* \"#utility.yul\":3583:3660   */\n    tag_29:\n        /* \"#utility.yul\":3620:3627   */\n      0x00\n        /* \"#utility.yul\":3649:3654   */\n      dup2\n        /* \"#utility.yul\":3638:3654   */\n      swap1\n      pop\n        /* \"#utility.yul\":3583:3660   */\n      swap2\n      swap1\n      pop\n      jump\t// out\n        /* \"#utility.yul\":3666:3788   */\n    tag_30:\n        /* \"#utility.yul\":3739:3763   */\n      tag_96\n        /* \"#utility.yul\":3757:3762   */\n      dup2\n        /* \"#utility.yul\":3739:3763   */\n      tag_29\n      jump\t// in\n    tag_96:\n        /* \"#utility.yul\":3732:3737   */\n      dup2\n        /* \"#utility.yul\":3729:3764   */\n      eq\n        /* \"#utility.yul\":3719:3782   */\n      tag_97\n      jumpi\n        /* \"#utility.yul\":3778:3779   */\n      0x00\n        /* \"#utility.yul\":3775:3776   */\n      dup1\n        /* \"#utility.yul\":3768:3780   */\n      revert\n        /* \"#utility.yul\":3719:3782   */\n    tag_97:\n        /* \"#utility.yul\":3666:3788   */\n      pop\n      jump\t// out\n        /* \"#utility.yul\":3794:3933   */\n    tag_31:\n        /* \"#utility.yul\":3840:3845   */\n      0x00\n        /* \"#utility.yul\":3878:3884   */\n      dup2\n        /* \"#utility.yul\":3865:3885   */\n      calldataload\n        /* \"#utility.yul\":3856:3885   */\n      swap1\n      pop\n        /* \"#utility.yul\":3894:3927   */\n      tag_99\n        /* \"#utility.yul\":3921:3926   */\n      dup2\n        /* \"#utility.yul\":3894:3927   */\n      tag_30\n      jump\t// in\n    tag_99:\n        /* \"#utility.yul\":3794:3933   */\n      swap3\n      swap2\n      pop\n      pop\n      jump\t// out\n        /* \"#utility.yul\":3956:4666   */\n    tag_32:\n        /* \"#utility.yul\":4052:4057   */\n      0x00\n        /* \"#utility.yul\":4077:4158   */\n      tag_101\n        /* \"#utility.yul\":4093:4157   */\n      tag_102\n        /* \"#utility.yul\":4150:4156   */\n      dup5\n        /* \"#utility.yul\":4093:4157   */\n      tag_28\n      jump\t// in\n    tag_102:\n        /* \"#utility.yul\":4077:4158   */\n      tag_18\n      jump\t// in\n    tag_101:\n        /* \"#utility.yul\":4068:4158   */\n      swap1\n      pop\n        /* \"#utility.yul\":4178:4183   */\n      dup1\n        /* \"#utility.yul\":4207:4213   */\n      dup4\n        /* \"#utility.yul\":4200:4205   */\n      dup3\n        /* \"#utility.yul\":4193:4214   */\n      mstore\n        /* \"#utility.yul\":4241:4245   */\n      0x20\n        /* \"#utility.yul\":4234:4239   */\n      dup3\n        /* \"#utility.yul\":4230:4246   */\n      add\n        /* \"#utility.yul\":4223:4246   */\n      swap1\n      pop\n        /* \"#utility.yul\":4294:4298   */\n      0x20\n        /* \"#utility.yul\":4286:4292   */\n      dup5\n        /* \"#utility.yul\":4282:4299   */\n      mul\n        /* \"#utility.yul\":4274:4280   */\n      dup4\n        /* \"#utility.yul\":4270:4300   */\n      add\n        /* \"#utility.yul\":4323:4326   */\n      dup6\n        /* \"#utility.yul\":4315:4321   */\n      dup2\n        /* \"#utility.yul\":4312:4327   */\n      gt\n        /* \"#utility.yul\":4309:4431   */\n      iszero\n      tag_103\n      jumpi\n        /* \"#utility.yul\":4342:4421   */\n      tag_104\n      tag_20\n      jump\t// in\n    tag_104:\n        /* \"#utility.yul\":4309:4431   */\n    tag_103:\n        /* \"#utility.yul\":4457:4463   */\n      dup4\n        /* \"#utility.yul\":4440:4660   */\n    tag_105:\n        /* \"#utility.yul\":4474:4480   */\n      dup2\n        /* \"#utility.yul\":4469:4472   */\n      dup2\n        /* \"#utility.yul\":4466:4481   */\n      lt\n        /* \"#utility.yul\":4440:4660   */\n      iszero\n      tag_107\n      jumpi\n        /* \"#utility.yul\":4549:4552   */\n      dup1\n        /* \"#utility.yul\":4578:4615   */\n      tag_108\n        /* \"#utility.yul\":4611:4614   */\n      dup9\n        /* \"#utility.yul\":4599:4609   */\n      dup3\n        /* \"#utility.yul\":4578:4615   */\n      tag_31\n      jump\t// in\n    tag_108:\n        /* \"#utility.yul\":4573:4576   */\n      dup5\n        /* \"#utility.yul\":4566:4616   */\n      mstore\n        /* \"#utility.yul\":4645:4649   */\n      0x20\n        /* \"#utility.yul\":4640:4643   */\n      dup5\n        /* \"#utility.yul\":4636:4650   */\n      add\n        /* \"#utility.yul\":4629:4650   */\n      swap4\n      pop\n        /* \"#utility.yul\":4516:4660   */\n      pop\n        /* \"#utility.yul\":4500:4504   */\n      0x20\n        /* \"#utility.yul\":4495:4498   */\n      dup2\n        /* \"#utility.yul\":4491:4505   */\n      add\n        /* \"#utility.yul\":4484:4505   */\n      swap1\n      pop\n        /* \"#utility.yul\":4440:4660   */\n      jump(tag_105)\n    tag_107:\n        /* \"#utility.yul\":4444:4465   */\n      pop\n        /* \"#utility.yul\":4058:4666   */\n      pop\n      pop\n        /* \"#utility.yul\":3956:4666   */\n      swap4\n      swap3\n      pop\n      pop\n      pop\n      jump\t// out\n        /* \"#utility.yul\":4689:5059   */\n    tag_33:\n        /* \"#utility.yul\":4760:4765   */\n      0x00\n        /* \"#utility.yul\":4809:4812   */\n      dup3\n        /* \"#utility.yul\":4802:4806   */\n      0x1f\n        /* \"#utility.yul\":4794:4800   */\n      dup4\n        /* \"#utility.yul\":4790:4807   */\n      add\n        /* \"#utility.yul\":4786:4813   */\n      slt\n        /* \"#utility.yul\":4776:4898   */\n      tag_110\n      jumpi\n        /* \"#utility.yul\":4817:4896   */\n      tag_111\n      tag_14\n      jump\t// in\n    tag_111:\n        /* \"#utility.yul\":4776:4898   */\n    tag_110:\n        /* \"#utility.yul\":4934:4940   */\n      dup2\n        /* \"#utility.yul\":4921:4941   */\n      calldataload\n        /* \"#utility.yul\":4959:5053   */\n      tag_112\n        /* \"#utility.yul\":5049:5052   */\n      dup5\n        /* \"#utility.yul\":5041:5047   */\n      dup3\n        /* \"#utility.yul\":5034:5038   */\n      0x20\n        /* \"#utility.yul\":5026:5032   */\n      dup7\n        /* \"#utility.yul\":5022:5039   */\n      add\n        /* \"#utility.yul\":4959:5053   */\n      tag_32\n      jump\t// in\n    tag_112:\n        /* \"#utility.yul\":4950:5053   */\n      swap2\n      pop\n        /* \"#utility.yul\":4766:5059   */\n      pop\n        /* \"#utility.yul\":4689:5059   */\n      swap3\n      swap2\n      pop\n      pop\n      jump\t// out\n        /* \"#utility.yul\":5097:6028   */\n    tag_34:\n        /* \"#utility.yul\":5173:5178   */\n      0x00\n        /* \"#utility.yul\":5217:5221   */\n      0x40\n        /* \"#utility.yul\":5205:5214   */\n      dup3\n        /* \"#utility.yul\":5200:5203   */\n      dup5\n        /* \"#utility.yul\":5196:5215   */\n      sub\n        /* \"#utility.yul\":5192:5222   */\n      slt\n        /* \"#utility.yul\":5189:5306   */\n      iszero\n      tag_114\n      jumpi\n        /* \"#utility.yul\":5225:5304   */\n      tag_115\n      tag_21\n      jump\t// in\n    tag_115:\n        /* \"#utility.yul\":5189:5306   */\n    tag_114:\n        /* \"#utility.yul\":5324:5345   */\n      tag_116\n        /* \"#utility.yul\":5340:5344   */\n      0x40\n        /* \"#utility.yul\":5324:5345   */\n      tag_18\n      jump\t// in\n    tag_116:\n        /* \"#utility.yul\":5315:5345   */\n      swap1\n      pop\n        /* \"#utility.yul\":5432:5433   */\n      0x00\n        /* \"#utility.yul\":5421:5430   */\n      dup3\n        /* \"#utility.yul\":5417:5434   */\n      add\n        /* \"#utility.yul\":5404:5435   */\n      calldataload\n        /* \"#utility.yul\":5462:5480   */\n      0xffffffffffffffff\n        /* \"#utility.yul\":5454:5460   */\n      dup2\n        /* \"#utility.yul\":5451:5481   */\n      gt\n        /* \"#utility.yul\":5448:5565   */\n      iszero\n      tag_117\n      jumpi\n        /* \"#utility.yul\":5484:5563   */\n      tag_118\n      tag_22\n      jump\t// in\n    tag_118:\n        /* \"#utility.yul\":5448:5565   */\n    tag_117:\n        /* \"#utility.yul\":5604:5663   */\n      tag_119\n        /* \"#utility.yul\":5659:5662   */\n      dup5\n        /* \"#utility.yul\":5650:5656   */\n      dup3\n        /* \"#utility.yul\":5639:5648   */\n      dup6\n        /* \"#utility.yul\":5635:5657   */\n      add\n        /* \"#utility.yul\":5604:5663   */\n      tag_27\n      jump\t// in\n    tag_119:\n        /* \"#utility.yul\":5597:5601   */\n      0x00\n        /* \"#utility.yul\":5590:5595   */\n      dup4\n        /* \"#utility.yul\":5586:5602   */\n      add\n        /* \"#utility.yul\":5579:5664   */\n      mstore\n        /* \"#utility.yul\":5355:5675   */\n      pop\n        /* \"#utility.yul\":5762:5764   */\n      0x20\n        /* \"#utility.yul\":5751:5760   */\n      dup3\n        /* \"#utility.yul\":5747:5765   */\n      add\n        /* \"#utility.yul\":5734:5766   */\n      calldataload\n        /* \"#utility.yul\":5793:5811   */\n      0xffffffffffffffff\n        /* \"#utility.yul\":5785:5791   */\n      dup2\n        /* \"#utility.yul\":5782:5812   */\n      gt\n        /* \"#utility.yul\":5779:5896   */\n      iszero\n      tag_120\n      jumpi\n        /* \"#utility.yul\":5815:5894   */\n      tag_121\n      tag_22\n      jump\t// in\n    tag_121:\n        /* \"#utility.yul\":5779:5896   */\n    tag_120:\n        /* \"#utility.yul\":5935:6009   */\n      tag_122\n        /* \"#utility.yul\":6005:6008   */\n      dup5\n        /* \"#utility.yul\":5996:6002   */\n      dup3\n        /* \"#utility.yul\":5985:5994   */\n      dup6\n        /* \"#utility.yul\":5981:6003   */\n      add\n        /* \"#utility.yul\":5935:6009   */\n      tag_33\n      jump\t// in\n    tag_122:\n        /* \"#utility.yul\":5928:5932   */\n      0x20\n        /* \"#utility.yul\":5921:5926   */\n      dup4\n        /* \"#utility.yul\":5917:5933   */\n      add\n        /* \"#utility.yul\":5910:6010   */\n      mstore\n        /* \"#utility.yul\":5685:6021   */\n      pop\n        /* \"#utility.yul\":5097:6028   */\n      swap3\n      swap2\n      pop\n      pop\n      jump\t// out\n        /* \"#utility.yul\":6068:7064   */\n    tag_35:\n        /* \"#utility.yul\":6191:6196   */\n      0x00\n        /* \"#utility.yul\":6216:6324   */\n      tag_124\n        /* \"#utility.yul\":6232:6323   */\n      tag_125\n        /* \"#utility.yul\":6316:6322   */\n      dup5\n        /* \"#utility.yul\":6232:6323   */\n      tag_19\n      jump\t// in\n    tag_125:\n        /* \"#utility.yul\":6216:6324   */\n      tag_18\n      jump\t// in\n    tag_124:\n        /* \"#utility.yul\":6207:6324   */\n      swap1\n      pop\n        /* \"#utility.yul\":6344:6349   */\n      dup1\n        /* \"#utility.yul\":6373:6379   */\n      dup4\n        /* \"#utility.yul\":6366:6371   */\n      dup3\n        /* \"#utility.yul\":6359:6380   */\n      mstore\n        /* \"#utility.yul\":6407:6411   */\n      0x20\n        /* \"#utility.yul\":6400:6405   */\n      dup3\n        /* \"#utility.yul\":6396:6412   */\n      add\n        /* \"#utility.yul\":6389:6412   */\n      swap1\n      pop\n        /* \"#utility.yul\":6460:6464   */\n      0x20\n        /* \"#utility.yul\":6452:6458   */\n      dup5\n        /* \"#utility.yul\":6448:6465   */\n      mul\n        /* \"#utility.yul\":6440:6446   */\n      dup4\n        /* \"#utility.yul\":6436:6466   */\n      add\n        /* \"#utility.yul\":6489:6492   */\n      dup6\n        /* \"#utility.yul\":6481:6487   */\n      dup2\n        /* \"#utility.yul\":6478:6493   */\n      gt\n        /* \"#utility.yul\":6475:6597   */\n      iszero\n      tag_126\n      jumpi\n        /* \"#utility.yul\":6508:6587   */\n      tag_127\n      tag_20\n      jump\t// in\n    tag_127:\n        /* \"#utility.yul\":6475:6597   */\n    tag_126:\n        /* \"#utility.yul\":6623:6629   */\n      dup4\n        /* \"#utility.yul\":6606:7058   */\n    tag_128:\n        /* \"#utility.yul\":6640:6646   */\n      dup2\n        /* \"#utility.yul\":6635:6638   */\n      dup2\n        /* \"#utility.yul\":6632:6647   */\n      lt\n        /* \"#utility.yul\":6606:7058   */\n      iszero\n      tag_130\n      jumpi\n        /* \"#utility.yul\":6729:6732   */\n      dup1\n        /* \"#utility.yul\":6716:6733   */\n      calldataload\n        /* \"#utility.yul\":6765:6783   */\n      0xffffffffffffffff\n        /* \"#utility.yul\":6752:6763   */\n      dup2\n        /* \"#utility.yul\":6749:6784   */\n      gt\n        /* \"#utility.yul\":6746:6868   */\n      iszero\n      tag_131\n      jumpi\n        /* \"#utility.yul\":6787:6866   */\n      tag_132\n      tag_14\n      jump\t// in\n    tag_132:\n        /* \"#utility.yul\":6746:6868   */\n    tag_131:\n        /* \"#utility.yul\":6911:6922   */\n      dup1\n        /* \"#utility.yul\":6903:6909   */\n      dup7\n        /* \"#utility.yul\":6899:6923   */\n      add\n        /* \"#utility.yul\":6949:7013   */\n      tag_133\n        /* \"#utility.yul\":7009:7012   */\n      dup10\n        /* \"#utility.yul\":6997:7007   */\n      dup3\n        /* \"#utility.yul\":6949:7013   */\n      tag_34\n      jump\t// in\n    tag_133:\n        /* \"#utility.yul\":6944:6947   */\n      dup6\n        /* \"#utility.yul\":6937:7014   */\n      mstore\n        /* \"#utility.yul\":7043:7047   */\n      0x20\n        /* \"#utility.yul\":7038:7041   */\n      dup6\n        /* \"#utility.yul\":7034:7048   */\n      add\n        /* \"#utility.yul\":7027:7048   */\n      swap5\n      pop\n        /* \"#utility.yul\":6682:7058   */\n      pop\n      pop\n        /* \"#utility.yul\":6666:6670   */\n      0x20\n        /* \"#utility.yul\":6661:6664   */\n      dup2\n        /* \"#utility.yul\":6657:6671   */\n      add\n        /* \"#utility.yul\":6650:6671   */\n      swap1\n      pop\n        /* \"#utility.yul\":6606:7058   */\n      jump(tag_128)\n    tag_130:\n        /* \"#utility.yul\":6610:6631   */\n      pop\n        /* \"#utility.yul\":6197:7064   */\n      pop\n      pop\n        /* \"#utility.yul\":6068:7064   */\n      swap4\n      swap3\n      pop\n      pop\n      pop\n      jump\t// out\n        /* \"#utility.yul\":7104:7528   */\n    tag_36:\n        /* \"#utility.yul\":7202:7207   */\n      0x00\n        /* \"#utility.yul\":7251:7254   */\n      dup3\n        /* \"#utility.yul\":7244:7248   */\n      0x1f\n        /* \"#utility.yul\":7236:7242   */\n      dup4\n        /* \"#utility.yul\":7232:7249   */\n      add\n        /* \"#utility.yul\":7228:7255   */\n      slt\n        /* \"#utility.yul\":7218:7340   */\n      tag_135\n      jumpi\n        /* \"#utility.yul\":7259:7338   */\n      tag_136\n      tag_14\n      jump\t// in\n    tag_136:\n        /* \"#utility.yul\":7218:7340   */\n    tag_135:\n        /* \"#utility.yul\":7376:7382   */\n      dup2\n        /* \"#utility.yul\":7363:7383   */\n      calldataload\n        /* \"#utility.yul\":7401:7522   */\n      tag_137\n        /* \"#utility.yul\":7518:7521   */\n      dup5\n        /* \"#utility.yul\":7510:7516   */\n      dup3\n        /* \"#utility.yul\":7503:7507   */\n      0x20\n        /* \"#utility.yul\":7495:7501   */\n      dup7\n        /* \"#utility.yul\":7491:7508   */\n      add\n        /* \"#utility.yul\":7401:7522   */\n      tag_35\n      jump\t// in\n    tag_137:\n        /* \"#utility.yul\":7392:7522   */\n      swap2\n      pop\n        /* \"#utility.yul\":7208:7528   */\n      pop\n        /* \"#utility.yul\":7104:7528   */\n      swap3\n      swap2\n      pop\n      pop\n      jump\t// out\n        /* \"#utility.yul\":7534:8127   */\n    tag_6:\n        /* \"#utility.yul\":7645:7651   */\n      0x00\n        /* \"#utility.yul\":7694:7696   */\n      0x20\n        /* \"#utility.yul\":7682:7691   */\n      dup3\n        /* \"#utility.yul\":7673:7680   */\n      dup5\n        /* \"#utility.yul\":7669:7692   */\n      sub\n        /* \"#utility.yul\":7665:7697   */\n      slt\n        /* \"#utility.yul\":7662:7781   */\n      iszero\n      tag_139\n      jumpi\n        /* \"#utility.yul\":7700:7779   */\n      tag_140\n      tag_12\n      jump\t// in\n    tag_140:\n        /* \"#utility.yul\":7662:7781   */\n    tag_139:\n        /* \"#utility.yul\":7848:7849   */\n      0x00\n        /* \"#utility.yul\":7837:7846   */\n      dup3\n        /* \"#utility.yul\":7833:7850   */\n      add\n        /* \"#utility.yul\":7820:7851   */\n      calldataload\n        /* \"#utility.yul\":7878:7896   */\n      0xffffffffffffffff\n        /* \"#utility.yul\":7870:7876   */\n      dup2\n        /* \"#utility.yul\":7867:7897   */\n      gt\n        /* \"#utility.yul\":7864:7981   */\n      iszero\n      tag_141\n      jumpi\n        /* \"#utility.yul\":7900:7979   */\n      tag_142\n      tag_13\n      jump\t// in\n    tag_142:\n        /* \"#utility.yul\":7864:7981   */\n    tag_141:\n        /* \"#utility.yul\":8005:8110   */\n      tag_143\n        /* \"#utility.yul\":8102:8109   */\n      dup5\n        /* \"#utility.yul\":8093:8099   */\n      dup3\n        /* \"#utility.yul\":8082:8091   */\n      dup6\n        /* \"#utility.yul\":8078:8100   */\n      add\n        /* \"#utility.yul\":8005:8110   */\n      tag_36\n      jump\t// in\n    tag_143:\n        /* \"#utility.yul\":7995:8110   */\n      swap2\n      pop\n        /* \"#utility.yul\":7791:8120   */\n      pop\n        /* \"#utility.yul\":7534:8127   */\n      swap3\n      swap2\n      pop\n      pop\n      jump\t// out\n        /* \"#utility.yul\":8133:8274   */\n    tag_37:\n        /* \"#utility.yul\":8227:8233   */\n      0x00\n        /* \"#utility.yul\":8261:8266   */\n      dup2\n        /* \"#utility.yul\":8255:8267   */\n      mload\n        /* \"#utility.yul\":8245:8267   */\n      swap1\n      pop\n        /* \"#utility.yul\":8133:8274   */\n      swap2\n      swap1\n      pop\n      jump\t// out\n        /* \"#utility.yul\":8280:8491   */\n    tag_38:\n        /* \"#utility.yul\":8406:8417   */\n      0x00\n        /* \"#utility.yul\":8440:8446   */\n      dup3\n        /* \"#utility.yul\":8435:8438   */\n      dup3\n        /* \"#utility.yul\":8428:8447   */\n      mstore\n        /* \"#utility.yul\":8480:8484   */\n      0x20\n        /* \"#utility.yul\":8475:8478   */\n      dup3\n        /* \"#utility.yul\":8471:8485   */\n      add\n        /* \"#utility.yul\":8456:8485   */\n      swap1\n      pop\n        /* \"#utility.yul\":8280:8491   */\n      swap3\n      swap2\n      pop\n      pop\n      jump\t// out\n        /* \"#utility.yul\":8497:8656   */\n    tag_39:\n        /* \"#utility.yul\":8591:8595   */\n      0x00\n        /* \"#utility.yul\":8614:8617   */\n      dup2\n        /* \"#utility.yul\":8606:8617   */\n      swap1\n      pop\n        /* \"#utility.yul\":8644:8648   */\n      0x20\n        /* \"#utility.yul\":8639:8642   */\n      dup3\n        /* \"#utility.yul\":8635:8649   */\n      add\n        /* \"#utility.yul\":8627:8649   */\n      swap1\n      pop\n        /* \"#utility.yul\":8497:8656   */\n      swap2\n      swap1\n      pop\n      jump\t// out\n        /* \"#utility.yul\":8662:8761   */\n    tag_40:\n        /* \"#utility.yul\":8714:8720   */\n      0x00\n        /* \"#utility.yul\":8748:8753   */\n      dup2\n        /* \"#utility.yul\":8742:8754   */\n      mload\n        /* \"#utility.yul\":8732:8754   */\n      swap1\n      pop\n        /* \"#utility.yul\":8662:8761   */\n      swap2\n      swap1\n      pop\n      jump\t// out\n        /* \"#utility.yul\":8767:8926   */\n    tag_41:\n        /* \"#utility.yul\":8841:8852   */\n      0x00\n        /* \"#utility.yul\":8875:8881   */\n      dup3\n        /* \"#utility.yul\":8870:8873   */\n      dup3\n        /* \"#utility.yul\":8863:8882   */\n      mstore\n        /* \"#utility.yul\":8915:8919   */\n      0x20\n        /* \"#utility.yul\":8910:8913   */\n      dup3\n        /* \"#utility.yul\":8906:8920   */\n      add\n        /* \"#utility.yul\":8891:8920   */\n      swap1\n      pop\n        /* \"#utility.yul\":8767:8926   */\n      swap3\n      swap2\n      pop\n      pop\n      jump\t// out\n        /* \"#utility.yul\":8932:9178   */\n    tag_42:\n        /* \"#utility.yul\":9013:9014   */\n      0x00\n        /* \"#utility.yul\":9023:9136   */\n    tag_150:\n        /* \"#utility.yul\":9037:9043   */\n      dup4\n        /* \"#utility.yul\":9034:9035   */\n      dup2\n        /* \"#utility.yul\":9031:9044   */\n      lt\n        /* \"#utility.yul\":9023:9136   */\n      iszero\n      tag_152\n      jumpi\n        /* \"#utility.yul\":9122:9123   */\n      dup1\n        /* \"#utility.yul\":9117:9120   */\n      dup3\n        /* \"#utility.yul\":9113:9124   */\n      add\n        /* \"#utility.yul\":9107:9125   */\n      mload\n        /* \"#utility.yul\":9103:9104   */\n      dup2\n        /* \"#utility.yul\":9098:9101   */\n      dup5\n        /* \"#utility.yul\":9094:9105   */\n      add\n        /* \"#utility.yul\":9087:9126   */\n      mstore\n        /* \"#utility.yul\":9059:9061   */\n      0x20\n        /* \"#utility.yul\":9056:9057   */\n      dup2\n        /* \"#utility.yul\":9052:9062   */\n      add\n        /* \"#utility.yul\":9047:9062   */\n      swap1\n      pop\n        /* \"#utility.yul\":9023:9136   */\n      jump(tag_150)\n    tag_152:\n        /* \"#utility.yul\":9170:9171   */\n      0x00\n        /* \"#utility.yul\":9161:9167   */\n      dup5\n        /* \"#utility.yul\":9156:9159   */\n      dup5\n        /* \"#utility.yul\":9152:9168   */\n      add\n        /* \"#utility.yul\":9145:9172   */\n      mstore\n        /* \"#utility.yul\":8994:9178   */\n      pop\n        /* \"#utility.yul\":8932:9178   */\n      pop\n      pop\n      pop\n      jump\t// out\n        /* \"#utility.yul\":9184:9541   */\n    tag_43:\n        /* \"#utility.yul\":9262:9265   */\n      0x00\n        /* \"#utility.yul\":9290:9329   */\n      tag_154\n        /* \"#utility.yul\":9323:9328   */\n      dup3\n        /* \"#utility.yul\":9290:9329   */\n      tag_40\n      jump\t// in\n    tag_154:\n        /* \"#utility.yul\":9345:9406   */\n      tag_155\n        /* \"#utility.yul\":9399:9405   */\n      dup2\n        /* \"#utility.yul\":9394:9397   */\n      dup6\n        /* \"#utility.yul\":9345:9406   */\n      tag_41\n      jump\t// in\n    tag_155:\n        /* \"#utility.yul\":9338:9406   */\n      swap4\n      pop\n        /* \"#utility.yul\":9415:9480   */\n      tag_156\n        /* \"#utility.yul\":9473:9479   */\n      dup2\n        /* \"#utility.yul\":9468:9471   */\n      dup6\n        /* \"#utility.yul\":9461:9465   */\n      0x20\n        /* \"#utility.yul\":9454:9459   */\n      dup7\n        /* \"#utility.yul\":9450:9466   */\n      add\n        /* \"#utility.yul\":9415:9480   */\n      tag_42\n      jump\t// in\n    tag_156:\n        /* \"#utility.yul\":9505:9534   */\n      tag_157\n        /* \"#utility.yul\":9527:9533   */\n      dup2\n        /* \"#utility.yul\":9505:9534   */\n      tag_15\n      jump\t// in\n    tag_157:\n        /* \"#utility.yul\":9500:9503   */\n      dup5\n        /* \"#utility.yul\":9496:9535   */\n      add\n        /* \"#utility.yul\":9489:9535   */\n      swap2\n      pop\n        /* \"#utility.yul\":9266:9541   */\n      pop\n        /* \"#utility.yul\":9184:9541   */\n      swap3\n      swap2\n      pop\n      pop\n      jump\t// out\n        /* \"#utility.yul\":9547:9661   */\n    tag_44:\n        /* \"#utility.yul\":9614:9620   */\n      0x00\n        /* \"#utility.yul\":9648:9653   */\n      dup2\n        /* \"#utility.yul\":9642:9654   */\n      mload\n        /* \"#utility.yul\":9632:9654   */\n      swap1\n      pop\n        /* \"#utility.yul\":9547:9661   */\n      swap2\n      swap1\n      pop\n      jump\t// out\n        /* \"#utility.yul\":9667:9841   */\n    tag_45:\n        /* \"#utility.yul\":9756:9767   */\n      0x00\n        /* \"#utility.yul\":9790:9796   */\n      dup3\n        /* \"#utility.yul\":9785:9788   */\n      dup3\n        /* \"#utility.yul\":9778:9797   */\n      mstore\n        /* \"#utility.yul\":9830:9834   */\n      0x20\n        /* \"#utility.yul\":9825:9828   */\n      dup3\n        /* \"#utility.yul\":9821:9835   */\n      add\n        /* \"#utility.yul\":9806:9835   */\n      swap1\n      pop\n        /* \"#utility.yul\":9667:9841   */\n      swap3\n      swap2\n      pop\n      pop\n      jump\t// out\n        /* \"#utility.yul\":9847:9979   */\n    tag_46:\n        /* \"#utility.yul\":9914:9918   */\n      0x00\n        /* \"#utility.yul\":9937:9940   */\n      dup2\n        /* \"#utility.yul\":9929:9940   */\n      swap1\n      pop\n        /* \"#utility.yul\":9967:9971   */\n      0x20\n        /* \"#utility.yul\":9962:9965   */\n      dup3\n        /* \"#utility.yul\":9958:9972   */\n      add\n        /* \"#utility.yul\":9950:9972   */\n      swap1\n      pop\n        /* \"#utility.yul\":9847:9979   */\n      swap2\n      swap1\n      pop\n      jump\t// out\n        /* \"#utility.yul\":9985:10093   */\n    tag_47:\n        /* \"#utility.yul\":10062:10086   */\n      tag_162\n        /* \"#utility.yul\":10080:10085   */\n      dup2\n        /* \"#utility.yul\":10062:10086   */\n      tag_29\n      jump\t// in\n    tag_162:\n        /* \"#utility.yul\":10057:10060   */\n      dup3\n        /* \"#utility.yul\":10050:10087   */\n      mstore\n        /* \"#utility.yul\":9985:10093   */\n      pop\n      pop\n      jump\t// out\n        /* \"#utility.yul\":10099:10278   */\n    tag_48:\n        /* \"#utility.yul\":10168:10178   */\n      0x00\n        /* \"#utility.yul\":10189:10235   */\n      tag_164\n        /* \"#utility.yul\":10231:10234   */\n      dup4\n        /* \"#utility.yul\":10223:10229   */\n      dup4\n        /* \"#utility.yul\":10189:10235   */\n      tag_47\n      jump\t// in\n    tag_164:\n        /* \"#utility.yul\":10267:10271   */\n      0x20\n        /* \"#utility.yul\":10262:10265   */\n      dup4\n        /* \"#utility.yul\":10258:10272   */\n      add\n        /* \"#utility.yul\":10244:10272   */\n      swap1\n      pop\n        /* \"#utility.yul\":10099:10278   */\n      swap3\n      swap2\n      pop\n      pop\n      jump\t// out\n        /* \"#utility.yul\":10284:10397   */\n    tag_49:\n        /* \"#utility.yul\":10354:10358   */\n      0x00\n        /* \"#utility.yul\":10386:10390   */\n      0x20\n        /* \"#utility.yul\":10381:10384   */\n      dup3\n        /* \"#utility.yul\":10377:10391   */\n      add\n        /* \"#utility.yul\":10369:10391   */\n      swap1\n      pop\n        /* \"#utility.yul\":10284:10397   */\n      swap2\n      swap1\n      pop\n      jump\t// out\n        /* \"#utility.yul\":10433:11145   */\n    tag_50:\n        /* \"#utility.yul\":10542:10545   */\n      0x00\n        /* \"#utility.yul\":10571:10625   */\n      tag_167\n        /* \"#utility.yul\":10619:10624   */\n      dup3\n        /* \"#utility.yul\":10571:10625   */\n      tag_44\n      jump\t// in\n    tag_167:\n        /* \"#utility.yul\":10641:10717   */\n      tag_168\n        /* \"#utility.yul\":10710:10716   */\n      dup2\n        /* \"#utility.yul\":10705:10708   */\n      dup6\n        /* \"#utility.yul\":10641:10717   */\n      tag_45\n      jump\t// in\n    tag_168:\n        /* \"#utility.yul\":10634:10717   */\n      swap4\n      pop\n        /* \"#utility.yul\":10741:10797   */\n      tag_169\n        /* \"#utility.yul\":10791:10796   */\n      dup4\n        /* \"#utility.yul\":10741:10797   */\n      tag_46\n      jump\t// in\n    tag_169:\n        /* \"#utility.yul\":10820:10827   */\n      dup1\n        /* \"#utility.yul\":10851:10852   */\n      0x00\n        /* \"#utility.yul\":10836:11120   */\n    tag_170:\n        /* \"#utility.yul\":10861:10867   */\n      dup4\n        /* \"#utility.yul\":10858:10859   */\n      dup2\n        /* \"#utility.yul\":10855:10868   */\n      lt\n        /* \"#utility.yul\":10836:11120   */\n      iszero\n      tag_172\n      jumpi\n        /* \"#utility.yul\":10937:10943   */\n      dup2\n        /* \"#utility.yul\":10931:10944   */\n      mload\n        /* \"#utility.yul\":10964:11027   */\n      tag_173\n        /* \"#utility.yul\":11023:11026   */\n      dup9\n        /* \"#utility.yul\":11008:11021   */\n      dup3\n        /* \"#utility.yul\":10964:11027   */\n      tag_48\n      jump\t// in\n    tag_173:\n        /* \"#utility.yul\":10957:11027   */\n      swap8\n      pop\n        /* \"#utility.yul\":11050:11110   */\n      tag_174\n        /* \"#utility.yul\":11103:11109   */\n      dup4\n        /* \"#utility.yul\":11050:11110   */\n      tag_49\n      jump\t// in\n    tag_174:\n        /* \"#utility.yul\":11040:11110   */\n      swap3\n      pop\n        /* \"#utility.yul\":10896:11120   */\n      pop\n        /* \"#utility.yul\":10883:10884   */\n      0x01\n        /* \"#utility.yul\":10880:10881   */\n      dup2\n        /* \"#utility.yul\":10876:10885   */\n      add\n        /* \"#utility.yul\":10871:10885   */\n      swap1\n      pop\n        /* \"#utility.yul\":10836:11120   */\n      jump(tag_170)\n    tag_172:\n        /* \"#utility.yul\":10840:10854   */\n      pop\n        /* \"#utility.yul\":11136:11139   */\n      dup6\n        /* \"#utility.yul\":11129:11139   */\n      swap4\n      pop\n        /* \"#utility.yul\":10547:11145   */\n      pop\n      pop\n      pop\n        /* \"#utility.yul\":10433:11145   */\n      swap3\n      swap2\n      pop\n      pop\n      jump\t// out\n        /* \"#utility.yul\":11211:11912   */\n    tag_51:\n        /* \"#utility.yul\":11324:11327   */\n      0x00\n        /* \"#utility.yul\":11360:11364   */\n      0x40\n        /* \"#utility.yul\":11355:11358   */\n      dup4\n        /* \"#utility.yul\":11351:11365   */\n      add\n        /* \"#utility.yul\":11447:11451   */\n      0x00\n        /* \"#utility.yul\":11440:11445   */\n      dup4\n        /* \"#utility.yul\":11436:11452   */\n      add\n        /* \"#utility.yul\":11430:11453   */\n      mload\n        /* \"#utility.yul\":11500:11503   */\n      dup5\n        /* \"#utility.yul\":11494:11498   */\n      dup3\n        /* \"#utility.yul\":11490:11504   */\n      sub\n        /* \"#utility.yul\":11483:11487   */\n      0x00\n        /* \"#utility.yul\":11478:11481   */\n      dup7\n        /* \"#utility.yul\":11474:11488   */\n      add\n        /* \"#utility.yul\":11467:11505   */\n      mstore\n        /* \"#utility.yul\":11526:11599   */\n      tag_176\n        /* \"#utility.yul\":11594:11598   */\n      dup3\n        /* \"#utility.yul\":11580:11592   */\n      dup3\n        /* \"#utility.yul\":11526:11599   */\n      tag_43\n      jump\t// in\n    tag_176:\n        /* \"#utility.yul\":11518:11599   */\n      swap2\n      pop\n        /* \"#utility.yul\":11375:11610   */\n      pop\n        /* \"#utility.yul\":11692:11696   */\n      0x20\n        /* \"#utility.yul\":11685:11690   */\n      dup4\n        /* \"#utility.yul\":11681:11697   */\n      add\n        /* \"#utility.yul\":11675:11698   */\n      mload\n        /* \"#utility.yul\":11745:11748   */\n      dup5\n        /* \"#utility.yul\":11739:11743   */\n      dup3\n        /* \"#utility.yul\":11735:11749   */\n      sub\n        /* \"#utility.yul\":11728:11732   */\n      0x20\n        /* \"#utility.yul\":11723:11726   */\n      dup7\n        /* \"#utility.yul\":11719:11733   */\n      add\n        /* \"#utility.yul\":11712:11750   */\n      mstore\n        /* \"#utility.yul\":11771:11874   */\n      tag_177\n        /* \"#utility.yul\":11869:11873   */\n      dup3\n        /* \"#utility.yul\":11855:11867   */\n      dup3\n        /* \"#utility.yul\":11771:11874   */\n      tag_50\n      jump\t// in\n    tag_177:\n        /* \"#utility.yul\":11763:11874   */\n      swap2\n      pop\n        /* \"#utility.yul\":11620:11885   */\n      pop\n        /* \"#utility.yul\":11902:11906   */\n      dup1\n        /* \"#utility.yul\":11895:11906   */\n      swap2\n      pop\n        /* \"#utility.yul\":11329:11912   */\n      pop\n        /* \"#utility.yul\":11211:11912   */\n      swap3\n      swap2\n      pop\n      pop\n      jump\t// out\n        /* \"#utility.yul\":11918:12182   */\n    tag_52:\n        /* \"#utility.yul\":12041:12051   */\n      0x00\n        /* \"#utility.yul\":12076:12176   */\n      tag_179\n        /* \"#utility.yul\":12172:12175   */\n      dup4\n        /* \"#utility.yul\":12164:12170   */\n      dup4\n        /* \"#utility.yul\":12076:12176   */\n      tag_51\n      jump\t// in\n    tag_179:\n        /* \"#utility.yul\":12062:12176   */\n      swap1\n      pop\n        /* \"#utility.yul\":11918:12182   */\n      swap3\n      swap2\n      pop\n      pop\n      jump\t// out\n        /* \"#utility.yul\":12188:12328   */\n    tag_53:\n        /* \"#utility.yul\":12285:12289   */\n      0x00\n        /* \"#utility.yul\":12317:12321   */\n      0x20\n        /* \"#utility.yul\":12312:12315   */\n      dup3\n        /* \"#utility.yul\":12308:12322   */\n      add\n        /* \"#utility.yul\":12300:12322   */\n      swap1\n      pop\n        /* \"#utility.yul\":12188:12328   */\n      swap2\n      swap1\n      pop\n      jump\t// out\n        /* \"#utility.yul\":12398:13525   */\n    tag_54:\n        /* \"#utility.yul\":12571:12574   */\n      0x00\n        /* \"#utility.yul\":12600:12681   */\n      tag_182\n        /* \"#utility.yul\":12675:12680   */\n      dup3\n        /* \"#utility.yul\":12600:12681   */\n      tag_37\n      jump\t// in\n    tag_182:\n        /* \"#utility.yul\":12697:12810   */\n      tag_183\n        /* \"#utility.yul\":12803:12809   */\n      dup2\n        /* \"#utility.yul\":12798:12801   */\n      dup6\n        /* \"#utility.yul\":12697:12810   */\n      tag_38\n      jump\t// in\n    tag_183:\n        /* \"#utility.yul\":12690:12810   */\n      swap4\n      pop\n        /* \"#utility.yul\":12836:12839   */\n      dup4\n        /* \"#utility.yul\":12881:12885   */\n      0x20\n        /* \"#utility.yul\":12873:12879   */\n      dup3\n        /* \"#utility.yul\":12869:12886   */\n      mul\n        /* \"#utility.yul\":12864:12867   */\n      dup6\n        /* \"#utility.yul\":12860:12887   */\n      add\n        /* \"#utility.yul\":12911:12994   */\n      tag_184\n        /* \"#utility.yul\":12988:12993   */\n      dup6\n        /* \"#utility.yul\":12911:12994   */\n      tag_39\n      jump\t// in\n    tag_184:\n        /* \"#utility.yul\":13017:13024   */\n      dup1\n        /* \"#utility.yul\":13048:13049   */\n      0x00\n        /* \"#utility.yul\":13033:13480   */\n    tag_185:\n        /* \"#utility.yul\":13058:13064   */\n      dup6\n        /* \"#utility.yul\":13055:13056   */\n      dup2\n        /* \"#utility.yul\":13052:13065   */\n      lt\n        /* \"#utility.yul\":13033:13480   */\n      iszero\n      tag_187\n      jumpi\n        /* \"#utility.yul\":13129:13138   */\n      dup5\n        /* \"#utility.yul\":13123:13127   */\n      dup5\n        /* \"#utility.yul\":13119:13139   */\n      sub\n        /* \"#utility.yul\":13114:13117   */\n      dup10\n        /* \"#utility.yul\":13107:13140   */\n      mstore\n        /* \"#utility.yul\":13180:13186   */\n      dup2\n        /* \"#utility.yul\":13174:13187   */\n      mload\n        /* \"#utility.yul\":13208:13326   */\n      tag_188\n        /* \"#utility.yul\":13321:13325   */\n      dup6\n        /* \"#utility.yul\":13306:13319   */\n      dup3\n        /* \"#utility.yul\":13208:13326   */\n      tag_52\n      jump\t// in\n    tag_188:\n        /* \"#utility.yul\":13200:13326   */\n      swap5\n      pop\n        /* \"#utility.yul\":13349:13436   */\n      tag_189\n        /* \"#utility.yul\":13429:13435   */\n      dup4\n        /* \"#utility.yul\":13349:13436   */\n      tag_53\n      jump\t// in\n    tag_189:\n        /* \"#utility.yul\":13339:13436   */\n      swap3\n      pop\n        /* \"#utility.yul\":13465:13469   */\n      0x20\n        /* \"#utility.yul\":13460:13463   */\n      dup11\n        /* \"#utility.yul\":13456:13470   */\n      add\n        /* \"#utility.yul\":13449:13470   */\n      swap10\n      pop\n        /* \"#utility.yul\":13093:13480   */\n      pop\n        /* \"#utility.yul\":13080:13081   */\n      0x01\n        /* \"#utility.yul\":13077:13078   */\n      dup2\n        /* \"#utility.yul\":13073:13082   */\n      add\n        /* \"#utility.yul\":13068:13082   */\n      swap1\n      pop\n        /* \"#utility.yul\":13033:13480   */\n      jump(tag_185)\n    tag_187:\n        /* \"#utility.yul\":13037:13051   */\n      pop\n        /* \"#utility.yul\":13496:13500   */\n      dup3\n        /* \"#utility.yul\":13489:13500   */\n      swap8\n      pop\n        /* \"#utility.yul\":13516:13519   */\n      dup8\n        /* \"#utility.yul\":13509:13519   */\n      swap6\n      pop\n        /* \"#utility.yul\":12576:13525   */\n      pop\n      pop\n      pop\n      pop\n      pop\n        /* \"#utility.yul\":12398:13525   */\n      swap3\n      swap2\n      pop\n      pop\n      jump\t// out\n        /* \"#utility.yul\":13531:14012   */\n    tag_9:\n        /* \"#utility.yul\":13728:13732   */\n      0x00\n        /* \"#utility.yul\":13766:13768   */\n      0x20\n        /* \"#utility.yul\":13755:13764   */\n      dup3\n        /* \"#utility.yul\":13751:13769   */\n      add\n        /* \"#utility.yul\":13743:13769   */\n      swap1\n      pop\n        /* \"#utility.yul\":13815:13824   */\n      dup2\n        /* \"#utility.yul\":13809:13813   */\n      dup2\n        /* \"#utility.yul\":13805:13825   */\n      sub\n        /* \"#utility.yul\":13801:13802   */\n      0x00\n        /* \"#utility.yul\":13790:13799   */\n      dup4\n        /* \"#utility.yul\":13786:13803   */\n      add\n        /* \"#utility.yul\":13779:13826   */\n      mstore\n        /* \"#utility.yul\":13843:14005   */\n      tag_191\n        /* \"#utility.yul\":14000:14004   */\n      dup2\n        /* \"#utility.yul\":13991:13997   */\n      dup5\n        /* \"#utility.yul\":13843:14005   */\n      tag_54\n      jump\t// in\n    tag_191:\n        /* \"#utility.yul\":13835:14005   */\n      swap1\n      pop\n        /* \"#utility.yul\":13531:14012   */\n      swap3\n      swap2\n      pop\n      pop\n      jump\t// out\n\n    auxdata: 0xa2646970667358221220aa3bd5215f1979169a4fc5dba70c37a89473e8828392726f64eb3fe3962cf52564736f6c63430008140033\n}\n",
				"bytecode": {
					"linkReferences": {},
					"object": "608060405234801561000f575f80fd5b506106e08061001d5f395ff3fe608060405234801561000f575f80fd5b5060043610610029575f3560e01c806386c076471461002d575b5f80fd5b61004760048036038101906100429190610416565b61005d565b604051610054919061068a565b60405180910390f35b6060819050919050565b5f604051905090565b5f80fd5b5f80fd5b5f80fd5b5f601f19601f8301169050919050565b7f4e487b71000000000000000000000000000000000000000000000000000000005f52604160045260245ffd5b6100c28261007c565b810181811067ffffffffffffffff821117156100e1576100e061008c565b5b80604052505050565b5f6100f3610067565b90506100ff82826100b9565b919050565b5f67ffffffffffffffff82111561011e5761011d61008c565b5b602082029050602081019050919050565b5f80fd5b5f80fd5b5f80fd5b5f80fd5b5f67ffffffffffffffff8211156101595761015861008c565b5b6101628261007c565b9050602081019050919050565b828183375f83830152505050565b5f61018f61018a8461013f565b6100ea565b9050828152602081018484840111156101ab576101aa61013b565b5b6101b684828561016f565b509392505050565b5f82601f8301126101d2576101d1610078565b5b81356101e284826020860161017d565b91505092915050565b5f67ffffffffffffffff8211156102055761020461008c565b5b602082029050602081019050919050565b5f819050919050565b61022881610216565b8114610232575f80fd5b50565b5f813590506102438161021f565b92915050565b5f61025b610256846101eb565b6100ea565b9050808382526020820190506020840283018581111561027e5761027d61012f565b5b835b818110156102a757806102938882610235565b845260208401935050602081019050610280565b5050509392505050565b5f82601f8301126102c5576102c4610078565b5b81356102d5848260208601610249565b91505092915050565b5f604082840312156102f3576102f2610133565b5b6102fd60406100ea565b90505f82013567ffffffffffffffff81111561031c5761031b610137565b5b610328848285016101be565b5f83015250602082013567ffffffffffffffff81111561034b5761034a610137565b5b610357848285016102b1565b60208301525092915050565b5f61037561037084610104565b6100ea565b905080838252602082019050602084028301858111156103985761039761012f565b5b835b818110156103df57803567ffffffffffffffff8111156103bd576103bc610078565b5b8086016103ca89826102de565b8552602085019450505060208101905061039a565b5050509392505050565b5f82601f8301126103fd576103fc610078565b5b813561040d848260208601610363565b91505092915050565b5f6020828403121561042b5761042a610070565b5b5f82013567ffffffffffffffff81111561044857610447610074565b5b610454848285016103e9565b91505092915050565b5f81519050919050565b5f82825260208201905092915050565b5f819050602082019050919050565b5f81519050919050565b5f82825260208201905092915050565b5f5b838110156104bd5780820151818401526020810190506104a2565b5f8484015250505050565b5f6104d282610486565b6104dc8185610490565b93506104ec8185602086016104a0565b6104f58161007c565b840191505092915050565b5f81519050919050565b5f82825260208201905092915050565b5f819050602082019050919050565b61053281610216565b82525050565b5f6105438383610529565b60208301905092915050565b5f602082019050919050565b5f61056582610500565b61056f818561050a565b935061057a8361051a565b805f5b838110156105aa5781516105918882610538565b975061059c8361054f565b92505060018101905061057d565b5085935050505092915050565b5f604083015f8301518482035f8601526105d182826104c8565b915050602083015184820360208601526105eb828261055b565b9150508091505092915050565b5f61060383836105b7565b905092915050565b5f602082019050919050565b5f6106218261045d565b61062b8185610467565b93508360208202850161063d85610477565b805f5b85811015610678578484038952815161065985826105f8565b94506106648361060b565b925060208a01995050600181019050610640565b50829750879550505050505092915050565b5f6020820190508181035f8301526106a28184610617565b90509291505056fea2646970667358221220aa3bd5215f1979169a4fc5dba70c37a89473e8828392726f64eb3fe3962cf52564736f6c63430008140033",
					"opcodes": "PUSH1 0x80 PUSH1 0x40 MSTORE CALLVALUE DUP1 ISZERO PUSH2 0xF JUMPI PUSH0 DUP1 REVERT JUMPDEST POP PUSH2 0x6E0 DUP1 PUSH2 0x1D PUSH0 CODECOPY PUSH0 RETURN INVALID PUSH1 0x80 PUSH1 0x40 MSTORE CALLVALUE DUP1 ISZERO PUSH2 0xF JUMPI PUSH0 DUP1 REVERT JUMPDEST POP PUSH1 0x4 CALLDATASIZE LT PUSH2 0x29 JUMPI PUSH0 CALLDATALOAD PUSH1 0xE0 SHR DUP1 PUSH4 0x86C07647 EQ PUSH2 0x2D JUMPI JUMPDEST PUSH0 DUP1 REVERT JUMPDEST PUSH2 0x47 PUSH1 0x4 DUP1 CALLDATASIZE SUB DUP2 ADD SWAP1 PUSH2 0x42 SWAP2 SWAP1 PUSH2 0x416 JUMP JUMPDEST PUSH2 0x5D JUMP JUMPDEST PUSH1 0x40 MLOAD PUSH2 0x54 SWAP2 SWAP1 PUSH2 0x68A JUMP JUMPDEST PUSH1 0x40 MLOAD DUP1 SWAP2 SUB SWAP1 RETURN JUMPDEST PUSH1 0x60 DUP2 SWAP1 POP SWAP2 SWAP1 POP JUMP JUMPDEST PUSH0 PUSH1 0x40 MLOAD SWAP1 POP SWAP1 JUMP JUMPDEST PUSH0 DUP1 REVERT JUMPDEST PUSH0 DUP1 REVERT JUMPDEST PUSH0 DUP1 REVERT JUMPDEST PUSH0 PUSH1 0x1F NOT PUSH1 0x1F DUP4 ADD AND SWAP1 POP SWAP2 SWAP1 POP JUMP JUMPDEST PUSH32 0x4E487B7100000000000000000000000000000000000000000000000000000000 PUSH0 MSTORE PUSH1 0x41 PUSH1 0x4 MSTORE PUSH1 0x24 PUSH0 REVERT JUMPDEST PUSH2 0xC2 DUP3 PUSH2 0x7C JUMP JUMPDEST DUP2 ADD DUP2 DUP2 LT PUSH8 0xFFFFFFFFFFFFFFFF DUP3 GT OR ISZERO PUSH2 0xE1 JUMPI PUSH2 0xE0 PUSH2 0x8C JUMP JUMPDEST JUMPDEST DUP1 PUSH1 0x40 MSTORE POP POP POP JUMP JUMPDEST PUSH0 PUSH2 0xF3 PUSH2 0x67 JUMP JUMPDEST SWAP1 POP PUSH2 0xFF DUP3 DUP3 PUSH2 0xB9 JUMP JUMPDEST SWAP2 SWAP1 POP JUMP JUMPDEST PUSH0 PUSH8 0xFFFFFFFFFFFFFFFF DUP3 GT ISZERO PUSH2 0x11E JUMPI PUSH2 0x11D PUSH2 0x8C JUMP JUMPDEST JUMPDEST PUSH1 0x20 DUP3 MUL SWAP1 POP PUSH1 0x20 DUP2 ADD SWAP1 POP SWAP2 SWAP1 POP JUMP JUMPDEST PUSH0 DUP1 REVERT JUMPDEST PUSH0 DUP1 REVERT JUMPDEST PUSH0 DUP1 REVERT JUMPDEST PUSH0 DUP1 REVERT JUMPDEST PUSH0 PUSH8 0xFFFFFFFFFFFFFFFF DUP3 GT ISZERO PUSH2 0x159 JUMPI PUSH2 0x158 PUSH2 0x8C JUMP JUMPDEST JUMPDEST PUSH2 0x162 DUP3 PUSH2 0x7C JUMP JUMPDEST SWAP1 POP PUSH1 0x20 DUP2 ADD SWAP1 POP SWAP2 SWAP1 POP JUMP JUMPDEST DUP3 DUP2 DUP4 CALLDATACOPY PUSH0 DUP4 DUP4 ADD MSTORE POP POP POP JUMP JUMPDEST PUSH0 PUSH2 0x18F PUSH2 0x18A DUP5 PUSH2 0x13F JUMP JUMPDEST PUSH2 0xEA JUMP JUMPDEST SWAP1 POP DUP3 DUP2 MSTORE PUSH1 0x20 DUP2 ADD DUP5 DUP5 DUP5 ADD GT ISZERO PUSH2 0x1AB JUMPI PUSH2 0x1AA PUSH2 0x13B JUMP JUMPDEST JUMPDEST PUSH2 0x1B6 DUP5 DUP3 DUP6 PUSH2 0x16F JUMP JUMPDEST POP SWAP4 SWAP3 POP POP POP JUMP JUMPDEST PUSH0 DUP3 PUSH1 0x1F DUP4 ADD SLT PUSH2 0x1D2 JUMPI PUSH2 0x1D1 PUSH2 0x78 JUMP JUMPDEST JUMPDEST DUP2 CALLDATALOAD PUSH2 0x1E2 DUP5 DUP3 PUSH1 0x20 DUP7 ADD PUSH2 0x17D JUMP JUMPDEST SWAP2 POP POP SWAP3 SWAP2 POP POP JUMP JUMPDEST PUSH0 PUSH8 0xFFFFFFFFFFFFFFFF DUP3 GT ISZERO PUSH2 0x205 JUMPI PUSH2 0x204 PUSH2 0x8C JUMP JUMPDEST JUMPDEST PUSH1 0x20 DUP3 MUL SWAP1 POP PUSH1 0x20 DUP2 ADD SWAP1 POP SWAP2 SWAP1 POP JUMP JUMPDEST PUSH0 DUP2 SWAP1 POP SWAP2 SWAP1 POP JUMP JUMPDEST PUSH2 0x228 DUP2 PUSH2 0x216 JUMP JUMPDEST DUP2 EQ PUSH2 0x232 JUMPI PUSH0 DUP1 REVERT JUMPDEST POP JUMP JUMPDEST PUSH0 DUP2 CALLDATALOAD SWAP1 POP PUSH2 0x243 DUP2 PUSH2 0x21F JUMP JUMPDEST SWAP3 SWAP2 POP POP JUMP JUMPDEST PUSH0 PUSH2 0x25B PUSH2 0x256 DUP5 PUSH2 0x1EB JUMP JUMPDEST PUSH2 0xEA JUMP JUMPDEST SWAP1 POP DUP1 DUP4 DUP3 MSTORE PUSH1 0x20 DUP3 ADD SWAP1 POP PUSH1 0x20 DUP5 MUL DUP4 ADD DUP6 DUP2 GT ISZERO PUSH2 0x27E JUMPI PUSH2 0x27D PUSH2 0x12F JUMP JUMPDEST JUMPDEST DUP4 JUMPDEST DUP2 DUP2 LT ISZERO PUSH2 0x2A7 JUMPI DUP1 PUSH2 0x293 DUP9 DUP3 PUSH2 0x235 JUMP JUMPDEST DUP5 MSTORE PUSH1 0x20 DUP5 ADD SWAP4 POP POP PUSH1 0x20 DUP2 ADD SWAP1 POP PUSH2 0x280 JUMP JUMPDEST POP POP POP SWAP4 SWAP3 POP POP POP JUMP JUMPDEST PUSH0 DUP3 PUSH1 0x1F DUP4 ADD SLT PUSH2 0x2C5 JUMPI PUSH2 0x2C4 PUSH2 0x78 JUMP JUMPDEST JUMPDEST DUP2 CALLDATALOAD PUSH2 0x2D5 DUP5 DUP3 PUSH1 0x20 DUP7 ADD PUSH2 0x249 JUMP JUMPDEST SWAP2 POP POP SWAP3 SWAP2 POP POP JUMP JUMPDEST PUSH0 PUSH1 0x40 DUP3 DUP5 SUB SLT ISZERO PUSH2 0x2F3 JUMPI PUSH2 0x2F2 PUSH2 0x133 JUMP JUMPDEST JUMPDEST PUSH2 0x2FD PUSH1 0x40 PUSH2 0xEA JUMP JUMPDEST SWAP1 POP PUSH0 DUP3 ADD CALLDATALOAD PUSH8 0xFFFFFFFFFFFFFFFF DUP2 GT ISZERO PUSH2 0x31C JUMPI PUSH2 0x31B PUSH2 0x137 JUMP JUMPDEST JUMPDEST PUSH2 0x328 DUP5 DUP3 DUP6 ADD PUSH2 0x1BE JUMP JUMPDEST PUSH0 DUP4 ADD MSTORE POP PUSH1 0x20 DUP3 ADD CALLDATALOAD PUSH8 0xFFFFFFFFFFFFFFFF DUP2 GT ISZERO PUSH2 0x34B JUMPI PUSH2 0x34A PUSH2 0x137 JUMP JUMPDEST JUMPDEST PUSH2 0x357 DUP5 DUP3 DUP6 ADD PUSH2 0x2B1 JUMP JUMPDEST PUSH1 0x20 DUP4 ADD MSTORE POP SWAP3 SWAP2 POP POP JUMP JUMPDEST PUSH0 PUSH2 0x375 PUSH2 0x370 DUP5 PUSH2 0x104 JUMP JUMPDEST PUSH2 0xEA JUMP JUMPDEST SWAP1 POP DUP1 DUP4 DUP3 MSTORE PUSH1 0x20 DUP3 ADD SWAP1 POP PUSH1 0x20 DUP5 MUL DUP4 ADD DUP6 DUP2 GT ISZERO PUSH2 0x398 JUMPI PUSH2 0x397 PUSH2 0x12F JUMP JUMPDEST JUMPDEST DUP4 JUMPDEST DUP2 DUP2 LT ISZERO PUSH2 0x3DF JUMPI DUP1 CALLDATALOAD PUSH8 0xFFFFFFFFFFFFFFFF DUP2 GT ISZERO PUSH2 0x3BD JUMPI PUSH2 0x3BC PUSH2 0x78 JUMP JUMPDEST JUMPDEST DUP1 DUP7 ADD PUSH2 0x3CA DUP10 DUP3 PUSH2 0x2DE JUMP JUMPDEST DUP6 MSTORE PUSH1 0x20 DUP6 ADD SWAP5 POP POP POP PUSH1 0x20 DUP2 ADD SWAP1 POP PUSH2 0x39A JUMP JUMPDEST POP POP POP SWAP4 SWAP3 POP POP POP JUMP JUMPDEST PUSH0 DUP3 PUSH1 0x1F DUP4 ADD SLT PUSH2 0x3FD JUMPI PUSH2 0x3FC PUSH2 0x78 JUMP JUMPDEST JUMPDEST DUP2 CALLDATALOAD PUSH2 0x40D DUP5 DUP3 PUSH1 0x20 DUP7 ADD PUSH2 0x363 JUMP JUMPDEST SWAP2 POP POP SWAP3 SWAP2 POP POP JUMP JUMPDEST PUSH0 PUSH1 0x20 DUP3 DUP5 SUB SLT ISZERO PUSH2 0x42B JUMPI PUSH2 0x42A PUSH2 0x70 JUMP JUMPDEST JUMPDEST PUSH0 DUP3 ADD CALLDATALOAD PUSH8 0xFFFFFFFFFFFFFFFF DUP2 GT ISZERO PUSH2 0x448 JUMPI PUSH2 0x447 PUSH2 0x74 JUMP JUMPDEST JUMPDEST PUSH2 0x454 DUP5 DUP3 DUP6 ADD PUSH2 0x3E9 JUMP JUMPDEST SWAP2 POP POP SWAP3 SWAP2 POP POP JUMP JUMPDEST PUSH0 DUP2 MLOAD SWAP1 POP SWAP2 SWAP1 POP JUMP JUMPDEST PUSH0 DUP3 DUP3 MSTORE PUSH1 0x20 DUP3 ADD SWAP1 POP SWAP3 SWAP2 POP POP JUMP JUMPDEST PUSH0 DUP2 SWAP1 POP PUSH1 0x20 DUP3 ADD SWAP1 POP SWAP2 SWAP1 POP JUMP JUMPDEST PUSH0 DUP2 MLOAD SWAP1 POP SWAP2 SWAP1 POP JUMP JUMPDEST PUSH0 DUP3 DUP3 MSTORE PUSH1 0x20 DUP3 ADD SWAP1 POP SWAP3 SWAP2 POP POP JUMP JUMPDEST PUSH0 JUMPDEST DUP4 DUP2 LT ISZERO PUSH2 0x4BD JUMPI DUP1 DUP3 ADD MLOAD DUP2 DUP5 ADD MSTORE PUSH1 0x20 DUP2 ADD SWAP1 POP PUSH2 0x4A2 JUMP JUMPDEST PUSH0 DUP5 DUP5 ADD MSTORE POP POP POP POP JUMP JUMPDEST PUSH0 PUSH2 0x4D2 DUP3 PUSH2 0x486 JUMP JUMPDEST PUSH2 0x4DC DUP2 DUP6 PUSH2 0x490 JUMP JUMPDEST SWAP4 POP PUSH2 0x4EC DUP2 DUP6 PUSH1 0x20 DUP7 ADD PUSH2 0x4A0 JUMP JUMPDEST PUSH2 0x4F5 DUP2 PUSH2 0x7C JUMP JUMPDEST DUP5 ADD SWAP2 POP POP SWAP3 SWAP2 POP POP JUMP JUMPDEST PUSH0 DUP2 MLOAD SWAP1 POP SWAP2 SWAP1 POP JUMP JUMPDEST PUSH0 DUP3 DUP3 MSTORE PUSH1 0x20 DUP3 ADD SWAP1 POP SWAP3 SWAP2 POP POP JUMP JUMPDEST PUSH0 DUP2 SWAP1 POP PUSH1 0x20 DUP3 ADD SWAP1 POP SWAP2 SWAP1 POP JUMP JUMPDEST PUSH2 0x532 DUP2 PUSH2 0x216 JUMP JUMPDEST DUP3 MSTORE POP POP JUMP JUMPDEST PUSH0 PUSH2 0x543 DUP4 DUP4 PUSH2 0x529 JUMP JUMPDEST PUSH1 0x20 DUP4 ADD SWAP1 POP SWAP3 SWAP2 POP POP JUMP JUMPDEST PUSH0 PUSH1 0x20 DUP3 ADD SWAP1 POP SWAP2 SWAP1 POP JUMP JUMPDEST PUSH0 PUSH2 0x565 DUP3 PUSH2 0x500 JUMP JUMPDEST PUSH2 0x56F DUP2 DUP6 PUSH2 0x50A JUMP JUMPDEST SWAP4 POP PUSH2 0x57A DUP4 PUSH2 0x51A JUMP JUMPDEST DUP1 PUSH0 JUMPDEST DUP4 DUP2 LT ISZERO PUSH2 0x5AA JUMPI DUP2 MLOAD PUSH2 0x591 DUP9 DUP3 PUSH2 0x538 JUMP JUMPDEST SWAP8 POP PUSH2 0x59C DUP4 PUSH2 0x54F JUMP JUMPDEST SWAP3 POP POP PUSH1 0x1 DUP2 ADD SWAP1 POP PUSH2 0x57D JUMP JUMPDEST POP DUP6 SWAP4 POP POP POP POP SWAP3 SWAP2 POP POP JUMP JUMPDEST PUSH0 PUSH1 0x40 DUP4 ADD PUSH0 DUP4 ADD MLOAD DUP5 DUP3 SUB PUSH0 DUP7 ADD MSTORE PUSH2 0x5D1 DUP3 DUP3 PUSH2 0x4C8 JUMP JUMPDEST SWAP2 POP POP PUSH1 0x20 DUP4 ADD MLOAD DUP5 DUP3 SUB PUSH1 0x20 DUP7 ADD MSTORE PUSH2 0x5EB DUP3 DUP3 PUSH2 0x55B JUMP JUMPDEST SWAP2 POP POP DUP1 SWAP2 POP POP SWAP3 SWAP2 POP POP JUMP JUMPDEST PUSH0 PUSH2 0x603 DUP4 DUP4 PUSH2 0x5B7 JUMP JUMPDEST SWAP1 POP SWAP3 SWAP2 POP POP JUMP JUMPDEST PUSH0 PUSH1 0x20 DUP3 ADD SWAP1 POP SWAP2 SWAP1 POP JUMP JUMPDEST PUSH0 PUSH2 0x621 DUP3 PUSH2 0x45D JUMP JUMPDEST PUSH2 0x62B DUP2 DUP6 PUSH2 0x467 JUMP JUMPDEST SWAP4 POP DUP4 PUSH1 0x20 DUP3 MUL DUP6 ADD PUSH2 0x63D DUP6 PUSH2 0x477 JUMP JUMPDEST DUP1 PUSH0 JUMPDEST DUP6 DUP2 LT ISZERO PUSH2 0x678 JUMPI DUP5 DUP5 SUB DUP10 MSTORE DUP2 MLOAD PUSH2 0x659 DUP6 DUP3 PUSH2 0x5F8 JUMP JUMPDEST SWAP5 POP PUSH2 0x664 DUP4 PUSH2 0x60B JUMP JUMPDEST SWAP3 POP PUSH1 0x20 DUP11 ADD SWAP10 POP POP PUSH1 0x1 DUP2 ADD SWAP1 POP PUSH2 0x640 JUMP JUMPDEST POP DUP3 SWAP8 POP DUP8 SWAP6 POP POP POP POP POP POP SWAP3 SWAP2 POP POP JUMP JUMPDEST PUSH0 PUSH1 0x20 DUP3 ADD SWAP1 POP DUP2 DUP2 SUB PUSH0 DUP4 ADD MSTORE PUSH2 0x6A2 DUP2 DUP5 PUSH2 0x617 JUMP JUMPDEST SWAP1 POP SWAP3 SWAP2 POP POP JUMP INVALID LOG2 PUSH5 0x6970667358 0x22 SLT KECCAK256 0xAA EXTCODESIZE 0xD5 0x21 PUSH0 NOT PUSH26 0x169A4FC5DBA70C37A89473E8828392726F64EB3FE3962CF52564 PUSH20 0x6F6C634300081400330000000000000000000000 "
				},
				"gasEstimates": {
					"creation": {
						"codeDepositCost": "352000",
						"executionCost": "384",
						"totalCost": "352384"
					},
					"external": {
						"initialPlay((string,uint256[])[])": "infinite"
					}
				},
				"methodIdentifiers": {
					"initialPlay((string,uint256[])[])": "86c07647"
				}
			},
			"storageLayout": {
				"storage": [],
				"types": null
			},
			"userdoc": {
				"kind": "user",
				"methods": {},
				"version": 1
			}
		}
	}
}