{
	"contracts/contract/WBNC.sol": {
		"WBNC": {
			"abi": [
				{
					"inputs": [
						{
							"internalType": "string",
							"name": "_name",
							"type": "string"
						},
						{
							"internalType": "string",
							"name": "_symbol",
							"type": "string"
						},
						{
							"internalType": "string",
							"name": "_uri",
							"type": "string"
						}
					],
					"stateMutability": "nonpayable",
					"type": "constructor"
				},
				{
					"anonymous": false,
					"inputs": [
						{
							"indexed": true,
							"internalType": "address",
							"name": "owner",
							"type": "address"
						},
						{
							"indexed": true,
							"internalType": "address",
							"name": "spender",
							"type": "address"
						},
						{
							"indexed": false,
							"internalType": "uint256",
							"name": "value",
							"type": "uint256"
						}
					],
					"name": "Approval",
					"type": "event"
				},
				{
					"anonymous": false,
					"inputs": [
						{
							"indexed": true,
							"internalType": "address",
							"name": "from",
							"type": "address"
						},
						{
							"indexed": false,
							"internalType": "uint256",
							"name": "amount",
							"type": "uint256"
						}
					],
					"name": "Deposit",
					"type": "event"
				},
				{
					"anonymous": false,
					"inputs": [
						{
							"indexed": true,
							"internalType": "address",
							"name": "from",
							"type": "address"
						},
						{
							"indexed": true,
							"internalType": "address",
							"name": "to",
							"type": "address"
						},
						{
							"indexed": false,
							"internalType": "uint256",
							"name": "value",
							"type": "uint256"
						}
					],
					"name": "Transfer",
					"type": "event"
				},
				{
					"anonymous": false,
					"inputs": [
						{
							"indexed": true,
							"internalType": "address",
							"name": "to",
							"type": "address"
						},
						{
							"indexed": false,
							"internalType": "uint256",
							"name": "amount",
							"type": "uint256"
						}
					],
					"name": "Withdrawal",
					"type": "event"
				},
				{
					"inputs": [
						{
							"internalType": "address",
							"name": "owner",
							"type": "address"
						},
						{
							"internalType": "uint256",
							"name": "amount",
							"type": "uint256"
						}
					],
					"name": "_burn",
					"outputs": [],
					"stateMutability": "nonpayable",
					"type": "function"
				},
				{
					"inputs": [
						{
							"internalType": "address",
							"name": "to",
							"type": "address"
						},
						{
							"internalType": "uint256",
							"name": "amount",
							"type": "uint256"
						}
					],
					"name": "_mint",
					"outputs": [],
					"stateMutability": "nonpayable",
					"type": "function"
				},
				{
					"inputs": [
						{
							"internalType": "address",
							"name": "owner",
							"type": "address"
						},
						{
							"internalType": "address",
							"name": "spender",
							"type": "address"
						}
					],
					"name": "allowance",
					"outputs": [
						{
							"internalType": "uint256",
							"name": "",
							"type": "uint256"
						}
					],
					"stateMutability": "view",
					"type": "function"
				},
				{
					"inputs": [
						{
							"internalType": "address",
							"name": "",
							"type": "address"
						},
						{
							"internalType": "address",
							"name": "",
							"type": "address"
						}
					],
					"name": "allowances",
					"outputs": [
						{
							"internalType": "uint256",
							"name": "",
							"type": "uint256"
						}
					],
					"stateMutability": "view",
					"type": "function"
				},
				{
					"inputs": [
						{
							"internalType": "address",
							"name": "spender",
							"type": "address"
						},
						{
							"internalType": "uint256",
							"name": "amount",
							"type": "uint256"
						}
					],
					"name": "approve",
					"outputs": [
						{
							"internalType": "bool",
							"name": "",
							"type": "bool"
						}
					],
					"stateMutability": "nonpayable",
					"type": "function"
				},
				{
					"inputs": [
						{
							"internalType": "address",
							"name": "account",
							"type": "address"
						}
					],
					"name": "balanceOf",
					"outputs": [
						{
							"internalType": "uint256",
							"name": "",
							"type": "uint256"
						}
					],
					"stateMutability": "view",
					"type": "function"
				},
				{
					"inputs": [
						{
							"internalType": "address",
							"name": "",
							"type": "address"
						}
					],
					"name": "balances",
					"outputs": [
						{
							"internalType": "uint256",
							"name": "",
							"type": "uint256"
						}
					],
					"stateMutability": "view",
					"type": "function"
				},
				{
					"inputs": [
						{
							"internalType": "uint256",
							"name": "value",
							"type": "uint256"
						},
						{
							"internalType": "address",
							"name": "userAddress",
							"type": "address"
						}
					],
					"name": "deposit",
					"outputs": [],
					"stateMutability": "nonpayable",
					"type": "function"
				},
				{
					"inputs": [],
					"name": "name",
					"outputs": [
						{
							"internalType": "string",
							"name": "",
							"type": "string"
						}
					],
					"stateMutability": "view",
					"type": "function"
				},
				{
					"inputs": [],
					"name": "symbol",
					"outputs": [
						{
							"internalType": "string",
							"name": "",
							"type": "string"
						}
					],
					"stateMutability": "view",
					"type": "function"
				},
				{
					"inputs": [
						{
							"internalType": "string",
							"name": "_imageUri",
							"type": "string"
						}
					],
					"name": "tokenURI",
					"outputs": [
						{
							"internalType": "string",
							"name": "",
							"type": "string"
						}
					],
					"stateMutability": "pure",
					"type": "function"
				},
				{
					"inputs": [],
					"name": "totalSupply",
					"outputs": [
						{
							"internalType": "uint256",
							"name": "",
							"type": "uint256"
						}
					],
					"stateMutability": "view",
					"type": "function"
				},
				{
					"inputs": [
						{
							"internalType": "address",
							"name": "to",
							"type": "address"
						},
						{
							"internalType": "uint256",
							"name": "amount",
							"type": "uint256"
						}
					],
					"name": "transfer",
					"outputs": [
						{
							"internalType": "bool",
							"name": "",
							"type": "bool"
						}
					],
					"stateMutability": "nonpayable",
					"type": "function"
				},
				{
					"inputs": [
						{
							"internalType": "address",
							"name": "from",
							"type": "address"
						},
						{
							"internalType": "address",
							"name": "to",
							"type": "address"
						},
						{
							"internalType": "uint256",
							"name": "value",
							"type": "uint256"
						}
					],
					"name": "transferFrom",
					"outputs": [
						{
							"internalType": "bool",
							"name": "",
							"type": "bool"
						}
					],
					"stateMutability": "nonpayable",
					"type": "function"
				},
				{
					"inputs": [],
					"name": "uri",
					"outputs": [
						{
							"internalType": "string",
							"name": "",
							"type": "string"
						}
					],
					"stateMutability": "view",
					"type": "function"
				},
				{
					"inputs": [
						{
							"internalType": "uint256",
							"name": "amount",
							"type": "uint256"
						}
					],
					"name": "withdraw",
					"outputs": [],
					"stateMutability": "nonpayable",
					"type": "function"
				}
			],
			"devdoc": {
				"events": {
					"Approval(address,address,uint256)": {
						"details": "Emitted when the allowance of a `spender` for an `owner` is set by a call to {approve}. `value` is the new allowance."
					},
					"Transfer(address,address,uint256)": {
						"details": "Emitted when `value` tokens are moved from one account (`from`) to another (`to`). Note that `value` may be zero."
					}
				},
				"kind": "dev",
				"methods": {
					"allowance(address,address)": {
						"details": "Returns the remaining number of tokens that `spender` will be allowed to spend on behalf of `owner` through {transferFrom}. This is zero by default. This value changes when {approve} or {transferFrom} are called."
					},
					"balanceOf(address)": {
						"details": "Returns the value of tokens owned by `account`."
					},
					"transferFrom(address,address,uint256)": {
						"details": "Moves a `value` amount of tokens from `from` to `to` using the allowance mechanism. `value` is then deducted from the caller's allowance. Returns a boolean value indicating whether the operation succeeded. Emits a {Transfer} event."
					}
				},
				"version": 1
			},
			"evm": {
				"assembly": "    /* \"contracts/contract/WBNC.sol\":81:641  contract WBNC is Token {... */\n  mstore(0x40, 0x80)\n    /* \"contracts/contract/Token.sol\":234:236  18 */\n  0x12\n    /* \"contracts/contract/Token.sol\":209:236  uint internal decimals = 18 */\n  0x03\n  sstore\n    /* \"contracts/contract/WBNC.sol\":227:341  constructor(string memory _name, string memory _symbol, string memory _uri) Token(_name, _symbol, _uri, 0) {... */\n  callvalue\n  dup1\n  iszero\n  tag_1\n  jumpi\n  0x00\n  dup1\n  revert\ntag_1:\n  pop\n  mload(0x40)\n  sub(codesize, bytecodeSize)\n  dup1\n  bytecodeSize\n  dup4\n  codecopy\n  dup2\n  dup2\n  add\n  0x40\n  mstore\n  dup2\n  add\n  swap1\n  tag_2\n  swap2\n  swap1\n  tag_3\n  jump\t// in\ntag_2:\n    /* \"contracts/contract/WBNC.sol\":309:314  _name */\n  dup3\n    /* \"contracts/contract/WBNC.sol\":316:323  _symbol */\n  dup3\n    /* \"contracts/contract/WBNC.sol\":325:329  _uri */\n  dup3\n    /* \"contracts/contract/WBNC.sol\":331:332  0 */\n  0x00\n    /* \"contracts/contract/Token.sol\":497:502  _name */\n  dup4\n    /* \"contracts/contract/Token.sol\":490:494  name */\n  0x00\n    /* \"contracts/contract/Token.sol\":490:502  name = _name */\n  swap1\n  dup2\n  tag_7\n  swap2\n  swap1\n  tag_8\n  jump\t// in\ntag_7:\n  pop\n    /* \"contracts/contract/Token.sol\":521:528  _symbol */\n  dup3\n    /* \"contracts/contract/Token.sol\":512:518  symbol */\n  0x01\n    /* \"contracts/contract/Token.sol\":512:528  symbol = _symbol */\n  swap1\n  dup2\n  tag_9\n  swap2\n  swap1\n  tag_8\n  jump\t// in\ntag_9:\n  pop\n    /* \"contracts/contract/Token.sol\":544:558  tokenURI(_uri) */\n  tag_10\n    /* \"contracts/contract/Token.sol\":553:557  _uri */\n  dup3\n    /* \"contracts/contract/Token.sol\":544:552  tokenURI */\n  shl(0x20, tag_11)\n    /* \"contracts/contract/Token.sol\":544:558  tokenURI(_uri) */\n  0x20\n  shr\n  jump\t// in\ntag_10:\n    /* \"contracts/contract/Token.sol\":538:541  uri */\n  0x02\n    /* \"contracts/contract/Token.sol\":538:558  uri = tokenURI(_uri) */\n  swap1\n  dup2\n  tag_12\n  swap2\n  swap1\n  tag_8\n  jump\t// in\ntag_12:\n  pop\n    /* \"contracts/contract/Token.sol\":569:614  _mint(msg.sender, _amount * (10 ** decimals)) */\n  tag_13\n    /* \"contracts/contract/Token.sol\":575:585  msg.sender */\n  caller\n    /* \"contracts/contract/Token.sol\":604:612  decimals */\n  sload(0x03)\n    /* \"contracts/contract/Token.sol\":598:600  10 */\n  0x0a\n    /* \"contracts/contract/Token.sol\":598:612  10 ** decimals */\n  tag_14\n  swap2\n  swap1\n  tag_15\n  jump\t// in\ntag_14:\n    /* \"contracts/contract/Token.sol\":587:594  _amount */\n  dup4\n    /* \"contracts/contract/Token.sol\":587:613  _amount * (10 ** decimals) */\n  tag_16\n  swap2\n  swap1\n  tag_17\n  jump\t// in\ntag_16:\n    /* \"contracts/contract/Token.sol\":569:574  _mint */\n  shl(0x20, tag_18)\n    /* \"contracts/contract/Token.sol\":569:614  _mint(msg.sender, _amount * (10 ** decimals)) */\n  0x20\n  shr\n  jump\t// in\ntag_13:\n    /* \"contracts/contract/Token.sol\":390:621  constructor(string memory _name, string memory _symbol, string memory _uri, uint _amount) {... */\n  pop\n  pop\n  pop\n  pop\n    /* \"contracts/contract/WBNC.sol\":227:341  constructor(string memory _name, string memory _symbol, string memory _uri) Token(_name, _symbol, _uri, 0) {... */\n  pop\n  pop\n  pop\n    /* \"contracts/contract/WBNC.sol\":81:641  contract WBNC is Token {... */\n  jump(tag_20)\n    /* \"contracts/contract/Token.sol\":1862:2001  function tokenURI(string memory _imageUri) public pure returns (string memory) {... */\ntag_11:\n    /* \"contracts/contract/Token.sol\":1926:1939  string memory */\n  0x60\n    /* \"contracts/contract/Token.sol\":1972:1982  _baseURI() */\n  tag_22\n    /* \"contracts/contract/Token.sol\":1972:1980  _baseURI */\n  shl(0x20, tag_23)\n    /* \"contracts/contract/Token.sol\":1972:1982  _baseURI() */\n  0x20\n  shr\n  jump\t// in\ntag_22:\n    /* \"contracts/contract/Token.sol\":1984:1993  _imageUri */\n  dup3\n    /* \"contracts/contract/Token.sol\":1958:1994  string.concat(_baseURI(), _imageUri) */\n  add(0x20, mload(0x40))\n  tag_24\n  swap3\n  swap2\n  swap1\n  tag_25\n  jump\t// in\ntag_24:\n  mload(0x40)\n  0x20\n  dup2\n  dup4\n  sub\n  sub\n  dup2\n  mstore\n  swap1\n  0x40\n  mstore\n    /* \"contracts/contract/Token.sol\":1951:1994  return string.concat(_baseURI(), _imageUri) */\n  swap1\n  pop\n    /* \"contracts/contract/Token.sol\":1862:2001  function tokenURI(string memory _imageUri) public pure returns (string memory) {... */\n  swap2\n  swap1\n  pop\n  jump\t// out\n    /* \"contracts/contract/Token.sol\":648:765  function _mint(address to, uint amount) public {... */\ntag_18:\n    /* \"contracts/contract/Token.sol\":721:727  amount */\n  dup1\n    /* \"contracts/contract/Token.sol\":705:713  balances */\n  0x05\n    /* \"contracts/contract/Token.sol\":705:717  balances[to] */\n  0x00\n    /* \"contracts/contract/Token.sol\":714:716  to */\n  dup5\n    /* \"contracts/contract/Token.sol\":705:717  balances[to] */\n  0xffffffffffffffffffffffffffffffffffffffff\n  and\n  0xffffffffffffffffffffffffffffffffffffffff\n  and\n  dup2\n  mstore\n  0x20\n  add\n  swap1\n  dup2\n  mstore\n  0x20\n  add\n  0x00\n  keccak256\n  0x00\n    /* \"contracts/contract/Token.sol\":705:727  balances[to] += amount */\n  dup3\n  dup3\n  sload\n  tag_27\n  swap2\n  swap1\n  tag_28\n  jump\t// in\ntag_27:\n  swap3\n  pop\n  pop\n  dup2\n  swap1\n  sstore\n  pop\n    /* \"contracts/contract/Token.sol\":752:758  amount */\n  dup1\n    /* \"contracts/contract/Token.sol\":737:748  totalSupply */\n  0x04\n  0x00\n    /* \"contracts/contract/Token.sol\":737:758  totalSupply += amount */\n  dup3\n  dup3\n  sload\n  tag_29\n  swap2\n  swap1\n  tag_28\n  jump\t// in\ntag_29:\n  swap3\n  pop\n  pop\n  dup2\n  swap1\n  sstore\n  pop\n    /* \"contracts/contract/Token.sol\":648:765  function _mint(address to, uint amount) public {... */\n  pop\n  pop\n  jump\t// out\n    /* \"contracts/contract/Token.sol\":2006:2143  function _baseURI() internal pure returns (string memory) {... */\ntag_23:\n    /* \"contracts/contract/Token.sol\":2049:2062  string memory */\n  0x60\n    /* \"contracts/contract/Token.sol\":2074:2136  return \"https://crimson-generous-ant-395.mypinata.cloud/ipfs/\" */\n  mload(0x40)\n  dup1\n  0x60\n  add\n  0x40\n  mstore\n  dup1\n  0x35\n  dup2\n  mstore\n  0x20\n  add\n  data_3b6e8117fccaa2ffdbe0263bbd25830af6ee105ec403750c70117311049eed76\n  0x35\n  swap2\n  codecopy\n  swap1\n  pop\n    /* \"contracts/contract/Token.sol\":2006:2143  function _baseURI() internal pure returns (string memory) {... */\n  swap1\n  jump\t// out\n    /* \"#utility.yul\":7:82   */\ntag_31:\n    /* \"#utility.yul\":40:46   */\n  0x00\n    /* \"#utility.yul\":73:75   */\n  0x40\n    /* \"#utility.yul\":67:76   */\n  mload\n    /* \"#utility.yul\":57:76   */\n  swap1\n  pop\n    /* \"#utility.yul\":7:82   */\n  swap1\n  jump\t// out\n    /* \"#utility.yul\":88:205   */\ntag_32:\n    /* \"#utility.yul\":197:198   */\n  0x00\n    /* \"#utility.yul\":194:195   */\n  dup1\n    /* \"#utility.yul\":187:199   */\n  revert\n    /* \"#utility.yul\":211:328   */\ntag_33:\n    /* \"#utility.yul\":320:321   */\n  0x00\n    /* \"#utility.yul\":317:318   */\n  dup1\n    /* \"#utility.yul\":310:322   */\n  revert\n    /* \"#utility.yul\":334:451   */\ntag_34:\n    /* \"#utility.yul\":443:444   */\n  0x00\n    /* \"#utility.yul\":440:441   */\n  dup1\n    /* \"#utility.yul\":433:445   */\n  revert\n    /* \"#utility.yul\":457:574   */\ntag_35:\n    /* \"#utility.yul\":566:567   */\n  0x00\n    /* \"#utility.yul\":563:564   */\n  dup1\n    /* \"#utility.yul\":556:568   */\n  revert\n    /* \"#utility.yul\":580:682   */\ntag_36:\n    /* \"#utility.yul\":621:627   */\n  0x00\n    /* \"#utility.yul\":672:674   */\n  0x1f\n    /* \"#utility.yul\":668:675   */\n  not\n    /* \"#utility.yul\":663:665   */\n  0x1f\n    /* \"#utility.yul\":656:661   */\n  dup4\n    /* \"#utility.yul\":652:666   */\n  add\n    /* \"#utility.yul\":648:676   */\n  and\n    /* \"#utility.yul\":638:676   */\n  swap1\n  pop\n    /* \"#utility.yul\":580:682   */\n  swap2\n  swap1\n  pop\n  jump\t// out\n    /* \"#utility.yul\":688:868   */\ntag_37:\n    /* \"#utility.yul\":736:813   */\n  0x4e487b7100000000000000000000000000000000000000000000000000000000\n    /* \"#utility.yul\":733:734   */\n  0x00\n    /* \"#utility.yul\":726:814   */\n  mstore\n    /* \"#utility.yul\":833:837   */\n  0x41\n    /* \"#utility.yul\":830:831   */\n  0x04\n    /* \"#utility.yul\":823:838   */\n  mstore\n    /* \"#utility.yul\":857:861   */\n  0x24\n    /* \"#utility.yul\":854:855   */\n  0x00\n    /* \"#utility.yul\":847:862   */\n  revert\n    /* \"#utility.yul\":874:1155   */\ntag_38:\n    /* \"#utility.yul\":957:984   */\n  tag_78\n    /* \"#utility.yul\":979:983   */\n  dup3\n    /* \"#utility.yul\":957:984   */\n  tag_36\n  jump\t// in\ntag_78:\n    /* \"#utility.yul\":949:955   */\n  dup2\n    /* \"#utility.yul\":945:985   */\n  add\n    /* \"#utility.yul\":1087:1093   */\n  dup2\n    /* \"#utility.yul\":1075:1085   */\n  dup2\n    /* \"#utility.yul\":1072:1094   */\n  lt\n    /* \"#utility.yul\":1051:1069   */\n  0xffffffffffffffff\n    /* \"#utility.yul\":1039:1049   */\n  dup3\n    /* \"#utility.yul\":1036:1070   */\n  gt\n    /* \"#utility.yul\":1033:1095   */\n  or\n    /* \"#utility.yul\":1030:1118   */\n  iszero\n  tag_79\n  jumpi\n    /* \"#utility.yul\":1098:1116   */\n  tag_80\n  tag_37\n  jump\t// in\ntag_80:\n    /* \"#utility.yul\":1030:1118   */\ntag_79:\n    /* \"#utility.yul\":1138:1148   */\n  dup1\n    /* \"#utility.yul\":1134:1136   */\n  0x40\n    /* \"#utility.yul\":1127:1149   */\n  mstore\n    /* \"#utility.yul\":917:1155   */\n  pop\n    /* \"#utility.yul\":874:1155   */\n  pop\n  pop\n  jump\t// out\n    /* \"#utility.yul\":1161:1290   */\ntag_39:\n    /* \"#utility.yul\":1195:1201   */\n  0x00\n    /* \"#utility.yul\":1222:1242   */\n  tag_82\n  tag_31\n  jump\t// in\ntag_82:\n    /* \"#utility.yul\":1212:1242   */\n  swap1\n  pop\n    /* \"#utility.yul\":1251:1284   */\n  tag_83\n    /* \"#utility.yul\":1279:1283   */\n  dup3\n    /* \"#utility.yul\":1271:1277   */\n  dup3\n    /* \"#utility.yul\":1251:1284   */\n  tag_38\n  jump\t// in\ntag_83:\n    /* \"#utility.yul\":1161:1290   */\n  swap2\n  swap1\n  pop\n  jump\t// out\n    /* \"#utility.yul\":1296:1604   */\ntag_40:\n    /* \"#utility.yul\":1358:1362   */\n  0x00\n    /* \"#utility.yul\":1448:1466   */\n  0xffffffffffffffff\n    /* \"#utility.yul\":1440:1446   */\n  dup3\n    /* \"#utility.yul\":1437:1467   */\n  gt\n    /* \"#utility.yul\":1434:1490   */\n  iszero\n  tag_85\n  jumpi\n    /* \"#utility.yul\":1470:1488   */\n  tag_86\n  tag_37\n  jump\t// in\ntag_86:\n    /* \"#utility.yul\":1434:1490   */\ntag_85:\n    /* \"#utility.yul\":1508:1537   */\n  tag_87\n    /* \"#utility.yul\":1530:1536   */\n  dup3\n    /* \"#utility.yul\":1508:1537   */\n  tag_36\n  jump\t// in\ntag_87:\n    /* \"#utility.yul\":1500:1537   */\n  swap1\n  pop\n    /* \"#utility.yul\":1592:1596   */\n  0x20\n    /* \"#utility.yul\":1586:1590   */\n  dup2\n    /* \"#utility.yul\":1582:1597   */\n  add\n    /* \"#utility.yul\":1574:1597   */\n  swap1\n  pop\n    /* \"#utility.yul\":1296:1604   */\n  swap2\n  swap1\n  pop\n  jump\t// out\n    /* \"#utility.yul\":1610:1856   */\ntag_41:\n    /* \"#utility.yul\":1691:1692   */\n  0x00\n    /* \"#utility.yul\":1701:1814   */\ntag_89:\n    /* \"#utility.yul\":1715:1721   */\n  dup4\n    /* \"#utility.yul\":1712:1713   */\n  dup2\n    /* \"#utility.yul\":1709:1722   */\n  lt\n    /* \"#utility.yul\":1701:1814   */\n  iszero\n  tag_91\n  jumpi\n    /* \"#utility.yul\":1800:1801   */\n  dup1\n    /* \"#utility.yul\":1795:1798   */\n  dup3\n    /* \"#utility.yul\":1791:1802   */\n  add\n    /* \"#utility.yul\":1785:1803   */\n  mload\n    /* \"#utility.yul\":1781:1782   */\n  dup2\n    /* \"#utility.yul\":1776:1779   */\n  dup5\n    /* \"#utility.yul\":1772:1783   */\n  add\n    /* \"#utility.yul\":1765:1804   */\n  mstore\n    /* \"#utility.yul\":1737:1739   */\n  0x20\n    /* \"#utility.yul\":1734:1735   */\n  dup2\n    /* \"#utility.yul\":1730:1740   */\n  add\n    /* \"#utility.yul\":1725:1740   */\n  swap1\n  pop\n    /* \"#utility.yul\":1701:1814   */\n  jump(tag_89)\ntag_91:\n    /* \"#utility.yul\":1848:1849   */\n  0x00\n    /* \"#utility.yul\":1839:1845   */\n  dup5\n    /* \"#utility.yul\":1834:1837   */\n  dup5\n    /* \"#utility.yul\":1830:1846   */\n  add\n    /* \"#utility.yul\":1823:1850   */\n  mstore\n    /* \"#utility.yul\":1672:1856   */\n  pop\n    /* \"#utility.yul\":1610:1856   */\n  pop\n  pop\n  pop\n  jump\t// out\n    /* \"#utility.yul\":1862:2296   */\ntag_42:\n    /* \"#utility.yul\":1951:1956   */\n  0x00\n    /* \"#utility.yul\":1976:2042   */\n  tag_93\n    /* \"#utility.yul\":1992:2041   */\n  tag_94\n    /* \"#utility.yul\":2034:2040   */\n  dup5\n    /* \"#utility.yul\":1992:2041   */\n  tag_40\n  jump\t// in\ntag_94:\n    /* \"#utility.yul\":1976:2042   */\n  tag_39\n  jump\t// in\ntag_93:\n    /* \"#utility.yul\":1967:2042   */\n  swap1\n  pop\n    /* \"#utility.yul\":2065:2071   */\n  dup3\n    /* \"#utility.yul\":2058:2063   */\n  dup2\n    /* \"#utility.yul\":2051:2072   */\n  mstore\n    /* \"#utility.yul\":2103:2107   */\n  0x20\n    /* \"#utility.yul\":2096:2101   */\n  dup2\n    /* \"#utility.yul\":2092:2108   */\n  add\n    /* \"#utility.yul\":2141:2144   */\n  dup5\n    /* \"#utility.yul\":2132:2138   */\n  dup5\n    /* \"#utility.yul\":2127:2130   */\n  dup5\n    /* \"#utility.yul\":2123:2139   */\n  add\n    /* \"#utility.yul\":2120:2145   */\n  gt\n    /* \"#utility.yul\":2117:2229   */\n  iszero\n  tag_95\n  jumpi\n    /* \"#utility.yul\":2148:2227   */\n  tag_96\n  tag_35\n  jump\t// in\ntag_96:\n    /* \"#utility.yul\":2117:2229   */\ntag_95:\n    /* \"#utility.yul\":2238:2290   */\n  tag_97\n    /* \"#utility.yul\":2283:2289   */\n  dup5\n    /* \"#utility.yul\":2278:2281   */\n  dup3\n    /* \"#utility.yul\":2273:2276   */\n  dup6\n    /* \"#utility.yul\":2238:2290   */\n  tag_41\n  jump\t// in\ntag_97:\n    /* \"#utility.yul\":1957:2296   */\n  pop\n    /* \"#utility.yul\":1862:2296   */\n  swap4\n  swap3\n  pop\n  pop\n  pop\n  jump\t// out\n    /* \"#utility.yul\":2316:2671   */\ntag_43:\n    /* \"#utility.yul\":2383:2388   */\n  0x00\n    /* \"#utility.yul\":2432:2435   */\n  dup3\n    /* \"#utility.yul\":2425:2429   */\n  0x1f\n    /* \"#utility.yul\":2417:2423   */\n  dup4\n    /* \"#utility.yul\":2413:2430   */\n  add\n    /* \"#utility.yul\":2409:2436   */\n  slt\n    /* \"#utility.yul\":2399:2521   */\n  tag_99\n  jumpi\n    /* \"#utility.yul\":2440:2519   */\n  tag_100\n  tag_34\n  jump\t// in\ntag_100:\n    /* \"#utility.yul\":2399:2521   */\ntag_99:\n    /* \"#utility.yul\":2550:2556   */\n  dup2\n    /* \"#utility.yul\":2544:2557   */\n  mload\n    /* \"#utility.yul\":2575:2665   */\n  tag_101\n    /* \"#utility.yul\":2661:2664   */\n  dup5\n    /* \"#utility.yul\":2653:2659   */\n  dup3\n    /* \"#utility.yul\":2646:2650   */\n  0x20\n    /* \"#utility.yul\":2638:2644   */\n  dup7\n    /* \"#utility.yul\":2634:2651   */\n  add\n    /* \"#utility.yul\":2575:2665   */\n  tag_42\n  jump\t// in\ntag_101:\n    /* \"#utility.yul\":2566:2665   */\n  swap2\n  pop\n    /* \"#utility.yul\":2389:2671   */\n  pop\n    /* \"#utility.yul\":2316:2671   */\n  swap3\n  swap2\n  pop\n  pop\n  jump\t// out\n    /* \"#utility.yul\":2677:3859   */\ntag_3:\n    /* \"#utility.yul\":2795:2801   */\n  0x00\n    /* \"#utility.yul\":2803:2809   */\n  dup1\n    /* \"#utility.yul\":2811:2817   */\n  0x00\n    /* \"#utility.yul\":2860:2862   */\n  0x60\n    /* \"#utility.yul\":2848:2857   */\n  dup5\n    /* \"#utility.yul\":2839:2846   */\n  dup7\n    /* \"#utility.yul\":2835:2858   */\n  sub\n    /* \"#utility.yul\":2831:2863   */\n  slt\n    /* \"#utility.yul\":2828:2947   */\n  iszero\n  tag_103\n  jumpi\n    /* \"#utility.yul\":2866:2945   */\n  tag_104\n  tag_32\n  jump\t// in\ntag_104:\n    /* \"#utility.yul\":2828:2947   */\ntag_103:\n    /* \"#utility.yul\":3007:3008   */\n  0x00\n    /* \"#utility.yul\":2996:3005   */\n  dup5\n    /* \"#utility.yul\":2992:3009   */\n  add\n    /* \"#utility.yul\":2986:3010   */\n  mload\n    /* \"#utility.yul\":3037:3055   */\n  0xffffffffffffffff\n    /* \"#utility.yul\":3029:3035   */\n  dup2\n    /* \"#utility.yul\":3026:3056   */\n  gt\n    /* \"#utility.yul\":3023:3140   */\n  iszero\n  tag_105\n  jumpi\n    /* \"#utility.yul\":3059:3138   */\n  tag_106\n  tag_33\n  jump\t// in\ntag_106:\n    /* \"#utility.yul\":3023:3140   */\ntag_105:\n    /* \"#utility.yul\":3164:3238   */\n  tag_107\n    /* \"#utility.yul\":3230:3237   */\n  dup7\n    /* \"#utility.yul\":3221:3227   */\n  dup3\n    /* \"#utility.yul\":3210:3219   */\n  dup8\n    /* \"#utility.yul\":3206:3228   */\n  add\n    /* \"#utility.yul\":3164:3238   */\n  tag_43\n  jump\t// in\ntag_107:\n    /* \"#utility.yul\":3154:3238   */\n  swap4\n  pop\n    /* \"#utility.yul\":2957:3248   */\n  pop\n    /* \"#utility.yul\":3308:3310   */\n  0x20\n    /* \"#utility.yul\":3297:3306   */\n  dup5\n    /* \"#utility.yul\":3293:3311   */\n  add\n    /* \"#utility.yul\":3287:3312   */\n  mload\n    /* \"#utility.yul\":3339:3357   */\n  0xffffffffffffffff\n    /* \"#utility.yul\":3331:3337   */\n  dup2\n    /* \"#utility.yul\":3328:3358   */\n  gt\n    /* \"#utility.yul\":3325:3442   */\n  iszero\n  tag_108\n  jumpi\n    /* \"#utility.yul\":3361:3440   */\n  tag_109\n  tag_33\n  jump\t// in\ntag_109:\n    /* \"#utility.yul\":3325:3442   */\ntag_108:\n    /* \"#utility.yul\":3466:3540   */\n  tag_110\n    /* \"#utility.yul\":3532:3539   */\n  dup7\n    /* \"#utility.yul\":3523:3529   */\n  dup3\n    /* \"#utility.yul\":3512:3521   */\n  dup8\n    /* \"#utility.yul\":3508:3530   */\n  add\n    /* \"#utility.yul\":3466:3540   */\n  tag_43\n  jump\t// in\ntag_110:\n    /* \"#utility.yul\":3456:3540   */\n  swap3\n  pop\n    /* \"#utility.yul\":3258:3550   */\n  pop\n    /* \"#utility.yul\":3610:3612   */\n  0x40\n    /* \"#utility.yul\":3599:3608   */\n  dup5\n    /* \"#utility.yul\":3595:3613   */\n  add\n    /* \"#utility.yul\":3589:3614   */\n  mload\n    /* \"#utility.yul\":3641:3659   */\n  0xffffffffffffffff\n    /* \"#utility.yul\":3633:3639   */\n  dup2\n    /* \"#utility.yul\":3630:3660   */\n  gt\n    /* \"#utility.yul\":3627:3744   */\n  iszero\n  tag_111\n  jumpi\n    /* \"#utility.yul\":3663:3742   */\n  tag_112\n  tag_33\n  jump\t// in\ntag_112:\n    /* \"#utility.yul\":3627:3744   */\ntag_111:\n    /* \"#utility.yul\":3768:3842   */\n  tag_113\n    /* \"#utility.yul\":3834:3841   */\n  dup7\n    /* \"#utility.yul\":3825:3831   */\n  dup3\n    /* \"#utility.yul\":3814:3823   */\n  dup8\n    /* \"#utility.yul\":3810:3832   */\n  add\n    /* \"#utility.yul\":3768:3842   */\n  tag_43\n  jump\t// in\ntag_113:\n    /* \"#utility.yul\":3758:3842   */\n  swap2\n  pop\n    /* \"#utility.yul\":3560:3852   */\n  pop\n    /* \"#utility.yul\":2677:3859   */\n  swap3\n  pop\n  swap3\n  pop\n  swap3\n  jump\t// out\n    /* \"#utility.yul\":3865:3964   */\ntag_44:\n    /* \"#utility.yul\":3917:3923   */\n  0x00\n    /* \"#utility.yul\":3951:3956   */\n  dup2\n    /* \"#utility.yul\":3945:3957   */\n  mload\n    /* \"#utility.yul\":3935:3957   */\n  swap1\n  pop\n    /* \"#utility.yul\":3865:3964   */\n  swap2\n  swap1\n  pop\n  jump\t// out\n    /* \"#utility.yul\":3970:4150   */\ntag_45:\n    /* \"#utility.yul\":4018:4095   */\n  0x4e487b7100000000000000000000000000000000000000000000000000000000\n    /* \"#utility.yul\":4015:4016   */\n  0x00\n    /* \"#utility.yul\":4008:4096   */\n  mstore\n    /* \"#utility.yul\":4115:4119   */\n  0x22\n    /* \"#utility.yul\":4112:4113   */\n  0x04\n    /* \"#utility.yul\":4105:4120   */\n  mstore\n    /* \"#utility.yul\":4139:4143   */\n  0x24\n    /* \"#utility.yul\":4136:4137   */\n  0x00\n    /* \"#utility.yul\":4129:4144   */\n  revert\n    /* \"#utility.yul\":4156:4476   */\ntag_46:\n    /* \"#utility.yul\":4200:4206   */\n  0x00\n    /* \"#utility.yul\":4237:4238   */\n  0x02\n    /* \"#utility.yul\":4231:4235   */\n  dup3\n    /* \"#utility.yul\":4227:4239   */\n  div\n    /* \"#utility.yul\":4217:4239   */\n  swap1\n  pop\n    /* \"#utility.yul\":4284:4285   */\n  0x01\n    /* \"#utility.yul\":4278:4282   */\n  dup3\n    /* \"#utility.yul\":4274:4286   */\n  and\n    /* \"#utility.yul\":4305:4323   */\n  dup1\n    /* \"#utility.yul\":4295:4376   */\n  tag_117\n  jumpi\n    /* \"#utility.yul\":4361:4365   */\n  0x7f\n    /* \"#utility.yul\":4353:4359   */\n  dup3\n    /* \"#utility.yul\":4349:4366   */\n  and\n    /* \"#utility.yul\":4339:4366   */\n  swap2\n  pop\n    /* \"#utility.yul\":4295:4376   */\ntag_117:\n    /* \"#utility.yul\":4423:4425   */\n  0x20\n    /* \"#utility.yul\":4415:4421   */\n  dup3\n    /* \"#utility.yul\":4412:4426   */\n  lt\n    /* \"#utility.yul\":4392:4410   */\n  dup2\n    /* \"#utility.yul\":4389:4427   */\n  sub\n    /* \"#utility.yul\":4386:4470   */\n  tag_118\n  jumpi\n    /* \"#utility.yul\":4442:4460   */\n  tag_119\n  tag_45\n  jump\t// in\ntag_119:\n    /* \"#utility.yul\":4386:4470   */\ntag_118:\n    /* \"#utility.yul\":4207:4476   */\n  pop\n    /* \"#utility.yul\":4156:4476   */\n  swap2\n  swap1\n  pop\n  jump\t// out\n    /* \"#utility.yul\":4482:4623   */\ntag_47:\n    /* \"#utility.yul\":4531:4535   */\n  0x00\n    /* \"#utility.yul\":4554:4557   */\n  dup2\n    /* \"#utility.yul\":4546:4557   */\n  swap1\n  pop\n    /* \"#utility.yul\":4577:4580   */\n  dup2\n    /* \"#utility.yul\":4574:4575   */\n  0x00\n    /* \"#utility.yul\":4567:4581   */\n  mstore\n    /* \"#utility.yul\":4611:4615   */\n  0x20\n    /* \"#utility.yul\":4608:4609   */\n  0x00\n    /* \"#utility.yul\":4598:4616   */\n  keccak256\n    /* \"#utility.yul\":4590:4616   */\n  swap1\n  pop\n    /* \"#utility.yul\":4482:4623   */\n  swap2\n  swap1\n  pop\n  jump\t// out\n    /* \"#utility.yul\":4629:4722   */\ntag_48:\n    /* \"#utility.yul\":4666:4672   */\n  0x00\n    /* \"#utility.yul\":4713:4715   */\n  0x20\n    /* \"#utility.yul\":4708:4710   */\n  0x1f\n    /* \"#utility.yul\":4701:4706   */\n  dup4\n    /* \"#utility.yul\":4697:4711   */\n  add\n    /* \"#utility.yul\":4693:4716   */\n  div\n    /* \"#utility.yul\":4683:4716   */\n  swap1\n  pop\n    /* \"#utility.yul\":4629:4722   */\n  swap2\n  swap1\n  pop\n  jump\t// out\n    /* \"#utility.yul\":4728:4835   */\ntag_49:\n    /* \"#utility.yul\":4772:4780   */\n  0x00\n    /* \"#utility.yul\":4822:4827   */\n  dup3\n    /* \"#utility.yul\":4816:4820   */\n  dup3\n    /* \"#utility.yul\":4812:4828   */\n  shl\n    /* \"#utility.yul\":4791:4828   */\n  swap1\n  pop\n    /* \"#utility.yul\":4728:4835   */\n  swap3\n  swap2\n  pop\n  pop\n  jump\t// out\n    /* \"#utility.yul\":4841:5234   */\ntag_50:\n    /* \"#utility.yul\":4910:4916   */\n  0x00\n    /* \"#utility.yul\":4960:4961   */\n  0x08\n    /* \"#utility.yul\":4948:4958   */\n  dup4\n    /* \"#utility.yul\":4944:4962   */\n  mul\n    /* \"#utility.yul\":4983:5080   */\n  tag_124\n    /* \"#utility.yul\":5013:5079   */\n  0xffffffffffffffffffffffffffffffffffffffffffffffffffffffffffffffff\n    /* \"#utility.yul\":5002:5011   */\n  dup3\n    /* \"#utility.yul\":4983:5080   */\n  tag_49\n  jump\t// in\ntag_124:\n    /* \"#utility.yul\":5101:5140   */\n  tag_125\n    /* \"#utility.yul\":5131:5139   */\n  dup7\n    /* \"#utility.yul\":5120:5129   */\n  dup4\n    /* \"#utility.yul\":5101:5140   */\n  tag_49\n  jump\t// in\ntag_125:\n    /* \"#utility.yul\":5089:5140   */\n  swap6\n  pop\n    /* \"#utility.yul\":5173:5177   */\n  dup1\n    /* \"#utility.yul\":5169:5178   */\n  not\n    /* \"#utility.yul\":5162:5167   */\n  dup5\n    /* \"#utility.yul\":5158:5179   */\n  and\n    /* \"#utility.yul\":5149:5179   */\n  swap4\n  pop\n    /* \"#utility.yul\":5222:5226   */\n  dup1\n    /* \"#utility.yul\":5212:5220   */\n  dup7\n    /* \"#utility.yul\":5208:5227   */\n  and\n    /* \"#utility.yul\":5201:5206   */\n  dup5\n    /* \"#utility.yul\":5198:5228   */\n  or\n    /* \"#utility.yul\":5188:5228   */\n  swap3\n  pop\n    /* \"#utility.yul\":4917:5234   */\n  pop\n  pop\n    /* \"#utility.yul\":4841:5234   */\n  swap4\n  swap3\n  pop\n  pop\n  pop\n  jump\t// out\n    /* \"#utility.yul\":5240:5317   */\ntag_51:\n    /* \"#utility.yul\":5277:5284   */\n  0x00\n    /* \"#utility.yul\":5306:5311   */\n  dup2\n    /* \"#utility.yul\":5295:5311   */\n  swap1\n  pop\n    /* \"#utility.yul\":5240:5317   */\n  swap2\n  swap1\n  pop\n  jump\t// out\n    /* \"#utility.yul\":5323:5383   */\ntag_52:\n    /* \"#utility.yul\":5351:5354   */\n  0x00\n    /* \"#utility.yul\":5372:5377   */\n  dup2\n    /* \"#utility.yul\":5365:5377   */\n  swap1\n  pop\n    /* \"#utility.yul\":5323:5383   */\n  swap2\n  swap1\n  pop\n  jump\t// out\n    /* \"#utility.yul\":5389:5531   */\ntag_53:\n    /* \"#utility.yul\":5439:5448   */\n  0x00\n    /* \"#utility.yul\":5472:5525   */\n  tag_129\n    /* \"#utility.yul\":5490:5524   */\n  tag_130\n    /* \"#utility.yul\":5499:5523   */\n  tag_131\n    /* \"#utility.yul\":5517:5522   */\n  dup5\n    /* \"#utility.yul\":5499:5523   */\n  tag_51\n  jump\t// in\ntag_131:\n    /* \"#utility.yul\":5490:5524   */\n  tag_52\n  jump\t// in\ntag_130:\n    /* \"#utility.yul\":5472:5525   */\n  tag_51\n  jump\t// in\ntag_129:\n    /* \"#utility.yul\":5459:5525   */\n  swap1\n  pop\n    /* \"#utility.yul\":5389:5531   */\n  swap2\n  swap1\n  pop\n  jump\t// out\n    /* \"#utility.yul\":5537:5612   */\ntag_54:\n    /* \"#utility.yul\":5580:5583   */\n  0x00\n    /* \"#utility.yul\":5601:5606   */\n  dup2\n    /* \"#utility.yul\":5594:5606   */\n  swap1\n  pop\n    /* \"#utility.yul\":5537:5612   */\n  swap2\n  swap1\n  pop\n  jump\t// out\n    /* \"#utility.yul\":5618:5887   */\ntag_55:\n    /* \"#utility.yul\":5728:5767   */\n  tag_134\n    /* \"#utility.yul\":5759:5766   */\n  dup4\n    /* \"#utility.yul\":5728:5767   */\n  tag_53\n  jump\t// in\ntag_134:\n    /* \"#utility.yul\":5789:5880   */\n  tag_135\n    /* \"#utility.yul\":5838:5879   */\n  tag_136\n    /* \"#utility.yul\":5862:5878   */\n  dup3\n    /* \"#utility.yul\":5838:5879   */\n  tag_54\n  jump\t// in\ntag_136:\n    /* \"#utility.yul\":5830:5836   */\n  dup5\n    /* \"#utility.yul\":5823:5827   */\n  dup5\n    /* \"#utility.yul\":5817:5828   */\n  sload\n    /* \"#utility.yul\":5789:5880   */\n  tag_50\n  jump\t// in\ntag_135:\n    /* \"#utility.yul\":5783:5787   */\n  dup3\n    /* \"#utility.yul\":5776:5881   */\n  sstore\n    /* \"#utility.yul\":5694:5887   */\n  pop\n    /* \"#utility.yul\":5618:5887   */\n  pop\n  pop\n  pop\n  jump\t// out\n    /* \"#utility.yul\":5893:5966   */\ntag_56:\n    /* \"#utility.yul\":5938:5941   */\n  0x00\n    /* \"#utility.yul\":5893:5966   */\n  swap1\n  jump\t// out\n    /* \"#utility.yul\":5972:6161   */\ntag_57:\n    /* \"#utility.yul\":6049:6081   */\n  tag_139\n  tag_56\n  jump\t// in\ntag_139:\n    /* \"#utility.yul\":6090:6155   */\n  tag_140\n    /* \"#utility.yul\":6148:6154   */\n  dup2\n    /* \"#utility.yul\":6140:6146   */\n  dup5\n    /* \"#utility.yul\":6134:6138   */\n  dup5\n    /* \"#utility.yul\":6090:6155   */\n  tag_55\n  jump\t// in\ntag_140:\n    /* \"#utility.yul\":6025:6161   */\n  pop\n    /* \"#utility.yul\":5972:6161   */\n  pop\n  pop\n  jump\t// out\n    /* \"#utility.yul\":6167:6353   */\ntag_58:\n    /* \"#utility.yul\":6227:6347   */\ntag_142:\n    /* \"#utility.yul\":6244:6247   */\n  dup2\n    /* \"#utility.yul\":6237:6242   */\n  dup2\n    /* \"#utility.yul\":6234:6248   */\n  lt\n    /* \"#utility.yul\":6227:6347   */\n  iszero\n  tag_144\n  jumpi\n    /* \"#utility.yul\":6298:6337   */\n  tag_145\n    /* \"#utility.yul\":6335:6336   */\n  0x00\n    /* \"#utility.yul\":6328:6333   */\n  dup3\n    /* \"#utility.yul\":6298:6337   */\n  tag_57\n  jump\t// in\ntag_145:\n    /* \"#utility.yul\":6271:6272   */\n  0x01\n    /* \"#utility.yul\":6264:6269   */\n  dup2\n    /* \"#utility.yul\":6260:6273   */\n  add\n    /* \"#utility.yul\":6251:6273   */\n  swap1\n  pop\n    /* \"#utility.yul\":6227:6347   */\n  jump(tag_142)\ntag_144:\n    /* \"#utility.yul\":6167:6353   */\n  pop\n  pop\n  jump\t// out\n    /* \"#utility.yul\":6359:6902   */\ntag_59:\n    /* \"#utility.yul\":6460:6462   */\n  0x1f\n    /* \"#utility.yul\":6455:6458   */\n  dup3\n    /* \"#utility.yul\":6452:6463   */\n  gt\n    /* \"#utility.yul\":6449:6895   */\n  iszero\n  tag_147\n  jumpi\n    /* \"#utility.yul\":6494:6532   */\n  tag_148\n    /* \"#utility.yul\":6526:6531   */\n  dup2\n    /* \"#utility.yul\":6494:6532   */\n  tag_47\n  jump\t// in\ntag_148:\n    /* \"#utility.yul\":6578:6607   */\n  tag_149\n    /* \"#utility.yul\":6596:6606   */\n  dup5\n    /* \"#utility.yul\":6578:6607   */\n  tag_48\n  jump\t// in\ntag_149:\n    /* \"#utility.yul\":6568:6576   */\n  dup2\n    /* \"#utility.yul\":6564:6608   */\n  add\n    /* \"#utility.yul\":6761:6763   */\n  0x20\n    /* \"#utility.yul\":6749:6759   */\n  dup6\n    /* \"#utility.yul\":6746:6764   */\n  lt\n    /* \"#utility.yul\":6743:6792   */\n  iszero\n  tag_150\n  jumpi\n    /* \"#utility.yul\":6782:6790   */\n  dup2\n    /* \"#utility.yul\":6767:6790   */\n  swap1\n  pop\n    /* \"#utility.yul\":6743:6792   */\ntag_150:\n    /* \"#utility.yul\":6805:6885   */\n  tag_151\n    /* \"#utility.yul\":6861:6883   */\n  tag_152\n    /* \"#utility.yul\":6879:6882   */\n  dup6\n    /* \"#utility.yul\":6861:6883   */\n  tag_48\n  jump\t// in\ntag_152:\n    /* \"#utility.yul\":6851:6859   */\n  dup4\n    /* \"#utility.yul\":6847:6884   */\n  add\n    /* \"#utility.yul\":6834:6845   */\n  dup3\n    /* \"#utility.yul\":6805:6885   */\n  tag_58\n  jump\t// in\ntag_151:\n    /* \"#utility.yul\":6464:6895   */\n  pop\n  pop\n    /* \"#utility.yul\":6449:6895   */\ntag_147:\n    /* \"#utility.yul\":6359:6902   */\n  pop\n  pop\n  pop\n  jump\t// out\n    /* \"#utility.yul\":6908:7025   */\ntag_60:\n    /* \"#utility.yul\":6962:6970   */\n  0x00\n    /* \"#utility.yul\":7012:7017   */\n  dup3\n    /* \"#utility.yul\":7006:7010   */\n  dup3\n    /* \"#utility.yul\":7002:7018   */\n  shr\n    /* \"#utility.yul\":6981:7018   */\n  swap1\n  pop\n    /* \"#utility.yul\":6908:7025   */\n  swap3\n  swap2\n  pop\n  pop\n  jump\t// out\n    /* \"#utility.yul\":7031:7200   */\ntag_61:\n    /* \"#utility.yul\":7075:7081   */\n  0x00\n    /* \"#utility.yul\":7108:7159   */\n  tag_155\n    /* \"#utility.yul\":7156:7157   */\n  0x00\n    /* \"#utility.yul\":7152:7158   */\n  not\n    /* \"#utility.yul\":7144:7149   */\n  dup5\n    /* \"#utility.yul\":7141:7142   */\n  0x08\n    /* \"#utility.yul\":7137:7150   */\n  mul\n    /* \"#utility.yul\":7108:7159   */\n  tag_60\n  jump\t// in\ntag_155:\n    /* \"#utility.yul\":7104:7160   */\n  not\n    /* \"#utility.yul\":7189:7193   */\n  dup1\n    /* \"#utility.yul\":7183:7187   */\n  dup4\n    /* \"#utility.yul\":7179:7194   */\n  and\n    /* \"#utility.yul\":7169:7194   */\n  swap2\n  pop\n    /* \"#utility.yul\":7082:7200   */\n  pop\n    /* \"#utility.yul\":7031:7200   */\n  swap3\n  swap2\n  pop\n  pop\n  jump\t// out\n    /* \"#utility.yul\":7205:7500   */\ntag_62:\n    /* \"#utility.yul\":7281:7285   */\n  0x00\n    /* \"#utility.yul\":7427:7456   */\n  tag_157\n    /* \"#utility.yul\":7452:7455   */\n  dup4\n    /* \"#utility.yul\":7446:7450   */\n  dup4\n    /* \"#utility.yul\":7427:7456   */\n  tag_61\n  jump\t// in\ntag_157:\n    /* \"#utility.yul\":7419:7456   */\n  swap2\n  pop\n    /* \"#utility.yul\":7489:7492   */\n  dup3\n    /* \"#utility.yul\":7486:7487   */\n  0x02\n    /* \"#utility.yul\":7482:7493   */\n  mul\n    /* \"#utility.yul\":7476:7480   */\n  dup3\n    /* \"#utility.yul\":7473:7494   */\n  or\n    /* \"#utility.yul\":7465:7494   */\n  swap1\n  pop\n    /* \"#utility.yul\":7205:7500   */\n  swap3\n  swap2\n  pop\n  pop\n  jump\t// out\n    /* \"#utility.yul\":7505:8900   */\ntag_8:\n    /* \"#utility.yul\":7622:7659   */\n  tag_159\n    /* \"#utility.yul\":7655:7658   */\n  dup3\n    /* \"#utility.yul\":7622:7659   */\n  tag_44\n  jump\t// in\ntag_159:\n    /* \"#utility.yul\":7724:7742   */\n  0xffffffffffffffff\n    /* \"#utility.yul\":7716:7722   */\n  dup2\n    /* \"#utility.yul\":7713:7743   */\n  gt\n    /* \"#utility.yul\":7710:7766   */\n  iszero\n  tag_160\n  jumpi\n    /* \"#utility.yul\":7746:7764   */\n  tag_161\n  tag_37\n  jump\t// in\ntag_161:\n    /* \"#utility.yul\":7710:7766   */\ntag_160:\n    /* \"#utility.yul\":7790:7828   */\n  tag_162\n    /* \"#utility.yul\":7822:7826   */\n  dup3\n    /* \"#utility.yul\":7816:7827   */\n  sload\n    /* \"#utility.yul\":7790:7828   */\n  tag_46\n  jump\t// in\ntag_162:\n    /* \"#utility.yul\":7875:7942   */\n  tag_163\n    /* \"#utility.yul\":7935:7941   */\n  dup3\n    /* \"#utility.yul\":7927:7933   */\n  dup3\n    /* \"#utility.yul\":7921:7925   */\n  dup6\n    /* \"#utility.yul\":7875:7942   */\n  tag_59\n  jump\t// in\ntag_163:\n    /* \"#utility.yul\":7969:7970   */\n  0x00\n    /* \"#utility.yul\":7993:7997   */\n  0x20\n    /* \"#utility.yul\":7980:7997   */\n  swap1\n  pop\n    /* \"#utility.yul\":8025:8027   */\n  0x1f\n    /* \"#utility.yul\":8017:8023   */\n  dup4\n    /* \"#utility.yul\":8014:8028   */\n  gt\n    /* \"#utility.yul\":8042:8043   */\n  0x01\n    /* \"#utility.yul\":8037:8655   */\n  dup2\n  eq\n  tag_165\n  jumpi\n    /* \"#utility.yul\":8699:8700   */\n  0x00\n    /* \"#utility.yul\":8716:8722   */\n  dup5\n    /* \"#utility.yul\":8713:8790   */\n  iszero\n  tag_166\n  jumpi\n    /* \"#utility.yul\":8765:8774   */\n  dup3\n    /* \"#utility.yul\":8760:8763   */\n  dup8\n    /* \"#utility.yul\":8756:8775   */\n  add\n    /* \"#utility.yul\":8750:8776   */\n  mload\n    /* \"#utility.yul\":8741:8776   */\n  swap1\n  pop\n    /* \"#utility.yul\":8713:8790   */\ntag_166:\n    /* \"#utility.yul\":8816:8883   */\n  tag_167\n    /* \"#utility.yul\":8876:8882   */\n  dup6\n    /* \"#utility.yul\":8869:8874   */\n  dup3\n    /* \"#utility.yul\":8816:8883   */\n  tag_62\n  jump\t// in\ntag_167:\n    /* \"#utility.yul\":8810:8814   */\n  dup7\n    /* \"#utility.yul\":8803:8884   */\n  sstore\n    /* \"#utility.yul\":8672:8894   */\n  pop\n    /* \"#utility.yul\":8007:8894   */\n  jump(tag_164)\n    /* \"#utility.yul\":8037:8655   */\ntag_165:\n    /* \"#utility.yul\":8089:8093   */\n  0x1f\n    /* \"#utility.yul\":8085:8094   */\n  not\n    /* \"#utility.yul\":8077:8083   */\n  dup5\n    /* \"#utility.yul\":8073:8095   */\n  and\n    /* \"#utility.yul\":8123:8160   */\n  tag_168\n    /* \"#utility.yul\":8155:8159   */\n  dup7\n    /* \"#utility.yul\":8123:8160   */\n  tag_47\n  jump\t// in\ntag_168:\n    /* \"#utility.yul\":8182:8183   */\n  0x00\n    /* \"#utility.yul\":8196:8404   */\ntag_169:\n    /* \"#utility.yul\":8210:8217   */\n  dup3\n    /* \"#utility.yul\":8207:8208   */\n  dup2\n    /* \"#utility.yul\":8204:8218   */\n  lt\n    /* \"#utility.yul\":8196:8404   */\n  iszero\n  tag_171\n  jumpi\n    /* \"#utility.yul\":8289:8298   */\n  dup5\n    /* \"#utility.yul\":8284:8287   */\n  dup10\n    /* \"#utility.yul\":8280:8299   */\n  add\n    /* \"#utility.yul\":8274:8300   */\n  mload\n    /* \"#utility.yul\":8266:8272   */\n  dup3\n    /* \"#utility.yul\":8259:8301   */\n  sstore\n    /* \"#utility.yul\":8340:8341   */\n  0x01\n    /* \"#utility.yul\":8332:8338   */\n  dup3\n    /* \"#utility.yul\":8328:8342   */\n  add\n    /* \"#utility.yul\":8318:8342   */\n  swap2\n  pop\n    /* \"#utility.yul\":8387:8389   */\n  0x20\n    /* \"#utility.yul\":8376:8385   */\n  dup6\n    /* \"#utility.yul\":8372:8390   */\n  add\n    /* \"#utility.yul\":8359:8390   */\n  swap5\n  pop\n    /* \"#utility.yul\":8233:8237   */\n  0x20\n    /* \"#utility.yul\":8230:8231   */\n  dup2\n    /* \"#utility.yul\":8226:8238   */\n  add\n    /* \"#utility.yul\":8221:8238   */\n  swap1\n  pop\n    /* \"#utility.yul\":8196:8404   */\n  jump(tag_169)\ntag_171:\n    /* \"#utility.yul\":8432:8438   */\n  dup7\n    /* \"#utility.yul\":8423:8430   */\n  dup4\n    /* \"#utility.yul\":8420:8439   */\n  lt\n    /* \"#utility.yul\":8417:8596   */\n  iszero\n  tag_172\n  jumpi\n    /* \"#utility.yul\":8490:8499   */\n  dup5\n    /* \"#utility.yul\":8485:8488   */\n  dup10\n    /* \"#utility.yul\":8481:8500   */\n  add\n    /* \"#utility.yul\":8475:8501   */\n  mload\n    /* \"#utility.yul\":8533:8581   */\n  tag_173\n    /* \"#utility.yul\":8575:8579   */\n  0x1f\n    /* \"#utility.yul\":8567:8573   */\n  dup10\n    /* \"#utility.yul\":8563:8580   */\n  and\n    /* \"#utility.yul\":8552:8561   */\n  dup3\n    /* \"#utility.yul\":8533:8581   */\n  tag_61\n  jump\t// in\ntag_173:\n    /* \"#utility.yul\":8525:8531   */\n  dup4\n    /* \"#utility.yul\":8518:8582   */\n  sstore\n    /* \"#utility.yul\":8440:8596   */\n  pop\n    /* \"#utility.yul\":8417:8596   */\ntag_172:\n    /* \"#utility.yul\":8642:8643   */\n  0x01\n    /* \"#utility.yul\":8638:8639   */\n  0x02\n    /* \"#utility.yul\":8630:8636   */\n  dup9\n    /* \"#utility.yul\":8626:8640   */\n  mul\n    /* \"#utility.yul\":8622:8644   */\n  add\n    /* \"#utility.yul\":8616:8620   */\n  dup9\n    /* \"#utility.yul\":8609:8645   */\n  sstore\n    /* \"#utility.yul\":8044:8655   */\n  pop\n  pop\n  pop\n    /* \"#utility.yul\":8007:8894   */\ntag_164:\n  pop\n    /* \"#utility.yul\":7597:8900   */\n  pop\n  pop\n  pop\n    /* \"#utility.yul\":7505:8900   */\n  pop\n  pop\n  jump\t// out\n    /* \"#utility.yul\":8906:9086   */\ntag_63:\n    /* \"#utility.yul\":8954:9031   */\n  0x4e487b7100000000000000000000000000000000000000000000000000000000\n    /* \"#utility.yul\":8951:8952   */\n  0x00\n    /* \"#utility.yul\":8944:9032   */\n  mstore\n    /* \"#utility.yul\":9051:9055   */\n  0x11\n    /* \"#utility.yul\":9048:9049   */\n  0x04\n    /* \"#utility.yul\":9041:9056   */\n  mstore\n    /* \"#utility.yul\":9075:9079   */\n  0x24\n    /* \"#utility.yul\":9072:9073   */\n  0x00\n    /* \"#utility.yul\":9065:9080   */\n  revert\n    /* \"#utility.yul\":9092:9194   */\ntag_64:\n    /* \"#utility.yul\":9134:9142   */\n  0x00\n    /* \"#utility.yul\":9181:9186   */\n  dup2\n    /* \"#utility.yul\":9178:9179   */\n  0x01\n    /* \"#utility.yul\":9174:9187   */\n  shr\n    /* \"#utility.yul\":9153:9187   */\n  swap1\n  pop\n    /* \"#utility.yul\":9092:9194   */\n  swap2\n  swap1\n  pop\n  jump\t// out\n    /* \"#utility.yul\":9200:10048   */\ntag_65:\n    /* \"#utility.yul\":9261:9266   */\n  0x00\n    /* \"#utility.yul\":9268:9272   */\n  dup1\n    /* \"#utility.yul\":9292:9298   */\n  dup3\n    /* \"#utility.yul\":9283:9298   */\n  swap2\n  pop\n    /* \"#utility.yul\":9316:9321   */\n  dup4\n    /* \"#utility.yul\":9307:9321   */\n  swap1\n  pop\n    /* \"#utility.yul\":9330:10042   */\ntag_177:\n    /* \"#utility.yul\":9351:9352   */\n  0x01\n    /* \"#utility.yul\":9341:9349   */\n  dup6\n    /* \"#utility.yul\":9338:9353   */\n  gt\n    /* \"#utility.yul\":9330:10042   */\n  iszero\n  tag_179\n  jumpi\n    /* \"#utility.yul\":9446:9450   */\n  dup1\n    /* \"#utility.yul\":9441:9444   */\n  dup7\n    /* \"#utility.yul\":9437:9451   */\n  div\n    /* \"#utility.yul\":9431:9435   */\n  dup2\n    /* \"#utility.yul\":9428:9452   */\n  gt\n    /* \"#utility.yul\":9425:9475   */\n  iszero\n  tag_180\n  jumpi\n    /* \"#utility.yul\":9455:9473   */\n  tag_181\n  tag_63\n  jump\t// in\ntag_181:\n    /* \"#utility.yul\":9425:9475   */\ntag_180:\n    /* \"#utility.yul\":9505:9506   */\n  0x01\n    /* \"#utility.yul\":9495:9503   */\n  dup6\n    /* \"#utility.yul\":9491:9507   */\n  and\n    /* \"#utility.yul\":9488:9939   */\n  iszero\n  tag_182\n  jumpi\n    /* \"#utility.yul\":9920:9924   */\n  dup1\n    /* \"#utility.yul\":9913:9918   */\n  dup3\n    /* \"#utility.yul\":9909:9925   */\n  mul\n    /* \"#utility.yul\":9900:9925   */\n  swap2\n  pop\n    /* \"#utility.yul\":9488:9939   */\ntag_182:\n    /* \"#utility.yul\":9970:9974   */\n  dup1\n    /* \"#utility.yul\":9964:9968   */\n  dup2\n    /* \"#utility.yul\":9960:9975   */\n  mul\n    /* \"#utility.yul\":9952:9975   */\n  swap1\n  pop\n    /* \"#utility.yul\":10000:10032   */\n  tag_183\n    /* \"#utility.yul\":10023:10031   */\n  dup6\n    /* \"#utility.yul\":10000:10032   */\n  tag_64\n  jump\t// in\ntag_183:\n    /* \"#utility.yul\":9988:10032   */\n  swap5\n  pop\n    /* \"#utility.yul\":9330:10042   */\n  jump(tag_177)\ntag_179:\n    /* \"#utility.yul\":9200:10048   */\n  swap5\n  pop\n  swap5\n  swap3\n  pop\n  pop\n  pop\n  jump\t// out\n    /* \"#utility.yul\":10054:11127   */\ntag_66:\n    /* \"#utility.yul\":10108:10113   */\n  0x00\n    /* \"#utility.yul\":10299:10307   */\n  dup3\n    /* \"#utility.yul\":10289:10329   */\n  tag_185\n  jumpi\n    /* \"#utility.yul\":10320:10321   */\n  0x01\n    /* \"#utility.yul\":10311:10321   */\n  swap1\n  pop\n    /* \"#utility.yul\":10322:10327   */\n  jump(tag_184)\n    /* \"#utility.yul\":10289:10329   */\ntag_185:\n    /* \"#utility.yul\":10348:10352   */\n  dup2\n    /* \"#utility.yul\":10338:10374   */\n  tag_186\n  jumpi\n    /* \"#utility.yul\":10365:10366   */\n  0x00\n    /* \"#utility.yul\":10356:10366   */\n  swap1\n  pop\n    /* \"#utility.yul\":10367:10372   */\n  jump(tag_184)\n    /* \"#utility.yul\":10338:10374   */\ntag_186:\n    /* \"#utility.yul\":10434:10438   */\n  dup2\n    /* \"#utility.yul\":10482:10483   */\n  0x01\n    /* \"#utility.yul\":10477:10504   */\n  dup2\n  eq\n  tag_188\n  jumpi\n    /* \"#utility.yul\":10518:10519   */\n  0x02\n    /* \"#utility.yul\":10513:10704   */\n  dup2\n  eq\n  tag_189\n  jumpi\n    /* \"#utility.yul\":10427:10704   */\n  jump(tag_187)\n    /* \"#utility.yul\":10477:10504   */\ntag_188:\n    /* \"#utility.yul\":10495:10496   */\n  0x01\n    /* \"#utility.yul\":10486:10496   */\n  swap2\n  pop\n    /* \"#utility.yul\":10497:10502   */\n  pop\n  jump(tag_184)\n    /* \"#utility.yul\":10513:10704   */\ntag_189:\n    /* \"#utility.yul\":10558:10561   */\n  0xff\n    /* \"#utility.yul\":10548:10556   */\n  dup5\n    /* \"#utility.yul\":10545:10562   */\n  gt\n    /* \"#utility.yul\":10542:10585   */\n  iszero\n  tag_190\n  jumpi\n    /* \"#utility.yul\":10565:10583   */\n  tag_191\n  tag_63\n  jump\t// in\ntag_191:\n    /* \"#utility.yul\":10542:10585   */\ntag_190:\n    /* \"#utility.yul\":10614:10622   */\n  dup4\n    /* \"#utility.yul\":10611:10612   */\n  0x02\n    /* \"#utility.yul\":10607:10623   */\n  exp\n    /* \"#utility.yul\":10598:10623   */\n  swap2\n  pop\n    /* \"#utility.yul\":10649:10652   */\n  dup5\n    /* \"#utility.yul\":10642:10647   */\n  dup3\n    /* \"#utility.yul\":10639:10653   */\n  gt\n    /* \"#utility.yul\":10636:10676   */\n  iszero\n  tag_192\n  jumpi\n    /* \"#utility.yul\":10656:10674   */\n  tag_193\n  tag_63\n  jump\t// in\ntag_193:\n    /* \"#utility.yul\":10636:10676   */\ntag_192:\n    /* \"#utility.yul\":10689:10694   */\n  pop\n  jump(tag_184)\n    /* \"#utility.yul\":10427:10704   */\ntag_187:\n  pop\n    /* \"#utility.yul\":10813:10815   */\n  0x20\n    /* \"#utility.yul\":10803:10811   */\n  dup4\n    /* \"#utility.yul\":10800:10816   */\n  lt\n    /* \"#utility.yul\":10794:10797   */\n  0x0133\n    /* \"#utility.yul\":10788:10792   */\n  dup4\n    /* \"#utility.yul\":10785:10798   */\n  lt\n    /* \"#utility.yul\":10781:10817   */\n  and\n    /* \"#utility.yul\":10763:10765   */\n  0x4e\n    /* \"#utility.yul\":10753:10761   */\n  dup5\n    /* \"#utility.yul\":10750:10766   */\n  lt\n    /* \"#utility.yul\":10745:10747   */\n  0x0b\n    /* \"#utility.yul\":10739:10743   */\n  dup5\n    /* \"#utility.yul\":10736:10748   */\n  lt\n    /* \"#utility.yul\":10732:10767   */\n  and\n    /* \"#utility.yul\":10716:10827   */\n  or\n    /* \"#utility.yul\":10713:10959   */\n  iszero\n  tag_194\n  jumpi\n    /* \"#utility.yul\":10869:10877   */\n  dup3\n    /* \"#utility.yul\":10863:10867   */\n  dup3\n    /* \"#utility.yul\":10859:10878   */\n  exp\n    /* \"#utility.yul\":10850:10878   */\n  swap1\n  pop\n    /* \"#utility.yul\":10904:10907   */\n  dup4\n    /* \"#utility.yul\":10897:10902   */\n  dup2\n    /* \"#utility.yul\":10894:10908   */\n  gt\n    /* \"#utility.yul\":10891:10931   */\n  iszero\n  tag_195\n  jumpi\n    /* \"#utility.yul\":10911:10929   */\n  tag_196\n  tag_63\n  jump\t// in\ntag_196:\n    /* \"#utility.yul\":10891:10931   */\ntag_195:\n    /* \"#utility.yul\":10944:10949   */\n  jump(tag_184)\n    /* \"#utility.yul\":10713:10959   */\ntag_194:\n    /* \"#utility.yul\":10984:11026   */\n  tag_197\n    /* \"#utility.yul\":11022:11025   */\n  dup5\n    /* \"#utility.yul\":11012:11020   */\n  dup5\n    /* \"#utility.yul\":11006:11010   */\n  dup5\n    /* \"#utility.yul\":11003:11004   */\n  0x01\n    /* \"#utility.yul\":10984:11026   */\n  tag_65\n  jump\t// in\ntag_197:\n    /* \"#utility.yul\":10969:11026   */\n  swap3\n  pop\n  swap1\n  pop\n    /* \"#utility.yul\":11058:11062   */\n  dup2\n    /* \"#utility.yul\":11053:11056   */\n  dup5\n    /* \"#utility.yul\":11049:11063   */\n  div\n    /* \"#utility.yul\":11042:11047   */\n  dup2\n    /* \"#utility.yul\":11039:11064   */\n  gt\n    /* \"#utility.yul\":11036:11087   */\n  iszero\n  tag_198\n  jumpi\n    /* \"#utility.yul\":11067:11085   */\n  tag_199\n  tag_63\n  jump\t// in\ntag_199:\n    /* \"#utility.yul\":11036:11087   */\ntag_198:\n    /* \"#utility.yul\":11116:11120   */\n  dup2\n    /* \"#utility.yul\":11109:11114   */\n  dup2\n    /* \"#utility.yul\":11105:11121   */\n  mul\n    /* \"#utility.yul\":11096:11121   */\n  swap1\n  pop\n    /* \"#utility.yul\":10054:11127   */\ntag_184:\n  swap4\n  swap3\n  pop\n  pop\n  pop\n  jump\t// out\n    /* \"#utility.yul\":11133:11418   */\ntag_15:\n    /* \"#utility.yul\":11193:11198   */\n  0x00\n    /* \"#utility.yul\":11217:11240   */\n  tag_201\n    /* \"#utility.yul\":11235:11239   */\n  dup3\n    /* \"#utility.yul\":11217:11240   */\n  tag_51\n  jump\t// in\ntag_201:\n    /* \"#utility.yul\":11209:11240   */\n  swap2\n  pop\n    /* \"#utility.yul\":11261:11288   */\n  tag_202\n    /* \"#utility.yul\":11279:11287   */\n  dup4\n    /* \"#utility.yul\":11261:11288   */\n  tag_51\n  jump\t// in\ntag_202:\n    /* \"#utility.yul\":11249:11288   */\n  swap3\n  pop\n    /* \"#utility.yul\":11307:11411   */\n  tag_203\n    /* \"#utility.yul\":11344:11410   */\n  0xffffffffffffffffffffffffffffffffffffffffffffffffffffffffffffffff\n    /* \"#utility.yul\":11334:11342   */\n  dup5\n    /* \"#utility.yul\":11328:11332   */\n  dup5\n    /* \"#utility.yul\":11307:11411   */\n  tag_66\n  jump\t// in\ntag_203:\n    /* \"#utility.yul\":11298:11411   */\n  swap1\n  pop\n    /* \"#utility.yul\":11133:11418   */\n  swap3\n  swap2\n  pop\n  pop\n  jump\t// out\n    /* \"#utility.yul\":11424:11834   */\ntag_17:\n    /* \"#utility.yul\":11464:11471   */\n  0x00\n    /* \"#utility.yul\":11487:11507   */\n  tag_205\n    /* \"#utility.yul\":11505:11506   */\n  dup3\n    /* \"#utility.yul\":11487:11507   */\n  tag_51\n  jump\t// in\ntag_205:\n    /* \"#utility.yul\":11482:11507   */\n  swap2\n  pop\n    /* \"#utility.yul\":11521:11541   */\n  tag_206\n    /* \"#utility.yul\":11539:11540   */\n  dup4\n    /* \"#utility.yul\":11521:11541   */\n  tag_51\n  jump\t// in\ntag_206:\n    /* \"#utility.yul\":11516:11541   */\n  swap3\n  pop\n    /* \"#utility.yul\":11576:11577   */\n  dup3\n    /* \"#utility.yul\":11573:11574   */\n  dup3\n    /* \"#utility.yul\":11569:11578   */\n  mul\n    /* \"#utility.yul\":11598:11628   */\n  tag_207\n    /* \"#utility.yul\":11616:11627   */\n  dup2\n    /* \"#utility.yul\":11598:11628   */\n  tag_51\n  jump\t// in\ntag_207:\n    /* \"#utility.yul\":11587:11628   */\n  swap2\n  pop\n    /* \"#utility.yul\":11777:11778   */\n  dup3\n    /* \"#utility.yul\":11768:11775   */\n  dup3\n    /* \"#utility.yul\":11764:11779   */\n  div\n    /* \"#utility.yul\":11761:11762   */\n  dup5\n    /* \"#utility.yul\":11758:11780   */\n  eq\n    /* \"#utility.yul\":11738:11739   */\n  dup4\n    /* \"#utility.yul\":11731:11740   */\n  iszero\n    /* \"#utility.yul\":11711:11794   */\n  or\n    /* \"#utility.yul\":11688:11827   */\n  tag_208\n  jumpi\n    /* \"#utility.yul\":11807:11825   */\n  tag_209\n  tag_63\n  jump\t// in\ntag_209:\n    /* \"#utility.yul\":11688:11827   */\ntag_208:\n    /* \"#utility.yul\":11472:11834   */\n  pop\n    /* \"#utility.yul\":11424:11834   */\n  swap3\n  swap2\n  pop\n  pop\n  jump\t// out\n    /* \"#utility.yul\":11840:11988   */\ntag_67:\n    /* \"#utility.yul\":11942:11953   */\n  0x00\n    /* \"#utility.yul\":11979:11982   */\n  dup2\n    /* \"#utility.yul\":11964:11982   */\n  swap1\n  pop\n    /* \"#utility.yul\":11840:11988   */\n  swap3\n  swap2\n  pop\n  pop\n  jump\t// out\n    /* \"#utility.yul\":11994:12384   */\ntag_68:\n    /* \"#utility.yul\":12100:12103   */\n  0x00\n    /* \"#utility.yul\":12128:12167   */\n  tag_212\n    /* \"#utility.yul\":12161:12166   */\n  dup3\n    /* \"#utility.yul\":12128:12167   */\n  tag_44\n  jump\t// in\ntag_212:\n    /* \"#utility.yul\":12183:12272   */\n  tag_213\n    /* \"#utility.yul\":12265:12271   */\n  dup2\n    /* \"#utility.yul\":12260:12263   */\n  dup6\n    /* \"#utility.yul\":12183:12272   */\n  tag_67\n  jump\t// in\ntag_213:\n    /* \"#utility.yul\":12176:12272   */\n  swap4\n  pop\n    /* \"#utility.yul\":12281:12346   */\n  tag_214\n    /* \"#utility.yul\":12339:12345   */\n  dup2\n    /* \"#utility.yul\":12334:12337   */\n  dup6\n    /* \"#utility.yul\":12327:12331   */\n  0x20\n    /* \"#utility.yul\":12320:12325   */\n  dup7\n    /* \"#utility.yul\":12316:12332   */\n  add\n    /* \"#utility.yul\":12281:12346   */\n  tag_41\n  jump\t// in\ntag_214:\n    /* \"#utility.yul\":12371:12377   */\n  dup1\n    /* \"#utility.yul\":12366:12369   */\n  dup5\n    /* \"#utility.yul\":12362:12378   */\n  add\n    /* \"#utility.yul\":12355:12378   */\n  swap2\n  pop\n    /* \"#utility.yul\":12104:12384   */\n  pop\n    /* \"#utility.yul\":11994:12384   */\n  swap3\n  swap2\n  pop\n  pop\n  jump\t// out\n    /* \"#utility.yul\":12390:12825   */\ntag_25:\n    /* \"#utility.yul\":12570:12573   */\n  0x00\n    /* \"#utility.yul\":12592:12687   */\n  tag_216\n    /* \"#utility.yul\":12683:12686   */\n  dup3\n    /* \"#utility.yul\":12674:12680   */\n  dup6\n    /* \"#utility.yul\":12592:12687   */\n  tag_68\n  jump\t// in\ntag_216:\n    /* \"#utility.yul\":12585:12687   */\n  swap2\n  pop\n    /* \"#utility.yul\":12704:12799   */\n  tag_217\n    /* \"#utility.yul\":12795:12798   */\n  dup3\n    /* \"#utility.yul\":12786:12792   */\n  dup5\n    /* \"#utility.yul\":12704:12799   */\n  tag_68\n  jump\t// in\ntag_217:\n    /* \"#utility.yul\":12697:12799   */\n  swap2\n  pop\n    /* \"#utility.yul\":12816:12819   */\n  dup2\n    /* \"#utility.yul\":12809:12819   */\n  swap1\n  pop\n    /* \"#utility.yul\":12390:12825   */\n  swap4\n  swap3\n  pop\n  pop\n  pop\n  jump\t// out\n    /* \"#utility.yul\":12831:13022   */\ntag_28:\n    /* \"#utility.yul\":12871:12874   */\n  0x00\n    /* \"#utility.yul\":12890:12910   */\n  tag_219\n    /* \"#utility.yul\":12908:12909   */\n  dup3\n    /* \"#utility.yul\":12890:12910   */\n  tag_51\n  jump\t// in\ntag_219:\n    /* \"#utility.yul\":12885:12910   */\n  swap2\n  pop\n    /* \"#utility.yul\":12924:12944   */\n  tag_220\n    /* \"#utility.yul\":12942:12943   */\n  dup4\n    /* \"#utility.yul\":12924:12944   */\n  tag_51\n  jump\t// in\ntag_220:\n    /* \"#utility.yul\":12919:12944   */\n  swap3\n  pop\n    /* \"#utility.yul\":12967:12968   */\n  dup3\n    /* \"#utility.yul\":12964:12965   */\n  dup3\n    /* \"#utility.yul\":12960:12969   */\n  add\n    /* \"#utility.yul\":12953:12969   */\n  swap1\n  pop\n    /* \"#utility.yul\":12988:12991   */\n  dup1\n    /* \"#utility.yul\":12985:12986   */\n  dup3\n    /* \"#utility.yul\":12982:12992   */\n  gt\n    /* \"#utility.yul\":12979:13015   */\n  iszero\n  tag_221\n  jumpi\n    /* \"#utility.yul\":12995:13013   */\n  tag_222\n  tag_63\n  jump\t// in\ntag_222:\n    /* \"#utility.yul\":12979:13015   */\ntag_221:\n    /* \"#utility.yul\":12831:13022   */\n  swap3\n  swap2\n  pop\n  pop\n  jump\t// out\n    /* \"contracts/contract/WBNC.sol\":81:641  contract WBNC is Token {... */\ntag_20:\n  dataSize(sub_0)\n  dup1\n  dataOffset(sub_0)\n  0x00\n  codecopy\n  0x00\n  return\nstop\ndata_3b6e8117fccaa2ffdbe0263bbd25830af6ee105ec403750c70117311049eed76 68747470733a2f2f6372696d736f6e2d67656e65726f75732d616e742d3339352e6d7970696e6174612e636c6f75642f697066732f\n\nsub_0: assembly {\n        /* \"contracts/contract/WBNC.sol\":81:641  contract WBNC is Token {... */\n      mstore(0x40, 0x80)\n      callvalue\n      dup1\n      iszero\n      tag_1\n      jumpi\n      0x00\n      dup1\n      revert\n    tag_1:\n      pop\n      jumpi(tag_2, lt(calldatasize, 0x04))\n      shr(0xe0, calldataload(0x00))\n      dup1\n      0x55b6ed5c\n      gt\n      tag_19\n      jumpi\n      dup1\n      0x95d89b41\n      gt\n      tag_20\n      jumpi\n      dup1\n      0x95d89b41\n      eq\n      tag_15\n      jumpi\n      dup1\n      0xa9059cbb\n      eq\n      tag_16\n      jumpi\n      dup1\n      0xdd62ed3e\n      eq\n      tag_17\n      jumpi\n      dup1\n      0xeac989f8\n      eq\n      tag_18\n      jumpi\n      jump(tag_2)\n    tag_20:\n      dup1\n      0x55b6ed5c\n      eq\n      tag_11\n      jumpi\n      dup1\n      0x6161eb18\n      eq\n      tag_12\n      jumpi\n      dup1\n      0x6e553f65\n      eq\n      tag_13\n      jumpi\n      dup1\n      0x70a08231\n      eq\n      tag_14\n      jumpi\n      jump(tag_2)\n    tag_19:\n      dup1\n      0x27e235e3\n      gt\n      tag_21\n      jumpi\n      dup1\n      0x27e235e3\n      eq\n      tag_7\n      jumpi\n      dup1\n      0x2e1a7d4d\n      eq\n      tag_8\n      jumpi\n      dup1\n      0x4cf12d26\n      eq\n      tag_9\n      jumpi\n      dup1\n      0x4e6ec247\n      eq\n      tag_10\n      jumpi\n      jump(tag_2)\n    tag_21:\n      dup1\n      0x06fdde03\n      eq\n      tag_3\n      jumpi\n      dup1\n      0x095ea7b3\n      eq\n      tag_4\n      jumpi\n      dup1\n      0x18160ddd\n      eq\n      tag_5\n      jumpi\n      dup1\n      0x23b872dd\n      eq\n      tag_6\n      jumpi\n    tag_2:\n      0x00\n      dup1\n      revert\n        /* \"contracts/contract/Token.sol\":135:153  string public name */\n    tag_3:\n      tag_22\n      tag_23\n      jump\t// in\n    tag_22:\n      mload(0x40)\n      tag_24\n      swap2\n      swap1\n      tag_25\n      jump\t// in\n    tag_24:\n      mload(0x40)\n      dup1\n      swap2\n      sub\n      swap1\n      return\n        /* \"contracts/contract/Token.sol\":1248:1395  function approve(address spender, uint amount) public returns (bool) {... */\n    tag_4:\n      tag_26\n      0x04\n      dup1\n      calldatasize\n      sub\n      dup2\n      add\n      swap1\n      tag_27\n      swap2\n      swap1\n      tag_28\n      jump\t// in\n    tag_27:\n      tag_29\n      jump\t// in\n    tag_26:\n      mload(0x40)\n      tag_30\n      swap2\n      swap1\n      tag_31\n      jump\t// in\n    tag_30:\n      mload(0x40)\n      dup1\n      swap2\n      sub\n      swap1\n      return\n        /* \"contracts/contract/Token.sol\":242:265  uint public totalSupply */\n    tag_5:\n      tag_32\n      tag_33\n      jump\t// in\n    tag_32:\n      mload(0x40)\n      tag_34\n      swap2\n      swap1\n      tag_35\n      jump\t// in\n    tag_34:\n      mload(0x40)\n      dup1\n      swap2\n      sub\n      swap1\n      return\n        /* \"contracts/contract/Token.sol\":1440:1717  function transferFrom(address from, address to, uint value) public returns (bool) {... */\n    tag_6:\n      tag_36\n      0x04\n      dup1\n      calldatasize\n      sub\n      dup2\n      add\n      swap1\n      tag_37\n      swap2\n      swap1\n      tag_38\n      jump\t// in\n    tag_37:\n      tag_39\n      jump\t// in\n    tag_36:\n      mload(0x40)\n      tag_40\n      swap2\n      swap1\n      tag_31\n      jump\t// in\n    tag_40:\n      mload(0x40)\n      dup1\n      swap2\n      sub\n      swap1\n      return\n        /* \"contracts/contract/Token.sol\":272:313  mapping (address => uint) public balances */\n    tag_7:\n      tag_41\n      0x04\n      dup1\n      calldatasize\n      sub\n      dup2\n      add\n      swap1\n      tag_42\n      swap2\n      swap1\n      tag_43\n      jump\t// in\n    tag_42:\n      tag_44\n      jump\t// in\n    tag_41:\n      mload(0x40)\n      tag_45\n      swap2\n      swap1\n      tag_35\n      jump\t// in\n    tag_45:\n      mload(0x40)\n      dup1\n      swap2\n      sub\n      swap1\n      return\n        /* \"contracts/contract/WBNC.sol\":502:639  function withdraw(uint256 amount) public virtual {... */\n    tag_8:\n      tag_46\n      0x04\n      dup1\n      calldatasize\n      sub\n      dup2\n      add\n      swap1\n      tag_47\n      swap2\n      swap1\n      tag_48\n      jump\t// in\n    tag_47:\n      tag_49\n      jump\t// in\n    tag_46:\n      stop\n        /* \"contracts/contract/Token.sol\":1862:2001  function tokenURI(string memory _imageUri) public pure returns (string memory) {... */\n    tag_9:\n      tag_50\n      0x04\n      dup1\n      calldatasize\n      sub\n      dup2\n      add\n      swap1\n      tag_51\n      swap2\n      swap1\n      tag_52\n      jump\t// in\n    tag_51:\n      tag_53\n      jump\t// in\n    tag_50:\n      mload(0x40)\n      tag_54\n      swap2\n      swap1\n      tag_25\n      jump\t// in\n    tag_54:\n      mload(0x40)\n      dup1\n      swap2\n      sub\n      swap1\n      return\n        /* \"contracts/contract/Token.sol\":648:765  function _mint(address to, uint amount) public {... */\n    tag_10:\n      tag_55\n      0x04\n      dup1\n      calldatasize\n      sub\n      dup2\n      add\n      swap1\n      tag_56\n      swap2\n      swap1\n      tag_28\n      jump\t// in\n    tag_56:\n      tag_57\n      jump\t// in\n    tag_55:\n      stop\n        /* \"contracts/contract/Token.sol\":319:383  mapping (address => mapping (address => uint)) public allowances */\n    tag_11:\n      tag_58\n      0x04\n      dup1\n      calldatasize\n      sub\n      dup2\n      add\n      swap1\n      tag_59\n      swap2\n      swap1\n      tag_60\n      jump\t// in\n    tag_59:\n      tag_61\n      jump\t// in\n    tag_58:\n      mload(0x40)\n      tag_62\n      swap2\n      swap1\n      tag_35\n      jump\t// in\n    tag_62:\n      mload(0x40)\n      dup1\n      swap2\n      sub\n      swap1\n      return\n        /* \"contracts/contract/Token.sol\":792:915  function _burn(address owner, uint amount) public {... */\n    tag_12:\n      tag_63\n      0x04\n      dup1\n      calldatasize\n      sub\n      dup2\n      add\n      swap1\n      tag_64\n      swap2\n      swap1\n      tag_28\n      jump\t// in\n    tag_64:\n      tag_65\n      jump\t// in\n    tag_63:\n      stop\n        /* \"contracts/contract/WBNC.sol\":347:496  function deposit(uint value, address userAddress) public virtual {... */\n    tag_13:\n      tag_66\n      0x04\n      dup1\n      calldatasize\n      sub\n      dup2\n      add\n      swap1\n      tag_67\n      swap2\n      swap1\n      tag_68\n      jump\t// in\n    tag_67:\n      tag_69\n      jump\t// in\n    tag_66:\n      stop\n        /* \"contracts/contract/Token.sol\":921:1028  function balanceOf(address account) public view returns (uint256) {... */\n    tag_14:\n      tag_70\n      0x04\n      dup1\n      calldatasize\n      sub\n      dup2\n      add\n      swap1\n      tag_71\n      swap2\n      swap1\n      tag_43\n      jump\t// in\n    tag_71:\n      tag_72\n      jump\t// in\n    tag_70:\n      mload(0x40)\n      tag_73\n      swap2\n      swap1\n      tag_35\n      jump\t// in\n    tag_73:\n      mload(0x40)\n      dup1\n      swap2\n      sub\n      swap1\n      return\n        /* \"contracts/contract/Token.sol\":159:179  string public symbol */\n    tag_15:\n      tag_74\n      tag_75\n      jump\t// in\n    tag_74:\n      mload(0x40)\n      tag_76\n      swap2\n      swap1\n      tag_25\n      jump\t// in\n    tag_76:\n      mload(0x40)\n      dup1\n      swap2\n      sub\n      swap1\n      return\n        /* \"contracts/contract/Token.sol\":1056:1221  function transfer(address to, uint amount) public returns (bool) {... */\n    tag_16:\n      tag_77\n      0x04\n      dup1\n      calldatasize\n      sub\n      dup2\n      add\n      swap1\n      tag_78\n      swap2\n      swap1\n      tag_28\n      jump\t// in\n    tag_78:\n      tag_79\n      jump\t// in\n    tag_77:\n      mload(0x40)\n      tag_80\n      swap2\n      swap1\n      tag_31\n      jump\t// in\n    tag_80:\n      mload(0x40)\n      dup1\n      swap2\n      sub\n      swap1\n      return\n        /* \"contracts/contract/Token.sol\":1724:1855  function allowance(address owner, address spender) public view returns (uint256) {... */\n    tag_17:\n      tag_81\n      0x04\n      dup1\n      calldatasize\n      sub\n      dup2\n      add\n      swap1\n      tag_82\n      swap2\n      swap1\n      tag_60\n      jump\t// in\n    tag_82:\n      tag_83\n      jump\t// in\n    tag_81:\n      mload(0x40)\n      tag_84\n      swap2\n      swap1\n      tag_35\n      jump\t// in\n    tag_84:\n      mload(0x40)\n      dup1\n      swap2\n      sub\n      swap1\n      return\n        /* \"contracts/contract/Token.sol\":185:202  string public uri */\n    tag_18:\n      tag_85\n      tag_86\n      jump\t// in\n    tag_85:\n      mload(0x40)\n      tag_87\n      swap2\n      swap1\n      tag_25\n      jump\t// in\n    tag_87:\n      mload(0x40)\n      dup1\n      swap2\n      sub\n      swap1\n      return\n        /* \"contracts/contract/Token.sol\":135:153  string public name */\n    tag_23:\n      0x00\n      dup1\n      sload\n      tag_88\n      swap1\n      tag_89\n      jump\t// in\n    tag_88:\n      dup1\n      0x1f\n      add\n      0x20\n      dup1\n      swap2\n      div\n      mul\n      0x20\n      add\n      mload(0x40)\n      swap1\n      dup2\n      add\n      0x40\n      mstore\n      dup1\n      swap3\n      swap2\n      swap1\n      dup2\n      dup2\n      mstore\n      0x20\n      add\n      dup3\n      dup1\n      sload\n      tag_90\n      swap1\n      tag_89\n      jump\t// in\n    tag_90:\n      dup1\n      iszero\n      tag_91\n      jumpi\n      dup1\n      0x1f\n      lt\n      tag_92\n      jumpi\n      0x0100\n      dup1\n      dup4\n      sload\n      div\n      mul\n      dup4\n      mstore\n      swap2\n      0x20\n      add\n      swap2\n      jump(tag_91)\n    tag_92:\n      dup3\n      add\n      swap2\n      swap1\n      0x00\n      mstore\n      keccak256(0x00, 0x20)\n      swap1\n    tag_93:\n      dup2\n      sload\n      dup2\n      mstore\n      swap1\n      0x01\n      add\n      swap1\n      0x20\n      add\n      dup1\n      dup4\n      gt\n      tag_93\n      jumpi\n      dup3\n      swap1\n      sub\n      0x1f\n      and\n      dup3\n      add\n      swap2\n    tag_91:\n      pop\n      pop\n      pop\n      pop\n      pop\n      dup2\n      jump\t// out\n        /* \"contracts/contract/Token.sol\":1248:1395  function approve(address spender, uint amount) public returns (bool) {... */\n    tag_29:\n        /* \"contracts/contract/Token.sol\":1311:1315  bool */\n      0x00\n        /* \"contracts/contract/Token.sol\":1361:1367  amount */\n      dup2\n        /* \"contracts/contract/Token.sol\":1327:1337  allowances */\n      0x06\n        /* \"contracts/contract/Token.sol\":1327:1349  allowances[msg.sender] */\n      0x00\n        /* \"contracts/contract/Token.sol\":1338:1348  msg.sender */\n      caller\n        /* \"contracts/contract/Token.sol\":1327:1349  allowances[msg.sender] */\n      0xffffffffffffffffffffffffffffffffffffffff\n      and\n      0xffffffffffffffffffffffffffffffffffffffff\n      and\n      dup2\n      mstore\n      0x20\n      add\n      swap1\n      dup2\n      mstore\n      0x20\n      add\n      0x00\n      keccak256\n        /* \"contracts/contract/Token.sol\":1327:1358  allowances[msg.sender][spender] */\n      0x00\n        /* \"contracts/contract/Token.sol\":1350:1357  spender */\n      dup6\n        /* \"contracts/contract/Token.sol\":1327:1358  allowances[msg.sender][spender] */\n      0xffffffffffffffffffffffffffffffffffffffff\n      and\n      0xffffffffffffffffffffffffffffffffffffffff\n      and\n      dup2\n      mstore\n      0x20\n      add\n      swap1\n      dup2\n      mstore\n      0x20\n      add\n      0x00\n      keccak256\n        /* \"contracts/contract/Token.sol\":1327:1367  allowances[msg.sender][spender] = amount */\n      dup2\n      swap1\n      sstore\n      pop\n        /* \"contracts/contract/Token.sol\":1384:1388  true */\n      0x01\n        /* \"contracts/contract/Token.sol\":1377:1388  return true */\n      swap1\n      pop\n        /* \"contracts/contract/Token.sol\":1248:1395  function approve(address spender, uint amount) public returns (bool) {... */\n      swap3\n      swap2\n      pop\n      pop\n      jump\t// out\n        /* \"contracts/contract/Token.sol\":242:265  uint public totalSupply */\n    tag_33:\n      sload(0x04)\n      dup2\n      jump\t// out\n        /* \"contracts/contract/Token.sol\":1440:1717  function transferFrom(address from, address to, uint value) public returns (bool) {... */\n    tag_39:\n        /* \"contracts/contract/Token.sol\":1516:1520  bool */\n      0x00\n        /* \"contracts/contract/Token.sol\":1572:1577  value */\n      dup2\n        /* \"contracts/contract/Token.sol\":1540:1550  allowances */\n      0x06\n        /* \"contracts/contract/Token.sol\":1540:1556  allowances[from] */\n      0x00\n        /* \"contracts/contract/Token.sol\":1551:1555  from */\n      dup7\n        /* \"contracts/contract/Token.sol\":1540:1556  allowances[from] */\n      0xffffffffffffffffffffffffffffffffffffffff\n      and\n      0xffffffffffffffffffffffffffffffffffffffff\n      and\n      dup2\n      mstore\n      0x20\n      add\n      swap1\n      dup2\n      mstore\n      0x20\n      add\n      0x00\n      keccak256\n        /* \"contracts/contract/Token.sol\":1540:1568  allowances[from][msg.sender] */\n      0x00\n        /* \"contracts/contract/Token.sol\":1557:1567  msg.sender */\n      caller\n        /* \"contracts/contract/Token.sol\":1540:1568  allowances[from][msg.sender] */\n      0xffffffffffffffffffffffffffffffffffffffff\n      and\n      0xffffffffffffffffffffffffffffffffffffffff\n      and\n      dup2\n      mstore\n      0x20\n      add\n      swap1\n      dup2\n      mstore\n      0x20\n      add\n      0x00\n      keccak256\n      sload\n        /* \"contracts/contract/Token.sol\":1540:1577  allowances[from][msg.sender] >= value */\n      lt\n      iszero\n        /* \"contracts/contract/Token.sol\":1532:1578  require(allowances[from][msg.sender] >= value) */\n      tag_96\n      jumpi\n      0x00\n      dup1\n      revert\n    tag_96:\n        /* \"contracts/contract/Token.sol\":1620:1625  value */\n      dup2\n        /* \"contracts/contract/Token.sol\":1588:1598  allowances */\n      0x06\n        /* \"contracts/contract/Token.sol\":1588:1604  allowances[from] */\n      0x00\n        /* \"contracts/contract/Token.sol\":1599:1603  from */\n      dup7\n        /* \"contracts/contract/Token.sol\":1588:1604  allowances[from] */\n      0xffffffffffffffffffffffffffffffffffffffff\n      and\n      0xffffffffffffffffffffffffffffffffffffffff\n      and\n      dup2\n      mstore\n      0x20\n      add\n      swap1\n      dup2\n      mstore\n      0x20\n      add\n      0x00\n      keccak256\n        /* \"contracts/contract/Token.sol\":1588:1616  allowances[from][msg.sender] */\n      0x00\n        /* \"contracts/contract/Token.sol\":1605:1615  msg.sender */\n      caller\n        /* \"contracts/contract/Token.sol\":1588:1616  allowances[from][msg.sender] */\n      0xffffffffffffffffffffffffffffffffffffffff\n      and\n      0xffffffffffffffffffffffffffffffffffffffff\n      and\n      dup2\n      mstore\n      0x20\n      add\n      swap1\n      dup2\n      mstore\n      0x20\n      add\n      0x00\n      keccak256\n      0x00\n        /* \"contracts/contract/Token.sol\":1588:1625  allowances[from][msg.sender] -= value */\n      dup3\n      dup3\n      sload\n      tag_97\n      swap2\n      swap1\n      tag_98\n      jump\t// in\n    tag_97:\n      swap3\n      pop\n      pop\n      dup2\n      swap1\n      sstore\n      pop\n        /* \"contracts/contract/Token.sol\":1653:1658  value */\n      dup2\n        /* \"contracts/contract/Token.sol\":1635:1643  balances */\n      0x05\n        /* \"contracts/contract/Token.sol\":1635:1649  balances[from] */\n      0x00\n        /* \"contracts/contract/Token.sol\":1644:1648  from */\n      dup7\n        /* \"contracts/contract/Token.sol\":1635:1649  balances[from] */\n      0xffffffffffffffffffffffffffffffffffffffff\n      and\n      0xffffffffffffffffffffffffffffffffffffffff\n      and\n      dup2\n      mstore\n      0x20\n      add\n      swap1\n      dup2\n      mstore\n      0x20\n      add\n      0x00\n      keccak256\n      0x00\n        /* \"contracts/contract/Token.sol\":1635:1658  balances[from] -= value */\n      dup3\n      dup3\n      sload\n      tag_99\n      swap2\n      swap1\n      tag_98\n      jump\t// in\n    tag_99:\n      swap3\n      pop\n      pop\n      dup2\n      swap1\n      sstore\n      pop\n        /* \"contracts/contract/Token.sol\":1684:1689  value */\n      dup2\n        /* \"contracts/contract/Token.sol\":1668:1676  balances */\n      0x05\n        /* \"contracts/contract/Token.sol\":1668:1680  balances[to] */\n      0x00\n        /* \"contracts/contract/Token.sol\":1677:1679  to */\n      dup6\n        /* \"contracts/contract/Token.sol\":1668:1680  balances[to] */\n      0xffffffffffffffffffffffffffffffffffffffff\n      and\n      0xffffffffffffffffffffffffffffffffffffffff\n      and\n      dup2\n      mstore\n      0x20\n      add\n      swap1\n      dup2\n      mstore\n      0x20\n      add\n      0x00\n      keccak256\n      0x00\n        /* \"contracts/contract/Token.sol\":1668:1689  balances[to] += value */\n      dup3\n      dup3\n      sload\n      tag_100\n      swap2\n      swap1\n      tag_101\n      jump\t// in\n    tag_100:\n      swap3\n      pop\n      pop\n      dup2\n      swap1\n      sstore\n      pop\n        /* \"contracts/contract/Token.sol\":1706:1710  true */\n      0x01\n        /* \"contracts/contract/Token.sol\":1699:1710  return true */\n      swap1\n      pop\n        /* \"contracts/contract/Token.sol\":1440:1717  function transferFrom(address from, address to, uint value) public returns (bool) {... */\n      swap4\n      swap3\n      pop\n      pop\n      pop\n      jump\t// out\n        /* \"contracts/contract/Token.sol\":272:313  mapping (address => uint) public balances */\n    tag_44:\n      mstore(0x20, 0x05)\n      dup1\n      0x00\n      mstore\n      keccak256(0x00, 0x40)\n      0x00\n      swap2\n      pop\n      swap1\n      pop\n      sload\n      dup2\n      jump\t// out\n        /* \"contracts/contract/WBNC.sol\":502:639  function withdraw(uint256 amount) public virtual {... */\n    tag_49:\n        /* \"contracts/contract/WBNC.sol\":561:586  _burn(msg.sender, amount) */\n      tag_103\n        /* \"contracts/contract/WBNC.sol\":567:577  msg.sender */\n      caller\n        /* \"contracts/contract/WBNC.sol\":579:585  amount */\n      dup3\n        /* \"contracts/contract/WBNC.sol\":561:566  _burn */\n      tag_65\n        /* \"contracts/contract/WBNC.sol\":561:586  _burn(msg.sender, amount) */\n      jump\t// in\n    tag_103:\n        /* \"contracts/contract/WBNC.sol\":613:623  msg.sender */\n      caller\n        /* \"contracts/contract/WBNC.sol\":602:632  Withdrawal(msg.sender, amount) */\n      0xffffffffffffffffffffffffffffffffffffffff\n      and\n      0x7fcf532c15f0a6db0bd6d0e038bea71d30d808c7d98cb3bf7268a95bf5081b65\n        /* \"contracts/contract/WBNC.sol\":625:631  amount */\n      dup3\n        /* \"contracts/contract/WBNC.sol\":602:632  Withdrawal(msg.sender, amount) */\n      mload(0x40)\n      tag_104\n      swap2\n      swap1\n      tag_35\n      jump\t// in\n    tag_104:\n      mload(0x40)\n      dup1\n      swap2\n      sub\n      swap1\n      log2\n        /* \"contracts/contract/WBNC.sol\":502:639  function withdraw(uint256 amount) public virtual {... */\n      pop\n      jump\t// out\n        /* \"contracts/contract/Token.sol\":1862:2001  function tokenURI(string memory _imageUri) public pure returns (string memory) {... */\n    tag_53:\n        /* \"contracts/contract/Token.sol\":1926:1939  string memory */\n      0x60\n        /* \"contracts/contract/Token.sol\":1972:1982  _baseURI() */\n      tag_106\n        /* \"contracts/contract/Token.sol\":1972:1980  _baseURI */\n      tag_107\n        /* \"contracts/contract/Token.sol\":1972:1982  _baseURI() */\n      jump\t// in\n    tag_106:\n        /* \"contracts/contract/Token.sol\":1984:1993  _imageUri */\n      dup3\n        /* \"contracts/contract/Token.sol\":1958:1994  string.concat(_baseURI(), _imageUri) */\n      add(0x20, mload(0x40))\n      tag_108\n      swap3\n      swap2\n      swap1\n      tag_109\n      jump\t// in\n    tag_108:\n      mload(0x40)\n      0x20\n      dup2\n      dup4\n      sub\n      sub\n      dup2\n      mstore\n      swap1\n      0x40\n      mstore\n        /* \"contracts/contract/Token.sol\":1951:1994  return string.concat(_baseURI(), _imageUri) */\n      swap1\n      pop\n        /* \"contracts/contract/Token.sol\":1862:2001  function tokenURI(string memory _imageUri) public pure returns (string memory) {... */\n      swap2\n      swap1\n      pop\n      jump\t// out\n        /* \"contracts/contract/Token.sol\":648:765  function _mint(address to, uint amount) public {... */\n    tag_57:\n        /* \"contracts/contract/Token.sol\":721:727  amount */\n      dup1\n        /* \"contracts/contract/Token.sol\":705:713  balances */\n      0x05\n        /* \"contracts/contract/Token.sol\":705:717  balances[to] */\n      0x00\n        /* \"contracts/contract/Token.sol\":714:716  to */\n      dup5\n        /* \"contracts/contract/Token.sol\":705:717  balances[to] */\n      0xffffffffffffffffffffffffffffffffffffffff\n      and\n      0xffffffffffffffffffffffffffffffffffffffff\n      and\n      dup2\n      mstore\n      0x20\n      add\n      swap1\n      dup2\n      mstore\n      0x20\n      add\n      0x00\n      keccak256\n      0x00\n        /* \"contracts/contract/Token.sol\":705:727  balances[to] += amount */\n      dup3\n      dup3\n      sload\n      tag_111\n      swap2\n      swap1\n      tag_101\n      jump\t// in\n    tag_111:\n      swap3\n      pop\n      pop\n      dup2\n      swap1\n      sstore\n      pop\n        /* \"contracts/contract/Token.sol\":752:758  amount */\n      dup1\n        /* \"contracts/contract/Token.sol\":737:748  totalSupply */\n      0x04\n      0x00\n        /* \"contracts/contract/Token.sol\":737:758  totalSupply += amount */\n      dup3\n      dup3\n      sload\n      tag_112\n      swap2\n      swap1\n      tag_101\n      jump\t// in\n    tag_112:\n      swap3\n      pop\n      pop\n      dup2\n      swap1\n      sstore\n      pop\n        /* \"contracts/contract/Token.sol\":648:765  function _mint(address to, uint amount) public {... */\n      pop\n      pop\n      jump\t// out\n        /* \"contracts/contract/Token.sol\":319:383  mapping (address => mapping (address => uint)) public allowances */\n    tag_61:\n      mstore(0x20, 0x06)\n      dup2\n      0x00\n      mstore\n      mstore(0x20, keccak256(0x00, 0x40))\n      dup1\n      0x00\n      mstore\n      keccak256(0x00, 0x40)\n      0x00\n      swap2\n      pop\n      swap2\n      pop\n      pop\n      sload\n      dup2\n      jump\t// out\n        /* \"contracts/contract/Token.sol\":792:915  function _burn(address owner, uint amount) public {... */\n    tag_65:\n        /* \"contracts/contract/Token.sol\":871:877  amount */\n      dup1\n        /* \"contracts/contract/Token.sol\":852:860  balances */\n      0x05\n        /* \"contracts/contract/Token.sol\":852:867  balances[owner] */\n      0x00\n        /* \"contracts/contract/Token.sol\":861:866  owner */\n      dup5\n        /* \"contracts/contract/Token.sol\":852:867  balances[owner] */\n      0xffffffffffffffffffffffffffffffffffffffff\n      and\n      0xffffffffffffffffffffffffffffffffffffffff\n      and\n      dup2\n      mstore\n      0x20\n      add\n      swap1\n      dup2\n      mstore\n      0x20\n      add\n      0x00\n      keccak256\n      0x00\n        /* \"contracts/contract/Token.sol\":852:877  balances[owner] -= amount */\n      dup3\n      dup3\n      sload\n      tag_114\n      swap2\n      swap1\n      tag_98\n      jump\t// in\n    tag_114:\n      swap3\n      pop\n      pop\n      dup2\n      swap1\n      sstore\n      pop\n        /* \"contracts/contract/Token.sol\":902:908  amount */\n      dup1\n        /* \"contracts/contract/Token.sol\":887:898  totalSupply */\n      0x04\n      0x00\n        /* \"contracts/contract/Token.sol\":887:908  totalSupply -= amount */\n      dup3\n      dup3\n      sload\n      tag_115\n      swap2\n      swap1\n      tag_98\n      jump\t// in\n    tag_115:\n      swap3\n      pop\n      pop\n      dup2\n      swap1\n      sstore\n      pop\n        /* \"contracts/contract/Token.sol\":792:915  function _burn(address owner, uint amount) public {... */\n      pop\n      pop\n      jump\t// out\n        /* \"contracts/contract/WBNC.sol\":347:496  function deposit(uint value, address userAddress) public virtual {... */\n    tag_69:\n        /* \"contracts/contract/WBNC.sol\":422:447  _mint(userAddress, value) */\n      tag_117\n        /* \"contracts/contract/WBNC.sol\":428:439  userAddress */\n      dup2\n        /* \"contracts/contract/WBNC.sol\":441:446  value */\n      dup4\n        /* \"contracts/contract/WBNC.sol\":422:427  _mint */\n      tag_57\n        /* \"contracts/contract/WBNC.sol\":422:447  _mint(userAddress, value) */\n      jump\t// in\n    tag_117:\n        /* \"contracts/contract/WBNC.sol\":471:481  msg.sender */\n      caller\n        /* \"contracts/contract/WBNC.sol\":463:489  Deposit(msg.sender, value) */\n      0xffffffffffffffffffffffffffffffffffffffff\n      and\n      0xe1fffcc4923d04b559f4d29a8bfc6cda04eb5b0d3c460751c2402c5c5cc9109c\n        /* \"contracts/contract/WBNC.sol\":483:488  value */\n      dup4\n        /* \"contracts/contract/WBNC.sol\":463:489  Deposit(msg.sender, value) */\n      mload(0x40)\n      tag_118\n      swap2\n      swap1\n      tag_35\n      jump\t// in\n    tag_118:\n      mload(0x40)\n      dup1\n      swap2\n      sub\n      swap1\n      log2\n        /* \"contracts/contract/WBNC.sol\":347:496  function deposit(uint value, address userAddress) public virtual {... */\n      pop\n      pop\n      jump\t// out\n        /* \"contracts/contract/Token.sol\":921:1028  function balanceOf(address account) public view returns (uint256) {... */\n    tag_72:\n        /* \"contracts/contract/Token.sol\":978:985  uint256 */\n      0x00\n        /* \"contracts/contract/Token.sol\":1004:1012  balances */\n      0x05\n        /* \"contracts/contract/Token.sol\":1004:1021  balances[account] */\n      0x00\n        /* \"contracts/contract/Token.sol\":1013:1020  account */\n      dup4\n        /* \"contracts/contract/Token.sol\":1004:1021  balances[account] */\n      0xffffffffffffffffffffffffffffffffffffffff\n      and\n      0xffffffffffffffffffffffffffffffffffffffff\n      and\n      dup2\n      mstore\n      0x20\n      add\n      swap1\n      dup2\n      mstore\n      0x20\n      add\n      0x00\n      keccak256\n      sload\n        /* \"contracts/contract/Token.sol\":997:1021  return balances[account] */\n      swap1\n      pop\n        /* \"contracts/contract/Token.sol\":921:1028  function balanceOf(address account) public view returns (uint256) {... */\n      swap2\n      swap1\n      pop\n      jump\t// out\n        /* \"contracts/contract/Token.sol\":159:179  string public symbol */\n    tag_75:\n      0x01\n      dup1\n      sload\n      tag_120\n      swap1\n      tag_89\n      jump\t// in\n    tag_120:\n      dup1\n      0x1f\n      add\n      0x20\n      dup1\n      swap2\n      div\n      mul\n      0x20\n      add\n      mload(0x40)\n      swap1\n      dup2\n      add\n      0x40\n      mstore\n      dup1\n      swap3\n      swap2\n      swap1\n      dup2\n      dup2\n      mstore\n      0x20\n      add\n      dup3\n      dup1\n      sload\n      tag_121\n      swap1\n      tag_89\n      jump\t// in\n    tag_121:\n      dup1\n      iszero\n      tag_122\n      jumpi\n      dup1\n      0x1f\n      lt\n      tag_123\n      jumpi\n      0x0100\n      dup1\n      dup4\n      sload\n      div\n      mul\n      dup4\n      mstore\n      swap2\n      0x20\n      add\n      swap2\n      jump(tag_122)\n    tag_123:\n      dup3\n      add\n      swap2\n      swap1\n      0x00\n      mstore\n      keccak256(0x00, 0x20)\n      swap1\n    tag_124:\n      dup2\n      sload\n      dup2\n      mstore\n      swap1\n      0x01\n      add\n      swap1\n      0x20\n      add\n      dup1\n      dup4\n      gt\n      tag_124\n      jumpi\n      dup3\n      swap1\n      sub\n      0x1f\n      and\n      dup3\n      add\n      swap2\n    tag_122:\n      pop\n      pop\n      pop\n      pop\n      pop\n      dup2\n      jump\t// out\n        /* \"contracts/contract/Token.sol\":1056:1221  function transfer(address to, uint amount) public returns (bool) {... */\n    tag_79:\n        /* \"contracts/contract/Token.sol\":1115:1119  bool */\n      0x00\n        /* \"contracts/contract/Token.sol\":1155:1161  amount */\n      dup2\n        /* \"contracts/contract/Token.sol\":1131:1139  balances */\n      0x05\n        /* \"contracts/contract/Token.sol\":1131:1151  balances[msg.sender] */\n      0x00\n        /* \"contracts/contract/Token.sol\":1140:1150  msg.sender */\n      caller\n        /* \"contracts/contract/Token.sol\":1131:1151  balances[msg.sender] */\n      0xffffffffffffffffffffffffffffffffffffffff\n      and\n      0xffffffffffffffffffffffffffffffffffffffff\n      and\n      dup2\n      mstore\n      0x20\n      add\n      swap1\n      dup2\n      mstore\n      0x20\n      add\n      0x00\n      keccak256\n      0x00\n        /* \"contracts/contract/Token.sol\":1131:1161  balances[msg.sender] -= amount */\n      dup3\n      dup3\n      sload\n      tag_126\n      swap2\n      swap1\n      tag_98\n      jump\t// in\n    tag_126:\n      swap3\n      pop\n      pop\n      dup2\n      swap1\n      sstore\n      pop\n        /* \"contracts/contract/Token.sol\":1187:1193  amount */\n      dup2\n        /* \"contracts/contract/Token.sol\":1171:1179  balances */\n      0x05\n        /* \"contracts/contract/Token.sol\":1171:1183  balances[to] */\n      0x00\n        /* \"contracts/contract/Token.sol\":1180:1182  to */\n      dup6\n        /* \"contracts/contract/Token.sol\":1171:1183  balances[to] */\n      0xffffffffffffffffffffffffffffffffffffffff\n      and\n      0xffffffffffffffffffffffffffffffffffffffff\n      and\n      dup2\n      mstore\n      0x20\n      add\n      swap1\n      dup2\n      mstore\n      0x20\n      add\n      0x00\n      keccak256\n      0x00\n        /* \"contracts/contract/Token.sol\":1171:1193  balances[to] += amount */\n      dup3\n      dup3\n      sload\n      tag_127\n      swap2\n      swap1\n      tag_101\n      jump\t// in\n    tag_127:\n      swap3\n      pop\n      pop\n      dup2\n      swap1\n      sstore\n      pop\n        /* \"contracts/contract/Token.sol\":1210:1214  true */\n      0x01\n        /* \"contracts/contract/Token.sol\":1203:1214  return true */\n      swap1\n      pop\n        /* \"contracts/contract/Token.sol\":1056:1221  function transfer(address to, uint amount) public returns (bool) {... */\n      swap3\n      swap2\n      pop\n      pop\n      jump\t// out\n        /* \"contracts/contract/Token.sol\":1724:1855  function allowance(address owner, address spender) public view returns (uint256) {... */\n    tag_83:\n        /* \"contracts/contract/Token.sol\":1796:1803  uint256 */\n      0x00\n        /* \"contracts/contract/Token.sol\":1822:1832  allowances */\n      0x06\n        /* \"contracts/contract/Token.sol\":1822:1839  allowances[owner] */\n      0x00\n        /* \"contracts/contract/Token.sol\":1833:1838  owner */\n      dup5\n        /* \"contracts/contract/Token.sol\":1822:1839  allowances[owner] */\n      0xffffffffffffffffffffffffffffffffffffffff\n      and\n      0xffffffffffffffffffffffffffffffffffffffff\n      and\n      dup2\n      mstore\n      0x20\n      add\n      swap1\n      dup2\n      mstore\n      0x20\n      add\n      0x00\n      keccak256\n        /* \"contracts/contract/Token.sol\":1822:1848  allowances[owner][spender] */\n      0x00\n        /* \"contracts/contract/Token.sol\":1840:1847  spender */\n      dup4\n        /* \"contracts/contract/Token.sol\":1822:1848  allowances[owner][spender] */\n      0xffffffffffffffffffffffffffffffffffffffff\n      and\n      0xffffffffffffffffffffffffffffffffffffffff\n      and\n      dup2\n      mstore\n      0x20\n      add\n      swap1\n      dup2\n      mstore\n      0x20\n      add\n      0x00\n      keccak256\n      sload\n        /* \"contracts/contract/Token.sol\":1815:1848  return allowances[owner][spender] */\n      swap1\n      pop\n        /* \"contracts/contract/Token.sol\":1724:1855  function allowance(address owner, address spender) public view returns (uint256) {... */\n      swap3\n      swap2\n      pop\n      pop\n      jump\t// out\n        /* \"contracts/contract/Token.sol\":185:202  string public uri */\n    tag_86:\n      0x02\n      dup1\n      sload\n      tag_129\n      swap1\n      tag_89\n      jump\t// in\n    tag_129:\n      dup1\n      0x1f\n      add\n      0x20\n      dup1\n      swap2\n      div\n      mul\n      0x20\n      add\n      mload(0x40)\n      swap1\n      dup2\n      add\n      0x40\n      mstore\n      dup1\n      swap3\n      swap2\n      swap1\n      dup2\n      dup2\n      mstore\n      0x20\n      add\n      dup3\n      dup1\n      sload\n      tag_130\n      swap1\n      tag_89\n      jump\t// in\n    tag_130:\n      dup1\n      iszero\n      tag_131\n      jumpi\n      dup1\n      0x1f\n      lt\n      tag_132\n      jumpi\n      0x0100\n      dup1\n      dup4\n      sload\n      div\n      mul\n      dup4\n      mstore\n      swap2\n      0x20\n      add\n      swap2\n      jump(tag_131)\n    tag_132:\n      dup3\n      add\n      swap2\n      swap1\n      0x00\n      mstore\n      keccak256(0x00, 0x20)\n      swap1\n    tag_133:\n      dup2\n      sload\n      dup2\n      mstore\n      swap1\n      0x01\n      add\n      swap1\n      0x20\n      add\n      dup1\n      dup4\n      gt\n      tag_133\n      jumpi\n      dup3\n      swap1\n      sub\n      0x1f\n      and\n      dup3\n      add\n      swap2\n    tag_131:\n      pop\n      pop\n      pop\n      pop\n      pop\n      dup2\n      jump\t// out\n        /* \"contracts/contract/Token.sol\":2006:2143  function _baseURI() internal pure returns (string memory) {... */\n    tag_107:\n        /* \"contracts/contract/Token.sol\":2049:2062  string memory */\n      0x60\n        /* \"contracts/contract/Token.sol\":2074:2136  return \"https://crimson-generous-ant-395.mypinata.cloud/ipfs/\" */\n      mload(0x40)\n      dup1\n      0x60\n      add\n      0x40\n      mstore\n      dup1\n      0x35\n      dup2\n      mstore\n      0x20\n      add\n      data_3b6e8117fccaa2ffdbe0263bbd25830af6ee105ec403750c70117311049eed76\n      0x35\n      swap2\n      codecopy\n      swap1\n      pop\n        /* \"contracts/contract/Token.sol\":2006:2143  function _baseURI() internal pure returns (string memory) {... */\n      swap1\n      jump\t// out\n        /* \"#utility.yul\":7:106   */\n    tag_135:\n        /* \"#utility.yul\":59:65   */\n      0x00\n        /* \"#utility.yul\":93:98   */\n      dup2\n        /* \"#utility.yul\":87:99   */\n      mload\n        /* \"#utility.yul\":77:99   */\n      swap1\n      pop\n        /* \"#utility.yul\":7:106   */\n      swap2\n      swap1\n      pop\n      jump\t// out\n        /* \"#utility.yul\":112:281   */\n    tag_136:\n        /* \"#utility.yul\":196:207   */\n      0x00\n        /* \"#utility.yul\":230:236   */\n      dup3\n        /* \"#utility.yul\":225:228   */\n      dup3\n        /* \"#utility.yul\":218:237   */\n      mstore\n        /* \"#utility.yul\":270:274   */\n      0x20\n        /* \"#utility.yul\":265:268   */\n      dup3\n        /* \"#utility.yul\":261:275   */\n      add\n        /* \"#utility.yul\":246:275   */\n      swap1\n      pop\n        /* \"#utility.yul\":112:281   */\n      swap3\n      swap2\n      pop\n      pop\n      jump\t// out\n        /* \"#utility.yul\":287:533   */\n    tag_137:\n        /* \"#utility.yul\":368:369   */\n      0x00\n        /* \"#utility.yul\":378:491   */\n    tag_170:\n        /* \"#utility.yul\":392:398   */\n      dup4\n        /* \"#utility.yul\":389:390   */\n      dup2\n        /* \"#utility.yul\":386:399   */\n      lt\n        /* \"#utility.yul\":378:491   */\n      iszero\n      tag_172\n      jumpi\n        /* \"#utility.yul\":477:478   */\n      dup1\n        /* \"#utility.yul\":472:475   */\n      dup3\n        /* \"#utility.yul\":468:479   */\n      add\n        /* \"#utility.yul\":462:480   */\n      mload\n        /* \"#utility.yul\":458:459   */\n      dup2\n        /* \"#utility.yul\":453:456   */\n      dup5\n        /* \"#utility.yul\":449:460   */\n      add\n        /* \"#utility.yul\":442:481   */\n      mstore\n        /* \"#utility.yul\":414:416   */\n      0x20\n        /* \"#utility.yul\":411:412   */\n      dup2\n        /* \"#utility.yul\":407:417   */\n      add\n        /* \"#utility.yul\":402:417   */\n      swap1\n      pop\n        /* \"#utility.yul\":378:491   */\n      jump(tag_170)\n    tag_172:\n        /* \"#utility.yul\":525:526   */\n      0x00\n        /* \"#utility.yul\":516:522   */\n      dup5\n        /* \"#utility.yul\":511:514   */\n      dup5\n        /* \"#utility.yul\":507:523   */\n      add\n        /* \"#utility.yul\":500:527   */\n      mstore\n        /* \"#utility.yul\":349:533   */\n      pop\n        /* \"#utility.yul\":287:533   */\n      pop\n      pop\n      pop\n      jump\t// out\n        /* \"#utility.yul\":539:641   */\n    tag_138:\n        /* \"#utility.yul\":580:586   */\n      0x00\n        /* \"#utility.yul\":631:633   */\n      0x1f\n        /* \"#utility.yul\":627:634   */\n      not\n        /* \"#utility.yul\":622:624   */\n      0x1f\n        /* \"#utility.yul\":615:620   */\n      dup4\n        /* \"#utility.yul\":611:625   */\n      add\n        /* \"#utility.yul\":607:635   */\n      and\n        /* \"#utility.yul\":597:635   */\n      swap1\n      pop\n        /* \"#utility.yul\":539:641   */\n      swap2\n      swap1\n      pop\n      jump\t// out\n        /* \"#utility.yul\":647:1024   */\n    tag_139:\n        /* \"#utility.yul\":735:738   */\n      0x00\n        /* \"#utility.yul\":763:802   */\n      tag_175\n        /* \"#utility.yul\":796:801   */\n      dup3\n        /* \"#utility.yul\":763:802   */\n      tag_135\n      jump\t// in\n    tag_175:\n        /* \"#utility.yul\":818:889   */\n      tag_176\n        /* \"#utility.yul\":882:888   */\n      dup2\n        /* \"#utility.yul\":877:880   */\n      dup6\n        /* \"#utility.yul\":818:889   */\n      tag_136\n      jump\t// in\n    tag_176:\n        /* \"#utility.yul\":811:889   */\n      swap4\n      pop\n        /* \"#utility.yul\":898:963   */\n      tag_177\n        /* \"#utility.yul\":956:962   */\n      dup2\n        /* \"#utility.yul\":951:954   */\n      dup6\n        /* \"#utility.yul\":944:948   */\n      0x20\n        /* \"#utility.yul\":937:942   */\n      dup7\n        /* \"#utility.yul\":933:949   */\n      add\n        /* \"#utility.yul\":898:963   */\n      tag_137\n      jump\t// in\n    tag_177:\n        /* \"#utility.yul\":988:1017   */\n      tag_178\n        /* \"#utility.yul\":1010:1016   */\n      dup2\n        /* \"#utility.yul\":988:1017   */\n      tag_138\n      jump\t// in\n    tag_178:\n        /* \"#utility.yul\":983:986   */\n      dup5\n        /* \"#utility.yul\":979:1018   */\n      add\n        /* \"#utility.yul\":972:1018   */\n      swap2\n      pop\n        /* \"#utility.yul\":739:1024   */\n      pop\n        /* \"#utility.yul\":647:1024   */\n      swap3\n      swap2\n      pop\n      pop\n      jump\t// out\n        /* \"#utility.yul\":1030:1343   */\n    tag_25:\n        /* \"#utility.yul\":1143:1147   */\n      0x00\n        /* \"#utility.yul\":1181:1183   */\n      0x20\n        /* \"#utility.yul\":1170:1179   */\n      dup3\n        /* \"#utility.yul\":1166:1184   */\n      add\n        /* \"#utility.yul\":1158:1184   */\n      swap1\n      pop\n        /* \"#utility.yul\":1230:1239   */\n      dup2\n        /* \"#utility.yul\":1224:1228   */\n      dup2\n        /* \"#utility.yul\":1220:1240   */\n      sub\n        /* \"#utility.yul\":1216:1217   */\n      0x00\n        /* \"#utility.yul\":1205:1214   */\n      dup4\n        /* \"#utility.yul\":1201:1218   */\n      add\n        /* \"#utility.yul\":1194:1241   */\n      mstore\n        /* \"#utility.yul\":1258:1336   */\n      tag_180\n        /* \"#utility.yul\":1331:1335   */\n      dup2\n        /* \"#utility.yul\":1322:1328   */\n      dup5\n        /* \"#utility.yul\":1258:1336   */\n      tag_139\n      jump\t// in\n    tag_180:\n        /* \"#utility.yul\":1250:1336   */\n      swap1\n      pop\n        /* \"#utility.yul\":1030:1343   */\n      swap3\n      swap2\n      pop\n      pop\n      jump\t// out\n        /* \"#utility.yul\":1349:1424   */\n    tag_140:\n        /* \"#utility.yul\":1382:1388   */\n      0x00\n        /* \"#utility.yul\":1415:1417   */\n      0x40\n        /* \"#utility.yul\":1409:1418   */\n      mload\n        /* \"#utility.yul\":1399:1418   */\n      swap1\n      pop\n        /* \"#utility.yul\":1349:1424   */\n      swap1\n      jump\t// out\n        /* \"#utility.yul\":1430:1547   */\n    tag_141:\n        /* \"#utility.yul\":1539:1540   */\n      0x00\n        /* \"#utility.yul\":1536:1537   */\n      dup1\n        /* \"#utility.yul\":1529:1541   */\n      revert\n        /* \"#utility.yul\":1553:1670   */\n    tag_142:\n        /* \"#utility.yul\":1662:1663   */\n      0x00\n        /* \"#utility.yul\":1659:1660   */\n      dup1\n        /* \"#utility.yul\":1652:1664   */\n      revert\n        /* \"#utility.yul\":1676:1802   */\n    tag_143:\n        /* \"#utility.yul\":1713:1720   */\n      0x00\n        /* \"#utility.yul\":1753:1795   */\n      0xffffffffffffffffffffffffffffffffffffffff\n        /* \"#utility.yul\":1746:1751   */\n      dup3\n        /* \"#utility.yul\":1742:1796   */\n      and\n        /* \"#utility.yul\":1731:1796   */\n      swap1\n      pop\n        /* \"#utility.yul\":1676:1802   */\n      swap2\n      swap1\n      pop\n      jump\t// out\n        /* \"#utility.yul\":1808:1904   */\n    tag_144:\n        /* \"#utility.yul\":1845:1852   */\n      0x00\n        /* \"#utility.yul\":1874:1898   */\n      tag_186\n        /* \"#utility.yul\":1892:1897   */\n      dup3\n        /* \"#utility.yul\":1874:1898   */\n      tag_143\n      jump\t// in\n    tag_186:\n        /* \"#utility.yul\":1863:1898   */\n      swap1\n      pop\n        /* \"#utility.yul\":1808:1904   */\n      swap2\n      swap1\n      pop\n      jump\t// out\n        /* \"#utility.yul\":1910:2032   */\n    tag_145:\n        /* \"#utility.yul\":1983:2007   */\n      tag_188\n        /* \"#utility.yul\":2001:2006   */\n      dup2\n        /* \"#utility.yul\":1983:2007   */\n      tag_144\n      jump\t// in\n    tag_188:\n        /* \"#utility.yul\":1976:1981   */\n      dup2\n        /* \"#utility.yul\":1973:2008   */\n      eq\n        /* \"#utility.yul\":1963:2026   */\n      tag_189\n      jumpi\n        /* \"#utility.yul\":2022:2023   */\n      0x00\n        /* \"#utility.yul\":2019:2020   */\n      dup1\n        /* \"#utility.yul\":2012:2024   */\n      revert\n        /* \"#utility.yul\":1963:2026   */\n    tag_189:\n        /* \"#utility.yul\":1910:2032   */\n      pop\n      jump\t// out\n        /* \"#utility.yul\":2038:2177   */\n    tag_146:\n        /* \"#utility.yul\":2084:2089   */\n      0x00\n        /* \"#utility.yul\":2122:2128   */\n      dup2\n        /* \"#utility.yul\":2109:2129   */\n      calldataload\n        /* \"#utility.yul\":2100:2129   */\n      swap1\n      pop\n        /* \"#utility.yul\":2138:2171   */\n      tag_191\n        /* \"#utility.yul\":2165:2170   */\n      dup2\n        /* \"#utility.yul\":2138:2171   */\n      tag_145\n      jump\t// in\n    tag_191:\n        /* \"#utility.yul\":2038:2177   */\n      swap3\n      swap2\n      pop\n      pop\n      jump\t// out\n        /* \"#utility.yul\":2183:2260   */\n    tag_147:\n        /* \"#utility.yul\":2220:2227   */\n      0x00\n        /* \"#utility.yul\":2249:2254   */\n      dup2\n        /* \"#utility.yul\":2238:2254   */\n      swap1\n      pop\n        /* \"#utility.yul\":2183:2260   */\n      swap2\n      swap1\n      pop\n      jump\t// out\n        /* \"#utility.yul\":2266:2388   */\n    tag_148:\n        /* \"#utility.yul\":2339:2363   */\n      tag_194\n        /* \"#utility.yul\":2357:2362   */\n      dup2\n        /* \"#utility.yul\":2339:2363   */\n      tag_147\n      jump\t// in\n    tag_194:\n        /* \"#utility.yul\":2332:2337   */\n      dup2\n        /* \"#utility.yul\":2329:2364   */\n      eq\n        /* \"#utility.yul\":2319:2382   */\n      tag_195\n      jumpi\n        /* \"#utility.yul\":2378:2379   */\n      0x00\n        /* \"#utility.yul\":2375:2376   */\n      dup1\n        /* \"#utility.yul\":2368:2380   */\n      revert\n        /* \"#utility.yul\":2319:2382   */\n    tag_195:\n        /* \"#utility.yul\":2266:2388   */\n      pop\n      jump\t// out\n        /* \"#utility.yul\":2394:2533   */\n    tag_149:\n        /* \"#utility.yul\":2440:2445   */\n      0x00\n        /* \"#utility.yul\":2478:2484   */\n      dup2\n        /* \"#utility.yul\":2465:2485   */\n      calldataload\n        /* \"#utility.yul\":2456:2485   */\n      swap1\n      pop\n        /* \"#utility.yul\":2494:2527   */\n      tag_197\n        /* \"#utility.yul\":2521:2526   */\n      dup2\n        /* \"#utility.yul\":2494:2527   */\n      tag_148\n      jump\t// in\n    tag_197:\n        /* \"#utility.yul\":2394:2533   */\n      swap3\n      swap2\n      pop\n      pop\n      jump\t// out\n        /* \"#utility.yul\":2539:3013   */\n    tag_28:\n        /* \"#utility.yul\":2607:2613   */\n      0x00\n        /* \"#utility.yul\":2615:2621   */\n      dup1\n        /* \"#utility.yul\":2664:2666   */\n      0x40\n        /* \"#utility.yul\":2652:2661   */\n      dup4\n        /* \"#utility.yul\":2643:2650   */\n      dup6\n        /* \"#utility.yul\":2639:2662   */\n      sub\n        /* \"#utility.yul\":2635:2667   */\n      slt\n        /* \"#utility.yul\":2632:2751   */\n      iszero\n      tag_199\n      jumpi\n        /* \"#utility.yul\":2670:2749   */\n      tag_200\n      tag_141\n      jump\t// in\n    tag_200:\n        /* \"#utility.yul\":2632:2751   */\n    tag_199:\n        /* \"#utility.yul\":2790:2791   */\n      0x00\n        /* \"#utility.yul\":2815:2868   */\n      tag_201\n        /* \"#utility.yul\":2860:2867   */\n      dup6\n        /* \"#utility.yul\":2851:2857   */\n      dup3\n        /* \"#utility.yul\":2840:2849   */\n      dup7\n        /* \"#utility.yul\":2836:2858   */\n      add\n        /* \"#utility.yul\":2815:2868   */\n      tag_146\n      jump\t// in\n    tag_201:\n        /* \"#utility.yul\":2805:2868   */\n      swap3\n      pop\n        /* \"#utility.yul\":2761:2878   */\n      pop\n        /* \"#utility.yul\":2917:2919   */\n      0x20\n        /* \"#utility.yul\":2943:2996   */\n      tag_202\n        /* \"#utility.yul\":2988:2995   */\n      dup6\n        /* \"#utility.yul\":2979:2985   */\n      dup3\n        /* \"#utility.yul\":2968:2977   */\n      dup7\n        /* \"#utility.yul\":2964:2986   */\n      add\n        /* \"#utility.yul\":2943:2996   */\n      tag_149\n      jump\t// in\n    tag_202:\n        /* \"#utility.yul\":2933:2996   */\n      swap2\n      pop\n        /* \"#utility.yul\":2888:3006   */\n      pop\n        /* \"#utility.yul\":2539:3013   */\n      swap3\n      pop\n      swap3\n      swap1\n      pop\n      jump\t// out\n        /* \"#utility.yul\":3019:3109   */\n    tag_150:\n        /* \"#utility.yul\":3053:3060   */\n      0x00\n        /* \"#utility.yul\":3096:3101   */\n      dup2\n        /* \"#utility.yul\":3089:3102   */\n      iszero\n        /* \"#utility.yul\":3082:3103   */\n      iszero\n        /* \"#utility.yul\":3071:3103   */\n      swap1\n      pop\n        /* \"#utility.yul\":3019:3109   */\n      swap2\n      swap1\n      pop\n      jump\t// out\n        /* \"#utility.yul\":3115:3224   */\n    tag_151:\n        /* \"#utility.yul\":3196:3217   */\n      tag_205\n        /* \"#utility.yul\":3211:3216   */\n      dup2\n        /* \"#utility.yul\":3196:3217   */\n      tag_150\n      jump\t// in\n    tag_205:\n        /* \"#utility.yul\":3191:3194   */\n      dup3\n        /* \"#utility.yul\":3184:3218   */\n      mstore\n        /* \"#utility.yul\":3115:3224   */\n      pop\n      pop\n      jump\t// out\n        /* \"#utility.yul\":3230:3440   */\n    tag_31:\n        /* \"#utility.yul\":3317:3321   */\n      0x00\n        /* \"#utility.yul\":3355:3357   */\n      0x20\n        /* \"#utility.yul\":3344:3353   */\n      dup3\n        /* \"#utility.yul\":3340:3358   */\n      add\n        /* \"#utility.yul\":3332:3358   */\n      swap1\n      pop\n        /* \"#utility.yul\":3368:3433   */\n      tag_207\n        /* \"#utility.yul\":3430:3431   */\n      0x00\n        /* \"#utility.yul\":3419:3428   */\n      dup4\n        /* \"#utility.yul\":3415:3432   */\n      add\n        /* \"#utility.yul\":3406:3412   */\n      dup5\n        /* \"#utility.yul\":3368:3433   */\n      tag_151\n      jump\t// in\n    tag_207:\n        /* \"#utility.yul\":3230:3440   */\n      swap3\n      swap2\n      pop\n      pop\n      jump\t// out\n        /* \"#utility.yul\":3446:3564   */\n    tag_152:\n        /* \"#utility.yul\":3533:3557   */\n      tag_209\n        /* \"#utility.yul\":3551:3556   */\n      dup2\n        /* \"#utility.yul\":3533:3557   */\n      tag_147\n      jump\t// in\n    tag_209:\n        /* \"#utility.yul\":3528:3531   */\n      dup3\n        /* \"#utility.yul\":3521:3558   */\n      mstore\n        /* \"#utility.yul\":3446:3564   */\n      pop\n      pop\n      jump\t// out\n        /* \"#utility.yul\":3570:3792   */\n    tag_35:\n        /* \"#utility.yul\":3663:3667   */\n      0x00\n        /* \"#utility.yul\":3701:3703   */\n      0x20\n        /* \"#utility.yul\":3690:3699   */\n      dup3\n        /* \"#utility.yul\":3686:3704   */\n      add\n        /* \"#utility.yul\":3678:3704   */\n      swap1\n      pop\n        /* \"#utility.yul\":3714:3785   */\n      tag_211\n        /* \"#utility.yul\":3782:3783   */\n      0x00\n        /* \"#utility.yul\":3771:3780   */\n      dup4\n        /* \"#utility.yul\":3767:3784   */\n      add\n        /* \"#utility.yul\":3758:3764   */\n      dup5\n        /* \"#utility.yul\":3714:3785   */\n      tag_152\n      jump\t// in\n    tag_211:\n        /* \"#utility.yul\":3570:3792   */\n      swap3\n      swap2\n      pop\n      pop\n      jump\t// out\n        /* \"#utility.yul\":3798:4417   */\n    tag_38:\n        /* \"#utility.yul\":3875:3881   */\n      0x00\n        /* \"#utility.yul\":3883:3889   */\n      dup1\n        /* \"#utility.yul\":3891:3897   */\n      0x00\n        /* \"#utility.yul\":3940:3942   */\n      0x60\n        /* \"#utility.yul\":3928:3937   */\n      dup5\n        /* \"#utility.yul\":3919:3926   */\n      dup7\n        /* \"#utility.yul\":3915:3938   */\n      sub\n        /* \"#utility.yul\":3911:3943   */\n      slt\n        /* \"#utility.yul\":3908:4027   */\n      iszero\n      tag_213\n      jumpi\n        /* \"#utility.yul\":3946:4025   */\n      tag_214\n      tag_141\n      jump\t// in\n    tag_214:\n        /* \"#utility.yul\":3908:4027   */\n    tag_213:\n        /* \"#utility.yul\":4066:4067   */\n      0x00\n        /* \"#utility.yul\":4091:4144   */\n      tag_215\n        /* \"#utility.yul\":4136:4143   */\n      dup7\n        /* \"#utility.yul\":4127:4133   */\n      dup3\n        /* \"#utility.yul\":4116:4125   */\n      dup8\n        /* \"#utility.yul\":4112:4134   */\n      add\n        /* \"#utility.yul\":4091:4144   */\n      tag_146\n      jump\t// in\n    tag_215:\n        /* \"#utility.yul\":4081:4144   */\n      swap4\n      pop\n        /* \"#utility.yul\":4037:4154   */\n      pop\n        /* \"#utility.yul\":4193:4195   */\n      0x20\n        /* \"#utility.yul\":4219:4272   */\n      tag_216\n        /* \"#utility.yul\":4264:4271   */\n      dup7\n        /* \"#utility.yul\":4255:4261   */\n      dup3\n        /* \"#utility.yul\":4244:4253   */\n      dup8\n        /* \"#utility.yul\":4240:4262   */\n      add\n        /* \"#utility.yul\":4219:4272   */\n      tag_146\n      jump\t// in\n    tag_216:\n        /* \"#utility.yul\":4209:4272   */\n      swap3\n      pop\n        /* \"#utility.yul\":4164:4282   */\n      pop\n        /* \"#utility.yul\":4321:4323   */\n      0x40\n        /* \"#utility.yul\":4347:4400   */\n      tag_217\n        /* \"#utility.yul\":4392:4399   */\n      dup7\n        /* \"#utility.yul\":4383:4389   */\n      dup3\n        /* \"#utility.yul\":4372:4381   */\n      dup8\n        /* \"#utility.yul\":4368:4390   */\n      add\n        /* \"#utility.yul\":4347:4400   */\n      tag_149\n      jump\t// in\n    tag_217:\n        /* \"#utility.yul\":4337:4400   */\n      swap2\n      pop\n        /* \"#utility.yul\":4292:4410   */\n      pop\n        /* \"#utility.yul\":3798:4417   */\n      swap3\n      pop\n      swap3\n      pop\n      swap3\n      jump\t// out\n        /* \"#utility.yul\":4423:4752   */\n    tag_43:\n        /* \"#utility.yul\":4482:4488   */\n      0x00\n        /* \"#utility.yul\":4531:4533   */\n      0x20\n        /* \"#utility.yul\":4519:4528   */\n      dup3\n        /* \"#utility.yul\":4510:4517   */\n      dup5\n        /* \"#utility.yul\":4506:4529   */\n      sub\n        /* \"#utility.yul\":4502:4534   */\n      slt\n        /* \"#utility.yul\":4499:4618   */\n      iszero\n      tag_219\n      jumpi\n        /* \"#utility.yul\":4537:4616   */\n      tag_220\n      tag_141\n      jump\t// in\n    tag_220:\n        /* \"#utility.yul\":4499:4618   */\n    tag_219:\n        /* \"#utility.yul\":4657:4658   */\n      0x00\n        /* \"#utility.yul\":4682:4735   */\n      tag_221\n        /* \"#utility.yul\":4727:4734   */\n      dup5\n        /* \"#utility.yul\":4718:4724   */\n      dup3\n        /* \"#utility.yul\":4707:4716   */\n      dup6\n        /* \"#utility.yul\":4703:4725   */\n      add\n        /* \"#utility.yul\":4682:4735   */\n      tag_146\n      jump\t// in\n    tag_221:\n        /* \"#utility.yul\":4672:4735   */\n      swap2\n      pop\n        /* \"#utility.yul\":4628:4745   */\n      pop\n        /* \"#utility.yul\":4423:4752   */\n      swap3\n      swap2\n      pop\n      pop\n      jump\t// out\n        /* \"#utility.yul\":4758:5087   */\n    tag_48:\n        /* \"#utility.yul\":4817:4823   */\n      0x00\n        /* \"#utility.yul\":4866:4868   */\n      0x20\n        /* \"#utility.yul\":4854:4863   */\n      dup3\n        /* \"#utility.yul\":4845:4852   */\n      dup5\n        /* \"#utility.yul\":4841:4864   */\n      sub\n        /* \"#utility.yul\":4837:4869   */\n      slt\n        /* \"#utility.yul\":4834:4953   */\n      iszero\n      tag_223\n      jumpi\n        /* \"#utility.yul\":4872:4951   */\n      tag_224\n      tag_141\n      jump\t// in\n    tag_224:\n        /* \"#utility.yul\":4834:4953   */\n    tag_223:\n        /* \"#utility.yul\":4992:4993   */\n      0x00\n        /* \"#utility.yul\":5017:5070   */\n      tag_225\n        /* \"#utility.yul\":5062:5069   */\n      dup5\n        /* \"#utility.yul\":5053:5059   */\n      dup3\n        /* \"#utility.yul\":5042:5051   */\n      dup6\n        /* \"#utility.yul\":5038:5060   */\n      add\n        /* \"#utility.yul\":5017:5070   */\n      tag_149\n      jump\t// in\n    tag_225:\n        /* \"#utility.yul\":5007:5070   */\n      swap2\n      pop\n        /* \"#utility.yul\":4963:5080   */\n      pop\n        /* \"#utility.yul\":4758:5087   */\n      swap3\n      swap2\n      pop\n      pop\n      jump\t// out\n        /* \"#utility.yul\":5093:5210   */\n    tag_153:\n        /* \"#utility.yul\":5202:5203   */\n      0x00\n        /* \"#utility.yul\":5199:5200   */\n      dup1\n        /* \"#utility.yul\":5192:5204   */\n      revert\n        /* \"#utility.yul\":5216:5333   */\n    tag_154:\n        /* \"#utility.yul\":5325:5326   */\n      0x00\n        /* \"#utility.yul\":5322:5323   */\n      dup1\n        /* \"#utility.yul\":5315:5327   */\n      revert\n        /* \"#utility.yul\":5339:5519   */\n    tag_155:\n        /* \"#utility.yul\":5387:5464   */\n      0x4e487b7100000000000000000000000000000000000000000000000000000000\n        /* \"#utility.yul\":5384:5385   */\n      0x00\n        /* \"#utility.yul\":5377:5465   */\n      mstore\n        /* \"#utility.yul\":5484:5488   */\n      0x41\n        /* \"#utility.yul\":5481:5482   */\n      0x04\n        /* \"#utility.yul\":5474:5489   */\n      mstore\n        /* \"#utility.yul\":5508:5512   */\n      0x24\n        /* \"#utility.yul\":5505:5506   */\n      0x00\n        /* \"#utility.yul\":5498:5513   */\n      revert\n        /* \"#utility.yul\":5525:5806   */\n    tag_156:\n        /* \"#utility.yul\":5608:5635   */\n      tag_230\n        /* \"#utility.yul\":5630:5634   */\n      dup3\n        /* \"#utility.yul\":5608:5635   */\n      tag_138\n      jump\t// in\n    tag_230:\n        /* \"#utility.yul\":5600:5606   */\n      dup2\n        /* \"#utility.yul\":5596:5636   */\n      add\n        /* \"#utility.yul\":5738:5744   */\n      dup2\n        /* \"#utility.yul\":5726:5736   */\n      dup2\n        /* \"#utility.yul\":5723:5745   */\n      lt\n        /* \"#utility.yul\":5702:5720   */\n      0xffffffffffffffff\n        /* \"#utility.yul\":5690:5700   */\n      dup3\n        /* \"#utility.yul\":5687:5721   */\n      gt\n        /* \"#utility.yul\":5684:5746   */\n      or\n        /* \"#utility.yul\":5681:5769   */\n      iszero\n      tag_231\n      jumpi\n        /* \"#utility.yul\":5749:5767   */\n      tag_232\n      tag_155\n      jump\t// in\n    tag_232:\n        /* \"#utility.yul\":5681:5769   */\n    tag_231:\n        /* \"#utility.yul\":5789:5799   */\n      dup1\n        /* \"#utility.yul\":5785:5787   */\n      0x40\n        /* \"#utility.yul\":5778:5800   */\n      mstore\n        /* \"#utility.yul\":5568:5806   */\n      pop\n        /* \"#utility.yul\":5525:5806   */\n      pop\n      pop\n      jump\t// out\n        /* \"#utility.yul\":5812:5941   */\n    tag_157:\n        /* \"#utility.yul\":5846:5852   */\n      0x00\n        /* \"#utility.yul\":5873:5893   */\n      tag_234\n      tag_140\n      jump\t// in\n    tag_234:\n        /* \"#utility.yul\":5863:5893   */\n      swap1\n      pop\n        /* \"#utility.yul\":5902:5935   */\n      tag_235\n        /* \"#utility.yul\":5930:5934   */\n      dup3\n        /* \"#utility.yul\":5922:5928   */\n      dup3\n        /* \"#utility.yul\":5902:5935   */\n      tag_156\n      jump\t// in\n    tag_235:\n        /* \"#utility.yul\":5812:5941   */\n      swap2\n      swap1\n      pop\n      jump\t// out\n        /* \"#utility.yul\":5947:6255   */\n    tag_158:\n        /* \"#utility.yul\":6009:6013   */\n      0x00\n        /* \"#utility.yul\":6099:6117   */\n      0xffffffffffffffff\n        /* \"#utility.yul\":6091:6097   */\n      dup3\n        /* \"#utility.yul\":6088:6118   */\n      gt\n        /* \"#utility.yul\":6085:6141   */\n      iszero\n      tag_237\n      jumpi\n        /* \"#utility.yul\":6121:6139   */\n      tag_238\n      tag_155\n      jump\t// in\n    tag_238:\n        /* \"#utility.yul\":6085:6141   */\n    tag_237:\n        /* \"#utility.yul\":6159:6188   */\n      tag_239\n        /* \"#utility.yul\":6181:6187   */\n      dup3\n        /* \"#utility.yul\":6159:6188   */\n      tag_138\n      jump\t// in\n    tag_239:\n        /* \"#utility.yul\":6151:6188   */\n      swap1\n      pop\n        /* \"#utility.yul\":6243:6247   */\n      0x20\n        /* \"#utility.yul\":6237:6241   */\n      dup2\n        /* \"#utility.yul\":6233:6248   */\n      add\n        /* \"#utility.yul\":6225:6248   */\n      swap1\n      pop\n        /* \"#utility.yul\":5947:6255   */\n      swap2\n      swap1\n      pop\n      jump\t// out\n        /* \"#utility.yul\":6261:6407   */\n    tag_159:\n        /* \"#utility.yul\":6358:6364   */\n      dup3\n        /* \"#utility.yul\":6353:6356   */\n      dup2\n        /* \"#utility.yul\":6348:6351   */\n      dup4\n        /* \"#utility.yul\":6335:6365   */\n      calldatacopy\n        /* \"#utility.yul\":6399:6400   */\n      0x00\n        /* \"#utility.yul\":6390:6396   */\n      dup4\n        /* \"#utility.yul\":6385:6388   */\n      dup4\n        /* \"#utility.yul\":6381:6397   */\n      add\n        /* \"#utility.yul\":6374:6401   */\n      mstore\n        /* \"#utility.yul\":6261:6407   */\n      pop\n      pop\n      pop\n      jump\t// out\n        /* \"#utility.yul\":6413:6838   */\n    tag_160:\n        /* \"#utility.yul\":6491:6496   */\n      0x00\n        /* \"#utility.yul\":6516:6582   */\n      tag_242\n        /* \"#utility.yul\":6532:6581   */\n      tag_243\n        /* \"#utility.yul\":6574:6580   */\n      dup5\n        /* \"#utility.yul\":6532:6581   */\n      tag_158\n      jump\t// in\n    tag_243:\n        /* \"#utility.yul\":6516:6582   */\n      tag_157\n      jump\t// in\n    tag_242:\n        /* \"#utility.yul\":6507:6582   */\n      swap1\n      pop\n        /* \"#utility.yul\":6605:6611   */\n      dup3\n        /* \"#utility.yul\":6598:6603   */\n      dup2\n        /* \"#utility.yul\":6591:6612   */\n      mstore\n        /* \"#utility.yul\":6643:6647   */\n      0x20\n        /* \"#utility.yul\":6636:6641   */\n      dup2\n        /* \"#utility.yul\":6632:6648   */\n      add\n        /* \"#utility.yul\":6681:6684   */\n      dup5\n        /* \"#utility.yul\":6672:6678   */\n      dup5\n        /* \"#utility.yul\":6667:6670   */\n      dup5\n        /* \"#utility.yul\":6663:6679   */\n      add\n        /* \"#utility.yul\":6660:6685   */\n      gt\n        /* \"#utility.yul\":6657:6769   */\n      iszero\n      tag_244\n      jumpi\n        /* \"#utility.yul\":6688:6767   */\n      tag_245\n      tag_154\n      jump\t// in\n    tag_245:\n        /* \"#utility.yul\":6657:6769   */\n    tag_244:\n        /* \"#utility.yul\":6778:6832   */\n      tag_246\n        /* \"#utility.yul\":6825:6831   */\n      dup5\n        /* \"#utility.yul\":6820:6823   */\n      dup3\n        /* \"#utility.yul\":6815:6818   */\n      dup6\n        /* \"#utility.yul\":6778:6832   */\n      tag_159\n      jump\t// in\n    tag_246:\n        /* \"#utility.yul\":6497:6838   */\n      pop\n        /* \"#utility.yul\":6413:6838   */\n      swap4\n      swap3\n      pop\n      pop\n      pop\n      jump\t// out\n        /* \"#utility.yul\":6858:7198   */\n    tag_161:\n        /* \"#utility.yul\":6914:6919   */\n      0x00\n        /* \"#utility.yul\":6963:6966   */\n      dup3\n        /* \"#utility.yul\":6956:6960   */\n      0x1f\n        /* \"#utility.yul\":6948:6954   */\n      dup4\n        /* \"#utility.yul\":6944:6961   */\n      add\n        /* \"#utility.yul\":6940:6967   */\n      slt\n        /* \"#utility.yul\":6930:7052   */\n      tag_248\n      jumpi\n        /* \"#utility.yul\":6971:7050   */\n      tag_249\n      tag_153\n      jump\t// in\n    tag_249:\n        /* \"#utility.yul\":6930:7052   */\n    tag_248:\n        /* \"#utility.yul\":7088:7094   */\n      dup2\n        /* \"#utility.yul\":7075:7095   */\n      calldataload\n        /* \"#utility.yul\":7113:7192   */\n      tag_250\n        /* \"#utility.yul\":7188:7191   */\n      dup5\n        /* \"#utility.yul\":7180:7186   */\n      dup3\n        /* \"#utility.yul\":7173:7177   */\n      0x20\n        /* \"#utility.yul\":7165:7171   */\n      dup7\n        /* \"#utility.yul\":7161:7178   */\n      add\n        /* \"#utility.yul\":7113:7192   */\n      tag_160\n      jump\t// in\n    tag_250:\n        /* \"#utility.yul\":7104:7192   */\n      swap2\n      pop\n        /* \"#utility.yul\":6920:7198   */\n      pop\n        /* \"#utility.yul\":6858:7198   */\n      swap3\n      swap2\n      pop\n      pop\n      jump\t// out\n        /* \"#utility.yul\":7204:7713   */\n    tag_52:\n        /* \"#utility.yul\":7273:7279   */\n      0x00\n        /* \"#utility.yul\":7322:7324   */\n      0x20\n        /* \"#utility.yul\":7310:7319   */\n      dup3\n        /* \"#utility.yul\":7301:7308   */\n      dup5\n        /* \"#utility.yul\":7297:7320   */\n      sub\n        /* \"#utility.yul\":7293:7325   */\n      slt\n        /* \"#utility.yul\":7290:7409   */\n      iszero\n      tag_252\n      jumpi\n        /* \"#utility.yul\":7328:7407   */\n      tag_253\n      tag_141\n      jump\t// in\n    tag_253:\n        /* \"#utility.yul\":7290:7409   */\n    tag_252:\n        /* \"#utility.yul\":7476:7477   */\n      0x00\n        /* \"#utility.yul\":7465:7474   */\n      dup3\n        /* \"#utility.yul\":7461:7478   */\n      add\n        /* \"#utility.yul\":7448:7479   */\n      calldataload\n        /* \"#utility.yul\":7506:7524   */\n      0xffffffffffffffff\n        /* \"#utility.yul\":7498:7504   */\n      dup2\n        /* \"#utility.yul\":7495:7525   */\n      gt\n        /* \"#utility.yul\":7492:7609   */\n      iszero\n      tag_254\n      jumpi\n        /* \"#utility.yul\":7528:7607   */\n      tag_255\n      tag_142\n      jump\t// in\n    tag_255:\n        /* \"#utility.yul\":7492:7609   */\n    tag_254:\n        /* \"#utility.yul\":7633:7696   */\n      tag_256\n        /* \"#utility.yul\":7688:7695   */\n      dup5\n        /* \"#utility.yul\":7679:7685   */\n      dup3\n        /* \"#utility.yul\":7668:7677   */\n      dup6\n        /* \"#utility.yul\":7664:7686   */\n      add\n        /* \"#utility.yul\":7633:7696   */\n      tag_161\n      jump\t// in\n    tag_256:\n        /* \"#utility.yul\":7623:7696   */\n      swap2\n      pop\n        /* \"#utility.yul\":7419:7706   */\n      pop\n        /* \"#utility.yul\":7204:7713   */\n      swap3\n      swap2\n      pop\n      pop\n      jump\t// out\n        /* \"#utility.yul\":7719:8193   */\n    tag_60:\n        /* \"#utility.yul\":7787:7793   */\n      0x00\n        /* \"#utility.yul\":7795:7801   */\n      dup1\n        /* \"#utility.yul\":7844:7846   */\n      0x40\n        /* \"#utility.yul\":7832:7841   */\n      dup4\n        /* \"#utility.yul\":7823:7830   */\n      dup6\n        /* \"#utility.yul\":7819:7842   */\n      sub\n        /* \"#utility.yul\":7815:7847   */\n      slt\n        /* \"#utility.yul\":7812:7931   */\n      iszero\n      tag_258\n      jumpi\n        /* \"#utility.yul\":7850:7929   */\n      tag_259\n      tag_141\n      jump\t// in\n    tag_259:\n        /* \"#utility.yul\":7812:7931   */\n    tag_258:\n        /* \"#utility.yul\":7970:7971   */\n      0x00\n        /* \"#utility.yul\":7995:8048   */\n      tag_260\n        /* \"#utility.yul\":8040:8047   */\n      dup6\n        /* \"#utility.yul\":8031:8037   */\n      dup3\n        /* \"#utility.yul\":8020:8029   */\n      dup7\n        /* \"#utility.yul\":8016:8038   */\n      add\n        /* \"#utility.yul\":7995:8048   */\n      tag_146\n      jump\t// in\n    tag_260:\n        /* \"#utility.yul\":7985:8048   */\n      swap3\n      pop\n        /* \"#utility.yul\":7941:8058   */\n      pop\n        /* \"#utility.yul\":8097:8099   */\n      0x20\n        /* \"#utility.yul\":8123:8176   */\n      tag_261\n        /* \"#utility.yul\":8168:8175   */\n      dup6\n        /* \"#utility.yul\":8159:8165   */\n      dup3\n        /* \"#utility.yul\":8148:8157   */\n      dup7\n        /* \"#utility.yul\":8144:8166   */\n      add\n        /* \"#utility.yul\":8123:8176   */\n      tag_146\n      jump\t// in\n    tag_261:\n        /* \"#utility.yul\":8113:8176   */\n      swap2\n      pop\n        /* \"#utility.yul\":8068:8186   */\n      pop\n        /* \"#utility.yul\":7719:8193   */\n      swap3\n      pop\n      swap3\n      swap1\n      pop\n      jump\t// out\n        /* \"#utility.yul\":8199:8673   */\n    tag_68:\n        /* \"#utility.yul\":8267:8273   */\n      0x00\n        /* \"#utility.yul\":8275:8281   */\n      dup1\n        /* \"#utility.yul\":8324:8326   */\n      0x40\n        /* \"#utility.yul\":8312:8321   */\n      dup4\n        /* \"#utility.yul\":8303:8310   */\n      dup6\n        /* \"#utility.yul\":8299:8322   */\n      sub\n        /* \"#utility.yul\":8295:8327   */\n      slt\n        /* \"#utility.yul\":8292:8411   */\n      iszero\n      tag_263\n      jumpi\n        /* \"#utility.yul\":8330:8409   */\n      tag_264\n      tag_141\n      jump\t// in\n    tag_264:\n        /* \"#utility.yul\":8292:8411   */\n    tag_263:\n        /* \"#utility.yul\":8450:8451   */\n      0x00\n        /* \"#utility.yul\":8475:8528   */\n      tag_265\n        /* \"#utility.yul\":8520:8527   */\n      dup6\n        /* \"#utility.yul\":8511:8517   */\n      dup3\n        /* \"#utility.yul\":8500:8509   */\n      dup7\n        /* \"#utility.yul\":8496:8518   */\n      add\n        /* \"#utility.yul\":8475:8528   */\n      tag_149\n      jump\t// in\n    tag_265:\n        /* \"#utility.yul\":8465:8528   */\n      swap3\n      pop\n        /* \"#utility.yul\":8421:8538   */\n      pop\n        /* \"#utility.yul\":8577:8579   */\n      0x20\n        /* \"#utility.yul\":8603:8656   */\n      tag_266\n        /* \"#utility.yul\":8648:8655   */\n      dup6\n        /* \"#utility.yul\":8639:8645   */\n      dup3\n        /* \"#utility.yul\":8628:8637   */\n      dup7\n        /* \"#utility.yul\":8624:8646   */\n      add\n        /* \"#utility.yul\":8603:8656   */\n      tag_146\n      jump\t// in\n    tag_266:\n        /* \"#utility.yul\":8593:8656   */\n      swap2\n      pop\n        /* \"#utility.yul\":8548:8666   */\n      pop\n        /* \"#utility.yul\":8199:8673   */\n      swap3\n      pop\n      swap3\n      swap1\n      pop\n      jump\t// out\n        /* \"#utility.yul\":8679:8859   */\n    tag_162:\n        /* \"#utility.yul\":8727:8804   */\n      0x4e487b7100000000000000000000000000000000000000000000000000000000\n        /* \"#utility.yul\":8724:8725   */\n      0x00\n        /* \"#utility.yul\":8717:8805   */\n      mstore\n        /* \"#utility.yul\":8824:8828   */\n      0x22\n        /* \"#utility.yul\":8821:8822   */\n      0x04\n        /* \"#utility.yul\":8814:8829   */\n      mstore\n        /* \"#utility.yul\":8848:8852   */\n      0x24\n        /* \"#utility.yul\":8845:8846   */\n      0x00\n        /* \"#utility.yul\":8838:8853   */\n      revert\n        /* \"#utility.yul\":8865:9185   */\n    tag_89:\n        /* \"#utility.yul\":8909:8915   */\n      0x00\n        /* \"#utility.yul\":8946:8947   */\n      0x02\n        /* \"#utility.yul\":8940:8944   */\n      dup3\n        /* \"#utility.yul\":8936:8948   */\n      div\n        /* \"#utility.yul\":8926:8948   */\n      swap1\n      pop\n        /* \"#utility.yul\":8993:8994   */\n      0x01\n        /* \"#utility.yul\":8987:8991   */\n      dup3\n        /* \"#utility.yul\":8983:8995   */\n      and\n        /* \"#utility.yul\":9014:9032   */\n      dup1\n        /* \"#utility.yul\":9004:9085   */\n      tag_269\n      jumpi\n        /* \"#utility.yul\":9070:9074   */\n      0x7f\n        /* \"#utility.yul\":9062:9068   */\n      dup3\n        /* \"#utility.yul\":9058:9075   */\n      and\n        /* \"#utility.yul\":9048:9075   */\n      swap2\n      pop\n        /* \"#utility.yul\":9004:9085   */\n    tag_269:\n        /* \"#utility.yul\":9132:9134   */\n      0x20\n        /* \"#utility.yul\":9124:9130   */\n      dup3\n        /* \"#utility.yul\":9121:9135   */\n      lt\n        /* \"#utility.yul\":9101:9119   */\n      dup2\n        /* \"#utility.yul\":9098:9136   */\n      sub\n        /* \"#utility.yul\":9095:9179   */\n      tag_270\n      jumpi\n        /* \"#utility.yul\":9151:9169   */\n      tag_271\n      tag_162\n      jump\t// in\n    tag_271:\n        /* \"#utility.yul\":9095:9179   */\n    tag_270:\n        /* \"#utility.yul\":8916:9185   */\n      pop\n        /* \"#utility.yul\":8865:9185   */\n      swap2\n      swap1\n      pop\n      jump\t// out\n        /* \"#utility.yul\":9191:9371   */\n    tag_163:\n        /* \"#utility.yul\":9239:9316   */\n      0x4e487b7100000000000000000000000000000000000000000000000000000000\n        /* \"#utility.yul\":9236:9237   */\n      0x00\n        /* \"#utility.yul\":9229:9317   */\n      mstore\n        /* \"#utility.yul\":9336:9340   */\n      0x11\n        /* \"#utility.yul\":9333:9334   */\n      0x04\n        /* \"#utility.yul\":9326:9341   */\n      mstore\n        /* \"#utility.yul\":9360:9364   */\n      0x24\n        /* \"#utility.yul\":9357:9358   */\n      0x00\n        /* \"#utility.yul\":9350:9365   */\n      revert\n        /* \"#utility.yul\":9377:9571   */\n    tag_98:\n        /* \"#utility.yul\":9417:9421   */\n      0x00\n        /* \"#utility.yul\":9437:9457   */\n      tag_274\n        /* \"#utility.yul\":9455:9456   */\n      dup3\n        /* \"#utility.yul\":9437:9457   */\n      tag_147\n      jump\t// in\n    tag_274:\n        /* \"#utility.yul\":9432:9457   */\n      swap2\n      pop\n        /* \"#utility.yul\":9471:9491   */\n      tag_275\n        /* \"#utility.yul\":9489:9490   */\n      dup4\n        /* \"#utility.yul\":9471:9491   */\n      tag_147\n      jump\t// in\n    tag_275:\n        /* \"#utility.yul\":9466:9491   */\n      swap3\n      pop\n        /* \"#utility.yul\":9515:9516   */\n      dup3\n        /* \"#utility.yul\":9512:9513   */\n      dup3\n        /* \"#utility.yul\":9508:9517   */\n      sub\n        /* \"#utility.yul\":9500:9517   */\n      swap1\n      pop\n        /* \"#utility.yul\":9539:9540   */\n      dup2\n        /* \"#utility.yul\":9533:9537   */\n      dup2\n        /* \"#utility.yul\":9530:9541   */\n      gt\n        /* \"#utility.yul\":9527:9564   */\n      iszero\n      tag_276\n      jumpi\n        /* \"#utility.yul\":9544:9562   */\n      tag_277\n      tag_163\n      jump\t// in\n    tag_277:\n        /* \"#utility.yul\":9527:9564   */\n    tag_276:\n        /* \"#utility.yul\":9377:9571   */\n      swap3\n      swap2\n      pop\n      pop\n      jump\t// out\n        /* \"#utility.yul\":9577:9768   */\n    tag_101:\n        /* \"#utility.yul\":9617:9620   */\n      0x00\n        /* \"#utility.yul\":9636:9656   */\n      tag_279\n        /* \"#utility.yul\":9654:9655   */\n      dup3\n        /* \"#utility.yul\":9636:9656   */\n      tag_147\n      jump\t// in\n    tag_279:\n        /* \"#utility.yul\":9631:9656   */\n      swap2\n      pop\n        /* \"#utility.yul\":9670:9690   */\n      tag_280\n        /* \"#utility.yul\":9688:9689   */\n      dup4\n        /* \"#utility.yul\":9670:9690   */\n      tag_147\n      jump\t// in\n    tag_280:\n        /* \"#utility.yul\":9665:9690   */\n      swap3\n      pop\n        /* \"#utility.yul\":9713:9714   */\n      dup3\n        /* \"#utility.yul\":9710:9711   */\n      dup3\n        /* \"#utility.yul\":9706:9715   */\n      add\n        /* \"#utility.yul\":9699:9715   */\n      swap1\n      pop\n        /* \"#utility.yul\":9734:9737   */\n      dup1\n        /* \"#utility.yul\":9731:9732   */\n      dup3\n        /* \"#utility.yul\":9728:9738   */\n      gt\n        /* \"#utility.yul\":9725:9761   */\n      iszero\n      tag_281\n      jumpi\n        /* \"#utility.yul\":9741:9759   */\n      tag_282\n      tag_163\n      jump\t// in\n    tag_282:\n        /* \"#utility.yul\":9725:9761   */\n    tag_281:\n        /* \"#utility.yul\":9577:9768   */\n      swap3\n      swap2\n      pop\n      pop\n      jump\t// out\n        /* \"#utility.yul\":9774:9922   */\n    tag_164:\n        /* \"#utility.yul\":9876:9887   */\n      0x00\n        /* \"#utility.yul\":9913:9916   */\n      dup2\n        /* \"#utility.yul\":9898:9916   */\n      swap1\n      pop\n        /* \"#utility.yul\":9774:9922   */\n      swap3\n      swap2\n      pop\n      pop\n      jump\t// out\n        /* \"#utility.yul\":9928:10318   */\n    tag_165:\n        /* \"#utility.yul\":10034:10037   */\n      0x00\n        /* \"#utility.yul\":10062:10101   */\n      tag_285\n        /* \"#utility.yul\":10095:10100   */\n      dup3\n        /* \"#utility.yul\":10062:10101   */\n      tag_135\n      jump\t// in\n    tag_285:\n        /* \"#utility.yul\":10117:10206   */\n      tag_286\n        /* \"#utility.yul\":10199:10205   */\n      dup2\n        /* \"#utility.yul\":10194:10197   */\n      dup6\n        /* \"#utility.yul\":10117:10206   */\n      tag_164\n      jump\t// in\n    tag_286:\n        /* \"#utility.yul\":10110:10206   */\n      swap4\n      pop\n        /* \"#utility.yul\":10215:10280   */\n      tag_287\n        /* \"#utility.yul\":10273:10279   */\n      dup2\n        /* \"#utility.yul\":10268:10271   */\n      dup6\n        /* \"#utility.yul\":10261:10265   */\n      0x20\n        /* \"#utility.yul\":10254:10259   */\n      dup7\n        /* \"#utility.yul\":10250:10266   */\n      add\n        /* \"#utility.yul\":10215:10280   */\n      tag_137\n      jump\t// in\n    tag_287:\n        /* \"#utility.yul\":10305:10311   */\n      dup1\n        /* \"#utility.yul\":10300:10303   */\n      dup5\n        /* \"#utility.yul\":10296:10312   */\n      add\n        /* \"#utility.yul\":10289:10312   */\n      swap2\n      pop\n        /* \"#utility.yul\":10038:10318   */\n      pop\n        /* \"#utility.yul\":9928:10318   */\n      swap3\n      swap2\n      pop\n      pop\n      jump\t// out\n        /* \"#utility.yul\":10324:10759   */\n    tag_109:\n        /* \"#utility.yul\":10504:10507   */\n      0x00\n        /* \"#utility.yul\":10526:10621   */\n      tag_289\n        /* \"#utility.yul\":10617:10620   */\n      dup3\n        /* \"#utility.yul\":10608:10614   */\n      dup6\n        /* \"#utility.yul\":10526:10621   */\n      tag_165\n      jump\t// in\n    tag_289:\n        /* \"#utility.yul\":10519:10621   */\n      swap2\n      pop\n        /* \"#utility.yul\":10638:10733   */\n      tag_290\n        /* \"#utility.yul\":10729:10732   */\n      dup3\n        /* \"#utility.yul\":10720:10726   */\n      dup5\n        /* \"#utility.yul\":10638:10733   */\n      tag_165\n      jump\t// in\n    tag_290:\n        /* \"#utility.yul\":10631:10733   */\n      swap2\n      pop\n        /* \"#utility.yul\":10750:10753   */\n      dup2\n        /* \"#utility.yul\":10743:10753   */\n      swap1\n      pop\n        /* \"#utility.yul\":10324:10759   */\n      swap4\n      swap3\n      pop\n      pop\n      pop\n      jump\t// out\n    stop\n    data_3b6e8117fccaa2ffdbe0263bbd25830af6ee105ec403750c70117311049eed76 68747470733a2f2f6372696d736f6e2d67656e65726f75732d616e742d3339352e6d7970696e6174612e636c6f75642f697066732f\n\n    auxdata: 0xa2646970667358221220a609790a727b56b14638aa381131e1258b18568af670a5559ec26cb3fd5a17f864736f6c63430008140033\n}\n",
				"bytecode": {
					"linkReferences": {},
					"object": "6080604052601260035534801562000015575f80fd5b5060405162001b0338038062001b0383398181016040528101906200003b919062000315565b8282825f835f90816200004f919062000602565b50826001908162000061919062000602565b506200007382620000c060201b60201c565b6002908162000083919062000602565b50620000b333600354600a6200009a919062000863565b83620000a79190620008b3565b620000fc60201b60201c565b505050505050506200099e565b6060620000d26200016f60201b60201c565b82604051602001620000e69291906200093d565b6040516020818303038152906040529050919050565b8060055f8473ffffffffffffffffffffffffffffffffffffffff1673ffffffffffffffffffffffffffffffffffffffff1681526020019081526020015f205f8282546200014a919062000964565b925050819055508060045f82825462000164919062000964565b925050819055505050565b606060405180606001604052806035815260200162001ace60359139905090565b5f604051905090565b5f80fd5b5f80fd5b5f80fd5b5f80fd5b5f601f19601f8301169050919050565b7f4e487b71000000000000000000000000000000000000000000000000000000005f52604160045260245ffd5b620001f182620001a9565b810181811067ffffffffffffffff82111715620002135762000212620001b9565b5b80604052505050565b5f6200022762000190565b9050620002358282620001e6565b919050565b5f67ffffffffffffffff821115620002575762000256620001b9565b5b6200026282620001a9565b9050602081019050919050565b5f5b838110156200028e57808201518184015260208101905062000271565b5f8484015250505050565b5f620002af620002a9846200023a565b6200021c565b905082815260208101848484011115620002ce57620002cd620001a5565b5b620002db8482856200026f565b509392505050565b5f82601f830112620002fa57620002f9620001a1565b5b81516200030c84826020860162000299565b91505092915050565b5f805f606084860312156200032f576200032e62000199565b5b5f84015167ffffffffffffffff8111156200034f576200034e6200019d565b5b6200035d86828701620002e3565b935050602084015167ffffffffffffffff8111156200038157620003806200019d565b5b6200038f86828701620002e3565b925050604084015167ffffffffffffffff811115620003b357620003b26200019d565b5b620003c186828701620002e3565b9150509250925092565b5f81519050919050565b7f4e487b71000000000000000000000000000000000000000000000000000000005f52602260045260245ffd5b5f60028204905060018216806200041a57607f821691505b60208210810362000430576200042f620003d5565b5b50919050565b5f819050815f5260205f209050919050565b5f6020601f8301049050919050565b5f82821b905092915050565b5f60088302620004947fffffffffffffffffffffffffffffffffffffffffffffffffffffffffffffffff8262000457565b620004a0868362000457565b95508019841693508086168417925050509392505050565b5f819050919050565b5f819050919050565b5f620004ea620004e4620004de84620004b8565b620004c1565b620004b8565b9050919050565b5f819050919050565b6200050583620004ca565b6200051d6200051482620004f1565b84845462000463565b825550505050565b5f90565b6200053362000525565b62000540818484620004fa565b505050565b5b8181101562000567576200055b5f8262000529565b60018101905062000546565b5050565b601f821115620005b657620005808162000436565b6200058b8462000448565b810160208510156200059b578190505b620005b3620005aa8562000448565b83018262000545565b50505b505050565b5f82821c905092915050565b5f620005d85f1984600802620005bb565b1980831691505092915050565b5f620005f28383620005c7565b9150826002028217905092915050565b6200060d82620003cb565b67ffffffffffffffff811115620006295762000628620001b9565b5b62000635825462000402565b620006428282856200056b565b5f60209050601f83116001811462000678575f841562000663578287015190505b6200066f8582620005e5565b865550620006de565b601f198416620006888662000436565b5f5b82811015620006b1578489015182556001820191506020850194506020810190506200068a565b86831015620006d15784890151620006cd601f891682620005c7565b8355505b6001600288020188555050505b505050505050565b7f4e487b71000000000000000000000000000000000000000000000000000000005f52601160045260245ffd5b5f8160011c9050919050565b5f808291508390505b60018511156200077057808604811115620007485762000747620006e6565b5b6001851615620007585780820291505b8081029050620007688562000713565b945062000728565b94509492505050565b5f826200078a57600190506200085c565b8162000799575f90506200085c565b8160018114620007b25760028114620007bd57620007f3565b60019150506200085c565b60ff841115620007d257620007d1620006e6565b5b8360020a915084821115620007ec57620007eb620006e6565b5b506200085c565b5060208310610133831016604e8410600b84101617156200082d5782820a905083811115620008275762000826620006e6565b5b6200085c565b6200083c84848460016200071f565b92509050818404811115620008565762000855620006e6565b5b81810290505b9392505050565b5f6200086f82620004b8565b91506200087c83620004b8565b9250620008ab7fffffffffffffffffffffffffffffffffffffffffffffffffffffffffffffffff848462000779565b905092915050565b5f620008bf82620004b8565b9150620008cc83620004b8565b9250828202620008dc81620004b8565b91508282048414831517620008f657620008f5620006e6565b5b5092915050565b5f81905092915050565b5f6200091382620003cb565b6200091f8185620008fd565b9350620009318185602086016200026f565b80840191505092915050565b5f6200094a828562000907565b915062000958828462000907565b91508190509392505050565b5f6200097082620004b8565b91506200097d83620004b8565b9250828201905080821115620009985762000997620006e6565b5b92915050565b61112280620009ac5f395ff3fe608060405234801561000f575f80fd5b50600436106100fe575f3560e01c806355b6ed5c1161009557806395d89b411161006457806395d89b41146102ce578063a9059cbb146102ec578063dd62ed3e1461031c578063eac989f81461034c576100fe565b806355b6ed5c146102365780636161eb18146102665780636e553f651461028257806370a082311461029e576100fe565b806327e235e3116100d157806327e235e31461019e5780632e1a7d4d146101ce5780634cf12d26146101ea5780634e6ec2471461021a576100fe565b806306fdde0314610102578063095ea7b31461012057806318160ddd1461015057806323b872dd1461016e575b5f80fd5b61010a61036a565b6040516101179190610b7e565b60405180910390f35b61013a60048036038101906101359190610c3c565b6103f5565b6040516101479190610c94565b60405180910390f35b61015861047d565b6040516101659190610cbc565b60405180910390f35b61018860048036038101906101839190610cd5565b610483565b6040516101959190610c94565b60405180910390f35b6101b860048036038101906101b39190610d25565b610647565b6040516101c59190610cbc565b60405180910390f35b6101e860048036038101906101e39190610d50565b61065c565b005b61020460048036038101906101ff9190610ea7565b6106b7565b6040516102119190610b7e565b60405180910390f35b610234600480360381019061022f9190610c3c565b6106e9565b005b610250600480360381019061024b9190610eee565b610758565b60405161025d9190610cbc565b60405180910390f35b610280600480360381019061027b9190610c3c565b610778565b005b61029c60048036038101906102979190610f2c565b6107e7565b005b6102b860048036038101906102b39190610d25565b610843565b6040516102c59190610cbc565b60405180910390f35b6102d6610889565b6040516102e39190610b7e565b60405180910390f35b61030660048036038101906103019190610c3c565b610915565b6040516103139190610c94565b60405180910390f35b61033660048036038101906103319190610eee565b6109c6565b6040516103439190610cbc565b60405180910390f35b610354610a48565b6040516103619190610b7e565b60405180910390f35b5f805461037690610f97565b80601f01602080910402602001604051908101604052809291908181526020018280546103a290610f97565b80156103ed5780601f106103c4576101008083540402835291602001916103ed565b820191905f5260205f20905b8154815290600101906020018083116103d057829003601f168201915b505050505081565b5f8160065f3373ffffffffffffffffffffffffffffffffffffffff1673ffffffffffffffffffffffffffffffffffffffff1681526020019081526020015f205f8573ffffffffffffffffffffffffffffffffffffffff1673ffffffffffffffffffffffffffffffffffffffff1681526020019081526020015f20819055506001905092915050565b60045481565b5f8160065f8673ffffffffffffffffffffffffffffffffffffffff1673ffffffffffffffffffffffffffffffffffffffff1681526020019081526020015f205f3373ffffffffffffffffffffffffffffffffffffffff1673ffffffffffffffffffffffffffffffffffffffff1681526020019081526020015f20541015610508575f80fd5b8160065f8673ffffffffffffffffffffffffffffffffffffffff1673ffffffffffffffffffffffffffffffffffffffff1681526020019081526020015f205f3373ffffffffffffffffffffffffffffffffffffffff1673ffffffffffffffffffffffffffffffffffffffff1681526020019081526020015f205f82825461058f9190610ff4565b925050819055508160055f8673ffffffffffffffffffffffffffffffffffffffff1673ffffffffffffffffffffffffffffffffffffffff1681526020019081526020015f205f8282546105e29190610ff4565b925050819055508160055f8573ffffffffffffffffffffffffffffffffffffffff1673ffffffffffffffffffffffffffffffffffffffff1681526020019081526020015f205f8282546106359190611027565b92505081905550600190509392505050565b6005602052805f5260405f205f915090505481565b6106663382610778565b3373ffffffffffffffffffffffffffffffffffffffff167f7fcf532c15f0a6db0bd6d0e038bea71d30d808c7d98cb3bf7268a95bf5081b65826040516106ac9190610cbc565b60405180910390a250565b60606106c1610ad4565b826040516020016106d3929190611094565b6040516020818303038152906040529050919050565b8060055f8473ffffffffffffffffffffffffffffffffffffffff1673ffffffffffffffffffffffffffffffffffffffff1681526020019081526020015f205f8282546107359190611027565b925050819055508060045f82825461074d9190611027565b925050819055505050565b6006602052815f5260405f20602052805f5260405f205f91509150505481565b8060055f8473ffffffffffffffffffffffffffffffffffffffff1673ffffffffffffffffffffffffffffffffffffffff1681526020019081526020015f205f8282546107c49190610ff4565b925050819055508060045f8282546107dc9190610ff4565b925050819055505050565b6107f181836106e9565b3373ffffffffffffffffffffffffffffffffffffffff167fe1fffcc4923d04b559f4d29a8bfc6cda04eb5b0d3c460751c2402c5c5cc9109c836040516108379190610cbc565b60405180910390a25050565b5f60055f8373ffffffffffffffffffffffffffffffffffffffff1673ffffffffffffffffffffffffffffffffffffffff1681526020019081526020015f20549050919050565b6001805461089690610f97565b80601f01602080910402602001604051908101604052809291908181526020018280546108c290610f97565b801561090d5780601f106108e45761010080835404028352916020019161090d565b820191905f5260205f20905b8154815290600101906020018083116108f057829003601f168201915b505050505081565b5f8160055f3373ffffffffffffffffffffffffffffffffffffffff1673ffffffffffffffffffffffffffffffffffffffff1681526020019081526020015f205f8282546109629190610ff4565b925050819055508160055f8573ffffffffffffffffffffffffffffffffffffffff1673ffffffffffffffffffffffffffffffffffffffff1681526020019081526020015f205f8282546109b59190611027565b925050819055506001905092915050565b5f60065f8473ffffffffffffffffffffffffffffffffffffffff1673ffffffffffffffffffffffffffffffffffffffff1681526020019081526020015f205f8373ffffffffffffffffffffffffffffffffffffffff1673ffffffffffffffffffffffffffffffffffffffff1681526020019081526020015f2054905092915050565b60028054610a5590610f97565b80601f0160208091040260200160405190810160405280929190818152602001828054610a8190610f97565b8015610acc5780601f10610aa357610100808354040283529160200191610acc565b820191905f5260205f20905b815481529060010190602001808311610aaf57829003601f168201915b505050505081565b60606040518060600160405280603581526020016110b860359139905090565b5f81519050919050565b5f82825260208201905092915050565b5f5b83811015610b2b578082015181840152602081019050610b10565b5f8484015250505050565b5f601f19601f8301169050919050565b5f610b5082610af4565b610b5a8185610afe565b9350610b6a818560208601610b0e565b610b7381610b36565b840191505092915050565b5f6020820190508181035f830152610b968184610b46565b905092915050565b5f604051905090565b5f80fd5b5f80fd5b5f73ffffffffffffffffffffffffffffffffffffffff82169050919050565b5f610bd882610baf565b9050919050565b610be881610bce565b8114610bf2575f80fd5b50565b5f81359050610c0381610bdf565b92915050565b5f819050919050565b610c1b81610c09565b8114610c25575f80fd5b50565b5f81359050610c3681610c12565b92915050565b5f8060408385031215610c5257610c51610ba7565b5b5f610c5f85828601610bf5565b9250506020610c7085828601610c28565b9150509250929050565b5f8115159050919050565b610c8e81610c7a565b82525050565b5f602082019050610ca75f830184610c85565b92915050565b610cb681610c09565b82525050565b5f602082019050610ccf5f830184610cad565b92915050565b5f805f60608486031215610cec57610ceb610ba7565b5b5f610cf986828701610bf5565b9350506020610d0a86828701610bf5565b9250506040610d1b86828701610c28565b9150509250925092565b5f60208284031215610d3a57610d39610ba7565b5b5f610d4784828501610bf5565b91505092915050565b5f60208284031215610d6557610d64610ba7565b5b5f610d7284828501610c28565b91505092915050565b5f80fd5b5f80fd5b7f4e487b71000000000000000000000000000000000000000000000000000000005f52604160045260245ffd5b610db982610b36565b810181811067ffffffffffffffff82111715610dd857610dd7610d83565b5b80604052505050565b5f610dea610b9e565b9050610df68282610db0565b919050565b5f67ffffffffffffffff821115610e1557610e14610d83565b5b610e1e82610b36565b9050602081019050919050565b828183375f83830152505050565b5f610e4b610e4684610dfb565b610de1565b905082815260208101848484011115610e6757610e66610d7f565b5b610e72848285610e2b565b509392505050565b5f82601f830112610e8e57610e8d610d7b565b5b8135610e9e848260208601610e39565b91505092915050565b5f60208284031215610ebc57610ebb610ba7565b5b5f82013567ffffffffffffffff811115610ed957610ed8610bab565b5b610ee584828501610e7a565b91505092915050565b5f8060408385031215610f0457610f03610ba7565b5b5f610f1185828601610bf5565b9250506020610f2285828601610bf5565b9150509250929050565b5f8060408385031215610f4257610f41610ba7565b5b5f610f4f85828601610c28565b9250506020610f6085828601610bf5565b9150509250929050565b7f4e487b71000000000000000000000000000000000000000000000000000000005f52602260045260245ffd5b5f6002820490506001821680610fae57607f821691505b602082108103610fc157610fc0610f6a565b5b50919050565b7f4e487b71000000000000000000000000000000000000000000000000000000005f52601160045260245ffd5b5f610ffe82610c09565b915061100983610c09565b925082820390508181111561102157611020610fc7565b5b92915050565b5f61103182610c09565b915061103c83610c09565b925082820190508082111561105457611053610fc7565b5b92915050565b5f81905092915050565b5f61106e82610af4565b611078818561105a565b9350611088818560208601610b0e565b80840191505092915050565b5f61109f8285611064565b91506110ab8284611064565b9150819050939250505056fe68747470733a2f2f6372696d736f6e2d67656e65726f75732d616e742d3339352e6d7970696e6174612e636c6f75642f697066732fa2646970667358221220a609790a727b56b14638aa381131e1258b18568af670a5559ec26cb3fd5a17f864736f6c6343000814003368747470733a2f2f6372696d736f6e2d67656e65726f75732d616e742d3339352e6d7970696e6174612e636c6f75642f697066732f",
					"opcodes": "PUSH1 0x80 PUSH1 0x40 MSTORE PUSH1 0x12 PUSH1 0x3 SSTORE CALLVALUE DUP1 ISZERO PUSH3 0x15 JUMPI PUSH0 DUP1 REVERT JUMPDEST POP PUSH1 0x40 MLOAD PUSH3 0x1B03 CODESIZE SUB DUP1 PUSH3 0x1B03 DUP4 CODECOPY DUP2 DUP2 ADD PUSH1 0x40 MSTORE DUP2 ADD SWAP1 PUSH3 0x3B SWAP2 SWAP1 PUSH3 0x315 JUMP JUMPDEST DUP3 DUP3 DUP3 PUSH0 DUP4 PUSH0 SWAP1 DUP2 PUSH3 0x4F SWAP2 SWAP1 PUSH3 0x602 JUMP JUMPDEST POP DUP3 PUSH1 0x1 SWAP1 DUP2 PUSH3 0x61 SWAP2 SWAP1 PUSH3 0x602 JUMP JUMPDEST POP PUSH3 0x73 DUP3 PUSH3 0xC0 PUSH1 0x20 SHL PUSH1 0x20 SHR JUMP JUMPDEST PUSH1 0x2 SWAP1 DUP2 PUSH3 0x83 SWAP2 SWAP1 PUSH3 0x602 JUMP JUMPDEST POP PUSH3 0xB3 CALLER PUSH1 0x3 SLOAD PUSH1 0xA PUSH3 0x9A SWAP2 SWAP1 PUSH3 0x863 JUMP JUMPDEST DUP4 PUSH3 0xA7 SWAP2 SWAP1 PUSH3 0x8B3 JUMP JUMPDEST PUSH3 0xFC PUSH1 0x20 SHL PUSH1 0x20 SHR JUMP JUMPDEST POP POP POP POP POP POP POP PUSH3 0x99E JUMP JUMPDEST PUSH1 0x60 PUSH3 0xD2 PUSH3 0x16F PUSH1 0x20 SHL PUSH1 0x20 SHR JUMP JUMPDEST DUP3 PUSH1 0x40 MLOAD PUSH1 0x20 ADD PUSH3 0xE6 SWAP3 SWAP2 SWAP1 PUSH3 0x93D JUMP JUMPDEST PUSH1 0x40 MLOAD PUSH1 0x20 DUP2 DUP4 SUB SUB DUP2 MSTORE SWAP1 PUSH1 0x40 MSTORE SWAP1 POP SWAP2 SWAP1 POP JUMP JUMPDEST DUP1 PUSH1 0x5 PUSH0 DUP5 PUSH20 0xFFFFFFFFFFFFFFFFFFFFFFFFFFFFFFFFFFFFFFFF AND PUSH20 0xFFFFFFFFFFFFFFFFFFFFFFFFFFFFFFFFFFFFFFFF AND DUP2 MSTORE PUSH1 0x20 ADD SWAP1 DUP2 MSTORE PUSH1 0x20 ADD PUSH0 KECCAK256 PUSH0 DUP3 DUP3 SLOAD PUSH3 0x14A SWAP2 SWAP1 PUSH3 0x964 JUMP JUMPDEST SWAP3 POP POP DUP2 SWAP1 SSTORE POP DUP1 PUSH1 0x4 PUSH0 DUP3 DUP3 SLOAD PUSH3 0x164 SWAP2 SWAP1 PUSH3 0x964 JUMP JUMPDEST SWAP3 POP POP DUP2 SWAP1 SSTORE POP POP POP JUMP JUMPDEST PUSH1 0x60 PUSH1 0x40 MLOAD DUP1 PUSH1 0x60 ADD PUSH1 0x40 MSTORE DUP1 PUSH1 0x35 DUP2 MSTORE PUSH1 0x20 ADD PUSH3 0x1ACE PUSH1 0x35 SWAP2 CODECOPY SWAP1 POP SWAP1 JUMP JUMPDEST PUSH0 PUSH1 0x40 MLOAD SWAP1 POP SWAP1 JUMP JUMPDEST PUSH0 DUP1 REVERT JUMPDEST PUSH0 DUP1 REVERT JUMPDEST PUSH0 DUP1 REVERT JUMPDEST PUSH0 DUP1 REVERT JUMPDEST PUSH0 PUSH1 0x1F NOT PUSH1 0x1F DUP4 ADD AND SWAP1 POP SWAP2 SWAP1 POP JUMP JUMPDEST PUSH32 0x4E487B7100000000000000000000000000000000000000000000000000000000 PUSH0 MSTORE PUSH1 0x41 PUSH1 0x4 MSTORE PUSH1 0x24 PUSH0 REVERT JUMPDEST PUSH3 0x1F1 DUP3 PUSH3 0x1A9 JUMP JUMPDEST DUP2 ADD DUP2 DUP2 LT PUSH8 0xFFFFFFFFFFFFFFFF DUP3 GT OR ISZERO PUSH3 0x213 JUMPI PUSH3 0x212 PUSH3 0x1B9 JUMP JUMPDEST JUMPDEST DUP1 PUSH1 0x40 MSTORE POP POP POP JUMP JUMPDEST PUSH0 PUSH3 0x227 PUSH3 0x190 JUMP JUMPDEST SWAP1 POP PUSH3 0x235 DUP3 DUP3 PUSH3 0x1E6 JUMP JUMPDEST SWAP2 SWAP1 POP JUMP JUMPDEST PUSH0 PUSH8 0xFFFFFFFFFFFFFFFF DUP3 GT ISZERO PUSH3 0x257 JUMPI PUSH3 0x256 PUSH3 0x1B9 JUMP JUMPDEST JUMPDEST PUSH3 0x262 DUP3 PUSH3 0x1A9 JUMP JUMPDEST SWAP1 POP PUSH1 0x20 DUP2 ADD SWAP1 POP SWAP2 SWAP1 POP JUMP JUMPDEST PUSH0 JUMPDEST DUP4 DUP2 LT ISZERO PUSH3 0x28E JUMPI DUP1 DUP3 ADD MLOAD DUP2 DUP5 ADD MSTORE PUSH1 0x20 DUP2 ADD SWAP1 POP PUSH3 0x271 JUMP JUMPDEST PUSH0 DUP5 DUP5 ADD MSTORE POP POP POP POP JUMP JUMPDEST PUSH0 PUSH3 0x2AF PUSH3 0x2A9 DUP5 PUSH3 0x23A JUMP JUMPDEST PUSH3 0x21C JUMP JUMPDEST SWAP1 POP DUP3 DUP2 MSTORE PUSH1 0x20 DUP2 ADD DUP5 DUP5 DUP5 ADD GT ISZERO PUSH3 0x2CE JUMPI PUSH3 0x2CD PUSH3 0x1A5 JUMP JUMPDEST JUMPDEST PUSH3 0x2DB DUP5 DUP3 DUP6 PUSH3 0x26F JUMP JUMPDEST POP SWAP4 SWAP3 POP POP POP JUMP JUMPDEST PUSH0 DUP3 PUSH1 0x1F DUP4 ADD SLT PUSH3 0x2FA JUMPI PUSH3 0x2F9 PUSH3 0x1A1 JUMP JUMPDEST JUMPDEST DUP2 MLOAD PUSH3 0x30C DUP5 DUP3 PUSH1 0x20 DUP7 ADD PUSH3 0x299 JUMP JUMPDEST SWAP2 POP POP SWAP3 SWAP2 POP POP JUMP JUMPDEST PUSH0 DUP1 PUSH0 PUSH1 0x60 DUP5 DUP7 SUB SLT ISZERO PUSH3 0x32F JUMPI PUSH3 0x32E PUSH3 0x199 JUMP JUMPDEST JUMPDEST PUSH0 DUP5 ADD MLOAD PUSH8 0xFFFFFFFFFFFFFFFF DUP2 GT ISZERO PUSH3 0x34F JUMPI PUSH3 0x34E PUSH3 0x19D JUMP JUMPDEST JUMPDEST PUSH3 0x35D DUP7 DUP3 DUP8 ADD PUSH3 0x2E3 JUMP JUMPDEST SWAP4 POP POP PUSH1 0x20 DUP5 ADD MLOAD PUSH8 0xFFFFFFFFFFFFFFFF DUP2 GT ISZERO PUSH3 0x381 JUMPI PUSH3 0x380 PUSH3 0x19D JUMP JUMPDEST JUMPDEST PUSH3 0x38F DUP7 DUP3 DUP8 ADD PUSH3 0x2E3 JUMP JUMPDEST SWAP3 POP POP PUSH1 0x40 DUP5 ADD MLOAD PUSH8 0xFFFFFFFFFFFFFFFF DUP2 GT ISZERO PUSH3 0x3B3 JUMPI PUSH3 0x3B2 PUSH3 0x19D JUMP JUMPDEST JUMPDEST PUSH3 0x3C1 DUP7 DUP3 DUP8 ADD PUSH3 0x2E3 JUMP JUMPDEST SWAP2 POP POP SWAP3 POP SWAP3 POP SWAP3 JUMP JUMPDEST PUSH0 DUP2 MLOAD SWAP1 POP SWAP2 SWAP1 POP JUMP JUMPDEST PUSH32 0x4E487B7100000000000000000000000000000000000000000000000000000000 PUSH0 MSTORE PUSH1 0x22 PUSH1 0x4 MSTORE PUSH1 0x24 PUSH0 REVERT JUMPDEST PUSH0 PUSH1 0x2 DUP3 DIV SWAP1 POP PUSH1 0x1 DUP3 AND DUP1 PUSH3 0x41A JUMPI PUSH1 0x7F DUP3 AND SWAP2 POP JUMPDEST PUSH1 0x20 DUP3 LT DUP2 SUB PUSH3 0x430 JUMPI PUSH3 0x42F PUSH3 0x3D5 JUMP JUMPDEST JUMPDEST POP SWAP2 SWAP1 POP JUMP JUMPDEST PUSH0 DUP2 SWAP1 POP DUP2 PUSH0 MSTORE PUSH1 0x20 PUSH0 KECCAK256 SWAP1 POP SWAP2 SWAP1 POP JUMP JUMPDEST PUSH0 PUSH1 0x20 PUSH1 0x1F DUP4 ADD DIV SWAP1 POP SWAP2 SWAP1 POP JUMP JUMPDEST PUSH0 DUP3 DUP3 SHL SWAP1 POP SWAP3 SWAP2 POP POP JUMP JUMPDEST PUSH0 PUSH1 0x8 DUP4 MUL PUSH3 0x494 PUSH32 0xFFFFFFFFFFFFFFFFFFFFFFFFFFFFFFFFFFFFFFFFFFFFFFFFFFFFFFFFFFFFFFFF DUP3 PUSH3 0x457 JUMP JUMPDEST PUSH3 0x4A0 DUP7 DUP4 PUSH3 0x457 JUMP JUMPDEST SWAP6 POP DUP1 NOT DUP5 AND SWAP4 POP DUP1 DUP7 AND DUP5 OR SWAP3 POP POP POP SWAP4 SWAP3 POP POP POP JUMP JUMPDEST PUSH0 DUP2 SWAP1 POP SWAP2 SWAP1 POP JUMP JUMPDEST PUSH0 DUP2 SWAP1 POP SWAP2 SWAP1 POP JUMP JUMPDEST PUSH0 PUSH3 0x4EA PUSH3 0x4E4 PUSH3 0x4DE DUP5 PUSH3 0x4B8 JUMP JUMPDEST PUSH3 0x4C1 JUMP JUMPDEST PUSH3 0x4B8 JUMP JUMPDEST SWAP1 POP SWAP2 SWAP1 POP JUMP JUMPDEST PUSH0 DUP2 SWAP1 POP SWAP2 SWAP1 POP JUMP JUMPDEST PUSH3 0x505 DUP4 PUSH3 0x4CA JUMP JUMPDEST PUSH3 0x51D PUSH3 0x514 DUP3 PUSH3 0x4F1 JUMP JUMPDEST DUP5 DUP5 SLOAD PUSH3 0x463 JUMP JUMPDEST DUP3 SSTORE POP POP POP POP JUMP JUMPDEST PUSH0 SWAP1 JUMP JUMPDEST PUSH3 0x533 PUSH3 0x525 JUMP JUMPDEST PUSH3 0x540 DUP2 DUP5 DUP5 PUSH3 0x4FA JUMP JUMPDEST POP POP POP JUMP JUMPDEST JUMPDEST DUP2 DUP2 LT ISZERO PUSH3 0x567 JUMPI PUSH3 0x55B PUSH0 DUP3 PUSH3 0x529 JUMP JUMPDEST PUSH1 0x1 DUP2 ADD SWAP1 POP PUSH3 0x546 JUMP JUMPDEST POP POP JUMP JUMPDEST PUSH1 0x1F DUP3 GT ISZERO PUSH3 0x5B6 JUMPI PUSH3 0x580 DUP2 PUSH3 0x436 JUMP JUMPDEST PUSH3 0x58B DUP5 PUSH3 0x448 JUMP JUMPDEST DUP2 ADD PUSH1 0x20 DUP6 LT ISZERO PUSH3 0x59B JUMPI DUP2 SWAP1 POP JUMPDEST PUSH3 0x5B3 PUSH3 0x5AA DUP6 PUSH3 0x448 JUMP JUMPDEST DUP4 ADD DUP3 PUSH3 0x545 JUMP JUMPDEST POP POP JUMPDEST POP POP POP JUMP JUMPDEST PUSH0 DUP3 DUP3 SHR SWAP1 POP SWAP3 SWAP2 POP POP JUMP JUMPDEST PUSH0 PUSH3 0x5D8 PUSH0 NOT DUP5 PUSH1 0x8 MUL PUSH3 0x5BB JUMP JUMPDEST NOT DUP1 DUP4 AND SWAP2 POP POP SWAP3 SWAP2 POP POP JUMP JUMPDEST PUSH0 PUSH3 0x5F2 DUP4 DUP4 PUSH3 0x5C7 JUMP JUMPDEST SWAP2 POP DUP3 PUSH1 0x2 MUL DUP3 OR SWAP1 POP SWAP3 SWAP2 POP POP JUMP JUMPDEST PUSH3 0x60D DUP3 PUSH3 0x3CB JUMP JUMPDEST PUSH8 0xFFFFFFFFFFFFFFFF DUP2 GT ISZERO PUSH3 0x629 JUMPI PUSH3 0x628 PUSH3 0x1B9 JUMP JUMPDEST JUMPDEST PUSH3 0x635 DUP3 SLOAD PUSH3 0x402 JUMP JUMPDEST PUSH3 0x642 DUP3 DUP3 DUP6 PUSH3 0x56B JUMP JUMPDEST PUSH0 PUSH1 0x20 SWAP1 POP PUSH1 0x1F DUP4 GT PUSH1 0x1 DUP2 EQ PUSH3 0x678 JUMPI PUSH0 DUP5 ISZERO PUSH3 0x663 JUMPI DUP3 DUP8 ADD MLOAD SWAP1 POP JUMPDEST PUSH3 0x66F DUP6 DUP3 PUSH3 0x5E5 JUMP JUMPDEST DUP7 SSTORE POP PUSH3 0x6DE JUMP JUMPDEST PUSH1 0x1F NOT DUP5 AND PUSH3 0x688 DUP7 PUSH3 0x436 JUMP JUMPDEST PUSH0 JUMPDEST DUP3 DUP2 LT ISZERO PUSH3 0x6B1 JUMPI DUP5 DUP10 ADD MLOAD DUP3 SSTORE PUSH1 0x1 DUP3 ADD SWAP2 POP PUSH1 0x20 DUP6 ADD SWAP5 POP PUSH1 0x20 DUP2 ADD SWAP1 POP PUSH3 0x68A JUMP JUMPDEST DUP7 DUP4 LT ISZERO PUSH3 0x6D1 JUMPI DUP5 DUP10 ADD MLOAD PUSH3 0x6CD PUSH1 0x1F DUP10 AND DUP3 PUSH3 0x5C7 JUMP JUMPDEST DUP4 SSTORE POP JUMPDEST PUSH1 0x1 PUSH1 0x2 DUP9 MUL ADD DUP9 SSTORE POP POP POP JUMPDEST POP POP POP POP POP POP JUMP JUMPDEST PUSH32 0x4E487B7100000000000000000000000000000000000000000000000000000000 PUSH0 MSTORE PUSH1 0x11 PUSH1 0x4 MSTORE PUSH1 0x24 PUSH0 REVERT JUMPDEST PUSH0 DUP2 PUSH1 0x1 SHR SWAP1 POP SWAP2 SWAP1 POP JUMP JUMPDEST PUSH0 DUP1 DUP3 SWAP2 POP DUP4 SWAP1 POP JUMPDEST PUSH1 0x1 DUP6 GT ISZERO PUSH3 0x770 JUMPI DUP1 DUP7 DIV DUP2 GT ISZERO PUSH3 0x748 JUMPI PUSH3 0x747 PUSH3 0x6E6 JUMP JUMPDEST JUMPDEST PUSH1 0x1 DUP6 AND ISZERO PUSH3 0x758 JUMPI DUP1 DUP3 MUL SWAP2 POP JUMPDEST DUP1 DUP2 MUL SWAP1 POP PUSH3 0x768 DUP6 PUSH3 0x713 JUMP JUMPDEST SWAP5 POP PUSH3 0x728 JUMP JUMPDEST SWAP5 POP SWAP5 SWAP3 POP POP POP JUMP JUMPDEST PUSH0 DUP3 PUSH3 0x78A JUMPI PUSH1 0x1 SWAP1 POP PUSH3 0x85C JUMP JUMPDEST DUP2 PUSH3 0x799 JUMPI PUSH0 SWAP1 POP PUSH3 0x85C JUMP JUMPDEST DUP2 PUSH1 0x1 DUP2 EQ PUSH3 0x7B2 JUMPI PUSH1 0x2 DUP2 EQ PUSH3 0x7BD JUMPI PUSH3 0x7F3 JUMP JUMPDEST PUSH1 0x1 SWAP2 POP POP PUSH3 0x85C JUMP JUMPDEST PUSH1 0xFF DUP5 GT ISZERO PUSH3 0x7D2 JUMPI PUSH3 0x7D1 PUSH3 0x6E6 JUMP JUMPDEST JUMPDEST DUP4 PUSH1 0x2 EXP SWAP2 POP DUP5 DUP3 GT ISZERO PUSH3 0x7EC JUMPI PUSH3 0x7EB PUSH3 0x6E6 JUMP JUMPDEST JUMPDEST POP PUSH3 0x85C JUMP JUMPDEST POP PUSH1 0x20 DUP4 LT PUSH2 0x133 DUP4 LT AND PUSH1 0x4E DUP5 LT PUSH1 0xB DUP5 LT AND OR ISZERO PUSH3 0x82D JUMPI DUP3 DUP3 EXP SWAP1 POP DUP4 DUP2 GT ISZERO PUSH3 0x827 JUMPI PUSH3 0x826 PUSH3 0x6E6 JUMP JUMPDEST JUMPDEST PUSH3 0x85C JUMP JUMPDEST PUSH3 0x83C DUP5 DUP5 DUP5 PUSH1 0x1 PUSH3 0x71F JUMP JUMPDEST SWAP3 POP SWAP1 POP DUP2 DUP5 DIV DUP2 GT ISZERO PUSH3 0x856 JUMPI PUSH3 0x855 PUSH3 0x6E6 JUMP JUMPDEST JUMPDEST DUP2 DUP2 MUL SWAP1 POP JUMPDEST SWAP4 SWAP3 POP POP POP JUMP JUMPDEST PUSH0 PUSH3 0x86F DUP3 PUSH3 0x4B8 JUMP JUMPDEST SWAP2 POP PUSH3 0x87C DUP4 PUSH3 0x4B8 JUMP JUMPDEST SWAP3 POP PUSH3 0x8AB PUSH32 0xFFFFFFFFFFFFFFFFFFFFFFFFFFFFFFFFFFFFFFFFFFFFFFFFFFFFFFFFFFFFFFFF DUP5 DUP5 PUSH3 0x779 JUMP JUMPDEST SWAP1 POP SWAP3 SWAP2 POP POP JUMP JUMPDEST PUSH0 PUSH3 0x8BF DUP3 PUSH3 0x4B8 JUMP JUMPDEST SWAP2 POP PUSH3 0x8CC DUP4 PUSH3 0x4B8 JUMP JUMPDEST SWAP3 POP DUP3 DUP3 MUL PUSH3 0x8DC DUP2 PUSH3 0x4B8 JUMP JUMPDEST SWAP2 POP DUP3 DUP3 DIV DUP5 EQ DUP4 ISZERO OR PUSH3 0x8F6 JUMPI PUSH3 0x8F5 PUSH3 0x6E6 JUMP JUMPDEST JUMPDEST POP SWAP3 SWAP2 POP POP JUMP JUMPDEST PUSH0 DUP2 SWAP1 POP SWAP3 SWAP2 POP POP JUMP JUMPDEST PUSH0 PUSH3 0x913 DUP3 PUSH3 0x3CB JUMP JUMPDEST PUSH3 0x91F DUP2 DUP6 PUSH3 0x8FD JUMP JUMPDEST SWAP4 POP PUSH3 0x931 DUP2 DUP6 PUSH1 0x20 DUP7 ADD PUSH3 0x26F JUMP JUMPDEST DUP1 DUP5 ADD SWAP2 POP POP SWAP3 SWAP2 POP POP JUMP JUMPDEST PUSH0 PUSH3 0x94A DUP3 DUP6 PUSH3 0x907 JUMP JUMPDEST SWAP2 POP PUSH3 0x958 DUP3 DUP5 PUSH3 0x907 JUMP JUMPDEST SWAP2 POP DUP2 SWAP1 POP SWAP4 SWAP3 POP POP POP JUMP JUMPDEST PUSH0 PUSH3 0x970 DUP3 PUSH3 0x4B8 JUMP JUMPDEST SWAP2 POP PUSH3 0x97D DUP4 PUSH3 0x4B8 JUMP JUMPDEST SWAP3 POP DUP3 DUP3 ADD SWAP1 POP DUP1 DUP3 GT ISZERO PUSH3 0x998 JUMPI PUSH3 0x997 PUSH3 0x6E6 JUMP JUMPDEST JUMPDEST SWAP3 SWAP2 POP POP JUMP JUMPDEST PUSH2 0x1122 DUP1 PUSH3 0x9AC PUSH0 CODECOPY PUSH0 RETURN INVALID PUSH1 0x80 PUSH1 0x40 MSTORE CALLVALUE DUP1 ISZERO PUSH2 0xF JUMPI PUSH0 DUP1 REVERT JUMPDEST POP PUSH1 0x4 CALLDATASIZE LT PUSH2 0xFE JUMPI PUSH0 CALLDATALOAD PUSH1 0xE0 SHR DUP1 PUSH4 0x55B6ED5C GT PUSH2 0x95 JUMPI DUP1 PUSH4 0x95D89B41 GT PUSH2 0x64 JUMPI DUP1 PUSH4 0x95D89B41 EQ PUSH2 0x2CE JUMPI DUP1 PUSH4 0xA9059CBB EQ PUSH2 0x2EC JUMPI DUP1 PUSH4 0xDD62ED3E EQ PUSH2 0x31C JUMPI DUP1 PUSH4 0xEAC989F8 EQ PUSH2 0x34C JUMPI PUSH2 0xFE JUMP JUMPDEST DUP1 PUSH4 0x55B6ED5C EQ PUSH2 0x236 JUMPI DUP1 PUSH4 0x6161EB18 EQ PUSH2 0x266 JUMPI DUP1 PUSH4 0x6E553F65 EQ PUSH2 0x282 JUMPI DUP1 PUSH4 0x70A08231 EQ PUSH2 0x29E JUMPI PUSH2 0xFE JUMP JUMPDEST DUP1 PUSH4 0x27E235E3 GT PUSH2 0xD1 JUMPI DUP1 PUSH4 0x27E235E3 EQ PUSH2 0x19E JUMPI DUP1 PUSH4 0x2E1A7D4D EQ PUSH2 0x1CE JUMPI DUP1 PUSH4 0x4CF12D26 EQ PUSH2 0x1EA JUMPI DUP1 PUSH4 0x4E6EC247 EQ PUSH2 0x21A JUMPI PUSH2 0xFE JUMP JUMPDEST DUP1 PUSH4 0x6FDDE03 EQ PUSH2 0x102 JUMPI DUP1 PUSH4 0x95EA7B3 EQ PUSH2 0x120 JUMPI DUP1 PUSH4 0x18160DDD EQ PUSH2 0x150 JUMPI DUP1 PUSH4 0x23B872DD EQ PUSH2 0x16E JUMPI JUMPDEST PUSH0 DUP1 REVERT JUMPDEST PUSH2 0x10A PUSH2 0x36A JUMP JUMPDEST PUSH1 0x40 MLOAD PUSH2 0x117 SWAP2 SWAP1 PUSH2 0xB7E JUMP JUMPDEST PUSH1 0x40 MLOAD DUP1 SWAP2 SUB SWAP1 RETURN JUMPDEST PUSH2 0x13A PUSH1 0x4 DUP1 CALLDATASIZE SUB DUP2 ADD SWAP1 PUSH2 0x135 SWAP2 SWAP1 PUSH2 0xC3C JUMP JUMPDEST PUSH2 0x3F5 JUMP JUMPDEST PUSH1 0x40 MLOAD PUSH2 0x147 SWAP2 SWAP1 PUSH2 0xC94 JUMP JUMPDEST PUSH1 0x40 MLOAD DUP1 SWAP2 SUB SWAP1 RETURN JUMPDEST PUSH2 0x158 PUSH2 0x47D JUMP JUMPDEST PUSH1 0x40 MLOAD PUSH2 0x165 SWAP2 SWAP1 PUSH2 0xCBC JUMP JUMPDEST PUSH1 0x40 MLOAD DUP1 SWAP2 SUB SWAP1 RETURN JUMPDEST PUSH2 0x188 PUSH1 0x4 DUP1 CALLDATASIZE SUB DUP2 ADD SWAP1 PUSH2 0x183 SWAP2 SWAP1 PUSH2 0xCD5 JUMP JUMPDEST PUSH2 0x483 JUMP JUMPDEST PUSH1 0x40 MLOAD PUSH2 0x195 SWAP2 SWAP1 PUSH2 0xC94 JUMP JUMPDEST PUSH1 0x40 MLOAD DUP1 SWAP2 SUB SWAP1 RETURN JUMPDEST PUSH2 0x1B8 PUSH1 0x4 DUP1 CALLDATASIZE SUB DUP2 ADD SWAP1 PUSH2 0x1B3 SWAP2 SWAP1 PUSH2 0xD25 JUMP JUMPDEST PUSH2 0x647 JUMP JUMPDEST PUSH1 0x40 MLOAD PUSH2 0x1C5 SWAP2 SWAP1 PUSH2 0xCBC JUMP JUMPDEST PUSH1 0x40 MLOAD DUP1 SWAP2 SUB SWAP1 RETURN JUMPDEST PUSH2 0x1E8 PUSH1 0x4 DUP1 CALLDATASIZE SUB DUP2 ADD SWAP1 PUSH2 0x1E3 SWAP2 SWAP1 PUSH2 0xD50 JUMP JUMPDEST PUSH2 0x65C JUMP JUMPDEST STOP JUMPDEST PUSH2 0x204 PUSH1 0x4 DUP1 CALLDATASIZE SUB DUP2 ADD SWAP1 PUSH2 0x1FF SWAP2 SWAP1 PUSH2 0xEA7 JUMP JUMPDEST PUSH2 0x6B7 JUMP JUMPDEST PUSH1 0x40 MLOAD PUSH2 0x211 SWAP2 SWAP1 PUSH2 0xB7E JUMP JUMPDEST PUSH1 0x40 MLOAD DUP1 SWAP2 SUB SWAP1 RETURN JUMPDEST PUSH2 0x234 PUSH1 0x4 DUP1 CALLDATASIZE SUB DUP2 ADD SWAP1 PUSH2 0x22F SWAP2 SWAP1 PUSH2 0xC3C JUMP JUMPDEST PUSH2 0x6E9 JUMP JUMPDEST STOP JUMPDEST PUSH2 0x250 PUSH1 0x4 DUP1 CALLDATASIZE SUB DUP2 ADD SWAP1 PUSH2 0x24B SWAP2 SWAP1 PUSH2 0xEEE JUMP JUMPDEST PUSH2 0x758 JUMP JUMPDEST PUSH1 0x40 MLOAD PUSH2 0x25D SWAP2 SWAP1 PUSH2 0xCBC JUMP JUMPDEST PUSH1 0x40 MLOAD DUP1 SWAP2 SUB SWAP1 RETURN JUMPDEST PUSH2 0x280 PUSH1 0x4 DUP1 CALLDATASIZE SUB DUP2 ADD SWAP1 PUSH2 0x27B SWAP2 SWAP1 PUSH2 0xC3C JUMP JUMPDEST PUSH2 0x778 JUMP JUMPDEST STOP JUMPDEST PUSH2 0x29C PUSH1 0x4 DUP1 CALLDATASIZE SUB DUP2 ADD SWAP1 PUSH2 0x297 SWAP2 SWAP1 PUSH2 0xF2C JUMP JUMPDEST PUSH2 0x7E7 JUMP JUMPDEST STOP JUMPDEST PUSH2 0x2B8 PUSH1 0x4 DUP1 CALLDATASIZE SUB DUP2 ADD SWAP1 PUSH2 0x2B3 SWAP2 SWAP1 PUSH2 0xD25 JUMP JUMPDEST PUSH2 0x843 JUMP JUMPDEST PUSH1 0x40 MLOAD PUSH2 0x2C5 SWAP2 SWAP1 PUSH2 0xCBC JUMP JUMPDEST PUSH1 0x40 MLOAD DUP1 SWAP2 SUB SWAP1 RETURN JUMPDEST PUSH2 0x2D6 PUSH2 0x889 JUMP JUMPDEST PUSH1 0x40 MLOAD PUSH2 0x2E3 SWAP2 SWAP1 PUSH2 0xB7E JUMP JUMPDEST PUSH1 0x40 MLOAD DUP1 SWAP2 SUB SWAP1 RETURN JUMPDEST PUSH2 0x306 PUSH1 0x4 DUP1 CALLDATASIZE SUB DUP2 ADD SWAP1 PUSH2 0x301 SWAP2 SWAP1 PUSH2 0xC3C JUMP JUMPDEST PUSH2 0x915 JUMP JUMPDEST PUSH1 0x40 MLOAD PUSH2 0x313 SWAP2 SWAP1 PUSH2 0xC94 JUMP JUMPDEST PUSH1 0x40 MLOAD DUP1 SWAP2 SUB SWAP1 RETURN JUMPDEST PUSH2 0x336 PUSH1 0x4 DUP1 CALLDATASIZE SUB DUP2 ADD SWAP1 PUSH2 0x331 SWAP2 SWAP1 PUSH2 0xEEE JUMP JUMPDEST PUSH2 0x9C6 JUMP JUMPDEST PUSH1 0x40 MLOAD PUSH2 0x343 SWAP2 SWAP1 PUSH2 0xCBC JUMP JUMPDEST PUSH1 0x40 MLOAD DUP1 SWAP2 SUB SWAP1 RETURN JUMPDEST PUSH2 0x354 PUSH2 0xA48 JUMP JUMPDEST PUSH1 0x40 MLOAD PUSH2 0x361 SWAP2 SWAP1 PUSH2 0xB7E JUMP JUMPDEST PUSH1 0x40 MLOAD DUP1 SWAP2 SUB SWAP1 RETURN JUMPDEST PUSH0 DUP1 SLOAD PUSH2 0x376 SWAP1 PUSH2 0xF97 JUMP JUMPDEST DUP1 PUSH1 0x1F ADD PUSH1 0x20 DUP1 SWAP2 DIV MUL PUSH1 0x20 ADD PUSH1 0x40 MLOAD SWAP1 DUP2 ADD PUSH1 0x40 MSTORE DUP1 SWAP3 SWAP2 SWAP1 DUP2 DUP2 MSTORE PUSH1 0x20 ADD DUP3 DUP1 SLOAD PUSH2 0x3A2 SWAP1 PUSH2 0xF97 JUMP JUMPDEST DUP1 ISZERO PUSH2 0x3ED JUMPI DUP1 PUSH1 0x1F LT PUSH2 0x3C4 JUMPI PUSH2 0x100 DUP1 DUP4 SLOAD DIV MUL DUP4 MSTORE SWAP2 PUSH1 0x20 ADD SWAP2 PUSH2 0x3ED JUMP JUMPDEST DUP3 ADD SWAP2 SWAP1 PUSH0 MSTORE PUSH1 0x20 PUSH0 KECCAK256 SWAP1 JUMPDEST DUP2 SLOAD DUP2 MSTORE SWAP1 PUSH1 0x1 ADD SWAP1 PUSH1 0x20 ADD DUP1 DUP4 GT PUSH2 0x3D0 JUMPI DUP3 SWAP1 SUB PUSH1 0x1F AND DUP3 ADD SWAP2 JUMPDEST POP POP POP POP POP DUP2 JUMP JUMPDEST PUSH0 DUP2 PUSH1 0x6 PUSH0 CALLER PUSH20 0xFFFFFFFFFFFFFFFFFFFFFFFFFFFFFFFFFFFFFFFF AND PUSH20 0xFFFFFFFFFFFFFFFFFFFFFFFFFFFFFFFFFFFFFFFF AND DUP2 MSTORE PUSH1 0x20 ADD SWAP1 DUP2 MSTORE PUSH1 0x20 ADD PUSH0 KECCAK256 PUSH0 DUP6 PUSH20 0xFFFFFFFFFFFFFFFFFFFFFFFFFFFFFFFFFFFFFFFF AND PUSH20 0xFFFFFFFFFFFFFFFFFFFFFFFFFFFFFFFFFFFFFFFF AND DUP2 MSTORE PUSH1 0x20 ADD SWAP1 DUP2 MSTORE PUSH1 0x20 ADD PUSH0 KECCAK256 DUP2 SWAP1 SSTORE POP PUSH1 0x1 SWAP1 POP SWAP3 SWAP2 POP POP JUMP JUMPDEST PUSH1 0x4 SLOAD DUP2 JUMP JUMPDEST PUSH0 DUP2 PUSH1 0x6 PUSH0 DUP7 PUSH20 0xFFFFFFFFFFFFFFFFFFFFFFFFFFFFFFFFFFFFFFFF AND PUSH20 0xFFFFFFFFFFFFFFFFFFFFFFFFFFFFFFFFFFFFFFFF AND DUP2 MSTORE PUSH1 0x20 ADD SWAP1 DUP2 MSTORE PUSH1 0x20 ADD PUSH0 KECCAK256 PUSH0 CALLER PUSH20 0xFFFFFFFFFFFFFFFFFFFFFFFFFFFFFFFFFFFFFFFF AND PUSH20 0xFFFFFFFFFFFFFFFFFFFFFFFFFFFFFFFFFFFFFFFF AND DUP2 MSTORE PUSH1 0x20 ADD SWAP1 DUP2 MSTORE PUSH1 0x20 ADD PUSH0 KECCAK256 SLOAD LT ISZERO PUSH2 0x508 JUMPI PUSH0 DUP1 REVERT JUMPDEST DUP2 PUSH1 0x6 PUSH0 DUP7 PUSH20 0xFFFFFFFFFFFFFFFFFFFFFFFFFFFFFFFFFFFFFFFF AND PUSH20 0xFFFFFFFFFFFFFFFFFFFFFFFFFFFFFFFFFFFFFFFF AND DUP2 MSTORE PUSH1 0x20 ADD SWAP1 DUP2 MSTORE PUSH1 0x20 ADD PUSH0 KECCAK256 PUSH0 CALLER PUSH20 0xFFFFFFFFFFFFFFFFFFFFFFFFFFFFFFFFFFFFFFFF AND PUSH20 0xFFFFFFFFFFFFFFFFFFFFFFFFFFFFFFFFFFFFFFFF AND DUP2 MSTORE PUSH1 0x20 ADD SWAP1 DUP2 MSTORE PUSH1 0x20 ADD PUSH0 KECCAK256 PUSH0 DUP3 DUP3 SLOAD PUSH2 0x58F SWAP2 SWAP1 PUSH2 0xFF4 JUMP JUMPDEST SWAP3 POP POP DUP2 SWAP1 SSTORE POP DUP2 PUSH1 0x5 PUSH0 DUP7 PUSH20 0xFFFFFFFFFFFFFFFFFFFFFFFFFFFFFFFFFFFFFFFF AND PUSH20 0xFFFFFFFFFFFFFFFFFFFFFFFFFFFFFFFFFFFFFFFF AND DUP2 MSTORE PUSH1 0x20 ADD SWAP1 DUP2 MSTORE PUSH1 0x20 ADD PUSH0 KECCAK256 PUSH0 DUP3 DUP3 SLOAD PUSH2 0x5E2 SWAP2 SWAP1 PUSH2 0xFF4 JUMP JUMPDEST SWAP3 POP POP DUP2 SWAP1 SSTORE POP DUP2 PUSH1 0x5 PUSH0 DUP6 PUSH20 0xFFFFFFFFFFFFFFFFFFFFFFFFFFFFFFFFFFFFFFFF AND PUSH20 0xFFFFFFFFFFFFFFFFFFFFFFFFFFFFFFFFFFFFFFFF AND DUP2 MSTORE PUSH1 0x20 ADD SWAP1 DUP2 MSTORE PUSH1 0x20 ADD PUSH0 KECCAK256 PUSH0 DUP3 DUP3 SLOAD PUSH2 0x635 SWAP2 SWAP1 PUSH2 0x1027 JUMP JUMPDEST SWAP3 POP POP DUP2 SWAP1 SSTORE POP PUSH1 0x1 SWAP1 POP SWAP4 SWAP3 POP POP POP JUMP JUMPDEST PUSH1 0x5 PUSH1 0x20 MSTORE DUP1 PUSH0 MSTORE PUSH1 0x40 PUSH0 KECCAK256 PUSH0 SWAP2 POP SWAP1 POP SLOAD DUP2 JUMP JUMPDEST PUSH2 0x666 CALLER DUP3 PUSH2 0x778 JUMP JUMPDEST CALLER PUSH20 0xFFFFFFFFFFFFFFFFFFFFFFFFFFFFFFFFFFFFFFFF AND PUSH32 0x7FCF532C15F0A6DB0BD6D0E038BEA71D30D808C7D98CB3BF7268A95BF5081B65 DUP3 PUSH1 0x40 MLOAD PUSH2 0x6AC SWAP2 SWAP1 PUSH2 0xCBC JUMP JUMPDEST PUSH1 0x40 MLOAD DUP1 SWAP2 SUB SWAP1 LOG2 POP JUMP JUMPDEST PUSH1 0x60 PUSH2 0x6C1 PUSH2 0xAD4 JUMP JUMPDEST DUP3 PUSH1 0x40 MLOAD PUSH1 0x20 ADD PUSH2 0x6D3 SWAP3 SWAP2 SWAP1 PUSH2 0x1094 JUMP JUMPDEST PUSH1 0x40 MLOAD PUSH1 0x20 DUP2 DUP4 SUB SUB DUP2 MSTORE SWAP1 PUSH1 0x40 MSTORE SWAP1 POP SWAP2 SWAP1 POP JUMP JUMPDEST DUP1 PUSH1 0x5 PUSH0 DUP5 PUSH20 0xFFFFFFFFFFFFFFFFFFFFFFFFFFFFFFFFFFFFFFFF AND PUSH20 0xFFFFFFFFFFFFFFFFFFFFFFFFFFFFFFFFFFFFFFFF AND DUP2 MSTORE PUSH1 0x20 ADD SWAP1 DUP2 MSTORE PUSH1 0x20 ADD PUSH0 KECCAK256 PUSH0 DUP3 DUP3 SLOAD PUSH2 0x735 SWAP2 SWAP1 PUSH2 0x1027 JUMP JUMPDEST SWAP3 POP POP DUP2 SWAP1 SSTORE POP DUP1 PUSH1 0x4 PUSH0 DUP3 DUP3 SLOAD PUSH2 0x74D SWAP2 SWAP1 PUSH2 0x1027 JUMP JUMPDEST SWAP3 POP POP DUP2 SWAP1 SSTORE POP POP POP JUMP JUMPDEST PUSH1 0x6 PUSH1 0x20 MSTORE DUP2 PUSH0 MSTORE PUSH1 0x40 PUSH0 KECCAK256 PUSH1 0x20 MSTORE DUP1 PUSH0 MSTORE PUSH1 0x40 PUSH0 KECCAK256 PUSH0 SWAP2 POP SWAP2 POP POP SLOAD DUP2 JUMP JUMPDEST DUP1 PUSH1 0x5 PUSH0 DUP5 PUSH20 0xFFFFFFFFFFFFFFFFFFFFFFFFFFFFFFFFFFFFFFFF AND PUSH20 0xFFFFFFFFFFFFFFFFFFFFFFFFFFFFFFFFFFFFFFFF AND DUP2 MSTORE PUSH1 0x20 ADD SWAP1 DUP2 MSTORE PUSH1 0x20 ADD PUSH0 KECCAK256 PUSH0 DUP3 DUP3 SLOAD PUSH2 0x7C4 SWAP2 SWAP1 PUSH2 0xFF4 JUMP JUMPDEST SWAP3 POP POP DUP2 SWAP1 SSTORE POP DUP1 PUSH1 0x4 PUSH0 DUP3 DUP3 SLOAD PUSH2 0x7DC SWAP2 SWAP1 PUSH2 0xFF4 JUMP JUMPDEST SWAP3 POP POP DUP2 SWAP1 SSTORE POP POP POP JUMP JUMPDEST PUSH2 0x7F1 DUP2 DUP4 PUSH2 0x6E9 JUMP JUMPDEST CALLER PUSH20 0xFFFFFFFFFFFFFFFFFFFFFFFFFFFFFFFFFFFFFFFF AND PUSH32 0xE1FFFCC4923D04B559F4D29A8BFC6CDA04EB5B0D3C460751C2402C5C5CC9109C DUP4 PUSH1 0x40 MLOAD PUSH2 0x837 SWAP2 SWAP1 PUSH2 0xCBC JUMP JUMPDEST PUSH1 0x40 MLOAD DUP1 SWAP2 SUB SWAP1 LOG2 POP POP JUMP JUMPDEST PUSH0 PUSH1 0x5 PUSH0 DUP4 PUSH20 0xFFFFFFFFFFFFFFFFFFFFFFFFFFFFFFFFFFFFFFFF AND PUSH20 0xFFFFFFFFFFFFFFFFFFFFFFFFFFFFFFFFFFFFFFFF AND DUP2 MSTORE PUSH1 0x20 ADD SWAP1 DUP2 MSTORE PUSH1 0x20 ADD PUSH0 KECCAK256 SLOAD SWAP1 POP SWAP2 SWAP1 POP JUMP JUMPDEST PUSH1 0x1 DUP1 SLOAD PUSH2 0x896 SWAP1 PUSH2 0xF97 JUMP JUMPDEST DUP1 PUSH1 0x1F ADD PUSH1 0x20 DUP1 SWAP2 DIV MUL PUSH1 0x20 ADD PUSH1 0x40 MLOAD SWAP1 DUP2 ADD PUSH1 0x40 MSTORE DUP1 SWAP3 SWAP2 SWAP1 DUP2 DUP2 MSTORE PUSH1 0x20 ADD DUP3 DUP1 SLOAD PUSH2 0x8C2 SWAP1 PUSH2 0xF97 JUMP JUMPDEST DUP1 ISZERO PUSH2 0x90D JUMPI DUP1 PUSH1 0x1F LT PUSH2 0x8E4 JUMPI PUSH2 0x100 DUP1 DUP4 SLOAD DIV MUL DUP4 MSTORE SWAP2 PUSH1 0x20 ADD SWAP2 PUSH2 0x90D JUMP JUMPDEST DUP3 ADD SWAP2 SWAP1 PUSH0 MSTORE PUSH1 0x20 PUSH0 KECCAK256 SWAP1 JUMPDEST DUP2 SLOAD DUP2 MSTORE SWAP1 PUSH1 0x1 ADD SWAP1 PUSH1 0x20 ADD DUP1 DUP4 GT PUSH2 0x8F0 JUMPI DUP3 SWAP1 SUB PUSH1 0x1F AND DUP3 ADD SWAP2 JUMPDEST POP POP POP POP POP DUP2 JUMP JUMPDEST PUSH0 DUP2 PUSH1 0x5 PUSH0 CALLER PUSH20 0xFFFFFFFFFFFFFFFFFFFFFFFFFFFFFFFFFFFFFFFF AND PUSH20 0xFFFFFFFFFFFFFFFFFFFFFFFFFFFFFFFFFFFFFFFF AND DUP2 MSTORE PUSH1 0x20 ADD SWAP1 DUP2 MSTORE PUSH1 0x20 ADD PUSH0 KECCAK256 PUSH0 DUP3 DUP3 SLOAD PUSH2 0x962 SWAP2 SWAP1 PUSH2 0xFF4 JUMP JUMPDEST SWAP3 POP POP DUP2 SWAP1 SSTORE POP DUP2 PUSH1 0x5 PUSH0 DUP6 PUSH20 0xFFFFFFFFFFFFFFFFFFFFFFFFFFFFFFFFFFFFFFFF AND PUSH20 0xFFFFFFFFFFFFFFFFFFFFFFFFFFFFFFFFFFFFFFFF AND DUP2 MSTORE PUSH1 0x20 ADD SWAP1 DUP2 MSTORE PUSH1 0x20 ADD PUSH0 KECCAK256 PUSH0 DUP3 DUP3 SLOAD PUSH2 0x9B5 SWAP2 SWAP1 PUSH2 0x1027 JUMP JUMPDEST SWAP3 POP POP DUP2 SWAP1 SSTORE POP PUSH1 0x1 SWAP1 POP SWAP3 SWAP2 POP POP JUMP JUMPDEST PUSH0 PUSH1 0x6 PUSH0 DUP5 PUSH20 0xFFFFFFFFFFFFFFFFFFFFFFFFFFFFFFFFFFFFFFFF AND PUSH20 0xFFFFFFFFFFFFFFFFFFFFFFFFFFFFFFFFFFFFFFFF AND DUP2 MSTORE PUSH1 0x20 ADD SWAP1 DUP2 MSTORE PUSH1 0x20 ADD PUSH0 KECCAK256 PUSH0 DUP4 PUSH20 0xFFFFFFFFFFFFFFFFFFFFFFFFFFFFFFFFFFFFFFFF AND PUSH20 0xFFFFFFFFFFFFFFFFFFFFFFFFFFFFFFFFFFFFFFFF AND DUP2 MSTORE PUSH1 0x20 ADD SWAP1 DUP2 MSTORE PUSH1 0x20 ADD PUSH0 KECCAK256 SLOAD SWAP1 POP SWAP3 SWAP2 POP POP JUMP JUMPDEST PUSH1 0x2 DUP1 SLOAD PUSH2 0xA55 SWAP1 PUSH2 0xF97 JUMP JUMPDEST DUP1 PUSH1 0x1F ADD PUSH1 0x20 DUP1 SWAP2 DIV MUL PUSH1 0x20 ADD PUSH1 0x40 MLOAD SWAP1 DUP2 ADD PUSH1 0x40 MSTORE DUP1 SWAP3 SWAP2 SWAP1 DUP2 DUP2 MSTORE PUSH1 0x20 ADD DUP3 DUP1 SLOAD PUSH2 0xA81 SWAP1 PUSH2 0xF97 JUMP JUMPDEST DUP1 ISZERO PUSH2 0xACC JUMPI DUP1 PUSH1 0x1F LT PUSH2 0xAA3 JUMPI PUSH2 0x100 DUP1 DUP4 SLOAD DIV MUL DUP4 MSTORE SWAP2 PUSH1 0x20 ADD SWAP2 PUSH2 0xACC JUMP JUMPDEST DUP3 ADD SWAP2 SWAP1 PUSH0 MSTORE PUSH1 0x20 PUSH0 KECCAK256 SWAP1 JUMPDEST DUP2 SLOAD DUP2 MSTORE SWAP1 PUSH1 0x1 ADD SWAP1 PUSH1 0x20 ADD DUP1 DUP4 GT PUSH2 0xAAF JUMPI DUP3 SWAP1 SUB PUSH1 0x1F AND DUP3 ADD SWAP2 JUMPDEST POP POP POP POP POP DUP2 JUMP JUMPDEST PUSH1 0x60 PUSH1 0x40 MLOAD DUP1 PUSH1 0x60 ADD PUSH1 0x40 MSTORE DUP1 PUSH1 0x35 DUP2 MSTORE PUSH1 0x20 ADD PUSH2 0x10B8 PUSH1 0x35 SWAP2 CODECOPY SWAP1 POP SWAP1 JUMP JUMPDEST PUSH0 DUP2 MLOAD SWAP1 POP SWAP2 SWAP1 POP JUMP JUMPDEST PUSH0 DUP3 DUP3 MSTORE PUSH1 0x20 DUP3 ADD SWAP1 POP SWAP3 SWAP2 POP POP JUMP JUMPDEST PUSH0 JUMPDEST DUP4 DUP2 LT ISZERO PUSH2 0xB2B JUMPI DUP1 DUP3 ADD MLOAD DUP2 DUP5 ADD MSTORE PUSH1 0x20 DUP2 ADD SWAP1 POP PUSH2 0xB10 JUMP JUMPDEST PUSH0 DUP5 DUP5 ADD MSTORE POP POP POP POP JUMP JUMPDEST PUSH0 PUSH1 0x1F NOT PUSH1 0x1F DUP4 ADD AND SWAP1 POP SWAP2 SWAP1 POP JUMP JUMPDEST PUSH0 PUSH2 0xB50 DUP3 PUSH2 0xAF4 JUMP JUMPDEST PUSH2 0xB5A DUP2 DUP6 PUSH2 0xAFE JUMP JUMPDEST SWAP4 POP PUSH2 0xB6A DUP2 DUP6 PUSH1 0x20 DUP7 ADD PUSH2 0xB0E JUMP JUMPDEST PUSH2 0xB73 DUP2 PUSH2 0xB36 JUMP JUMPDEST DUP5 ADD SWAP2 POP POP SWAP3 SWAP2 POP POP JUMP JUMPDEST PUSH0 PUSH1 0x20 DUP3 ADD SWAP1 POP DUP2 DUP2 SUB PUSH0 DUP4 ADD MSTORE PUSH2 0xB96 DUP2 DUP5 PUSH2 0xB46 JUMP JUMPDEST SWAP1 POP SWAP3 SWAP2 POP POP JUMP JUMPDEST PUSH0 PUSH1 0x40 MLOAD SWAP1 POP SWAP1 JUMP JUMPDEST PUSH0 DUP1 REVERT JUMPDEST PUSH0 DUP1 REVERT JUMPDEST PUSH0 PUSH20 0xFFFFFFFFFFFFFFFFFFFFFFFFFFFFFFFFFFFFFFFF DUP3 AND SWAP1 POP SWAP2 SWAP1 POP JUMP JUMPDEST PUSH0 PUSH2 0xBD8 DUP3 PUSH2 0xBAF JUMP JUMPDEST SWAP1 POP SWAP2 SWAP1 POP JUMP JUMPDEST PUSH2 0xBE8 DUP2 PUSH2 0xBCE JUMP JUMPDEST DUP2 EQ PUSH2 0xBF2 JUMPI PUSH0 DUP1 REVERT JUMPDEST POP JUMP JUMPDEST PUSH0 DUP2 CALLDATALOAD SWAP1 POP PUSH2 0xC03 DUP2 PUSH2 0xBDF JUMP JUMPDEST SWAP3 SWAP2 POP POP JUMP JUMPDEST PUSH0 DUP2 SWAP1 POP SWAP2 SWAP1 POP JUMP JUMPDEST PUSH2 0xC1B DUP2 PUSH2 0xC09 JUMP JUMPDEST DUP2 EQ PUSH2 0xC25 JUMPI PUSH0 DUP1 REVERT JUMPDEST POP JUMP JUMPDEST PUSH0 DUP2 CALLDATALOAD SWAP1 POP PUSH2 0xC36 DUP2 PUSH2 0xC12 JUMP JUMPDEST SWAP3 SWAP2 POP POP JUMP JUMPDEST PUSH0 DUP1 PUSH1 0x40 DUP4 DUP6 SUB SLT ISZERO PUSH2 0xC52 JUMPI PUSH2 0xC51 PUSH2 0xBA7 JUMP JUMPDEST JUMPDEST PUSH0 PUSH2 0xC5F DUP6 DUP3 DUP7 ADD PUSH2 0xBF5 JUMP JUMPDEST SWAP3 POP POP PUSH1 0x20 PUSH2 0xC70 DUP6 DUP3 DUP7 ADD PUSH2 0xC28 JUMP JUMPDEST SWAP2 POP POP SWAP3 POP SWAP3 SWAP1 POP JUMP JUMPDEST PUSH0 DUP2 ISZERO ISZERO SWAP1 POP SWAP2 SWAP1 POP JUMP JUMPDEST PUSH2 0xC8E DUP2 PUSH2 0xC7A JUMP JUMPDEST DUP3 MSTORE POP POP JUMP JUMPDEST PUSH0 PUSH1 0x20 DUP3 ADD SWAP1 POP PUSH2 0xCA7 PUSH0 DUP4 ADD DUP5 PUSH2 0xC85 JUMP JUMPDEST SWAP3 SWAP2 POP POP JUMP JUMPDEST PUSH2 0xCB6 DUP2 PUSH2 0xC09 JUMP JUMPDEST DUP3 MSTORE POP POP JUMP JUMPDEST PUSH0 PUSH1 0x20 DUP3 ADD SWAP1 POP PUSH2 0xCCF PUSH0 DUP4 ADD DUP5 PUSH2 0xCAD JUMP JUMPDEST SWAP3 SWAP2 POP POP JUMP JUMPDEST PUSH0 DUP1 PUSH0 PUSH1 0x60 DUP5 DUP7 SUB SLT ISZERO PUSH2 0xCEC JUMPI PUSH2 0xCEB PUSH2 0xBA7 JUMP JUMPDEST JUMPDEST PUSH0 PUSH2 0xCF9 DUP7 DUP3 DUP8 ADD PUSH2 0xBF5 JUMP JUMPDEST SWAP4 POP POP PUSH1 0x20 PUSH2 0xD0A DUP7 DUP3 DUP8 ADD PUSH2 0xBF5 JUMP JUMPDEST SWAP3 POP POP PUSH1 0x40 PUSH2 0xD1B DUP7 DUP3 DUP8 ADD PUSH2 0xC28 JUMP JUMPDEST SWAP2 POP POP SWAP3 POP SWAP3 POP SWAP3 JUMP JUMPDEST PUSH0 PUSH1 0x20 DUP3 DUP5 SUB SLT ISZERO PUSH2 0xD3A JUMPI PUSH2 0xD39 PUSH2 0xBA7 JUMP JUMPDEST JUMPDEST PUSH0 PUSH2 0xD47 DUP5 DUP3 DUP6 ADD PUSH2 0xBF5 JUMP JUMPDEST SWAP2 POP POP SWAP3 SWAP2 POP POP JUMP JUMPDEST PUSH0 PUSH1 0x20 DUP3 DUP5 SUB SLT ISZERO PUSH2 0xD65 JUMPI PUSH2 0xD64 PUSH2 0xBA7 JUMP JUMPDEST JUMPDEST PUSH0 PUSH2 0xD72 DUP5 DUP3 DUP6 ADD PUSH2 0xC28 JUMP JUMPDEST SWAP2 POP POP SWAP3 SWAP2 POP POP JUMP JUMPDEST PUSH0 DUP1 REVERT JUMPDEST PUSH0 DUP1 REVERT JUMPDEST PUSH32 0x4E487B7100000000000000000000000000000000000000000000000000000000 PUSH0 MSTORE PUSH1 0x41 PUSH1 0x4 MSTORE PUSH1 0x24 PUSH0 REVERT JUMPDEST PUSH2 0xDB9 DUP3 PUSH2 0xB36 JUMP JUMPDEST DUP2 ADD DUP2 DUP2 LT PUSH8 0xFFFFFFFFFFFFFFFF DUP3 GT OR ISZERO PUSH2 0xDD8 JUMPI PUSH2 0xDD7 PUSH2 0xD83 JUMP JUMPDEST JUMPDEST DUP1 PUSH1 0x40 MSTORE POP POP POP JUMP JUMPDEST PUSH0 PUSH2 0xDEA PUSH2 0xB9E JUMP JUMPDEST SWAP1 POP PUSH2 0xDF6 DUP3 DUP3 PUSH2 0xDB0 JUMP JUMPDEST SWAP2 SWAP1 POP JUMP JUMPDEST PUSH0 PUSH8 0xFFFFFFFFFFFFFFFF DUP3 GT ISZERO PUSH2 0xE15 JUMPI PUSH2 0xE14 PUSH2 0xD83 JUMP JUMPDEST JUMPDEST PUSH2 0xE1E DUP3 PUSH2 0xB36 JUMP JUMPDEST SWAP1 POP PUSH1 0x20 DUP2 ADD SWAP1 POP SWAP2 SWAP1 POP JUMP JUMPDEST DUP3 DUP2 DUP4 CALLDATACOPY PUSH0 DUP4 DUP4 ADD MSTORE POP POP POP JUMP JUMPDEST PUSH0 PUSH2 0xE4B PUSH2 0xE46 DUP5 PUSH2 0xDFB JUMP JUMPDEST PUSH2 0xDE1 JUMP JUMPDEST SWAP1 POP DUP3 DUP2 MSTORE PUSH1 0x20 DUP2 ADD DUP5 DUP5 DUP5 ADD GT ISZERO PUSH2 0xE67 JUMPI PUSH2 0xE66 PUSH2 0xD7F JUMP JUMPDEST JUMPDEST PUSH2 0xE72 DUP5 DUP3 DUP6 PUSH2 0xE2B JUMP JUMPDEST POP SWAP4 SWAP3 POP POP POP JUMP JUMPDEST PUSH0 DUP3 PUSH1 0x1F DUP4 ADD SLT PUSH2 0xE8E JUMPI PUSH2 0xE8D PUSH2 0xD7B JUMP JUMPDEST JUMPDEST DUP2 CALLDATALOAD PUSH2 0xE9E DUP5 DUP3 PUSH1 0x20 DUP7 ADD PUSH2 0xE39 JUMP JUMPDEST SWAP2 POP POP SWAP3 SWAP2 POP POP JUMP JUMPDEST PUSH0 PUSH1 0x20 DUP3 DUP5 SUB SLT ISZERO PUSH2 0xEBC JUMPI PUSH2 0xEBB PUSH2 0xBA7 JUMP JUMPDEST JUMPDEST PUSH0 DUP3 ADD CALLDATALOAD PUSH8 0xFFFFFFFFFFFFFFFF DUP2 GT ISZERO PUSH2 0xED9 JUMPI PUSH2 0xED8 PUSH2 0xBAB JUMP JUMPDEST JUMPDEST PUSH2 0xEE5 DUP5 DUP3 DUP6 ADD PUSH2 0xE7A JUMP JUMPDEST SWAP2 POP POP SWAP3 SWAP2 POP POP JUMP JUMPDEST PUSH0 DUP1 PUSH1 0x40 DUP4 DUP6 SUB SLT ISZERO PUSH2 0xF04 JUMPI PUSH2 0xF03 PUSH2 0xBA7 JUMP JUMPDEST JUMPDEST PUSH0 PUSH2 0xF11 DUP6 DUP3 DUP7 ADD PUSH2 0xBF5 JUMP JUMPDEST SWAP3 POP POP PUSH1 0x20 PUSH2 0xF22 DUP6 DUP3 DUP7 ADD PUSH2 0xBF5 JUMP JUMPDEST SWAP2 POP POP SWAP3 POP SWAP3 SWAP1 POP JUMP JUMPDEST PUSH0 DUP1 PUSH1 0x40 DUP4 DUP6 SUB SLT ISZERO PUSH2 0xF42 JUMPI PUSH2 0xF41 PUSH2 0xBA7 JUMP JUMPDEST JUMPDEST PUSH0 PUSH2 0xF4F DUP6 DUP3 DUP7 ADD PUSH2 0xC28 JUMP JUMPDEST SWAP3 POP POP PUSH1 0x20 PUSH2 0xF60 DUP6 DUP3 DUP7 ADD PUSH2 0xBF5 JUMP JUMPDEST SWAP2 POP POP SWAP3 POP SWAP3 SWAP1 POP JUMP JUMPDEST PUSH32 0x4E487B7100000000000000000000000000000000000000000000000000000000 PUSH0 MSTORE PUSH1 0x22 PUSH1 0x4 MSTORE PUSH1 0x24 PUSH0 REVERT JUMPDEST PUSH0 PUSH1 0x2 DUP3 DIV SWAP1 POP PUSH1 0x1 DUP3 AND DUP1 PUSH2 0xFAE JUMPI PUSH1 0x7F DUP3 AND SWAP2 POP JUMPDEST PUSH1 0x20 DUP3 LT DUP2 SUB PUSH2 0xFC1 JUMPI PUSH2 0xFC0 PUSH2 0xF6A JUMP JUMPDEST JUMPDEST POP SWAP2 SWAP1 POP JUMP JUMPDEST PUSH32 0x4E487B7100000000000000000000000000000000000000000000000000000000 PUSH0 MSTORE PUSH1 0x11 PUSH1 0x4 MSTORE PUSH1 0x24 PUSH0 REVERT JUMPDEST PUSH0 PUSH2 0xFFE DUP3 PUSH2 0xC09 JUMP JUMPDEST SWAP2 POP PUSH2 0x1009 DUP4 PUSH2 0xC09 JUMP JUMPDEST SWAP3 POP DUP3 DUP3 SUB SWAP1 POP DUP2 DUP2 GT ISZERO PUSH2 0x1021 JUMPI PUSH2 0x1020 PUSH2 0xFC7 JUMP JUMPDEST JUMPDEST SWAP3 SWAP2 POP POP JUMP JUMPDEST PUSH0 PUSH2 0x1031 DUP3 PUSH2 0xC09 JUMP JUMPDEST SWAP2 POP PUSH2 0x103C DUP4 PUSH2 0xC09 JUMP JUMPDEST SWAP3 POP DUP3 DUP3 ADD SWAP1 POP DUP1 DUP3 GT ISZERO PUSH2 0x1054 JUMPI PUSH2 0x1053 PUSH2 0xFC7 JUMP JUMPDEST JUMPDEST SWAP3 SWAP2 POP POP JUMP JUMPDEST PUSH0 DUP2 SWAP1 POP SWAP3 SWAP2 POP POP JUMP JUMPDEST PUSH0 PUSH2 0x106E DUP3 PUSH2 0xAF4 JUMP JUMPDEST PUSH2 0x1078 DUP2 DUP6 PUSH2 0x105A JUMP JUMPDEST SWAP4 POP PUSH2 0x1088 DUP2 DUP6 PUSH1 0x20 DUP7 ADD PUSH2 0xB0E JUMP JUMPDEST DUP1 DUP5 ADD SWAP2 POP POP SWAP3 SWAP2 POP POP JUMP JUMPDEST PUSH0 PUSH2 0x109F DUP3 DUP6 PUSH2 0x1064 JUMP JUMPDEST SWAP2 POP PUSH2 0x10AB DUP3 DUP5 PUSH2 0x1064 JUMP JUMPDEST SWAP2 POP DUP2 SWAP1 POP SWAP4 SWAP3 POP POP POP JUMP INVALID PUSH9 0x747470733A2F2F6372 PUSH10 0x6D736F6E2D67656E6572 PUSH16 0x75732D616E742D3339352E6D7970696E PUSH2 0x7461 0x2E PUSH4 0x6C6F7564 0x2F PUSH10 0x7066732FA26469706673 PC 0x22 SLT KECCAK256 0xA6 MULMOD PUSH26 0xA727B56B14638AA381131E1258B18568AF670A5559EC26CB3FD GAS OR 0xF8 PUSH5 0x736F6C6343 STOP ADDMOD EQ STOP CALLER PUSH9 0x747470733A2F2F6372 PUSH10 0x6D736F6E2D67656E6572 PUSH16 0x75732D616E742D3339352E6D7970696E PUSH2 0x7461 0x2E PUSH4 0x6C6F7564 0x2F PUSH10 0x7066732F000000000000 "
				},
				"gasEstimates": {
					"creation": {
						"codeDepositCost": "877200",
						"executionCost": "infinite",
						"totalCost": "infinite"
					},
					"external": {
						"_burn(address,uint256)": "infinite",
						"_mint(address,uint256)": "infinite",
						"allowance(address,address)": "infinite",
						"allowances(address,address)": "infinite",
						"approve(address,uint256)": "23153",
						"balanceOf(address)": "2918",
						"balances(address)": "2825",
						"deposit(uint256,address)": "infinite",
						"name()": "infinite",
						"symbol()": "infinite",
						"tokenURI(string)": "infinite",
						"totalSupply()": "2493",
						"transfer(address,uint256)": "infinite",
						"transferFrom(address,address,uint256)": "infinite",
						"uri()": "infinite",
						"withdraw(uint256)": "infinite"
					}
				},
				"methodIdentifiers": {
					"_burn(address,uint256)": "6161eb18",
					"_mint(address,uint256)": "4e6ec247",
					"allowance(address,address)": "dd62ed3e",
					"allowances(address,address)": "55b6ed5c",
					"approve(address,uint256)": "095ea7b3",
					"balanceOf(address)": "70a08231",
					"balances(address)": "27e235e3",
					"deposit(uint256,address)": "6e553f65",
					"name()": "06fdde03",
					"symbol()": "95d89b41",
					"tokenURI(string)": "4cf12d26",
					"totalSupply()": "18160ddd",
					"transfer(address,uint256)": "a9059cbb",
					"transferFrom(address,address,uint256)": "23b872dd",
					"uri()": "eac989f8",
					"withdraw(uint256)": "2e1a7d4d"
				}
			},
			"storageLayout": {
				"storage": [
					{
						"astId": 6,
						"contract": "contracts/contract/WBNC.sol:WBNC",
						"label": "name",
						"offset": 0,
						"slot": "0",
						"type": "t_string_storage"
					},
					{
						"astId": 8,
						"contract": "contracts/contract/WBNC.sol:WBNC",
						"label": "symbol",
						"offset": 0,
						"slot": "1",
						"type": "t_string_storage"
					},
					{
						"astId": 10,
						"contract": "contracts/contract/WBNC.sol:WBNC",
						"label": "uri",
						"offset": 0,
						"slot": "2",
						"type": "t_string_storage"
					},
					{
						"astId": 13,
						"contract": "contracts/contract/WBNC.sol:WBNC",
						"label": "decimals",
						"offset": 0,
						"slot": "3",
						"type": "t_uint256"
					},
					{
						"astId": 15,
						"contract": "contracts/contract/WBNC.sol:WBNC",
						"label": "totalSupply",
						"offset": 0,
						"slot": "4",
						"type": "t_uint256"
					},
					{
						"astId": 19,
						"contract": "contracts/contract/WBNC.sol:WBNC",
						"label": "balances",
						"offset": 0,
						"slot": "5",
						"type": "t_mapping(t_address,t_uint256)"
					},
					{
						"astId": 25,
						"contract": "contracts/contract/WBNC.sol:WBNC",
						"label": "allowances",
						"offset": 0,
						"slot": "6",
						"type": "t_mapping(t_address,t_mapping(t_address,t_uint256))"
					}
				],
				"types": {
					"t_address": {
						"encoding": "inplace",
						"label": "address",
						"numberOfBytes": "20"
					},
					"t_mapping(t_address,t_mapping(t_address,t_uint256))": {
						"encoding": "mapping",
						"key": "t_address",
						"label": "mapping(address => mapping(address => uint256))",
						"numberOfBytes": "32",
						"value": "t_mapping(t_address,t_uint256)"
					},
					"t_mapping(t_address,t_uint256)": {
						"encoding": "mapping",
						"key": "t_address",
						"label": "mapping(address => uint256)",
						"numberOfBytes": "32",
						"value": "t_uint256"
					},
					"t_string_storage": {
						"encoding": "bytes",
						"label": "string",
						"numberOfBytes": "32"
					},
					"t_uint256": {
						"encoding": "inplace",
						"label": "uint256",
						"numberOfBytes": "32"
					}
				}
			},
			"userdoc": {
				"kind": "user",
				"methods": {},
				"version": 1
			}
		}
	}
}