{
  "_format": "hh-sol-artifact-1",
  "contractName": "InitialProxy",
  "sourceName": "contracts/contract/InitialProxy.sol",
  "abi": [
    {
      "inputs": [
        {
          "internalType": "address",
          "name": "_factoryAddress",
          "type": "address"
        },
        {
          "internalType": "address",
          "name": "_swapAddress",
          "type": "address"
        },
        {
          "internalType": "address",
          "name": "_wbncAddress",
          "type": "address"
        }
      ],
      "stateMutability": "nonpayable",
      "type": "constructor"
    },
    {
      "inputs": [
        {
          "internalType": "bytes[]",
          "name": "data",
          "type": "bytes[]"
        }
      ],
      "name": "initialPlay",
      "outputs": [
        {
          "internalType": "bool",
          "name": "",
          "type": "bool"
        }
      ],
      "stateMutability": "nonpayable",
      "type": "function"
    },
    {
      "inputs": [
        {
          "internalType": "bytes[]",
          "name": "data",
          "type": "bytes[]"
        }
      ],
      "name": "initialPlayPayable",
      "outputs": [
        {
          "internalType": "bool",
          "name": "",
          "type": "bool"
        }
      ],
      "stateMutability": "payable",
      "type": "function"
    },
    {
      "inputs": [
        {
          "internalType": "address",
          "name": "pairAddress",
          "type": "address"
        },
        {
          "internalType": "uint256",
          "name": "outputAmount",
          "type": "uint256"
        },
        {
          "internalType": "uint256",
          "name": "maxToken",
          "type": "uint256"
        },
        {
          "internalType": "address",
          "name": "inputToken",
          "type": "address"
        },
        {
          "internalType": "address",
          "name": "outputToken",
          "type": "address"
        },
        {
          "internalType": "address",
          "name": "userAddress",
          "type": "address"
        }
      ],
      "name": "swapBNCForExactTokens",
      "outputs": [
        {
          "internalType": "bool",
          "name": "result",
          "type": "bool"
        }
      ],
      "stateMutability": "payable",
      "type": "function"
    },
    {
      "inputs": [
        {
          "internalType": "address",
          "name": "pairAddress",
          "type": "address"
        },
        {
          "internalType": "uint256",
          "name": "inputAmount",
          "type": "uint256"
        },
        {
          "internalType": "uint256",
          "name": "minToken",
          "type": "uint256"
        },
        {
          "internalType": "address",
          "name": "inputToken",
          "type": "address"
        },
        {
          "internalType": "address",
          "name": "outputToken",
          "type": "address"
        },
        {
          "internalType": "address",
          "name": "userAddress",
          "type": "address"
        }
      ],
      "name": "swapExactBNCForTokens",
      "outputs": [
        {
          "internalType": "bool",
          "name": "result",
          "type": "bool"
        }
      ],
      "stateMutability": "payable",
      "type": "function"
    }
  ],
  "bytecode": "0x60806040526001600260146101000a81548160ff0219169083151502179055506001600260156101000a81548160ff02191690831515021790555034801562000046575f80fd5b5060405162000eb538038062000eb583398181016040528101906200006c919062000199565b825f806101000a81548173ffffffffffffffffffffffffffffffffffffffff021916908373ffffffffffffffffffffffffffffffffffffffff1602179055508160015f6101000a81548173ffffffffffffffffffffffffffffffffffffffff021916908373ffffffffffffffffffffffffffffffffffffffff1602179055508060025f6101000a81548173ffffffffffffffffffffffffffffffffffffffff021916908373ffffffffffffffffffffffffffffffffffffffff160217905550505050620001f2565b5f80fd5b5f73ffffffffffffffffffffffffffffffffffffffff82169050919050565b5f620001638262000138565b9050919050565b620001758162000157565b811462000180575f80fd5b50565b5f8151905062000193816200016a565b92915050565b5f805f60608486031215620001b357620001b262000134565b5b5f620001c28682870162000183565b9350506020620001d58682870162000183565b9250506040620001e88682870162000183565b9150509250925092565b610cb580620002005f395ff3fe60806040526004361061003e575f3560e01c806345056c82146100425780636462ec9e146100725780637fb708d5146100a2578063a9c1583b146100d2575b5f80fd5b61005c600480360381019061005791906107a8565b61010e565b6040516100699190610809565b60405180910390f35b61008c600480360381019061008791906108af565b61022d565b6040516100999190610809565b60405180910390f35b6100bc60048036038101906100b791906108af565b61033a565b6040516100c99190610809565b60405180910390f35b3480156100dd575f80fd5b506100f860048036038101906100f391906107a8565b61045a565b6040516101059190610809565b60405180910390f35b5f805f90505b82518110156102235760011515600260159054906101000a900460ff16151514610173576040517f08c379a000000000000000000000000000000000000000000000000000000000815260040161016a90610992565b60405180910390fd5b5f3073ffffffffffffffffffffffffffffffffffffffff1684838151811061019e5761019d6109b0565b5b60200260200101516040516101b39190610a49565b5f604051808303815f865af19150503d805f81146101ec576040519150601f19603f3d011682016040523d82523d5f602084013e6101f1565b606091505b5050905080600260156101000a81548160ff02191690831515021790555050808061021b90610a8c565b915050610114565b5060019050919050565b5f8060405180604001604052808673ffffffffffffffffffffffffffffffffffffffff1673ffffffffffffffffffffffffffffffffffffffff1681526020018573ffffffffffffffffffffffffffffffffffffffff1673ffffffffffffffffffffffffffffffffffffffff16815250905060015f9054906101000a900473ffffffffffffffffffffffffffffffffffffffff1673ffffffffffffffffffffffffffffffffffffffff16638c4898a9888a8a8a86896040518763ffffffff1660e01b8152600401610301959493929190610b96565b5f604051808303818588803b158015610318575f80fd5b505af115801561032a573d5f803e3d5ffd5b5050505050509695505050505050565b5f8060405180604001604052808673ffffffffffffffffffffffffffffffffffffffff1673ffffffffffffffffffffffffffffffffffffffff1681526020018573ffffffffffffffffffffffffffffffffffffffff1673ffffffffffffffffffffffffffffffffffffffff16815250905060015f9054906101000a900473ffffffffffffffffffffffffffffffffffffffff1673ffffffffffffffffffffffffffffffffffffffff1663d5083e64878a8a85886040518663ffffffff1660e01b815260040161040c9493929190610be7565b60206040518083038185885af1158015610428573d5f803e3d5ffd5b50505050506040513d601f19601f8201168201806040525081019061044d9190610c54565b9150509695505050505050565b5f805f90505b825181101561056f5760011515600260149054906101000a900460ff161515146104bf576040517f08c379a00000000000000000000000000000000000000000000000000000000081526004016104b690610992565b60405180910390fd5b5f3073ffffffffffffffffffffffffffffffffffffffff168483815181106104ea576104e96109b0565b5b60200260200101516040516104ff9190610a49565b5f604051808303815f865af19150503d805f8114610538576040519150601f19603f3d011682016040523d82523d5f602084013e61053d565b606091505b5050905080600260146101000a81548160ff02191690831515021790555050808061056790610a8c565b915050610460565b5060019050919050565b5f604051905090565b5f80fd5b5f80fd5b5f80fd5b5f601f19601f8301169050919050565b7f4e487b71000000000000000000000000000000000000000000000000000000005f52604160045260245ffd5b6105d48261058e565b810181811067ffffffffffffffff821117156105f3576105f261059e565b5b80604052505050565b5f610605610579565b905061061182826105cb565b919050565b5f67ffffffffffffffff8211156106305761062f61059e565b5b602082029050602081019050919050565b5f80fd5b5f80fd5b5f67ffffffffffffffff8211156106635761066261059e565b5b61066c8261058e565b9050602081019050919050565b828183375f83830152505050565b5f61069961069484610649565b6105fc565b9050828152602081018484840111156106b5576106b4610645565b5b6106c0848285610679565b509392505050565b5f82601f8301126106dc576106db61058a565b5b81356106ec848260208601610687565b91505092915050565b5f61070761070284610616565b6105fc565b9050808382526020820190506020840283018581111561072a57610729610641565b5b835b8181101561077157803567ffffffffffffffff81111561074f5761074e61058a565b5b80860161075c89826106c8565b8552602085019450505060208101905061072c565b5050509392505050565b5f82601f83011261078f5761078e61058a565b5b813561079f8482602086016106f5565b91505092915050565b5f602082840312156107bd576107bc610582565b5b5f82013567ffffffffffffffff8111156107da576107d9610586565b5b6107e68482850161077b565b91505092915050565b5f8115159050919050565b610803816107ef565b82525050565b5f60208201905061081c5f8301846107fa565b92915050565b5f73ffffffffffffffffffffffffffffffffffffffff82169050919050565b5f61084b82610822565b9050919050565b61085b81610841565b8114610865575f80fd5b50565b5f8135905061087681610852565b92915050565b5f819050919050565b61088e8161087c565b8114610898575f80fd5b50565b5f813590506108a981610885565b92915050565b5f805f805f8060c087890312156108c9576108c8610582565b5b5f6108d689828a01610868565b96505060206108e789828a0161089b565b95505060406108f889828a0161089b565b945050606061090989828a01610868565b935050608061091a89828a01610868565b92505060a061092b89828a01610868565b9150509295509295509295565b5f82825260208201905092915050565b7f46756e6374696f6e206661696c656400000000000000000000000000000000005f82015250565b5f61097c600f83610938565b915061098782610948565b602082019050919050565b5f6020820190508181035f8301526109a981610970565b9050919050565b7f4e487b71000000000000000000000000000000000000000000000000000000005f52603260045260245ffd5b5f81519050919050565b5f81905092915050565b5f5b83811015610a0e5780820151818401526020810190506109f3565b5f8484015250505050565b5f610a23826109dd565b610a2d81856109e7565b9350610a3d8185602086016109f1565b80840191505092915050565b5f610a548284610a19565b915081905092915050565b7f4e487b71000000000000000000000000000000000000000000000000000000005f52601160045260245ffd5b5f610a968261087c565b91507fffffffffffffffffffffffffffffffffffffffffffffffffffffffffffffffff8203610ac857610ac7610a5f565b5b600182019050919050565b610adc81610841565b82525050565b610aeb8161087c565b82525050565b5f60029050919050565b5f81905092915050565b5f819050919050565b610b1781610841565b82525050565b5f610b288383610b0e565b60208301905092915050565b5f602082019050919050565b610b4981610af1565b610b538184610afb565b9250610b5e82610b05565b805f5b83811015610b8e578151610b758782610b1d565b9650610b8083610b34565b925050600181019050610b61565b505050505050565b5f60c082019050610ba95f830188610ad3565b610bb66020830187610ae2565b610bc36040830186610ae2565b610bd06060830185610b40565b610bdd60a0830184610ad3565b9695505050505050565b5f60a082019050610bfa5f830187610ad3565b610c076020830186610ae2565b610c146040830185610b40565b610c216080830184610ad3565b95945050505050565b610c33816107ef565b8114610c3d575f80fd5b50565b5f81519050610c4e81610c2a565b92915050565b5f60208284031215610c6957610c68610582565b5b5f610c7684828501610c40565b9150509291505056fea26469706673582212208a0c5d8edad4018270e97c840b88586a0e8f54b346ed63a417567fa0c639fc8964736f6c63430008140033",
  "linkReferences": {},
  "deployedLinkReferences": {}
}