{
  "_format": "hh-sol-artifact-1",
  "contractName": "Pool",
  "sourceName": "contracts/contract/Pool.sol",
  "abi": [
    {
      "inputs": [
        {
          "internalType": "string",
          "name": "_name",
          "type": "string"
        },
        {
          "internalType": "string",
          "name": "_symbol",
          "type": "string"
        }
      ],
      "stateMutability": "nonpayable",
      "type": "constructor"
    },
    {
      "anonymous": false,
      "inputs": [
        {
          "indexed": true,
          "internalType": "address",
          "name": "owner",
          "type": "address"
        },
        {
          "indexed": true,
          "internalType": "address",
          "name": "spender",
          "type": "address"
        },
        {
          "indexed": false,
          "internalType": "uint256",
          "name": "value",
          "type": "uint256"
        }
      ],
      "name": "Approval",
      "type": "event"
    },
    {
      "anonymous": false,
      "inputs": [
        {
          "indexed": true,
          "internalType": "address",
          "name": "sender",
          "type": "address"
        },
        {
          "indexed": false,
          "internalType": "uint256",
          "name": "amount0",
          "type": "uint256"
        },
        {
          "indexed": false,
          "internalType": "uint256",
          "name": "amount1",
          "type": "uint256"
        },
        {
          "indexed": true,
          "internalType": "address",
          "name": "to",
          "type": "address"
        }
      ],
      "name": "Burn",
      "type": "event"
    },
    {
      "anonymous": false,
      "inputs": [
        {
          "indexed": true,
          "internalType": "address",
          "name": "sender",
          "type": "address"
        },
        {
          "indexed": false,
          "internalType": "uint256",
          "name": "amount0",
          "type": "uint256"
        },
        {
          "indexed": false,
          "internalType": "uint256",
          "name": "amount1",
          "type": "uint256"
        }
      ],
      "name": "Mint",
      "type": "event"
    },
    {
      "anonymous": false,
      "inputs": [
        {
          "indexed": false,
          "internalType": "uint112",
          "name": "reserve0",
          "type": "uint112"
        },
        {
          "indexed": false,
          "internalType": "uint112",
          "name": "reserve1",
          "type": "uint112"
        }
      ],
      "name": "Sync",
      "type": "event"
    },
    {
      "anonymous": false,
      "inputs": [
        {
          "indexed": true,
          "internalType": "address",
          "name": "from",
          "type": "address"
        },
        {
          "indexed": true,
          "internalType": "address",
          "name": "to",
          "type": "address"
        },
        {
          "indexed": false,
          "internalType": "uint256",
          "name": "value",
          "type": "uint256"
        }
      ],
      "name": "Transfer",
      "type": "event"
    },
    {
      "inputs": [
        {
          "internalType": "address",
          "name": "owner",
          "type": "address"
        },
        {
          "internalType": "uint256",
          "name": "amount",
          "type": "uint256"
        }
      ],
      "name": "_burn",
      "outputs": [],
      "stateMutability": "nonpayable",
      "type": "function"
    },
    {
      "inputs": [
        {
          "internalType": "address",
          "name": "to",
          "type": "address"
        },
        {
          "internalType": "uint256",
          "name": "amount",
          "type": "uint256"
        }
      ],
      "name": "_mint",
      "outputs": [],
      "stateMutability": "nonpayable",
      "type": "function"
    },
    {
      "inputs": [
        {
          "internalType": "uint256",
          "name": "balance0",
          "type": "uint256"
        },
        {
          "internalType": "uint256",
          "name": "balance1",
          "type": "uint256"
        },
        {
          "internalType": "uint112",
          "name": "_reserve0",
          "type": "uint112"
        },
        {
          "internalType": "uint112",
          "name": "_reserve1",
          "type": "uint112"
        }
      ],
      "name": "_update",
      "outputs": [],
      "stateMutability": "nonpayable",
      "type": "function"
    },
    {
      "inputs": [
        {
          "internalType": "address",
          "name": "owner",
          "type": "address"
        },
        {
          "internalType": "address",
          "name": "spender",
          "type": "address"
        }
      ],
      "name": "allowance",
      "outputs": [
        {
          "internalType": "uint256",
          "name": "",
          "type": "uint256"
        }
      ],
      "stateMutability": "view",
      "type": "function"
    },
    {
      "inputs": [
        {
          "internalType": "address",
          "name": "",
          "type": "address"
        },
        {
          "internalType": "address",
          "name": "",
          "type": "address"
        }
      ],
      "name": "allowances",
      "outputs": [
        {
          "internalType": "uint256",
          "name": "",
          "type": "uint256"
        }
      ],
      "stateMutability": "view",
      "type": "function"
    },
    {
      "inputs": [
        {
          "internalType": "address",
          "name": "spender",
          "type": "address"
        },
        {
          "internalType": "uint256",
          "name": "amount",
          "type": "uint256"
        }
      ],
      "name": "approve",
      "outputs": [
        {
          "internalType": "bool",
          "name": "",
          "type": "bool"
        }
      ],
      "stateMutability": "nonpayable",
      "type": "function"
    },
    {
      "inputs": [
        {
          "internalType": "address",
          "name": "account",
          "type": "address"
        }
      ],
      "name": "balanceOf",
      "outputs": [
        {
          "internalType": "uint256",
          "name": "",
          "type": "uint256"
        }
      ],
      "stateMutability": "view",
      "type": "function"
    },
    {
      "inputs": [
        {
          "internalType": "address",
          "name": "",
          "type": "address"
        }
      ],
      "name": "balances",
      "outputs": [
        {
          "internalType": "uint256",
          "name": "",
          "type": "uint256"
        }
      ],
      "stateMutability": "view",
      "type": "function"
    },
    {
      "inputs": [],
      "name": "blockTimestampLast",
      "outputs": [
        {
          "internalType": "uint32",
          "name": "",
          "type": "uint32"
        }
      ],
      "stateMutability": "view",
      "type": "function"
    },
    {
      "inputs": [
        {
          "internalType": "address",
          "name": "to",
          "type": "address"
        },
        {
          "internalType": "uint256",
          "name": "percentage",
          "type": "uint256"
        }
      ],
      "name": "burn",
      "outputs": [
        {
          "internalType": "bool",
          "name": "",
          "type": "bool"
        }
      ],
      "stateMutability": "nonpayable",
      "type": "function"
    },
    {
      "inputs": [
        {
          "internalType": "address",
          "name": "validator",
          "type": "address"
        }
      ],
      "name": "claimFee",
      "outputs": [
        {
          "internalType": "bool",
          "name": "",
          "type": "bool"
        }
      ],
      "stateMutability": "nonpayable",
      "type": "function"
    },
    {
      "inputs": [],
      "name": "dataAddress",
      "outputs": [
        {
          "internalType": "address",
          "name": "",
          "type": "address"
        }
      ],
      "stateMutability": "view",
      "type": "function"
    },
    {
      "inputs": [],
      "name": "factory",
      "outputs": [
        {
          "internalType": "address",
          "name": "",
          "type": "address"
        }
      ],
      "stateMutability": "view",
      "type": "function"
    },
    {
      "inputs": [],
      "name": "getReserves",
      "outputs": [
        {
          "internalType": "uint112",
          "name": "_reserve0",
          "type": "uint112"
        },
        {
          "internalType": "uint112",
          "name": "_reserve1",
          "type": "uint112"
        },
        {
          "internalType": "uint32",
          "name": "_blockTimestampLast",
          "type": "uint32"
        }
      ],
      "stateMutability": "view",
      "type": "function"
    },
    {
      "inputs": [
        {
          "internalType": "address",
          "name": "validator",
          "type": "address"
        }
      ],
      "name": "getUserLiquidity",
      "outputs": [
        {
          "internalType": "uint256",
          "name": "",
          "type": "uint256"
        },
        {
          "internalType": "uint256",
          "name": "",
          "type": "uint256"
        }
      ],
      "stateMutability": "view",
      "type": "function"
    },
    {
      "inputs": [
        {
          "internalType": "address",
          "name": "_token0",
          "type": "address"
        },
        {
          "internalType": "address",
          "name": "_token1",
          "type": "address"
        }
      ],
      "name": "initialize",
      "outputs": [],
      "stateMutability": "nonpayable",
      "type": "function"
    },
    {
      "inputs": [],
      "name": "kLast",
      "outputs": [
        {
          "internalType": "uint256",
          "name": "",
          "type": "uint256"
        }
      ],
      "stateMutability": "view",
      "type": "function"
    },
    {
      "inputs": [
        {
          "internalType": "address",
          "name": "to",
          "type": "address"
        }
      ],
      "name": "mint",
      "outputs": [
        {
          "internalType": "bool",
          "name": "",
          "type": "bool"
        }
      ],
      "stateMutability": "nonpayable",
      "type": "function"
    },
    {
      "inputs": [],
      "name": "name",
      "outputs": [
        {
          "internalType": "string",
          "name": "",
          "type": "string"
        }
      ],
      "stateMutability": "view",
      "type": "function"
    },
    {
      "inputs": [
        {
          "internalType": "address",
          "name": "to",
          "type": "address"
        }
      ],
      "name": "skim",
      "outputs": [],
      "stateMutability": "nonpayable",
      "type": "function"
    },
    {
      "inputs": [],
      "name": "symbol",
      "outputs": [
        {
          "internalType": "string",
          "name": "",
          "type": "string"
        }
      ],
      "stateMutability": "view",
      "type": "function"
    },
    {
      "inputs": [],
      "name": "sync",
      "outputs": [],
      "stateMutability": "nonpayable",
      "type": "function"
    },
    {
      "inputs": [],
      "name": "token0",
      "outputs": [
        {
          "internalType": "address",
          "name": "",
          "type": "address"
        }
      ],
      "stateMutability": "view",
      "type": "function"
    },
    {
      "inputs": [],
      "name": "token1",
      "outputs": [
        {
          "internalType": "address",
          "name": "",
          "type": "address"
        }
      ],
      "stateMutability": "view",
      "type": "function"
    },
    {
      "inputs": [
        {
          "internalType": "string",
          "name": "_imageUri",
          "type": "string"
        }
      ],
      "name": "tokenURI",
      "outputs": [
        {
          "internalType": "string",
          "name": "",
          "type": "string"
        }
      ],
      "stateMutability": "pure",
      "type": "function"
    },
    {
      "inputs": [],
      "name": "totalSupply",
      "outputs": [
        {
          "internalType": "uint256",
          "name": "",
          "type": "uint256"
        }
      ],
      "stateMutability": "view",
      "type": "function"
    },
    {
      "inputs": [
        {
          "internalType": "address",
          "name": "to",
          "type": "address"
        },
        {
          "internalType": "uint256",
          "name": "amount",
          "type": "uint256"
        }
      ],
      "name": "transfer",
      "outputs": [
        {
          "internalType": "bool",
          "name": "",
          "type": "bool"
        }
      ],
      "stateMutability": "nonpayable",
      "type": "function"
    },
    {
      "inputs": [
        {
          "internalType": "address",
          "name": "from",
          "type": "address"
        },
        {
          "internalType": "address",
          "name": "to",
          "type": "address"
        },
        {
          "internalType": "uint256",
          "name": "value",
          "type": "uint256"
        }
      ],
      "name": "transferFrom",
      "outputs": [
        {
          "internalType": "bool",
          "name": "",
          "type": "bool"
        }
      ],
      "stateMutability": "nonpayable",
      "type": "function"
    },
    {
      "inputs": [],
      "name": "uri",
      "outputs": [
        {
          "internalType": "string",
          "name": "",
          "type": "string"
        }
      ],
      "stateMutability": "view",
      "type": "function"
    }
  ],
  "bytecode": "0x608060405260126003556001600e553480156200001a575f80fd5b5060405162003c8a38038062003c8a833981810160405281019062000040919062000367565b81815f60405180602001604052805f815250835f908162000062919062000621565b50826001908162000074919062000621565b5062000086816200011260201b60201c565b6002908162000096919062000621565b50620000c633600354600a620000ad919062000882565b84620000ba9190620008d2565b6200014e60201b60201c565b505050503360075f6101000a81548173ffffffffffffffffffffffffffffffffffffffff021916908373ffffffffffffffffffffffffffffffffffffffff1602179055505050620009bd565b606062000124620001c160201b60201c565b82604051602001620001389291906200095c565b6040516020818303038152906040529050919050565b8060055f8473ffffffffffffffffffffffffffffffffffffffff1673ffffffffffffffffffffffffffffffffffffffff1681526020019081526020015f205f8282546200019c919062000983565b925050819055508060045f828254620001b6919062000983565b925050819055505050565b606060405180606001604052806035815260200162003c5560359139905090565b5f604051905090565b5f80fd5b5f80fd5b5f80fd5b5f80fd5b5f601f19601f8301169050919050565b7f4e487b71000000000000000000000000000000000000000000000000000000005f52604160045260245ffd5b6200024382620001fb565b810181811067ffffffffffffffff821117156200026557620002646200020b565b5b80604052505050565b5f62000279620001e2565b905062000287828262000238565b919050565b5f67ffffffffffffffff821115620002a957620002a86200020b565b5b620002b482620001fb565b9050602081019050919050565b5f5b83811015620002e0578082015181840152602081019050620002c3565b5f8484015250505050565b5f62000301620002fb846200028c565b6200026e565b90508281526020810184848401111562000320576200031f620001f7565b5b6200032d848285620002c1565b509392505050565b5f82601f8301126200034c576200034b620001f3565b5b81516200035e848260208601620002eb565b91505092915050565b5f806040838503121562000380576200037f620001eb565b5b5f83015167ffffffffffffffff811115620003a0576200039f620001ef565b5b620003ae8582860162000335565b925050602083015167ffffffffffffffff811115620003d257620003d1620001ef565b5b620003e08582860162000335565b9150509250929050565b5f81519050919050565b7f4e487b71000000000000000000000000000000000000000000000000000000005f52602260045260245ffd5b5f60028204905060018216806200043957607f821691505b6020821081036200044f576200044e620003f4565b5b50919050565b5f819050815f5260205f209050919050565b5f6020601f8301049050919050565b5f82821b905092915050565b5f60088302620004b37fffffffffffffffffffffffffffffffffffffffffffffffffffffffffffffffff8262000476565b620004bf868362000476565b95508019841693508086168417925050509392505050565b5f819050919050565b5f819050919050565b5f6200050962000503620004fd84620004d7565b620004e0565b620004d7565b9050919050565b5f819050919050565b6200052483620004e9565b6200053c620005338262000510565b84845462000482565b825550505050565b5f90565b6200055262000544565b6200055f81848462000519565b505050565b5b8181101562000586576200057a5f8262000548565b60018101905062000565565b5050565b601f821115620005d5576200059f8162000455565b620005aa8462000467565b81016020851015620005ba578190505b620005d2620005c98562000467565b83018262000564565b50505b505050565b5f82821c905092915050565b5f620005f75f1984600802620005da565b1980831691505092915050565b5f620006118383620005e6565b9150826002028217905092915050565b6200062c82620003ea565b67ffffffffffffffff8111156200064857620006476200020b565b5b62000654825462000421565b620006618282856200058a565b5f60209050601f83116001811462000697575f841562000682578287015190505b6200068e858262000604565b865550620006fd565b601f198416620006a78662000455565b5f5b82811015620006d057848901518255600182019150602085019450602081019050620006a9565b86831015620006f05784890151620006ec601f891682620005e6565b8355505b6001600288020188555050505b505050505050565b7f4e487b71000000000000000000000000000000000000000000000000000000005f52601160045260245ffd5b5f8160011c9050919050565b5f808291508390505b60018511156200078f5780860481111562000767576200076662000705565b5b6001851615620007775780820291505b8081029050620007878562000732565b945062000747565b94509492505050565b5f82620007a957600190506200087b565b81620007b8575f90506200087b565b8160018114620007d15760028114620007dc5762000812565b60019150506200087b565b60ff841115620007f157620007f062000705565b5b8360020a9150848211156200080b576200080a62000705565b5b506200087b565b5060208310610133831016604e8410600b84101617156200084c5782820a90508381111562000846576200084562000705565b5b6200087b565b6200085b84848460016200073e565b9250905081840481111562000875576200087462000705565b5b81810290505b9392505050565b5f6200088e82620004d7565b91506200089b83620004d7565b9250620008ca7fffffffffffffffffffffffffffffffffffffffffffffffffffffffffffffffff848462000798565b905092915050565b5f620008de82620004d7565b9150620008eb83620004d7565b9250828202620008fb81620004d7565b9150828204841483151762000915576200091462000705565b5b5092915050565b5f81905092915050565b5f6200093282620003ea565b6200093e81856200091c565b935062000950818560208601620002c1565b80840191505092915050565b5f62000969828562000926565b915062000977828462000926565b91508190509392505050565b5f6200098f82620004d7565b91506200099c83620004d7565b9250828201905080821115620009b757620009b662000705565b5b92915050565b61328a80620009cb5f395ff3fe608060405234801561000f575f80fd5b50600436106101cd575f3560e01c80636ebc51e111610102578063bc25cf77116100a0578063dbbdd9351161006f578063dbbdd9351461056b578063dd62ed3e1461059c578063eac989f8146105cc578063fff6cae9146105ea576101cd565b8063bc25cf77146104f5578063c45a015514610511578063c5700a021461052f578063d21220a71461054d576101cd565b80637dc0a1fa116100dc5780637dc0a1fa1461045b57806395d89b41146104775780639dc29fac14610495578063a9059cbb146104c5576101cd565b80636ebc51e1146103dd57806370a082311461040d5780637464fc3d1461043d576101cd565b806327e235e31161016f5780634e6ec247116101495780634e6ec2471461034557806355b6ed5c146103615780636161eb18146103915780636a627842146103ad576101cd565b806327e235e3146102c9578063485cc955146102f95780634cf12d2614610315576101cd565b80630dfe1681116101ab5780630dfe16811461023f57806318160ddd1461025d5780631b6550541461027b57806323b872dd14610299576101cd565b806306fdde03146101d15780630902f1ac146101ef578063095ea7b31461020f575b5f80fd5b6101d96105f4565b6040516101e691906125c5565b60405180910390f35b6101f761067f565b6040516102069392919061262b565b60405180910390f35b610229600480360381019061022491906126fe565b6106d8565b6040516102369190612756565b60405180910390f35b610247610760565b604051610254919061277e565b60405180910390f35b610265610785565b60405161027291906127a6565b60405180910390f35b61028361078b565b604051610290919061277e565b60405180910390f35b6102b360048036038101906102ae91906127bf565b6107b0565b6040516102c09190612756565b60405180910390f35b6102e360048036038101906102de919061280f565b610862565b6040516102f091906127a6565b60405180910390f35b610313600480360381019061030e919061283a565b610877565b005b61032f600480360381019061032a91906129a4565b610953565b60405161033c91906125c5565b60405180910390f35b61035f600480360381019061035a91906126fe565b610985565b005b61037b6004803603810190610376919061283a565b6109f4565b60405161038891906127a6565b60405180910390f35b6103ab60048036038101906103a691906126fe565b610a14565b005b6103c760048036038101906103c2919061280f565b610a83565b6040516103d49190612756565b60405180910390f35b6103f760048036038101906103f2919061280f565b610f74565b6040516104049190612756565b60405180910390f35b6104276004803603810190610422919061280f565b611233565b60405161043491906127a6565b60405180910390f35b610445611279565b60405161045291906127a6565b60405180910390f35b61047560048036038101906104709190612a15565b61127f565b005b61047f611402565b60405161048c91906125c5565b60405180910390f35b6104af60048036038101906104aa91906126fe565b61148e565b6040516104bc9190612756565b60405180910390f35b6104df60048036038101906104da91906126fe565b611c3c565b6040516104ec9190612756565b60405180910390f35b61050f600480360381019061050a919061280f565b611ced565b005b610519611d90565b604051610526919061277e565b60405180910390f35b610537611db5565b6040516105449190612a79565b60405180910390f35b610555611dca565b604051610562919061277e565b60405180910390f35b6105856004803603810190610580919061280f565b611def565b604051610593929190612a92565b60405180910390f35b6105b660048036038101906105b1919061283a565b611ecb565b6040516105c391906127a6565b60405180910390f35b6105d4611f4d565b6040516105e191906125c5565b60405180910390f35b6105f2611fd9565b005b5f805461060090612ae6565b80601f016020809104026020016040519081016040528092919081815260200182805461062c90612ae6565b80156106775780601f1061064e57610100808354040283529160200191610677565b820191905f5260205f20905b81548152906001019060200180831161065a57829003601f168201915b505050505081565b5f805f600b5f9054906101000a90046dffffffffffffffffffffffffffff169250600b600e9054906101000a90046dffffffffffffffffffffffffffff169150600d5f9054906101000a900463ffffffff169050909192565b5f8160065f3373ffffffffffffffffffffffffffffffffffffffff1673ffffffffffffffffffffffffffffffffffffffff1681526020019081526020015f205f8573ffffffffffffffffffffffffffffffffffffffff1673ffffffffffffffffffffffffffffffffffffffff1681526020019081526020015f20819055506001905092915050565b60095f9054906101000a900473ffffffffffffffffffffffffffffffffffffffff1681565b60045481565b60085f9054906101000a900473ffffffffffffffffffffffffffffffffffffffff1681565b5f8160055f8673ffffffffffffffffffffffffffffffffffffffff1673ffffffffffffffffffffffffffffffffffffffff1681526020019081526020015f205f8282546107fd9190612b43565b925050819055508160055f8573ffffffffffffffffffffffffffffffffffffffff1673ffffffffffffffffffffffffffffffffffffffff1681526020019081526020015f205f8282546108509190612b76565b92505081905550600190509392505050565b6005602052805f5260405f205f915090505481565b60075f9054906101000a900473ffffffffffffffffffffffffffffffffffffffff1673ffffffffffffffffffffffffffffffffffffffff163373ffffffffffffffffffffffffffffffffffffffff16146108cf575f80fd5b8160095f6101000a81548173ffffffffffffffffffffffffffffffffffffffff021916908373ffffffffffffffffffffffffffffffffffffffff16021790555080600a5f6101000a81548173ffffffffffffffffffffffffffffffffffffffff021916908373ffffffffffffffffffffffffffffffffffffffff1602179055505050565b606061095d6121a2565b8260405160200161096f929190612be3565b6040516020818303038152906040529050919050565b8060055f8473ffffffffffffffffffffffffffffffffffffffff1673ffffffffffffffffffffffffffffffffffffffff1681526020019081526020015f205f8282546109d19190612b76565b925050819055508060045f8282546109e99190612b76565b925050819055505050565b6006602052815f5260405f20602052805f5260405f205f91509150505481565b8060055f8473ffffffffffffffffffffffffffffffffffffffff1673ffffffffffffffffffffffffffffffffffffffff1681526020019081526020015f205f828254610a609190612b43565b925050819055508060045f828254610a789190612b43565b925050819055505050565b5f6001600e5414610ac9576040517f08c379a0000000000000000000000000000000000000000000000000000000008152600401610ac090612c50565b60405180910390fd5b5f600e819055505f60095f9054906101000a900473ffffffffffffffffffffffffffffffffffffffff1673ffffffffffffffffffffffffffffffffffffffff166370a08231306040518263ffffffff1660e01b8152600401610b2b919061277e565b602060405180830381865afa158015610b46573d5f803e3d5ffd5b505050506040513d601f19601f82011682018060405250810190610b6a9190612c82565b90505f600a5f9054906101000a900473ffffffffffffffffffffffffffffffffffffffff1673ffffffffffffffffffffffffffffffffffffffff166370a08231306040518263ffffffff1660e01b8152600401610bc7919061277e565b602060405180830381865afa158015610be2573d5f803e3d5ffd5b505050506040513d601f19601f82011682018060405250810190610c069190612c82565b90505f610c3e83600b5f9054906101000a90046dffffffffffffffffffffffffffff166dffffffffffffffffffffffffffff166121c2565b90505f610c7783600b600e9054906101000a90046dffffffffffffffffffffffffffff166dffffffffffffffffffffffffffff166121c2565b90505f610cbb600b5f9054906101000a90046dffffffffffffffffffffffffffff16600b600e9054906101000a90046dffffffffffffffffffffffffffff1661222d565b90505f8060045403610cf757610ce4610cdc610cd786866123c2565b612441565b6103e86121c2565b9050610cf25f6103e8610985565b610d87565b610d84600b5f9054906101000a90046dffffffffffffffffffffffffffff166dffffffffffffffffffffffffffff16610d32866004546123c2565b610d3c9190612cda565b600b600e9054906101000a90046dffffffffffffffffffffffffffff166dffffffffffffffffffffffffffff16610d75866004546123c2565b610d7f9190612cda565b6124b8565b90505b5f8111610dc9576040517f08c379a0000000000000000000000000000000000000000000000000000000008152600401610dc090612d54565b60405180910390fd5b610dd38882610985565b60085f9054906101000a900473ffffffffffffffffffffffffffffffffffffffff1673ffffffffffffffffffffffffffffffffffffffff1663eb201d99308a6040518363ffffffff1660e01b8152600401610e2f929190612d72565b5f604051808303815f87803b158015610e46575f80fd5b505af1158015610e58573d5f803e3d5ffd5b50505050610e9f8686600b5f9054906101000a90046dffffffffffffffffffffffffffff16600b600e9054906101000a90046dffffffffffffffffffffffffffff1661127f565b8115610f0d57610f06600b5f9054906101000a90046dffffffffffffffffffffffffffff166dffffffffffffffffffffffffffff16600b600e9054906101000a90046dffffffffffffffffffffffffffff166dffffffffffffffffffffffffffff166123c2565b600c819055505b3373ffffffffffffffffffffffffffffffffffffffff167f4c209b5fc8ad50758f13e2e1088ba56a560dff690a1c6fef26394f4c03821c4f8585604051610f55929190612a92565b60405180910390a2600196505050505050506001600e81905550919050565b5f805f60085f9054906101000a900473ffffffffffffffffffffffffffffffffffffffff1673ffffffffffffffffffffffffffffffffffffffff1663238c45eb85306040518363ffffffff1660e01b8152600401610fd3929190612d72565b6040805180830381865afa158015610fed573d5f803e3d5ffd5b505050506040513d601f19601f820116820180604052508101906110119190612d99565b915091505f82118061102257505f81115b611061576040517f08c379a000000000000000000000000000000000000000000000000000000000815260040161105890612e21565b60405180910390fd5b60095f9054906101000a900473ffffffffffffffffffffffffffffffffffffffff1673ffffffffffffffffffffffffffffffffffffffff1663a9059cbb85846040518363ffffffff1660e01b81526004016110bd929190612e3f565b6020604051808303815f875af11580156110d9573d5f803e3d5ffd5b505050506040513d601f19601f820116820180604052508101906110fd9190612e90565b50600a5f9054906101000a900473ffffffffffffffffffffffffffffffffffffffff1673ffffffffffffffffffffffffffffffffffffffff1663a9059cbb85836040518363ffffffff1660e01b815260040161115a929190612e3f565b6020604051808303815f875af1158015611176573d5f803e3d5ffd5b505050506040513d601f19601f8201168201806040525081019061119a9190612e90565b5060085f9054906101000a900473ffffffffffffffffffffffffffffffffffffffff1673ffffffffffffffffffffffffffffffffffffffff1663bdd6be0785305f806040518563ffffffff1660e01b81526004016111fb9493929190612efd565b5f604051808303815f87803b158015611212575f80fd5b505af1158015611224573d5f803e3d5ffd5b50505050600192505050919050565b5f60055f8373ffffffffffffffffffffffffffffffffffffffff1673ffffffffffffffffffffffffffffffffffffffff1681526020019081526020015f20549050919050565b600c5481565b6dffffffffffffffffffffffffffff801684111580156112af57506dffffffffffffffffffffffffffff80168311155b6112ee576040517f08c379a00000000000000000000000000000000000000000000000000000000081526004016112e590612f8a565b60405180910390fd5b5f640100000000426113009190612fa8565b905084600b5f6101000a8154816dffffffffffffffffffffffffffff02191690836dffffffffffffffffffffffffffff16021790555083600b600e6101000a8154816dffffffffffffffffffffffffffff02191690836dffffffffffffffffffffffffffff16021790555080600d5f6101000a81548163ffffffff021916908363ffffffff1602179055507f1c411e9a96e071241c2f21f7726b17ae89e3cab4c78be50e062b03a9fffbbad1600b5f9054906101000a90046dffffffffffffffffffffffffffff16600b600e9054906101000a90046dffffffffffffffffffffffffffff166040516113f3929190612fd8565b60405180910390a15050505050565b6001805461140f90612ae6565b80601f016020809104026020016040519081016040528092919081815260200182805461143b90612ae6565b80156114865780601f1061145d57610100808354040283529160200191611486565b820191905f5260205f20905b81548152906001019060200180831161146957829003601f168201915b505050505081565b5f6001600e54146114d4576040517f08c379a00000000000000000000000000000000000000000000000000000000081526004016114cb90612c50565b60405180910390fd5b5f600e819055505f60095f9054906101000a900473ffffffffffffffffffffffffffffffffffffffff1673ffffffffffffffffffffffffffffffffffffffff166370a08231306040518263ffffffff1660e01b8152600401611536919061277e565b602060405180830381865afa158015611551573d5f803e3d5ffd5b505050506040513d601f19601f820116820180604052508101906115759190612c82565b90505f600a5f9054906101000a900473ffffffffffffffffffffffffffffffffffffffff1673ffffffffffffffffffffffffffffffffffffffff166370a08231306040518263ffffffff1660e01b81526004016115d2919061277e565b602060405180830381865afa1580156115ed573d5f803e3d5ffd5b505050506040513d601f19601f820116820180604052508101906116119190612c82565b90505f60055f3073ffffffffffffffffffffffffffffffffffffffff1673ffffffffffffffffffffffffffffffffffffffff1681526020019081526020015f205490505f611696600b5f9054906101000a90046dffffffffffffffffffffffffffff16600b600e9054906101000a90046dffffffffffffffffffffffffffff1661222d565b90505f606487846116a79190612fff565b6116b19190612cda565b90505f81116116f5576040517f08c379a00000000000000000000000000000000000000000000000000000000081526004016116ec9061308a565b60405180910390fd5b5f60045461170383886123c2565b61170d9190612cda565b90505f60045461171d84886123c2565b6117279190612cda565b90505f8211801561173757505f81115b611776576040517f08c379a000000000000000000000000000000000000000000000000000000000815260040161176d9061308a565b60405180910390fd5b6117803084610a14565b60095f9054906101000a900473ffffffffffffffffffffffffffffffffffffffff1673ffffffffffffffffffffffffffffffffffffffff1663a9059cbb8b846040518363ffffffff1660e01b81526004016117dc929190612e3f565b6020604051808303815f875af11580156117f8573d5f803e3d5ffd5b505050506040513d601f19601f8201168201806040525081019061181c9190612e90565b50600a5f9054906101000a900473ffffffffffffffffffffffffffffffffffffffff1673ffffffffffffffffffffffffffffffffffffffff1663a9059cbb8b836040518363ffffffff1660e01b8152600401611879929190612e3f565b6020604051808303815f875af1158015611895573d5f803e3d5ffd5b505050506040513d601f19601f820116820180604052508101906118b99190612e90565b5060095f9054906101000a900473ffffffffffffffffffffffffffffffffffffffff1673ffffffffffffffffffffffffffffffffffffffff166370a08231306040518263ffffffff1660e01b8152600401611914919061277e565b602060405180830381865afa15801561192f573d5f803e3d5ffd5b505050506040513d601f19601f820116820180604052508101906119539190612c82565b9650600a5f9054906101000a900473ffffffffffffffffffffffffffffffffffffffff1673ffffffffffffffffffffffffffffffffffffffff166370a08231306040518263ffffffff1660e01b81526004016119af919061277e565b602060405180830381865afa1580156119ca573d5f803e3d5ffd5b505050506040513d601f19601f820116820180604052508101906119ee9190612c82565b955060648903611b0b5760085f9054906101000a900473ffffffffffffffffffffffffffffffffffffffff1673ffffffffffffffffffffffffffffffffffffffff1663369dadff8b306040518363ffffffff1660e01b8152600401611a54929190612d72565b5f604051808303815f87803b158015611a6b575f80fd5b505af1158015611a7d573d5f803e3d5ffd5b5050505060085f9054906101000a900473ffffffffffffffffffffffffffffffffffffffff1673ffffffffffffffffffffffffffffffffffffffff16630202787b308c6040518363ffffffff1660e01b8152600401611add929190612d72565b5f604051808303815f87803b158015611af4575f80fd5b505af1158015611b06573d5f803e3d5ffd5b505050505b611b4e8787600b5f9054906101000a90046dffffffffffffffffffffffffffff16600b600e9054906101000a90046dffffffffffffffffffffffffffff1661127f565b8315611bbc57611bb5600b5f9054906101000a90046dffffffffffffffffffffffffffff166dffffffffffffffffffffffffffff16600b600e9054906101000a90046dffffffffffffffffffffffffffff166dffffffffffffffffffffffffffff166123c2565b600c819055505b8973ffffffffffffffffffffffffffffffffffffffff163373ffffffffffffffffffffffffffffffffffffffff167fdccd412f0b1252819cb1fd330b93224ca42612892bb3f4f789976e6d819364968484604051611c1b929190612a92565b60405180910390a360019750505050505050506001600e8190555092915050565b5f8160055f3373ffffffffffffffffffffffffffffffffffffffff1673ffffffffffffffffffffffffffffffffffffffff1681526020019081526020015f205f828254611c899190612b43565b925050819055508160055f8573ffffffffffffffffffffffffffffffffffffffff1673ffffffffffffffffffffffffffffffffffffffff1681526020019081526020015f205f828254611cdc9190612b76565b925050819055506001905092915050565b6001600e5414611d32576040517f08c379a0000000000000000000000000000000000000000000000000000000008152600401611d2990612c50565b60405180910390fd5b5f600e819055505f60095f9054906101000a900473ffffffffffffffffffffffffffffffffffffffff1690505f600a5f9054906101000a900473ffffffffffffffffffffffffffffffffffffffff16905050506001600e8190555050565b60075f9054906101000a900473ffffffffffffffffffffffffffffffffffffffff1681565b600d5f9054906101000a900463ffffffff1681565b600a5f9054906101000a900473ffffffffffffffffffffffffffffffffffffffff1681565b5f805f60055f8573ffffffffffffffffffffffffffffffffffffffff1673ffffffffffffffffffffffffffffffffffffffff1681526020019081526020015f205490505f600454611e6b83600b5f9054906101000a90046dffffffffffffffffffffffffffff166dffffffffffffffffffffffffffff166123c2565b611e759190612cda565b90505f600454611eb184600b600e9054906101000a90046dffffffffffffffffffffffffffff166dffffffffffffffffffffffffffff166123c2565b611ebb9190612cda565b9050818194509450505050915091565b5f60065f8473ffffffffffffffffffffffffffffffffffffffff1673ffffffffffffffffffffffffffffffffffffffff1681526020019081526020015f205f8373ffffffffffffffffffffffffffffffffffffffff1673ffffffffffffffffffffffffffffffffffffffff1681526020019081526020015f2054905092915050565b60028054611f5a90612ae6565b80601f0160208091040260200160405190810160405280929190818152602001828054611f8690612ae6565b8015611fd15780601f10611fa857610100808354040283529160200191611fd1565b820191905f5260205f20905b815481529060010190602001808311611fb457829003601f168201915b505050505081565b6001600e541461201e576040517f08c379a000000000000000000000000000000000000000000000000000000000815260040161201590612c50565b60405180910390fd5b5f600e8190555061219860095f9054906101000a900473ffffffffffffffffffffffffffffffffffffffff1673ffffffffffffffffffffffffffffffffffffffff166370a08231306040518263ffffffff1660e01b8152600401612082919061277e565b602060405180830381865afa15801561209d573d5f803e3d5ffd5b505050506040513d601f19601f820116820180604052508101906120c19190612c82565b600a5f9054906101000a900473ffffffffffffffffffffffffffffffffffffffff1673ffffffffffffffffffffffffffffffffffffffff166370a08231306040518263ffffffff1660e01b815260040161211b919061277e565b602060405180830381865afa158015612136573d5f803e3d5ffd5b505050506040513d601f19601f8201168201806040525081019061215a9190612c82565b600b5f9054906101000a90046dffffffffffffffffffffffffffff16600b600e9054906101000a90046dffffffffffffffffffffffffffff1661127f565b6001600e81905550565b606060405180606001604052806035815260200161322060359139905090565b5f8082846121d09190612b43565b90508383856121df9190612b43565b9150811115612223576040517f08c379a000000000000000000000000000000000000000000000000000000000815260040161221a906130f2565b60405180910390fd5b8091505092915050565b5f8060075f9054906101000a900473ffffffffffffffffffffffffffffffffffffffff1673ffffffffffffffffffffffffffffffffffffffff1663017e7e586040518163ffffffff1660e01b8152600401602060405180830381865afa158015612299573d5f803e3d5ffd5b505050506040513d601f19601f820116820180604052508101906122bd9190613124565b90505f73ffffffffffffffffffffffffffffffffffffffff168173ffffffffffffffffffffffffffffffffffffffff16141591505f600c54905082156123aa575f81146123a5575f612337612332876dffffffffffffffffffffffffffff16876dffffffffffffffffffffffffffff166123c2565b612441565b90505f61234383612441565b9050808211156123a2575f61236360045461235e85856121c2565b6123c2565b90505f61237a6123748560056123c2565b846124d0565b90505f81836123899190612cda565b90505f81111561239e5761239d8782610985565b5b5050505b50505b6123ba565b5f81146123b9575f600c819055505b5b505092915050565b5f8082846123d09190612fff565b90505f8314806123f85750838384866123e99190612fff565b9250826123f69190612cda565b145b612437576040517f08c379a000000000000000000000000000000000000000000000000000000000815260040161242e90613199565b60405180910390fd5b8091505092915050565b5f60038211156124a6578190505f600160028461245e9190612cda565b6124689190612b76565b90505b818110156124a05780915060028182856124859190612cda565b61248f9190612b76565b6124999190612cda565b905061246b565b506124b3565b5f82146124b257600190505b5b919050565b5f8183106124c657816124c8565b825b905092915050565b5f8082846124de9190612b76565b90508383856124ed9190612b76565b9150811015612531576040517f08c379a000000000000000000000000000000000000000000000000000000000815260040161252890613201565b60405180910390fd5b8091505092915050565b5f81519050919050565b5f82825260208201905092915050565b5f5b83811015612572578082015181840152602081019050612557565b5f8484015250505050565b5f601f19601f8301169050919050565b5f6125978261253b565b6125a18185612545565b93506125b1818560208601612555565b6125ba8161257d565b840191505092915050565b5f6020820190508181035f8301526125dd818461258d565b905092915050565b5f6dffffffffffffffffffffffffffff82169050919050565b612607816125e5565b82525050565b5f63ffffffff82169050919050565b6126258161260d565b82525050565b5f60608201905061263e5f8301866125fe565b61264b60208301856125fe565b612658604083018461261c565b949350505050565b5f604051905090565b5f80fd5b5f80fd5b5f73ffffffffffffffffffffffffffffffffffffffff82169050919050565b5f61269a82612671565b9050919050565b6126aa81612690565b81146126b4575f80fd5b50565b5f813590506126c5816126a1565b92915050565b5f819050919050565b6126dd816126cb565b81146126e7575f80fd5b50565b5f813590506126f8816126d4565b92915050565b5f806040838503121561271457612713612669565b5b5f612721858286016126b7565b9250506020612732858286016126ea565b9150509250929050565b5f8115159050919050565b6127508161273c565b82525050565b5f6020820190506127695f830184612747565b92915050565b61277881612690565b82525050565b5f6020820190506127915f83018461276f565b92915050565b6127a0816126cb565b82525050565b5f6020820190506127b95f830184612797565b92915050565b5f805f606084860312156127d6576127d5612669565b5b5f6127e3868287016126b7565b93505060206127f4868287016126b7565b9250506040612805868287016126ea565b9150509250925092565b5f6020828403121561282457612823612669565b5b5f612831848285016126b7565b91505092915050565b5f80604083850312156128505761284f612669565b5b5f61285d858286016126b7565b925050602061286e858286016126b7565b9150509250929050565b5f80fd5b5f80fd5b7f4e487b71000000000000000000000000000000000000000000000000000000005f52604160045260245ffd5b6128b68261257d565b810181811067ffffffffffffffff821117156128d5576128d4612880565b5b80604052505050565b5f6128e7612660565b90506128f382826128ad565b919050565b5f67ffffffffffffffff82111561291257612911612880565b5b61291b8261257d565b9050602081019050919050565b828183375f83830152505050565b5f612948612943846128f8565b6128de565b9050828152602081018484840111156129645761296361287c565b5b61296f848285612928565b509392505050565b5f82601f83011261298b5761298a612878565b5b813561299b848260208601612936565b91505092915050565b5f602082840312156129b9576129b8612669565b5b5f82013567ffffffffffffffff8111156129d6576129d561266d565b5b6129e284828501612977565b91505092915050565b6129f4816125e5565b81146129fe575f80fd5b50565b5f81359050612a0f816129eb565b92915050565b5f805f8060808587031215612a2d57612a2c612669565b5b5f612a3a878288016126ea565b9450506020612a4b878288016126ea565b9350506040612a5c87828801612a01565b9250506060612a6d87828801612a01565b91505092959194509250565b5f602082019050612a8c5f83018461261c565b92915050565b5f604082019050612aa55f830185612797565b612ab26020830184612797565b9392505050565b7f4e487b71000000000000000000000000000000000000000000000000000000005f52602260045260245ffd5b5f6002820490506001821680612afd57607f821691505b602082108103612b1057612b0f612ab9565b5b50919050565b7f4e487b71000000000000000000000000000000000000000000000000000000005f52601160045260245ffd5b5f612b4d826126cb565b9150612b58836126cb565b9250828203905081811115612b7057612b6f612b16565b5b92915050565b5f612b80826126cb565b9150612b8b836126cb565b9250828201905080821115612ba357612ba2612b16565b5b92915050565b5f81905092915050565b5f612bbd8261253b565b612bc78185612ba9565b9350612bd7818560208601612555565b80840191505092915050565b5f612bee8285612bb3565b9150612bfa8284612bb3565b91508190509392505050565b7f4c4f434b454400000000000000000000000000000000000000000000000000005f82015250565b5f612c3a600683612545565b9150612c4582612c06565b602082019050919050565b5f6020820190508181035f830152612c6781612c2e565b9050919050565b5f81519050612c7c816126d4565b92915050565b5f60208284031215612c9757612c96612669565b5b5f612ca484828501612c6e565b91505092915050565b7f4e487b71000000000000000000000000000000000000000000000000000000005f52601260045260245ffd5b5f612ce4826126cb565b9150612cef836126cb565b925082612cff57612cfe612cad565b5b828204905092915050565b7f494e53554646494349454e545f4c49515549444954595f4d494e5445440000005f82015250565b5f612d3e601d83612545565b9150612d4982612d0a565b602082019050919050565b5f6020820190508181035f830152612d6b81612d32565b9050919050565b5f604082019050612d855f83018561276f565b612d92602083018461276f565b9392505050565b5f8060408385031215612daf57612dae612669565b5b5f612dbc85828601612c6e565b9250506020612dcd85828601612c6e565b9150509250929050565b7f4e6f206665657320746f20636c61696d000000000000000000000000000000005f82015250565b5f612e0b601083612545565b9150612e1682612dd7565b602082019050919050565b5f6020820190508181035f830152612e3881612dff565b9050919050565b5f604082019050612e525f83018561276f565b612e5f6020830184612797565b9392505050565b612e6f8161273c565b8114612e79575f80fd5b50565b5f81519050612e8a81612e66565b92915050565b5f60208284031215612ea557612ea4612669565b5b5f612eb284828501612e7c565b91505092915050565b5f819050919050565b5f819050919050565b5f612ee7612ee2612edd84612ebb565b612ec4565b6126cb565b9050919050565b612ef781612ecd565b82525050565b5f608082019050612f105f83018761276f565b612f1d602083018661276f565b612f2a6040830185612eee565b612f376060830184612eee565b95945050505050565b7f4f564552464c4f570000000000000000000000000000000000000000000000005f82015250565b5f612f74600883612545565b9150612f7f82612f40565b602082019050919050565b5f6020820190508181035f830152612fa181612f68565b9050919050565b5f612fb2826126cb565b9150612fbd836126cb565b925082612fcd57612fcc612cad565b5b828206905092915050565b5f604082019050612feb5f8301856125fe565b612ff860208301846125fe565b9392505050565b5f613009826126cb565b9150613014836126cb565b9250828202613022816126cb565b9150828204841483151761303957613038612b16565b5b5092915050565b7f494e53554646494349454e545f4c49515549444954595f4255524e45440000005f82015250565b5f613074601d83612545565b915061307f82613040565b602082019050919050565b5f6020820190508181035f8301526130a181613068565b9050919050565b7f64732d6d6174682d7375622d756e646572666c6f7700000000000000000000005f82015250565b5f6130dc601583612545565b91506130e7826130a8565b602082019050919050565b5f6020820190508181035f830152613109816130d0565b9050919050565b5f8151905061311e816126a1565b92915050565b5f6020828403121561313957613138612669565b5b5f61314684828501613110565b91505092915050565b7f64732d6d6174682d6d756c2d6f766572666c6f770000000000000000000000005f82015250565b5f613183601483612545565b915061318e8261314f565b602082019050919050565b5f6020820190508181035f8301526131b081613177565b9050919050565b7f64732d6d6174682d6164642d6f766572666c6f770000000000000000000000005f82015250565b5f6131eb601483612545565b91506131f6826131b7565b602082019050919050565b5f6020820190508181035f830152613218816131df565b905091905056fe68747470733a2f2f6372696d736f6e2d67656e65726f75732d616e742d3339352e6d7970696e6174612e636c6f75642f697066732fa26469706673582212208cbf4441cab964337ffbe7d08e4d42fe6a9a2d38904d825073e764accf6afb7a64736f6c6343000814003368747470733a2f2f6372696d736f6e2d67656e65726f75732d616e742d3339352e6d7970696e6174612e636c6f75642f697066732f",
  "linkReferences": {},
  "deployedLinkReferences": {}
}