{
  "_format": "hh-sol-artifact-1",
  "contractName": "Pool",
  "sourceName": "contracts/contract/Pool.sol",
  "abi": [
    {
      "inputs": [
        {
          "internalType": "address",
          "name": "_dataAddress",
          "type": "address"
        },
        {
          "internalType": "string",
          "name": "_name",
          "type": "string"
        },
        {
          "internalType": "string",
          "name": "_symbol",
          "type": "string"
        }
      ],
      "stateMutability": "nonpayable",
      "type": "constructor"
    },
    {
      "anonymous": false,
      "inputs": [
        {
          "indexed": true,
          "internalType": "address",
          "name": "owner",
          "type": "address"
        },
        {
          "indexed": true,
          "internalType": "address",
          "name": "spender",
          "type": "address"
        },
        {
          "indexed": false,
          "internalType": "uint256",
          "name": "value",
          "type": "uint256"
        }
      ],
      "name": "Approval",
      "type": "event"
    },
    {
      "anonymous": false,
      "inputs": [
        {
          "indexed": true,
          "internalType": "address",
          "name": "sender",
          "type": "address"
        },
        {
          "indexed": false,
          "internalType": "uint256",
          "name": "amount0",
          "type": "uint256"
        },
        {
          "indexed": false,
          "internalType": "uint256",
          "name": "amount1",
          "type": "uint256"
        },
        {
          "indexed": true,
          "internalType": "address",
          "name": "to",
          "type": "address"
        }
      ],
      "name": "Burn",
      "type": "event"
    },
    {
      "anonymous": false,
      "inputs": [
        {
          "indexed": true,
          "internalType": "address",
          "name": "sender",
          "type": "address"
        },
        {
          "indexed": false,
          "internalType": "uint256",
          "name": "amount0",
          "type": "uint256"
        },
        {
          "indexed": false,
          "internalType": "uint256",
          "name": "amount1",
          "type": "uint256"
        }
      ],
      "name": "Mint",
      "type": "event"
    },
    {
      "anonymous": false,
      "inputs": [
        {
          "indexed": false,
          "internalType": "uint112",
          "name": "reserve0",
          "type": "uint112"
        },
        {
          "indexed": false,
          "internalType": "uint112",
          "name": "reserve1",
          "type": "uint112"
        }
      ],
      "name": "Sync",
      "type": "event"
    },
    {
      "anonymous": false,
      "inputs": [
        {
          "indexed": true,
          "internalType": "address",
          "name": "from",
          "type": "address"
        },
        {
          "indexed": true,
          "internalType": "address",
          "name": "to",
          "type": "address"
        },
        {
          "indexed": false,
          "internalType": "uint256",
          "name": "value",
          "type": "uint256"
        }
      ],
      "name": "Transfer",
      "type": "event"
    },
    {
      "inputs": [
        {
          "internalType": "address",
          "name": "owner",
          "type": "address"
        },
        {
          "internalType": "uint256",
          "name": "amount",
          "type": "uint256"
        }
      ],
      "name": "_burn",
      "outputs": [],
      "stateMutability": "nonpayable",
      "type": "function"
    },
    {
      "inputs": [
        {
          "internalType": "address",
          "name": "to",
          "type": "address"
        },
        {
          "internalType": "uint256",
          "name": "amount",
          "type": "uint256"
        }
      ],
      "name": "_mint",
      "outputs": [],
      "stateMutability": "nonpayable",
      "type": "function"
    },
    {
      "inputs": [
        {
          "internalType": "uint256",
          "name": "balance0",
          "type": "uint256"
        },
        {
          "internalType": "uint256",
          "name": "balance1",
          "type": "uint256"
        },
        {
          "internalType": "uint112",
          "name": "_reserve0",
          "type": "uint112"
        },
        {
          "internalType": "uint112",
          "name": "_reserve1",
          "type": "uint112"
        }
      ],
      "name": "_update",
      "outputs": [],
      "stateMutability": "nonpayable",
      "type": "function"
    },
    {
      "inputs": [
        {
          "internalType": "address",
          "name": "owner",
          "type": "address"
        },
        {
          "internalType": "address",
          "name": "spender",
          "type": "address"
        }
      ],
      "name": "allowance",
      "outputs": [
        {
          "internalType": "uint256",
          "name": "",
          "type": "uint256"
        }
      ],
      "stateMutability": "view",
      "type": "function"
    },
    {
      "inputs": [
        {
          "internalType": "address",
          "name": "",
          "type": "address"
        },
        {
          "internalType": "address",
          "name": "",
          "type": "address"
        }
      ],
      "name": "allowances",
      "outputs": [
        {
          "internalType": "uint256",
          "name": "",
          "type": "uint256"
        }
      ],
      "stateMutability": "view",
      "type": "function"
    },
    {
      "inputs": [
        {
          "internalType": "address",
          "name": "spender",
          "type": "address"
        },
        {
          "internalType": "uint256",
          "name": "amount",
          "type": "uint256"
        }
      ],
      "name": "approve",
      "outputs": [
        {
          "internalType": "bool",
          "name": "",
          "type": "bool"
        }
      ],
      "stateMutability": "nonpayable",
      "type": "function"
    },
    {
      "inputs": [
        {
          "internalType": "address",
          "name": "account",
          "type": "address"
        }
      ],
      "name": "balanceOf",
      "outputs": [
        {
          "internalType": "uint256",
          "name": "",
          "type": "uint256"
        }
      ],
      "stateMutability": "view",
      "type": "function"
    },
    {
      "inputs": [
        {
          "internalType": "address",
          "name": "",
          "type": "address"
        }
      ],
      "name": "balances",
      "outputs": [
        {
          "internalType": "uint256",
          "name": "",
          "type": "uint256"
        }
      ],
      "stateMutability": "view",
      "type": "function"
    },
    {
      "inputs": [],
      "name": "blockTimestampLast",
      "outputs": [
        {
          "internalType": "uint32",
          "name": "",
          "type": "uint32"
        }
      ],
      "stateMutability": "view",
      "type": "function"
    },
    {
      "inputs": [
        {
          "internalType": "address",
          "name": "to",
          "type": "address"
        },
        {
          "internalType": "uint256",
          "name": "percentage",
          "type": "uint256"
        }
      ],
      "name": "burn",
      "outputs": [
        {
          "internalType": "uint256",
          "name": "",
          "type": "uint256"
        },
        {
          "internalType": "uint256",
          "name": "",
          "type": "uint256"
        }
      ],
      "stateMutability": "nonpayable",
      "type": "function"
    },
    {
      "inputs": [],
      "name": "factory",
      "outputs": [
        {
          "internalType": "address",
          "name": "",
          "type": "address"
        }
      ],
      "stateMutability": "view",
      "type": "function"
    },
    {
      "inputs": [],
      "name": "getReserves",
      "outputs": [
        {
          "internalType": "uint112",
          "name": "_reserve0",
          "type": "uint112"
        },
        {
          "internalType": "uint112",
          "name": "_reserve1",
          "type": "uint112"
        },
        {
          "internalType": "uint32",
          "name": "_blockTimestampLast",
          "type": "uint32"
        }
      ],
      "stateMutability": "view",
      "type": "function"
    },
    {
      "inputs": [
        {
          "internalType": "address",
          "name": "_token0",
          "type": "address"
        },
        {
          "internalType": "address",
          "name": "_token1",
          "type": "address"
        }
      ],
      "name": "initialize",
      "outputs": [],
      "stateMutability": "nonpayable",
      "type": "function"
    },
    {
      "inputs": [],
      "name": "kLast",
      "outputs": [
        {
          "internalType": "uint256",
          "name": "",
          "type": "uint256"
        }
      ],
      "stateMutability": "view",
      "type": "function"
    },
    {
      "inputs": [
        {
          "internalType": "address",
          "name": "to",
          "type": "address"
        }
      ],
      "name": "mint",
      "outputs": [
        {
          "internalType": "uint256",
          "name": "",
          "type": "uint256"
        }
      ],
      "stateMutability": "nonpayable",
      "type": "function"
    },
    {
      "inputs": [],
      "name": "name",
      "outputs": [
        {
          "internalType": "string",
          "name": "",
          "type": "string"
        }
      ],
      "stateMutability": "view",
      "type": "function"
    },
    {
      "inputs": [],
      "name": "price0CumulativeLast",
      "outputs": [
        {
          "internalType": "uint256",
          "name": "",
          "type": "uint256"
        }
      ],
      "stateMutability": "view",
      "type": "function"
    },
    {
      "inputs": [],
      "name": "price1CumulativeLast",
      "outputs": [
        {
          "internalType": "uint256",
          "name": "",
          "type": "uint256"
        }
      ],
      "stateMutability": "view",
      "type": "function"
    },
    {
      "inputs": [
        {
          "internalType": "address",
          "name": "to",
          "type": "address"
        }
      ],
      "name": "skim",
      "outputs": [],
      "stateMutability": "nonpayable",
      "type": "function"
    },
    {
      "inputs": [],
      "name": "symbol",
      "outputs": [
        {
          "internalType": "string",
          "name": "",
          "type": "string"
        }
      ],
      "stateMutability": "view",
      "type": "function"
    },
    {
      "inputs": [],
      "name": "sync",
      "outputs": [],
      "stateMutability": "nonpayable",
      "type": "function"
    },
    {
      "inputs": [],
      "name": "token0",
      "outputs": [
        {
          "internalType": "address",
          "name": "",
          "type": "address"
        }
      ],
      "stateMutability": "view",
      "type": "function"
    },
    {
      "inputs": [],
      "name": "token1",
      "outputs": [
        {
          "internalType": "address",
          "name": "",
          "type": "address"
        }
      ],
      "stateMutability": "view",
      "type": "function"
    },
    {
      "inputs": [
        {
          "internalType": "string",
          "name": "_imageUri",
          "type": "string"
        }
      ],
      "name": "tokenURI",
      "outputs": [
        {
          "internalType": "string",
          "name": "",
          "type": "string"
        }
      ],
      "stateMutability": "pure",
      "type": "function"
    },
    {
      "inputs": [],
      "name": "totalSupply",
      "outputs": [
        {
          "internalType": "uint256",
          "name": "",
          "type": "uint256"
        }
      ],
      "stateMutability": "view",
      "type": "function"
    },
    {
      "inputs": [
        {
          "internalType": "address",
          "name": "to",
          "type": "address"
        },
        {
          "internalType": "uint256",
          "name": "amount",
          "type": "uint256"
        }
      ],
      "name": "transfer",
      "outputs": [
        {
          "internalType": "bool",
          "name": "",
          "type": "bool"
        }
      ],
      "stateMutability": "nonpayable",
      "type": "function"
    },
    {
      "inputs": [
        {
          "internalType": "address",
          "name": "from",
          "type": "address"
        },
        {
          "internalType": "address",
          "name": "to",
          "type": "address"
        },
        {
          "internalType": "uint256",
          "name": "amount",
          "type": "uint256"
        }
      ],
      "name": "transfer",
      "outputs": [
        {
          "internalType": "bool",
          "name": "",
          "type": "bool"
        }
      ],
      "stateMutability": "nonpayable",
      "type": "function"
    },
    {
      "inputs": [
        {
          "internalType": "address",
          "name": "from",
          "type": "address"
        },
        {
          "internalType": "address",
          "name": "to",
          "type": "address"
        },
        {
          "internalType": "uint256",
          "name": "value",
          "type": "uint256"
        }
      ],
      "name": "transferFrom",
      "outputs": [
        {
          "internalType": "bool",
          "name": "",
          "type": "bool"
        }
      ],
      "stateMutability": "nonpayable",
      "type": "function"
    },
    {
      "inputs": [],
      "name": "uri",
      "outputs": [
        {
          "internalType": "string",
          "name": "",
          "type": "string"
        }
      ],
      "stateMutability": "view",
      "type": "function"
    }
  ],
  "bytecode": "0x6080604052601260035560016010553480156200001b57600080fd5b50604051620040903803806200409083398181016040528101906200004191906200043f565b8181600060405180602001604052806000815250836000908162000066919062000724565b50826001908162000078919062000724565b506200008a816200017360201b60201c565b600290816200009a919062000724565b50600073f39fd6e51aad88f6f4ce6ab8827279cfffb922669050620000e333600354600a620000ca91906200098e565b85620000d79190620009df565b620001af60201b60201c565b505050505033600760006101000a81548173ffffffffffffffffffffffffffffffffffffffff021916908373ffffffffffffffffffffffffffffffffffffffff16021790555082600860006101000a81548173ffffffffffffffffffffffffffffffffffffffff021916908373ffffffffffffffffffffffffffffffffffffffff16021790555050505062000acf565b6060620001856200022660201b60201c565b826040516020016200019992919062000a6c565b6040516020818303038152906040529050919050565b80600560008473ffffffffffffffffffffffffffffffffffffffff1673ffffffffffffffffffffffffffffffffffffffff168152602001908152602001600020600082825462000200919062000a94565b9250508190555080600460008282546200021b919062000a94565b925050819055505050565b60606040518060600160405280603581526020016200405b60359139905090565b6000604051905090565b600080fd5b600080fd5b600073ffffffffffffffffffffffffffffffffffffffff82169050919050565b600062000288826200025b565b9050919050565b6200029a816200027b565b8114620002a657600080fd5b50565b600081519050620002ba816200028f565b92915050565b600080fd5b600080fd5b6000601f19601f8301169050919050565b7f4e487b7100000000000000000000000000000000000000000000000000000000600052604160045260246000fd5b6200031582620002ca565b810181811067ffffffffffffffff82111715620003375762000336620002db565b5b80604052505050565b60006200034c62000247565b90506200035a82826200030a565b919050565b600067ffffffffffffffff8211156200037d576200037c620002db565b5b6200038882620002ca565b9050602081019050919050565b60005b83811015620003b557808201518184015260208101905062000398565b60008484015250505050565b6000620003d8620003d2846200035f565b62000340565b905082815260208101848484011115620003f757620003f6620002c5565b5b6200040484828562000395565b509392505050565b600082601f830112620004245762000423620002c0565b5b815162000436848260208601620003c1565b91505092915050565b6000806000606084860312156200045b576200045a62000251565b5b60006200046b86828701620002a9565b935050602084015167ffffffffffffffff8111156200048f576200048e62000256565b5b6200049d868287016200040c565b925050604084015167ffffffffffffffff811115620004c157620004c062000256565b5b620004cf868287016200040c565b9150509250925092565b600081519050919050565b7f4e487b7100000000000000000000000000000000000000000000000000000000600052602260045260246000fd5b600060028204905060018216806200052c57607f821691505b602082108103620005425762000541620004e4565b5b50919050565b60008190508160005260206000209050919050565b60006020601f8301049050919050565b600082821b905092915050565b600060088302620005ac7fffffffffffffffffffffffffffffffffffffffffffffffffffffffffffffffff826200056d565b620005b886836200056d565b95508019841693508086168417925050509392505050565b6000819050919050565b6000819050919050565b600062000605620005ff620005f984620005d0565b620005da565b620005d0565b9050919050565b6000819050919050565b6200062183620005e4565b6200063962000630826200060c565b8484546200057a565b825550505050565b600090565b6200065062000641565b6200065d81848462000616565b505050565b5b8181101562000685576200067960008262000646565b60018101905062000663565b5050565b601f821115620006d4576200069e8162000548565b620006a9846200055d565b81016020851015620006b9578190505b620006d1620006c8856200055d565b83018262000662565b50505b505050565b600082821c905092915050565b6000620006f960001984600802620006d9565b1980831691505092915050565b6000620007148383620006e6565b9150826002028217905092915050565b6200072f82620004d9565b67ffffffffffffffff8111156200074b576200074a620002db565b5b62000757825462000513565b6200076482828562000689565b600060209050601f8311600181146200079c576000841562000787578287015190505b62000793858262000706565b86555062000803565b601f198416620007ac8662000548565b60005b82811015620007d657848901518255600182019150602085019450602081019050620007af565b86831015620007f65784890151620007f2601f891682620006e6565b8355505b6001600288020188555050505b505050505050565b7f4e487b7100000000000000000000000000000000000000000000000000000000600052601160045260246000fd5b60008160011c9050919050565b6000808291508390505b600185111562000899578086048111156200087157620008706200080b565b5b6001851615620008815780820291505b808102905062000891856200083a565b945062000851565b94509492505050565b600082620008b4576001905062000987565b81620008c4576000905062000987565b8160018114620008dd5760028114620008e8576200091e565b600191505062000987565b60ff841115620008fd57620008fc6200080b565b5b8360020a9150848211156200091757620009166200080b565b5b5062000987565b5060208310610133831016604e8410600b8410161715620009585782820a9050838111156200095257620009516200080b565b5b62000987565b62000967848484600162000847565b925090508184048111156200098157620009806200080b565b5b81810290505b9392505050565b60006200099b82620005d0565b9150620009a883620005d0565b9250620009d77fffffffffffffffffffffffffffffffffffffffffffffffffffffffffffffffff8484620008a2565b905092915050565b6000620009ec82620005d0565b9150620009f983620005d0565b925082820262000a0981620005d0565b9150828204841483151762000a235762000a226200080b565b5b5092915050565b600081905092915050565b600062000a4282620004d9565b62000a4e818562000a2a565b935062000a6081856020860162000395565b80840191505092915050565b600062000a7a828562000a35565b915062000a88828462000a35565b91508190509392505050565b600062000aa182620005d0565b915062000aae83620005d0565b925082820190508082111562000ac95762000ac86200080b565b5b92915050565b61357c8062000adf6000396000f3fe608060405234801561001057600080fd5b50600436106101cf5760003560e01c80636a62784211610104578063bc25cf77116100a2578063d21220a711610071578063d21220a71461056f578063dd62ed3e1461058d578063eac989f8146105bd578063fff6cae9146105db576101cf565b8063bc25cf77146104e7578063beabacc814610503578063c45a015514610533578063c5700a0214610551576101cf565b80637dc0a1fa116100de5780637dc0a1fa1461044c57806395d89b41146104685780639dc29fac14610486578063a9059cbb146104b7576101cf565b80636a627842146103ce57806370a08231146103fe5780637464fc3d1461042e576101cf565b8063485cc9551161017157806355b6ed5c1161014b57806355b6ed5c146103465780635909c0d5146103765780635a3d5493146103945780636161eb18146103b2576101cf565b8063485cc955146102de5780634cf12d26146102fa5780634e6ec2471461032a576101cf565b80630dfe1681116101ad5780630dfe16811461024257806318160ddd1461026057806323b872dd1461027e57806327e235e3146102ae576101cf565b806306fdde03146101d45780630902f1ac146101f2578063095ea7b314610212575b600080fd5b6101dc6105e5565b6040516101e99190612803565b60405180910390f35b6101fa610673565b6040516102099392919061286d565b60405180910390f35b61022c6004803603810190610227919061294c565b6106d0565b60405161023991906129a7565b60405180910390f35b61024a61075d565b60405161025791906129d1565b60405180910390f35b610268610783565b60405161027591906129fb565b60405180910390f35b61029860048036038101906102939190612a16565b610789565b6040516102a591906129a7565b60405180910390f35b6102c860048036038101906102c39190612a69565b61095e565b6040516102d591906129fb565b60405180910390f35b6102f860048036038101906102f39190612a96565b610976565b005b610314600480360381019061030f9190612c0b565b610a56565b6040516103219190612803565b60405180910390f35b610344600480360381019061033f919061294c565b610a88565b005b610360600480360381019061035b9190612a96565b610afb565b60405161036d91906129fb565b60405180910390f35b61037e610b20565b60405161038b91906129fb565b60405180910390f35b61039c610b26565b6040516103a991906129fb565b60405180910390f35b6103cc60048036038101906103c7919061294c565b610b2c565b005b6103e860048036038101906103e39190612a69565b610b9f565b6040516103f591906129fb565b60405180910390f35b61041860048036038101906104139190612a69565b611129565b60405161042591906129fb565b60405180910390f35b610436611172565b60405161044391906129fb565b60405180910390f35b61046660048036038101906104619190612c80565b611178565b005b61047061146c565b60405161047d9190612803565b60405180910390f35b6104a0600480360381019061049b919061294c565b6114fa565b6040516104ae929190612ce7565b60405180910390f35b6104d160048036038101906104cc919061294c565b611c7d565b6040516104de91906129a7565b60405180910390f35b61050160048036038101906104fc9190612a69565b611d35565b005b61051d60048036038101906105189190612a16565b611ddd565b60405161052a91906129a7565b60405180910390f35b61053b611e96565b60405161054891906129d1565b60405180910390f35b610559611ebc565b6040516105669190612d10565b60405180910390f35b610577611ed2565b60405161058491906129d1565b60405180910390f35b6105a760048036038101906105a29190612a96565b611ef8565b6040516105b491906129fb565b60405180910390f35b6105c5611f7f565b6040516105d29190612803565b60405180910390f35b6105e361200d565b005b600080546105f290612d5a565b80601f016020809104026020016040519081016040528092919081815260200182805461061e90612d5a565b801561066b5780601f106106405761010080835404028352916020019161066b565b820191906000526020600020905b81548152906001019060200180831161064e57829003601f168201915b505050505081565b6000806000600b60009054906101000a90046dffffffffffffffffffffffffffff169250600b600e9054906101000a90046dffffffffffffffffffffffffffff169150600d60009054906101000a900463ffffffff169050909192565b600081600660003373ffffffffffffffffffffffffffffffffffffffff1673ffffffffffffffffffffffffffffffffffffffff16815260200190815260200160002060008573ffffffffffffffffffffffffffffffffffffffff1673ffffffffffffffffffffffffffffffffffffffff168152602001908152602001600020819055506001905092915050565b600960009054906101000a900473ffffffffffffffffffffffffffffffffffffffff1681565b60045481565b600081600660008673ffffffffffffffffffffffffffffffffffffffff1673ffffffffffffffffffffffffffffffffffffffff16815260200190815260200160002060003373ffffffffffffffffffffffffffffffffffffffff1673ffffffffffffffffffffffffffffffffffffffff16815260200190815260200160002054101561081457600080fd5b81600660008673ffffffffffffffffffffffffffffffffffffffff1673ffffffffffffffffffffffffffffffffffffffff16815260200190815260200160002060003373ffffffffffffffffffffffffffffffffffffffff1673ffffffffffffffffffffffffffffffffffffffff16815260200190815260200160002060008282546108a09190612dba565b9250508190555081600560008673ffffffffffffffffffffffffffffffffffffffff1673ffffffffffffffffffffffffffffffffffffffff16815260200190815260200160002060008282546108f69190612dba565b9250508190555081600560008573ffffffffffffffffffffffffffffffffffffffff1673ffffffffffffffffffffffffffffffffffffffff168152602001908152602001600020600082825461094c9190612dee565b92505081905550600190509392505050565b60056020528060005260406000206000915090505481565b600760009054906101000a900473ffffffffffffffffffffffffffffffffffffffff1673ffffffffffffffffffffffffffffffffffffffff163373ffffffffffffffffffffffffffffffffffffffff16146109d057600080fd5b81600960006101000a81548173ffffffffffffffffffffffffffffffffffffffff021916908373ffffffffffffffffffffffffffffffffffffffff16021790555080600a60006101000a81548173ffffffffffffffffffffffffffffffffffffffff021916908373ffffffffffffffffffffffffffffffffffffffff1602179055505050565b6060610a606121de565b82604051602001610a72929190612e5e565b6040516020818303038152906040529050919050565b80600560008473ffffffffffffffffffffffffffffffffffffffff1673ffffffffffffffffffffffffffffffffffffffff1681526020019081526020016000206000828254610ad79190612dee565b925050819055508060046000828254610af09190612dee565b925050819055505050565b6006602052816000526040600020602052806000526040600020600091509150505481565b600e5481565b600f5481565b80600560008473ffffffffffffffffffffffffffffffffffffffff1673ffffffffffffffffffffffffffffffffffffffff1681526020019081526020016000206000828254610b7b9190612dba565b925050819055508060046000828254610b949190612dba565b925050819055505050565b6000600160105414610be6576040517f08c379a0000000000000000000000000000000000000000000000000000000008152600401610bdd90612ece565b60405180910390fd5b60006010819055506000600960009054906101000a900473ffffffffffffffffffffffffffffffffffffffff1673ffffffffffffffffffffffffffffffffffffffff166370a08231306040518263ffffffff1660e01b8152600401610c4b91906129d1565b602060405180830381865afa158015610c68573d6000803e3d6000fd5b505050506040513d601f19601f82011682018060405250810190610c8c9190612f03565b90506000600a60009054906101000a900473ffffffffffffffffffffffffffffffffffffffff1673ffffffffffffffffffffffffffffffffffffffff166370a08231306040518263ffffffff1660e01b8152600401610ceb91906129d1565b602060405180830381865afa158015610d08573d6000803e3d6000fd5b505050506040513d601f19601f82011682018060405250810190610d2c9190612f03565b90506000610d6683600b60009054906101000a90046dffffffffffffffffffffffffffff166dffffffffffffffffffffffffffff166121fe565b90506000610da083600b600e9054906101000a90046dffffffffffffffffffffffffffff166dffffffffffffffffffffffffffff166121fe565b9050610de26040518060400160405280601781526020017f616464206c697175696469747920616d6f756e74203a20000000000000000000815250838361226a565b6000610e26600b60009054906101000a90046dffffffffffffffffffffffffffff16600b600e9054906101000a90046dffffffffffffffffffffffffffff16612309565b905060008060045403610e6457610e50610e48610e4386866124ad565b61252e565b6103e86121fe565b9050610e5f60006103e8610a88565b610ef5565b610ef2600b60009054906101000a90046dffffffffffffffffffffffffffff166dffffffffffffffffffffffffffff16610ea0866004546124ad565b610eaa9190612f5f565b600b600e9054906101000a90046dffffffffffffffffffffffffffff166dffffffffffffffffffffffffffff16610ee3866004546124ad565b610eed9190612f5f565b6125a8565b90505b60008111610f38576040517f08c379a0000000000000000000000000000000000000000000000000000000008152600401610f2f90612fdc565b60405180910390fd5b610f428882610a88565b610f816040518060400160405280601381526020017f6c7020746f6b656e206d696e74696e67203a2000000000000000000000000000815250826125c1565b600860009054906101000a900473ffffffffffffffffffffffffffffffffffffffff1673ffffffffffffffffffffffffffffffffffffffff1663eb201d99308a6040518363ffffffff1660e01b8152600401610fde929190612ffc565b600060405180830381600087803b158015610ff857600080fd5b505af115801561100c573d6000803e3d6000fd5b505050506110548686600b60009054906101000a90046dffffffffffffffffffffffffffff16600b600e9054906101000a90046dffffffffffffffffffffffffffff16611178565b81156110c3576110bc600b60009054906101000a90046dffffffffffffffffffffffffffff166dffffffffffffffffffffffffffff16600b600e9054906101000a90046dffffffffffffffffffffffffffff166dffffffffffffffffffffffffffff166124ad565b600c819055505b3373ffffffffffffffffffffffffffffffffffffffff167f4c209b5fc8ad50758f13e2e1088ba56a560dff690a1c6fef26394f4c03821c4f858560405161110b929190612ce7565b60405180910390a28096505050505050506001601081905550919050565b6000600560008373ffffffffffffffffffffffffffffffffffffffff1673ffffffffffffffffffffffffffffffffffffffff168152602001908152602001600020549050919050565b600c5481565b6dffffffffffffffffffffffffffff801684111580156111a857506dffffffffffffffffffffffffffff80168311155b6111e7576040517f08c379a00000000000000000000000000000000000000000000000000000000081526004016111de90613071565b60405180910390fd5b6000640100000000426111fa9190613091565b90506000600d60009054906101000a900463ffffffff168261121c91906130c2565b905060008163ffffffff1611801561124557506000846dffffffffffffffffffffffffffff1614155b801561126257506000836dffffffffffffffffffffffffffff1614155b15611368578063ffffffff166112a78561127b8661265d565b7bffffffffffffffffffffffffffffffffffffffffffffffffffffffff1661269190919063ffffffff16565b7bffffffffffffffffffffffffffffffffffffffffffffffffffffffff166112cf91906130fa565b600e60008282546112e09190612dee565b925050819055508063ffffffff16611327846112fb8761265d565b7bffffffffffffffffffffffffffffffffffffffffffffffffffffffff1661269190919063ffffffff16565b7bffffffffffffffffffffffffffffffffffffffffffffffffffffffff1661134f91906130fa565b600f60008282546113609190612dee565b925050819055505b85600b60006101000a8154816dffffffffffffffffffffffffffff02191690836dffffffffffffffffffffffffffff16021790555084600b600e6101000a8154816dffffffffffffffffffffffffffff02191690836dffffffffffffffffffffffffffff16021790555081600d60006101000a81548163ffffffff021916908363ffffffff1602179055507f1c411e9a96e071241c2f21f7726b17ae89e3cab4c78be50e062b03a9fffbbad1600b60009054906101000a90046dffffffffffffffffffffffffffff16600b600e9054906101000a90046dffffffffffffffffffffffffffff1660405161145c92919061313c565b60405180910390a1505050505050565b6001805461147990612d5a565b80601f01602080910402602001604051908101604052809291908181526020018280546114a590612d5a565b80156114f25780601f106114c7576101008083540402835291602001916114f2565b820191906000526020600020905b8154815290600101906020018083116114d557829003601f168201915b505050505081565b600080600160105414611542576040517f08c379a000000000000000000000000000000000000000000000000000000000815260040161153990612ece565b60405180910390fd5b60006010819055506000600960009054906101000a900473ffffffffffffffffffffffffffffffffffffffff1673ffffffffffffffffffffffffffffffffffffffff166370a08231306040518263ffffffff1660e01b81526004016115a791906129d1565b602060405180830381865afa1580156115c4573d6000803e3d6000fd5b505050506040513d601f19601f820116820180604052508101906115e89190612f03565b90506000600a60009054906101000a900473ffffffffffffffffffffffffffffffffffffffff1673ffffffffffffffffffffffffffffffffffffffff166370a08231306040518263ffffffff1660e01b815260040161164791906129d1565b602060405180830381865afa158015611664573d6000803e3d6000fd5b505050506040513d601f19601f820116820180604052508101906116889190612f03565b90506000600560003073ffffffffffffffffffffffffffffffffffffffff1673ffffffffffffffffffffffffffffffffffffffff1681526020019081526020016000205490506000611712600b60009054906101000a90046dffffffffffffffffffffffffffff16600b600e9054906101000a90046dffffffffffffffffffffffffffff16612309565b9050600060045461172384876124ad565b61172d9190612f5f565b9050600060045461173e85876124ad565b6117489190612f5f565b905060008211801561175a5750600081115b611799576040517f08c379a0000000000000000000000000000000000000000000000000000000008152600401611790906131b1565b60405180910390fd5b6117a33085610b2c565b600960009054906101000a900473ffffffffffffffffffffffffffffffffffffffff1673ffffffffffffffffffffffffffffffffffffffff1663a9059cbb8b846040518363ffffffff1660e01b81526004016118009291906131d1565b6020604051808303816000875af115801561181f573d6000803e3d6000fd5b505050506040513d601f19601f820116820180604052508101906118439190613226565b50600a60009054906101000a900473ffffffffffffffffffffffffffffffffffffffff1673ffffffffffffffffffffffffffffffffffffffff1663a9059cbb8b836040518363ffffffff1660e01b81526004016118a19291906131d1565b6020604051808303816000875af11580156118c0573d6000803e3d6000fd5b505050506040513d601f19601f820116820180604052508101906118e49190613226565b50600960009054906101000a900473ffffffffffffffffffffffffffffffffffffffff1673ffffffffffffffffffffffffffffffffffffffff166370a08231306040518263ffffffff1660e01b815260040161194091906129d1565b602060405180830381865afa15801561195d573d6000803e3d6000fd5b505050506040513d601f19601f820116820180604052508101906119819190612f03565b9550600a60009054906101000a900473ffffffffffffffffffffffffffffffffffffffff1673ffffffffffffffffffffffffffffffffffffffff166370a08231306040518263ffffffff1660e01b81526004016119de91906129d1565b602060405180830381865afa1580156119fb573d6000803e3d6000fd5b505050506040513d601f19601f82011682018060405250810190611a1f9190612f03565b945060648903611b4857600860009054906101000a900473ffffffffffffffffffffffffffffffffffffffff1673ffffffffffffffffffffffffffffffffffffffff1663369dadff8b306040518363ffffffff1660e01b8152600401611a86929190612ffc565b600060405180830381600087803b158015611aa057600080fd5b505af1158015611ab4573d6000803e3d6000fd5b50505050600860009054906101000a900473ffffffffffffffffffffffffffffffffffffffff1673ffffffffffffffffffffffffffffffffffffffff16630202787b308c6040518363ffffffff1660e01b8152600401611b15929190612ffc565b600060405180830381600087803b158015611b2f57600080fd5b505af1158015611b43573d6000803e3d6000fd5b505050505b611b8c8686600b60009054906101000a90046dffffffffffffffffffffffffffff16600b600e9054906101000a90046dffffffffffffffffffffffffffff16611178565b8215611bfb57611bf4600b60009054906101000a90046dffffffffffffffffffffffffffff166dffffffffffffffffffffffffffff16600b600e9054906101000a90046dffffffffffffffffffffffffffff166dffffffffffffffffffffffffffff166124ad565b600c819055505b8973ffffffffffffffffffffffffffffffffffffffff163373ffffffffffffffffffffffffffffffffffffffff167fdccd412f0b1252819cb1fd330b93224ca42612892bb3f4f789976e6d819364968484604051611c5a929190612ce7565b60405180910390a381819750975050505050505060016010819055509250929050565b600081600560003373ffffffffffffffffffffffffffffffffffffffff1673ffffffffffffffffffffffffffffffffffffffff1681526020019081526020016000206000828254611cce9190612dba565b9250508190555081600560008573ffffffffffffffffffffffffffffffffffffffff1673ffffffffffffffffffffffffffffffffffffffff1681526020019081526020016000206000828254611d249190612dee565b925050819055506001905092915050565b600160105414611d7a576040517f08c379a0000000000000000000000000000000000000000000000000000000008152600401611d7190612ece565b60405180910390fd5b60006010819055506000600960009054906101000a900473ffffffffffffffffffffffffffffffffffffffff1690506000600a60009054906101000a900473ffffffffffffffffffffffffffffffffffffffff1690505050600160108190555050565b600081600560008673ffffffffffffffffffffffffffffffffffffffff1673ffffffffffffffffffffffffffffffffffffffff1681526020019081526020016000206000828254611e2e9190612dba565b9250508190555081600560008573ffffffffffffffffffffffffffffffffffffffff1673ffffffffffffffffffffffffffffffffffffffff1681526020019081526020016000206000828254611e849190612dee565b92505081905550600190509392505050565b600760009054906101000a900473ffffffffffffffffffffffffffffffffffffffff1681565b600d60009054906101000a900463ffffffff1681565b600a60009054906101000a900473ffffffffffffffffffffffffffffffffffffffff1681565b6000600660008473ffffffffffffffffffffffffffffffffffffffff1673ffffffffffffffffffffffffffffffffffffffff16815260200190815260200160002060008373ffffffffffffffffffffffffffffffffffffffff1673ffffffffffffffffffffffffffffffffffffffff16815260200190815260200160002054905092915050565b60028054611f8c90612d5a565b80601f0160208091040260200160405190810160405280929190818152602001828054611fb890612d5a565b80156120055780601f10611fda57610100808354040283529160200191612005565b820191906000526020600020905b815481529060010190602001808311611fe857829003601f168201915b505050505081565b600160105414612052576040517f08c379a000000000000000000000000000000000000000000000000000000000815260040161204990612ece565b60405180910390fd5b60006010819055506121d4600960009054906101000a900473ffffffffffffffffffffffffffffffffffffffff1673ffffffffffffffffffffffffffffffffffffffff166370a08231306040518263ffffffff1660e01b81526004016120b891906129d1565b602060405180830381865afa1580156120d5573d6000803e3d6000fd5b505050506040513d601f19601f820116820180604052508101906120f99190612f03565b600a60009054906101000a900473ffffffffffffffffffffffffffffffffffffffff1673ffffffffffffffffffffffffffffffffffffffff166370a08231306040518263ffffffff1660e01b815260040161215491906129d1565b602060405180830381865afa158015612171573d6000803e3d6000fd5b505050506040513d601f19601f820116820180604052508101906121959190612f03565b600b60009054906101000a90046dffffffffffffffffffffffffffff16600b600e9054906101000a90046dffffffffffffffffffffffffffff16611178565b6001601081905550565b606060405180606001604052806035815260200161351260359139905090565b600080828461220d9190612dba565b905083838561221c9190612dba565b9150811115612260576040517f08c379a00000000000000000000000000000000000000000000000000000000081526004016122579061329f565b60405180910390fd5b8091505092915050565b612304838383604051602401612282939291906132bf565b6040516020818303038152906040527fca47c4eb000000000000000000000000000000000000000000000000000000007bffffffffffffffffffffffffffffffffffffffffffffffffffffffff19166020820180517bffffffffffffffffffffffffffffffffffffffffffffffffffffffff83818316178352505050506126b7565b505050565b600080600760009054906101000a900473ffffffffffffffffffffffffffffffffffffffff1673ffffffffffffffffffffffffffffffffffffffff1663017e7e586040518163ffffffff1660e01b8152600401602060405180830381865afa158015612379573d6000803e3d6000fd5b505050506040513d601f19601f8201168201806040525081019061239d9190613312565b9050600073ffffffffffffffffffffffffffffffffffffffff168173ffffffffffffffffffffffffffffffffffffffff16141591506000600c5490508215612493576000811461248e57600061241b612416876dffffffffffffffffffffffffffff16876dffffffffffffffffffffffffffff166124ad565b61252e565b905060006124288361252e565b90508082111561248b57600061244960045461244485856121fe565b6124ad565b9050600061246161245b8560056124ad565b846126d1565b9050600081836124719190612f5f565b90506000811115612487576124868782610a88565b5b5050505b50505b6124a5565b600081146124a4576000600c819055505b5b505092915050565b60008082846124bc91906130fa565b905060008314806124e55750838384866124d691906130fa565b9250826124e39190612f5f565b145b612524576040517f08c379a000000000000000000000000000000000000000000000000000000000815260040161251b9061338b565b60405180910390fd5b8091505092915050565b60006003821115612595578190506000600160028461254d9190612f5f565b6125579190612dee565b90505b8181101561258f5780915060028182856125749190612f5f565b61257e9190612dee565b6125889190612f5f565b905061255a565b506125a3565b600082146125a257600190505b5b919050565b60008183106125b757816125b9565b825b905092915050565b61265982826040516024016125d79291906133ab565b6040516020818303038152906040527fb60e72cc000000000000000000000000000000000000000000000000000000007bffffffffffffffffffffffffffffffffffffffffffffffffffffffff19166020820180517bffffffffffffffffffffffffffffffffffffffffffffffffffffffff83818316178352505050506126b7565b5050565b60006e010000000000000000000000000000826dffffffffffffffffffffffffffff1661268a9190613403565b9050919050565b6000816dffffffffffffffffffffffffffff16836126af9190613445565b905092915050565b6126ce816126c661273d61275e565b63ffffffff16565b50565b60008082846126e09190612dee565b90508383856126ef9190612dee565b9150811015612733576040517f08c379a000000000000000000000000000000000000000000000000000000000815260040161272a906134c2565b60405180910390fd5b8091505092915050565b60006a636f6e736f6c652e6c6f679050600080835160208501845afa505050565b612769819050919050565b6127716134e2565b565b600081519050919050565b600082825260208201905092915050565b60005b838110156127ad578082015181840152602081019050612792565b60008484015250505050565b6000601f19601f8301169050919050565b60006127d582612773565b6127df818561277e565b93506127ef81856020860161278f565b6127f8816127b9565b840191505092915050565b6000602082019050818103600083015261281d81846127ca565b905092915050565b60006dffffffffffffffffffffffffffff82169050919050565b61284881612825565b82525050565b600063ffffffff82169050919050565b6128678161284e565b82525050565b6000606082019050612882600083018661283f565b61288f602083018561283f565b61289c604083018461285e565b949350505050565b6000604051905090565b600080fd5b600080fd5b600073ffffffffffffffffffffffffffffffffffffffff82169050919050565b60006128e3826128b8565b9050919050565b6128f3816128d8565b81146128fe57600080fd5b50565b600081359050612910816128ea565b92915050565b6000819050919050565b61292981612916565b811461293457600080fd5b50565b60008135905061294681612920565b92915050565b60008060408385031215612963576129626128ae565b5b600061297185828601612901565b925050602061298285828601612937565b9150509250929050565b60008115159050919050565b6129a18161298c565b82525050565b60006020820190506129bc6000830184612998565b92915050565b6129cb816128d8565b82525050565b60006020820190506129e660008301846129c2565b92915050565b6129f581612916565b82525050565b6000602082019050612a1060008301846129ec565b92915050565b600080600060608486031215612a2f57612a2e6128ae565b5b6000612a3d86828701612901565b9350506020612a4e86828701612901565b9250506040612a5f86828701612937565b9150509250925092565b600060208284031215612a7f57612a7e6128ae565b5b6000612a8d84828501612901565b91505092915050565b60008060408385031215612aad57612aac6128ae565b5b6000612abb85828601612901565b9250506020612acc85828601612901565b9150509250929050565b600080fd5b600080fd5b7f4e487b7100000000000000000000000000000000000000000000000000000000600052604160045260246000fd5b612b18826127b9565b810181811067ffffffffffffffff82111715612b3757612b36612ae0565b5b80604052505050565b6000612b4a6128a4565b9050612b568282612b0f565b919050565b600067ffffffffffffffff821115612b7657612b75612ae0565b5b612b7f826127b9565b9050602081019050919050565b82818337600083830152505050565b6000612bae612ba984612b5b565b612b40565b905082815260208101848484011115612bca57612bc9612adb565b5b612bd5848285612b8c565b509392505050565b600082601f830112612bf257612bf1612ad6565b5b8135612c02848260208601612b9b565b91505092915050565b600060208284031215612c2157612c206128ae565b5b600082013567ffffffffffffffff811115612c3f57612c3e6128b3565b5b612c4b84828501612bdd565b91505092915050565b612c5d81612825565b8114612c6857600080fd5b50565b600081359050612c7a81612c54565b92915050565b60008060008060808587031215612c9a57612c996128ae565b5b6000612ca887828801612937565b9450506020612cb987828801612937565b9350506040612cca87828801612c6b565b9250506060612cdb87828801612c6b565b91505092959194509250565b6000604082019050612cfc60008301856129ec565b612d0960208301846129ec565b9392505050565b6000602082019050612d25600083018461285e565b92915050565b7f4e487b7100000000000000000000000000000000000000000000000000000000600052602260045260246000fd5b60006002820490506001821680612d7257607f821691505b602082108103612d8557612d84612d2b565b5b50919050565b7f4e487b7100000000000000000000000000000000000000000000000000000000600052601160045260246000fd5b6000612dc582612916565b9150612dd083612916565b9250828203905081811115612de857612de7612d8b565b5b92915050565b6000612df982612916565b9150612e0483612916565b9250828201905080821115612e1c57612e1b612d8b565b5b92915050565b600081905092915050565b6000612e3882612773565b612e428185612e22565b9350612e5281856020860161278f565b80840191505092915050565b6000612e6a8285612e2d565b9150612e768284612e2d565b91508190509392505050565b7f4c4f434b45440000000000000000000000000000000000000000000000000000600082015250565b6000612eb860068361277e565b9150612ec382612e82565b602082019050919050565b60006020820190508181036000830152612ee781612eab565b9050919050565b600081519050612efd81612920565b92915050565b600060208284031215612f1957612f186128ae565b5b6000612f2784828501612eee565b91505092915050565b7f4e487b7100000000000000000000000000000000000000000000000000000000600052601260045260246000fd5b6000612f6a82612916565b9150612f7583612916565b925082612f8557612f84612f30565b5b828204905092915050565b7f494e53554646494349454e545f4c49515549444954595f4d494e544544000000600082015250565b6000612fc6601d8361277e565b9150612fd182612f90565b602082019050919050565b60006020820190508181036000830152612ff581612fb9565b9050919050565b600060408201905061301160008301856129c2565b61301e60208301846129c2565b9392505050565b7f4f564552464c4f57000000000000000000000000000000000000000000000000600082015250565b600061305b60088361277e565b915061306682613025565b602082019050919050565b6000602082019050818103600083015261308a8161304e565b9050919050565b600061309c82612916565b91506130a783612916565b9250826130b7576130b6612f30565b5b828206905092915050565b60006130cd8261284e565b91506130d88361284e565b9250828203905063ffffffff8111156130f4576130f3612d8b565b5b92915050565b600061310582612916565b915061311083612916565b925082820261311e81612916565b9150828204841483151761313557613134612d8b565b5b5092915050565b6000604082019050613151600083018561283f565b61315e602083018461283f565b9392505050565b7f494e53554646494349454e545f4c49515549444954595f4255524e4544000000600082015250565b600061319b601d8361277e565b91506131a682613165565b602082019050919050565b600060208201905081810360008301526131ca8161318e565b9050919050565b60006040820190506131e660008301856129c2565b6131f360208301846129ec565b9392505050565b6132038161298c565b811461320e57600080fd5b50565b600081519050613220816131fa565b92915050565b60006020828403121561323c5761323b6128ae565b5b600061324a84828501613211565b91505092915050565b7f64732d6d6174682d7375622d756e646572666c6f770000000000000000000000600082015250565b600061328960158361277e565b915061329482613253565b602082019050919050565b600060208201905081810360008301526132b88161327c565b9050919050565b600060608201905081810360008301526132d981866127ca565b90506132e860208301856129ec565b6132f560408301846129ec565b949350505050565b60008151905061330c816128ea565b92915050565b600060208284031215613328576133276128ae565b5b6000613336848285016132fd565b91505092915050565b7f64732d6d6174682d6d756c2d6f766572666c6f77000000000000000000000000600082015250565b600061337560148361277e565b91506133808261333f565b602082019050919050565b600060208201905081810360008301526133a481613368565b9050919050565b600060408201905081810360008301526133c581856127ca565b90506133d460208301846129ec565b9392505050565b60007bffffffffffffffffffffffffffffffffffffffffffffffffffffffff82169050919050565b600061340e826133db565b9150613419836133db565b9250828202613427816133db565b9150828204841483151761343e5761343d612d8b565b5b5092915050565b6000613450826133db565b915061345b836133db565b92508261346b5761346a612f30565b5b828204905092915050565b7f64732d6d6174682d6164642d6f766572666c6f77000000000000000000000000600082015250565b60006134ac60148361277e565b91506134b782613476565b602082019050919050565b600060208201905081810360008301526134db8161349f565b9050919050565b7f4e487b7100000000000000000000000000000000000000000000000000000000600052605160045260246000fdfe68747470733a2f2f6372696d736f6e2d67656e65726f75732d616e742d3339352e6d7970696e6174612e636c6f75642f697066732fa2646970667358221220398a3ec280f609580d0ceb817fd3419011dca0fd9988c87db0d951fe8f5cbff464736f6c6343000814003368747470733a2f2f6372696d736f6e2d67656e65726f75732d616e742d3339352e6d7970696e6174612e636c6f75642f697066732f",
  "linkReferences": {},
  "deployedLinkReferences": {}
}