{
	"data": {
		"bytecode": {
			"linkReferences": {},
			"object": "608060405234801562000010575f80fd5b50604051620056ae380380620056ae833981810160405281019062000036919062000162565b8060035f6101000a81548173ffffffffffffffffffffffffffffffffffffffff021916908373ffffffffffffffffffffffffffffffffffffffff1602179055508160015f6101000a81548173ffffffffffffffffffffffffffffffffffffffff021916908373ffffffffffffffffffffffffffffffffffffffff160217905550815f806101000a81548173ffffffffffffffffffffffffffffffffffffffff021916908373ffffffffffffffffffffffffffffffffffffffff1602179055505050620001a7565b5f80fd5b5f73ffffffffffffffffffffffffffffffffffffffff82169050919050565b5f6200012c8262000101565b9050919050565b6200013e8162000120565b811462000149575f80fd5b50565b5f815190506200015c8162000133565b92915050565b5f80604083850312156200017b576200017a620000fd565b5b5f6200018a858286016200014c565b92505060206200019d858286016200014c565b9150509250929050565b6154f980620001b55f395ff3fe608060405234801562000010575f80fd5b506004361062000085575f3560e01c8063a2e74af61162000061578063a2e74af61462000103578063b4f69a2f1462000123578063c9c653961462000159578063f46901ed146200018f5762000085565b8062c194db1462000089578063017e7e5814620000ab5780633699429014620000cd575b5f80fd5b62000093620001af565b604051620000a2919062000fd8565b60405180910390f35b620000b5620001dc565b604051620000c491906200103d565b60405180910390f35b620000eb6004803603810190620000e5919062001098565b62000201565b604051620000fa9190620010f9565b60405180910390f35b6200012160048036038101906200011b919062001114565b620004ea565b005b6200014160048036038101906200013b919062001098565b620005bf565b6040516200015091906200103d565b60405180910390f35b62000177600480360381019062000171919062001098565b62000660565b604051620001869190620010f9565b60405180910390f35b620001ad6004803603810190620001a7919062001114565b62000e61565b005b606060405180602001620001c39062000f36565b6020820181038252601f19601f82011660405250905090565b60025f9054906101000a900473ffffffffffffffffffffffffffffffffffffffff1681565b5f8060045f8573ffffffffffffffffffffffffffffffffffffffff1673ffffffffffffffffffffffffffffffffffffffff1681526020019081526020015f205f8473ffffffffffffffffffffffffffffffffffffffff1673ffffffffffffffffffffffffffffffffffffffff1681526020019081526020015f205f9054906101000a900473ffffffffffffffffffffffffffffffffffffffff1690505f805b5f8054906101000a900473ffffffffffffffffffffffffffffffffffffffff1673ffffffffffffffffffffffffffffffffffffffff1663aa34735b336040518263ffffffff1660e01b8152600401620002fa91906200103d565b602060405180830381865afa15801562000316573d5f803e3d5ffd5b505050506040513d601f19601f820116820180604052508101906200033c91906200117c565b81101562000442578273ffffffffffffffffffffffffffffffffffffffff165f8054906101000a900473ffffffffffffffffffffffffffffffffffffffff1673ffffffffffffffffffffffffffffffffffffffff16634ae03b00336040518263ffffffff1660e01b8152600401620003b591906200103d565b5f60405180830381865afa158015620003d0573d5f803e3d5ffd5b505050506040513d5f823e3d601f19601f82011682018060405250810190620003fa91906200131e565b82815181106200040f576200040e6200136d565b5b602002602001015173ffffffffffffffffffffffffffffffffffffffff16031562000442578080600101915050620002a0565b505f15158115151462000453575f80fd5b5f8054906101000a900473ffffffffffffffffffffffffffffffffffffffff1673ffffffffffffffffffffffffffffffffffffffff16630cd8eb6233846040518363ffffffff1660e01b8152600401620004af9291906200139a565b5f604051808303815f87803b158015620004c7575f80fd5b505af1158015620004da573d5f803e3d5ffd5b5050505060019250505092915050565b60035f9054906101000a900473ffffffffffffffffffffffffffffffffffffffff1673ffffffffffffffffffffffffffffffffffffffff163373ffffffffffffffffffffffffffffffffffffffff16146200057c576040517f08c379a0000000000000000000000000000000000000000000000000000000008152600401620005739062001423565b60405180910390fd5b8060035f6101000a81548173ffffffffffffffffffffffffffffffffffffffff021916908373ffffffffffffffffffffffffffffffffffffffff16021790555050565b5f60045f8473ffffffffffffffffffffffffffffffffffffffff1673ffffffffffffffffffffffffffffffffffffffff1681526020019081526020015f205f8373ffffffffffffffffffffffffffffffffffffffff1673ffffffffffffffffffffffffffffffffffffffff1681526020019081526020015f205f9054906101000a900473ffffffffffffffffffffffffffffffffffffffff16905092915050565b5f8173ffffffffffffffffffffffffffffffffffffffff168373ffffffffffffffffffffffffffffffffffffffff1603620006d2576040517f08c379a0000000000000000000000000000000000000000000000000000000008152600401620006c99062001491565b60405180910390fd5b5f808373ffffffffffffffffffffffffffffffffffffffff168573ffffffffffffffffffffffffffffffffffffffff16106200071057838562000713565b84845b915091505f73ffffffffffffffffffffffffffffffffffffffff168273ffffffffffffffffffffffffffffffffffffffff160362000788576040517f08c379a00000000000000000000000000000000000000000000000000000000081526004016200077f90620014ff565b60405180910390fd5b5f73ffffffffffffffffffffffffffffffffffffffff1660045f8473ffffffffffffffffffffffffffffffffffffffff1673ffffffffffffffffffffffffffffffffffffffff1681526020019081526020015f205f8373ffffffffffffffffffffffffffffffffffffffff1673ffffffffffffffffffffffffffffffffffffffff1681526020019081526020015f205f9054906101000a900473ffffffffffffffffffffffffffffffffffffffff1673ffffffffffffffffffffffffffffffffffffffff161462000890576040517f08c379a000000000000000000000000000000000000000000000000000000000815260040162000887906200156d565b60405180910390fd5b5f8573ffffffffffffffffffffffffffffffffffffffff166306fdde036040518163ffffffff1660e01b81526004015f60405180830381865afa158015620008da573d5f803e3d5ffd5b505050506040513d5f823e3d601f19601f8201168201806040525081019062000904919062001642565b90505f8573ffffffffffffffffffffffffffffffffffffffff166306fdde036040518163ffffffff1660e01b81526004015f60405180830381865afa15801562000950573d5f803e3d5ffd5b505050506040513d5f823e3d601f19601f820116820180604052508101906200097a919062001642565b90505f8773ffffffffffffffffffffffffffffffffffffffff166395d89b416040518163ffffffff1660e01b81526004015f60405180830381865afa158015620009c6573d5f803e3d5ffd5b505050506040513d5f823e3d601f19601f82011682018060405250810190620009f0919062001642565b90505f8773ffffffffffffffffffffffffffffffffffffffff166395d89b416040518163ffffffff1660e01b81526004015f60405180830381865afa15801562000a3c573d5f803e3d5ffd5b505050506040513d5f823e3d601f19601f8201168201806040525081019062000a66919062001642565b90505f848460405160200162000a7e92919062001729565b60405160208183030381529060405290505f838360405160200162000aa59291906200175d565b60405160208183030381529060405290505f828260405162000ac79062000f36565b62000ad4929190620017c4565b604051809103905ff08015801562000aee573d5f803e3d5ffd5b5090505f8190508073ffffffffffffffffffffffffffffffffffffffff1663485cc9558b8b6040518363ffffffff1660e01b815260040162000b329291906200139a565b5f604051808303815f87803b15801562000b4a575f80fd5b505af115801562000b5d573d5f803e3d5ffd5b505050508060045f8c73ffffffffffffffffffffffffffffffffffffffff1673ffffffffffffffffffffffffffffffffffffffff1681526020019081526020015f205f8b73ffffffffffffffffffffffffffffffffffffffff1673ffffffffffffffffffffffffffffffffffffffff1681526020019081526020015f205f6101000a81548173ffffffffffffffffffffffffffffffffffffffff021916908373ffffffffffffffffffffffffffffffffffffffff1602179055508060045f8b73ffffffffffffffffffffffffffffffffffffffff1673ffffffffffffffffffffffffffffffffffffffff1681526020019081526020015f205f8c73ffffffffffffffffffffffffffffffffffffffff1673ffffffffffffffffffffffffffffffffffffffff1681526020019081526020015f205f6101000a81548173ffffffffffffffffffffffffffffffffffffffff021916908373ffffffffffffffffffffffffffffffffffffffff1602179055505f8054906101000a900473ffffffffffffffffffffffffffffffffffffffff1673ffffffffffffffffffffffffffffffffffffffff1663c2b7bbb6826040518263ffffffff1660e01b815260040162000d2791906200103d565b5f604051808303815f87803b15801562000d3f575f80fd5b505af115801562000d52573d5f803e3d5ffd5b505050508873ffffffffffffffffffffffffffffffffffffffff168a73ffffffffffffffffffffffffffffffffffffffff167f0d3648bd0f6ba80134a33ba9275ac585d9d315f0ad8355cddefde31afa28d0e9835f8054906101000a900473ffffffffffffffffffffffffffffffffffffffff1673ffffffffffffffffffffffffffffffffffffffff1663574f2ba36040518163ffffffff1660e01b8152600401602060405180830381865afa15801562000e0f573d5f803e3d5ffd5b505050506040513d601f19601f8201168201806040525081019062000e3591906200117c565b60405162000e459291906200180e565b60405180910390a360019a505050505050505050505092915050565b60035f9054906101000a900473ffffffffffffffffffffffffffffffffffffffff1673ffffffffffffffffffffffffffffffffffffffff163373ffffffffffffffffffffffffffffffffffffffff161462000ef3576040517f08c379a000000000000000000000000000000000000000000000000000000000815260040162000eea9062001423565b60405180910390fd5b8060025f6101000a81548173ffffffffffffffffffffffffffffffffffffffff021916908373ffffffffffffffffffffffffffffffffffffffff16021790555050565b613c8a806200183a83390190565b5f81519050919050565b5f82825260208201905092915050565b5f5b8381101562000f7d57808201518184015260208101905062000f60565b5f8484015250505050565b5f601f19601f8301169050919050565b5f62000fa48262000f44565b62000fb0818562000f4e565b935062000fc281856020860162000f5e565b62000fcd8162000f88565b840191505092915050565b5f6020820190508181035f83015262000ff2818462000f98565b905092915050565b5f73ffffffffffffffffffffffffffffffffffffffff82169050919050565b5f620010258262000ffa565b9050919050565b620010378162001019565b82525050565b5f602082019050620010525f8301846200102c565b92915050565b5f604051905090565b5f80fd5b5f80fd5b620010748162001019565b81146200107f575f80fd5b50565b5f81359050620010928162001069565b92915050565b5f8060408385031215620010b157620010b062001061565b5b5f620010c08582860162001082565b9250506020620010d38582860162001082565b9150509250929050565b5f8115159050919050565b620010f381620010dd565b82525050565b5f6020820190506200110e5f830184620010e8565b92915050565b5f602082840312156200112c576200112b62001061565b5b5f6200113b8482850162001082565b91505092915050565b5f819050919050565b620011588162001144565b811462001163575f80fd5b50565b5f8151905062001176816200114d565b92915050565b5f6020828403121562001194576200119362001061565b5b5f620011a38482850162001166565b91505092915050565b5f80fd5b7f4e487b71000000000000000000000000000000000000000000000000000000005f52604160045260245ffd5b620011e88262000f88565b810181811067ffffffffffffffff821117156200120a5762001209620011b0565b5b80604052505050565b5f6200121e62001058565b90506200122c8282620011dd565b919050565b5f67ffffffffffffffff8211156200124e576200124d620011b0565b5b602082029050602081019050919050565b5f80fd5b5f81519050620012738162001069565b92915050565b5f6200128f620012898462001231565b62001213565b90508083825260208201905060208402830185811115620012b557620012b46200125f565b5b835b81811015620012e25780620012cd888262001263565b845260208401935050602081019050620012b7565b5050509392505050565b5f82601f830112620013035762001302620011ac565b5b81516200131584826020860162001279565b91505092915050565b5f6020828403121562001336576200133562001061565b5b5f82015167ffffffffffffffff81111562001356576200135562001065565b5b6200136484828501620012ec565b91505092915050565b7f4e487b71000000000000000000000000000000000000000000000000000000005f52603260045260245ffd5b5f604082019050620013af5f8301856200102c565b620013be60208301846200102c565b9392505050565b5f82825260208201905092915050565b7f464f5242494444454e00000000000000000000000000000000000000000000005f82015250565b5f6200140b600983620013c5565b91506200141882620013d5565b602082019050919050565b5f6020820190508181035f8301526200143c81620013fd565b9050919050565b7f73616d6520746f6b656e000000000000000000000000000000000000000000005f82015250565b5f62001479600a83620013c5565b9150620014868262001443565b602082019050919050565b5f6020820190508181035f830152620014aa816200146b565b9050919050565b7f746f6b656e206973207a65726f206164647265737300000000000000000000005f82015250565b5f620014e7601583620013c5565b9150620014f482620014b1565b602082019050919050565b5f6020820190508181035f8301526200151881620014d9565b9050919050565b7f7061697220616c726561647920657869737473000000000000000000000000005f82015250565b5f62001555601383620013c5565b915062001562826200151f565b602082019050919050565b5f6020820190508181035f830152620015868162001547565b9050919050565b5f80fd5b5f67ffffffffffffffff821115620015ae57620015ad620011b0565b5b620015b98262000f88565b9050602081019050919050565b5f620015dc620015d68462001591565b62001213565b905082815260208101848484011115620015fb57620015fa6200158d565b5b6200160884828562000f5e565b509392505050565b5f82601f830112620016275762001626620011ac565b5b815162001639848260208601620015c6565b91505092915050565b5f602082840312156200165a576200165962001061565b5b5f82015167ffffffffffffffff8111156200167a576200167962001065565b5b620016888482850162001610565b91505092915050565b5f81519050919050565b5f81905092915050565b5f620016b18262001691565b620016bd81856200169b565b9350620016cf81856020860162000f5e565b80840191505092915050565b7f2d000000000000000000000000000000000000000000000000000000000000005f82015250565b5f620017116001836200169b565b91506200171e82620016db565b600182019050919050565b5f620017368285620016a5565b9150620017438262001703565b9150620017518284620016a5565b91508190509392505050565b5f6200176a8285620016a5565b9150620017788284620016a5565b91508190509392505050565b5f620017908262001691565b6200179c8185620013c5565b9350620017ae81856020860162000f5e565b620017b98162000f88565b840191505092915050565b5f6040820190508181035f830152620017de818562001784565b90508181036020830152620017f4818462001784565b90509392505050565b620018088162001144565b82525050565b5f604082019050620018235f8301856200102c565b620018326020830184620017fd565b939250505056fe608060405260126003556001600e553480156200001a575f80fd5b5060405162003c8a38038062003c8a833981810160405281019062000040919062000367565b81815f60405180602001604052805f815250835f908162000062919062000621565b50826001908162000074919062000621565b5062000086816200011260201b60201c565b6002908162000096919062000621565b50620000c633600354600a620000ad919062000882565b84620000ba9190620008d2565b6200014e60201b60201c565b505050503360075f6101000a81548173ffffffffffffffffffffffffffffffffffffffff021916908373ffffffffffffffffffffffffffffffffffffffff1602179055505050620009bd565b606062000124620001c160201b60201c565b82604051602001620001389291906200095c565b6040516020818303038152906040529050919050565b8060055f8473ffffffffffffffffffffffffffffffffffffffff1673ffffffffffffffffffffffffffffffffffffffff1681526020019081526020015f205f8282546200019c919062000983565b925050819055508060045f828254620001b6919062000983565b925050819055505050565b606060405180606001604052806035815260200162003c5560359139905090565b5f604051905090565b5f80fd5b5f80fd5b5f80fd5b5f80fd5b5f601f19601f8301169050919050565b7f4e487b71000000000000000000000000000000000000000000000000000000005f52604160045260245ffd5b6200024382620001fb565b810181811067ffffffffffffffff821117156200026557620002646200020b565b5b80604052505050565b5f62000279620001e2565b905062000287828262000238565b919050565b5f67ffffffffffffffff821115620002a957620002a86200020b565b5b620002b482620001fb565b9050602081019050919050565b5f5b83811015620002e0578082015181840152602081019050620002c3565b5f8484015250505050565b5f62000301620002fb846200028c565b6200026e565b90508281526020810184848401111562000320576200031f620001f7565b5b6200032d848285620002c1565b509392505050565b5f82601f8301126200034c576200034b620001f3565b5b81516200035e848260208601620002eb565b91505092915050565b5f806040838503121562000380576200037f620001eb565b5b5f83015167ffffffffffffffff811115620003a0576200039f620001ef565b5b620003ae8582860162000335565b925050602083015167ffffffffffffffff811115620003d257620003d1620001ef565b5b620003e08582860162000335565b9150509250929050565b5f81519050919050565b7f4e487b71000000000000000000000000000000000000000000000000000000005f52602260045260245ffd5b5f60028204905060018216806200043957607f821691505b6020821081036200044f576200044e620003f4565b5b50919050565b5f819050815f5260205f209050919050565b5f6020601f8301049050919050565b5f82821b905092915050565b5f60088302620004b37fffffffffffffffffffffffffffffffffffffffffffffffffffffffffffffffff8262000476565b620004bf868362000476565b95508019841693508086168417925050509392505050565b5f819050919050565b5f819050919050565b5f6200050962000503620004fd84620004d7565b620004e0565b620004d7565b9050919050565b5f819050919050565b6200052483620004e9565b6200053c620005338262000510565b84845462000482565b825550505050565b5f90565b6200055262000544565b6200055f81848462000519565b505050565b5b8181101562000586576200057a5f8262000548565b60018101905062000565565b5050565b601f821115620005d5576200059f8162000455565b620005aa8462000467565b81016020851015620005ba578190505b620005d2620005c98562000467565b83018262000564565b50505b505050565b5f82821c905092915050565b5f620005f75f1984600802620005da565b1980831691505092915050565b5f620006118383620005e6565b9150826002028217905092915050565b6200062c82620003ea565b67ffffffffffffffff8111156200064857620006476200020b565b5b62000654825462000421565b620006618282856200058a565b5f60209050601f83116001811462000697575f841562000682578287015190505b6200068e858262000604565b865550620006fd565b601f198416620006a78662000455565b5f5b82811015620006d057848901518255600182019150602085019450602081019050620006a9565b86831015620006f05784890151620006ec601f891682620005e6565b8355505b6001600288020188555050505b505050505050565b7f4e487b71000000000000000000000000000000000000000000000000000000005f52601160045260245ffd5b5f8160011c9050919050565b5f808291508390505b60018511156200078f5780860481111562000767576200076662000705565b5b6001851615620007775780820291505b8081029050620007878562000732565b945062000747565b94509492505050565b5f82620007a957600190506200087b565b81620007b8575f90506200087b565b8160018114620007d15760028114620007dc5762000812565b60019150506200087b565b60ff841115620007f157620007f062000705565b5b8360020a9150848211156200080b576200080a62000705565b5b506200087b565b5060208310610133831016604e8410600b84101617156200084c5782820a90508381111562000846576200084562000705565b5b6200087b565b6200085b84848460016200073e565b9250905081840481111562000875576200087462000705565b5b81810290505b9392505050565b5f6200088e82620004d7565b91506200089b83620004d7565b9250620008ca7fffffffffffffffffffffffffffffffffffffffffffffffffffffffffffffffff848462000798565b905092915050565b5f620008de82620004d7565b9150620008eb83620004d7565b9250828202620008fb81620004d7565b9150828204841483151762000915576200091462000705565b5b5092915050565b5f81905092915050565b5f6200093282620003ea565b6200093e81856200091c565b935062000950818560208601620002c1565b80840191505092915050565b5f62000969828562000926565b915062000977828462000926565b91508190509392505050565b5f6200098f82620004d7565b91506200099c83620004d7565b9250828201905080821115620009b757620009b662000705565b5b92915050565b61328a80620009cb5f395ff3fe608060405234801561000f575f80fd5b50600436106101cd575f3560e01c80636ebc51e111610102578063bc25cf77116100a0578063dbbdd9351161006f578063dbbdd9351461056b578063dd62ed3e1461059c578063eac989f8146105cc578063fff6cae9146105ea576101cd565b8063bc25cf77146104f5578063c45a015514610511578063c5700a021461052f578063d21220a71461054d576101cd565b80637dc0a1fa116100dc5780637dc0a1fa1461045b57806395d89b41146104775780639dc29fac14610495578063a9059cbb146104c5576101cd565b80636ebc51e1146103dd57806370a082311461040d5780637464fc3d1461043d576101cd565b806327e235e31161016f5780634e6ec247116101495780634e6ec2471461034557806355b6ed5c146103615780636161eb18146103915780636a627842146103ad576101cd565b806327e235e3146102c9578063485cc955146102f95780634cf12d2614610315576101cd565b80630dfe1681116101ab5780630dfe16811461023f57806318160ddd1461025d5780631b6550541461027b57806323b872dd14610299576101cd565b806306fdde03146101d15780630902f1ac146101ef578063095ea7b31461020f575b5f80fd5b6101d96105f4565b6040516101e691906125c5565b60405180910390f35b6101f761067f565b6040516102069392919061262b565b60405180910390f35b610229600480360381019061022491906126fe565b6106d8565b6040516102369190612756565b60405180910390f35b610247610760565b604051610254919061277e565b60405180910390f35b610265610785565b60405161027291906127a6565b60405180910390f35b61028361078b565b604051610290919061277e565b60405180910390f35b6102b360048036038101906102ae91906127bf565b6107b0565b6040516102c09190612756565b60405180910390f35b6102e360048036038101906102de919061280f565b610862565b6040516102f091906127a6565b60405180910390f35b610313600480360381019061030e919061283a565b610877565b005b61032f600480360381019061032a91906129a4565b610953565b60405161033c91906125c5565b60405180910390f35b61035f600480360381019061035a91906126fe565b610985565b005b61037b6004803603810190610376919061283a565b6109f4565b60405161038891906127a6565b60405180910390f35b6103ab60048036038101906103a691906126fe565b610a14565b005b6103c760048036038101906103c2919061280f565b610a83565b6040516103d49190612756565b60405180910390f35b6103f760048036038101906103f2919061280f565b610f74565b6040516104049190612756565b60405180910390f35b6104276004803603810190610422919061280f565b611233565b60405161043491906127a6565b60405180910390f35b610445611279565b60405161045291906127a6565b60405180910390f35b61047560048036038101906104709190612a15565b61127f565b005b61047f611402565b60405161048c91906125c5565b60405180910390f35b6104af60048036038101906104aa91906126fe565b61148e565b6040516104bc9190612756565b60405180910390f35b6104df60048036038101906104da91906126fe565b611c3c565b6040516104ec9190612756565b60405180910390f35b61050f600480360381019061050a919061280f565b611ced565b005b610519611d90565b604051610526919061277e565b60405180910390f35b610537611db5565b6040516105449190612a79565b60405180910390f35b610555611dca565b604051610562919061277e565b60405180910390f35b6105856004803603810190610580919061280f565b611def565b604051610593929190612a92565b60405180910390f35b6105b660048036038101906105b1919061283a565b611ecb565b6040516105c391906127a6565b60405180910390f35b6105d4611f4d565b6040516105e191906125c5565b60405180910390f35b6105f2611fd9565b005b5f805461060090612ae6565b80601f016020809104026020016040519081016040528092919081815260200182805461062c90612ae6565b80156106775780601f1061064e57610100808354040283529160200191610677565b820191905f5260205f20905b81548152906001019060200180831161065a57829003601f168201915b505050505081565b5f805f600b5f9054906101000a90046dffffffffffffffffffffffffffff169250600b600e9054906101000a90046dffffffffffffffffffffffffffff169150600d5f9054906101000a900463ffffffff169050909192565b5f8160065f3373ffffffffffffffffffffffffffffffffffffffff1673ffffffffffffffffffffffffffffffffffffffff1681526020019081526020015f205f8573ffffffffffffffffffffffffffffffffffffffff1673ffffffffffffffffffffffffffffffffffffffff1681526020019081526020015f20819055506001905092915050565b60095f9054906101000a900473ffffffffffffffffffffffffffffffffffffffff1681565b60045481565b60085f9054906101000a900473ffffffffffffffffffffffffffffffffffffffff1681565b5f8160055f8673ffffffffffffffffffffffffffffffffffffffff1673ffffffffffffffffffffffffffffffffffffffff1681526020019081526020015f205f8282546107fd9190612b43565b925050819055508160055f8573ffffffffffffffffffffffffffffffffffffffff1673ffffffffffffffffffffffffffffffffffffffff1681526020019081526020015f205f8282546108509190612b76565b92505081905550600190509392505050565b6005602052805f5260405f205f915090505481565b60075f9054906101000a900473ffffffffffffffffffffffffffffffffffffffff1673ffffffffffffffffffffffffffffffffffffffff163373ffffffffffffffffffffffffffffffffffffffff16146108cf575f80fd5b8160095f6101000a81548173ffffffffffffffffffffffffffffffffffffffff021916908373ffffffffffffffffffffffffffffffffffffffff16021790555080600a5f6101000a81548173ffffffffffffffffffffffffffffffffffffffff021916908373ffffffffffffffffffffffffffffffffffffffff1602179055505050565b606061095d6121a2565b8260405160200161096f929190612be3565b6040516020818303038152906040529050919050565b8060055f8473ffffffffffffffffffffffffffffffffffffffff1673ffffffffffffffffffffffffffffffffffffffff1681526020019081526020015f205f8282546109d19190612b76565b925050819055508060045f8282546109e99190612b76565b925050819055505050565b6006602052815f5260405f20602052805f5260405f205f91509150505481565b8060055f8473ffffffffffffffffffffffffffffffffffffffff1673ffffffffffffffffffffffffffffffffffffffff1681526020019081526020015f205f828254610a609190612b43565b925050819055508060045f828254610a789190612b43565b925050819055505050565b5f6001600e5414610ac9576040517f08c379a0000000000000000000000000000000000000000000000000000000008152600401610ac090612c50565b60405180910390fd5b5f600e819055505f60095f9054906101000a900473ffffffffffffffffffffffffffffffffffffffff1673ffffffffffffffffffffffffffffffffffffffff166370a08231306040518263ffffffff1660e01b8152600401610b2b919061277e565b602060405180830381865afa158015610b46573d5f803e3d5ffd5b505050506040513d601f19601f82011682018060405250810190610b6a9190612c82565b90505f600a5f9054906101000a900473ffffffffffffffffffffffffffffffffffffffff1673ffffffffffffffffffffffffffffffffffffffff166370a08231306040518263ffffffff1660e01b8152600401610bc7919061277e565b602060405180830381865afa158015610be2573d5f803e3d5ffd5b505050506040513d601f19601f82011682018060405250810190610c069190612c82565b90505f610c3e83600b5f9054906101000a90046dffffffffffffffffffffffffffff166dffffffffffffffffffffffffffff166121c2565b90505f610c7783600b600e9054906101000a90046dffffffffffffffffffffffffffff166dffffffffffffffffffffffffffff166121c2565b90505f610cbb600b5f9054906101000a90046dffffffffffffffffffffffffffff16600b600e9054906101000a90046dffffffffffffffffffffffffffff1661222d565b90505f8060045403610cf757610ce4610cdc610cd786866123c2565b612441565b6103e86121c2565b9050610cf25f6103e8610985565b610d87565b610d84600b5f9054906101000a90046dffffffffffffffffffffffffffff166dffffffffffffffffffffffffffff16610d32866004546123c2565b610d3c9190612cda565b600b600e9054906101000a90046dffffffffffffffffffffffffffff166dffffffffffffffffffffffffffff16610d75866004546123c2565b610d7f9190612cda565b6124b8565b90505b5f8111610dc9576040517f08c379a0000000000000000000000000000000000000000000000000000000008152600401610dc090612d54565b60405180910390fd5b610dd38882610985565b60085f9054906101000a900473ffffffffffffffffffffffffffffffffffffffff1673ffffffffffffffffffffffffffffffffffffffff1663eb201d99308a6040518363ffffffff1660e01b8152600401610e2f929190612d72565b5f604051808303815f87803b158015610e46575f80fd5b505af1158015610e58573d5f803e3d5ffd5b50505050610e9f8686600b5f9054906101000a90046dffffffffffffffffffffffffffff16600b600e9054906101000a90046dffffffffffffffffffffffffffff1661127f565b8115610f0d57610f06600b5f9054906101000a90046dffffffffffffffffffffffffffff166dffffffffffffffffffffffffffff16600b600e9054906101000a90046dffffffffffffffffffffffffffff166dffffffffffffffffffffffffffff166123c2565b600c819055505b3373ffffffffffffffffffffffffffffffffffffffff167f4c209b5fc8ad50758f13e2e1088ba56a560dff690a1c6fef26394f4c03821c4f8585604051610f55929190612a92565b60405180910390a2600196505050505050506001600e81905550919050565b5f805f60085f9054906101000a900473ffffffffffffffffffffffffffffffffffffffff1673ffffffffffffffffffffffffffffffffffffffff1663238c45eb85306040518363ffffffff1660e01b8152600401610fd3929190612d72565b6040805180830381865afa158015610fed573d5f803e3d5ffd5b505050506040513d601f19601f820116820180604052508101906110119190612d99565b915091505f82118061102257505f81115b611061576040517f08c379a000000000000000000000000000000000000000000000000000000000815260040161105890612e21565b60405180910390fd5b60095f9054906101000a900473ffffffffffffffffffffffffffffffffffffffff1673ffffffffffffffffffffffffffffffffffffffff1663a9059cbb85846040518363ffffffff1660e01b81526004016110bd929190612e3f565b6020604051808303815f875af11580156110d9573d5f803e3d5ffd5b505050506040513d601f19601f820116820180604052508101906110fd9190612e90565b50600a5f9054906101000a900473ffffffffffffffffffffffffffffffffffffffff1673ffffffffffffffffffffffffffffffffffffffff1663a9059cbb85836040518363ffffffff1660e01b815260040161115a929190612e3f565b6020604051808303815f875af1158015611176573d5f803e3d5ffd5b505050506040513d601f19601f8201168201806040525081019061119a9190612e90565b5060085f9054906101000a900473ffffffffffffffffffffffffffffffffffffffff1673ffffffffffffffffffffffffffffffffffffffff1663bdd6be0785305f806040518563ffffffff1660e01b81526004016111fb9493929190612efd565b5f604051808303815f87803b158015611212575f80fd5b505af1158015611224573d5f803e3d5ffd5b50505050600192505050919050565b5f60055f8373ffffffffffffffffffffffffffffffffffffffff1673ffffffffffffffffffffffffffffffffffffffff1681526020019081526020015f20549050919050565b600c5481565b6dffffffffffffffffffffffffffff801684111580156112af57506dffffffffffffffffffffffffffff80168311155b6112ee576040517f08c379a00000000000000000000000000000000000000000000000000000000081526004016112e590612f8a565b60405180910390fd5b5f640100000000426113009190612fa8565b905084600b5f6101000a8154816dffffffffffffffffffffffffffff02191690836dffffffffffffffffffffffffffff16021790555083600b600e6101000a8154816dffffffffffffffffffffffffffff02191690836dffffffffffffffffffffffffffff16021790555080600d5f6101000a81548163ffffffff021916908363ffffffff1602179055507f1c411e9a96e071241c2f21f7726b17ae89e3cab4c78be50e062b03a9fffbbad1600b5f9054906101000a90046dffffffffffffffffffffffffffff16600b600e9054906101000a90046dffffffffffffffffffffffffffff166040516113f3929190612fd8565b60405180910390a15050505050565b6001805461140f90612ae6565b80601f016020809104026020016040519081016040528092919081815260200182805461143b90612ae6565b80156114865780601f1061145d57610100808354040283529160200191611486565b820191905f5260205f20905b81548152906001019060200180831161146957829003601f168201915b505050505081565b5f6001600e54146114d4576040517f08c379a00000000000000000000000000000000000000000000000000000000081526004016114cb90612c50565b60405180910390fd5b5f600e819055505f60095f9054906101000a900473ffffffffffffffffffffffffffffffffffffffff1673ffffffffffffffffffffffffffffffffffffffff166370a08231306040518263ffffffff1660e01b8152600401611536919061277e565b602060405180830381865afa158015611551573d5f803e3d5ffd5b505050506040513d601f19601f820116820180604052508101906115759190612c82565b90505f600a5f9054906101000a900473ffffffffffffffffffffffffffffffffffffffff1673ffffffffffffffffffffffffffffffffffffffff166370a08231306040518263ffffffff1660e01b81526004016115d2919061277e565b602060405180830381865afa1580156115ed573d5f803e3d5ffd5b505050506040513d601f19601f820116820180604052508101906116119190612c82565b90505f60055f3073ffffffffffffffffffffffffffffffffffffffff1673ffffffffffffffffffffffffffffffffffffffff1681526020019081526020015f205490505f611696600b5f9054906101000a90046dffffffffffffffffffffffffffff16600b600e9054906101000a90046dffffffffffffffffffffffffffff1661222d565b90505f606487846116a79190612fff565b6116b19190612cda565b90505f81116116f5576040517f08c379a00000000000000000000000000000000000000000000000000000000081526004016116ec9061308a565b60405180910390fd5b5f60045461170383886123c2565b61170d9190612cda565b90505f60045461171d84886123c2565b6117279190612cda565b90505f8211801561173757505f81115b611776576040517f08c379a000000000000000000000000000000000000000000000000000000000815260040161176d9061308a565b60405180910390fd5b6117803084610a14565b60095f9054906101000a900473ffffffffffffffffffffffffffffffffffffffff1673ffffffffffffffffffffffffffffffffffffffff1663a9059cbb8b846040518363ffffffff1660e01b81526004016117dc929190612e3f565b6020604051808303815f875af11580156117f8573d5f803e3d5ffd5b505050506040513d601f19601f8201168201806040525081019061181c9190612e90565b50600a5f9054906101000a900473ffffffffffffffffffffffffffffffffffffffff1673ffffffffffffffffffffffffffffffffffffffff1663a9059cbb8b836040518363ffffffff1660e01b8152600401611879929190612e3f565b6020604051808303815f875af1158015611895573d5f803e3d5ffd5b505050506040513d601f19601f820116820180604052508101906118b99190612e90565b5060095f9054906101000a900473ffffffffffffffffffffffffffffffffffffffff1673ffffffffffffffffffffffffffffffffffffffff166370a08231306040518263ffffffff1660e01b8152600401611914919061277e565b602060405180830381865afa15801561192f573d5f803e3d5ffd5b505050506040513d601f19601f820116820180604052508101906119539190612c82565b9650600a5f9054906101000a900473ffffffffffffffffffffffffffffffffffffffff1673ffffffffffffffffffffffffffffffffffffffff166370a08231306040518263ffffffff1660e01b81526004016119af919061277e565b602060405180830381865afa1580156119ca573d5f803e3d5ffd5b505050506040513d601f19601f820116820180604052508101906119ee9190612c82565b955060648903611b0b5760085f9054906101000a900473ffffffffffffffffffffffffffffffffffffffff1673ffffffffffffffffffffffffffffffffffffffff1663369dadff8b306040518363ffffffff1660e01b8152600401611a54929190612d72565b5f604051808303815f87803b158015611a6b575f80fd5b505af1158015611a7d573d5f803e3d5ffd5b5050505060085f9054906101000a900473ffffffffffffffffffffffffffffffffffffffff1673ffffffffffffffffffffffffffffffffffffffff16630202787b308c6040518363ffffffff1660e01b8152600401611add929190612d72565b5f604051808303815f87803b158015611af4575f80fd5b505af1158015611b06573d5f803e3d5ffd5b505050505b611b4e8787600b5f9054906101000a90046dffffffffffffffffffffffffffff16600b600e9054906101000a90046dffffffffffffffffffffffffffff1661127f565b8315611bbc57611bb5600b5f9054906101000a90046dffffffffffffffffffffffffffff166dffffffffffffffffffffffffffff16600b600e9054906101000a90046dffffffffffffffffffffffffffff166dffffffffffffffffffffffffffff166123c2565b600c819055505b8973ffffffffffffffffffffffffffffffffffffffff163373ffffffffffffffffffffffffffffffffffffffff167fdccd412f0b1252819cb1fd330b93224ca42612892bb3f4f789976e6d819364968484604051611c1b929190612a92565b60405180910390a360019750505050505050506001600e8190555092915050565b5f8160055f3373ffffffffffffffffffffffffffffffffffffffff1673ffffffffffffffffffffffffffffffffffffffff1681526020019081526020015f205f828254611c899190612b43565b925050819055508160055f8573ffffffffffffffffffffffffffffffffffffffff1673ffffffffffffffffffffffffffffffffffffffff1681526020019081526020015f205f828254611cdc9190612b76565b925050819055506001905092915050565b6001600e5414611d32576040517f08c379a0000000000000000000000000000000000000000000000000000000008152600401611d2990612c50565b60405180910390fd5b5f600e819055505f60095f9054906101000a900473ffffffffffffffffffffffffffffffffffffffff1690505f600a5f9054906101000a900473ffffffffffffffffffffffffffffffffffffffff16905050506001600e8190555050565b60075f9054906101000a900473ffffffffffffffffffffffffffffffffffffffff1681565b600d5f9054906101000a900463ffffffff1681565b600a5f9054906101000a900473ffffffffffffffffffffffffffffffffffffffff1681565b5f805f60055f8573ffffffffffffffffffffffffffffffffffffffff1673ffffffffffffffffffffffffffffffffffffffff1681526020019081526020015f205490505f600454611e6b83600b5f9054906101000a90046dffffffffffffffffffffffffffff166dffffffffffffffffffffffffffff166123c2565b611e759190612cda565b90505f600454611eb184600b600e9054906101000a90046dffffffffffffffffffffffffffff166dffffffffffffffffffffffffffff166123c2565b611ebb9190612cda565b9050818194509450505050915091565b5f60065f8473ffffffffffffffffffffffffffffffffffffffff1673ffffffffffffffffffffffffffffffffffffffff1681526020019081526020015f205f8373ffffffffffffffffffffffffffffffffffffffff1673ffffffffffffffffffffffffffffffffffffffff1681526020019081526020015f2054905092915050565b60028054611f5a90612ae6565b80601f0160208091040260200160405190810160405280929190818152602001828054611f8690612ae6565b8015611fd15780601f10611fa857610100808354040283529160200191611fd1565b820191905f5260205f20905b815481529060010190602001808311611fb457829003601f168201915b505050505081565b6001600e541461201e576040517f08c379a000000000000000000000000000000000000000000000000000000000815260040161201590612c50565b60405180910390fd5b5f600e8190555061219860095f9054906101000a900473ffffffffffffffffffffffffffffffffffffffff1673ffffffffffffffffffffffffffffffffffffffff166370a08231306040518263ffffffff1660e01b8152600401612082919061277e565b602060405180830381865afa15801561209d573d5f803e3d5ffd5b505050506040513d601f19601f820116820180604052508101906120c19190612c82565b600a5f9054906101000a900473ffffffffffffffffffffffffffffffffffffffff1673ffffffffffffffffffffffffffffffffffffffff166370a08231306040518263ffffffff1660e01b815260040161211b919061277e565b602060405180830381865afa158015612136573d5f803e3d5ffd5b505050506040513d601f19601f8201168201806040525081019061215a9190612c82565b600b5f9054906101000a90046dffffffffffffffffffffffffffff16600b600e9054906101000a90046dffffffffffffffffffffffffffff1661127f565b6001600e81905550565b606060405180606001604052806035815260200161322060359139905090565b5f8082846121d09190612b43565b90508383856121df9190612b43565b9150811115612223576040517f08c379a000000000000000000000000000000000000000000000000000000000815260040161221a906130f2565b60405180910390fd5b8091505092915050565b5f8060075f9054906101000a900473ffffffffffffffffffffffffffffffffffffffff1673ffffffffffffffffffffffffffffffffffffffff1663017e7e586040518163ffffffff1660e01b8152600401602060405180830381865afa158015612299573d5f803e3d5ffd5b505050506040513d601f19601f820116820180604052508101906122bd9190613124565b90505f73ffffffffffffffffffffffffffffffffffffffff168173ffffffffffffffffffffffffffffffffffffffff16141591505f600c54905082156123aa575f81146123a5575f612337612332876dffffffffffffffffffffffffffff16876dffffffffffffffffffffffffffff166123c2565b612441565b90505f61234383612441565b9050808211156123a2575f61236360045461235e85856121c2565b6123c2565b90505f61237a6123748560056123c2565b846124d0565b90505f81836123899190612cda565b90505f81111561239e5761239d8782610985565b5b5050505b50505b6123ba565b5f81146123b9575f600c819055505b5b505092915050565b5f8082846123d09190612fff565b90505f8314806123f85750838384866123e99190612fff565b9250826123f69190612cda565b145b612437576040517f08c379a000000000000000000000000000000000000000000000000000000000815260040161242e90613199565b60405180910390fd5b8091505092915050565b5f60038211156124a6578190505f600160028461245e9190612cda565b6124689190612b76565b90505b818110156124a05780915060028182856124859190612cda565b61248f9190612b76565b6124999190612cda565b905061246b565b506124b3565b5f82146124b257600190505b5b919050565b5f8183106124c657816124c8565b825b905092915050565b5f8082846124de9190612b76565b90508383856124ed9190612b76565b9150811015612531576040517f08c379a000000000000000000000000000000000000000000000000000000000815260040161252890613201565b60405180910390fd5b8091505092915050565b5f81519050919050565b5f82825260208201905092915050565b5f5b83811015612572578082015181840152602081019050612557565b5f8484015250505050565b5f601f19601f8301169050919050565b5f6125978261253b565b6125a18185612545565b93506125b1818560208601612555565b6125ba8161257d565b840191505092915050565b5f6020820190508181035f8301526125dd818461258d565b905092915050565b5f6dffffffffffffffffffffffffffff82169050919050565b612607816125e5565b82525050565b5f63ffffffff82169050919050565b6126258161260d565b82525050565b5f60608201905061263e5f8301866125fe565b61264b60208301856125fe565b612658604083018461261c565b949350505050565b5f604051905090565b5f80fd5b5f80fd5b5f73ffffffffffffffffffffffffffffffffffffffff82169050919050565b5f61269a82612671565b9050919050565b6126aa81612690565b81146126b4575f80fd5b50565b5f813590506126c5816126a1565b92915050565b5f819050919050565b6126dd816126cb565b81146126e7575f80fd5b50565b5f813590506126f8816126d4565b92915050565b5f806040838503121561271457612713612669565b5b5f612721858286016126b7565b9250506020612732858286016126ea565b9150509250929050565b5f8115159050919050565b6127508161273c565b82525050565b5f6020820190506127695f830184612747565b92915050565b61277881612690565b82525050565b5f6020820190506127915f83018461276f565b92915050565b6127a0816126cb565b82525050565b5f6020820190506127b95f830184612797565b92915050565b5f805f606084860312156127d6576127d5612669565b5b5f6127e3868287016126b7565b93505060206127f4868287016126b7565b9250506040612805868287016126ea565b9150509250925092565b5f6020828403121561282457612823612669565b5b5f612831848285016126b7565b91505092915050565b5f80604083850312156128505761284f612669565b5b5f61285d858286016126b7565b925050602061286e858286016126b7565b9150509250929050565b5f80fd5b5f80fd5b7f4e487b71000000000000000000000000000000000000000000000000000000005f52604160045260245ffd5b6128b68261257d565b810181811067ffffffffffffffff821117156128d5576128d4612880565b5b80604052505050565b5f6128e7612660565b90506128f382826128ad565b919050565b5f67ffffffffffffffff82111561291257612911612880565b5b61291b8261257d565b9050602081019050919050565b828183375f83830152505050565b5f612948612943846128f8565b6128de565b9050828152602081018484840111156129645761296361287c565b5b61296f848285612928565b509392505050565b5f82601f83011261298b5761298a612878565b5b813561299b848260208601612936565b91505092915050565b5f602082840312156129b9576129b8612669565b5b5f82013567ffffffffffffffff8111156129d6576129d561266d565b5b6129e284828501612977565b91505092915050565b6129f4816125e5565b81146129fe575f80fd5b50565b5f81359050612a0f816129eb565b92915050565b5f805f8060808587031215612a2d57612a2c612669565b5b5f612a3a878288016126ea565b9450506020612a4b878288016126ea565b9350506040612a5c87828801612a01565b9250506060612a6d87828801612a01565b91505092959194509250565b5f602082019050612a8c5f83018461261c565b92915050565b5f604082019050612aa55f830185612797565b612ab26020830184612797565b9392505050565b7f4e487b71000000000000000000000000000000000000000000000000000000005f52602260045260245ffd5b5f6002820490506001821680612afd57607f821691505b602082108103612b1057612b0f612ab9565b5b50919050565b7f4e487b71000000000000000000000000000000000000000000000000000000005f52601160045260245ffd5b5f612b4d826126cb565b9150612b58836126cb565b9250828203905081811115612b7057612b6f612b16565b5b92915050565b5f612b80826126cb565b9150612b8b836126cb565b9250828201905080821115612ba357612ba2612b16565b5b92915050565b5f81905092915050565b5f612bbd8261253b565b612bc78185612ba9565b9350612bd7818560208601612555565b80840191505092915050565b5f612bee8285612bb3565b9150612bfa8284612bb3565b91508190509392505050565b7f4c4f434b454400000000000000000000000000000000000000000000000000005f82015250565b5f612c3a600683612545565b9150612c4582612c06565b602082019050919050565b5f6020820190508181035f830152612c6781612c2e565b9050919050565b5f81519050612c7c816126d4565b92915050565b5f60208284031215612c9757612c96612669565b5b5f612ca484828501612c6e565b91505092915050565b7f4e487b71000000000000000000000000000000000000000000000000000000005f52601260045260245ffd5b5f612ce4826126cb565b9150612cef836126cb565b925082612cff57612cfe612cad565b5b828204905092915050565b7f494e53554646494349454e545f4c49515549444954595f4d494e5445440000005f82015250565b5f612d3e601d83612545565b9150612d4982612d0a565b602082019050919050565b5f6020820190508181035f830152612d6b81612d32565b9050919050565b5f604082019050612d855f83018561276f565b612d92602083018461276f565b9392505050565b5f8060408385031215612daf57612dae612669565b5b5f612dbc85828601612c6e565b9250506020612dcd85828601612c6e565b9150509250929050565b7f4e6f206665657320746f20636c61696d000000000000000000000000000000005f82015250565b5f612e0b601083612545565b9150612e1682612dd7565b602082019050919050565b5f6020820190508181035f830152612e3881612dff565b9050919050565b5f604082019050612e525f83018561276f565b612e5f6020830184612797565b9392505050565b612e6f8161273c565b8114612e79575f80fd5b50565b5f81519050612e8a81612e66565b92915050565b5f60208284031215612ea557612ea4612669565b5b5f612eb284828501612e7c565b91505092915050565b5f819050919050565b5f819050919050565b5f612ee7612ee2612edd84612ebb565b612ec4565b6126cb565b9050919050565b612ef781612ecd565b82525050565b5f608082019050612f105f83018761276f565b612f1d602083018661276f565b612f2a6040830185612eee565b612f376060830184612eee565b95945050505050565b7f4f564552464c4f570000000000000000000000000000000000000000000000005f82015250565b5f612f74600883612545565b9150612f7f82612f40565b602082019050919050565b5f6020820190508181035f830152612fa181612f68565b9050919050565b5f612fb2826126cb565b9150612fbd836126cb565b925082612fcd57612fcc612cad565b5b828206905092915050565b5f604082019050612feb5f8301856125fe565b612ff860208301846125fe565b9392505050565b5f613009826126cb565b9150613014836126cb565b9250828202613022816126cb565b9150828204841483151761303957613038612b16565b5b5092915050565b7f494e53554646494349454e545f4c49515549444954595f4255524e45440000005f82015250565b5f613074601d83612545565b915061307f82613040565b602082019050919050565b5f6020820190508181035f8301526130a181613068565b9050919050565b7f64732d6d6174682d7375622d756e646572666c6f7700000000000000000000005f82015250565b5f6130dc601583612545565b91506130e7826130a8565b602082019050919050565b5f6020820190508181035f830152613109816130d0565b9050919050565b5f8151905061311e816126a1565b92915050565b5f6020828403121561313957613138612669565b5b5f61314684828501613110565b91505092915050565b7f64732d6d6174682d6d756c2d6f766572666c6f770000000000000000000000005f82015250565b5f613183601483612545565b915061318e8261314f565b602082019050919050565b5f6020820190508181035f8301526131b081613177565b9050919050565b7f64732d6d6174682d6164642d6f766572666c6f770000000000000000000000005f82015250565b5f6131eb601483612545565b91506131f6826131b7565b602082019050919050565b5f6020820190508181035f830152613218816131df565b905091905056fe68747470733a2f2f6372696d736f6e2d67656e65726f75732d616e742d3339352e6d7970696e6174612e636c6f75642f697066732fa2646970667358221220c0a76e159949afd94d6cbfb19283a22b218c55591b52ab21f5a2feb5281521a564736f6c6343000817003368747470733a2f2f6372696d736f6e2d67656e65726f75732d616e742d3339352e6d7970696e6174612e636c6f75642f697066732fa264697066735822122004f12bf254c6a4bf0d82d6f3905983a7f6e1638652f0cf550214d7c3e007d1eb64736f6c63430008170033",
			"opcodes": "PUSH1 0x80 PUSH1 0x40 MSTORE CALLVALUE DUP1 ISZERO PUSH3 0x10 JUMPI PUSH0 DUP1 REVERT JUMPDEST POP PUSH1 0x40 MLOAD PUSH3 0x56AE CODESIZE SUB DUP1 PUSH3 0x56AE DUP4 CODECOPY DUP2 DUP2 ADD PUSH1 0x40 MSTORE DUP2 ADD SWAP1 PUSH3 0x36 SWAP2 SWAP1 PUSH3 0x162 JUMP JUMPDEST DUP1 PUSH1 0x3 PUSH0 PUSH2 0x100 EXP DUP2 SLOAD DUP2 PUSH20 0xFFFFFFFFFFFFFFFFFFFFFFFFFFFFFFFFFFFFFFFF MUL NOT AND SWAP1 DUP4 PUSH20 0xFFFFFFFFFFFFFFFFFFFFFFFFFFFFFFFFFFFFFFFF AND MUL OR SWAP1 SSTORE POP DUP2 PUSH1 0x1 PUSH0 PUSH2 0x100 EXP DUP2 SLOAD DUP2 PUSH20 0xFFFFFFFFFFFFFFFFFFFFFFFFFFFFFFFFFFFFFFFF MUL NOT AND SWAP1 DUP4 PUSH20 0xFFFFFFFFFFFFFFFFFFFFFFFFFFFFFFFFFFFFFFFF AND MUL OR SWAP1 SSTORE POP DUP2 PUSH0 DUP1 PUSH2 0x100 EXP DUP2 SLOAD DUP2 PUSH20 0xFFFFFFFFFFFFFFFFFFFFFFFFFFFFFFFFFFFFFFFF MUL NOT AND SWAP1 DUP4 PUSH20 0xFFFFFFFFFFFFFFFFFFFFFFFFFFFFFFFFFFFFFFFF AND MUL OR SWAP1 SSTORE POP POP POP PUSH3 0x1A7 JUMP JUMPDEST PUSH0 DUP1 REVERT JUMPDEST PUSH0 PUSH20 0xFFFFFFFFFFFFFFFFFFFFFFFFFFFFFFFFFFFFFFFF DUP3 AND SWAP1 POP SWAP2 SWAP1 POP JUMP JUMPDEST PUSH0 PUSH3 0x12C DUP3 PUSH3 0x101 JUMP JUMPDEST SWAP1 POP SWAP2 SWAP1 POP JUMP JUMPDEST PUSH3 0x13E DUP2 PUSH3 0x120 JUMP JUMPDEST DUP2 EQ PUSH3 0x149 JUMPI PUSH0 DUP1 REVERT JUMPDEST POP JUMP JUMPDEST PUSH0 DUP2 MLOAD SWAP1 POP PUSH3 0x15C DUP2 PUSH3 0x133 JUMP JUMPDEST SWAP3 SWAP2 POP POP JUMP JUMPDEST PUSH0 DUP1 PUSH1 0x40 DUP4 DUP6 SUB SLT ISZERO PUSH3 0x17B JUMPI PUSH3 0x17A PUSH3 0xFD JUMP JUMPDEST JUMPDEST PUSH0 PUSH3 0x18A DUP6 DUP3 DUP7 ADD PUSH3 0x14C JUMP JUMPDEST SWAP3 POP POP PUSH1 0x20 PUSH3 0x19D DUP6 DUP3 DUP7 ADD PUSH3 0x14C JUMP JUMPDEST SWAP2 POP POP SWAP3 POP SWAP3 SWAP1 POP JUMP JUMPDEST PUSH2 0x54F9 DUP1 PUSH3 0x1B5 PUSH0 CODECOPY PUSH0 RETURN INVALID PUSH1 0x80 PUSH1 0x40 MSTORE CALLVALUE DUP1 ISZERO PUSH3 0x10 JUMPI PUSH0 DUP1 REVERT JUMPDEST POP PUSH1 0x4 CALLDATASIZE LT PUSH3 0x85 JUMPI PUSH0 CALLDATALOAD PUSH1 0xE0 SHR DUP1 PUSH4 0xA2E74AF6 GT PUSH3 0x61 JUMPI DUP1 PUSH4 0xA2E74AF6 EQ PUSH3 0x103 JUMPI DUP1 PUSH4 0xB4F69A2F EQ PUSH3 0x123 JUMPI DUP1 PUSH4 0xC9C65396 EQ PUSH3 0x159 JUMPI DUP1 PUSH4 0xF46901ED EQ PUSH3 0x18F JUMPI PUSH3 0x85 JUMP JUMPDEST DUP1 PUSH3 0xC194DB EQ PUSH3 0x89 JUMPI DUP1 PUSH4 0x17E7E58 EQ PUSH3 0xAB JUMPI DUP1 PUSH4 0x36994290 EQ PUSH3 0xCD JUMPI JUMPDEST PUSH0 DUP1 REVERT JUMPDEST PUSH3 0x93 PUSH3 0x1AF JUMP JUMPDEST PUSH1 0x40 MLOAD PUSH3 0xA2 SWAP2 SWAP1 PUSH3 0xFD8 JUMP JUMPDEST PUSH1 0x40 MLOAD DUP1 SWAP2 SUB SWAP1 RETURN JUMPDEST PUSH3 0xB5 PUSH3 0x1DC JUMP JUMPDEST PUSH1 0x40 MLOAD PUSH3 0xC4 SWAP2 SWAP1 PUSH3 0x103D JUMP JUMPDEST PUSH1 0x40 MLOAD DUP1 SWAP2 SUB SWAP1 RETURN JUMPDEST PUSH3 0xEB PUSH1 0x4 DUP1 CALLDATASIZE SUB DUP2 ADD SWAP1 PUSH3 0xE5 SWAP2 SWAP1 PUSH3 0x1098 JUMP JUMPDEST PUSH3 0x201 JUMP JUMPDEST PUSH1 0x40 MLOAD PUSH3 0xFA SWAP2 SWAP1 PUSH3 0x10F9 JUMP JUMPDEST PUSH1 0x40 MLOAD DUP1 SWAP2 SUB SWAP1 RETURN JUMPDEST PUSH3 0x121 PUSH1 0x4 DUP1 CALLDATASIZE SUB DUP2 ADD SWAP1 PUSH3 0x11B SWAP2 SWAP1 PUSH3 0x1114 JUMP JUMPDEST PUSH3 0x4EA JUMP JUMPDEST STOP JUMPDEST PUSH3 0x141 PUSH1 0x4 DUP1 CALLDATASIZE SUB DUP2 ADD SWAP1 PUSH3 0x13B SWAP2 SWAP1 PUSH3 0x1098 JUMP JUMPDEST PUSH3 0x5BF JUMP JUMPDEST PUSH1 0x40 MLOAD PUSH3 0x150 SWAP2 SWAP1 PUSH3 0x103D JUMP JUMPDEST PUSH1 0x40 MLOAD DUP1 SWAP2 SUB SWAP1 RETURN JUMPDEST PUSH3 0x177 PUSH1 0x4 DUP1 CALLDATASIZE SUB DUP2 ADD SWAP1 PUSH3 0x171 SWAP2 SWAP1 PUSH3 0x1098 JUMP JUMPDEST PUSH3 0x660 JUMP JUMPDEST PUSH1 0x40 MLOAD PUSH3 0x186 SWAP2 SWAP1 PUSH3 0x10F9 JUMP JUMPDEST PUSH1 0x40 MLOAD DUP1 SWAP2 SUB SWAP1 RETURN JUMPDEST PUSH3 0x1AD PUSH1 0x4 DUP1 CALLDATASIZE SUB DUP2 ADD SWAP1 PUSH3 0x1A7 SWAP2 SWAP1 PUSH3 0x1114 JUMP JUMPDEST PUSH3 0xE61 JUMP JUMPDEST STOP JUMPDEST PUSH1 0x60 PUSH1 0x40 MLOAD DUP1 PUSH1 0x20 ADD PUSH3 0x1C3 SWAP1 PUSH3 0xF36 JUMP JUMPDEST PUSH1 0x20 DUP3 ADD DUP2 SUB DUP3 MSTORE PUSH1 0x1F NOT PUSH1 0x1F DUP3 ADD AND PUSH1 0x40 MSTORE POP SWAP1 POP SWAP1 JUMP JUMPDEST PUSH1 0x2 PUSH0 SWAP1 SLOAD SWAP1 PUSH2 0x100 EXP SWAP1 DIV PUSH20 0xFFFFFFFFFFFFFFFFFFFFFFFFFFFFFFFFFFFFFFFF AND DUP2 JUMP JUMPDEST PUSH0 DUP1 PUSH1 0x4 PUSH0 DUP6 PUSH20 0xFFFFFFFFFFFFFFFFFFFFFFFFFFFFFFFFFFFFFFFF AND PUSH20 0xFFFFFFFFFFFFFFFFFFFFFFFFFFFFFFFFFFFFFFFF AND DUP2 MSTORE PUSH1 0x20 ADD SWAP1 DUP2 MSTORE PUSH1 0x20 ADD PUSH0 KECCAK256 PUSH0 DUP5 PUSH20 0xFFFFFFFFFFFFFFFFFFFFFFFFFFFFFFFFFFFFFFFF AND PUSH20 0xFFFFFFFFFFFFFFFFFFFFFFFFFFFFFFFFFFFFFFFF AND DUP2 MSTORE PUSH1 0x20 ADD SWAP1 DUP2 MSTORE PUSH1 0x20 ADD PUSH0 KECCAK256 PUSH0 SWAP1 SLOAD SWAP1 PUSH2 0x100 EXP SWAP1 DIV PUSH20 0xFFFFFFFFFFFFFFFFFFFFFFFFFFFFFFFFFFFFFFFF AND SWAP1 POP PUSH0 DUP1 JUMPDEST PUSH0 DUP1 SLOAD SWAP1 PUSH2 0x100 EXP SWAP1 DIV PUSH20 0xFFFFFFFFFFFFFFFFFFFFFFFFFFFFFFFFFFFFFFFF AND PUSH20 0xFFFFFFFFFFFFFFFFFFFFFFFFFFFFFFFFFFFFFFFF AND PUSH4 0xAA34735B CALLER PUSH1 0x40 MLOAD DUP3 PUSH4 0xFFFFFFFF AND PUSH1 0xE0 SHL DUP2 MSTORE PUSH1 0x4 ADD PUSH3 0x2FA SWAP2 SWAP1 PUSH3 0x103D JUMP JUMPDEST PUSH1 0x20 PUSH1 0x40 MLOAD DUP1 DUP4 SUB DUP2 DUP7 GAS STATICCALL ISZERO DUP1 ISZERO PUSH3 0x316 JUMPI RETURNDATASIZE PUSH0 DUP1 RETURNDATACOPY RETURNDATASIZE PUSH0 REVERT JUMPDEST POP POP POP POP PUSH1 0x40 MLOAD RETURNDATASIZE PUSH1 0x1F NOT PUSH1 0x1F DUP3 ADD AND DUP3 ADD DUP1 PUSH1 0x40 MSTORE POP DUP2 ADD SWAP1 PUSH3 0x33C SWAP2 SWAP1 PUSH3 0x117C JUMP JUMPDEST DUP2 LT ISZERO PUSH3 0x442 JUMPI DUP3 PUSH20 0xFFFFFFFFFFFFFFFFFFFFFFFFFFFFFFFFFFFFFFFF AND PUSH0 DUP1 SLOAD SWAP1 PUSH2 0x100 EXP SWAP1 DIV PUSH20 0xFFFFFFFFFFFFFFFFFFFFFFFFFFFFFFFFFFFFFFFF AND PUSH20 0xFFFFFFFFFFFFFFFFFFFFFFFFFFFFFFFFFFFFFFFF AND PUSH4 0x4AE03B00 CALLER PUSH1 0x40 MLOAD DUP3 PUSH4 0xFFFFFFFF AND PUSH1 0xE0 SHL DUP2 MSTORE PUSH1 0x4 ADD PUSH3 0x3B5 SWAP2 SWAP1 PUSH3 0x103D JUMP JUMPDEST PUSH0 PUSH1 0x40 MLOAD DUP1 DUP4 SUB DUP2 DUP7 GAS STATICCALL ISZERO DUP1 ISZERO PUSH3 0x3D0 JUMPI RETURNDATASIZE PUSH0 DUP1 RETURNDATACOPY RETURNDATASIZE PUSH0 REVERT JUMPDEST POP POP POP POP PUSH1 0x40 MLOAD RETURNDATASIZE PUSH0 DUP3 RETURNDATACOPY RETURNDATASIZE PUSH1 0x1F NOT PUSH1 0x1F DUP3 ADD AND DUP3 ADD DUP1 PUSH1 0x40 MSTORE POP DUP2 ADD SWAP1 PUSH3 0x3FA SWAP2 SWAP1 PUSH3 0x131E JUMP JUMPDEST DUP3 DUP2 MLOAD DUP2 LT PUSH3 0x40F JUMPI PUSH3 0x40E PUSH3 0x136D JUMP JUMPDEST JUMPDEST PUSH1 0x20 MUL PUSH1 0x20 ADD ADD MLOAD PUSH20 0xFFFFFFFFFFFFFFFFFFFFFFFFFFFFFFFFFFFFFFFF AND SUB ISZERO PUSH3 0x442 JUMPI DUP1 DUP1 PUSH1 0x1 ADD SWAP2 POP POP PUSH3 0x2A0 JUMP JUMPDEST POP PUSH0 ISZERO ISZERO DUP2 ISZERO ISZERO EQ PUSH3 0x453 JUMPI PUSH0 DUP1 REVERT JUMPDEST PUSH0 DUP1 SLOAD SWAP1 PUSH2 0x100 EXP SWAP1 DIV PUSH20 0xFFFFFFFFFFFFFFFFFFFFFFFFFFFFFFFFFFFFFFFF AND PUSH20 0xFFFFFFFFFFFFFFFFFFFFFFFFFFFFFFFFFFFFFFFF AND PUSH4 0xCD8EB62 CALLER DUP5 PUSH1 0x40 MLOAD DUP4 PUSH4 0xFFFFFFFF AND PUSH1 0xE0 SHL DUP2 MSTORE PUSH1 0x4 ADD PUSH3 0x4AF SWAP3 SWAP2 SWAP1 PUSH3 0x139A JUMP JUMPDEST PUSH0 PUSH1 0x40 MLOAD DUP1 DUP4 SUB DUP2 PUSH0 DUP8 DUP1 EXTCODESIZE ISZERO DUP1 ISZERO PUSH3 0x4C7 JUMPI PUSH0 DUP1 REVERT JUMPDEST POP GAS CALL ISZERO DUP1 ISZERO PUSH3 0x4DA JUMPI RETURNDATASIZE PUSH0 DUP1 RETURNDATACOPY RETURNDATASIZE PUSH0 REVERT JUMPDEST POP POP POP POP PUSH1 0x1 SWAP3 POP POP POP SWAP3 SWAP2 POP POP JUMP JUMPDEST PUSH1 0x3 PUSH0 SWAP1 SLOAD SWAP1 PUSH2 0x100 EXP SWAP1 DIV PUSH20 0xFFFFFFFFFFFFFFFFFFFFFFFFFFFFFFFFFFFFFFFF AND PUSH20 0xFFFFFFFFFFFFFFFFFFFFFFFFFFFFFFFFFFFFFFFF AND CALLER PUSH20 0xFFFFFFFFFFFFFFFFFFFFFFFFFFFFFFFFFFFFFFFF AND EQ PUSH3 0x57C JUMPI PUSH1 0x40 MLOAD PUSH32 0x8C379A000000000000000000000000000000000000000000000000000000000 DUP2 MSTORE PUSH1 0x4 ADD PUSH3 0x573 SWAP1 PUSH3 0x1423 JUMP JUMPDEST PUSH1 0x40 MLOAD DUP1 SWAP2 SUB SWAP1 REVERT JUMPDEST DUP1 PUSH1 0x3 PUSH0 PUSH2 0x100 EXP DUP2 SLOAD DUP2 PUSH20 0xFFFFFFFFFFFFFFFFFFFFFFFFFFFFFFFFFFFFFFFF MUL NOT AND SWAP1 DUP4 PUSH20 0xFFFFFFFFFFFFFFFFFFFFFFFFFFFFFFFFFFFFFFFF AND MUL OR SWAP1 SSTORE POP POP JUMP JUMPDEST PUSH0 PUSH1 0x4 PUSH0 DUP5 PUSH20 0xFFFFFFFFFFFFFFFFFFFFFFFFFFFFFFFFFFFFFFFF AND PUSH20 0xFFFFFFFFFFFFFFFFFFFFFFFFFFFFFFFFFFFFFFFF AND DUP2 MSTORE PUSH1 0x20 ADD SWAP1 DUP2 MSTORE PUSH1 0x20 ADD PUSH0 KECCAK256 PUSH0 DUP4 PUSH20 0xFFFFFFFFFFFFFFFFFFFFFFFFFFFFFFFFFFFFFFFF AND PUSH20 0xFFFFFFFFFFFFFFFFFFFFFFFFFFFFFFFFFFFFFFFF AND DUP2 MSTORE PUSH1 0x20 ADD SWAP1 DUP2 MSTORE PUSH1 0x20 ADD PUSH0 KECCAK256 PUSH0 SWAP1 SLOAD SWAP1 PUSH2 0x100 EXP SWAP1 DIV PUSH20 0xFFFFFFFFFFFFFFFFFFFFFFFFFFFFFFFFFFFFFFFF AND SWAP1 POP SWAP3 SWAP2 POP POP JUMP JUMPDEST PUSH0 DUP2 PUSH20 0xFFFFFFFFFFFFFFFFFFFFFFFFFFFFFFFFFFFFFFFF AND DUP4 PUSH20 0xFFFFFFFFFFFFFFFFFFFFFFFFFFFFFFFFFFFFFFFF AND SUB PUSH3 0x6D2 JUMPI PUSH1 0x40 MLOAD PUSH32 0x8C379A000000000000000000000000000000000000000000000000000000000 DUP2 MSTORE PUSH1 0x4 ADD PUSH3 0x6C9 SWAP1 PUSH3 0x1491 JUMP JUMPDEST PUSH1 0x40 MLOAD DUP1 SWAP2 SUB SWAP1 REVERT JUMPDEST PUSH0 DUP1 DUP4 PUSH20 0xFFFFFFFFFFFFFFFFFFFFFFFFFFFFFFFFFFFFFFFF AND DUP6 PUSH20 0xFFFFFFFFFFFFFFFFFFFFFFFFFFFFFFFFFFFFFFFF AND LT PUSH3 0x710 JUMPI DUP4 DUP6 PUSH3 0x713 JUMP JUMPDEST DUP5 DUP5 JUMPDEST SWAP2 POP SWAP2 POP PUSH0 PUSH20 0xFFFFFFFFFFFFFFFFFFFFFFFFFFFFFFFFFFFFFFFF AND DUP3 PUSH20 0xFFFFFFFFFFFFFFFFFFFFFFFFFFFFFFFFFFFFFFFF AND SUB PUSH3 0x788 JUMPI PUSH1 0x40 MLOAD PUSH32 0x8C379A000000000000000000000000000000000000000000000000000000000 DUP2 MSTORE PUSH1 0x4 ADD PUSH3 0x77F SWAP1 PUSH3 0x14FF JUMP JUMPDEST PUSH1 0x40 MLOAD DUP1 SWAP2 SUB SWAP1 REVERT JUMPDEST PUSH0 PUSH20 0xFFFFFFFFFFFFFFFFFFFFFFFFFFFFFFFFFFFFFFFF AND PUSH1 0x4 PUSH0 DUP5 PUSH20 0xFFFFFFFFFFFFFFFFFFFFFFFFFFFFFFFFFFFFFFFF AND PUSH20 0xFFFFFFFFFFFFFFFFFFFFFFFFFFFFFFFFFFFFFFFF AND DUP2 MSTORE PUSH1 0x20 ADD SWAP1 DUP2 MSTORE PUSH1 0x20 ADD PUSH0 KECCAK256 PUSH0 DUP4 PUSH20 0xFFFFFFFFFFFFFFFFFFFFFFFFFFFFFFFFFFFFFFFF AND PUSH20 0xFFFFFFFFFFFFFFFFFFFFFFFFFFFFFFFFFFFFFFFF AND DUP2 MSTORE PUSH1 0x20 ADD SWAP1 DUP2 MSTORE PUSH1 0x20 ADD PUSH0 KECCAK256 PUSH0 SWAP1 SLOAD SWAP1 PUSH2 0x100 EXP SWAP1 DIV PUSH20 0xFFFFFFFFFFFFFFFFFFFFFFFFFFFFFFFFFFFFFFFF AND PUSH20 0xFFFFFFFFFFFFFFFFFFFFFFFFFFFFFFFFFFFFFFFF AND EQ PUSH3 0x890 JUMPI PUSH1 0x40 MLOAD PUSH32 0x8C379A000000000000000000000000000000000000000000000000000000000 DUP2 MSTORE PUSH1 0x4 ADD PUSH3 0x887 SWAP1 PUSH3 0x156D JUMP JUMPDEST PUSH1 0x40 MLOAD DUP1 SWAP2 SUB SWAP1 REVERT JUMPDEST PUSH0 DUP6 PUSH20 0xFFFFFFFFFFFFFFFFFFFFFFFFFFFFFFFFFFFFFFFF AND PUSH4 0x6FDDE03 PUSH1 0x40 MLOAD DUP2 PUSH4 0xFFFFFFFF AND PUSH1 0xE0 SHL DUP2 MSTORE PUSH1 0x4 ADD PUSH0 PUSH1 0x40 MLOAD DUP1 DUP4 SUB DUP2 DUP7 GAS STATICCALL ISZERO DUP1 ISZERO PUSH3 0x8DA JUMPI RETURNDATASIZE PUSH0 DUP1 RETURNDATACOPY RETURNDATASIZE PUSH0 REVERT JUMPDEST POP POP POP POP PUSH1 0x40 MLOAD RETURNDATASIZE PUSH0 DUP3 RETURNDATACOPY RETURNDATASIZE PUSH1 0x1F NOT PUSH1 0x1F DUP3 ADD AND DUP3 ADD DUP1 PUSH1 0x40 MSTORE POP DUP2 ADD SWAP1 PUSH3 0x904 SWAP2 SWAP1 PUSH3 0x1642 JUMP JUMPDEST SWAP1 POP PUSH0 DUP6 PUSH20 0xFFFFFFFFFFFFFFFFFFFFFFFFFFFFFFFFFFFFFFFF AND PUSH4 0x6FDDE03 PUSH1 0x40 MLOAD DUP2 PUSH4 0xFFFFFFFF AND PUSH1 0xE0 SHL DUP2 MSTORE PUSH1 0x4 ADD PUSH0 PUSH1 0x40 MLOAD DUP1 DUP4 SUB DUP2 DUP7 GAS STATICCALL ISZERO DUP1 ISZERO PUSH3 0x950 JUMPI RETURNDATASIZE PUSH0 DUP1 RETURNDATACOPY RETURNDATASIZE PUSH0 REVERT JUMPDEST POP POP POP POP PUSH1 0x40 MLOAD RETURNDATASIZE PUSH0 DUP3 RETURNDATACOPY RETURNDATASIZE PUSH1 0x1F NOT PUSH1 0x1F DUP3 ADD AND DUP3 ADD DUP1 PUSH1 0x40 MSTORE POP DUP2 ADD SWAP1 PUSH3 0x97A SWAP2 SWAP1 PUSH3 0x1642 JUMP JUMPDEST SWAP1 POP PUSH0 DUP8 PUSH20 0xFFFFFFFFFFFFFFFFFFFFFFFFFFFFFFFFFFFFFFFF AND PUSH4 0x95D89B41 PUSH1 0x40 MLOAD DUP2 PUSH4 0xFFFFFFFF AND PUSH1 0xE0 SHL DUP2 MSTORE PUSH1 0x4 ADD PUSH0 PUSH1 0x40 MLOAD DUP1 DUP4 SUB DUP2 DUP7 GAS STATICCALL ISZERO DUP1 ISZERO PUSH3 0x9C6 JUMPI RETURNDATASIZE PUSH0 DUP1 RETURNDATACOPY RETURNDATASIZE PUSH0 REVERT JUMPDEST POP POP POP POP PUSH1 0x40 MLOAD RETURNDATASIZE PUSH0 DUP3 RETURNDATACOPY RETURNDATASIZE PUSH1 0x1F NOT PUSH1 0x1F DUP3 ADD AND DUP3 ADD DUP1 PUSH1 0x40 MSTORE POP DUP2 ADD SWAP1 PUSH3 0x9F0 SWAP2 SWAP1 PUSH3 0x1642 JUMP JUMPDEST SWAP1 POP PUSH0 DUP8 PUSH20 0xFFFFFFFFFFFFFFFFFFFFFFFFFFFFFFFFFFFFFFFF AND PUSH4 0x95D89B41 PUSH1 0x40 MLOAD DUP2 PUSH4 0xFFFFFFFF AND PUSH1 0xE0 SHL DUP2 MSTORE PUSH1 0x4 ADD PUSH0 PUSH1 0x40 MLOAD DUP1 DUP4 SUB DUP2 DUP7 GAS STATICCALL ISZERO DUP1 ISZERO PUSH3 0xA3C JUMPI RETURNDATASIZE PUSH0 DUP1 RETURNDATACOPY RETURNDATASIZE PUSH0 REVERT JUMPDEST POP POP POP POP PUSH1 0x40 MLOAD RETURNDATASIZE PUSH0 DUP3 RETURNDATACOPY RETURNDATASIZE PUSH1 0x1F NOT PUSH1 0x1F DUP3 ADD AND DUP3 ADD DUP1 PUSH1 0x40 MSTORE POP DUP2 ADD SWAP1 PUSH3 0xA66 SWAP2 SWAP1 PUSH3 0x1642 JUMP JUMPDEST SWAP1 POP PUSH0 DUP5 DUP5 PUSH1 0x40 MLOAD PUSH1 0x20 ADD PUSH3 0xA7E SWAP3 SWAP2 SWAP1 PUSH3 0x1729 JUMP JUMPDEST PUSH1 0x40 MLOAD PUSH1 0x20 DUP2 DUP4 SUB SUB DUP2 MSTORE SWAP1 PUSH1 0x40 MSTORE SWAP1 POP PUSH0 DUP4 DUP4 PUSH1 0x40 MLOAD PUSH1 0x20 ADD PUSH3 0xAA5 SWAP3 SWAP2 SWAP1 PUSH3 0x175D JUMP JUMPDEST PUSH1 0x40 MLOAD PUSH1 0x20 DUP2 DUP4 SUB SUB DUP2 MSTORE SWAP1 PUSH1 0x40 MSTORE SWAP1 POP PUSH0 DUP3 DUP3 PUSH1 0x40 MLOAD PUSH3 0xAC7 SWAP1 PUSH3 0xF36 JUMP JUMPDEST PUSH3 0xAD4 SWAP3 SWAP2 SWAP1 PUSH3 0x17C4 JUMP JUMPDEST PUSH1 0x40 MLOAD DUP1 SWAP2 SUB SWAP1 PUSH0 CREATE DUP1 ISZERO DUP1 ISZERO PUSH3 0xAEE JUMPI RETURNDATASIZE PUSH0 DUP1 RETURNDATACOPY RETURNDATASIZE PUSH0 REVERT JUMPDEST POP SWAP1 POP PUSH0 DUP2 SWAP1 POP DUP1 PUSH20 0xFFFFFFFFFFFFFFFFFFFFFFFFFFFFFFFFFFFFFFFF AND PUSH4 0x485CC955 DUP12 DUP12 PUSH1 0x40 MLOAD DUP4 PUSH4 0xFFFFFFFF AND PUSH1 0xE0 SHL DUP2 MSTORE PUSH1 0x4 ADD PUSH3 0xB32 SWAP3 SWAP2 SWAP1 PUSH3 0x139A JUMP JUMPDEST PUSH0 PUSH1 0x40 MLOAD DUP1 DUP4 SUB DUP2 PUSH0 DUP8 DUP1 EXTCODESIZE ISZERO DUP1 ISZERO PUSH3 0xB4A JUMPI PUSH0 DUP1 REVERT JUMPDEST POP GAS CALL ISZERO DUP1 ISZERO PUSH3 0xB5D JUMPI RETURNDATASIZE PUSH0 DUP1 RETURNDATACOPY RETURNDATASIZE PUSH0 REVERT JUMPDEST POP POP POP POP DUP1 PUSH1 0x4 PUSH0 DUP13 PUSH20 0xFFFFFFFFFFFFFFFFFFFFFFFFFFFFFFFFFFFFFFFF AND PUSH20 0xFFFFFFFFFFFFFFFFFFFFFFFFFFFFFFFFFFFFFFFF AND DUP2 MSTORE PUSH1 0x20 ADD SWAP1 DUP2 MSTORE PUSH1 0x20 ADD PUSH0 KECCAK256 PUSH0 DUP12 PUSH20 0xFFFFFFFFFFFFFFFFFFFFFFFFFFFFFFFFFFFFFFFF AND PUSH20 0xFFFFFFFFFFFFFFFFFFFFFFFFFFFFFFFFFFFFFFFF AND DUP2 MSTORE PUSH1 0x20 ADD SWAP1 DUP2 MSTORE PUSH1 0x20 ADD PUSH0 KECCAK256 PUSH0 PUSH2 0x100 EXP DUP2 SLOAD DUP2 PUSH20 0xFFFFFFFFFFFFFFFFFFFFFFFFFFFFFFFFFFFFFFFF MUL NOT AND SWAP1 DUP4 PUSH20 0xFFFFFFFFFFFFFFFFFFFFFFFFFFFFFFFFFFFFFFFF AND MUL OR SWAP1 SSTORE POP DUP1 PUSH1 0x4 PUSH0 DUP12 PUSH20 0xFFFFFFFFFFFFFFFFFFFFFFFFFFFFFFFFFFFFFFFF AND PUSH20 0xFFFFFFFFFFFFFFFFFFFFFFFFFFFFFFFFFFFFFFFF AND DUP2 MSTORE PUSH1 0x20 ADD SWAP1 DUP2 MSTORE PUSH1 0x20 ADD PUSH0 KECCAK256 PUSH0 DUP13 PUSH20 0xFFFFFFFFFFFFFFFFFFFFFFFFFFFFFFFFFFFFFFFF AND PUSH20 0xFFFFFFFFFFFFFFFFFFFFFFFFFFFFFFFFFFFFFFFF AND DUP2 MSTORE PUSH1 0x20 ADD SWAP1 DUP2 MSTORE PUSH1 0x20 ADD PUSH0 KECCAK256 PUSH0 PUSH2 0x100 EXP DUP2 SLOAD DUP2 PUSH20 0xFFFFFFFFFFFFFFFFFFFFFFFFFFFFFFFFFFFFFFFF MUL NOT AND SWAP1 DUP4 PUSH20 0xFFFFFFFFFFFFFFFFFFFFFFFFFFFFFFFFFFFFFFFF AND MUL OR SWAP1 SSTORE POP PUSH0 DUP1 SLOAD SWAP1 PUSH2 0x100 EXP SWAP1 DIV PUSH20 0xFFFFFFFFFFFFFFFFFFFFFFFFFFFFFFFFFFFFFFFF AND PUSH20 0xFFFFFFFFFFFFFFFFFFFFFFFFFFFFFFFFFFFFFFFF AND PUSH4 0xC2B7BBB6 DUP3 PUSH1 0x40 MLOAD DUP3 PUSH4 0xFFFFFFFF AND PUSH1 0xE0 SHL DUP2 MSTORE PUSH1 0x4 ADD PUSH3 0xD27 SWAP2 SWAP1 PUSH3 0x103D JUMP JUMPDEST PUSH0 PUSH1 0x40 MLOAD DUP1 DUP4 SUB DUP2 PUSH0 DUP8 DUP1 EXTCODESIZE ISZERO DUP1 ISZERO PUSH3 0xD3F JUMPI PUSH0 DUP1 REVERT JUMPDEST POP GAS CALL ISZERO DUP1 ISZERO PUSH3 0xD52 JUMPI RETURNDATASIZE PUSH0 DUP1 RETURNDATACOPY RETURNDATASIZE PUSH0 REVERT JUMPDEST POP POP POP POP DUP9 PUSH20 0xFFFFFFFFFFFFFFFFFFFFFFFFFFFFFFFFFFFFFFFF AND DUP11 PUSH20 0xFFFFFFFFFFFFFFFFFFFFFFFFFFFFFFFFFFFFFFFF AND PUSH32 0xD3648BD0F6BA80134A33BA9275AC585D9D315F0AD8355CDDEFDE31AFA28D0E9 DUP4 PUSH0 DUP1 SLOAD SWAP1 PUSH2 0x100 EXP SWAP1 DIV PUSH20 0xFFFFFFFFFFFFFFFFFFFFFFFFFFFFFFFFFFFFFFFF AND PUSH20 0xFFFFFFFFFFFFFFFFFFFFFFFFFFFFFFFFFFFFFFFF AND PUSH4 0x574F2BA3 PUSH1 0x40 MLOAD DUP2 PUSH4 0xFFFFFFFF AND PUSH1 0xE0 SHL DUP2 MSTORE PUSH1 0x4 ADD PUSH1 0x20 PUSH1 0x40 MLOAD DUP1 DUP4 SUB DUP2 DUP7 GAS STATICCALL ISZERO DUP1 ISZERO PUSH3 0xE0F JUMPI RETURNDATASIZE PUSH0 DUP1 RETURNDATACOPY RETURNDATASIZE PUSH0 REVERT JUMPDEST POP POP POP POP PUSH1 0x40 MLOAD RETURNDATASIZE PUSH1 0x1F NOT PUSH1 0x1F DUP3 ADD AND DUP3 ADD DUP1 PUSH1 0x40 MSTORE POP DUP2 ADD SWAP1 PUSH3 0xE35 SWAP2 SWAP1 PUSH3 0x117C JUMP JUMPDEST PUSH1 0x40 MLOAD PUSH3 0xE45 SWAP3 SWAP2 SWAP1 PUSH3 0x180E JUMP JUMPDEST PUSH1 0x40 MLOAD DUP1 SWAP2 SUB SWAP1 LOG3 PUSH1 0x1 SWAP11 POP POP POP POP POP POP POP POP POP POP POP SWAP3 SWAP2 POP POP JUMP JUMPDEST PUSH1 0x3 PUSH0 SWAP1 SLOAD SWAP1 PUSH2 0x100 EXP SWAP1 DIV PUSH20 0xFFFFFFFFFFFFFFFFFFFFFFFFFFFFFFFFFFFFFFFF AND PUSH20 0xFFFFFFFFFFFFFFFFFFFFFFFFFFFFFFFFFFFFFFFF AND CALLER PUSH20 0xFFFFFFFFFFFFFFFFFFFFFFFFFFFFFFFFFFFFFFFF AND EQ PUSH3 0xEF3 JUMPI PUSH1 0x40 MLOAD PUSH32 0x8C379A000000000000000000000000000000000000000000000000000000000 DUP2 MSTORE PUSH1 0x4 ADD PUSH3 0xEEA SWAP1 PUSH3 0x1423 JUMP JUMPDEST PUSH1 0x40 MLOAD DUP1 SWAP2 SUB SWAP1 REVERT JUMPDEST DUP1 PUSH1 0x2 PUSH0 PUSH2 0x100 EXP DUP2 SLOAD DUP2 PUSH20 0xFFFFFFFFFFFFFFFFFFFFFFFFFFFFFFFFFFFFFFFF MUL NOT AND SWAP1 DUP4 PUSH20 0xFFFFFFFFFFFFFFFFFFFFFFFFFFFFFFFFFFFFFFFF AND MUL OR SWAP1 SSTORE POP POP JUMP JUMPDEST PUSH2 0x3C8A DUP1 PUSH3 0x183A DUP4 CODECOPY ADD SWAP1 JUMP JUMPDEST PUSH0 DUP2 MLOAD SWAP1 POP SWAP2 SWAP1 POP JUMP JUMPDEST PUSH0 DUP3 DUP3 MSTORE PUSH1 0x20 DUP3 ADD SWAP1 POP SWAP3 SWAP2 POP POP JUMP JUMPDEST PUSH0 JUMPDEST DUP4 DUP2 LT ISZERO PUSH3 0xF7D JUMPI DUP1 DUP3 ADD MLOAD DUP2 DUP5 ADD MSTORE PUSH1 0x20 DUP2 ADD SWAP1 POP PUSH3 0xF60 JUMP JUMPDEST PUSH0 DUP5 DUP5 ADD MSTORE POP POP POP POP JUMP JUMPDEST PUSH0 PUSH1 0x1F NOT PUSH1 0x1F DUP4 ADD AND SWAP1 POP SWAP2 SWAP1 POP JUMP JUMPDEST PUSH0 PUSH3 0xFA4 DUP3 PUSH3 0xF44 JUMP JUMPDEST PUSH3 0xFB0 DUP2 DUP6 PUSH3 0xF4E JUMP JUMPDEST SWAP4 POP PUSH3 0xFC2 DUP2 DUP6 PUSH1 0x20 DUP7 ADD PUSH3 0xF5E JUMP JUMPDEST PUSH3 0xFCD DUP2 PUSH3 0xF88 JUMP JUMPDEST DUP5 ADD SWAP2 POP POP SWAP3 SWAP2 POP POP JUMP JUMPDEST PUSH0 PUSH1 0x20 DUP3 ADD SWAP1 POP DUP2 DUP2 SUB PUSH0 DUP4 ADD MSTORE PUSH3 0xFF2 DUP2 DUP5 PUSH3 0xF98 JUMP JUMPDEST SWAP1 POP SWAP3 SWAP2 POP POP JUMP JUMPDEST PUSH0 PUSH20 0xFFFFFFFFFFFFFFFFFFFFFFFFFFFFFFFFFFFFFFFF DUP3 AND SWAP1 POP SWAP2 SWAP1 POP JUMP JUMPDEST PUSH0 PUSH3 0x1025 DUP3 PUSH3 0xFFA JUMP JUMPDEST SWAP1 POP SWAP2 SWAP1 POP JUMP JUMPDEST PUSH3 0x1037 DUP2 PUSH3 0x1019 JUMP JUMPDEST DUP3 MSTORE POP POP JUMP JUMPDEST PUSH0 PUSH1 0x20 DUP3 ADD SWAP1 POP PUSH3 0x1052 PUSH0 DUP4 ADD DUP5 PUSH3 0x102C JUMP JUMPDEST SWAP3 SWAP2 POP POP JUMP JUMPDEST PUSH0 PUSH1 0x40 MLOAD SWAP1 POP SWAP1 JUMP JUMPDEST PUSH0 DUP1 REVERT JUMPDEST PUSH0 DUP1 REVERT JUMPDEST PUSH3 0x1074 DUP2 PUSH3 0x1019 JUMP JUMPDEST DUP2 EQ PUSH3 0x107F JUMPI PUSH0 DUP1 REVERT JUMPDEST POP JUMP JUMPDEST PUSH0 DUP2 CALLDATALOAD SWAP1 POP PUSH3 0x1092 DUP2 PUSH3 0x1069 JUMP JUMPDEST SWAP3 SWAP2 POP POP JUMP JUMPDEST PUSH0 DUP1 PUSH1 0x40 DUP4 DUP6 SUB SLT ISZERO PUSH3 0x10B1 JUMPI PUSH3 0x10B0 PUSH3 0x1061 JUMP JUMPDEST JUMPDEST PUSH0 PUSH3 0x10C0 DUP6 DUP3 DUP7 ADD PUSH3 0x1082 JUMP JUMPDEST SWAP3 POP POP PUSH1 0x20 PUSH3 0x10D3 DUP6 DUP3 DUP7 ADD PUSH3 0x1082 JUMP JUMPDEST SWAP2 POP POP SWAP3 POP SWAP3 SWAP1 POP JUMP JUMPDEST PUSH0 DUP2 ISZERO ISZERO SWAP1 POP SWAP2 SWAP1 POP JUMP JUMPDEST PUSH3 0x10F3 DUP2 PUSH3 0x10DD JUMP JUMPDEST DUP3 MSTORE POP POP JUMP JUMPDEST PUSH0 PUSH1 0x20 DUP3 ADD SWAP1 POP PUSH3 0x110E PUSH0 DUP4 ADD DUP5 PUSH3 0x10E8 JUMP JUMPDEST SWAP3 SWAP2 POP POP JUMP JUMPDEST PUSH0 PUSH1 0x20 DUP3 DUP5 SUB SLT ISZERO PUSH3 0x112C JUMPI PUSH3 0x112B PUSH3 0x1061 JUMP JUMPDEST JUMPDEST PUSH0 PUSH3 0x113B DUP5 DUP3 DUP6 ADD PUSH3 0x1082 JUMP JUMPDEST SWAP2 POP POP SWAP3 SWAP2 POP POP JUMP JUMPDEST PUSH0 DUP2 SWAP1 POP SWAP2 SWAP1 POP JUMP JUMPDEST PUSH3 0x1158 DUP2 PUSH3 0x1144 JUMP JUMPDEST DUP2 EQ PUSH3 0x1163 JUMPI PUSH0 DUP1 REVERT JUMPDEST POP JUMP JUMPDEST PUSH0 DUP2 MLOAD SWAP1 POP PUSH3 0x1176 DUP2 PUSH3 0x114D JUMP JUMPDEST SWAP3 SWAP2 POP POP JUMP JUMPDEST PUSH0 PUSH1 0x20 DUP3 DUP5 SUB SLT ISZERO PUSH3 0x1194 JUMPI PUSH3 0x1193 PUSH3 0x1061 JUMP JUMPDEST JUMPDEST PUSH0 PUSH3 0x11A3 DUP5 DUP3 DUP6 ADD PUSH3 0x1166 JUMP JUMPDEST SWAP2 POP POP SWAP3 SWAP2 POP POP JUMP JUMPDEST PUSH0 DUP1 REVERT JUMPDEST PUSH32 0x4E487B7100000000000000000000000000000000000000000000000000000000 PUSH0 MSTORE PUSH1 0x41 PUSH1 0x4 MSTORE PUSH1 0x24 PUSH0 REVERT JUMPDEST PUSH3 0x11E8 DUP3 PUSH3 0xF88 JUMP JUMPDEST DUP2 ADD DUP2 DUP2 LT PUSH8 0xFFFFFFFFFFFFFFFF DUP3 GT OR ISZERO PUSH3 0x120A JUMPI PUSH3 0x1209 PUSH3 0x11B0 JUMP JUMPDEST JUMPDEST DUP1 PUSH1 0x40 MSTORE POP POP POP JUMP JUMPDEST PUSH0 PUSH3 0x121E PUSH3 0x1058 JUMP JUMPDEST SWAP1 POP PUSH3 0x122C DUP3 DUP3 PUSH3 0x11DD JUMP JUMPDEST SWAP2 SWAP1 POP JUMP JUMPDEST PUSH0 PUSH8 0xFFFFFFFFFFFFFFFF DUP3 GT ISZERO PUSH3 0x124E JUMPI PUSH3 0x124D PUSH3 0x11B0 JUMP JUMPDEST JUMPDEST PUSH1 0x20 DUP3 MUL SWAP1 POP PUSH1 0x20 DUP2 ADD SWAP1 POP SWAP2 SWAP1 POP JUMP JUMPDEST PUSH0 DUP1 REVERT JUMPDEST PUSH0 DUP2 MLOAD SWAP1 POP PUSH3 0x1273 DUP2 PUSH3 0x1069 JUMP JUMPDEST SWAP3 SWAP2 POP POP JUMP JUMPDEST PUSH0 PUSH3 0x128F PUSH3 0x1289 DUP5 PUSH3 0x1231 JUMP JUMPDEST PUSH3 0x1213 JUMP JUMPDEST SWAP1 POP DUP1 DUP4 DUP3 MSTORE PUSH1 0x20 DUP3 ADD SWAP1 POP PUSH1 0x20 DUP5 MUL DUP4 ADD DUP6 DUP2 GT ISZERO PUSH3 0x12B5 JUMPI PUSH3 0x12B4 PUSH3 0x125F JUMP JUMPDEST JUMPDEST DUP4 JUMPDEST DUP2 DUP2 LT ISZERO PUSH3 0x12E2 JUMPI DUP1 PUSH3 0x12CD DUP9 DUP3 PUSH3 0x1263 JUMP JUMPDEST DUP5 MSTORE PUSH1 0x20 DUP5 ADD SWAP4 POP POP PUSH1 0x20 DUP2 ADD SWAP1 POP PUSH3 0x12B7 JUMP JUMPDEST POP POP POP SWAP4 SWAP3 POP POP POP JUMP JUMPDEST PUSH0 DUP3 PUSH1 0x1F DUP4 ADD SLT PUSH3 0x1303 JUMPI PUSH3 0x1302 PUSH3 0x11AC JUMP JUMPDEST JUMPDEST DUP2 MLOAD PUSH3 0x1315 DUP5 DUP3 PUSH1 0x20 DUP7 ADD PUSH3 0x1279 JUMP JUMPDEST SWAP2 POP POP SWAP3 SWAP2 POP POP JUMP JUMPDEST PUSH0 PUSH1 0x20 DUP3 DUP5 SUB SLT ISZERO PUSH3 0x1336 JUMPI PUSH3 0x1335 PUSH3 0x1061 JUMP JUMPDEST JUMPDEST PUSH0 DUP3 ADD MLOAD PUSH8 0xFFFFFFFFFFFFFFFF DUP2 GT ISZERO PUSH3 0x1356 JUMPI PUSH3 0x1355 PUSH3 0x1065 JUMP JUMPDEST JUMPDEST PUSH3 0x1364 DUP5 DUP3 DUP6 ADD PUSH3 0x12EC JUMP JUMPDEST SWAP2 POP POP SWAP3 SWAP2 POP POP JUMP JUMPDEST PUSH32 0x4E487B7100000000000000000000000000000000000000000000000000000000 PUSH0 MSTORE PUSH1 0x32 PUSH1 0x4 MSTORE PUSH1 0x24 PUSH0 REVERT JUMPDEST PUSH0 PUSH1 0x40 DUP3 ADD SWAP1 POP PUSH3 0x13AF PUSH0 DUP4 ADD DUP6 PUSH3 0x102C JUMP JUMPDEST PUSH3 0x13BE PUSH1 0x20 DUP4 ADD DUP5 PUSH3 0x102C JUMP JUMPDEST SWAP4 SWAP3 POP POP POP JUMP JUMPDEST PUSH0 DUP3 DUP3 MSTORE PUSH1 0x20 DUP3 ADD SWAP1 POP SWAP3 SWAP2 POP POP JUMP JUMPDEST PUSH32 0x464F5242494444454E0000000000000000000000000000000000000000000000 PUSH0 DUP3 ADD MSTORE POP JUMP JUMPDEST PUSH0 PUSH3 0x140B PUSH1 0x9 DUP4 PUSH3 0x13C5 JUMP JUMPDEST SWAP2 POP PUSH3 0x1418 DUP3 PUSH3 0x13D5 JUMP JUMPDEST PUSH1 0x20 DUP3 ADD SWAP1 POP SWAP2 SWAP1 POP JUMP JUMPDEST PUSH0 PUSH1 0x20 DUP3 ADD SWAP1 POP DUP2 DUP2 SUB PUSH0 DUP4 ADD MSTORE PUSH3 0x143C DUP2 PUSH3 0x13FD JUMP JUMPDEST SWAP1 POP SWAP2 SWAP1 POP JUMP JUMPDEST PUSH32 0x73616D6520746F6B656E00000000000000000000000000000000000000000000 PUSH0 DUP3 ADD MSTORE POP JUMP JUMPDEST PUSH0 PUSH3 0x1479 PUSH1 0xA DUP4 PUSH3 0x13C5 JUMP JUMPDEST SWAP2 POP PUSH3 0x1486 DUP3 PUSH3 0x1443 JUMP JUMPDEST PUSH1 0x20 DUP3 ADD SWAP1 POP SWAP2 SWAP1 POP JUMP JUMPDEST PUSH0 PUSH1 0x20 DUP3 ADD SWAP1 POP DUP2 DUP2 SUB PUSH0 DUP4 ADD MSTORE PUSH3 0x14AA DUP2 PUSH3 0x146B JUMP JUMPDEST SWAP1 POP SWAP2 SWAP1 POP JUMP JUMPDEST PUSH32 0x746F6B656E206973207A65726F20616464726573730000000000000000000000 PUSH0 DUP3 ADD MSTORE POP JUMP JUMPDEST PUSH0 PUSH3 0x14E7 PUSH1 0x15 DUP4 PUSH3 0x13C5 JUMP JUMPDEST SWAP2 POP PUSH3 0x14F4 DUP3 PUSH3 0x14B1 JUMP JUMPDEST PUSH1 0x20 DUP3 ADD SWAP1 POP SWAP2 SWAP1 POP JUMP JUMPDEST PUSH0 PUSH1 0x20 DUP3 ADD SWAP1 POP DUP2 DUP2 SUB PUSH0 DUP4 ADD MSTORE PUSH3 0x1518 DUP2 PUSH3 0x14D9 JUMP JUMPDEST SWAP1 POP SWAP2 SWAP1 POP JUMP JUMPDEST PUSH32 0x7061697220616C72656164792065786973747300000000000000000000000000 PUSH0 DUP3 ADD MSTORE POP JUMP JUMPDEST PUSH0 PUSH3 0x1555 PUSH1 0x13 DUP4 PUSH3 0x13C5 JUMP JUMPDEST SWAP2 POP PUSH3 0x1562 DUP3 PUSH3 0x151F JUMP JUMPDEST PUSH1 0x20 DUP3 ADD SWAP1 POP SWAP2 SWAP1 POP JUMP JUMPDEST PUSH0 PUSH1 0x20 DUP3 ADD SWAP1 POP DUP2 DUP2 SUB PUSH0 DUP4 ADD MSTORE PUSH3 0x1586 DUP2 PUSH3 0x1547 JUMP JUMPDEST SWAP1 POP SWAP2 SWAP1 POP JUMP JUMPDEST PUSH0 DUP1 REVERT JUMPDEST PUSH0 PUSH8 0xFFFFFFFFFFFFFFFF DUP3 GT ISZERO PUSH3 0x15AE JUMPI PUSH3 0x15AD PUSH3 0x11B0 JUMP JUMPDEST JUMPDEST PUSH3 0x15B9 DUP3 PUSH3 0xF88 JUMP JUMPDEST SWAP1 POP PUSH1 0x20 DUP2 ADD SWAP1 POP SWAP2 SWAP1 POP JUMP JUMPDEST PUSH0 PUSH3 0x15DC PUSH3 0x15D6 DUP5 PUSH3 0x1591 JUMP JUMPDEST PUSH3 0x1213 JUMP JUMPDEST SWAP1 POP DUP3 DUP2 MSTORE PUSH1 0x20 DUP2 ADD DUP5 DUP5 DUP5 ADD GT ISZERO PUSH3 0x15FB JUMPI PUSH3 0x15FA PUSH3 0x158D JUMP JUMPDEST JUMPDEST PUSH3 0x1608 DUP5 DUP3 DUP6 PUSH3 0xF5E JUMP JUMPDEST POP SWAP4 SWAP3 POP POP POP JUMP JUMPDEST PUSH0 DUP3 PUSH1 0x1F DUP4 ADD SLT PUSH3 0x1627 JUMPI PUSH3 0x1626 PUSH3 0x11AC JUMP JUMPDEST JUMPDEST DUP2 MLOAD PUSH3 0x1639 DUP5 DUP3 PUSH1 0x20 DUP7 ADD PUSH3 0x15C6 JUMP JUMPDEST SWAP2 POP POP SWAP3 SWAP2 POP POP JUMP JUMPDEST PUSH0 PUSH1 0x20 DUP3 DUP5 SUB SLT ISZERO PUSH3 0x165A JUMPI PUSH3 0x1659 PUSH3 0x1061 JUMP JUMPDEST JUMPDEST PUSH0 DUP3 ADD MLOAD PUSH8 0xFFFFFFFFFFFFFFFF DUP2 GT ISZERO PUSH3 0x167A JUMPI PUSH3 0x1679 PUSH3 0x1065 JUMP JUMPDEST JUMPDEST PUSH3 0x1688 DUP5 DUP3 DUP6 ADD PUSH3 0x1610 JUMP JUMPDEST SWAP2 POP POP SWAP3 SWAP2 POP POP JUMP JUMPDEST PUSH0 DUP2 MLOAD SWAP1 POP SWAP2 SWAP1 POP JUMP JUMPDEST PUSH0 DUP2 SWAP1 POP SWAP3 SWAP2 POP POP JUMP JUMPDEST PUSH0 PUSH3 0x16B1 DUP3 PUSH3 0x1691 JUMP JUMPDEST PUSH3 0x16BD DUP2 DUP6 PUSH3 0x169B JUMP JUMPDEST SWAP4 POP PUSH3 0x16CF DUP2 DUP6 PUSH1 0x20 DUP7 ADD PUSH3 0xF5E JUMP JUMPDEST DUP1 DUP5 ADD SWAP2 POP POP SWAP3 SWAP2 POP POP JUMP JUMPDEST PUSH32 0x2D00000000000000000000000000000000000000000000000000000000000000 PUSH0 DUP3 ADD MSTORE POP JUMP JUMPDEST PUSH0 PUSH3 0x1711 PUSH1 0x1 DUP4 PUSH3 0x169B JUMP JUMPDEST SWAP2 POP PUSH3 0x171E DUP3 PUSH3 0x16DB JUMP JUMPDEST PUSH1 0x1 DUP3 ADD SWAP1 POP SWAP2 SWAP1 POP JUMP JUMPDEST PUSH0 PUSH3 0x1736 DUP3 DUP6 PUSH3 0x16A5 JUMP JUMPDEST SWAP2 POP PUSH3 0x1743 DUP3 PUSH3 0x1703 JUMP JUMPDEST SWAP2 POP PUSH3 0x1751 DUP3 DUP5 PUSH3 0x16A5 JUMP JUMPDEST SWAP2 POP DUP2 SWAP1 POP SWAP4 SWAP3 POP POP POP JUMP JUMPDEST PUSH0 PUSH3 0x176A DUP3 DUP6 PUSH3 0x16A5 JUMP JUMPDEST SWAP2 POP PUSH3 0x1778 DUP3 DUP5 PUSH3 0x16A5 JUMP JUMPDEST SWAP2 POP DUP2 SWAP1 POP SWAP4 SWAP3 POP POP POP JUMP JUMPDEST PUSH0 PUSH3 0x1790 DUP3 PUSH3 0x1691 JUMP JUMPDEST PUSH3 0x179C DUP2 DUP6 PUSH3 0x13C5 JUMP JUMPDEST SWAP4 POP PUSH3 0x17AE DUP2 DUP6 PUSH1 0x20 DUP7 ADD PUSH3 0xF5E JUMP JUMPDEST PUSH3 0x17B9 DUP2 PUSH3 0xF88 JUMP JUMPDEST DUP5 ADD SWAP2 POP POP SWAP3 SWAP2 POP POP JUMP JUMPDEST PUSH0 PUSH1 0x40 DUP3 ADD SWAP1 POP DUP2 DUP2 SUB PUSH0 DUP4 ADD MSTORE PUSH3 0x17DE DUP2 DUP6 PUSH3 0x1784 JUMP JUMPDEST SWAP1 POP DUP2 DUP2 SUB PUSH1 0x20 DUP4 ADD MSTORE PUSH3 0x17F4 DUP2 DUP5 PUSH3 0x1784 JUMP JUMPDEST SWAP1 POP SWAP4 SWAP3 POP POP POP JUMP JUMPDEST PUSH3 0x1808 DUP2 PUSH3 0x1144 JUMP JUMPDEST DUP3 MSTORE POP POP JUMP JUMPDEST PUSH0 PUSH1 0x40 DUP3 ADD SWAP1 POP PUSH3 0x1823 PUSH0 DUP4 ADD DUP6 PUSH3 0x102C JUMP JUMPDEST PUSH3 0x1832 PUSH1 0x20 DUP4 ADD DUP5 PUSH3 0x17FD JUMP JUMPDEST SWAP4 SWAP3 POP POP POP JUMP INVALID PUSH1 0x80 PUSH1 0x40 MSTORE PUSH1 0x12 PUSH1 0x3 SSTORE PUSH1 0x1 PUSH1 0xE SSTORE CALLVALUE DUP1 ISZERO PUSH3 0x1A JUMPI PUSH0 DUP1 REVERT JUMPDEST POP PUSH1 0x40 MLOAD PUSH3 0x3C8A CODESIZE SUB DUP1 PUSH3 0x3C8A DUP4 CODECOPY DUP2 DUP2 ADD PUSH1 0x40 MSTORE DUP2 ADD SWAP1 PUSH3 0x40 SWAP2 SWAP1 PUSH3 0x367 JUMP JUMPDEST DUP2 DUP2 PUSH0 PUSH1 0x40 MLOAD DUP1 PUSH1 0x20 ADD PUSH1 0x40 MSTORE DUP1 PUSH0 DUP2 MSTORE POP DUP4 PUSH0 SWAP1 DUP2 PUSH3 0x62 SWAP2 SWAP1 PUSH3 0x621 JUMP JUMPDEST POP DUP3 PUSH1 0x1 SWAP1 DUP2 PUSH3 0x74 SWAP2 SWAP1 PUSH3 0x621 JUMP JUMPDEST POP PUSH3 0x86 DUP2 PUSH3 0x112 PUSH1 0x20 SHL PUSH1 0x20 SHR JUMP JUMPDEST PUSH1 0x2 SWAP1 DUP2 PUSH3 0x96 SWAP2 SWAP1 PUSH3 0x621 JUMP JUMPDEST POP PUSH3 0xC6 CALLER PUSH1 0x3 SLOAD PUSH1 0xA PUSH3 0xAD SWAP2 SWAP1 PUSH3 0x882 JUMP JUMPDEST DUP5 PUSH3 0xBA SWAP2 SWAP1 PUSH3 0x8D2 JUMP JUMPDEST PUSH3 0x14E PUSH1 0x20 SHL PUSH1 0x20 SHR JUMP JUMPDEST POP POP POP POP CALLER PUSH1 0x7 PUSH0 PUSH2 0x100 EXP DUP2 SLOAD DUP2 PUSH20 0xFFFFFFFFFFFFFFFFFFFFFFFFFFFFFFFFFFFFFFFF MUL NOT AND SWAP1 DUP4 PUSH20 0xFFFFFFFFFFFFFFFFFFFFFFFFFFFFFFFFFFFFFFFF AND MUL OR SWAP1 SSTORE POP POP POP PUSH3 0x9BD JUMP JUMPDEST PUSH1 0x60 PUSH3 0x124 PUSH3 0x1C1 PUSH1 0x20 SHL PUSH1 0x20 SHR JUMP JUMPDEST DUP3 PUSH1 0x40 MLOAD PUSH1 0x20 ADD PUSH3 0x138 SWAP3 SWAP2 SWAP1 PUSH3 0x95C JUMP JUMPDEST PUSH1 0x40 MLOAD PUSH1 0x20 DUP2 DUP4 SUB SUB DUP2 MSTORE SWAP1 PUSH1 0x40 MSTORE SWAP1 POP SWAP2 SWAP1 POP JUMP JUMPDEST DUP1 PUSH1 0x5 PUSH0 DUP5 PUSH20 0xFFFFFFFFFFFFFFFFFFFFFFFFFFFFFFFFFFFFFFFF AND PUSH20 0xFFFFFFFFFFFFFFFFFFFFFFFFFFFFFFFFFFFFFFFF AND DUP2 MSTORE PUSH1 0x20 ADD SWAP1 DUP2 MSTORE PUSH1 0x20 ADD PUSH0 KECCAK256 PUSH0 DUP3 DUP3 SLOAD PUSH3 0x19C SWAP2 SWAP1 PUSH3 0x983 JUMP JUMPDEST SWAP3 POP POP DUP2 SWAP1 SSTORE POP DUP1 PUSH1 0x4 PUSH0 DUP3 DUP3 SLOAD PUSH3 0x1B6 SWAP2 SWAP1 PUSH3 0x983 JUMP JUMPDEST SWAP3 POP POP DUP2 SWAP1 SSTORE POP POP POP JUMP JUMPDEST PUSH1 0x60 PUSH1 0x40 MLOAD DUP1 PUSH1 0x60 ADD PUSH1 0x40 MSTORE DUP1 PUSH1 0x35 DUP2 MSTORE PUSH1 0x20 ADD PUSH3 0x3C55 PUSH1 0x35 SWAP2 CODECOPY SWAP1 POP SWAP1 JUMP JUMPDEST PUSH0 PUSH1 0x40 MLOAD SWAP1 POP SWAP1 JUMP JUMPDEST PUSH0 DUP1 REVERT JUMPDEST PUSH0 DUP1 REVERT JUMPDEST PUSH0 DUP1 REVERT JUMPDEST PUSH0 DUP1 REVERT JUMPDEST PUSH0 PUSH1 0x1F NOT PUSH1 0x1F DUP4 ADD AND SWAP1 POP SWAP2 SWAP1 POP JUMP JUMPDEST PUSH32 0x4E487B7100000000000000000000000000000000000000000000000000000000 PUSH0 MSTORE PUSH1 0x41 PUSH1 0x4 MSTORE PUSH1 0x24 PUSH0 REVERT JUMPDEST PUSH3 0x243 DUP3 PUSH3 0x1FB JUMP JUMPDEST DUP2 ADD DUP2 DUP2 LT PUSH8 0xFFFFFFFFFFFFFFFF DUP3 GT OR ISZERO PUSH3 0x265 JUMPI PUSH3 0x264 PUSH3 0x20B JUMP JUMPDEST JUMPDEST DUP1 PUSH1 0x40 MSTORE POP POP POP JUMP JUMPDEST PUSH0 PUSH3 0x279 PUSH3 0x1E2 JUMP JUMPDEST SWAP1 POP PUSH3 0x287 DUP3 DUP3 PUSH3 0x238 JUMP JUMPDEST SWAP2 SWAP1 POP JUMP JUMPDEST PUSH0 PUSH8 0xFFFFFFFFFFFFFFFF DUP3 GT ISZERO PUSH3 0x2A9 JUMPI PUSH3 0x2A8 PUSH3 0x20B JUMP JUMPDEST JUMPDEST PUSH3 0x2B4 DUP3 PUSH3 0x1FB JUMP JUMPDEST SWAP1 POP PUSH1 0x20 DUP2 ADD SWAP1 POP SWAP2 SWAP1 POP JUMP JUMPDEST PUSH0 JUMPDEST DUP4 DUP2 LT ISZERO PUSH3 0x2E0 JUMPI DUP1 DUP3 ADD MLOAD DUP2 DUP5 ADD MSTORE PUSH1 0x20 DUP2 ADD SWAP1 POP PUSH3 0x2C3 JUMP JUMPDEST PUSH0 DUP5 DUP5 ADD MSTORE POP POP POP POP JUMP JUMPDEST PUSH0 PUSH3 0x301 PUSH3 0x2FB DUP5 PUSH3 0x28C JUMP JUMPDEST PUSH3 0x26E JUMP JUMPDEST SWAP1 POP DUP3 DUP2 MSTORE PUSH1 0x20 DUP2 ADD DUP5 DUP5 DUP5 ADD GT ISZERO PUSH3 0x320 JUMPI PUSH3 0x31F PUSH3 0x1F7 JUMP JUMPDEST JUMPDEST PUSH3 0x32D DUP5 DUP3 DUP6 PUSH3 0x2C1 JUMP JUMPDEST POP SWAP4 SWAP3 POP POP POP JUMP JUMPDEST PUSH0 DUP3 PUSH1 0x1F DUP4 ADD SLT PUSH3 0x34C JUMPI PUSH3 0x34B PUSH3 0x1F3 JUMP JUMPDEST JUMPDEST DUP2 MLOAD PUSH3 0x35E DUP5 DUP3 PUSH1 0x20 DUP7 ADD PUSH3 0x2EB JUMP JUMPDEST SWAP2 POP POP SWAP3 SWAP2 POP POP JUMP JUMPDEST PUSH0 DUP1 PUSH1 0x40 DUP4 DUP6 SUB SLT ISZERO PUSH3 0x380 JUMPI PUSH3 0x37F PUSH3 0x1EB JUMP JUMPDEST JUMPDEST PUSH0 DUP4 ADD MLOAD PUSH8 0xFFFFFFFFFFFFFFFF DUP2 GT ISZERO PUSH3 0x3A0 JUMPI PUSH3 0x39F PUSH3 0x1EF JUMP JUMPDEST JUMPDEST PUSH3 0x3AE DUP6 DUP3 DUP7 ADD PUSH3 0x335 JUMP JUMPDEST SWAP3 POP POP PUSH1 0x20 DUP4 ADD MLOAD PUSH8 0xFFFFFFFFFFFFFFFF DUP2 GT ISZERO PUSH3 0x3D2 JUMPI PUSH3 0x3D1 PUSH3 0x1EF JUMP JUMPDEST JUMPDEST PUSH3 0x3E0 DUP6 DUP3 DUP7 ADD PUSH3 0x335 JUMP JUMPDEST SWAP2 POP POP SWAP3 POP SWAP3 SWAP1 POP JUMP JUMPDEST PUSH0 DUP2 MLOAD SWAP1 POP SWAP2 SWAP1 POP JUMP JUMPDEST PUSH32 0x4E487B7100000000000000000000000000000000000000000000000000000000 PUSH0 MSTORE PUSH1 0x22 PUSH1 0x4 MSTORE PUSH1 0x24 PUSH0 REVERT JUMPDEST PUSH0 PUSH1 0x2 DUP3 DIV SWAP1 POP PUSH1 0x1 DUP3 AND DUP1 PUSH3 0x439 JUMPI PUSH1 0x7F DUP3 AND SWAP2 POP JUMPDEST PUSH1 0x20 DUP3 LT DUP2 SUB PUSH3 0x44F JUMPI PUSH3 0x44E PUSH3 0x3F4 JUMP JUMPDEST JUMPDEST POP SWAP2 SWAP1 POP JUMP JUMPDEST PUSH0 DUP2 SWAP1 POP DUP2 PUSH0 MSTORE PUSH1 0x20 PUSH0 KECCAK256 SWAP1 POP SWAP2 SWAP1 POP JUMP JUMPDEST PUSH0 PUSH1 0x20 PUSH1 0x1F DUP4 ADD DIV SWAP1 POP SWAP2 SWAP1 POP JUMP JUMPDEST PUSH0 DUP3 DUP3 SHL SWAP1 POP SWAP3 SWAP2 POP POP JUMP JUMPDEST PUSH0 PUSH1 0x8 DUP4 MUL PUSH3 0x4B3 PUSH32 0xFFFFFFFFFFFFFFFFFFFFFFFFFFFFFFFFFFFFFFFFFFFFFFFFFFFFFFFFFFFFFFFF DUP3 PUSH3 0x476 JUMP JUMPDEST PUSH3 0x4BF DUP7 DUP4 PUSH3 0x476 JUMP JUMPDEST SWAP6 POP DUP1 NOT DUP5 AND SWAP4 POP DUP1 DUP7 AND DUP5 OR SWAP3 POP POP POP SWAP4 SWAP3 POP POP POP JUMP JUMPDEST PUSH0 DUP2 SWAP1 POP SWAP2 SWAP1 POP JUMP JUMPDEST PUSH0 DUP2 SWAP1 POP SWAP2 SWAP1 POP JUMP JUMPDEST PUSH0 PUSH3 0x509 PUSH3 0x503 PUSH3 0x4FD DUP5 PUSH3 0x4D7 JUMP JUMPDEST PUSH3 0x4E0 JUMP JUMPDEST PUSH3 0x4D7 JUMP JUMPDEST SWAP1 POP SWAP2 SWAP1 POP JUMP JUMPDEST PUSH0 DUP2 SWAP1 POP SWAP2 SWAP1 POP JUMP JUMPDEST PUSH3 0x524 DUP4 PUSH3 0x4E9 JUMP JUMPDEST PUSH3 0x53C PUSH3 0x533 DUP3 PUSH3 0x510 JUMP JUMPDEST DUP5 DUP5 SLOAD PUSH3 0x482 JUMP JUMPDEST DUP3 SSTORE POP POP POP POP JUMP JUMPDEST PUSH0 SWAP1 JUMP JUMPDEST PUSH3 0x552 PUSH3 0x544 JUMP JUMPDEST PUSH3 0x55F DUP2 DUP5 DUP5 PUSH3 0x519 JUMP JUMPDEST POP POP POP JUMP JUMPDEST JUMPDEST DUP2 DUP2 LT ISZERO PUSH3 0x586 JUMPI PUSH3 0x57A PUSH0 DUP3 PUSH3 0x548 JUMP JUMPDEST PUSH1 0x1 DUP2 ADD SWAP1 POP PUSH3 0x565 JUMP JUMPDEST POP POP JUMP JUMPDEST PUSH1 0x1F DUP3 GT ISZERO PUSH3 0x5D5 JUMPI PUSH3 0x59F DUP2 PUSH3 0x455 JUMP JUMPDEST PUSH3 0x5AA DUP5 PUSH3 0x467 JUMP JUMPDEST DUP2 ADD PUSH1 0x20 DUP6 LT ISZERO PUSH3 0x5BA JUMPI DUP2 SWAP1 POP JUMPDEST PUSH3 0x5D2 PUSH3 0x5C9 DUP6 PUSH3 0x467 JUMP JUMPDEST DUP4 ADD DUP3 PUSH3 0x564 JUMP JUMPDEST POP POP JUMPDEST POP POP POP JUMP JUMPDEST PUSH0 DUP3 DUP3 SHR SWAP1 POP SWAP3 SWAP2 POP POP JUMP JUMPDEST PUSH0 PUSH3 0x5F7 PUSH0 NOT DUP5 PUSH1 0x8 MUL PUSH3 0x5DA JUMP JUMPDEST NOT DUP1 DUP4 AND SWAP2 POP POP SWAP3 SWAP2 POP POP JUMP JUMPDEST PUSH0 PUSH3 0x611 DUP4 DUP4 PUSH3 0x5E6 JUMP JUMPDEST SWAP2 POP DUP3 PUSH1 0x2 MUL DUP3 OR SWAP1 POP SWAP3 SWAP2 POP POP JUMP JUMPDEST PUSH3 0x62C DUP3 PUSH3 0x3EA JUMP JUMPDEST PUSH8 0xFFFFFFFFFFFFFFFF DUP2 GT ISZERO PUSH3 0x648 JUMPI PUSH3 0x647 PUSH3 0x20B JUMP JUMPDEST JUMPDEST PUSH3 0x654 DUP3 SLOAD PUSH3 0x421 JUMP JUMPDEST PUSH3 0x661 DUP3 DUP3 DUP6 PUSH3 0x58A JUMP JUMPDEST PUSH0 PUSH1 0x20 SWAP1 POP PUSH1 0x1F DUP4 GT PUSH1 0x1 DUP2 EQ PUSH3 0x697 JUMPI PUSH0 DUP5 ISZERO PUSH3 0x682 JUMPI DUP3 DUP8 ADD MLOAD SWAP1 POP JUMPDEST PUSH3 0x68E DUP6 DUP3 PUSH3 0x604 JUMP JUMPDEST DUP7 SSTORE POP PUSH3 0x6FD JUMP JUMPDEST PUSH1 0x1F NOT DUP5 AND PUSH3 0x6A7 DUP7 PUSH3 0x455 JUMP JUMPDEST PUSH0 JUMPDEST DUP3 DUP2 LT ISZERO PUSH3 0x6D0 JUMPI DUP5 DUP10 ADD MLOAD DUP3 SSTORE PUSH1 0x1 DUP3 ADD SWAP2 POP PUSH1 0x20 DUP6 ADD SWAP5 POP PUSH1 0x20 DUP2 ADD SWAP1 POP PUSH3 0x6A9 JUMP JUMPDEST DUP7 DUP4 LT ISZERO PUSH3 0x6F0 JUMPI DUP5 DUP10 ADD MLOAD PUSH3 0x6EC PUSH1 0x1F DUP10 AND DUP3 PUSH3 0x5E6 JUMP JUMPDEST DUP4 SSTORE POP JUMPDEST PUSH1 0x1 PUSH1 0x2 DUP9 MUL ADD DUP9 SSTORE POP POP POP JUMPDEST POP POP POP POP POP POP JUMP JUMPDEST PUSH32 0x4E487B7100000000000000000000000000000000000000000000000000000000 PUSH0 MSTORE PUSH1 0x11 PUSH1 0x4 MSTORE PUSH1 0x24 PUSH0 REVERT JUMPDEST PUSH0 DUP2 PUSH1 0x1 SHR SWAP1 POP SWAP2 SWAP1 POP JUMP JUMPDEST PUSH0 DUP1 DUP3 SWAP2 POP DUP4 SWAP1 POP JUMPDEST PUSH1 0x1 DUP6 GT ISZERO PUSH3 0x78F JUMPI DUP1 DUP7 DIV DUP2 GT ISZERO PUSH3 0x767 JUMPI PUSH3 0x766 PUSH3 0x705 JUMP JUMPDEST JUMPDEST PUSH1 0x1 DUP6 AND ISZERO PUSH3 0x777 JUMPI DUP1 DUP3 MUL SWAP2 POP JUMPDEST DUP1 DUP2 MUL SWAP1 POP PUSH3 0x787 DUP6 PUSH3 0x732 JUMP JUMPDEST SWAP5 POP PUSH3 0x747 JUMP JUMPDEST SWAP5 POP SWAP5 SWAP3 POP POP POP JUMP JUMPDEST PUSH0 DUP3 PUSH3 0x7A9 JUMPI PUSH1 0x1 SWAP1 POP PUSH3 0x87B JUMP JUMPDEST DUP2 PUSH3 0x7B8 JUMPI PUSH0 SWAP1 POP PUSH3 0x87B JUMP JUMPDEST DUP2 PUSH1 0x1 DUP2 EQ PUSH3 0x7D1 JUMPI PUSH1 0x2 DUP2 EQ PUSH3 0x7DC JUMPI PUSH3 0x812 JUMP JUMPDEST PUSH1 0x1 SWAP2 POP POP PUSH3 0x87B JUMP JUMPDEST PUSH1 0xFF DUP5 GT ISZERO PUSH3 0x7F1 JUMPI PUSH3 0x7F0 PUSH3 0x705 JUMP JUMPDEST JUMPDEST DUP4 PUSH1 0x2 EXP SWAP2 POP DUP5 DUP3 GT ISZERO PUSH3 0x80B JUMPI PUSH3 0x80A PUSH3 0x705 JUMP JUMPDEST JUMPDEST POP PUSH3 0x87B JUMP JUMPDEST POP PUSH1 0x20 DUP4 LT PUSH2 0x133 DUP4 LT AND PUSH1 0x4E DUP5 LT PUSH1 0xB DUP5 LT AND OR ISZERO PUSH3 0x84C JUMPI DUP3 DUP3 EXP SWAP1 POP DUP4 DUP2 GT ISZERO PUSH3 0x846 JUMPI PUSH3 0x845 PUSH3 0x705 JUMP JUMPDEST JUMPDEST PUSH3 0x87B JUMP JUMPDEST PUSH3 0x85B DUP5 DUP5 DUP5 PUSH1 0x1 PUSH3 0x73E JUMP JUMPDEST SWAP3 POP SWAP1 POP DUP2 DUP5 DIV DUP2 GT ISZERO PUSH3 0x875 JUMPI PUSH3 0x874 PUSH3 0x705 JUMP JUMPDEST JUMPDEST DUP2 DUP2 MUL SWAP1 POP JUMPDEST SWAP4 SWAP3 POP POP POP JUMP JUMPDEST PUSH0 PUSH3 0x88E DUP3 PUSH3 0x4D7 JUMP JUMPDEST SWAP2 POP PUSH3 0x89B DUP4 PUSH3 0x4D7 JUMP JUMPDEST SWAP3 POP PUSH3 0x8CA PUSH32 0xFFFFFFFFFFFFFFFFFFFFFFFFFFFFFFFFFFFFFFFFFFFFFFFFFFFFFFFFFFFFFFFF DUP5 DUP5 PUSH3 0x798 JUMP JUMPDEST SWAP1 POP SWAP3 SWAP2 POP POP JUMP JUMPDEST PUSH0 PUSH3 0x8DE DUP3 PUSH3 0x4D7 JUMP JUMPDEST SWAP2 POP PUSH3 0x8EB DUP4 PUSH3 0x4D7 JUMP JUMPDEST SWAP3 POP DUP3 DUP3 MUL PUSH3 0x8FB DUP2 PUSH3 0x4D7 JUMP JUMPDEST SWAP2 POP DUP3 DUP3 DIV DUP5 EQ DUP4 ISZERO OR PUSH3 0x915 JUMPI PUSH3 0x914 PUSH3 0x705 JUMP JUMPDEST JUMPDEST POP SWAP3 SWAP2 POP POP JUMP JUMPDEST PUSH0 DUP2 SWAP1 POP SWAP3 SWAP2 POP POP JUMP JUMPDEST PUSH0 PUSH3 0x932 DUP3 PUSH3 0x3EA JUMP JUMPDEST PUSH3 0x93E DUP2 DUP6 PUSH3 0x91C JUMP JUMPDEST SWAP4 POP PUSH3 0x950 DUP2 DUP6 PUSH1 0x20 DUP7 ADD PUSH3 0x2C1 JUMP JUMPDEST DUP1 DUP5 ADD SWAP2 POP POP SWAP3 SWAP2 POP POP JUMP JUMPDEST PUSH0 PUSH3 0x969 DUP3 DUP6 PUSH3 0x926 JUMP JUMPDEST SWAP2 POP PUSH3 0x977 DUP3 DUP5 PUSH3 0x926 JUMP JUMPDEST SWAP2 POP DUP2 SWAP1 POP SWAP4 SWAP3 POP POP POP JUMP JUMPDEST PUSH0 PUSH3 0x98F DUP3 PUSH3 0x4D7 JUMP JUMPDEST SWAP2 POP PUSH3 0x99C DUP4 PUSH3 0x4D7 JUMP JUMPDEST SWAP3 POP DUP3 DUP3 ADD SWAP1 POP DUP1 DUP3 GT ISZERO PUSH3 0x9B7 JUMPI PUSH3 0x9B6 PUSH3 0x705 JUMP JUMPDEST JUMPDEST SWAP3 SWAP2 POP POP JUMP JUMPDEST PUSH2 0x328A DUP1 PUSH3 0x9CB PUSH0 CODECOPY PUSH0 RETURN INVALID PUSH1 0x80 PUSH1 0x40 MSTORE CALLVALUE DUP1 ISZERO PUSH2 0xF JUMPI PUSH0 DUP1 REVERT JUMPDEST POP PUSH1 0x4 CALLDATASIZE LT PUSH2 0x1CD JUMPI PUSH0 CALLDATALOAD PUSH1 0xE0 SHR DUP1 PUSH4 0x6EBC51E1 GT PUSH2 0x102 JUMPI DUP1 PUSH4 0xBC25CF77 GT PUSH2 0xA0 JUMPI DUP1 PUSH4 0xDBBDD935 GT PUSH2 0x6F JUMPI DUP1 PUSH4 0xDBBDD935 EQ PUSH2 0x56B JUMPI DUP1 PUSH4 0xDD62ED3E EQ PUSH2 0x59C JUMPI DUP1 PUSH4 0xEAC989F8 EQ PUSH2 0x5CC JUMPI DUP1 PUSH4 0xFFF6CAE9 EQ PUSH2 0x5EA JUMPI PUSH2 0x1CD JUMP JUMPDEST DUP1 PUSH4 0xBC25CF77 EQ PUSH2 0x4F5 JUMPI DUP1 PUSH4 0xC45A0155 EQ PUSH2 0x511 JUMPI DUP1 PUSH4 0xC5700A02 EQ PUSH2 0x52F JUMPI DUP1 PUSH4 0xD21220A7 EQ PUSH2 0x54D JUMPI PUSH2 0x1CD JUMP JUMPDEST DUP1 PUSH4 0x7DC0A1FA GT PUSH2 0xDC JUMPI DUP1 PUSH4 0x7DC0A1FA EQ PUSH2 0x45B JUMPI DUP1 PUSH4 0x95D89B41 EQ PUSH2 0x477 JUMPI DUP1 PUSH4 0x9DC29FAC EQ PUSH2 0x495 JUMPI DUP1 PUSH4 0xA9059CBB EQ PUSH2 0x4C5 JUMPI PUSH2 0x1CD JUMP JUMPDEST DUP1 PUSH4 0x6EBC51E1 EQ PUSH2 0x3DD JUMPI DUP1 PUSH4 0x70A08231 EQ PUSH2 0x40D JUMPI DUP1 PUSH4 0x7464FC3D EQ PUSH2 0x43D JUMPI PUSH2 0x1CD JUMP JUMPDEST DUP1 PUSH4 0x27E235E3 GT PUSH2 0x16F JUMPI DUP1 PUSH4 0x4E6EC247 GT PUSH2 0x149 JUMPI DUP1 PUSH4 0x4E6EC247 EQ PUSH2 0x345 JUMPI DUP1 PUSH4 0x55B6ED5C EQ PUSH2 0x361 JUMPI DUP1 PUSH4 0x6161EB18 EQ PUSH2 0x391 JUMPI DUP1 PUSH4 0x6A627842 EQ PUSH2 0x3AD JUMPI PUSH2 0x1CD JUMP JUMPDEST DUP1 PUSH4 0x27E235E3 EQ PUSH2 0x2C9 JUMPI DUP1 PUSH4 0x485CC955 EQ PUSH2 0x2F9 JUMPI DUP1 PUSH4 0x4CF12D26 EQ PUSH2 0x315 JUMPI PUSH2 0x1CD JUMP JUMPDEST DUP1 PUSH4 0xDFE1681 GT PUSH2 0x1AB JUMPI DUP1 PUSH4 0xDFE1681 EQ PUSH2 0x23F JUMPI DUP1 PUSH4 0x18160DDD EQ PUSH2 0x25D JUMPI DUP1 PUSH4 0x1B655054 EQ PUSH2 0x27B JUMPI DUP1 PUSH4 0x23B872DD EQ PUSH2 0x299 JUMPI PUSH2 0x1CD JUMP JUMPDEST DUP1 PUSH4 0x6FDDE03 EQ PUSH2 0x1D1 JUMPI DUP1 PUSH4 0x902F1AC EQ PUSH2 0x1EF JUMPI DUP1 PUSH4 0x95EA7B3 EQ PUSH2 0x20F JUMPI JUMPDEST PUSH0 DUP1 REVERT JUMPDEST PUSH2 0x1D9 PUSH2 0x5F4 JUMP JUMPDEST PUSH1 0x40 MLOAD PUSH2 0x1E6 SWAP2 SWAP1 PUSH2 0x25C5 JUMP JUMPDEST PUSH1 0x40 MLOAD DUP1 SWAP2 SUB SWAP1 RETURN JUMPDEST PUSH2 0x1F7 PUSH2 0x67F JUMP JUMPDEST PUSH1 0x40 MLOAD PUSH2 0x206 SWAP4 SWAP3 SWAP2 SWAP1 PUSH2 0x262B JUMP JUMPDEST PUSH1 0x40 MLOAD DUP1 SWAP2 SUB SWAP1 RETURN JUMPDEST PUSH2 0x229 PUSH1 0x4 DUP1 CALLDATASIZE SUB DUP2 ADD SWAP1 PUSH2 0x224 SWAP2 SWAP1 PUSH2 0x26FE JUMP JUMPDEST PUSH2 0x6D8 JUMP JUMPDEST PUSH1 0x40 MLOAD PUSH2 0x236 SWAP2 SWAP1 PUSH2 0x2756 JUMP JUMPDEST PUSH1 0x40 MLOAD DUP1 SWAP2 SUB SWAP1 RETURN JUMPDEST PUSH2 0x247 PUSH2 0x760 JUMP JUMPDEST PUSH1 0x40 MLOAD PUSH2 0x254 SWAP2 SWAP1 PUSH2 0x277E JUMP JUMPDEST PUSH1 0x40 MLOAD DUP1 SWAP2 SUB SWAP1 RETURN JUMPDEST PUSH2 0x265 PUSH2 0x785 JUMP JUMPDEST PUSH1 0x40 MLOAD PUSH2 0x272 SWAP2 SWAP1 PUSH2 0x27A6 JUMP JUMPDEST PUSH1 0x40 MLOAD DUP1 SWAP2 SUB SWAP1 RETURN JUMPDEST PUSH2 0x283 PUSH2 0x78B JUMP JUMPDEST PUSH1 0x40 MLOAD PUSH2 0x290 SWAP2 SWAP1 PUSH2 0x277E JUMP JUMPDEST PUSH1 0x40 MLOAD DUP1 SWAP2 SUB SWAP1 RETURN JUMPDEST PUSH2 0x2B3 PUSH1 0x4 DUP1 CALLDATASIZE SUB DUP2 ADD SWAP1 PUSH2 0x2AE SWAP2 SWAP1 PUSH2 0x27BF JUMP JUMPDEST PUSH2 0x7B0 JUMP JUMPDEST PUSH1 0x40 MLOAD PUSH2 0x2C0 SWAP2 SWAP1 PUSH2 0x2756 JUMP JUMPDEST PUSH1 0x40 MLOAD DUP1 SWAP2 SUB SWAP1 RETURN JUMPDEST PUSH2 0x2E3 PUSH1 0x4 DUP1 CALLDATASIZE SUB DUP2 ADD SWAP1 PUSH2 0x2DE SWAP2 SWAP1 PUSH2 0x280F JUMP JUMPDEST PUSH2 0x862 JUMP JUMPDEST PUSH1 0x40 MLOAD PUSH2 0x2F0 SWAP2 SWAP1 PUSH2 0x27A6 JUMP JUMPDEST PUSH1 0x40 MLOAD DUP1 SWAP2 SUB SWAP1 RETURN JUMPDEST PUSH2 0x313 PUSH1 0x4 DUP1 CALLDATASIZE SUB DUP2 ADD SWAP1 PUSH2 0x30E SWAP2 SWAP1 PUSH2 0x283A JUMP JUMPDEST PUSH2 0x877 JUMP JUMPDEST STOP JUMPDEST PUSH2 0x32F PUSH1 0x4 DUP1 CALLDATASIZE SUB DUP2 ADD SWAP1 PUSH2 0x32A SWAP2 SWAP1 PUSH2 0x29A4 JUMP JUMPDEST PUSH2 0x953 JUMP JUMPDEST PUSH1 0x40 MLOAD PUSH2 0x33C SWAP2 SWAP1 PUSH2 0x25C5 JUMP JUMPDEST PUSH1 0x40 MLOAD DUP1 SWAP2 SUB SWAP1 RETURN JUMPDEST PUSH2 0x35F PUSH1 0x4 DUP1 CALLDATASIZE SUB DUP2 ADD SWAP1 PUSH2 0x35A SWAP2 SWAP1 PUSH2 0x26FE JUMP JUMPDEST PUSH2 0x985 JUMP JUMPDEST STOP JUMPDEST PUSH2 0x37B PUSH1 0x4 DUP1 CALLDATASIZE SUB DUP2 ADD SWAP1 PUSH2 0x376 SWAP2 SWAP1 PUSH2 0x283A JUMP JUMPDEST PUSH2 0x9F4 JUMP JUMPDEST PUSH1 0x40 MLOAD PUSH2 0x388 SWAP2 SWAP1 PUSH2 0x27A6 JUMP JUMPDEST PUSH1 0x40 MLOAD DUP1 SWAP2 SUB SWAP1 RETURN JUMPDEST PUSH2 0x3AB PUSH1 0x4 DUP1 CALLDATASIZE SUB DUP2 ADD SWAP1 PUSH2 0x3A6 SWAP2 SWAP1 PUSH2 0x26FE JUMP JUMPDEST PUSH2 0xA14 JUMP JUMPDEST STOP JUMPDEST PUSH2 0x3C7 PUSH1 0x4 DUP1 CALLDATASIZE SUB DUP2 ADD SWAP1 PUSH2 0x3C2 SWAP2 SWAP1 PUSH2 0x280F JUMP JUMPDEST PUSH2 0xA83 JUMP JUMPDEST PUSH1 0x40 MLOAD PUSH2 0x3D4 SWAP2 SWAP1 PUSH2 0x2756 JUMP JUMPDEST PUSH1 0x40 MLOAD DUP1 SWAP2 SUB SWAP1 RETURN JUMPDEST PUSH2 0x3F7 PUSH1 0x4 DUP1 CALLDATASIZE SUB DUP2 ADD SWAP1 PUSH2 0x3F2 SWAP2 SWAP1 PUSH2 0x280F JUMP JUMPDEST PUSH2 0xF74 JUMP JUMPDEST PUSH1 0x40 MLOAD PUSH2 0x404 SWAP2 SWAP1 PUSH2 0x2756 JUMP JUMPDEST PUSH1 0x40 MLOAD DUP1 SWAP2 SUB SWAP1 RETURN JUMPDEST PUSH2 0x427 PUSH1 0x4 DUP1 CALLDATASIZE SUB DUP2 ADD SWAP1 PUSH2 0x422 SWAP2 SWAP1 PUSH2 0x280F JUMP JUMPDEST PUSH2 0x1233 JUMP JUMPDEST PUSH1 0x40 MLOAD PUSH2 0x434 SWAP2 SWAP1 PUSH2 0x27A6 JUMP JUMPDEST PUSH1 0x40 MLOAD DUP1 SWAP2 SUB SWAP1 RETURN JUMPDEST PUSH2 0x445 PUSH2 0x1279 JUMP JUMPDEST PUSH1 0x40 MLOAD PUSH2 0x452 SWAP2 SWAP1 PUSH2 0x27A6 JUMP JUMPDEST PUSH1 0x40 MLOAD DUP1 SWAP2 SUB SWAP1 RETURN JUMPDEST PUSH2 0x475 PUSH1 0x4 DUP1 CALLDATASIZE SUB DUP2 ADD SWAP1 PUSH2 0x470 SWAP2 SWAP1 PUSH2 0x2A15 JUMP JUMPDEST PUSH2 0x127F JUMP JUMPDEST STOP JUMPDEST PUSH2 0x47F PUSH2 0x1402 JUMP JUMPDEST PUSH1 0x40 MLOAD PUSH2 0x48C SWAP2 SWAP1 PUSH2 0x25C5 JUMP JUMPDEST PUSH1 0x40 MLOAD DUP1 SWAP2 SUB SWAP1 RETURN JUMPDEST PUSH2 0x4AF PUSH1 0x4 DUP1 CALLDATASIZE SUB DUP2 ADD SWAP1 PUSH2 0x4AA SWAP2 SWAP1 PUSH2 0x26FE JUMP JUMPDEST PUSH2 0x148E JUMP JUMPDEST PUSH1 0x40 MLOAD PUSH2 0x4BC SWAP2 SWAP1 PUSH2 0x2756 JUMP JUMPDEST PUSH1 0x40 MLOAD DUP1 SWAP2 SUB SWAP1 RETURN JUMPDEST PUSH2 0x4DF PUSH1 0x4 DUP1 CALLDATASIZE SUB DUP2 ADD SWAP1 PUSH2 0x4DA SWAP2 SWAP1 PUSH2 0x26FE JUMP JUMPDEST PUSH2 0x1C3C JUMP JUMPDEST PUSH1 0x40 MLOAD PUSH2 0x4EC SWAP2 SWAP1 PUSH2 0x2756 JUMP JUMPDEST PUSH1 0x40 MLOAD DUP1 SWAP2 SUB SWAP1 RETURN JUMPDEST PUSH2 0x50F PUSH1 0x4 DUP1 CALLDATASIZE SUB DUP2 ADD SWAP1 PUSH2 0x50A SWAP2 SWAP1 PUSH2 0x280F JUMP JUMPDEST PUSH2 0x1CED JUMP JUMPDEST STOP JUMPDEST PUSH2 0x519 PUSH2 0x1D90 JUMP JUMPDEST PUSH1 0x40 MLOAD PUSH2 0x526 SWAP2 SWAP1 PUSH2 0x277E JUMP JUMPDEST PUSH1 0x40 MLOAD DUP1 SWAP2 SUB SWAP1 RETURN JUMPDEST PUSH2 0x537 PUSH2 0x1DB5 JUMP JUMPDEST PUSH1 0x40 MLOAD PUSH2 0x544 SWAP2 SWAP1 PUSH2 0x2A79 JUMP JUMPDEST PUSH1 0x40 MLOAD DUP1 SWAP2 SUB SWAP1 RETURN JUMPDEST PUSH2 0x555 PUSH2 0x1DCA JUMP JUMPDEST PUSH1 0x40 MLOAD PUSH2 0x562 SWAP2 SWAP1 PUSH2 0x277E JUMP JUMPDEST PUSH1 0x40 MLOAD DUP1 SWAP2 SUB SWAP1 RETURN JUMPDEST PUSH2 0x585 PUSH1 0x4 DUP1 CALLDATASIZE SUB DUP2 ADD SWAP1 PUSH2 0x580 SWAP2 SWAP1 PUSH2 0x280F JUMP JUMPDEST PUSH2 0x1DEF JUMP JUMPDEST PUSH1 0x40 MLOAD PUSH2 0x593 SWAP3 SWAP2 SWAP1 PUSH2 0x2A92 JUMP JUMPDEST PUSH1 0x40 MLOAD DUP1 SWAP2 SUB SWAP1 RETURN JUMPDEST PUSH2 0x5B6 PUSH1 0x4 DUP1 CALLDATASIZE SUB DUP2 ADD SWAP1 PUSH2 0x5B1 SWAP2 SWAP1 PUSH2 0x283A JUMP JUMPDEST PUSH2 0x1ECB JUMP JUMPDEST PUSH1 0x40 MLOAD PUSH2 0x5C3 SWAP2 SWAP1 PUSH2 0x27A6 JUMP JUMPDEST PUSH1 0x40 MLOAD DUP1 SWAP2 SUB SWAP1 RETURN JUMPDEST PUSH2 0x5D4 PUSH2 0x1F4D JUMP JUMPDEST PUSH1 0x40 MLOAD PUSH2 0x5E1 SWAP2 SWAP1 PUSH2 0x25C5 JUMP JUMPDEST PUSH1 0x40 MLOAD DUP1 SWAP2 SUB SWAP1 RETURN JUMPDEST PUSH2 0x5F2 PUSH2 0x1FD9 JUMP JUMPDEST STOP JUMPDEST PUSH0 DUP1 SLOAD PUSH2 0x600 SWAP1 PUSH2 0x2AE6 JUMP JUMPDEST DUP1 PUSH1 0x1F ADD PUSH1 0x20 DUP1 SWAP2 DIV MUL PUSH1 0x20 ADD PUSH1 0x40 MLOAD SWAP1 DUP2 ADD PUSH1 0x40 MSTORE DUP1 SWAP3 SWAP2 SWAP1 DUP2 DUP2 MSTORE PUSH1 0x20 ADD DUP3 DUP1 SLOAD PUSH2 0x62C SWAP1 PUSH2 0x2AE6 JUMP JUMPDEST DUP1 ISZERO PUSH2 0x677 JUMPI DUP1 PUSH1 0x1F LT PUSH2 0x64E JUMPI PUSH2 0x100 DUP1 DUP4 SLOAD DIV MUL DUP4 MSTORE SWAP2 PUSH1 0x20 ADD SWAP2 PUSH2 0x677 JUMP JUMPDEST DUP3 ADD SWAP2 SWAP1 PUSH0 MSTORE PUSH1 0x20 PUSH0 KECCAK256 SWAP1 JUMPDEST DUP2 SLOAD DUP2 MSTORE SWAP1 PUSH1 0x1 ADD SWAP1 PUSH1 0x20 ADD DUP1 DUP4 GT PUSH2 0x65A JUMPI DUP3 SWAP1 SUB PUSH1 0x1F AND DUP3 ADD SWAP2 JUMPDEST POP POP POP POP POP DUP2 JUMP JUMPDEST PUSH0 DUP1 PUSH0 PUSH1 0xB PUSH0 SWAP1 SLOAD SWAP1 PUSH2 0x100 EXP SWAP1 DIV PUSH14 0xFFFFFFFFFFFFFFFFFFFFFFFFFFFF AND SWAP3 POP PUSH1 0xB PUSH1 0xE SWAP1 SLOAD SWAP1 PUSH2 0x100 EXP SWAP1 DIV PUSH14 0xFFFFFFFFFFFFFFFFFFFFFFFFFFFF AND SWAP2 POP PUSH1 0xD PUSH0 SWAP1 SLOAD SWAP1 PUSH2 0x100 EXP SWAP1 DIV PUSH4 0xFFFFFFFF AND SWAP1 POP SWAP1 SWAP2 SWAP3 JUMP JUMPDEST PUSH0 DUP2 PUSH1 0x6 PUSH0 CALLER PUSH20 0xFFFFFFFFFFFFFFFFFFFFFFFFFFFFFFFFFFFFFFFF AND PUSH20 0xFFFFFFFFFFFFFFFFFFFFFFFFFFFFFFFFFFFFFFFF AND DUP2 MSTORE PUSH1 0x20 ADD SWAP1 DUP2 MSTORE PUSH1 0x20 ADD PUSH0 KECCAK256 PUSH0 DUP6 PUSH20 0xFFFFFFFFFFFFFFFFFFFFFFFFFFFFFFFFFFFFFFFF AND PUSH20 0xFFFFFFFFFFFFFFFFFFFFFFFFFFFFFFFFFFFFFFFF AND DUP2 MSTORE PUSH1 0x20 ADD SWAP1 DUP2 MSTORE PUSH1 0x20 ADD PUSH0 KECCAK256 DUP2 SWAP1 SSTORE POP PUSH1 0x1 SWAP1 POP SWAP3 SWAP2 POP POP JUMP JUMPDEST PUSH1 0x9 PUSH0 SWAP1 SLOAD SWAP1 PUSH2 0x100 EXP SWAP1 DIV PUSH20 0xFFFFFFFFFFFFFFFFFFFFFFFFFFFFFFFFFFFFFFFF AND DUP2 JUMP JUMPDEST PUSH1 0x4 SLOAD DUP2 JUMP JUMPDEST PUSH1 0x8 PUSH0 SWAP1 SLOAD SWAP1 PUSH2 0x100 EXP SWAP1 DIV PUSH20 0xFFFFFFFFFFFFFFFFFFFFFFFFFFFFFFFFFFFFFFFF AND DUP2 JUMP JUMPDEST PUSH0 DUP2 PUSH1 0x5 PUSH0 DUP7 PUSH20 0xFFFFFFFFFFFFFFFFFFFFFFFFFFFFFFFFFFFFFFFF AND PUSH20 0xFFFFFFFFFFFFFFFFFFFFFFFFFFFFFFFFFFFFFFFF AND DUP2 MSTORE PUSH1 0x20 ADD SWAP1 DUP2 MSTORE PUSH1 0x20 ADD PUSH0 KECCAK256 PUSH0 DUP3 DUP3 SLOAD PUSH2 0x7FD SWAP2 SWAP1 PUSH2 0x2B43 JUMP JUMPDEST SWAP3 POP POP DUP2 SWAP1 SSTORE POP DUP2 PUSH1 0x5 PUSH0 DUP6 PUSH20 0xFFFFFFFFFFFFFFFFFFFFFFFFFFFFFFFFFFFFFFFF AND PUSH20 0xFFFFFFFFFFFFFFFFFFFFFFFFFFFFFFFFFFFFFFFF AND DUP2 MSTORE PUSH1 0x20 ADD SWAP1 DUP2 MSTORE PUSH1 0x20 ADD PUSH0 KECCAK256 PUSH0 DUP3 DUP3 SLOAD PUSH2 0x850 SWAP2 SWAP1 PUSH2 0x2B76 JUMP JUMPDEST SWAP3 POP POP DUP2 SWAP1 SSTORE POP PUSH1 0x1 SWAP1 POP SWAP4 SWAP3 POP POP POP JUMP JUMPDEST PUSH1 0x5 PUSH1 0x20 MSTORE DUP1 PUSH0 MSTORE PUSH1 0x40 PUSH0 KECCAK256 PUSH0 SWAP2 POP SWAP1 POP SLOAD DUP2 JUMP JUMPDEST PUSH1 0x7 PUSH0 SWAP1 SLOAD SWAP1 PUSH2 0x100 EXP SWAP1 DIV PUSH20 0xFFFFFFFFFFFFFFFFFFFFFFFFFFFFFFFFFFFFFFFF AND PUSH20 0xFFFFFFFFFFFFFFFFFFFFFFFFFFFFFFFFFFFFFFFF AND CALLER PUSH20 0xFFFFFFFFFFFFFFFFFFFFFFFFFFFFFFFFFFFFFFFF AND EQ PUSH2 0x8CF JUMPI PUSH0 DUP1 REVERT JUMPDEST DUP2 PUSH1 0x9 PUSH0 PUSH2 0x100 EXP DUP2 SLOAD DUP2 PUSH20 0xFFFFFFFFFFFFFFFFFFFFFFFFFFFFFFFFFFFFFFFF MUL NOT AND SWAP1 DUP4 PUSH20 0xFFFFFFFFFFFFFFFFFFFFFFFFFFFFFFFFFFFFFFFF AND MUL OR SWAP1 SSTORE POP DUP1 PUSH1 0xA PUSH0 PUSH2 0x100 EXP DUP2 SLOAD DUP2 PUSH20 0xFFFFFFFFFFFFFFFFFFFFFFFFFFFFFFFFFFFFFFFF MUL NOT AND SWAP1 DUP4 PUSH20 0xFFFFFFFFFFFFFFFFFFFFFFFFFFFFFFFFFFFFFFFF AND MUL OR SWAP1 SSTORE POP POP POP JUMP JUMPDEST PUSH1 0x60 PUSH2 0x95D PUSH2 0x21A2 JUMP JUMPDEST DUP3 PUSH1 0x40 MLOAD PUSH1 0x20 ADD PUSH2 0x96F SWAP3 SWAP2 SWAP1 PUSH2 0x2BE3 JUMP JUMPDEST PUSH1 0x40 MLOAD PUSH1 0x20 DUP2 DUP4 SUB SUB DUP2 MSTORE SWAP1 PUSH1 0x40 MSTORE SWAP1 POP SWAP2 SWAP1 POP JUMP JUMPDEST DUP1 PUSH1 0x5 PUSH0 DUP5 PUSH20 0xFFFFFFFFFFFFFFFFFFFFFFFFFFFFFFFFFFFFFFFF AND PUSH20 0xFFFFFFFFFFFFFFFFFFFFFFFFFFFFFFFFFFFFFFFF AND DUP2 MSTORE PUSH1 0x20 ADD SWAP1 DUP2 MSTORE PUSH1 0x20 ADD PUSH0 KECCAK256 PUSH0 DUP3 DUP3 SLOAD PUSH2 0x9D1 SWAP2 SWAP1 PUSH2 0x2B76 JUMP JUMPDEST SWAP3 POP POP DUP2 SWAP1 SSTORE POP DUP1 PUSH1 0x4 PUSH0 DUP3 DUP3 SLOAD PUSH2 0x9E9 SWAP2 SWAP1 PUSH2 0x2B76 JUMP JUMPDEST SWAP3 POP POP DUP2 SWAP1 SSTORE POP POP POP JUMP JUMPDEST PUSH1 0x6 PUSH1 0x20 MSTORE DUP2 PUSH0 MSTORE PUSH1 0x40 PUSH0 KECCAK256 PUSH1 0x20 MSTORE DUP1 PUSH0 MSTORE PUSH1 0x40 PUSH0 KECCAK256 PUSH0 SWAP2 POP SWAP2 POP POP SLOAD DUP2 JUMP JUMPDEST DUP1 PUSH1 0x5 PUSH0 DUP5 PUSH20 0xFFFFFFFFFFFFFFFFFFFFFFFFFFFFFFFFFFFFFFFF AND PUSH20 0xFFFFFFFFFFFFFFFFFFFFFFFFFFFFFFFFFFFFFFFF AND DUP2 MSTORE PUSH1 0x20 ADD SWAP1 DUP2 MSTORE PUSH1 0x20 ADD PUSH0 KECCAK256 PUSH0 DUP3 DUP3 SLOAD PUSH2 0xA60 SWAP2 SWAP1 PUSH2 0x2B43 JUMP JUMPDEST SWAP3 POP POP DUP2 SWAP1 SSTORE POP DUP1 PUSH1 0x4 PUSH0 DUP3 DUP3 SLOAD PUSH2 0xA78 SWAP2 SWAP1 PUSH2 0x2B43 JUMP JUMPDEST SWAP3 POP POP DUP2 SWAP1 SSTORE POP POP POP JUMP JUMPDEST PUSH0 PUSH1 0x1 PUSH1 0xE SLOAD EQ PUSH2 0xAC9 JUMPI PUSH1 0x40 MLOAD PUSH32 0x8C379A000000000000000000000000000000000000000000000000000000000 DUP2 MSTORE PUSH1 0x4 ADD PUSH2 0xAC0 SWAP1 PUSH2 0x2C50 JUMP JUMPDEST PUSH1 0x40 MLOAD DUP1 SWAP2 SUB SWAP1 REVERT JUMPDEST PUSH0 PUSH1 0xE DUP2 SWAP1 SSTORE POP PUSH0 PUSH1 0x9 PUSH0 SWAP1 SLOAD SWAP1 PUSH2 0x100 EXP SWAP1 DIV PUSH20 0xFFFFFFFFFFFFFFFFFFFFFFFFFFFFFFFFFFFFFFFF AND PUSH20 0xFFFFFFFFFFFFFFFFFFFFFFFFFFFFFFFFFFFFFFFF AND PUSH4 0x70A08231 ADDRESS PUSH1 0x40 MLOAD DUP3 PUSH4 0xFFFFFFFF AND PUSH1 0xE0 SHL DUP2 MSTORE PUSH1 0x4 ADD PUSH2 0xB2B SWAP2 SWAP1 PUSH2 0x277E JUMP JUMPDEST PUSH1 0x20 PUSH1 0x40 MLOAD DUP1 DUP4 SUB DUP2 DUP7 GAS STATICCALL ISZERO DUP1 ISZERO PUSH2 0xB46 JUMPI RETURNDATASIZE PUSH0 DUP1 RETURNDATACOPY RETURNDATASIZE PUSH0 REVERT JUMPDEST POP POP POP POP PUSH1 0x40 MLOAD RETURNDATASIZE PUSH1 0x1F NOT PUSH1 0x1F DUP3 ADD AND DUP3 ADD DUP1 PUSH1 0x40 MSTORE POP DUP2 ADD SWAP1 PUSH2 0xB6A SWAP2 SWAP1 PUSH2 0x2C82 JUMP JUMPDEST SWAP1 POP PUSH0 PUSH1 0xA PUSH0 SWAP1 SLOAD SWAP1 PUSH2 0x100 EXP SWAP1 DIV PUSH20 0xFFFFFFFFFFFFFFFFFFFFFFFFFFFFFFFFFFFFFFFF AND PUSH20 0xFFFFFFFFFFFFFFFFFFFFFFFFFFFFFFFFFFFFFFFF AND PUSH4 0x70A08231 ADDRESS PUSH1 0x40 MLOAD DUP3 PUSH4 0xFFFFFFFF AND PUSH1 0xE0 SHL DUP2 MSTORE PUSH1 0x4 ADD PUSH2 0xBC7 SWAP2 SWAP1 PUSH2 0x277E JUMP JUMPDEST PUSH1 0x20 PUSH1 0x40 MLOAD DUP1 DUP4 SUB DUP2 DUP7 GAS STATICCALL ISZERO DUP1 ISZERO PUSH2 0xBE2 JUMPI RETURNDATASIZE PUSH0 DUP1 RETURNDATACOPY RETURNDATASIZE PUSH0 REVERT JUMPDEST POP POP POP POP PUSH1 0x40 MLOAD RETURNDATASIZE PUSH1 0x1F NOT PUSH1 0x1F DUP3 ADD AND DUP3 ADD DUP1 PUSH1 0x40 MSTORE POP DUP2 ADD SWAP1 PUSH2 0xC06 SWAP2 SWAP1 PUSH2 0x2C82 JUMP JUMPDEST SWAP1 POP PUSH0 PUSH2 0xC3E DUP4 PUSH1 0xB PUSH0 SWAP1 SLOAD SWAP1 PUSH2 0x100 EXP SWAP1 DIV PUSH14 0xFFFFFFFFFFFFFFFFFFFFFFFFFFFF AND PUSH14 0xFFFFFFFFFFFFFFFFFFFFFFFFFFFF AND PUSH2 0x21C2 JUMP JUMPDEST SWAP1 POP PUSH0 PUSH2 0xC77 DUP4 PUSH1 0xB PUSH1 0xE SWAP1 SLOAD SWAP1 PUSH2 0x100 EXP SWAP1 DIV PUSH14 0xFFFFFFFFFFFFFFFFFFFFFFFFFFFF AND PUSH14 0xFFFFFFFFFFFFFFFFFFFFFFFFFFFF AND PUSH2 0x21C2 JUMP JUMPDEST SWAP1 POP PUSH0 PUSH2 0xCBB PUSH1 0xB PUSH0 SWAP1 SLOAD SWAP1 PUSH2 0x100 EXP SWAP1 DIV PUSH14 0xFFFFFFFFFFFFFFFFFFFFFFFFFFFF AND PUSH1 0xB PUSH1 0xE SWAP1 SLOAD SWAP1 PUSH2 0x100 EXP SWAP1 DIV PUSH14 0xFFFFFFFFFFFFFFFFFFFFFFFFFFFF AND PUSH2 0x222D JUMP JUMPDEST SWAP1 POP PUSH0 DUP1 PUSH1 0x4 SLOAD SUB PUSH2 0xCF7 JUMPI PUSH2 0xCE4 PUSH2 0xCDC PUSH2 0xCD7 DUP7 DUP7 PUSH2 0x23C2 JUMP JUMPDEST PUSH2 0x2441 JUMP JUMPDEST PUSH2 0x3E8 PUSH2 0x21C2 JUMP JUMPDEST SWAP1 POP PUSH2 0xCF2 PUSH0 PUSH2 0x3E8 PUSH2 0x985 JUMP JUMPDEST PUSH2 0xD87 JUMP JUMPDEST PUSH2 0xD84 PUSH1 0xB PUSH0 SWAP1 SLOAD SWAP1 PUSH2 0x100 EXP SWAP1 DIV PUSH14 0xFFFFFFFFFFFFFFFFFFFFFFFFFFFF AND PUSH14 0xFFFFFFFFFFFFFFFFFFFFFFFFFFFF AND PUSH2 0xD32 DUP7 PUSH1 0x4 SLOAD PUSH2 0x23C2 JUMP JUMPDEST PUSH2 0xD3C SWAP2 SWAP1 PUSH2 0x2CDA JUMP JUMPDEST PUSH1 0xB PUSH1 0xE SWAP1 SLOAD SWAP1 PUSH2 0x100 EXP SWAP1 DIV PUSH14 0xFFFFFFFFFFFFFFFFFFFFFFFFFFFF AND PUSH14 0xFFFFFFFFFFFFFFFFFFFFFFFFFFFF AND PUSH2 0xD75 DUP7 PUSH1 0x4 SLOAD PUSH2 0x23C2 JUMP JUMPDEST PUSH2 0xD7F SWAP2 SWAP1 PUSH2 0x2CDA JUMP JUMPDEST PUSH2 0x24B8 JUMP JUMPDEST SWAP1 POP JUMPDEST PUSH0 DUP2 GT PUSH2 0xDC9 JUMPI PUSH1 0x40 MLOAD PUSH32 0x8C379A000000000000000000000000000000000000000000000000000000000 DUP2 MSTORE PUSH1 0x4 ADD PUSH2 0xDC0 SWAP1 PUSH2 0x2D54 JUMP JUMPDEST PUSH1 0x40 MLOAD DUP1 SWAP2 SUB SWAP1 REVERT JUMPDEST PUSH2 0xDD3 DUP9 DUP3 PUSH2 0x985 JUMP JUMPDEST PUSH1 0x8 PUSH0 SWAP1 SLOAD SWAP1 PUSH2 0x100 EXP SWAP1 DIV PUSH20 0xFFFFFFFFFFFFFFFFFFFFFFFFFFFFFFFFFFFFFFFF AND PUSH20 0xFFFFFFFFFFFFFFFFFFFFFFFFFFFFFFFFFFFFFFFF AND PUSH4 0xEB201D99 ADDRESS DUP11 PUSH1 0x40 MLOAD DUP4 PUSH4 0xFFFFFFFF AND PUSH1 0xE0 SHL DUP2 MSTORE PUSH1 0x4 ADD PUSH2 0xE2F SWAP3 SWAP2 SWAP1 PUSH2 0x2D72 JUMP JUMPDEST PUSH0 PUSH1 0x40 MLOAD DUP1 DUP4 SUB DUP2 PUSH0 DUP8 DUP1 EXTCODESIZE ISZERO DUP1 ISZERO PUSH2 0xE46 JUMPI PUSH0 DUP1 REVERT JUMPDEST POP GAS CALL ISZERO DUP1 ISZERO PUSH2 0xE58 JUMPI RETURNDATASIZE PUSH0 DUP1 RETURNDATACOPY RETURNDATASIZE PUSH0 REVERT JUMPDEST POP POP POP POP PUSH2 0xE9F DUP7 DUP7 PUSH1 0xB PUSH0 SWAP1 SLOAD SWAP1 PUSH2 0x100 EXP SWAP1 DIV PUSH14 0xFFFFFFFFFFFFFFFFFFFFFFFFFFFF AND PUSH1 0xB PUSH1 0xE SWAP1 SLOAD SWAP1 PUSH2 0x100 EXP SWAP1 DIV PUSH14 0xFFFFFFFFFFFFFFFFFFFFFFFFFFFF AND PUSH2 0x127F JUMP JUMPDEST DUP2 ISZERO PUSH2 0xF0D JUMPI PUSH2 0xF06 PUSH1 0xB PUSH0 SWAP1 SLOAD SWAP1 PUSH2 0x100 EXP SWAP1 DIV PUSH14 0xFFFFFFFFFFFFFFFFFFFFFFFFFFFF AND PUSH14 0xFFFFFFFFFFFFFFFFFFFFFFFFFFFF AND PUSH1 0xB PUSH1 0xE SWAP1 SLOAD SWAP1 PUSH2 0x100 EXP SWAP1 DIV PUSH14 0xFFFFFFFFFFFFFFFFFFFFFFFFFFFF AND PUSH14 0xFFFFFFFFFFFFFFFFFFFFFFFFFFFF AND PUSH2 0x23C2 JUMP JUMPDEST PUSH1 0xC DUP2 SWAP1 SSTORE POP JUMPDEST CALLER PUSH20 0xFFFFFFFFFFFFFFFFFFFFFFFFFFFFFFFFFFFFFFFF AND PUSH32 0x4C209B5FC8AD50758F13E2E1088BA56A560DFF690A1C6FEF26394F4C03821C4F DUP6 DUP6 PUSH1 0x40 MLOAD PUSH2 0xF55 SWAP3 SWAP2 SWAP1 PUSH2 0x2A92 JUMP JUMPDEST PUSH1 0x40 MLOAD DUP1 SWAP2 SUB SWAP1 LOG2 PUSH1 0x1 SWAP7 POP POP POP POP POP POP POP PUSH1 0x1 PUSH1 0xE DUP2 SWAP1 SSTORE POP SWAP2 SWAP1 POP JUMP JUMPDEST PUSH0 DUP1 PUSH0 PUSH1 0x8 PUSH0 SWAP1 SLOAD SWAP1 PUSH2 0x100 EXP SWAP1 DIV PUSH20 0xFFFFFFFFFFFFFFFFFFFFFFFFFFFFFFFFFFFFFFFF AND PUSH20 0xFFFFFFFFFFFFFFFFFFFFFFFFFFFFFFFFFFFFFFFF AND PUSH4 0x238C45EB DUP6 ADDRESS PUSH1 0x40 MLOAD DUP4 PUSH4 0xFFFFFFFF AND PUSH1 0xE0 SHL DUP2 MSTORE PUSH1 0x4 ADD PUSH2 0xFD3 SWAP3 SWAP2 SWAP1 PUSH2 0x2D72 JUMP JUMPDEST PUSH1 0x40 DUP1 MLOAD DUP1 DUP4 SUB DUP2 DUP7 GAS STATICCALL ISZERO DUP1 ISZERO PUSH2 0xFED JUMPI RETURNDATASIZE PUSH0 DUP1 RETURNDATACOPY RETURNDATASIZE PUSH0 REVERT JUMPDEST POP POP POP POP PUSH1 0x40 MLOAD RETURNDATASIZE PUSH1 0x1F NOT PUSH1 0x1F DUP3 ADD AND DUP3 ADD DUP1 PUSH1 0x40 MSTORE POP DUP2 ADD SWAP1 PUSH2 0x1011 SWAP2 SWAP1 PUSH2 0x2D99 JUMP JUMPDEST SWAP2 POP SWAP2 POP PUSH0 DUP3 GT DUP1 PUSH2 0x1022 JUMPI POP PUSH0 DUP2 GT JUMPDEST PUSH2 0x1061 JUMPI PUSH1 0x40 MLOAD PUSH32 0x8C379A000000000000000000000000000000000000000000000000000000000 DUP2 MSTORE PUSH1 0x4 ADD PUSH2 0x1058 SWAP1 PUSH2 0x2E21 JUMP JUMPDEST PUSH1 0x40 MLOAD DUP1 SWAP2 SUB SWAP1 REVERT JUMPDEST PUSH1 0x9 PUSH0 SWAP1 SLOAD SWAP1 PUSH2 0x100 EXP SWAP1 DIV PUSH20 0xFFFFFFFFFFFFFFFFFFFFFFFFFFFFFFFFFFFFFFFF AND PUSH20 0xFFFFFFFFFFFFFFFFFFFFFFFFFFFFFFFFFFFFFFFF AND PUSH4 0xA9059CBB DUP6 DUP5 PUSH1 0x40 MLOAD DUP4 PUSH4 0xFFFFFFFF AND PUSH1 0xE0 SHL DUP2 MSTORE PUSH1 0x4 ADD PUSH2 0x10BD SWAP3 SWAP2 SWAP1 PUSH2 0x2E3F JUMP JUMPDEST PUSH1 0x20 PUSH1 0x40 MLOAD DUP1 DUP4 SUB DUP2 PUSH0 DUP8 GAS CALL ISZERO DUP1 ISZERO PUSH2 0x10D9 JUMPI RETURNDATASIZE PUSH0 DUP1 RETURNDATACOPY RETURNDATASIZE PUSH0 REVERT JUMPDEST POP POP POP POP PUSH1 0x40 MLOAD RETURNDATASIZE PUSH1 0x1F NOT PUSH1 0x1F DUP3 ADD AND DUP3 ADD DUP1 PUSH1 0x40 MSTORE POP DUP2 ADD SWAP1 PUSH2 0x10FD SWAP2 SWAP1 PUSH2 0x2E90 JUMP JUMPDEST POP PUSH1 0xA PUSH0 SWAP1 SLOAD SWAP1 PUSH2 0x100 EXP SWAP1 DIV PUSH20 0xFFFFFFFFFFFFFFFFFFFFFFFFFFFFFFFFFFFFFFFF AND PUSH20 0xFFFFFFFFFFFFFFFFFFFFFFFFFFFFFFFFFFFFFFFF AND PUSH4 0xA9059CBB DUP6 DUP4 PUSH1 0x40 MLOAD DUP4 PUSH4 0xFFFFFFFF AND PUSH1 0xE0 SHL DUP2 MSTORE PUSH1 0x4 ADD PUSH2 0x115A SWAP3 SWAP2 SWAP1 PUSH2 0x2E3F JUMP JUMPDEST PUSH1 0x20 PUSH1 0x40 MLOAD DUP1 DUP4 SUB DUP2 PUSH0 DUP8 GAS CALL ISZERO DUP1 ISZERO PUSH2 0x1176 JUMPI RETURNDATASIZE PUSH0 DUP1 RETURNDATACOPY RETURNDATASIZE PUSH0 REVERT JUMPDEST POP POP POP POP PUSH1 0x40 MLOAD RETURNDATASIZE PUSH1 0x1F NOT PUSH1 0x1F DUP3 ADD AND DUP3 ADD DUP1 PUSH1 0x40 MSTORE POP DUP2 ADD SWAP1 PUSH2 0x119A SWAP2 SWAP1 PUSH2 0x2E90 JUMP JUMPDEST POP PUSH1 0x8 PUSH0 SWAP1 SLOAD SWAP1 PUSH2 0x100 EXP SWAP1 DIV PUSH20 0xFFFFFFFFFFFFFFFFFFFFFFFFFFFFFFFFFFFFFFFF AND PUSH20 0xFFFFFFFFFFFFFFFFFFFFFFFFFFFFFFFFFFFFFFFF AND PUSH4 0xBDD6BE07 DUP6 ADDRESS PUSH0 DUP1 PUSH1 0x40 MLOAD DUP6 PUSH4 0xFFFFFFFF AND PUSH1 0xE0 SHL DUP2 MSTORE PUSH1 0x4 ADD PUSH2 0x11FB SWAP5 SWAP4 SWAP3 SWAP2 SWAP1 PUSH2 0x2EFD JUMP JUMPDEST PUSH0 PUSH1 0x40 MLOAD DUP1 DUP4 SUB DUP2 PUSH0 DUP8 DUP1 EXTCODESIZE ISZERO DUP1 ISZERO PUSH2 0x1212 JUMPI PUSH0 DUP1 REVERT JUMPDEST POP GAS CALL ISZERO DUP1 ISZERO PUSH2 0x1224 JUMPI RETURNDATASIZE PUSH0 DUP1 RETURNDATACOPY RETURNDATASIZE PUSH0 REVERT JUMPDEST POP POP POP POP PUSH1 0x1 SWAP3 POP POP POP SWAP2 SWAP1 POP JUMP JUMPDEST PUSH0 PUSH1 0x5 PUSH0 DUP4 PUSH20 0xFFFFFFFFFFFFFFFFFFFFFFFFFFFFFFFFFFFFFFFF AND PUSH20 0xFFFFFFFFFFFFFFFFFFFFFFFFFFFFFFFFFFFFFFFF AND DUP2 MSTORE PUSH1 0x20 ADD SWAP1 DUP2 MSTORE PUSH1 0x20 ADD PUSH0 KECCAK256 SLOAD SWAP1 POP SWAP2 SWAP1 POP JUMP JUMPDEST PUSH1 0xC SLOAD DUP2 JUMP JUMPDEST PUSH14 0xFFFFFFFFFFFFFFFFFFFFFFFFFFFF DUP1 AND DUP5 GT ISZERO DUP1 ISZERO PUSH2 0x12AF JUMPI POP PUSH14 0xFFFFFFFFFFFFFFFFFFFFFFFFFFFF DUP1 AND DUP4 GT ISZERO JUMPDEST PUSH2 0x12EE JUMPI PUSH1 0x40 MLOAD PUSH32 0x8C379A000000000000000000000000000000000000000000000000000000000 DUP2 MSTORE PUSH1 0x4 ADD PUSH2 0x12E5 SWAP1 PUSH2 0x2F8A JUMP JUMPDEST PUSH1 0x40 MLOAD DUP1 SWAP2 SUB SWAP1 REVERT JUMPDEST PUSH0 PUSH5 0x100000000 TIMESTAMP PUSH2 0x1300 SWAP2 SWAP1 PUSH2 0x2FA8 JUMP JUMPDEST SWAP1 POP DUP5 PUSH1 0xB PUSH0 PUSH2 0x100 EXP DUP2 SLOAD DUP2 PUSH14 0xFFFFFFFFFFFFFFFFFFFFFFFFFFFF MUL NOT AND SWAP1 DUP4 PUSH14 0xFFFFFFFFFFFFFFFFFFFFFFFFFFFF AND MUL OR SWAP1 SSTORE POP DUP4 PUSH1 0xB PUSH1 0xE PUSH2 0x100 EXP DUP2 SLOAD DUP2 PUSH14 0xFFFFFFFFFFFFFFFFFFFFFFFFFFFF MUL NOT AND SWAP1 DUP4 PUSH14 0xFFFFFFFFFFFFFFFFFFFFFFFFFFFF AND MUL OR SWAP1 SSTORE POP DUP1 PUSH1 0xD PUSH0 PUSH2 0x100 EXP DUP2 SLOAD DUP2 PUSH4 0xFFFFFFFF MUL NOT AND SWAP1 DUP4 PUSH4 0xFFFFFFFF AND MUL OR SWAP1 SSTORE POP PUSH32 0x1C411E9A96E071241C2F21F7726B17AE89E3CAB4C78BE50E062B03A9FFFBBAD1 PUSH1 0xB PUSH0 SWAP1 SLOAD SWAP1 PUSH2 0x100 EXP SWAP1 DIV PUSH14 0xFFFFFFFFFFFFFFFFFFFFFFFFFFFF AND PUSH1 0xB PUSH1 0xE SWAP1 SLOAD SWAP1 PUSH2 0x100 EXP SWAP1 DIV PUSH14 0xFFFFFFFFFFFFFFFFFFFFFFFFFFFF AND PUSH1 0x40 MLOAD PUSH2 0x13F3 SWAP3 SWAP2 SWAP1 PUSH2 0x2FD8 JUMP JUMPDEST PUSH1 0x40 MLOAD DUP1 SWAP2 SUB SWAP1 LOG1 POP POP POP POP POP JUMP JUMPDEST PUSH1 0x1 DUP1 SLOAD PUSH2 0x140F SWAP1 PUSH2 0x2AE6 JUMP JUMPDEST DUP1 PUSH1 0x1F ADD PUSH1 0x20 DUP1 SWAP2 DIV MUL PUSH1 0x20 ADD PUSH1 0x40 MLOAD SWAP1 DUP2 ADD PUSH1 0x40 MSTORE DUP1 SWAP3 SWAP2 SWAP1 DUP2 DUP2 MSTORE PUSH1 0x20 ADD DUP3 DUP1 SLOAD PUSH2 0x143B SWAP1 PUSH2 0x2AE6 JUMP JUMPDEST DUP1 ISZERO PUSH2 0x1486 JUMPI DUP1 PUSH1 0x1F LT PUSH2 0x145D JUMPI PUSH2 0x100 DUP1 DUP4 SLOAD DIV MUL DUP4 MSTORE SWAP2 PUSH1 0x20 ADD SWAP2 PUSH2 0x1486 JUMP JUMPDEST DUP3 ADD SWAP2 SWAP1 PUSH0 MSTORE PUSH1 0x20 PUSH0 KECCAK256 SWAP1 JUMPDEST DUP2 SLOAD DUP2 MSTORE SWAP1 PUSH1 0x1 ADD SWAP1 PUSH1 0x20 ADD DUP1 DUP4 GT PUSH2 0x1469 JUMPI DUP3 SWAP1 SUB PUSH1 0x1F AND DUP3 ADD SWAP2 JUMPDEST POP POP POP POP POP DUP2 JUMP JUMPDEST PUSH0 PUSH1 0x1 PUSH1 0xE SLOAD EQ PUSH2 0x14D4 JUMPI PUSH1 0x40 MLOAD PUSH32 0x8C379A000000000000000000000000000000000000000000000000000000000 DUP2 MSTORE PUSH1 0x4 ADD PUSH2 0x14CB SWAP1 PUSH2 0x2C50 JUMP JUMPDEST PUSH1 0x40 MLOAD DUP1 SWAP2 SUB SWAP1 REVERT JUMPDEST PUSH0 PUSH1 0xE DUP2 SWAP1 SSTORE POP PUSH0 PUSH1 0x9 PUSH0 SWAP1 SLOAD SWAP1 PUSH2 0x100 EXP SWAP1 DIV PUSH20 0xFFFFFFFFFFFFFFFFFFFFFFFFFFFFFFFFFFFFFFFF AND PUSH20 0xFFFFFFFFFFFFFFFFFFFFFFFFFFFFFFFFFFFFFFFF AND PUSH4 0x70A08231 ADDRESS PUSH1 0x40 MLOAD DUP3 PUSH4 0xFFFFFFFF AND PUSH1 0xE0 SHL DUP2 MSTORE PUSH1 0x4 ADD PUSH2 0x1536 SWAP2 SWAP1 PUSH2 0x277E JUMP JUMPDEST PUSH1 0x20 PUSH1 0x40 MLOAD DUP1 DUP4 SUB DUP2 DUP7 GAS STATICCALL ISZERO DUP1 ISZERO PUSH2 0x1551 JUMPI RETURNDATASIZE PUSH0 DUP1 RETURNDATACOPY RETURNDATASIZE PUSH0 REVERT JUMPDEST POP POP POP POP PUSH1 0x40 MLOAD RETURNDATASIZE PUSH1 0x1F NOT PUSH1 0x1F DUP3 ADD AND DUP3 ADD DUP1 PUSH1 0x40 MSTORE POP DUP2 ADD SWAP1 PUSH2 0x1575 SWAP2 SWAP1 PUSH2 0x2C82 JUMP JUMPDEST SWAP1 POP PUSH0 PUSH1 0xA PUSH0 SWAP1 SLOAD SWAP1 PUSH2 0x100 EXP SWAP1 DIV PUSH20 0xFFFFFFFFFFFFFFFFFFFFFFFFFFFFFFFFFFFFFFFF AND PUSH20 0xFFFFFFFFFFFFFFFFFFFFFFFFFFFFFFFFFFFFFFFF AND PUSH4 0x70A08231 ADDRESS PUSH1 0x40 MLOAD DUP3 PUSH4 0xFFFFFFFF AND PUSH1 0xE0 SHL DUP2 MSTORE PUSH1 0x4 ADD PUSH2 0x15D2 SWAP2 SWAP1 PUSH2 0x277E JUMP JUMPDEST PUSH1 0x20 PUSH1 0x40 MLOAD DUP1 DUP4 SUB DUP2 DUP7 GAS STATICCALL ISZERO DUP1 ISZERO PUSH2 0x15ED JUMPI RETURNDATASIZE PUSH0 DUP1 RETURNDATACOPY RETURNDATASIZE PUSH0 REVERT JUMPDEST POP POP POP POP PUSH1 0x40 MLOAD RETURNDATASIZE PUSH1 0x1F NOT PUSH1 0x1F DUP3 ADD AND DUP3 ADD DUP1 PUSH1 0x40 MSTORE POP DUP2 ADD SWAP1 PUSH2 0x1611 SWAP2 SWAP1 PUSH2 0x2C82 JUMP JUMPDEST SWAP1 POP PUSH0 PUSH1 0x5 PUSH0 ADDRESS PUSH20 0xFFFFFFFFFFFFFFFFFFFFFFFFFFFFFFFFFFFFFFFF AND PUSH20 0xFFFFFFFFFFFFFFFFFFFFFFFFFFFFFFFFFFFFFFFF AND DUP2 MSTORE PUSH1 0x20 ADD SWAP1 DUP2 MSTORE PUSH1 0x20 ADD PUSH0 KECCAK256 SLOAD SWAP1 POP PUSH0 PUSH2 0x1696 PUSH1 0xB PUSH0 SWAP1 SLOAD SWAP1 PUSH2 0x100 EXP SWAP1 DIV PUSH14 0xFFFFFFFFFFFFFFFFFFFFFFFFFFFF AND PUSH1 0xB PUSH1 0xE SWAP1 SLOAD SWAP1 PUSH2 0x100 EXP SWAP1 DIV PUSH14 0xFFFFFFFFFFFFFFFFFFFFFFFFFFFF AND PUSH2 0x222D JUMP JUMPDEST SWAP1 POP PUSH0 PUSH1 0x64 DUP8 DUP5 PUSH2 0x16A7 SWAP2 SWAP1 PUSH2 0x2FFF JUMP JUMPDEST PUSH2 0x16B1 SWAP2 SWAP1 PUSH2 0x2CDA JUMP JUMPDEST SWAP1 POP PUSH0 DUP2 GT PUSH2 0x16F5 JUMPI PUSH1 0x40 MLOAD PUSH32 0x8C379A000000000000000000000000000000000000000000000000000000000 DUP2 MSTORE PUSH1 0x4 ADD PUSH2 0x16EC SWAP1 PUSH2 0x308A JUMP JUMPDEST PUSH1 0x40 MLOAD DUP1 SWAP2 SUB SWAP1 REVERT JUMPDEST PUSH0 PUSH1 0x4 SLOAD PUSH2 0x1703 DUP4 DUP9 PUSH2 0x23C2 JUMP JUMPDEST PUSH2 0x170D SWAP2 SWAP1 PUSH2 0x2CDA JUMP JUMPDEST SWAP1 POP PUSH0 PUSH1 0x4 SLOAD PUSH2 0x171D DUP5 DUP9 PUSH2 0x23C2 JUMP JUMPDEST PUSH2 0x1727 SWAP2 SWAP1 PUSH2 0x2CDA JUMP JUMPDEST SWAP1 POP PUSH0 DUP3 GT DUP1 ISZERO PUSH2 0x1737 JUMPI POP PUSH0 DUP2 GT JUMPDEST PUSH2 0x1776 JUMPI PUSH1 0x40 MLOAD PUSH32 0x8C379A000000000000000000000000000000000000000000000000000000000 DUP2 MSTORE PUSH1 0x4 ADD PUSH2 0x176D SWAP1 PUSH2 0x308A JUMP JUMPDEST PUSH1 0x40 MLOAD DUP1 SWAP2 SUB SWAP1 REVERT JUMPDEST PUSH2 0x1780 ADDRESS DUP5 PUSH2 0xA14 JUMP JUMPDEST PUSH1 0x9 PUSH0 SWAP1 SLOAD SWAP1 PUSH2 0x100 EXP SWAP1 DIV PUSH20 0xFFFFFFFFFFFFFFFFFFFFFFFFFFFFFFFFFFFFFFFF AND PUSH20 0xFFFFFFFFFFFFFFFFFFFFFFFFFFFFFFFFFFFFFFFF AND PUSH4 0xA9059CBB DUP12 DUP5 PUSH1 0x40 MLOAD DUP4 PUSH4 0xFFFFFFFF AND PUSH1 0xE0 SHL DUP2 MSTORE PUSH1 0x4 ADD PUSH2 0x17DC SWAP3 SWAP2 SWAP1 PUSH2 0x2E3F JUMP JUMPDEST PUSH1 0x20 PUSH1 0x40 MLOAD DUP1 DUP4 SUB DUP2 PUSH0 DUP8 GAS CALL ISZERO DUP1 ISZERO PUSH2 0x17F8 JUMPI RETURNDATASIZE PUSH0 DUP1 RETURNDATACOPY RETURNDATASIZE PUSH0 REVERT JUMPDEST POP POP POP POP PUSH1 0x40 MLOAD RETURNDATASIZE PUSH1 0x1F NOT PUSH1 0x1F DUP3 ADD AND DUP3 ADD DUP1 PUSH1 0x40 MSTORE POP DUP2 ADD SWAP1 PUSH2 0x181C SWAP2 SWAP1 PUSH2 0x2E90 JUMP JUMPDEST POP PUSH1 0xA PUSH0 SWAP1 SLOAD SWAP1 PUSH2 0x100 EXP SWAP1 DIV PUSH20 0xFFFFFFFFFFFFFFFFFFFFFFFFFFFFFFFFFFFFFFFF AND PUSH20 0xFFFFFFFFFFFFFFFFFFFFFFFFFFFFFFFFFFFFFFFF AND PUSH4 0xA9059CBB DUP12 DUP4 PUSH1 0x40 MLOAD DUP4 PUSH4 0xFFFFFFFF AND PUSH1 0xE0 SHL DUP2 MSTORE PUSH1 0x4 ADD PUSH2 0x1879 SWAP3 SWAP2 SWAP1 PUSH2 0x2E3F JUMP JUMPDEST PUSH1 0x20 PUSH1 0x40 MLOAD DUP1 DUP4 SUB DUP2 PUSH0 DUP8 GAS CALL ISZERO DUP1 ISZERO PUSH2 0x1895 JUMPI RETURNDATASIZE PUSH0 DUP1 RETURNDATACOPY RETURNDATASIZE PUSH0 REVERT JUMPDEST POP POP POP POP PUSH1 0x40 MLOAD RETURNDATASIZE PUSH1 0x1F NOT PUSH1 0x1F DUP3 ADD AND DUP3 ADD DUP1 PUSH1 0x40 MSTORE POP DUP2 ADD SWAP1 PUSH2 0x18B9 SWAP2 SWAP1 PUSH2 0x2E90 JUMP JUMPDEST POP PUSH1 0x9 PUSH0 SWAP1 SLOAD SWAP1 PUSH2 0x100 EXP SWAP1 DIV PUSH20 0xFFFFFFFFFFFFFFFFFFFFFFFFFFFFFFFFFFFFFFFF AND PUSH20 0xFFFFFFFFFFFFFFFFFFFFFFFFFFFFFFFFFFFFFFFF AND PUSH4 0x70A08231 ADDRESS PUSH1 0x40 MLOAD DUP3 PUSH4 0xFFFFFFFF AND PUSH1 0xE0 SHL DUP2 MSTORE PUSH1 0x4 ADD PUSH2 0x1914 SWAP2 SWAP1 PUSH2 0x277E JUMP JUMPDEST PUSH1 0x20 PUSH1 0x40 MLOAD DUP1 DUP4 SUB DUP2 DUP7 GAS STATICCALL ISZERO DUP1 ISZERO PUSH2 0x192F JUMPI RETURNDATASIZE PUSH0 DUP1 RETURNDATACOPY RETURNDATASIZE PUSH0 REVERT JUMPDEST POP POP POP POP PUSH1 0x40 MLOAD RETURNDATASIZE PUSH1 0x1F NOT PUSH1 0x1F DUP3 ADD AND DUP3 ADD DUP1 PUSH1 0x40 MSTORE POP DUP2 ADD SWAP1 PUSH2 0x1953 SWAP2 SWAP1 PUSH2 0x2C82 JUMP JUMPDEST SWAP7 POP PUSH1 0xA PUSH0 SWAP1 SLOAD SWAP1 PUSH2 0x100 EXP SWAP1 DIV PUSH20 0xFFFFFFFFFFFFFFFFFFFFFFFFFFFFFFFFFFFFFFFF AND PUSH20 0xFFFFFFFFFFFFFFFFFFFFFFFFFFFFFFFFFFFFFFFF AND PUSH4 0x70A08231 ADDRESS PUSH1 0x40 MLOAD DUP3 PUSH4 0xFFFFFFFF AND PUSH1 0xE0 SHL DUP2 MSTORE PUSH1 0x4 ADD PUSH2 0x19AF SWAP2 SWAP1 PUSH2 0x277E JUMP JUMPDEST PUSH1 0x20 PUSH1 0x40 MLOAD DUP1 DUP4 SUB DUP2 DUP7 GAS STATICCALL ISZERO DUP1 ISZERO PUSH2 0x19CA JUMPI RETURNDATASIZE PUSH0 DUP1 RETURNDATACOPY RETURNDATASIZE PUSH0 REVERT JUMPDEST POP POP POP POP PUSH1 0x40 MLOAD RETURNDATASIZE PUSH1 0x1F NOT PUSH1 0x1F DUP3 ADD AND DUP3 ADD DUP1 PUSH1 0x40 MSTORE POP DUP2 ADD SWAP1 PUSH2 0x19EE SWAP2 SWAP1 PUSH2 0x2C82 JUMP JUMPDEST SWAP6 POP PUSH1 0x64 DUP10 SUB PUSH2 0x1B0B JUMPI PUSH1 0x8 PUSH0 SWAP1 SLOAD SWAP1 PUSH2 0x100 EXP SWAP1 DIV PUSH20 0xFFFFFFFFFFFFFFFFFFFFFFFFFFFFFFFFFFFFFFFF AND PUSH20 0xFFFFFFFFFFFFFFFFFFFFFFFFFFFFFFFFFFFFFFFF AND PUSH4 0x369DADFF DUP12 ADDRESS PUSH1 0x40 MLOAD DUP4 PUSH4 0xFFFFFFFF AND PUSH1 0xE0 SHL DUP2 MSTORE PUSH1 0x4 ADD PUSH2 0x1A54 SWAP3 SWAP2 SWAP1 PUSH2 0x2D72 JUMP JUMPDEST PUSH0 PUSH1 0x40 MLOAD DUP1 DUP4 SUB DUP2 PUSH0 DUP8 DUP1 EXTCODESIZE ISZERO DUP1 ISZERO PUSH2 0x1A6B JUMPI PUSH0 DUP1 REVERT JUMPDEST POP GAS CALL ISZERO DUP1 ISZERO PUSH2 0x1A7D JUMPI RETURNDATASIZE PUSH0 DUP1 RETURNDATACOPY RETURNDATASIZE PUSH0 REVERT JUMPDEST POP POP POP POP PUSH1 0x8 PUSH0 SWAP1 SLOAD SWAP1 PUSH2 0x100 EXP SWAP1 DIV PUSH20 0xFFFFFFFFFFFFFFFFFFFFFFFFFFFFFFFFFFFFFFFF AND PUSH20 0xFFFFFFFFFFFFFFFFFFFFFFFFFFFFFFFFFFFFFFFF AND PUSH4 0x202787B ADDRESS DUP13 PUSH1 0x40 MLOAD DUP4 PUSH4 0xFFFFFFFF AND PUSH1 0xE0 SHL DUP2 MSTORE PUSH1 0x4 ADD PUSH2 0x1ADD SWAP3 SWAP2 SWAP1 PUSH2 0x2D72 JUMP JUMPDEST PUSH0 PUSH1 0x40 MLOAD DUP1 DUP4 SUB DUP2 PUSH0 DUP8 DUP1 EXTCODESIZE ISZERO DUP1 ISZERO PUSH2 0x1AF4 JUMPI PUSH0 DUP1 REVERT JUMPDEST POP GAS CALL ISZERO DUP1 ISZERO PUSH2 0x1B06 JUMPI RETURNDATASIZE PUSH0 DUP1 RETURNDATACOPY RETURNDATASIZE PUSH0 REVERT JUMPDEST POP POP POP POP JUMPDEST PUSH2 0x1B4E DUP8 DUP8 PUSH1 0xB PUSH0 SWAP1 SLOAD SWAP1 PUSH2 0x100 EXP SWAP1 DIV PUSH14 0xFFFFFFFFFFFFFFFFFFFFFFFFFFFF AND PUSH1 0xB PUSH1 0xE SWAP1 SLOAD SWAP1 PUSH2 0x100 EXP SWAP1 DIV PUSH14 0xFFFFFFFFFFFFFFFFFFFFFFFFFFFF AND PUSH2 0x127F JUMP JUMPDEST DUP4 ISZERO PUSH2 0x1BBC JUMPI PUSH2 0x1BB5 PUSH1 0xB PUSH0 SWAP1 SLOAD SWAP1 PUSH2 0x100 EXP SWAP1 DIV PUSH14 0xFFFFFFFFFFFFFFFFFFFFFFFFFFFF AND PUSH14 0xFFFFFFFFFFFFFFFFFFFFFFFFFFFF AND PUSH1 0xB PUSH1 0xE SWAP1 SLOAD SWAP1 PUSH2 0x100 EXP SWAP1 DIV PUSH14 0xFFFFFFFFFFFFFFFFFFFFFFFFFFFF AND PUSH14 0xFFFFFFFFFFFFFFFFFFFFFFFFFFFF AND PUSH2 0x23C2 JUMP JUMPDEST PUSH1 0xC DUP2 SWAP1 SSTORE POP JUMPDEST DUP10 PUSH20 0xFFFFFFFFFFFFFFFFFFFFFFFFFFFFFFFFFFFFFFFF AND CALLER PUSH20 0xFFFFFFFFFFFFFFFFFFFFFFFFFFFFFFFFFFFFFFFF AND PUSH32 0xDCCD412F0B1252819CB1FD330B93224CA42612892BB3F4F789976E6D81936496 DUP5 DUP5 PUSH1 0x40 MLOAD PUSH2 0x1C1B SWAP3 SWAP2 SWAP1 PUSH2 0x2A92 JUMP JUMPDEST PUSH1 0x40 MLOAD DUP1 SWAP2 SUB SWAP1 LOG3 PUSH1 0x1 SWAP8 POP POP POP POP POP POP POP POP PUSH1 0x1 PUSH1 0xE DUP2 SWAP1 SSTORE POP SWAP3 SWAP2 POP POP JUMP JUMPDEST PUSH0 DUP2 PUSH1 0x5 PUSH0 CALLER PUSH20 0xFFFFFFFFFFFFFFFFFFFFFFFFFFFFFFFFFFFFFFFF AND PUSH20 0xFFFFFFFFFFFFFFFFFFFFFFFFFFFFFFFFFFFFFFFF AND DUP2 MSTORE PUSH1 0x20 ADD SWAP1 DUP2 MSTORE PUSH1 0x20 ADD PUSH0 KECCAK256 PUSH0 DUP3 DUP3 SLOAD PUSH2 0x1C89 SWAP2 SWAP1 PUSH2 0x2B43 JUMP JUMPDEST SWAP3 POP POP DUP2 SWAP1 SSTORE POP DUP2 PUSH1 0x5 PUSH0 DUP6 PUSH20 0xFFFFFFFFFFFFFFFFFFFFFFFFFFFFFFFFFFFFFFFF AND PUSH20 0xFFFFFFFFFFFFFFFFFFFFFFFFFFFFFFFFFFFFFFFF AND DUP2 MSTORE PUSH1 0x20 ADD SWAP1 DUP2 MSTORE PUSH1 0x20 ADD PUSH0 KECCAK256 PUSH0 DUP3 DUP3 SLOAD PUSH2 0x1CDC SWAP2 SWAP1 PUSH2 0x2B76 JUMP JUMPDEST SWAP3 POP POP DUP2 SWAP1 SSTORE POP PUSH1 0x1 SWAP1 POP SWAP3 SWAP2 POP POP JUMP JUMPDEST PUSH1 0x1 PUSH1 0xE SLOAD EQ PUSH2 0x1D32 JUMPI PUSH1 0x40 MLOAD PUSH32 0x8C379A000000000000000000000000000000000000000000000000000000000 DUP2 MSTORE PUSH1 0x4 ADD PUSH2 0x1D29 SWAP1 PUSH2 0x2C50 JUMP JUMPDEST PUSH1 0x40 MLOAD DUP1 SWAP2 SUB SWAP1 REVERT JUMPDEST PUSH0 PUSH1 0xE DUP2 SWAP1 SSTORE POP PUSH0 PUSH1 0x9 PUSH0 SWAP1 SLOAD SWAP1 PUSH2 0x100 EXP SWAP1 DIV PUSH20 0xFFFFFFFFFFFFFFFFFFFFFFFFFFFFFFFFFFFFFFFF AND SWAP1 POP PUSH0 PUSH1 0xA PUSH0 SWAP1 SLOAD SWAP1 PUSH2 0x100 EXP SWAP1 DIV PUSH20 0xFFFFFFFFFFFFFFFFFFFFFFFFFFFFFFFFFFFFFFFF AND SWAP1 POP POP POP PUSH1 0x1 PUSH1 0xE DUP2 SWAP1 SSTORE POP POP JUMP JUMPDEST PUSH1 0x7 PUSH0 SWAP1 SLOAD SWAP1 PUSH2 0x100 EXP SWAP1 DIV PUSH20 0xFFFFFFFFFFFFFFFFFFFFFFFFFFFFFFFFFFFFFFFF AND DUP2 JUMP JUMPDEST PUSH1 0xD PUSH0 SWAP1 SLOAD SWAP1 PUSH2 0x100 EXP SWAP1 DIV PUSH4 0xFFFFFFFF AND DUP2 JUMP JUMPDEST PUSH1 0xA PUSH0 SWAP1 SLOAD SWAP1 PUSH2 0x100 EXP SWAP1 DIV PUSH20 0xFFFFFFFFFFFFFFFFFFFFFFFFFFFFFFFFFFFFFFFF AND DUP2 JUMP JUMPDEST PUSH0 DUP1 PUSH0 PUSH1 0x5 PUSH0 DUP6 PUSH20 0xFFFFFFFFFFFFFFFFFFFFFFFFFFFFFFFFFFFFFFFF AND PUSH20 0xFFFFFFFFFFFFFFFFFFFFFFFFFFFFFFFFFFFFFFFF AND DUP2 MSTORE PUSH1 0x20 ADD SWAP1 DUP2 MSTORE PUSH1 0x20 ADD PUSH0 KECCAK256 SLOAD SWAP1 POP PUSH0 PUSH1 0x4 SLOAD PUSH2 0x1E6B DUP4 PUSH1 0xB PUSH0 SWAP1 SLOAD SWAP1 PUSH2 0x100 EXP SWAP1 DIV PUSH14 0xFFFFFFFFFFFFFFFFFFFFFFFFFFFF AND PUSH14 0xFFFFFFFFFFFFFFFFFFFFFFFFFFFF AND PUSH2 0x23C2 JUMP JUMPDEST PUSH2 0x1E75 SWAP2 SWAP1 PUSH2 0x2CDA JUMP JUMPDEST SWAP1 POP PUSH0 PUSH1 0x4 SLOAD PUSH2 0x1EB1 DUP5 PUSH1 0xB PUSH1 0xE SWAP1 SLOAD SWAP1 PUSH2 0x100 EXP SWAP1 DIV PUSH14 0xFFFFFFFFFFFFFFFFFFFFFFFFFFFF AND PUSH14 0xFFFFFFFFFFFFFFFFFFFFFFFFFFFF AND PUSH2 0x23C2 JUMP JUMPDEST PUSH2 0x1EBB SWAP2 SWAP1 PUSH2 0x2CDA JUMP JUMPDEST SWAP1 POP DUP2 DUP2 SWAP5 POP SWAP5 POP POP POP POP SWAP2 POP SWAP2 JUMP JUMPDEST PUSH0 PUSH1 0x6 PUSH0 DUP5 PUSH20 0xFFFFFFFFFFFFFFFFFFFFFFFFFFFFFFFFFFFFFFFF AND PUSH20 0xFFFFFFFFFFFFFFFFFFFFFFFFFFFFFFFFFFFFFFFF AND DUP2 MSTORE PUSH1 0x20 ADD SWAP1 DUP2 MSTORE PUSH1 0x20 ADD PUSH0 KECCAK256 PUSH0 DUP4 PUSH20 0xFFFFFFFFFFFFFFFFFFFFFFFFFFFFFFFFFFFFFFFF AND PUSH20 0xFFFFFFFFFFFFFFFFFFFFFFFFFFFFFFFFFFFFFFFF AND DUP2 MSTORE PUSH1 0x20 ADD SWAP1 DUP2 MSTORE PUSH1 0x20 ADD PUSH0 KECCAK256 SLOAD SWAP1 POP SWAP3 SWAP2 POP POP JUMP JUMPDEST PUSH1 0x2 DUP1 SLOAD PUSH2 0x1F5A SWAP1 PUSH2 0x2AE6 JUMP JUMPDEST DUP1 PUSH1 0x1F ADD PUSH1 0x20 DUP1 SWAP2 DIV MUL PUSH1 0x20 ADD PUSH1 0x40 MLOAD SWAP1 DUP2 ADD PUSH1 0x40 MSTORE DUP1 SWAP3 SWAP2 SWAP1 DUP2 DUP2 MSTORE PUSH1 0x20 ADD DUP3 DUP1 SLOAD PUSH2 0x1F86 SWAP1 PUSH2 0x2AE6 JUMP JUMPDEST DUP1 ISZERO PUSH2 0x1FD1 JUMPI DUP1 PUSH1 0x1F LT PUSH2 0x1FA8 JUMPI PUSH2 0x100 DUP1 DUP4 SLOAD DIV MUL DUP4 MSTORE SWAP2 PUSH1 0x20 ADD SWAP2 PUSH2 0x1FD1 JUMP JUMPDEST DUP3 ADD SWAP2 SWAP1 PUSH0 MSTORE PUSH1 0x20 PUSH0 KECCAK256 SWAP1 JUMPDEST DUP2 SLOAD DUP2 MSTORE SWAP1 PUSH1 0x1 ADD SWAP1 PUSH1 0x20 ADD DUP1 DUP4 GT PUSH2 0x1FB4 JUMPI DUP3 SWAP1 SUB PUSH1 0x1F AND DUP3 ADD SWAP2 JUMPDEST POP POP POP POP POP DUP2 JUMP JUMPDEST PUSH1 0x1 PUSH1 0xE SLOAD EQ PUSH2 0x201E JUMPI PUSH1 0x40 MLOAD PUSH32 0x8C379A000000000000000000000000000000000000000000000000000000000 DUP2 MSTORE PUSH1 0x4 ADD PUSH2 0x2015 SWAP1 PUSH2 0x2C50 JUMP JUMPDEST PUSH1 0x40 MLOAD DUP1 SWAP2 SUB SWAP1 REVERT JUMPDEST PUSH0 PUSH1 0xE DUP2 SWAP1 SSTORE POP PUSH2 0x2198 PUSH1 0x9 PUSH0 SWAP1 SLOAD SWAP1 PUSH2 0x100 EXP SWAP1 DIV PUSH20 0xFFFFFFFFFFFFFFFFFFFFFFFFFFFFFFFFFFFFFFFF AND PUSH20 0xFFFFFFFFFFFFFFFFFFFFFFFFFFFFFFFFFFFFFFFF AND PUSH4 0x70A08231 ADDRESS PUSH1 0x40 MLOAD DUP3 PUSH4 0xFFFFFFFF AND PUSH1 0xE0 SHL DUP2 MSTORE PUSH1 0x4 ADD PUSH2 0x2082 SWAP2 SWAP1 PUSH2 0x277E JUMP JUMPDEST PUSH1 0x20 PUSH1 0x40 MLOAD DUP1 DUP4 SUB DUP2 DUP7 GAS STATICCALL ISZERO DUP1 ISZERO PUSH2 0x209D JUMPI RETURNDATASIZE PUSH0 DUP1 RETURNDATACOPY RETURNDATASIZE PUSH0 REVERT JUMPDEST POP POP POP POP PUSH1 0x40 MLOAD RETURNDATASIZE PUSH1 0x1F NOT PUSH1 0x1F DUP3 ADD AND DUP3 ADD DUP1 PUSH1 0x40 MSTORE POP DUP2 ADD SWAP1 PUSH2 0x20C1 SWAP2 SWAP1 PUSH2 0x2C82 JUMP JUMPDEST PUSH1 0xA PUSH0 SWAP1 SLOAD SWAP1 PUSH2 0x100 EXP SWAP1 DIV PUSH20 0xFFFFFFFFFFFFFFFFFFFFFFFFFFFFFFFFFFFFFFFF AND PUSH20 0xFFFFFFFFFFFFFFFFFFFFFFFFFFFFFFFFFFFFFFFF AND PUSH4 0x70A08231 ADDRESS PUSH1 0x40 MLOAD DUP3 PUSH4 0xFFFFFFFF AND PUSH1 0xE0 SHL DUP2 MSTORE PUSH1 0x4 ADD PUSH2 0x211B SWAP2 SWAP1 PUSH2 0x277E JUMP JUMPDEST PUSH1 0x20 PUSH1 0x40 MLOAD DUP1 DUP4 SUB DUP2 DUP7 GAS STATICCALL ISZERO DUP1 ISZERO PUSH2 0x2136 JUMPI RETURNDATASIZE PUSH0 DUP1 RETURNDATACOPY RETURNDATASIZE PUSH0 REVERT JUMPDEST POP POP POP POP PUSH1 0x40 MLOAD RETURNDATASIZE PUSH1 0x1F NOT PUSH1 0x1F DUP3 ADD AND DUP3 ADD DUP1 PUSH1 0x40 MSTORE POP DUP2 ADD SWAP1 PUSH2 0x215A SWAP2 SWAP1 PUSH2 0x2C82 JUMP JUMPDEST PUSH1 0xB PUSH0 SWAP1 SLOAD SWAP1 PUSH2 0x100 EXP SWAP1 DIV PUSH14 0xFFFFFFFFFFFFFFFFFFFFFFFFFFFF AND PUSH1 0xB PUSH1 0xE SWAP1 SLOAD SWAP1 PUSH2 0x100 EXP SWAP1 DIV PUSH14 0xFFFFFFFFFFFFFFFFFFFFFFFFFFFF AND PUSH2 0x127F JUMP JUMPDEST PUSH1 0x1 PUSH1 0xE DUP2 SWAP1 SSTORE POP JUMP JUMPDEST PUSH1 0x60 PUSH1 0x40 MLOAD DUP1 PUSH1 0x60 ADD PUSH1 0x40 MSTORE DUP1 PUSH1 0x35 DUP2 MSTORE PUSH1 0x20 ADD PUSH2 0x3220 PUSH1 0x35 SWAP2 CODECOPY SWAP1 POP SWAP1 JUMP JUMPDEST PUSH0 DUP1 DUP3 DUP5 PUSH2 0x21D0 SWAP2 SWAP1 PUSH2 0x2B43 JUMP JUMPDEST SWAP1 POP DUP4 DUP4 DUP6 PUSH2 0x21DF SWAP2 SWAP1 PUSH2 0x2B43 JUMP JUMPDEST SWAP2 POP DUP2 GT ISZERO PUSH2 0x2223 JUMPI PUSH1 0x40 MLOAD PUSH32 0x8C379A000000000000000000000000000000000000000000000000000000000 DUP2 MSTORE PUSH1 0x4 ADD PUSH2 0x221A SWAP1 PUSH2 0x30F2 JUMP JUMPDEST PUSH1 0x40 MLOAD DUP1 SWAP2 SUB SWAP1 REVERT JUMPDEST DUP1 SWAP2 POP POP SWAP3 SWAP2 POP POP JUMP JUMPDEST PUSH0 DUP1 PUSH1 0x7 PUSH0 SWAP1 SLOAD SWAP1 PUSH2 0x100 EXP SWAP1 DIV PUSH20 0xFFFFFFFFFFFFFFFFFFFFFFFFFFFFFFFFFFFFFFFF AND PUSH20 0xFFFFFFFFFFFFFFFFFFFFFFFFFFFFFFFFFFFFFFFF AND PUSH4 0x17E7E58 PUSH1 0x40 MLOAD DUP2 PUSH4 0xFFFFFFFF AND PUSH1 0xE0 SHL DUP2 MSTORE PUSH1 0x4 ADD PUSH1 0x20 PUSH1 0x40 MLOAD DUP1 DUP4 SUB DUP2 DUP7 GAS STATICCALL ISZERO DUP1 ISZERO PUSH2 0x2299 JUMPI RETURNDATASIZE PUSH0 DUP1 RETURNDATACOPY RETURNDATASIZE PUSH0 REVERT JUMPDEST POP POP POP POP PUSH1 0x40 MLOAD RETURNDATASIZE PUSH1 0x1F NOT PUSH1 0x1F DUP3 ADD AND DUP3 ADD DUP1 PUSH1 0x40 MSTORE POP DUP2 ADD SWAP1 PUSH2 0x22BD SWAP2 SWAP1 PUSH2 0x3124 JUMP JUMPDEST SWAP1 POP PUSH0 PUSH20 0xFFFFFFFFFFFFFFFFFFFFFFFFFFFFFFFFFFFFFFFF AND DUP2 PUSH20 0xFFFFFFFFFFFFFFFFFFFFFFFFFFFFFFFFFFFFFFFF AND EQ ISZERO SWAP2 POP PUSH0 PUSH1 0xC SLOAD SWAP1 POP DUP3 ISZERO PUSH2 0x23AA JUMPI PUSH0 DUP2 EQ PUSH2 0x23A5 JUMPI PUSH0 PUSH2 0x2337 PUSH2 0x2332 DUP8 PUSH14 0xFFFFFFFFFFFFFFFFFFFFFFFFFFFF AND DUP8 PUSH14 0xFFFFFFFFFFFFFFFFFFFFFFFFFFFF AND PUSH2 0x23C2 JUMP JUMPDEST PUSH2 0x2441 JUMP JUMPDEST SWAP1 POP PUSH0 PUSH2 0x2343 DUP4 PUSH2 0x2441 JUMP JUMPDEST SWAP1 POP DUP1 DUP3 GT ISZERO PUSH2 0x23A2 JUMPI PUSH0 PUSH2 0x2363 PUSH1 0x4 SLOAD PUSH2 0x235E DUP6 DUP6 PUSH2 0x21C2 JUMP JUMPDEST PUSH2 0x23C2 JUMP JUMPDEST SWAP1 POP PUSH0 PUSH2 0x237A PUSH2 0x2374 DUP6 PUSH1 0x5 PUSH2 0x23C2 JUMP JUMPDEST DUP5 PUSH2 0x24D0 JUMP JUMPDEST SWAP1 POP PUSH0 DUP2 DUP4 PUSH2 0x2389 SWAP2 SWAP1 PUSH2 0x2CDA JUMP JUMPDEST SWAP1 POP PUSH0 DUP2 GT ISZERO PUSH2 0x239E JUMPI PUSH2 0x239D DUP8 DUP3 PUSH2 0x985 JUMP JUMPDEST JUMPDEST POP POP POP JUMPDEST POP POP JUMPDEST PUSH2 0x23BA JUMP JUMPDEST PUSH0 DUP2 EQ PUSH2 0x23B9 JUMPI PUSH0 PUSH1 0xC DUP2 SWAP1 SSTORE POP JUMPDEST JUMPDEST POP POP SWAP3 SWAP2 POP POP JUMP JUMPDEST PUSH0 DUP1 DUP3 DUP5 PUSH2 0x23D0 SWAP2 SWAP1 PUSH2 0x2FFF JUMP JUMPDEST SWAP1 POP PUSH0 DUP4 EQ DUP1 PUSH2 0x23F8 JUMPI POP DUP4 DUP4 DUP5 DUP7 PUSH2 0x23E9 SWAP2 SWAP1 PUSH2 0x2FFF JUMP JUMPDEST SWAP3 POP DUP3 PUSH2 0x23F6 SWAP2 SWAP1 PUSH2 0x2CDA JUMP JUMPDEST EQ JUMPDEST PUSH2 0x2437 JUMPI PUSH1 0x40 MLOAD PUSH32 0x8C379A000000000000000000000000000000000000000000000000000000000 DUP2 MSTORE PUSH1 0x4 ADD PUSH2 0x242E SWAP1 PUSH2 0x3199 JUMP JUMPDEST PUSH1 0x40 MLOAD DUP1 SWAP2 SUB SWAP1 REVERT JUMPDEST DUP1 SWAP2 POP POP SWAP3 SWAP2 POP POP JUMP JUMPDEST PUSH0 PUSH1 0x3 DUP3 GT ISZERO PUSH2 0x24A6 JUMPI DUP2 SWAP1 POP PUSH0 PUSH1 0x1 PUSH1 0x2 DUP5 PUSH2 0x245E SWAP2 SWAP1 PUSH2 0x2CDA JUMP JUMPDEST PUSH2 0x2468 SWAP2 SWAP1 PUSH2 0x2B76 JUMP JUMPDEST SWAP1 POP JUMPDEST DUP2 DUP2 LT ISZERO PUSH2 0x24A0 JUMPI DUP1 SWAP2 POP PUSH1 0x2 DUP2 DUP3 DUP6 PUSH2 0x2485 SWAP2 SWAP1 PUSH2 0x2CDA JUMP JUMPDEST PUSH2 0x248F SWAP2 SWAP1 PUSH2 0x2B76 JUMP JUMPDEST PUSH2 0x2499 SWAP2 SWAP1 PUSH2 0x2CDA JUMP JUMPDEST SWAP1 POP PUSH2 0x246B JUMP JUMPDEST POP PUSH2 0x24B3 JUMP JUMPDEST PUSH0 DUP3 EQ PUSH2 0x24B2 JUMPI PUSH1 0x1 SWAP1 POP JUMPDEST JUMPDEST SWAP2 SWAP1 POP JUMP JUMPDEST PUSH0 DUP2 DUP4 LT PUSH2 0x24C6 JUMPI DUP2 PUSH2 0x24C8 JUMP JUMPDEST DUP3 JUMPDEST SWAP1 POP SWAP3 SWAP2 POP POP JUMP JUMPDEST PUSH0 DUP1 DUP3 DUP5 PUSH2 0x24DE SWAP2 SWAP1 PUSH2 0x2B76 JUMP JUMPDEST SWAP1 POP DUP4 DUP4 DUP6 PUSH2 0x24ED SWAP2 SWAP1 PUSH2 0x2B76 JUMP JUMPDEST SWAP2 POP DUP2 LT ISZERO PUSH2 0x2531 JUMPI PUSH1 0x40 MLOAD PUSH32 0x8C379A000000000000000000000000000000000000000000000000000000000 DUP2 MSTORE PUSH1 0x4 ADD PUSH2 0x2528 SWAP1 PUSH2 0x3201 JUMP JUMPDEST PUSH1 0x40 MLOAD DUP1 SWAP2 SUB SWAP1 REVERT JUMPDEST DUP1 SWAP2 POP POP SWAP3 SWAP2 POP POP JUMP JUMPDEST PUSH0 DUP2 MLOAD SWAP1 POP SWAP2 SWAP1 POP JUMP JUMPDEST PUSH0 DUP3 DUP3 MSTORE PUSH1 0x20 DUP3 ADD SWAP1 POP SWAP3 SWAP2 POP POP JUMP JUMPDEST PUSH0 JUMPDEST DUP4 DUP2 LT ISZERO PUSH2 0x2572 JUMPI DUP1 DUP3 ADD MLOAD DUP2 DUP5 ADD MSTORE PUSH1 0x20 DUP2 ADD SWAP1 POP PUSH2 0x2557 JUMP JUMPDEST PUSH0 DUP5 DUP5 ADD MSTORE POP POP POP POP JUMP JUMPDEST PUSH0 PUSH1 0x1F NOT PUSH1 0x1F DUP4 ADD AND SWAP1 POP SWAP2 SWAP1 POP JUMP JUMPDEST PUSH0 PUSH2 0x2597 DUP3 PUSH2 0x253B JUMP JUMPDEST PUSH2 0x25A1 DUP2 DUP6 PUSH2 0x2545 JUMP JUMPDEST SWAP4 POP PUSH2 0x25B1 DUP2 DUP6 PUSH1 0x20 DUP7 ADD PUSH2 0x2555 JUMP JUMPDEST PUSH2 0x25BA DUP2 PUSH2 0x257D JUMP JUMPDEST DUP5 ADD SWAP2 POP POP SWAP3 SWAP2 POP POP JUMP JUMPDEST PUSH0 PUSH1 0x20 DUP3 ADD SWAP1 POP DUP2 DUP2 SUB PUSH0 DUP4 ADD MSTORE PUSH2 0x25DD DUP2 DUP5 PUSH2 0x258D JUMP JUMPDEST SWAP1 POP SWAP3 SWAP2 POP POP JUMP JUMPDEST PUSH0 PUSH14 0xFFFFFFFFFFFFFFFFFFFFFFFFFFFF DUP3 AND SWAP1 POP SWAP2 SWAP1 POP JUMP JUMPDEST PUSH2 0x2607 DUP2 PUSH2 0x25E5 JUMP JUMPDEST DUP3 MSTORE POP POP JUMP JUMPDEST PUSH0 PUSH4 0xFFFFFFFF DUP3 AND SWAP1 POP SWAP2 SWAP1 POP JUMP JUMPDEST PUSH2 0x2625 DUP2 PUSH2 0x260D JUMP JUMPDEST DUP3 MSTORE POP POP JUMP JUMPDEST PUSH0 PUSH1 0x60 DUP3 ADD SWAP1 POP PUSH2 0x263E PUSH0 DUP4 ADD DUP7 PUSH2 0x25FE JUMP JUMPDEST PUSH2 0x264B PUSH1 0x20 DUP4 ADD DUP6 PUSH2 0x25FE JUMP JUMPDEST PUSH2 0x2658 PUSH1 0x40 DUP4 ADD DUP5 PUSH2 0x261C JUMP JUMPDEST SWAP5 SWAP4 POP POP POP POP JUMP JUMPDEST PUSH0 PUSH1 0x40 MLOAD SWAP1 POP SWAP1 JUMP JUMPDEST PUSH0 DUP1 REVERT JUMPDEST PUSH0 DUP1 REVERT JUMPDEST PUSH0 PUSH20 0xFFFFFFFFFFFFFFFFFFFFFFFFFFFFFFFFFFFFFFFF DUP3 AND SWAP1 POP SWAP2 SWAP1 POP JUMP JUMPDEST PUSH0 PUSH2 0x269A DUP3 PUSH2 0x2671 JUMP JUMPDEST SWAP1 POP SWAP2 SWAP1 POP JUMP JUMPDEST PUSH2 0x26AA DUP2 PUSH2 0x2690 JUMP JUMPDEST DUP2 EQ PUSH2 0x26B4 JUMPI PUSH0 DUP1 REVERT JUMPDEST POP JUMP JUMPDEST PUSH0 DUP2 CALLDATALOAD SWAP1 POP PUSH2 0x26C5 DUP2 PUSH2 0x26A1 JUMP JUMPDEST SWAP3 SWAP2 POP POP JUMP JUMPDEST PUSH0 DUP2 SWAP1 POP SWAP2 SWAP1 POP JUMP JUMPDEST PUSH2 0x26DD DUP2 PUSH2 0x26CB JUMP JUMPDEST DUP2 EQ PUSH2 0x26E7 JUMPI PUSH0 DUP1 REVERT JUMPDEST POP JUMP JUMPDEST PUSH0 DUP2 CALLDATALOAD SWAP1 POP PUSH2 0x26F8 DUP2 PUSH2 0x26D4 JUMP JUMPDEST SWAP3 SWAP2 POP POP JUMP JUMPDEST PUSH0 DUP1 PUSH1 0x40 DUP4 DUP6 SUB SLT ISZERO PUSH2 0x2714 JUMPI PUSH2 0x2713 PUSH2 0x2669 JUMP JUMPDEST JUMPDEST PUSH0 PUSH2 0x2721 DUP6 DUP3 DUP7 ADD PUSH2 0x26B7 JUMP JUMPDEST SWAP3 POP POP PUSH1 0x20 PUSH2 0x2732 DUP6 DUP3 DUP7 ADD PUSH2 0x26EA JUMP JUMPDEST SWAP2 POP POP SWAP3 POP SWAP3 SWAP1 POP JUMP JUMPDEST PUSH0 DUP2 ISZERO ISZERO SWAP1 POP SWAP2 SWAP1 POP JUMP JUMPDEST PUSH2 0x2750 DUP2 PUSH2 0x273C JUMP JUMPDEST DUP3 MSTORE POP POP JUMP JUMPDEST PUSH0 PUSH1 0x20 DUP3 ADD SWAP1 POP PUSH2 0x2769 PUSH0 DUP4 ADD DUP5 PUSH2 0x2747 JUMP JUMPDEST SWAP3 SWAP2 POP POP JUMP JUMPDEST PUSH2 0x2778 DUP2 PUSH2 0x2690 JUMP JUMPDEST DUP3 MSTORE POP POP JUMP JUMPDEST PUSH0 PUSH1 0x20 DUP3 ADD SWAP1 POP PUSH2 0x2791 PUSH0 DUP4 ADD DUP5 PUSH2 0x276F JUMP JUMPDEST SWAP3 SWAP2 POP POP JUMP JUMPDEST PUSH2 0x27A0 DUP2 PUSH2 0x26CB JUMP JUMPDEST DUP3 MSTORE POP POP JUMP JUMPDEST PUSH0 PUSH1 0x20 DUP3 ADD SWAP1 POP PUSH2 0x27B9 PUSH0 DUP4 ADD DUP5 PUSH2 0x2797 JUMP JUMPDEST SWAP3 SWAP2 POP POP JUMP JUMPDEST PUSH0 DUP1 PUSH0 PUSH1 0x60 DUP5 DUP7 SUB SLT ISZERO PUSH2 0x27D6 JUMPI PUSH2 0x27D5 PUSH2 0x2669 JUMP JUMPDEST JUMPDEST PUSH0 PUSH2 0x27E3 DUP7 DUP3 DUP8 ADD PUSH2 0x26B7 JUMP JUMPDEST SWAP4 POP POP PUSH1 0x20 PUSH2 0x27F4 DUP7 DUP3 DUP8 ADD PUSH2 0x26B7 JUMP JUMPDEST SWAP3 POP POP PUSH1 0x40 PUSH2 0x2805 DUP7 DUP3 DUP8 ADD PUSH2 0x26EA JUMP JUMPDEST SWAP2 POP POP SWAP3 POP SWAP3 POP SWAP3 JUMP JUMPDEST PUSH0 PUSH1 0x20 DUP3 DUP5 SUB SLT ISZERO PUSH2 0x2824 JUMPI PUSH2 0x2823 PUSH2 0x2669 JUMP JUMPDEST JUMPDEST PUSH0 PUSH2 0x2831 DUP5 DUP3 DUP6 ADD PUSH2 0x26B7 JUMP JUMPDEST SWAP2 POP POP SWAP3 SWAP2 POP POP JUMP JUMPDEST PUSH0 DUP1 PUSH1 0x40 DUP4 DUP6 SUB SLT ISZERO PUSH2 0x2850 JUMPI PUSH2 0x284F PUSH2 0x2669 JUMP JUMPDEST JUMPDEST PUSH0 PUSH2 0x285D DUP6 DUP3 DUP7 ADD PUSH2 0x26B7 JUMP JUMPDEST SWAP3 POP POP PUSH1 0x20 PUSH2 0x286E DUP6 DUP3 DUP7 ADD PUSH2 0x26B7 JUMP JUMPDEST SWAP2 POP POP SWAP3 POP SWAP3 SWAP1 POP JUMP JUMPDEST PUSH0 DUP1 REVERT JUMPDEST PUSH0 DUP1 REVERT JUMPDEST PUSH32 0x4E487B7100000000000000000000000000000000000000000000000000000000 PUSH0 MSTORE PUSH1 0x41 PUSH1 0x4 MSTORE PUSH1 0x24 PUSH0 REVERT JUMPDEST PUSH2 0x28B6 DUP3 PUSH2 0x257D JUMP JUMPDEST DUP2 ADD DUP2 DUP2 LT PUSH8 0xFFFFFFFFFFFFFFFF DUP3 GT OR ISZERO PUSH2 0x28D5 JUMPI PUSH2 0x28D4 PUSH2 0x2880 JUMP JUMPDEST JUMPDEST DUP1 PUSH1 0x40 MSTORE POP POP POP JUMP JUMPDEST PUSH0 PUSH2 0x28E7 PUSH2 0x2660 JUMP JUMPDEST SWAP1 POP PUSH2 0x28F3 DUP3 DUP3 PUSH2 0x28AD JUMP JUMPDEST SWAP2 SWAP1 POP JUMP JUMPDEST PUSH0 PUSH8 0xFFFFFFFFFFFFFFFF DUP3 GT ISZERO PUSH2 0x2912 JUMPI PUSH2 0x2911 PUSH2 0x2880 JUMP JUMPDEST JUMPDEST PUSH2 0x291B DUP3 PUSH2 0x257D JUMP JUMPDEST SWAP1 POP PUSH1 0x20 DUP2 ADD SWAP1 POP SWAP2 SWAP1 POP JUMP JUMPDEST DUP3 DUP2 DUP4 CALLDATACOPY PUSH0 DUP4 DUP4 ADD MSTORE POP POP POP JUMP JUMPDEST PUSH0 PUSH2 0x2948 PUSH2 0x2943 DUP5 PUSH2 0x28F8 JUMP JUMPDEST PUSH2 0x28DE JUMP JUMPDEST SWAP1 POP DUP3 DUP2 MSTORE PUSH1 0x20 DUP2 ADD DUP5 DUP5 DUP5 ADD GT ISZERO PUSH2 0x2964 JUMPI PUSH2 0x2963 PUSH2 0x287C JUMP JUMPDEST JUMPDEST PUSH2 0x296F DUP5 DUP3 DUP6 PUSH2 0x2928 JUMP JUMPDEST POP SWAP4 SWAP3 POP POP POP JUMP JUMPDEST PUSH0 DUP3 PUSH1 0x1F DUP4 ADD SLT PUSH2 0x298B JUMPI PUSH2 0x298A PUSH2 0x2878 JUMP JUMPDEST JUMPDEST DUP2 CALLDATALOAD PUSH2 0x299B DUP5 DUP3 PUSH1 0x20 DUP7 ADD PUSH2 0x2936 JUMP JUMPDEST SWAP2 POP POP SWAP3 SWAP2 POP POP JUMP JUMPDEST PUSH0 PUSH1 0x20 DUP3 DUP5 SUB SLT ISZERO PUSH2 0x29B9 JUMPI PUSH2 0x29B8 PUSH2 0x2669 JUMP JUMPDEST JUMPDEST PUSH0 DUP3 ADD CALLDATALOAD PUSH8 0xFFFFFFFFFFFFFFFF DUP2 GT ISZERO PUSH2 0x29D6 JUMPI PUSH2 0x29D5 PUSH2 0x266D JUMP JUMPDEST JUMPDEST PUSH2 0x29E2 DUP5 DUP3 DUP6 ADD PUSH2 0x2977 JUMP JUMPDEST SWAP2 POP POP SWAP3 SWAP2 POP POP JUMP JUMPDEST PUSH2 0x29F4 DUP2 PUSH2 0x25E5 JUMP JUMPDEST DUP2 EQ PUSH2 0x29FE JUMPI PUSH0 DUP1 REVERT JUMPDEST POP JUMP JUMPDEST PUSH0 DUP2 CALLDATALOAD SWAP1 POP PUSH2 0x2A0F DUP2 PUSH2 0x29EB JUMP JUMPDEST SWAP3 SWAP2 POP POP JUMP JUMPDEST PUSH0 DUP1 PUSH0 DUP1 PUSH1 0x80 DUP6 DUP8 SUB SLT ISZERO PUSH2 0x2A2D JUMPI PUSH2 0x2A2C PUSH2 0x2669 JUMP JUMPDEST JUMPDEST PUSH0 PUSH2 0x2A3A DUP8 DUP3 DUP9 ADD PUSH2 0x26EA JUMP JUMPDEST SWAP5 POP POP PUSH1 0x20 PUSH2 0x2A4B DUP8 DUP3 DUP9 ADD PUSH2 0x26EA JUMP JUMPDEST SWAP4 POP POP PUSH1 0x40 PUSH2 0x2A5C DUP8 DUP3 DUP9 ADD PUSH2 0x2A01 JUMP JUMPDEST SWAP3 POP POP PUSH1 0x60 PUSH2 0x2A6D DUP8 DUP3 DUP9 ADD PUSH2 0x2A01 JUMP JUMPDEST SWAP2 POP POP SWAP3 SWAP6 SWAP2 SWAP5 POP SWAP3 POP JUMP JUMPDEST PUSH0 PUSH1 0x20 DUP3 ADD SWAP1 POP PUSH2 0x2A8C PUSH0 DUP4 ADD DUP5 PUSH2 0x261C JUMP JUMPDEST SWAP3 SWAP2 POP POP JUMP JUMPDEST PUSH0 PUSH1 0x40 DUP3 ADD SWAP1 POP PUSH2 0x2AA5 PUSH0 DUP4 ADD DUP6 PUSH2 0x2797 JUMP JUMPDEST PUSH2 0x2AB2 PUSH1 0x20 DUP4 ADD DUP5 PUSH2 0x2797 JUMP JUMPDEST SWAP4 SWAP3 POP POP POP JUMP JUMPDEST PUSH32 0x4E487B7100000000000000000000000000000000000000000000000000000000 PUSH0 MSTORE PUSH1 0x22 PUSH1 0x4 MSTORE PUSH1 0x24 PUSH0 REVERT JUMPDEST PUSH0 PUSH1 0x2 DUP3 DIV SWAP1 POP PUSH1 0x1 DUP3 AND DUP1 PUSH2 0x2AFD JUMPI PUSH1 0x7F DUP3 AND SWAP2 POP JUMPDEST PUSH1 0x20 DUP3 LT DUP2 SUB PUSH2 0x2B10 JUMPI PUSH2 0x2B0F PUSH2 0x2AB9 JUMP JUMPDEST JUMPDEST POP SWAP2 SWAP1 POP JUMP JUMPDEST PUSH32 0x4E487B7100000000000000000000000000000000000000000000000000000000 PUSH0 MSTORE PUSH1 0x11 PUSH1 0x4 MSTORE PUSH1 0x24 PUSH0 REVERT JUMPDEST PUSH0 PUSH2 0x2B4D DUP3 PUSH2 0x26CB JUMP JUMPDEST SWAP2 POP PUSH2 0x2B58 DUP4 PUSH2 0x26CB JUMP JUMPDEST SWAP3 POP DUP3 DUP3 SUB SWAP1 POP DUP2 DUP2 GT ISZERO PUSH2 0x2B70 JUMPI PUSH2 0x2B6F PUSH2 0x2B16 JUMP JUMPDEST JUMPDEST SWAP3 SWAP2 POP POP JUMP JUMPDEST PUSH0 PUSH2 0x2B80 DUP3 PUSH2 0x26CB JUMP JUMPDEST SWAP2 POP PUSH2 0x2B8B DUP4 PUSH2 0x26CB JUMP JUMPDEST SWAP3 POP DUP3 DUP3 ADD SWAP1 POP DUP1 DUP3 GT ISZERO PUSH2 0x2BA3 JUMPI PUSH2 0x2BA2 PUSH2 0x2B16 JUMP JUMPDEST JUMPDEST SWAP3 SWAP2 POP POP JUMP JUMPDEST PUSH0 DUP2 SWAP1 POP SWAP3 SWAP2 POP POP JUMP JUMPDEST PUSH0 PUSH2 0x2BBD DUP3 PUSH2 0x253B JUMP JUMPDEST PUSH2 0x2BC7 DUP2 DUP6 PUSH2 0x2BA9 JUMP JUMPDEST SWAP4 POP PUSH2 0x2BD7 DUP2 DUP6 PUSH1 0x20 DUP7 ADD PUSH2 0x2555 JUMP JUMPDEST DUP1 DUP5 ADD SWAP2 POP POP SWAP3 SWAP2 POP POP JUMP JUMPDEST PUSH0 PUSH2 0x2BEE DUP3 DUP6 PUSH2 0x2BB3 JUMP JUMPDEST SWAP2 POP PUSH2 0x2BFA DUP3 DUP5 PUSH2 0x2BB3 JUMP JUMPDEST SWAP2 POP DUP2 SWAP1 POP SWAP4 SWAP3 POP POP POP JUMP JUMPDEST PUSH32 0x4C4F434B45440000000000000000000000000000000000000000000000000000 PUSH0 DUP3 ADD MSTORE POP JUMP JUMPDEST PUSH0 PUSH2 0x2C3A PUSH1 0x6 DUP4 PUSH2 0x2545 JUMP JUMPDEST SWAP2 POP PUSH2 0x2C45 DUP3 PUSH2 0x2C06 JUMP JUMPDEST PUSH1 0x20 DUP3 ADD SWAP1 POP SWAP2 SWAP1 POP JUMP JUMPDEST PUSH0 PUSH1 0x20 DUP3 ADD SWAP1 POP DUP2 DUP2 SUB PUSH0 DUP4 ADD MSTORE PUSH2 0x2C67 DUP2 PUSH2 0x2C2E JUMP JUMPDEST SWAP1 POP SWAP2 SWAP1 POP JUMP JUMPDEST PUSH0 DUP2 MLOAD SWAP1 POP PUSH2 0x2C7C DUP2 PUSH2 0x26D4 JUMP JUMPDEST SWAP3 SWAP2 POP POP JUMP JUMPDEST PUSH0 PUSH1 0x20 DUP3 DUP5 SUB SLT ISZERO PUSH2 0x2C97 JUMPI PUSH2 0x2C96 PUSH2 0x2669 JUMP JUMPDEST JUMPDEST PUSH0 PUSH2 0x2CA4 DUP5 DUP3 DUP6 ADD PUSH2 0x2C6E JUMP JUMPDEST SWAP2 POP POP SWAP3 SWAP2 POP POP JUMP JUMPDEST PUSH32 0x4E487B7100000000000000000000000000000000000000000000000000000000 PUSH0 MSTORE PUSH1 0x12 PUSH1 0x4 MSTORE PUSH1 0x24 PUSH0 REVERT JUMPDEST PUSH0 PUSH2 0x2CE4 DUP3 PUSH2 0x26CB JUMP JUMPDEST SWAP2 POP PUSH2 0x2CEF DUP4 PUSH2 0x26CB JUMP JUMPDEST SWAP3 POP DUP3 PUSH2 0x2CFF JUMPI PUSH2 0x2CFE PUSH2 0x2CAD JUMP JUMPDEST JUMPDEST DUP3 DUP3 DIV SWAP1 POP SWAP3 SWAP2 POP POP JUMP JUMPDEST PUSH32 0x494E53554646494349454E545F4C49515549444954595F4D494E544544000000 PUSH0 DUP3 ADD MSTORE POP JUMP JUMPDEST PUSH0 PUSH2 0x2D3E PUSH1 0x1D DUP4 PUSH2 0x2545 JUMP JUMPDEST SWAP2 POP PUSH2 0x2D49 DUP3 PUSH2 0x2D0A JUMP JUMPDEST PUSH1 0x20 DUP3 ADD SWAP1 POP SWAP2 SWAP1 POP JUMP JUMPDEST PUSH0 PUSH1 0x20 DUP3 ADD SWAP1 POP DUP2 DUP2 SUB PUSH0 DUP4 ADD MSTORE PUSH2 0x2D6B DUP2 PUSH2 0x2D32 JUMP JUMPDEST SWAP1 POP SWAP2 SWAP1 POP JUMP JUMPDEST PUSH0 PUSH1 0x40 DUP3 ADD SWAP1 POP PUSH2 0x2D85 PUSH0 DUP4 ADD DUP6 PUSH2 0x276F JUMP JUMPDEST PUSH2 0x2D92 PUSH1 0x20 DUP4 ADD DUP5 PUSH2 0x276F JUMP JUMPDEST SWAP4 SWAP3 POP POP POP JUMP JUMPDEST PUSH0 DUP1 PUSH1 0x40 DUP4 DUP6 SUB SLT ISZERO PUSH2 0x2DAF JUMPI PUSH2 0x2DAE PUSH2 0x2669 JUMP JUMPDEST JUMPDEST PUSH0 PUSH2 0x2DBC DUP6 DUP3 DUP7 ADD PUSH2 0x2C6E JUMP JUMPDEST SWAP3 POP POP PUSH1 0x20 PUSH2 0x2DCD DUP6 DUP3 DUP7 ADD PUSH2 0x2C6E JUMP JUMPDEST SWAP2 POP POP SWAP3 POP SWAP3 SWAP1 POP JUMP JUMPDEST PUSH32 0x4E6F206665657320746F20636C61696D00000000000000000000000000000000 PUSH0 DUP3 ADD MSTORE POP JUMP JUMPDEST PUSH0 PUSH2 0x2E0B PUSH1 0x10 DUP4 PUSH2 0x2545 JUMP JUMPDEST SWAP2 POP PUSH2 0x2E16 DUP3 PUSH2 0x2DD7 JUMP JUMPDEST PUSH1 0x20 DUP3 ADD SWAP1 POP SWAP2 SWAP1 POP JUMP JUMPDEST PUSH0 PUSH1 0x20 DUP3 ADD SWAP1 POP DUP2 DUP2 SUB PUSH0 DUP4 ADD MSTORE PUSH2 0x2E38 DUP2 PUSH2 0x2DFF JUMP JUMPDEST SWAP1 POP SWAP2 SWAP1 POP JUMP JUMPDEST PUSH0 PUSH1 0x40 DUP3 ADD SWAP1 POP PUSH2 0x2E52 PUSH0 DUP4 ADD DUP6 PUSH2 0x276F JUMP JUMPDEST PUSH2 0x2E5F PUSH1 0x20 DUP4 ADD DUP5 PUSH2 0x2797 JUMP JUMPDEST SWAP4 SWAP3 POP POP POP JUMP JUMPDEST PUSH2 0x2E6F DUP2 PUSH2 0x273C JUMP JUMPDEST DUP2 EQ PUSH2 0x2E79 JUMPI PUSH0 DUP1 REVERT JUMPDEST POP JUMP JUMPDEST PUSH0 DUP2 MLOAD SWAP1 POP PUSH2 0x2E8A DUP2 PUSH2 0x2E66 JUMP JUMPDEST SWAP3 SWAP2 POP POP JUMP JUMPDEST PUSH0 PUSH1 0x20 DUP3 DUP5 SUB SLT ISZERO PUSH2 0x2EA5 JUMPI PUSH2 0x2EA4 PUSH2 0x2669 JUMP JUMPDEST JUMPDEST PUSH0 PUSH2 0x2EB2 DUP5 DUP3 DUP6 ADD PUSH2 0x2E7C JUMP JUMPDEST SWAP2 POP POP SWAP3 SWAP2 POP POP JUMP JUMPDEST PUSH0 DUP2 SWAP1 POP SWAP2 SWAP1 POP JUMP JUMPDEST PUSH0 DUP2 SWAP1 POP SWAP2 SWAP1 POP JUMP JUMPDEST PUSH0 PUSH2 0x2EE7 PUSH2 0x2EE2 PUSH2 0x2EDD DUP5 PUSH2 0x2EBB JUMP JUMPDEST PUSH2 0x2EC4 JUMP JUMPDEST PUSH2 0x26CB JUMP JUMPDEST SWAP1 POP SWAP2 SWAP1 POP JUMP JUMPDEST PUSH2 0x2EF7 DUP2 PUSH2 0x2ECD JUMP JUMPDEST DUP3 MSTORE POP POP JUMP JUMPDEST PUSH0 PUSH1 0x80 DUP3 ADD SWAP1 POP PUSH2 0x2F10 PUSH0 DUP4 ADD DUP8 PUSH2 0x276F JUMP JUMPDEST PUSH2 0x2F1D PUSH1 0x20 DUP4 ADD DUP7 PUSH2 0x276F JUMP JUMPDEST PUSH2 0x2F2A PUSH1 0x40 DUP4 ADD DUP6 PUSH2 0x2EEE JUMP JUMPDEST PUSH2 0x2F37 PUSH1 0x60 DUP4 ADD DUP5 PUSH2 0x2EEE JUMP JUMPDEST SWAP6 SWAP5 POP POP POP POP POP JUMP JUMPDEST PUSH32 0x4F564552464C4F57000000000000000000000000000000000000000000000000 PUSH0 DUP3 ADD MSTORE POP JUMP JUMPDEST PUSH0 PUSH2 0x2F74 PUSH1 0x8 DUP4 PUSH2 0x2545 JUMP JUMPDEST SWAP2 POP PUSH2 0x2F7F DUP3 PUSH2 0x2F40 JUMP JUMPDEST PUSH1 0x20 DUP3 ADD SWAP1 POP SWAP2 SWAP1 POP JUMP JUMPDEST PUSH0 PUSH1 0x20 DUP3 ADD SWAP1 POP DUP2 DUP2 SUB PUSH0 DUP4 ADD MSTORE PUSH2 0x2FA1 DUP2 PUSH2 0x2F68 JUMP JUMPDEST SWAP1 POP SWAP2 SWAP1 POP JUMP JUMPDEST PUSH0 PUSH2 0x2FB2 DUP3 PUSH2 0x26CB JUMP JUMPDEST SWAP2 POP PUSH2 0x2FBD DUP4 PUSH2 0x26CB JUMP JUMPDEST SWAP3 POP DUP3 PUSH2 0x2FCD JUMPI PUSH2 0x2FCC PUSH2 0x2CAD JUMP JUMPDEST JUMPDEST DUP3 DUP3 MOD SWAP1 POP SWAP3 SWAP2 POP POP JUMP JUMPDEST PUSH0 PUSH1 0x40 DUP3 ADD SWAP1 POP PUSH2 0x2FEB PUSH0 DUP4 ADD DUP6 PUSH2 0x25FE JUMP JUMPDEST PUSH2 0x2FF8 PUSH1 0x20 DUP4 ADD DUP5 PUSH2 0x25FE JUMP JUMPDEST SWAP4 SWAP3 POP POP POP JUMP JUMPDEST PUSH0 PUSH2 0x3009 DUP3 PUSH2 0x26CB JUMP JUMPDEST SWAP2 POP PUSH2 0x3014 DUP4 PUSH2 0x26CB JUMP JUMPDEST SWAP3 POP DUP3 DUP3 MUL PUSH2 0x3022 DUP2 PUSH2 0x26CB JUMP JUMPDEST SWAP2 POP DUP3 DUP3 DIV DUP5 EQ DUP4 ISZERO OR PUSH2 0x3039 JUMPI PUSH2 0x3038 PUSH2 0x2B16 JUMP JUMPDEST JUMPDEST POP SWAP3 SWAP2 POP POP JUMP JUMPDEST PUSH32 0x494E53554646494349454E545F4C49515549444954595F4255524E4544000000 PUSH0 DUP3 ADD MSTORE POP JUMP JUMPDEST PUSH0 PUSH2 0x3074 PUSH1 0x1D DUP4 PUSH2 0x2545 JUMP JUMPDEST SWAP2 POP PUSH2 0x307F DUP3 PUSH2 0x3040 JUMP JUMPDEST PUSH1 0x20 DUP3 ADD SWAP1 POP SWAP2 SWAP1 POP JUMP JUMPDEST PUSH0 PUSH1 0x20 DUP3 ADD SWAP1 POP DUP2 DUP2 SUB PUSH0 DUP4 ADD MSTORE PUSH2 0x30A1 DUP2 PUSH2 0x3068 JUMP JUMPDEST SWAP1 POP SWAP2 SWAP1 POP JUMP JUMPDEST PUSH32 0x64732D6D6174682D7375622D756E646572666C6F770000000000000000000000 PUSH0 DUP3 ADD MSTORE POP JUMP JUMPDEST PUSH0 PUSH2 0x30DC PUSH1 0x15 DUP4 PUSH2 0x2545 JUMP JUMPDEST SWAP2 POP PUSH2 0x30E7 DUP3 PUSH2 0x30A8 JUMP JUMPDEST PUSH1 0x20 DUP3 ADD SWAP1 POP SWAP2 SWAP1 POP JUMP JUMPDEST PUSH0 PUSH1 0x20 DUP3 ADD SWAP1 POP DUP2 DUP2 SUB PUSH0 DUP4 ADD MSTORE PUSH2 0x3109 DUP2 PUSH2 0x30D0 JUMP JUMPDEST SWAP1 POP SWAP2 SWAP1 POP JUMP JUMPDEST PUSH0 DUP2 MLOAD SWAP1 POP PUSH2 0x311E DUP2 PUSH2 0x26A1 JUMP JUMPDEST SWAP3 SWAP2 POP POP JUMP JUMPDEST PUSH0 PUSH1 0x20 DUP3 DUP5 SUB SLT ISZERO PUSH2 0x3139 JUMPI PUSH2 0x3138 PUSH2 0x2669 JUMP JUMPDEST JUMPDEST PUSH0 PUSH2 0x3146 DUP5 DUP3 DUP6 ADD PUSH2 0x3110 JUMP JUMPDEST SWAP2 POP POP SWAP3 SWAP2 POP POP JUMP JUMPDEST PUSH32 0x64732D6D6174682D6D756C2D6F766572666C6F77000000000000000000000000 PUSH0 DUP3 ADD MSTORE POP JUMP JUMPDEST PUSH0 PUSH2 0x3183 PUSH1 0x14 DUP4 PUSH2 0x2545 JUMP JUMPDEST SWAP2 POP PUSH2 0x318E DUP3 PUSH2 0x314F JUMP JUMPDEST PUSH1 0x20 DUP3 ADD SWAP1 POP SWAP2 SWAP1 POP JUMP JUMPDEST PUSH0 PUSH1 0x20 DUP3 ADD SWAP1 POP DUP2 DUP2 SUB PUSH0 DUP4 ADD MSTORE PUSH2 0x31B0 DUP2 PUSH2 0x3177 JUMP JUMPDEST SWAP1 POP SWAP2 SWAP1 POP JUMP JUMPDEST PUSH32 0x64732D6D6174682D6164642D6F766572666C6F77000000000000000000000000 PUSH0 DUP3 ADD MSTORE POP JUMP JUMPDEST PUSH0 PUSH2 0x31EB PUSH1 0x14 DUP4 PUSH2 0x2545 JUMP JUMPDEST SWAP2 POP PUSH2 0x31F6 DUP3 PUSH2 0x31B7 JUMP JUMPDEST PUSH1 0x20 DUP3 ADD SWAP1 POP SWAP2 SWAP1 POP JUMP JUMPDEST PUSH0 PUSH1 0x20 DUP3 ADD SWAP1 POP DUP2 DUP2 SUB PUSH0 DUP4 ADD MSTORE PUSH2 0x3218 DUP2 PUSH2 0x31DF JUMP JUMPDEST SWAP1 POP SWAP2 SWAP1 POP JUMP INVALID PUSH9 0x747470733A2F2F6372 PUSH10 0x6D736F6E2D67656E6572 PUSH16 0x75732D616E742D3339352E6D7970696E PUSH2 0x7461 0x2E PUSH4 0x6C6F7564 0x2F PUSH10 0x7066732FA26469706673 PC 0x22 SLT KECCAK256 0xC0 0xA7 PUSH15 0x159949AFD94D6CBFB19283A22B218C SSTORE MSIZE SHL MSTORE 0xAB 0x21 CREATE2 LOG2 INVALID 0xB5 0x28 ISZERO 0x21 0xA5 PUSH5 0x736F6C6343 STOP ADDMOD OR STOP CALLER PUSH9 0x747470733A2F2F6372 PUSH10 0x6D736F6E2D67656E6572 PUSH16 0x75732D616E742D3339352E6D7970696E PUSH2 0x7461 0x2E PUSH4 0x6C6F7564 0x2F PUSH10 0x7066732FA26469706673 PC 0x22 SLT KECCAK256 DIV CALL 0x2B CALLCODE SLOAD 0xC6 LOG4 0xBF 0xD DUP3 0xD6 RETURN SWAP1 MSIZE DUP4 0xA7 0xF6 0xE1 PUSH4 0x8652F0CF SSTORE MUL EQ 0xD7 0xC3 0xE0 SMOD 0xD1 0xEB PUSH5 0x736F6C6343 STOP ADDMOD OR STOP CALLER "
		},
		"gasEstimates": {
			"creation": {
				"codeDepositCost": "4350600",
				"executionCost": "infinite",
				"totalCost": "infinite"
			},
			"external": {
				"createPair(address,address)": "infinite",
				"feeTo()": "2531",
				"getCreationCode()": "infinite",
				"getPairAddress(address,address)": "infinite",
				"setFeeTo(address)": "26950",
				"setFeeToSetter(address)": "26884",
				"setValidatorPoolArr(address,address)": "infinite"
			}
		},
		"methodIdentifiers": {
			"createPair(address,address)": "c9c65396",
			"feeTo()": "017e7e58",
			"getCreationCode()": "00c194db",
			"getPairAddress(address,address)": "b4f69a2f",
			"setFeeTo(address)": "f46901ed",
			"setFeeToSetter(address)": "a2e74af6",
			"setValidatorPoolArr(address,address)": "36994290"
		}
	},
	"abi": [
		{
			"inputs": [
				{
					"internalType": "address",
					"name": "_dataAddress",
					"type": "address"
				},
				{
					"internalType": "address",
					"name": "_feeToSetter",
					"type": "address"
				}
			],
			"stateMutability": "nonpayable",
			"type": "constructor"
		},
		{
			"anonymous": false,
			"inputs": [
				{
					"indexed": true,
					"internalType": "address",
					"name": "token0",
					"type": "address"
				},
				{
					"indexed": true,
					"internalType": "address",
					"name": "token1",
					"type": "address"
				},
				{
					"indexed": false,
					"internalType": "address",
					"name": "pair",
					"type": "address"
				},
				{
					"indexed": false,
					"internalType": "uint256",
					"name": "",
					"type": "uint256"
				}
			],
			"name": "PairCreated",
			"type": "event"
		},
		{
			"inputs": [
				{
					"internalType": "address",
					"name": "tokenA",
					"type": "address"
				},
				{
					"internalType": "address",
					"name": "tokenB",
					"type": "address"
				}
			],
			"name": "createPair",
			"outputs": [
				{
					"internalType": "bool",
					"name": "",
					"type": "bool"
				}
			],
			"stateMutability": "nonpayable",
			"type": "function"
		},
		{
			"inputs": [],
			"name": "feeTo",
			"outputs": [
				{
					"internalType": "address",
					"name": "",
					"type": "address"
				}
			],
			"stateMutability": "view",
			"type": "function"
		},
		{
			"inputs": [],
			"name": "getCreationCode",
			"outputs": [
				{
					"internalType": "bytes",
					"name": "",
					"type": "bytes"
				}
			],
			"stateMutability": "pure",
			"type": "function"
		},
		{
			"inputs": [
				{
					"internalType": "address",
					"name": "tokenA",
					"type": "address"
				},
				{
					"internalType": "address",
					"name": "tokenB",
					"type": "address"
				}
			],
			"name": "getPairAddress",
			"outputs": [
				{
					"internalType": "address",
					"name": "",
					"type": "address"
				}
			],
			"stateMutability": "nonpayable",
			"type": "function"
		},
		{
			"inputs": [
				{
					"internalType": "address",
					"name": "_feeTo",
					"type": "address"
				}
			],
			"name": "setFeeTo",
			"outputs": [],
			"stateMutability": "nonpayable",
			"type": "function"
		},
		{
			"inputs": [
				{
					"internalType": "address",
					"name": "_feeToSetter",
					"type": "address"
				}
			],
			"name": "setFeeToSetter",
			"outputs": [],
			"stateMutability": "nonpayable",
			"type": "function"
		},
		{
			"inputs": [
				{
					"internalType": "address",
					"name": "tokenA",
					"type": "address"
				},
				{
					"internalType": "address",
					"name": "tokenB",
					"type": "address"
				}
			],
			"name": "setValidatorPoolArr",
			"outputs": [
				{
					"internalType": "bool",
					"name": "",
					"type": "bool"
				}
			],
			"stateMutability": "nonpayable",
			"type": "function"
		}
	]
}