{
	"data": {
		"bytecode": {
			"linkReferences": {},
			"object": "60806040523480156200001157600080fd5b5060405162005e1438038062005e1483398181016040528101906200003791906200016b565b80600360006101000a81548173ffffffffffffffffffffffffffffffffffffffff021916908373ffffffffffffffffffffffffffffffffffffffff16021790555081600160006101000a81548173ffffffffffffffffffffffffffffffffffffffff021916908373ffffffffffffffffffffffffffffffffffffffff160217905550816000806101000a81548173ffffffffffffffffffffffffffffffffffffffff021916908373ffffffffffffffffffffffffffffffffffffffff1602179055505050620001b2565b600080fd5b600073ffffffffffffffffffffffffffffffffffffffff82169050919050565b6000620001338262000106565b9050919050565b620001458162000126565b81146200015157600080fd5b50565b60008151905062000165816200013a565b92915050565b6000806040838503121562000185576200018462000101565b5b6000620001958582860162000154565b9250506020620001a88582860162000154565b9150509250929050565b615c5280620001c26000396000f3fe60806040523480156200001157600080fd5b5060043610620000875760003560e01c8063a2e74af61162000063578063a2e74af61462000106578063b4f69a2f1462000126578063c9c65396146200015c578063f46901ed14620001925762000087565b8062c194db146200008c578063017e7e5814620000ae57806398eac00914620000d0575b600080fd5b62000096620001b2565b604051620000a5919062001310565b60405180910390f35b620000b8620001df565b604051620000c7919062001379565b60405180910390f35b620000ee6004803603810190620000e89190620013db565b62000205565b604051620000fd919062001454565b60405180910390f35b6200012460048036038101906200011e919062001471565b6200050e565b005b6200014460048036038101906200013e9190620014a3565b620005e5565b60405162000153919062001379565b60405180910390f35b6200017a6004803603810190620001749190620014a3565b6200068c565b60405162000189919062001454565b60405180910390f35b620001b06004803603810190620001aa919062001471565b62000f60565b005b606060405180602001620001c6906200125c565b6020820181038252601f19601f82011660405250905090565b600260009054906101000a900473ffffffffffffffffffffffffffffffffffffffff1681565b600080600460008573ffffffffffffffffffffffffffffffffffffffff1673ffffffffffffffffffffffffffffffffffffffff16815260200190815260200160002060008473ffffffffffffffffffffffffffffffffffffffff1673ffffffffffffffffffffffffffffffffffffffff16815260200190815260200160002060009054906101000a900473ffffffffffffffffffffffffffffffffffffffff1690506000805b60008054906101000a900473ffffffffffffffffffffffffffffffffffffffff1673ffffffffffffffffffffffffffffffffffffffff1663aa34735b886040518263ffffffff1660e01b815260040162000306919062001379565b602060405180830381865afa15801562000324573d6000803e3d6000fd5b505050506040513d601f19601f820116820180604052508101906200034a919062001525565b8110156200045d578273ffffffffffffffffffffffffffffffffffffffff1660008054906101000a900473ffffffffffffffffffffffffffffffffffffffff1673ffffffffffffffffffffffffffffffffffffffff16634ae03b00896040518263ffffffff1660e01b8152600401620003c4919062001379565b600060405180830381865afa158015620003e2573d6000803e3d6000fd5b505050506040513d6000823e3d601f19601f820116820180604052508101906200040d9190620016d2565b828151811062000422576200042162001723565b5b602002602001015173ffffffffffffffffffffffffffffffffffffffff1603156200045d578080620004549062001781565b915050620002ab565b5060001515811515146200047057600080fd5b60008054906101000a900473ffffffffffffffffffffffffffffffffffffffff1673ffffffffffffffffffffffffffffffffffffffff16630cd8eb6233846040518363ffffffff1660e01b8152600401620004cd929190620017ce565b600060405180830381600087803b158015620004e857600080fd5b505af1158015620004fd573d6000803e3d6000fd5b505050506001925050509392505050565b600360009054906101000a900473ffffffffffffffffffffffffffffffffffffffff1673ffffffffffffffffffffffffffffffffffffffff163373ffffffffffffffffffffffffffffffffffffffff1614620005a1576040517f08c379a000000000000000000000000000000000000000000000000000000000815260040162000598906200185c565b60405180910390fd5b80600360006101000a81548173ffffffffffffffffffffffffffffffffffffffff021916908373ffffffffffffffffffffffffffffffffffffffff16021790555050565b6000600460008473ffffffffffffffffffffffffffffffffffffffff1673ffffffffffffffffffffffffffffffffffffffff16815260200190815260200160002060008373ffffffffffffffffffffffffffffffffffffffff1673ffffffffffffffffffffffffffffffffffffffff16815260200190815260200160002060009054906101000a900473ffffffffffffffffffffffffffffffffffffffff16905092915050565b60006200069a838362001037565b8173ffffffffffffffffffffffffffffffffffffffff168373ffffffffffffffffffffffffffffffffffffffff16036200070b576040517f08c379a00000000000000000000000000000000000000000000000000000000081526004016200070290620018ce565b60405180910390fd5b6200074b6040518060400160405280600f81526020017f646966666572656e7420746f6b656e0000000000000000000000000000000000815250620010d7565b6000808373ffffffffffffffffffffffffffffffffffffffff168573ffffffffffffffffffffffffffffffffffffffff16106200078a5783856200078d565b84845b91509150600073ffffffffffffffffffffffffffffffffffffffff168273ffffffffffffffffffffffffffffffffffffffff160362000803576040517f08c379a0000000000000000000000000000000000000000000000000000000008152600401620007fa9062001940565b60405180910390fd5b600073ffffffffffffffffffffffffffffffffffffffff16600460008473ffffffffffffffffffffffffffffffffffffffff1673ffffffffffffffffffffffffffffffffffffffff16815260200190815260200160002060008373ffffffffffffffffffffffffffffffffffffffff1673ffffffffffffffffffffffffffffffffffffffff16815260200190815260200160002060009054906101000a900473ffffffffffffffffffffffffffffffffffffffff1673ffffffffffffffffffffffffffffffffffffffff161462000911576040517f08c379a00000000000000000000000000000000000000000000000000000000081526004016200090890620019b2565b60405180910390fd5b620009516040518060400160405280601181526020017f617661696c61626c652061646472657373000000000000000000000000000000815250620010d7565b60008573ffffffffffffffffffffffffffffffffffffffff166306fdde036040518163ffffffff1660e01b8152600401600060405180830381865afa1580156200099f573d6000803e3d6000fd5b505050506040513d6000823e3d601f19601f82011682018060405250810190620009ca919062001a8d565b905060008573ffffffffffffffffffffffffffffffffffffffff166306fdde036040518163ffffffff1660e01b8152600401600060405180830381865afa15801562000a1a573d6000803e3d6000fd5b505050506040513d6000823e3d601f19601f8201168201806040525081019062000a45919062001a8d565b905060008773ffffffffffffffffffffffffffffffffffffffff166395d89b416040518163ffffffff1660e01b8152600401600060405180830381865afa15801562000a95573d6000803e3d6000fd5b505050506040513d6000823e3d601f19601f8201168201806040525081019062000ac0919062001a8d565b905060008773ffffffffffffffffffffffffffffffffffffffff166395d89b416040518163ffffffff1660e01b8152600401600060405180830381865afa15801562000b10573d6000803e3d6000fd5b505050506040513d6000823e3d601f19601f8201168201806040525081019062000b3b919062001a8d565b90506000848460405160200162000b5492919062001b7b565b60405160208183030381529060405290506000838360405160200162000b7c92919062001bb0565b60405160208183030381529060405290506000828260405162000b9f906200125c565b62000bac92919062001c19565b604051809103906000f08015801562000bc9573d6000803e3d6000fd5b509050600081905062000bdc8162001174565b8073ffffffffffffffffffffffffffffffffffffffff1663485cc9558b8b6040518363ffffffff1660e01b815260040162000c19929190620017ce565b600060405180830381600087803b15801562000c3457600080fd5b505af115801562000c49573d6000803e3d6000fd5b5050505080600460008c73ffffffffffffffffffffffffffffffffffffffff1673ffffffffffffffffffffffffffffffffffffffff16815260200190815260200160002060008b73ffffffffffffffffffffffffffffffffffffffff1673ffffffffffffffffffffffffffffffffffffffff16815260200190815260200160002060006101000a81548173ffffffffffffffffffffffffffffffffffffffff021916908373ffffffffffffffffffffffffffffffffffffffff16021790555080600460008b73ffffffffffffffffffffffffffffffffffffffff1673ffffffffffffffffffffffffffffffffffffffff16815260200190815260200160002060008c73ffffffffffffffffffffffffffffffffffffffff1673ffffffffffffffffffffffffffffffffffffffff16815260200190815260200160002060006101000a81548173ffffffffffffffffffffffffffffffffffffffff021916908373ffffffffffffffffffffffffffffffffffffffff16021790555060008054906101000a900473ffffffffffffffffffffffffffffffffffffffff1673ffffffffffffffffffffffffffffffffffffffff1663c2b7bbb6826040518263ffffffff1660e01b815260040162000e1e919062001379565b600060405180830381600087803b15801562000e3957600080fd5b505af115801562000e4e573d6000803e3d6000fd5b505050508873ffffffffffffffffffffffffffffffffffffffff168a73ffffffffffffffffffffffffffffffffffffffff167f0d3648bd0f6ba80134a33ba9275ac585d9d315f0ad8355cddefde31afa28d0e98360008054906101000a900473ffffffffffffffffffffffffffffffffffffffff1673ffffffffffffffffffffffffffffffffffffffff1663574f2ba36040518163ffffffff1660e01b8152600401602060405180830381865afa15801562000f0e573d6000803e3d6000fd5b505050506040513d601f19601f8201168201806040525081019062000f34919062001525565b60405162000f4492919062001c65565b60405180910390a360019a505050505050505050505092915050565b600360009054906101000a900473ffffffffffffffffffffffffffffffffffffffff1673ffffffffffffffffffffffffffffffffffffffff163373ffffffffffffffffffffffffffffffffffffffff161462000ff3576040517f08c379a000000000000000000000000000000000000000000000000000000000815260040162000fea906200185c565b60405180910390fd5b80600260006101000a81548173ffffffffffffffffffffffffffffffffffffffff021916908373ffffffffffffffffffffffffffffffffffffffff16021790555050565b620010d3828260405160240162001050929190620017ce565b6040516020818303038152906040527fdaf0d4aa000000000000000000000000000000000000000000000000000000007bffffffffffffffffffffffffffffffffffffffffffffffffffffffff19166020820180517bffffffffffffffffffffffffffffffffffffffffffffffffffffffff838183161783525050505062001211565b5050565b6200117181604051602401620010ee919062001c92565b6040516020818303038152906040527f41304fac000000000000000000000000000000000000000000000000000000007bffffffffffffffffffffffffffffffffffffffffffffffffffffffff19166020820180517bffffffffffffffffffffffffffffffffffffffffffffffffffffffff838183161783525050505062001211565b50565b6200120e816040516024016200118b919062001379565b6040516020818303038152906040527f2c2ecbc2000000000000000000000000000000000000000000000000000000007bffffffffffffffffffffffffffffffffffffffffffffffffffffffff19166020820180517bffffffffffffffffffffffffffffffffffffffffffffffffffffffff838183161783525050505062001211565b50565b6200122c81620012246200122f62001250565b63ffffffff16565b50565b60006a636f6e736f6c652e6c6f679050600080835160208501845afa505050565b6200126a819050919050565b613f378062001ce683390190565b6200127462001cb6565b565b600081519050919050565b600082825260208201905092915050565b60005b83811015620012b257808201518184015260208101905062001295565b60008484015250505050565b6000601f19601f8301169050919050565b6000620012dc8262001276565b620012e8818562001281565b9350620012fa81856020860162001292565b6200130581620012be565b840191505092915050565b600060208201905081810360008301526200132c8184620012cf565b905092915050565b600073ffffffffffffffffffffffffffffffffffffffff82169050919050565b6000620013618262001334565b9050919050565b620013738162001354565b82525050565b600060208201905062001390600083018462001368565b92915050565b6000604051905090565b600080fd5b600080fd5b620013b58162001354565b8114620013c157600080fd5b50565b600081359050620013d581620013aa565b92915050565b600080600060608486031215620013f757620013f6620013a0565b5b60006200140786828701620013c4565b93505060206200141a86828701620013c4565b92505060406200142d86828701620013c4565b9150509250925092565b60008115159050919050565b6200144e8162001437565b82525050565b60006020820190506200146b600083018462001443565b92915050565b6000602082840312156200148a5762001489620013a0565b5b60006200149a84828501620013c4565b91505092915050565b60008060408385031215620014bd57620014bc620013a0565b5b6000620014cd85828601620013c4565b9250506020620014e085828601620013c4565b9150509250929050565b6000819050919050565b620014ff81620014ea565b81146200150b57600080fd5b50565b6000815190506200151f81620014f4565b92915050565b6000602082840312156200153e576200153d620013a0565b5b60006200154e848285016200150e565b91505092915050565b600080fd5b7f4e487b7100000000000000000000000000000000000000000000000000000000600052604160045260246000fd5b6200159682620012be565b810181811067ffffffffffffffff82111715620015b857620015b76200155c565b5b80604052505050565b6000620015cd62001396565b9050620015db82826200158b565b919050565b600067ffffffffffffffff821115620015fe57620015fd6200155c565b5b602082029050602081019050919050565b600080fd5b6000815190506200162581620013aa565b92915050565b6000620016426200163c84620015e0565b620015c1565b905080838252602082019050602084028301858111156200166857620016676200160f565b5b835b8181101562001695578062001680888262001614565b8452602084019350506020810190506200166a565b5050509392505050565b600082601f830112620016b757620016b662001557565b5b8151620016c98482602086016200162b565b91505092915050565b600060208284031215620016eb57620016ea620013a0565b5b600082015167ffffffffffffffff8111156200170c576200170b620013a5565b5b6200171a848285016200169f565b91505092915050565b7f4e487b7100000000000000000000000000000000000000000000000000000000600052603260045260246000fd5b7f4e487b7100000000000000000000000000000000000000000000000000000000600052601160045260246000fd5b60006200178e82620014ea565b91507fffffffffffffffffffffffffffffffffffffffffffffffffffffffffffffffff8203620017c357620017c262001752565b5b600182019050919050565b6000604082019050620017e5600083018562001368565b620017f4602083018462001368565b9392505050565b600082825260208201905092915050565b7f464f5242494444454e0000000000000000000000000000000000000000000000600082015250565b600062001844600983620017fb565b915062001851826200180c565b602082019050919050565b60006020820190508181036000830152620018778162001835565b9050919050565b7f73616d6520746f6b656e00000000000000000000000000000000000000000000600082015250565b6000620018b6600a83620017fb565b9150620018c3826200187e565b602082019050919050565b60006020820190508181036000830152620018e981620018a7565b9050919050565b7f746f6b656e206973207a65726f20616464726573730000000000000000000000600082015250565b600062001928601583620017fb565b91506200193582620018f0565b602082019050919050565b600060208201905081810360008301526200195b8162001919565b9050919050565b7f7061697220616c72656164792065786973747300000000000000000000000000600082015250565b60006200199a601383620017fb565b9150620019a78262001962565b602082019050919050565b60006020820190508181036000830152620019cd816200198b565b9050919050565b600080fd5b600067ffffffffffffffff821115620019f757620019f66200155c565b5b62001a0282620012be565b9050602081019050919050565b600062001a2662001a2084620019d9565b620015c1565b90508281526020810184848401111562001a455762001a44620019d4565b5b62001a5284828562001292565b509392505050565b600082601f83011262001a725762001a7162001557565b5b815162001a8484826020860162001a0f565b91505092915050565b60006020828403121562001aa65762001aa5620013a0565b5b600082015167ffffffffffffffff81111562001ac75762001ac6620013a5565b5b62001ad58482850162001a5a565b91505092915050565b600081519050919050565b600081905092915050565b600062001b018262001ade565b62001b0d818562001ae9565b935062001b1f81856020860162001292565b80840191505092915050565b7f2d00000000000000000000000000000000000000000000000000000000000000600082015250565b600062001b6360018362001ae9565b915062001b708262001b2b565b600182019050919050565b600062001b89828562001af4565b915062001b968262001b54565b915062001ba4828462001af4565b91508190509392505050565b600062001bbe828562001af4565b915062001bcc828462001af4565b91508190509392505050565b600062001be58262001ade565b62001bf18185620017fb565b935062001c0381856020860162001292565b62001c0e81620012be565b840191505092915050565b6000604082019050818103600083015262001c35818562001bd8565b9050818103602083015262001c4b818462001bd8565b90509392505050565b62001c5f81620014ea565b82525050565b600060408201905062001c7c600083018562001368565b62001c8b602083018462001c54565b9392505050565b6000602082019050818103600083015262001cae818462001bd8565b905092915050565b7f4e487b7100000000000000000000000000000000000000000000000000000000600052605160045260246000fdfe608060405260126003556001600e553480156200001b57600080fd5b5060405162003f3738038062003f3783398181016040528101906200004191906200037e565b818160006040518060200160405280600081525083600090816200006691906200064e565b5082600190816200007891906200064e565b506200008a816200011760201b60201c565b600290816200009a91906200064e565b50620000ca33600354600a620000b19190620008b8565b84620000be919062000909565b6200015360201b60201c565b5050505033600760006101000a81548173ffffffffffffffffffffffffffffffffffffffff021916908373ffffffffffffffffffffffffffffffffffffffff1602179055505050620009f9565b606062000129620001ca60201b60201c565b826040516020016200013d92919062000996565b6040516020818303038152906040529050919050565b80600560008473ffffffffffffffffffffffffffffffffffffffff1673ffffffffffffffffffffffffffffffffffffffff1681526020019081526020016000206000828254620001a49190620009be565b925050819055508060046000828254620001bf9190620009be565b925050819055505050565b606060405180606001604052806035815260200162003f0260359139905090565b6000604051905090565b600080fd5b600080fd5b600080fd5b600080fd5b6000601f19601f8301169050919050565b7f4e487b7100000000000000000000000000000000000000000000000000000000600052604160045260246000fd5b620002548262000209565b810181811067ffffffffffffffff821117156200027657620002756200021a565b5b80604052505050565b60006200028b620001eb565b905062000299828262000249565b919050565b600067ffffffffffffffff821115620002bc57620002bb6200021a565b5b620002c78262000209565b9050602081019050919050565b60005b83811015620002f4578082015181840152602081019050620002d7565b60008484015250505050565b60006200031762000311846200029e565b6200027f565b90508281526020810184848401111562000336576200033562000204565b5b62000343848285620002d4565b509392505050565b600082601f830112620003635762000362620001ff565b5b81516200037584826020860162000300565b91505092915050565b60008060408385031215620003985762000397620001f5565b5b600083015167ffffffffffffffff811115620003b957620003b8620001fa565b5b620003c7858286016200034b565b925050602083015167ffffffffffffffff811115620003eb57620003ea620001fa565b5b620003f9858286016200034b565b9150509250929050565b600081519050919050565b7f4e487b7100000000000000000000000000000000000000000000000000000000600052602260045260246000fd5b600060028204905060018216806200045657607f821691505b6020821081036200046c576200046b6200040e565b5b50919050565b60008190508160005260206000209050919050565b60006020601f8301049050919050565b600082821b905092915050565b600060088302620004d67fffffffffffffffffffffffffffffffffffffffffffffffffffffffffffffffff8262000497565b620004e2868362000497565b95508019841693508086168417925050509392505050565b6000819050919050565b6000819050919050565b60006200052f620005296200052384620004fa565b62000504565b620004fa565b9050919050565b6000819050919050565b6200054b836200050e565b620005636200055a8262000536565b848454620004a4565b825550505050565b600090565b6200057a6200056b565b6200058781848462000540565b505050565b5b81811015620005af57620005a360008262000570565b6001810190506200058d565b5050565b601f821115620005fe57620005c88162000472565b620005d38462000487565b81016020851015620005e3578190505b620005fb620005f28562000487565b8301826200058c565b50505b505050565b600082821c905092915050565b6000620006236000198460080262000603565b1980831691505092915050565b60006200063e838362000610565b9150826002028217905092915050565b620006598262000403565b67ffffffffffffffff8111156200067557620006746200021a565b5b6200068182546200043d565b6200068e828285620005b3565b600060209050601f831160018114620006c65760008415620006b1578287015190505b620006bd858262000630565b8655506200072d565b601f198416620006d68662000472565b60005b828110156200070057848901518255600182019150602085019450602081019050620006d9565b868310156200072057848901516200071c601f89168262000610565b8355505b6001600288020188555050505b505050505050565b7f4e487b7100000000000000000000000000000000000000000000000000000000600052601160045260246000fd5b60008160011c9050919050565b6000808291508390505b6001851115620007c3578086048111156200079b576200079a62000735565b5b6001851615620007ab5780820291505b8081029050620007bb8562000764565b94506200077b565b94509492505050565b600082620007de5760019050620008b1565b81620007ee5760009050620008b1565b8160018114620008075760028114620008125762000848565b6001915050620008b1565b60ff84111562000827576200082662000735565b5b8360020a91508482111562000841576200084062000735565b5b50620008b1565b5060208310610133831016604e8410600b8410161715620008825782820a9050838111156200087c576200087b62000735565b5b620008b1565b62000891848484600162000771565b92509050818404811115620008ab57620008aa62000735565b5b81810290505b9392505050565b6000620008c582620004fa565b9150620008d283620004fa565b9250620009017fffffffffffffffffffffffffffffffffffffffffffffffffffffffffffffffff8484620007cc565b905092915050565b60006200091682620004fa565b91506200092383620004fa565b92508282026200093381620004fa565b915082820484148315176200094d576200094c62000735565b5b5092915050565b600081905092915050565b60006200096c8262000403565b62000978818562000954565b93506200098a818560208601620002d4565b80840191505092915050565b6000620009a482856200095f565b9150620009b282846200095f565b91508190509392505050565b6000620009cb82620004fa565b9150620009d883620004fa565b9250828201905080821115620009f357620009f262000735565b5b92915050565b6134f98062000a096000396000f3fe608060405234801561001057600080fd5b50600436106101cf5760003560e01c80636ebc51e111610104578063bc25cf77116100a2578063dbbdd93511610071578063dbbdd9351461056e578063dd62ed3e1461059f578063eac989f8146105cf578063fff6cae9146105ed576101cf565b8063bc25cf77146104f8578063c45a015514610514578063c5700a0214610532578063d21220a714610550576101cf565b80637dc0a1fa116100de5780637dc0a1fa1461045e57806395d89b411461047a5780639dc29fac14610498578063a9059cbb146104c8576101cf565b80636ebc51e1146103e057806370a08231146104105780637464fc3d14610440576101cf565b806327e235e3116101715780634e6ec2471161014b5780634e6ec2471461034857806355b6ed5c146103645780636161eb18146103945780636a627842146103b0576101cf565b806327e235e3146102cc578063485cc955146102fc5780634cf12d2614610318576101cf565b80630dfe1681116101ad5780630dfe16811461024257806318160ddd146102605780631b6550541461027e57806323b872dd1461029c576101cf565b806306fdde03146101d45780630902f1ac146101f2578063095ea7b314610212575b600080fd5b6101dc6105f7565b6040516101e991906127ba565b60405180910390f35b6101fa610685565b60405161020993929190612824565b60405180910390f35b61022c60048036038101906102279190612903565b6106e2565b604051610239919061295e565b60405180910390f35b61024a61076f565b6040516102579190612988565b60405180910390f35b610268610795565b60405161027591906129b2565b60405180910390f35b61028661079b565b6040516102939190612988565b60405180910390f35b6102b660048036038101906102b191906129cd565b6107c1565b6040516102c3919061295e565b60405180910390f35b6102e660048036038101906102e19190612a20565b610996565b6040516102f391906129b2565b60405180910390f35b61031660048036038101906103119190612a4d565b6109ae565b005b610332600480360381019061032d9190612bc2565b610a8e565b60405161033f91906127ba565b60405180910390f35b610362600480360381019061035d9190612903565b610ac0565b005b61037e60048036038101906103799190612a4d565b610b33565b60405161038b91906129b2565b60405180910390f35b6103ae60048036038101906103a99190612903565b610b58565b005b6103ca60048036038101906103c59190612a20565b610bcb565b6040516103d7919061295e565b60405180910390f35b6103fa60048036038101906103f59190612a20565b6110d7565b604051610407919061295e565b60405180910390f35b61042a60048036038101906104259190612a20565b6113ac565b60405161043791906129b2565b60405180910390f35b6104486113f5565b60405161045591906129b2565b60405180910390f35b61047860048036038101906104739190612c37565b6113fb565b005b610482611582565b60405161048f91906127ba565b60405180910390f35b6104b260048036038101906104ad9190612903565b611610565b6040516104bf919061295e565b60405180910390f35b6104e260048036038101906104dd9190612903565b611def565b6040516104ef919061295e565b60405180910390f35b610512600480360381019061050d9190612a20565b611ea7565b005b61051c611f4f565b6040516105299190612988565b60405180910390f35b61053a611f75565b6040516105479190612c9e565b60405180910390f35b610558611f8b565b6040516105659190612988565b60405180910390f35b61058860048036038101906105839190612a20565b611fb1565b604051610596929190612cb9565b60405180910390f35b6105b960048036038101906105b49190612a4d565b612094565b6040516105c691906129b2565b60405180910390f35b6105d761211b565b6040516105e491906127ba565b60405180910390f35b6105f56121a9565b005b6000805461060490612d11565b80601f016020809104026020016040519081016040528092919081815260200182805461063090612d11565b801561067d5780601f106106525761010080835404028352916020019161067d565b820191906000526020600020905b81548152906001019060200180831161066057829003601f168201915b505050505081565b6000806000600b60009054906101000a90046dffffffffffffffffffffffffffff169250600b600e9054906101000a90046dffffffffffffffffffffffffffff169150600d60009054906101000a900463ffffffff169050909192565b600081600660003373ffffffffffffffffffffffffffffffffffffffff1673ffffffffffffffffffffffffffffffffffffffff16815260200190815260200160002060008573ffffffffffffffffffffffffffffffffffffffff1673ffffffffffffffffffffffffffffffffffffffff168152602001908152602001600020819055506001905092915050565b600960009054906101000a900473ffffffffffffffffffffffffffffffffffffffff1681565b60045481565b600860009054906101000a900473ffffffffffffffffffffffffffffffffffffffff1681565b600081600660008673ffffffffffffffffffffffffffffffffffffffff1673ffffffffffffffffffffffffffffffffffffffff16815260200190815260200160002060003373ffffffffffffffffffffffffffffffffffffffff1673ffffffffffffffffffffffffffffffffffffffff16815260200190815260200160002054101561084c57600080fd5b81600660008673ffffffffffffffffffffffffffffffffffffffff1673ffffffffffffffffffffffffffffffffffffffff16815260200190815260200160002060003373ffffffffffffffffffffffffffffffffffffffff1673ffffffffffffffffffffffffffffffffffffffff16815260200190815260200160002060008282546108d89190612d71565b9250508190555081600560008673ffffffffffffffffffffffffffffffffffffffff1673ffffffffffffffffffffffffffffffffffffffff168152602001908152602001600020600082825461092e9190612d71565b9250508190555081600560008573ffffffffffffffffffffffffffffffffffffffff1673ffffffffffffffffffffffffffffffffffffffff16815260200190815260200160002060008282546109849190612da5565b92505081905550600190509392505050565b60056020528060005260406000206000915090505481565b600760009054906101000a900473ffffffffffffffffffffffffffffffffffffffff1673ffffffffffffffffffffffffffffffffffffffff163373ffffffffffffffffffffffffffffffffffffffff1614610a0857600080fd5b81600960006101000a81548173ffffffffffffffffffffffffffffffffffffffff021916908373ffffffffffffffffffffffffffffffffffffffff16021790555080600a60006101000a81548173ffffffffffffffffffffffffffffffffffffffff021916908373ffffffffffffffffffffffffffffffffffffffff1602179055505050565b6060610a9861237a565b82604051602001610aaa929190612e15565b6040516020818303038152906040529050919050565b80600560008473ffffffffffffffffffffffffffffffffffffffff1673ffffffffffffffffffffffffffffffffffffffff1681526020019081526020016000206000828254610b0f9190612da5565b925050819055508060046000828254610b289190612da5565b925050819055505050565b6006602052816000526040600020602052806000526040600020600091509150505481565b80600560008473ffffffffffffffffffffffffffffffffffffffff1673ffffffffffffffffffffffffffffffffffffffff1681526020019081526020016000206000828254610ba79190612d71565b925050819055508060046000828254610bc09190612d71565b925050819055505050565b60006001600e5414610c12576040517f08c379a0000000000000000000000000000000000000000000000000000000008152600401610c0990612e85565b60405180910390fd5b6000600e819055506000600960009054906101000a900473ffffffffffffffffffffffffffffffffffffffff1673ffffffffffffffffffffffffffffffffffffffff166370a08231306040518263ffffffff1660e01b8152600401610c779190612988565b602060405180830381865afa158015610c94573d6000803e3d6000fd5b505050506040513d601f19601f82011682018060405250810190610cb89190612eba565b90506000600a60009054906101000a900473ffffffffffffffffffffffffffffffffffffffff1673ffffffffffffffffffffffffffffffffffffffff166370a08231306040518263ffffffff1660e01b8152600401610d179190612988565b602060405180830381865afa158015610d34573d6000803e3d6000fd5b505050506040513d601f19601f82011682018060405250810190610d589190612eba565b90506000610d9283600b60009054906101000a90046dffffffffffffffffffffffffffff166dffffffffffffffffffffffffffff1661239a565b90506000610dcc83600b600e9054906101000a90046dffffffffffffffffffffffffffff166dffffffffffffffffffffffffffff1661239a565b90506000610e12600b60009054906101000a90046dffffffffffffffffffffffffffff16600b600e9054906101000a90046dffffffffffffffffffffffffffff16612406565b905060008060045403610e5057610e3c610e34610e2f86866125aa565b61262b565b6103e861239a565b9050610e4b60006103e8610ac0565b610ee1565b610ede600b60009054906101000a90046dffffffffffffffffffffffffffff166dffffffffffffffffffffffffffff16610e8c866004546125aa565b610e969190612f16565b600b600e9054906101000a90046dffffffffffffffffffffffffffff166dffffffffffffffffffffffffffff16610ecf866004546125aa565b610ed99190612f16565b6126a5565b90505b60008111610f24576040517f08c379a0000000000000000000000000000000000000000000000000000000008152600401610f1b90612f93565b60405180910390fd5b610f2e8882610ac0565b600860009054906101000a900473ffffffffffffffffffffffffffffffffffffffff1673ffffffffffffffffffffffffffffffffffffffff1663eb201d99308a6040518363ffffffff1660e01b8152600401610f8b929190612fb3565b600060405180830381600087803b158015610fa557600080fd5b505af1158015610fb9573d6000803e3d6000fd5b505050506110018686600b60009054906101000a90046dffffffffffffffffffffffffffff16600b600e9054906101000a90046dffffffffffffffffffffffffffff166113fb565b811561107057611069600b60009054906101000a90046dffffffffffffffffffffffffffff166dffffffffffffffffffffffffffff16600b600e9054906101000a90046dffffffffffffffffffffffffffff166dffffffffffffffffffffffffffff166125aa565b600c819055505b3373ffffffffffffffffffffffffffffffffffffffff167f4c209b5fc8ad50758f13e2e1088ba56a560dff690a1c6fef26394f4c03821c4f85856040516110b8929190612cb9565b60405180910390a2600196505050505050506001600e81905550919050565b6000806000600860009054906101000a900473ffffffffffffffffffffffffffffffffffffffff1673ffffffffffffffffffffffffffffffffffffffff1663238c45eb85306040518363ffffffff1660e01b8152600401611139929190612fb3565b6040805180830381865afa158015611155573d6000803e3d6000fd5b505050506040513d601f19601f820116820180604052508101906111799190612fdc565b91509150600082118061118c5750600081115b6111cb576040517f08c379a00000000000000000000000000000000000000000000000000000000081526004016111c290613068565b60405180910390fd5b600960009054906101000a900473ffffffffffffffffffffffffffffffffffffffff1673ffffffffffffffffffffffffffffffffffffffff1663a9059cbb85846040518363ffffffff1660e01b8152600401611228929190613088565b6020604051808303816000875af1158015611247573d6000803e3d6000fd5b505050506040513d601f19601f8201168201806040525081019061126b91906130dd565b50600a60009054906101000a900473ffffffffffffffffffffffffffffffffffffffff1673ffffffffffffffffffffffffffffffffffffffff1663a9059cbb85836040518363ffffffff1660e01b81526004016112c9929190613088565b6020604051808303816000875af11580156112e8573d6000803e3d6000fd5b505050506040513d601f19601f8201168201806040525081019061130c91906130dd565b50600860009054906101000a900473ffffffffffffffffffffffffffffffffffffffff1673ffffffffffffffffffffffffffffffffffffffff1663bdd6be0785306000806040518563ffffffff1660e01b815260040161136f949392919061314f565b600060405180830381600087803b15801561138957600080fd5b505af115801561139d573d6000803e3d6000fd5b50505050600192505050919050565b6000600560008373ffffffffffffffffffffffffffffffffffffffff1673ffffffffffffffffffffffffffffffffffffffff168152602001908152602001600020549050919050565b600c5481565b6dffffffffffffffffffffffffffff8016841115801561142b57506dffffffffffffffffffffffffffff80168311155b61146a576040517f08c379a0000000000000000000000000000000000000000000000000000000008152600401611461906131e0565b60405180910390fd5b60006401000000004261147d9190613200565b905084600b60006101000a8154816dffffffffffffffffffffffffffff02191690836dffffffffffffffffffffffffffff16021790555083600b600e6101000a8154816dffffffffffffffffffffffffffff02191690836dffffffffffffffffffffffffffff16021790555080600d60006101000a81548163ffffffff021916908363ffffffff1602179055507f1c411e9a96e071241c2f21f7726b17ae89e3cab4c78be50e062b03a9fffbbad1600b60009054906101000a90046dffffffffffffffffffffffffffff16600b600e9054906101000a90046dffffffffffffffffffffffffffff16604051611573929190613231565b60405180910390a15050505050565b6001805461158f90612d11565b80601f01602080910402602001604051908101604052809291908181526020018280546115bb90612d11565b80156116085780601f106115dd57610100808354040283529160200191611608565b820191906000526020600020905b8154815290600101906020018083116115eb57829003601f168201915b505050505081565b60006001600e5414611657576040517f08c379a000000000000000000000000000000000000000000000000000000000815260040161164e90612e85565b60405180910390fd5b6000600e819055506000600960009054906101000a900473ffffffffffffffffffffffffffffffffffffffff1673ffffffffffffffffffffffffffffffffffffffff166370a08231306040518263ffffffff1660e01b81526004016116bc9190612988565b602060405180830381865afa1580156116d9573d6000803e3d6000fd5b505050506040513d601f19601f820116820180604052508101906116fd9190612eba565b90506000600a60009054906101000a900473ffffffffffffffffffffffffffffffffffffffff1673ffffffffffffffffffffffffffffffffffffffff166370a08231306040518263ffffffff1660e01b815260040161175c9190612988565b602060405180830381865afa158015611779573d6000803e3d6000fd5b505050506040513d601f19601f8201168201806040525081019061179d9190612eba565b90506000600560003073ffffffffffffffffffffffffffffffffffffffff1673ffffffffffffffffffffffffffffffffffffffff1681526020019081526020016000205490506000611827600b60009054906101000a90046dffffffffffffffffffffffffffff16600b600e9054906101000a90046dffffffffffffffffffffffffffff16612406565b9050600060648784611839919061325a565b6118439190612f16565b905060008111611888576040517f08c379a000000000000000000000000000000000000000000000000000000000815260040161187f906132e8565b60405180910390fd5b600060045461189783886125aa565b6118a19190612f16565b905060006004546118b284886125aa565b6118bc9190612f16565b90506000821180156118ce5750600081115b61190d576040517f08c379a0000000000000000000000000000000000000000000000000000000008152600401611904906132e8565b60405180910390fd5b6119173084610b58565b600960009054906101000a900473ffffffffffffffffffffffffffffffffffffffff1673ffffffffffffffffffffffffffffffffffffffff1663a9059cbb8b846040518363ffffffff1660e01b8152600401611974929190613088565b6020604051808303816000875af1158015611993573d6000803e3d6000fd5b505050506040513d601f19601f820116820180604052508101906119b791906130dd565b50600a60009054906101000a900473ffffffffffffffffffffffffffffffffffffffff1673ffffffffffffffffffffffffffffffffffffffff1663a9059cbb8b836040518363ffffffff1660e01b8152600401611a15929190613088565b6020604051808303816000875af1158015611a34573d6000803e3d6000fd5b505050506040513d601f19601f82011682018060405250810190611a5891906130dd565b50600960009054906101000a900473ffffffffffffffffffffffffffffffffffffffff1673ffffffffffffffffffffffffffffffffffffffff166370a08231306040518263ffffffff1660e01b8152600401611ab49190612988565b602060405180830381865afa158015611ad1573d6000803e3d6000fd5b505050506040513d601f19601f82011682018060405250810190611af59190612eba565b9650600a60009054906101000a900473ffffffffffffffffffffffffffffffffffffffff1673ffffffffffffffffffffffffffffffffffffffff166370a08231306040518263ffffffff1660e01b8152600401611b529190612988565b602060405180830381865afa158015611b6f573d6000803e3d6000fd5b505050506040513d601f19601f82011682018060405250810190611b939190612eba565b955060648903611cbc57600860009054906101000a900473ffffffffffffffffffffffffffffffffffffffff1673ffffffffffffffffffffffffffffffffffffffff1663369dadff8b306040518363ffffffff1660e01b8152600401611bfa929190612fb3565b600060405180830381600087803b158015611c1457600080fd5b505af1158015611c28573d6000803e3d6000fd5b50505050600860009054906101000a900473ffffffffffffffffffffffffffffffffffffffff1673ffffffffffffffffffffffffffffffffffffffff16630202787b308c6040518363ffffffff1660e01b8152600401611c89929190612fb3565b600060405180830381600087803b158015611ca357600080fd5b505af1158015611cb7573d6000803e3d6000fd5b505050505b611d008787600b60009054906101000a90046dffffffffffffffffffffffffffff16600b600e9054906101000a90046dffffffffffffffffffffffffffff166113fb565b8315611d6f57611d68600b60009054906101000a90046dffffffffffffffffffffffffffff166dffffffffffffffffffffffffffff16600b600e9054906101000a90046dffffffffffffffffffffffffffff166dffffffffffffffffffffffffffff166125aa565b600c819055505b8973ffffffffffffffffffffffffffffffffffffffff163373ffffffffffffffffffffffffffffffffffffffff167fdccd412f0b1252819cb1fd330b93224ca42612892bb3f4f789976e6d819364968484604051611dce929190612cb9565b60405180910390a360019750505050505050506001600e8190555092915050565b600081600560003373ffffffffffffffffffffffffffffffffffffffff1673ffffffffffffffffffffffffffffffffffffffff1681526020019081526020016000206000828254611e409190612d71565b9250508190555081600560008573ffffffffffffffffffffffffffffffffffffffff1673ffffffffffffffffffffffffffffffffffffffff1681526020019081526020016000206000828254611e969190612da5565b925050819055506001905092915050565b6001600e5414611eec576040517f08c379a0000000000000000000000000000000000000000000000000000000008152600401611ee390612e85565b60405180910390fd5b6000600e819055506000600960009054906101000a900473ffffffffffffffffffffffffffffffffffffffff1690506000600a60009054906101000a900473ffffffffffffffffffffffffffffffffffffffff16905050506001600e8190555050565b600760009054906101000a900473ffffffffffffffffffffffffffffffffffffffff1681565b600d60009054906101000a900463ffffffff1681565b600a60009054906101000a900473ffffffffffffffffffffffffffffffffffffffff1681565b6000806000600560008573ffffffffffffffffffffffffffffffffffffffff1673ffffffffffffffffffffffffffffffffffffffff168152602001908152602001600020549050600060045461203383600b60009054906101000a90046dffffffffffffffffffffffffffff166dffffffffffffffffffffffffffff166125aa565b61203d9190612f16565b9050600060045461207a84600b600e9054906101000a90046dffffffffffffffffffffffffffff166dffffffffffffffffffffffffffff166125aa565b6120849190612f16565b9050818194509450505050915091565b6000600660008473ffffffffffffffffffffffffffffffffffffffff1673ffffffffffffffffffffffffffffffffffffffff16815260200190815260200160002060008373ffffffffffffffffffffffffffffffffffffffff1673ffffffffffffffffffffffffffffffffffffffff16815260200190815260200160002054905092915050565b6002805461212890612d11565b80601f016020809104026020016040519081016040528092919081815260200182805461215490612d11565b80156121a15780601f10612176576101008083540402835291602001916121a1565b820191906000526020600020905b81548152906001019060200180831161218457829003601f168201915b505050505081565b6001600e54146121ee576040517f08c379a00000000000000000000000000000000000000000000000000000000081526004016121e590612e85565b60405180910390fd5b6000600e81905550612370600960009054906101000a900473ffffffffffffffffffffffffffffffffffffffff1673ffffffffffffffffffffffffffffffffffffffff166370a08231306040518263ffffffff1660e01b81526004016122549190612988565b602060405180830381865afa158015612271573d6000803e3d6000fd5b505050506040513d601f19601f820116820180604052508101906122959190612eba565b600a60009054906101000a900473ffffffffffffffffffffffffffffffffffffffff1673ffffffffffffffffffffffffffffffffffffffff166370a08231306040518263ffffffff1660e01b81526004016122f09190612988565b602060405180830381865afa15801561230d573d6000803e3d6000fd5b505050506040513d601f19601f820116820180604052508101906123319190612eba565b600b60009054906101000a90046dffffffffffffffffffffffffffff16600b600e9054906101000a90046dffffffffffffffffffffffffffff166113fb565b6001600e81905550565b606060405180606001604052806035815260200161348f60359139905090565b60008082846123a99190612d71565b90508383856123b89190612d71565b91508111156123fc576040517f08c379a00000000000000000000000000000000000000000000000000000000081526004016123f390613354565b60405180910390fd5b8091505092915050565b600080600760009054906101000a900473ffffffffffffffffffffffffffffffffffffffff1673ffffffffffffffffffffffffffffffffffffffff1663017e7e586040518163ffffffff1660e01b8152600401602060405180830381865afa158015612476573d6000803e3d6000fd5b505050506040513d601f19601f8201168201806040525081019061249a9190613389565b9050600073ffffffffffffffffffffffffffffffffffffffff168173ffffffffffffffffffffffffffffffffffffffff16141591506000600c5490508215612590576000811461258b576000612518612513876dffffffffffffffffffffffffffff16876dffffffffffffffffffffffffffff166125aa565b61262b565b905060006125258361262b565b905080821115612588576000612546600454612541858561239a565b6125aa565b9050600061255e6125588560056125aa565b846126be565b90506000818361256e9190612f16565b90506000811115612584576125838782610ac0565b5b5050505b50505b6125a2565b600081146125a1576000600c819055505b5b505092915050565b60008082846125b9919061325a565b905060008314806125e25750838384866125d3919061325a565b9250826125e09190612f16565b145b612621576040517f08c379a000000000000000000000000000000000000000000000000000000000815260040161261890613402565b60405180910390fd5b8091505092915050565b60006003821115612692578190506000600160028461264a9190612f16565b6126549190612da5565b90505b8181101561268c5780915060028182856126719190612f16565b61267b9190612da5565b6126859190612f16565b9050612657565b506126a0565b6000821461269f57600190505b5b919050565b60008183106126b457816126b6565b825b905092915050565b60008082846126cd9190612da5565b90508383856126dc9190612da5565b9150811015612720576040517f08c379a00000000000000000000000000000000000000000000000000000000081526004016127179061346e565b60405180910390fd5b8091505092915050565b600081519050919050565b600082825260208201905092915050565b60005b83811015612764578082015181840152602081019050612749565b60008484015250505050565b6000601f19601f8301169050919050565b600061278c8261272a565b6127968185612735565b93506127a6818560208601612746565b6127af81612770565b840191505092915050565b600060208201905081810360008301526127d48184612781565b905092915050565b60006dffffffffffffffffffffffffffff82169050919050565b6127ff816127dc565b82525050565b600063ffffffff82169050919050565b61281e81612805565b82525050565b600060608201905061283960008301866127f6565b61284660208301856127f6565b6128536040830184612815565b949350505050565b6000604051905090565b600080fd5b600080fd5b600073ffffffffffffffffffffffffffffffffffffffff82169050919050565b600061289a8261286f565b9050919050565b6128aa8161288f565b81146128b557600080fd5b50565b6000813590506128c7816128a1565b92915050565b6000819050919050565b6128e0816128cd565b81146128eb57600080fd5b50565b6000813590506128fd816128d7565b92915050565b6000806040838503121561291a57612919612865565b5b6000612928858286016128b8565b9250506020612939858286016128ee565b9150509250929050565b60008115159050919050565b61295881612943565b82525050565b6000602082019050612973600083018461294f565b92915050565b6129828161288f565b82525050565b600060208201905061299d6000830184612979565b92915050565b6129ac816128cd565b82525050565b60006020820190506129c760008301846129a3565b92915050565b6000806000606084860312156129e6576129e5612865565b5b60006129f4868287016128b8565b9350506020612a05868287016128b8565b9250506040612a16868287016128ee565b9150509250925092565b600060208284031215612a3657612a35612865565b5b6000612a44848285016128b8565b91505092915050565b60008060408385031215612a6457612a63612865565b5b6000612a72858286016128b8565b9250506020612a83858286016128b8565b9150509250929050565b600080fd5b600080fd5b7f4e487b7100000000000000000000000000000000000000000000000000000000600052604160045260246000fd5b612acf82612770565b810181811067ffffffffffffffff82111715612aee57612aed612a97565b5b80604052505050565b6000612b0161285b565b9050612b0d8282612ac6565b919050565b600067ffffffffffffffff821115612b2d57612b2c612a97565b5b612b3682612770565b9050602081019050919050565b82818337600083830152505050565b6000612b65612b6084612b12565b612af7565b905082815260208101848484011115612b8157612b80612a92565b5b612b8c848285612b43565b509392505050565b600082601f830112612ba957612ba8612a8d565b5b8135612bb9848260208601612b52565b91505092915050565b600060208284031215612bd857612bd7612865565b5b600082013567ffffffffffffffff811115612bf657612bf561286a565b5b612c0284828501612b94565b91505092915050565b612c14816127dc565b8114612c1f57600080fd5b50565b600081359050612c3181612c0b565b92915050565b60008060008060808587031215612c5157612c50612865565b5b6000612c5f878288016128ee565b9450506020612c70878288016128ee565b9350506040612c8187828801612c22565b9250506060612c9287828801612c22565b91505092959194509250565b6000602082019050612cb36000830184612815565b92915050565b6000604082019050612cce60008301856129a3565b612cdb60208301846129a3565b9392505050565b7f4e487b7100000000000000000000000000000000000000000000000000000000600052602260045260246000fd5b60006002820490506001821680612d2957607f821691505b602082108103612d3c57612d3b612ce2565b5b50919050565b7f4e487b7100000000000000000000000000000000000000000000000000000000600052601160045260246000fd5b6000612d7c826128cd565b9150612d87836128cd565b9250828203905081811115612d9f57612d9e612d42565b5b92915050565b6000612db0826128cd565b9150612dbb836128cd565b9250828201905080821115612dd357612dd2612d42565b5b92915050565b600081905092915050565b6000612def8261272a565b612df98185612dd9565b9350612e09818560208601612746565b80840191505092915050565b6000612e218285612de4565b9150612e2d8284612de4565b91508190509392505050565b7f4c4f434b45440000000000000000000000000000000000000000000000000000600082015250565b6000612e6f600683612735565b9150612e7a82612e39565b602082019050919050565b60006020820190508181036000830152612e9e81612e62565b9050919050565b600081519050612eb4816128d7565b92915050565b600060208284031215612ed057612ecf612865565b5b6000612ede84828501612ea5565b91505092915050565b7f4e487b7100000000000000000000000000000000000000000000000000000000600052601260045260246000fd5b6000612f21826128cd565b9150612f2c836128cd565b925082612f3c57612f3b612ee7565b5b828204905092915050565b7f494e53554646494349454e545f4c49515549444954595f4d494e544544000000600082015250565b6000612f7d601d83612735565b9150612f8882612f47565b602082019050919050565b60006020820190508181036000830152612fac81612f70565b9050919050565b6000604082019050612fc86000830185612979565b612fd56020830184612979565b9392505050565b60008060408385031215612ff357612ff2612865565b5b600061300185828601612ea5565b925050602061301285828601612ea5565b9150509250929050565b7f4e6f206665657320746f20636c61696d00000000000000000000000000000000600082015250565b6000613052601083612735565b915061305d8261301c565b602082019050919050565b6000602082019050818103600083015261308181613045565b9050919050565b600060408201905061309d6000830185612979565b6130aa60208301846129a3565b9392505050565b6130ba81612943565b81146130c557600080fd5b50565b6000815190506130d7816130b1565b92915050565b6000602082840312156130f3576130f2612865565b5b6000613101848285016130c8565b91505092915050565b6000819050919050565b6000819050919050565b600061313961313461312f8461310a565b613114565b6128cd565b9050919050565b6131498161311e565b82525050565b60006080820190506131646000830187612979565b6131716020830186612979565b61317e6040830185613140565b61318b6060830184613140565b95945050505050565b7f4f564552464c4f57000000000000000000000000000000000000000000000000600082015250565b60006131ca600883612735565b91506131d582613194565b602082019050919050565b600060208201905081810360008301526131f9816131bd565b9050919050565b600061320b826128cd565b9150613216836128cd565b92508261322657613225612ee7565b5b828206905092915050565b600060408201905061324660008301856127f6565b61325360208301846127f6565b9392505050565b6000613265826128cd565b9150613270836128cd565b925082820261327e816128cd565b9150828204841483151761329557613294612d42565b5b5092915050565b7f494e53554646494349454e545f4c49515549444954595f4255524e4544000000600082015250565b60006132d2601d83612735565b91506132dd8261329c565b602082019050919050565b60006020820190508181036000830152613301816132c5565b9050919050565b7f64732d6d6174682d7375622d756e646572666c6f770000000000000000000000600082015250565b600061333e601583612735565b915061334982613308565b602082019050919050565b6000602082019050818103600083015261336d81613331565b9050919050565b600081519050613383816128a1565b92915050565b60006020828403121561339f5761339e612865565b5b60006133ad84828501613374565b91505092915050565b7f64732d6d6174682d6d756c2d6f766572666c6f77000000000000000000000000600082015250565b60006133ec601483612735565b91506133f7826133b6565b602082019050919050565b6000602082019050818103600083015261341b816133df565b9050919050565b7f64732d6d6174682d6164642d6f766572666c6f77000000000000000000000000600082015250565b6000613458601483612735565b915061346382613422565b602082019050919050565b600060208201905081810360008301526134878161344b565b905091905056fe68747470733a2f2f6372696d736f6e2d67656e65726f75732d616e742d3339352e6d7970696e6174612e636c6f75642f697066732fa26469706673582212208c44a23817a58e541d6541ab6e499755a3664e675b21f0c4a23dc4a0d978457f64736f6c6343000813003368747470733a2f2f6372696d736f6e2d67656e65726f75732d616e742d3339352e6d7970696e6174612e636c6f75642f697066732fa26469706673582212206a20e8bfec1108fa72daa0e41b2502c7852cdca5056c0d314b020d710301afa864736f6c63430008130033",
			"opcodes": "PUSH1 0x80 PUSH1 0x40 MSTORE CALLVALUE DUP1 ISZERO PUSH3 0x11 JUMPI PUSH1 0x0 DUP1 REVERT JUMPDEST POP PUSH1 0x40 MLOAD PUSH3 0x5E14 CODESIZE SUB DUP1 PUSH3 0x5E14 DUP4 CODECOPY DUP2 DUP2 ADD PUSH1 0x40 MSTORE DUP2 ADD SWAP1 PUSH3 0x37 SWAP2 SWAP1 PUSH3 0x16B JUMP JUMPDEST DUP1 PUSH1 0x3 PUSH1 0x0 PUSH2 0x100 EXP DUP2 SLOAD DUP2 PUSH20 0xFFFFFFFFFFFFFFFFFFFFFFFFFFFFFFFFFFFFFFFF MUL NOT AND SWAP1 DUP4 PUSH20 0xFFFFFFFFFFFFFFFFFFFFFFFFFFFFFFFFFFFFFFFF AND MUL OR SWAP1 SSTORE POP DUP2 PUSH1 0x1 PUSH1 0x0 PUSH2 0x100 EXP DUP2 SLOAD DUP2 PUSH20 0xFFFFFFFFFFFFFFFFFFFFFFFFFFFFFFFFFFFFFFFF MUL NOT AND SWAP1 DUP4 PUSH20 0xFFFFFFFFFFFFFFFFFFFFFFFFFFFFFFFFFFFFFFFF AND MUL OR SWAP1 SSTORE POP DUP2 PUSH1 0x0 DUP1 PUSH2 0x100 EXP DUP2 SLOAD DUP2 PUSH20 0xFFFFFFFFFFFFFFFFFFFFFFFFFFFFFFFFFFFFFFFF MUL NOT AND SWAP1 DUP4 PUSH20 0xFFFFFFFFFFFFFFFFFFFFFFFFFFFFFFFFFFFFFFFF AND MUL OR SWAP1 SSTORE POP POP POP PUSH3 0x1B2 JUMP JUMPDEST PUSH1 0x0 DUP1 REVERT JUMPDEST PUSH1 0x0 PUSH20 0xFFFFFFFFFFFFFFFFFFFFFFFFFFFFFFFFFFFFFFFF DUP3 AND SWAP1 POP SWAP2 SWAP1 POP JUMP JUMPDEST PUSH1 0x0 PUSH3 0x133 DUP3 PUSH3 0x106 JUMP JUMPDEST SWAP1 POP SWAP2 SWAP1 POP JUMP JUMPDEST PUSH3 0x145 DUP2 PUSH3 0x126 JUMP JUMPDEST DUP2 EQ PUSH3 0x151 JUMPI PUSH1 0x0 DUP1 REVERT JUMPDEST POP JUMP JUMPDEST PUSH1 0x0 DUP2 MLOAD SWAP1 POP PUSH3 0x165 DUP2 PUSH3 0x13A JUMP JUMPDEST SWAP3 SWAP2 POP POP JUMP JUMPDEST PUSH1 0x0 DUP1 PUSH1 0x40 DUP4 DUP6 SUB SLT ISZERO PUSH3 0x185 JUMPI PUSH3 0x184 PUSH3 0x101 JUMP JUMPDEST JUMPDEST PUSH1 0x0 PUSH3 0x195 DUP6 DUP3 DUP7 ADD PUSH3 0x154 JUMP JUMPDEST SWAP3 POP POP PUSH1 0x20 PUSH3 0x1A8 DUP6 DUP3 DUP7 ADD PUSH3 0x154 JUMP JUMPDEST SWAP2 POP POP SWAP3 POP SWAP3 SWAP1 POP JUMP JUMPDEST PUSH2 0x5C52 DUP1 PUSH3 0x1C2 PUSH1 0x0 CODECOPY PUSH1 0x0 RETURN INVALID PUSH1 0x80 PUSH1 0x40 MSTORE CALLVALUE DUP1 ISZERO PUSH3 0x11 JUMPI PUSH1 0x0 DUP1 REVERT JUMPDEST POP PUSH1 0x4 CALLDATASIZE LT PUSH3 0x87 JUMPI PUSH1 0x0 CALLDATALOAD PUSH1 0xE0 SHR DUP1 PUSH4 0xA2E74AF6 GT PUSH3 0x63 JUMPI DUP1 PUSH4 0xA2E74AF6 EQ PUSH3 0x106 JUMPI DUP1 PUSH4 0xB4F69A2F EQ PUSH3 0x126 JUMPI DUP1 PUSH4 0xC9C65396 EQ PUSH3 0x15C JUMPI DUP1 PUSH4 0xF46901ED EQ PUSH3 0x192 JUMPI PUSH3 0x87 JUMP JUMPDEST DUP1 PUSH3 0xC194DB EQ PUSH3 0x8C JUMPI DUP1 PUSH4 0x17E7E58 EQ PUSH3 0xAE JUMPI DUP1 PUSH4 0x98EAC009 EQ PUSH3 0xD0 JUMPI JUMPDEST PUSH1 0x0 DUP1 REVERT JUMPDEST PUSH3 0x96 PUSH3 0x1B2 JUMP JUMPDEST PUSH1 0x40 MLOAD PUSH3 0xA5 SWAP2 SWAP1 PUSH3 0x1310 JUMP JUMPDEST PUSH1 0x40 MLOAD DUP1 SWAP2 SUB SWAP1 RETURN JUMPDEST PUSH3 0xB8 PUSH3 0x1DF JUMP JUMPDEST PUSH1 0x40 MLOAD PUSH3 0xC7 SWAP2 SWAP1 PUSH3 0x1379 JUMP JUMPDEST PUSH1 0x40 MLOAD DUP1 SWAP2 SUB SWAP1 RETURN JUMPDEST PUSH3 0xEE PUSH1 0x4 DUP1 CALLDATASIZE SUB DUP2 ADD SWAP1 PUSH3 0xE8 SWAP2 SWAP1 PUSH3 0x13DB JUMP JUMPDEST PUSH3 0x205 JUMP JUMPDEST PUSH1 0x40 MLOAD PUSH3 0xFD SWAP2 SWAP1 PUSH3 0x1454 JUMP JUMPDEST PUSH1 0x40 MLOAD DUP1 SWAP2 SUB SWAP1 RETURN JUMPDEST PUSH3 0x124 PUSH1 0x4 DUP1 CALLDATASIZE SUB DUP2 ADD SWAP1 PUSH3 0x11E SWAP2 SWAP1 PUSH3 0x1471 JUMP JUMPDEST PUSH3 0x50E JUMP JUMPDEST STOP JUMPDEST PUSH3 0x144 PUSH1 0x4 DUP1 CALLDATASIZE SUB DUP2 ADD SWAP1 PUSH3 0x13E SWAP2 SWAP1 PUSH3 0x14A3 JUMP JUMPDEST PUSH3 0x5E5 JUMP JUMPDEST PUSH1 0x40 MLOAD PUSH3 0x153 SWAP2 SWAP1 PUSH3 0x1379 JUMP JUMPDEST PUSH1 0x40 MLOAD DUP1 SWAP2 SUB SWAP1 RETURN JUMPDEST PUSH3 0x17A PUSH1 0x4 DUP1 CALLDATASIZE SUB DUP2 ADD SWAP1 PUSH3 0x174 SWAP2 SWAP1 PUSH3 0x14A3 JUMP JUMPDEST PUSH3 0x68C JUMP JUMPDEST PUSH1 0x40 MLOAD PUSH3 0x189 SWAP2 SWAP1 PUSH3 0x1454 JUMP JUMPDEST PUSH1 0x40 MLOAD DUP1 SWAP2 SUB SWAP1 RETURN JUMPDEST PUSH3 0x1B0 PUSH1 0x4 DUP1 CALLDATASIZE SUB DUP2 ADD SWAP1 PUSH3 0x1AA SWAP2 SWAP1 PUSH3 0x1471 JUMP JUMPDEST PUSH3 0xF60 JUMP JUMPDEST STOP JUMPDEST PUSH1 0x60 PUSH1 0x40 MLOAD DUP1 PUSH1 0x20 ADD PUSH3 0x1C6 SWAP1 PUSH3 0x125C JUMP JUMPDEST PUSH1 0x20 DUP3 ADD DUP2 SUB DUP3 MSTORE PUSH1 0x1F NOT PUSH1 0x1F DUP3 ADD AND PUSH1 0x40 MSTORE POP SWAP1 POP SWAP1 JUMP JUMPDEST PUSH1 0x2 PUSH1 0x0 SWAP1 SLOAD SWAP1 PUSH2 0x100 EXP SWAP1 DIV PUSH20 0xFFFFFFFFFFFFFFFFFFFFFFFFFFFFFFFFFFFFFFFF AND DUP2 JUMP JUMPDEST PUSH1 0x0 DUP1 PUSH1 0x4 PUSH1 0x0 DUP6 PUSH20 0xFFFFFFFFFFFFFFFFFFFFFFFFFFFFFFFFFFFFFFFF AND PUSH20 0xFFFFFFFFFFFFFFFFFFFFFFFFFFFFFFFFFFFFFFFF AND DUP2 MSTORE PUSH1 0x20 ADD SWAP1 DUP2 MSTORE PUSH1 0x20 ADD PUSH1 0x0 KECCAK256 PUSH1 0x0 DUP5 PUSH20 0xFFFFFFFFFFFFFFFFFFFFFFFFFFFFFFFFFFFFFFFF AND PUSH20 0xFFFFFFFFFFFFFFFFFFFFFFFFFFFFFFFFFFFFFFFF AND DUP2 MSTORE PUSH1 0x20 ADD SWAP1 DUP2 MSTORE PUSH1 0x20 ADD PUSH1 0x0 KECCAK256 PUSH1 0x0 SWAP1 SLOAD SWAP1 PUSH2 0x100 EXP SWAP1 DIV PUSH20 0xFFFFFFFFFFFFFFFFFFFFFFFFFFFFFFFFFFFFFFFF AND SWAP1 POP PUSH1 0x0 DUP1 JUMPDEST PUSH1 0x0 DUP1 SLOAD SWAP1 PUSH2 0x100 EXP SWAP1 DIV PUSH20 0xFFFFFFFFFFFFFFFFFFFFFFFFFFFFFFFFFFFFFFFF AND PUSH20 0xFFFFFFFFFFFFFFFFFFFFFFFFFFFFFFFFFFFFFFFF AND PUSH4 0xAA34735B DUP9 PUSH1 0x40 MLOAD DUP3 PUSH4 0xFFFFFFFF AND PUSH1 0xE0 SHL DUP2 MSTORE PUSH1 0x4 ADD PUSH3 0x306 SWAP2 SWAP1 PUSH3 0x1379 JUMP JUMPDEST PUSH1 0x20 PUSH1 0x40 MLOAD DUP1 DUP4 SUB DUP2 DUP7 GAS STATICCALL ISZERO DUP1 ISZERO PUSH3 0x324 JUMPI RETURNDATASIZE PUSH1 0x0 DUP1 RETURNDATACOPY RETURNDATASIZE PUSH1 0x0 REVERT JUMPDEST POP POP POP POP PUSH1 0x40 MLOAD RETURNDATASIZE PUSH1 0x1F NOT PUSH1 0x1F DUP3 ADD AND DUP3 ADD DUP1 PUSH1 0x40 MSTORE POP DUP2 ADD SWAP1 PUSH3 0x34A SWAP2 SWAP1 PUSH3 0x1525 JUMP JUMPDEST DUP2 LT ISZERO PUSH3 0x45D JUMPI DUP3 PUSH20 0xFFFFFFFFFFFFFFFFFFFFFFFFFFFFFFFFFFFFFFFF AND PUSH1 0x0 DUP1 SLOAD SWAP1 PUSH2 0x100 EXP SWAP1 DIV PUSH20 0xFFFFFFFFFFFFFFFFFFFFFFFFFFFFFFFFFFFFFFFF AND PUSH20 0xFFFFFFFFFFFFFFFFFFFFFFFFFFFFFFFFFFFFFFFF AND PUSH4 0x4AE03B00 DUP10 PUSH1 0x40 MLOAD DUP3 PUSH4 0xFFFFFFFF AND PUSH1 0xE0 SHL DUP2 MSTORE PUSH1 0x4 ADD PUSH3 0x3C4 SWAP2 SWAP1 PUSH3 0x1379 JUMP JUMPDEST PUSH1 0x0 PUSH1 0x40 MLOAD DUP1 DUP4 SUB DUP2 DUP7 GAS STATICCALL ISZERO DUP1 ISZERO PUSH3 0x3E2 JUMPI RETURNDATASIZE PUSH1 0x0 DUP1 RETURNDATACOPY RETURNDATASIZE PUSH1 0x0 REVERT JUMPDEST POP POP POP POP PUSH1 0x40 MLOAD RETURNDATASIZE PUSH1 0x0 DUP3 RETURNDATACOPY RETURNDATASIZE PUSH1 0x1F NOT PUSH1 0x1F DUP3 ADD AND DUP3 ADD DUP1 PUSH1 0x40 MSTORE POP DUP2 ADD SWAP1 PUSH3 0x40D SWAP2 SWAP1 PUSH3 0x16D2 JUMP JUMPDEST DUP3 DUP2 MLOAD DUP2 LT PUSH3 0x422 JUMPI PUSH3 0x421 PUSH3 0x1723 JUMP JUMPDEST JUMPDEST PUSH1 0x20 MUL PUSH1 0x20 ADD ADD MLOAD PUSH20 0xFFFFFFFFFFFFFFFFFFFFFFFFFFFFFFFFFFFFFFFF AND SUB ISZERO PUSH3 0x45D JUMPI DUP1 DUP1 PUSH3 0x454 SWAP1 PUSH3 0x1781 JUMP JUMPDEST SWAP2 POP POP PUSH3 0x2AB JUMP JUMPDEST POP PUSH1 0x0 ISZERO ISZERO DUP2 ISZERO ISZERO EQ PUSH3 0x470 JUMPI PUSH1 0x0 DUP1 REVERT JUMPDEST PUSH1 0x0 DUP1 SLOAD SWAP1 PUSH2 0x100 EXP SWAP1 DIV PUSH20 0xFFFFFFFFFFFFFFFFFFFFFFFFFFFFFFFFFFFFFFFF AND PUSH20 0xFFFFFFFFFFFFFFFFFFFFFFFFFFFFFFFFFFFFFFFF AND PUSH4 0xCD8EB62 CALLER DUP5 PUSH1 0x40 MLOAD DUP4 PUSH4 0xFFFFFFFF AND PUSH1 0xE0 SHL DUP2 MSTORE PUSH1 0x4 ADD PUSH3 0x4CD SWAP3 SWAP2 SWAP1 PUSH3 0x17CE JUMP JUMPDEST PUSH1 0x0 PUSH1 0x40 MLOAD DUP1 DUP4 SUB DUP2 PUSH1 0x0 DUP8 DUP1 EXTCODESIZE ISZERO DUP1 ISZERO PUSH3 0x4E8 JUMPI PUSH1 0x0 DUP1 REVERT JUMPDEST POP GAS CALL ISZERO DUP1 ISZERO PUSH3 0x4FD JUMPI RETURNDATASIZE PUSH1 0x0 DUP1 RETURNDATACOPY RETURNDATASIZE PUSH1 0x0 REVERT JUMPDEST POP POP POP POP PUSH1 0x1 SWAP3 POP POP POP SWAP4 SWAP3 POP POP POP JUMP JUMPDEST PUSH1 0x3 PUSH1 0x0 SWAP1 SLOAD SWAP1 PUSH2 0x100 EXP SWAP1 DIV PUSH20 0xFFFFFFFFFFFFFFFFFFFFFFFFFFFFFFFFFFFFFFFF AND PUSH20 0xFFFFFFFFFFFFFFFFFFFFFFFFFFFFFFFFFFFFFFFF AND CALLER PUSH20 0xFFFFFFFFFFFFFFFFFFFFFFFFFFFFFFFFFFFFFFFF AND EQ PUSH3 0x5A1 JUMPI PUSH1 0x40 MLOAD PUSH32 0x8C379A000000000000000000000000000000000000000000000000000000000 DUP2 MSTORE PUSH1 0x4 ADD PUSH3 0x598 SWAP1 PUSH3 0x185C JUMP JUMPDEST PUSH1 0x40 MLOAD DUP1 SWAP2 SUB SWAP1 REVERT JUMPDEST DUP1 PUSH1 0x3 PUSH1 0x0 PUSH2 0x100 EXP DUP2 SLOAD DUP2 PUSH20 0xFFFFFFFFFFFFFFFFFFFFFFFFFFFFFFFFFFFFFFFF MUL NOT AND SWAP1 DUP4 PUSH20 0xFFFFFFFFFFFFFFFFFFFFFFFFFFFFFFFFFFFFFFFF AND MUL OR SWAP1 SSTORE POP POP JUMP JUMPDEST PUSH1 0x0 PUSH1 0x4 PUSH1 0x0 DUP5 PUSH20 0xFFFFFFFFFFFFFFFFFFFFFFFFFFFFFFFFFFFFFFFF AND PUSH20 0xFFFFFFFFFFFFFFFFFFFFFFFFFFFFFFFFFFFFFFFF AND DUP2 MSTORE PUSH1 0x20 ADD SWAP1 DUP2 MSTORE PUSH1 0x20 ADD PUSH1 0x0 KECCAK256 PUSH1 0x0 DUP4 PUSH20 0xFFFFFFFFFFFFFFFFFFFFFFFFFFFFFFFFFFFFFFFF AND PUSH20 0xFFFFFFFFFFFFFFFFFFFFFFFFFFFFFFFFFFFFFFFF AND DUP2 MSTORE PUSH1 0x20 ADD SWAP1 DUP2 MSTORE PUSH1 0x20 ADD PUSH1 0x0 KECCAK256 PUSH1 0x0 SWAP1 SLOAD SWAP1 PUSH2 0x100 EXP SWAP1 DIV PUSH20 0xFFFFFFFFFFFFFFFFFFFFFFFFFFFFFFFFFFFFFFFF AND SWAP1 POP SWAP3 SWAP2 POP POP JUMP JUMPDEST PUSH1 0x0 PUSH3 0x69A DUP4 DUP4 PUSH3 0x1037 JUMP JUMPDEST DUP2 PUSH20 0xFFFFFFFFFFFFFFFFFFFFFFFFFFFFFFFFFFFFFFFF AND DUP4 PUSH20 0xFFFFFFFFFFFFFFFFFFFFFFFFFFFFFFFFFFFFFFFF AND SUB PUSH3 0x70B JUMPI PUSH1 0x40 MLOAD PUSH32 0x8C379A000000000000000000000000000000000000000000000000000000000 DUP2 MSTORE PUSH1 0x4 ADD PUSH3 0x702 SWAP1 PUSH3 0x18CE JUMP JUMPDEST PUSH1 0x40 MLOAD DUP1 SWAP2 SUB SWAP1 REVERT JUMPDEST PUSH3 0x74B PUSH1 0x40 MLOAD DUP1 PUSH1 0x40 ADD PUSH1 0x40 MSTORE DUP1 PUSH1 0xF DUP2 MSTORE PUSH1 0x20 ADD PUSH32 0x646966666572656E7420746F6B656E0000000000000000000000000000000000 DUP2 MSTORE POP PUSH3 0x10D7 JUMP JUMPDEST PUSH1 0x0 DUP1 DUP4 PUSH20 0xFFFFFFFFFFFFFFFFFFFFFFFFFFFFFFFFFFFFFFFF AND DUP6 PUSH20 0xFFFFFFFFFFFFFFFFFFFFFFFFFFFFFFFFFFFFFFFF AND LT PUSH3 0x78A JUMPI DUP4 DUP6 PUSH3 0x78D JUMP JUMPDEST DUP5 DUP5 JUMPDEST SWAP2 POP SWAP2 POP PUSH1 0x0 PUSH20 0xFFFFFFFFFFFFFFFFFFFFFFFFFFFFFFFFFFFFFFFF AND DUP3 PUSH20 0xFFFFFFFFFFFFFFFFFFFFFFFFFFFFFFFFFFFFFFFF AND SUB PUSH3 0x803 JUMPI PUSH1 0x40 MLOAD PUSH32 0x8C379A000000000000000000000000000000000000000000000000000000000 DUP2 MSTORE PUSH1 0x4 ADD PUSH3 0x7FA SWAP1 PUSH3 0x1940 JUMP JUMPDEST PUSH1 0x40 MLOAD DUP1 SWAP2 SUB SWAP1 REVERT JUMPDEST PUSH1 0x0 PUSH20 0xFFFFFFFFFFFFFFFFFFFFFFFFFFFFFFFFFFFFFFFF AND PUSH1 0x4 PUSH1 0x0 DUP5 PUSH20 0xFFFFFFFFFFFFFFFFFFFFFFFFFFFFFFFFFFFFFFFF AND PUSH20 0xFFFFFFFFFFFFFFFFFFFFFFFFFFFFFFFFFFFFFFFF AND DUP2 MSTORE PUSH1 0x20 ADD SWAP1 DUP2 MSTORE PUSH1 0x20 ADD PUSH1 0x0 KECCAK256 PUSH1 0x0 DUP4 PUSH20 0xFFFFFFFFFFFFFFFFFFFFFFFFFFFFFFFFFFFFFFFF AND PUSH20 0xFFFFFFFFFFFFFFFFFFFFFFFFFFFFFFFFFFFFFFFF AND DUP2 MSTORE PUSH1 0x20 ADD SWAP1 DUP2 MSTORE PUSH1 0x20 ADD PUSH1 0x0 KECCAK256 PUSH1 0x0 SWAP1 SLOAD SWAP1 PUSH2 0x100 EXP SWAP1 DIV PUSH20 0xFFFFFFFFFFFFFFFFFFFFFFFFFFFFFFFFFFFFFFFF AND PUSH20 0xFFFFFFFFFFFFFFFFFFFFFFFFFFFFFFFFFFFFFFFF AND EQ PUSH3 0x911 JUMPI PUSH1 0x40 MLOAD PUSH32 0x8C379A000000000000000000000000000000000000000000000000000000000 DUP2 MSTORE PUSH1 0x4 ADD PUSH3 0x908 SWAP1 PUSH3 0x19B2 JUMP JUMPDEST PUSH1 0x40 MLOAD DUP1 SWAP2 SUB SWAP1 REVERT JUMPDEST PUSH3 0x951 PUSH1 0x40 MLOAD DUP1 PUSH1 0x40 ADD PUSH1 0x40 MSTORE DUP1 PUSH1 0x11 DUP2 MSTORE PUSH1 0x20 ADD PUSH32 0x617661696C61626C652061646472657373000000000000000000000000000000 DUP2 MSTORE POP PUSH3 0x10D7 JUMP JUMPDEST PUSH1 0x0 DUP6 PUSH20 0xFFFFFFFFFFFFFFFFFFFFFFFFFFFFFFFFFFFFFFFF AND PUSH4 0x6FDDE03 PUSH1 0x40 MLOAD DUP2 PUSH4 0xFFFFFFFF AND PUSH1 0xE0 SHL DUP2 MSTORE PUSH1 0x4 ADD PUSH1 0x0 PUSH1 0x40 MLOAD DUP1 DUP4 SUB DUP2 DUP7 GAS STATICCALL ISZERO DUP1 ISZERO PUSH3 0x99F JUMPI RETURNDATASIZE PUSH1 0x0 DUP1 RETURNDATACOPY RETURNDATASIZE PUSH1 0x0 REVERT JUMPDEST POP POP POP POP PUSH1 0x40 MLOAD RETURNDATASIZE PUSH1 0x0 DUP3 RETURNDATACOPY RETURNDATASIZE PUSH1 0x1F NOT PUSH1 0x1F DUP3 ADD AND DUP3 ADD DUP1 PUSH1 0x40 MSTORE POP DUP2 ADD SWAP1 PUSH3 0x9CA SWAP2 SWAP1 PUSH3 0x1A8D JUMP JUMPDEST SWAP1 POP PUSH1 0x0 DUP6 PUSH20 0xFFFFFFFFFFFFFFFFFFFFFFFFFFFFFFFFFFFFFFFF AND PUSH4 0x6FDDE03 PUSH1 0x40 MLOAD DUP2 PUSH4 0xFFFFFFFF AND PUSH1 0xE0 SHL DUP2 MSTORE PUSH1 0x4 ADD PUSH1 0x0 PUSH1 0x40 MLOAD DUP1 DUP4 SUB DUP2 DUP7 GAS STATICCALL ISZERO DUP1 ISZERO PUSH3 0xA1A JUMPI RETURNDATASIZE PUSH1 0x0 DUP1 RETURNDATACOPY RETURNDATASIZE PUSH1 0x0 REVERT JUMPDEST POP POP POP POP PUSH1 0x40 MLOAD RETURNDATASIZE PUSH1 0x0 DUP3 RETURNDATACOPY RETURNDATASIZE PUSH1 0x1F NOT PUSH1 0x1F DUP3 ADD AND DUP3 ADD DUP1 PUSH1 0x40 MSTORE POP DUP2 ADD SWAP1 PUSH3 0xA45 SWAP2 SWAP1 PUSH3 0x1A8D JUMP JUMPDEST SWAP1 POP PUSH1 0x0 DUP8 PUSH20 0xFFFFFFFFFFFFFFFFFFFFFFFFFFFFFFFFFFFFFFFF AND PUSH4 0x95D89B41 PUSH1 0x40 MLOAD DUP2 PUSH4 0xFFFFFFFF AND PUSH1 0xE0 SHL DUP2 MSTORE PUSH1 0x4 ADD PUSH1 0x0 PUSH1 0x40 MLOAD DUP1 DUP4 SUB DUP2 DUP7 GAS STATICCALL ISZERO DUP1 ISZERO PUSH3 0xA95 JUMPI RETURNDATASIZE PUSH1 0x0 DUP1 RETURNDATACOPY RETURNDATASIZE PUSH1 0x0 REVERT JUMPDEST POP POP POP POP PUSH1 0x40 MLOAD RETURNDATASIZE PUSH1 0x0 DUP3 RETURNDATACOPY RETURNDATASIZE PUSH1 0x1F NOT PUSH1 0x1F DUP3 ADD AND DUP3 ADD DUP1 PUSH1 0x40 MSTORE POP DUP2 ADD SWAP1 PUSH3 0xAC0 SWAP2 SWAP1 PUSH3 0x1A8D JUMP JUMPDEST SWAP1 POP PUSH1 0x0 DUP8 PUSH20 0xFFFFFFFFFFFFFFFFFFFFFFFFFFFFFFFFFFFFFFFF AND PUSH4 0x95D89B41 PUSH1 0x40 MLOAD DUP2 PUSH4 0xFFFFFFFF AND PUSH1 0xE0 SHL DUP2 MSTORE PUSH1 0x4 ADD PUSH1 0x0 PUSH1 0x40 MLOAD DUP1 DUP4 SUB DUP2 DUP7 GAS STATICCALL ISZERO DUP1 ISZERO PUSH3 0xB10 JUMPI RETURNDATASIZE PUSH1 0x0 DUP1 RETURNDATACOPY RETURNDATASIZE PUSH1 0x0 REVERT JUMPDEST POP POP POP POP PUSH1 0x40 MLOAD RETURNDATASIZE PUSH1 0x0 DUP3 RETURNDATACOPY RETURNDATASIZE PUSH1 0x1F NOT PUSH1 0x1F DUP3 ADD AND DUP3 ADD DUP1 PUSH1 0x40 MSTORE POP DUP2 ADD SWAP1 PUSH3 0xB3B SWAP2 SWAP1 PUSH3 0x1A8D JUMP JUMPDEST SWAP1 POP PUSH1 0x0 DUP5 DUP5 PUSH1 0x40 MLOAD PUSH1 0x20 ADD PUSH3 0xB54 SWAP3 SWAP2 SWAP1 PUSH3 0x1B7B JUMP JUMPDEST PUSH1 0x40 MLOAD PUSH1 0x20 DUP2 DUP4 SUB SUB DUP2 MSTORE SWAP1 PUSH1 0x40 MSTORE SWAP1 POP PUSH1 0x0 DUP4 DUP4 PUSH1 0x40 MLOAD PUSH1 0x20 ADD PUSH3 0xB7C SWAP3 SWAP2 SWAP1 PUSH3 0x1BB0 JUMP JUMPDEST PUSH1 0x40 MLOAD PUSH1 0x20 DUP2 DUP4 SUB SUB DUP2 MSTORE SWAP1 PUSH1 0x40 MSTORE SWAP1 POP PUSH1 0x0 DUP3 DUP3 PUSH1 0x40 MLOAD PUSH3 0xB9F SWAP1 PUSH3 0x125C JUMP JUMPDEST PUSH3 0xBAC SWAP3 SWAP2 SWAP1 PUSH3 0x1C19 JUMP JUMPDEST PUSH1 0x40 MLOAD DUP1 SWAP2 SUB SWAP1 PUSH1 0x0 CREATE DUP1 ISZERO DUP1 ISZERO PUSH3 0xBC9 JUMPI RETURNDATASIZE PUSH1 0x0 DUP1 RETURNDATACOPY RETURNDATASIZE PUSH1 0x0 REVERT JUMPDEST POP SWAP1 POP PUSH1 0x0 DUP2 SWAP1 POP PUSH3 0xBDC DUP2 PUSH3 0x1174 JUMP JUMPDEST DUP1 PUSH20 0xFFFFFFFFFFFFFFFFFFFFFFFFFFFFFFFFFFFFFFFF AND PUSH4 0x485CC955 DUP12 DUP12 PUSH1 0x40 MLOAD DUP4 PUSH4 0xFFFFFFFF AND PUSH1 0xE0 SHL DUP2 MSTORE PUSH1 0x4 ADD PUSH3 0xC19 SWAP3 SWAP2 SWAP1 PUSH3 0x17CE JUMP JUMPDEST PUSH1 0x0 PUSH1 0x40 MLOAD DUP1 DUP4 SUB DUP2 PUSH1 0x0 DUP8 DUP1 EXTCODESIZE ISZERO DUP1 ISZERO PUSH3 0xC34 JUMPI PUSH1 0x0 DUP1 REVERT JUMPDEST POP GAS CALL ISZERO DUP1 ISZERO PUSH3 0xC49 JUMPI RETURNDATASIZE PUSH1 0x0 DUP1 RETURNDATACOPY RETURNDATASIZE PUSH1 0x0 REVERT JUMPDEST POP POP POP POP DUP1 PUSH1 0x4 PUSH1 0x0 DUP13 PUSH20 0xFFFFFFFFFFFFFFFFFFFFFFFFFFFFFFFFFFFFFFFF AND PUSH20 0xFFFFFFFFFFFFFFFFFFFFFFFFFFFFFFFFFFFFFFFF AND DUP2 MSTORE PUSH1 0x20 ADD SWAP1 DUP2 MSTORE PUSH1 0x20 ADD PUSH1 0x0 KECCAK256 PUSH1 0x0 DUP12 PUSH20 0xFFFFFFFFFFFFFFFFFFFFFFFFFFFFFFFFFFFFFFFF AND PUSH20 0xFFFFFFFFFFFFFFFFFFFFFFFFFFFFFFFFFFFFFFFF AND DUP2 MSTORE PUSH1 0x20 ADD SWAP1 DUP2 MSTORE PUSH1 0x20 ADD PUSH1 0x0 KECCAK256 PUSH1 0x0 PUSH2 0x100 EXP DUP2 SLOAD DUP2 PUSH20 0xFFFFFFFFFFFFFFFFFFFFFFFFFFFFFFFFFFFFFFFF MUL NOT AND SWAP1 DUP4 PUSH20 0xFFFFFFFFFFFFFFFFFFFFFFFFFFFFFFFFFFFFFFFF AND MUL OR SWAP1 SSTORE POP DUP1 PUSH1 0x4 PUSH1 0x0 DUP12 PUSH20 0xFFFFFFFFFFFFFFFFFFFFFFFFFFFFFFFFFFFFFFFF AND PUSH20 0xFFFFFFFFFFFFFFFFFFFFFFFFFFFFFFFFFFFFFFFF AND DUP2 MSTORE PUSH1 0x20 ADD SWAP1 DUP2 MSTORE PUSH1 0x20 ADD PUSH1 0x0 KECCAK256 PUSH1 0x0 DUP13 PUSH20 0xFFFFFFFFFFFFFFFFFFFFFFFFFFFFFFFFFFFFFFFF AND PUSH20 0xFFFFFFFFFFFFFFFFFFFFFFFFFFFFFFFFFFFFFFFF AND DUP2 MSTORE PUSH1 0x20 ADD SWAP1 DUP2 MSTORE PUSH1 0x20 ADD PUSH1 0x0 KECCAK256 PUSH1 0x0 PUSH2 0x100 EXP DUP2 SLOAD DUP2 PUSH20 0xFFFFFFFFFFFFFFFFFFFFFFFFFFFFFFFFFFFFFFFF MUL NOT AND SWAP1 DUP4 PUSH20 0xFFFFFFFFFFFFFFFFFFFFFFFFFFFFFFFFFFFFFFFF AND MUL OR SWAP1 SSTORE POP PUSH1 0x0 DUP1 SLOAD SWAP1 PUSH2 0x100 EXP SWAP1 DIV PUSH20 0xFFFFFFFFFFFFFFFFFFFFFFFFFFFFFFFFFFFFFFFF AND PUSH20 0xFFFFFFFFFFFFFFFFFFFFFFFFFFFFFFFFFFFFFFFF AND PUSH4 0xC2B7BBB6 DUP3 PUSH1 0x40 MLOAD DUP3 PUSH4 0xFFFFFFFF AND PUSH1 0xE0 SHL DUP2 MSTORE PUSH1 0x4 ADD PUSH3 0xE1E SWAP2 SWAP1 PUSH3 0x1379 JUMP JUMPDEST PUSH1 0x0 PUSH1 0x40 MLOAD DUP1 DUP4 SUB DUP2 PUSH1 0x0 DUP8 DUP1 EXTCODESIZE ISZERO DUP1 ISZERO PUSH3 0xE39 JUMPI PUSH1 0x0 DUP1 REVERT JUMPDEST POP GAS CALL ISZERO DUP1 ISZERO PUSH3 0xE4E JUMPI RETURNDATASIZE PUSH1 0x0 DUP1 RETURNDATACOPY RETURNDATASIZE PUSH1 0x0 REVERT JUMPDEST POP POP POP POP DUP9 PUSH20 0xFFFFFFFFFFFFFFFFFFFFFFFFFFFFFFFFFFFFFFFF AND DUP11 PUSH20 0xFFFFFFFFFFFFFFFFFFFFFFFFFFFFFFFFFFFFFFFF AND PUSH32 0xD3648BD0F6BA80134A33BA9275AC585D9D315F0AD8355CDDEFDE31AFA28D0E9 DUP4 PUSH1 0x0 DUP1 SLOAD SWAP1 PUSH2 0x100 EXP SWAP1 DIV PUSH20 0xFFFFFFFFFFFFFFFFFFFFFFFFFFFFFFFFFFFFFFFF AND PUSH20 0xFFFFFFFFFFFFFFFFFFFFFFFFFFFFFFFFFFFFFFFF AND PUSH4 0x574F2BA3 PUSH1 0x40 MLOAD DUP2 PUSH4 0xFFFFFFFF AND PUSH1 0xE0 SHL DUP2 MSTORE PUSH1 0x4 ADD PUSH1 0x20 PUSH1 0x40 MLOAD DUP1 DUP4 SUB DUP2 DUP7 GAS STATICCALL ISZERO DUP1 ISZERO PUSH3 0xF0E JUMPI RETURNDATASIZE PUSH1 0x0 DUP1 RETURNDATACOPY RETURNDATASIZE PUSH1 0x0 REVERT JUMPDEST POP POP POP POP PUSH1 0x40 MLOAD RETURNDATASIZE PUSH1 0x1F NOT PUSH1 0x1F DUP3 ADD AND DUP3 ADD DUP1 PUSH1 0x40 MSTORE POP DUP2 ADD SWAP1 PUSH3 0xF34 SWAP2 SWAP1 PUSH3 0x1525 JUMP JUMPDEST PUSH1 0x40 MLOAD PUSH3 0xF44 SWAP3 SWAP2 SWAP1 PUSH3 0x1C65 JUMP JUMPDEST PUSH1 0x40 MLOAD DUP1 SWAP2 SUB SWAP1 LOG3 PUSH1 0x1 SWAP11 POP POP POP POP POP POP POP POP POP POP POP SWAP3 SWAP2 POP POP JUMP JUMPDEST PUSH1 0x3 PUSH1 0x0 SWAP1 SLOAD SWAP1 PUSH2 0x100 EXP SWAP1 DIV PUSH20 0xFFFFFFFFFFFFFFFFFFFFFFFFFFFFFFFFFFFFFFFF AND PUSH20 0xFFFFFFFFFFFFFFFFFFFFFFFFFFFFFFFFFFFFFFFF AND CALLER PUSH20 0xFFFFFFFFFFFFFFFFFFFFFFFFFFFFFFFFFFFFFFFF AND EQ PUSH3 0xFF3 JUMPI PUSH1 0x40 MLOAD PUSH32 0x8C379A000000000000000000000000000000000000000000000000000000000 DUP2 MSTORE PUSH1 0x4 ADD PUSH3 0xFEA SWAP1 PUSH3 0x185C JUMP JUMPDEST PUSH1 0x40 MLOAD DUP1 SWAP2 SUB SWAP1 REVERT JUMPDEST DUP1 PUSH1 0x2 PUSH1 0x0 PUSH2 0x100 EXP DUP2 SLOAD DUP2 PUSH20 0xFFFFFFFFFFFFFFFFFFFFFFFFFFFFFFFFFFFFFFFF MUL NOT AND SWAP1 DUP4 PUSH20 0xFFFFFFFFFFFFFFFFFFFFFFFFFFFFFFFFFFFFFFFF AND MUL OR SWAP1 SSTORE POP POP JUMP JUMPDEST PUSH3 0x10D3 DUP3 DUP3 PUSH1 0x40 MLOAD PUSH1 0x24 ADD PUSH3 0x1050 SWAP3 SWAP2 SWAP1 PUSH3 0x17CE JUMP JUMPDEST PUSH1 0x40 MLOAD PUSH1 0x20 DUP2 DUP4 SUB SUB DUP2 MSTORE SWAP1 PUSH1 0x40 MSTORE PUSH32 0xDAF0D4AA00000000000000000000000000000000000000000000000000000000 PUSH28 0xFFFFFFFFFFFFFFFFFFFFFFFFFFFFFFFFFFFFFFFFFFFFFFFFFFFFFFFF NOT AND PUSH1 0x20 DUP3 ADD DUP1 MLOAD PUSH28 0xFFFFFFFFFFFFFFFFFFFFFFFFFFFFFFFFFFFFFFFFFFFFFFFFFFFFFFFF DUP4 DUP2 DUP4 AND OR DUP4 MSTORE POP POP POP POP PUSH3 0x1211 JUMP JUMPDEST POP POP JUMP JUMPDEST PUSH3 0x1171 DUP2 PUSH1 0x40 MLOAD PUSH1 0x24 ADD PUSH3 0x10EE SWAP2 SWAP1 PUSH3 0x1C92 JUMP JUMPDEST PUSH1 0x40 MLOAD PUSH1 0x20 DUP2 DUP4 SUB SUB DUP2 MSTORE SWAP1 PUSH1 0x40 MSTORE PUSH32 0x41304FAC00000000000000000000000000000000000000000000000000000000 PUSH28 0xFFFFFFFFFFFFFFFFFFFFFFFFFFFFFFFFFFFFFFFFFFFFFFFFFFFFFFFF NOT AND PUSH1 0x20 DUP3 ADD DUP1 MLOAD PUSH28 0xFFFFFFFFFFFFFFFFFFFFFFFFFFFFFFFFFFFFFFFFFFFFFFFFFFFFFFFF DUP4 DUP2 DUP4 AND OR DUP4 MSTORE POP POP POP POP PUSH3 0x1211 JUMP JUMPDEST POP JUMP JUMPDEST PUSH3 0x120E DUP2 PUSH1 0x40 MLOAD PUSH1 0x24 ADD PUSH3 0x118B SWAP2 SWAP1 PUSH3 0x1379 JUMP JUMPDEST PUSH1 0x40 MLOAD PUSH1 0x20 DUP2 DUP4 SUB SUB DUP2 MSTORE SWAP1 PUSH1 0x40 MSTORE PUSH32 0x2C2ECBC200000000000000000000000000000000000000000000000000000000 PUSH28 0xFFFFFFFFFFFFFFFFFFFFFFFFFFFFFFFFFFFFFFFFFFFFFFFFFFFFFFFF NOT AND PUSH1 0x20 DUP3 ADD DUP1 MLOAD PUSH28 0xFFFFFFFFFFFFFFFFFFFFFFFFFFFFFFFFFFFFFFFFFFFFFFFFFFFFFFFF DUP4 DUP2 DUP4 AND OR DUP4 MSTORE POP POP POP POP PUSH3 0x1211 JUMP JUMPDEST POP JUMP JUMPDEST PUSH3 0x122C DUP2 PUSH3 0x1224 PUSH3 0x122F PUSH3 0x1250 JUMP JUMPDEST PUSH4 0xFFFFFFFF AND JUMP JUMPDEST POP JUMP JUMPDEST PUSH1 0x0 PUSH11 0x636F6E736F6C652E6C6F67 SWAP1 POP PUSH1 0x0 DUP1 DUP4 MLOAD PUSH1 0x20 DUP6 ADD DUP5 GAS STATICCALL POP POP POP JUMP JUMPDEST PUSH3 0x126A DUP2 SWAP1 POP SWAP2 SWAP1 POP JUMP JUMPDEST PUSH2 0x3F37 DUP1 PUSH3 0x1CE6 DUP4 CODECOPY ADD SWAP1 JUMP JUMPDEST PUSH3 0x1274 PUSH3 0x1CB6 JUMP JUMPDEST JUMP JUMPDEST PUSH1 0x0 DUP2 MLOAD SWAP1 POP SWAP2 SWAP1 POP JUMP JUMPDEST PUSH1 0x0 DUP3 DUP3 MSTORE PUSH1 0x20 DUP3 ADD SWAP1 POP SWAP3 SWAP2 POP POP JUMP JUMPDEST PUSH1 0x0 JUMPDEST DUP4 DUP2 LT ISZERO PUSH3 0x12B2 JUMPI DUP1 DUP3 ADD MLOAD DUP2 DUP5 ADD MSTORE PUSH1 0x20 DUP2 ADD SWAP1 POP PUSH3 0x1295 JUMP JUMPDEST PUSH1 0x0 DUP5 DUP5 ADD MSTORE POP POP POP POP JUMP JUMPDEST PUSH1 0x0 PUSH1 0x1F NOT PUSH1 0x1F DUP4 ADD AND SWAP1 POP SWAP2 SWAP1 POP JUMP JUMPDEST PUSH1 0x0 PUSH3 0x12DC DUP3 PUSH3 0x1276 JUMP JUMPDEST PUSH3 0x12E8 DUP2 DUP6 PUSH3 0x1281 JUMP JUMPDEST SWAP4 POP PUSH3 0x12FA DUP2 DUP6 PUSH1 0x20 DUP7 ADD PUSH3 0x1292 JUMP JUMPDEST PUSH3 0x1305 DUP2 PUSH3 0x12BE JUMP JUMPDEST DUP5 ADD SWAP2 POP POP SWAP3 SWAP2 POP POP JUMP JUMPDEST PUSH1 0x0 PUSH1 0x20 DUP3 ADD SWAP1 POP DUP2 DUP2 SUB PUSH1 0x0 DUP4 ADD MSTORE PUSH3 0x132C DUP2 DUP5 PUSH3 0x12CF JUMP JUMPDEST SWAP1 POP SWAP3 SWAP2 POP POP JUMP JUMPDEST PUSH1 0x0 PUSH20 0xFFFFFFFFFFFFFFFFFFFFFFFFFFFFFFFFFFFFFFFF DUP3 AND SWAP1 POP SWAP2 SWAP1 POP JUMP JUMPDEST PUSH1 0x0 PUSH3 0x1361 DUP3 PUSH3 0x1334 JUMP JUMPDEST SWAP1 POP SWAP2 SWAP1 POP JUMP JUMPDEST PUSH3 0x1373 DUP2 PUSH3 0x1354 JUMP JUMPDEST DUP3 MSTORE POP POP JUMP JUMPDEST PUSH1 0x0 PUSH1 0x20 DUP3 ADD SWAP1 POP PUSH3 0x1390 PUSH1 0x0 DUP4 ADD DUP5 PUSH3 0x1368 JUMP JUMPDEST SWAP3 SWAP2 POP POP JUMP JUMPDEST PUSH1 0x0 PUSH1 0x40 MLOAD SWAP1 POP SWAP1 JUMP JUMPDEST PUSH1 0x0 DUP1 REVERT JUMPDEST PUSH1 0x0 DUP1 REVERT JUMPDEST PUSH3 0x13B5 DUP2 PUSH3 0x1354 JUMP JUMPDEST DUP2 EQ PUSH3 0x13C1 JUMPI PUSH1 0x0 DUP1 REVERT JUMPDEST POP JUMP JUMPDEST PUSH1 0x0 DUP2 CALLDATALOAD SWAP1 POP PUSH3 0x13D5 DUP2 PUSH3 0x13AA JUMP JUMPDEST SWAP3 SWAP2 POP POP JUMP JUMPDEST PUSH1 0x0 DUP1 PUSH1 0x0 PUSH1 0x60 DUP5 DUP7 SUB SLT ISZERO PUSH3 0x13F7 JUMPI PUSH3 0x13F6 PUSH3 0x13A0 JUMP JUMPDEST JUMPDEST PUSH1 0x0 PUSH3 0x1407 DUP7 DUP3 DUP8 ADD PUSH3 0x13C4 JUMP JUMPDEST SWAP4 POP POP PUSH1 0x20 PUSH3 0x141A DUP7 DUP3 DUP8 ADD PUSH3 0x13C4 JUMP JUMPDEST SWAP3 POP POP PUSH1 0x40 PUSH3 0x142D DUP7 DUP3 DUP8 ADD PUSH3 0x13C4 JUMP JUMPDEST SWAP2 POP POP SWAP3 POP SWAP3 POP SWAP3 JUMP JUMPDEST PUSH1 0x0 DUP2 ISZERO ISZERO SWAP1 POP SWAP2 SWAP1 POP JUMP JUMPDEST PUSH3 0x144E DUP2 PUSH3 0x1437 JUMP JUMPDEST DUP3 MSTORE POP POP JUMP JUMPDEST PUSH1 0x0 PUSH1 0x20 DUP3 ADD SWAP1 POP PUSH3 0x146B PUSH1 0x0 DUP4 ADD DUP5 PUSH3 0x1443 JUMP JUMPDEST SWAP3 SWAP2 POP POP JUMP JUMPDEST PUSH1 0x0 PUSH1 0x20 DUP3 DUP5 SUB SLT ISZERO PUSH3 0x148A JUMPI PUSH3 0x1489 PUSH3 0x13A0 JUMP JUMPDEST JUMPDEST PUSH1 0x0 PUSH3 0x149A DUP5 DUP3 DUP6 ADD PUSH3 0x13C4 JUMP JUMPDEST SWAP2 POP POP SWAP3 SWAP2 POP POP JUMP JUMPDEST PUSH1 0x0 DUP1 PUSH1 0x40 DUP4 DUP6 SUB SLT ISZERO PUSH3 0x14BD JUMPI PUSH3 0x14BC PUSH3 0x13A0 JUMP JUMPDEST JUMPDEST PUSH1 0x0 PUSH3 0x14CD DUP6 DUP3 DUP7 ADD PUSH3 0x13C4 JUMP JUMPDEST SWAP3 POP POP PUSH1 0x20 PUSH3 0x14E0 DUP6 DUP3 DUP7 ADD PUSH3 0x13C4 JUMP JUMPDEST SWAP2 POP POP SWAP3 POP SWAP3 SWAP1 POP JUMP JUMPDEST PUSH1 0x0 DUP2 SWAP1 POP SWAP2 SWAP1 POP JUMP JUMPDEST PUSH3 0x14FF DUP2 PUSH3 0x14EA JUMP JUMPDEST DUP2 EQ PUSH3 0x150B JUMPI PUSH1 0x0 DUP1 REVERT JUMPDEST POP JUMP JUMPDEST PUSH1 0x0 DUP2 MLOAD SWAP1 POP PUSH3 0x151F DUP2 PUSH3 0x14F4 JUMP JUMPDEST SWAP3 SWAP2 POP POP JUMP JUMPDEST PUSH1 0x0 PUSH1 0x20 DUP3 DUP5 SUB SLT ISZERO PUSH3 0x153E JUMPI PUSH3 0x153D PUSH3 0x13A0 JUMP JUMPDEST JUMPDEST PUSH1 0x0 PUSH3 0x154E DUP5 DUP3 DUP6 ADD PUSH3 0x150E JUMP JUMPDEST SWAP2 POP POP SWAP3 SWAP2 POP POP JUMP JUMPDEST PUSH1 0x0 DUP1 REVERT JUMPDEST PUSH32 0x4E487B7100000000000000000000000000000000000000000000000000000000 PUSH1 0x0 MSTORE PUSH1 0x41 PUSH1 0x4 MSTORE PUSH1 0x24 PUSH1 0x0 REVERT JUMPDEST PUSH3 0x1596 DUP3 PUSH3 0x12BE JUMP JUMPDEST DUP2 ADD DUP2 DUP2 LT PUSH8 0xFFFFFFFFFFFFFFFF DUP3 GT OR ISZERO PUSH3 0x15B8 JUMPI PUSH3 0x15B7 PUSH3 0x155C JUMP JUMPDEST JUMPDEST DUP1 PUSH1 0x40 MSTORE POP POP POP JUMP JUMPDEST PUSH1 0x0 PUSH3 0x15CD PUSH3 0x1396 JUMP JUMPDEST SWAP1 POP PUSH3 0x15DB DUP3 DUP3 PUSH3 0x158B JUMP JUMPDEST SWAP2 SWAP1 POP JUMP JUMPDEST PUSH1 0x0 PUSH8 0xFFFFFFFFFFFFFFFF DUP3 GT ISZERO PUSH3 0x15FE JUMPI PUSH3 0x15FD PUSH3 0x155C JUMP JUMPDEST JUMPDEST PUSH1 0x20 DUP3 MUL SWAP1 POP PUSH1 0x20 DUP2 ADD SWAP1 POP SWAP2 SWAP1 POP JUMP JUMPDEST PUSH1 0x0 DUP1 REVERT JUMPDEST PUSH1 0x0 DUP2 MLOAD SWAP1 POP PUSH3 0x1625 DUP2 PUSH3 0x13AA JUMP JUMPDEST SWAP3 SWAP2 POP POP JUMP JUMPDEST PUSH1 0x0 PUSH3 0x1642 PUSH3 0x163C DUP5 PUSH3 0x15E0 JUMP JUMPDEST PUSH3 0x15C1 JUMP JUMPDEST SWAP1 POP DUP1 DUP4 DUP3 MSTORE PUSH1 0x20 DUP3 ADD SWAP1 POP PUSH1 0x20 DUP5 MUL DUP4 ADD DUP6 DUP2 GT ISZERO PUSH3 0x1668 JUMPI PUSH3 0x1667 PUSH3 0x160F JUMP JUMPDEST JUMPDEST DUP4 JUMPDEST DUP2 DUP2 LT ISZERO PUSH3 0x1695 JUMPI DUP1 PUSH3 0x1680 DUP9 DUP3 PUSH3 0x1614 JUMP JUMPDEST DUP5 MSTORE PUSH1 0x20 DUP5 ADD SWAP4 POP POP PUSH1 0x20 DUP2 ADD SWAP1 POP PUSH3 0x166A JUMP JUMPDEST POP POP POP SWAP4 SWAP3 POP POP POP JUMP JUMPDEST PUSH1 0x0 DUP3 PUSH1 0x1F DUP4 ADD SLT PUSH3 0x16B7 JUMPI PUSH3 0x16B6 PUSH3 0x1557 JUMP JUMPDEST JUMPDEST DUP2 MLOAD PUSH3 0x16C9 DUP5 DUP3 PUSH1 0x20 DUP7 ADD PUSH3 0x162B JUMP JUMPDEST SWAP2 POP POP SWAP3 SWAP2 POP POP JUMP JUMPDEST PUSH1 0x0 PUSH1 0x20 DUP3 DUP5 SUB SLT ISZERO PUSH3 0x16EB JUMPI PUSH3 0x16EA PUSH3 0x13A0 JUMP JUMPDEST JUMPDEST PUSH1 0x0 DUP3 ADD MLOAD PUSH8 0xFFFFFFFFFFFFFFFF DUP2 GT ISZERO PUSH3 0x170C JUMPI PUSH3 0x170B PUSH3 0x13A5 JUMP JUMPDEST JUMPDEST PUSH3 0x171A DUP5 DUP3 DUP6 ADD PUSH3 0x169F JUMP JUMPDEST SWAP2 POP POP SWAP3 SWAP2 POP POP JUMP JUMPDEST PUSH32 0x4E487B7100000000000000000000000000000000000000000000000000000000 PUSH1 0x0 MSTORE PUSH1 0x32 PUSH1 0x4 MSTORE PUSH1 0x24 PUSH1 0x0 REVERT JUMPDEST PUSH32 0x4E487B7100000000000000000000000000000000000000000000000000000000 PUSH1 0x0 MSTORE PUSH1 0x11 PUSH1 0x4 MSTORE PUSH1 0x24 PUSH1 0x0 REVERT JUMPDEST PUSH1 0x0 PUSH3 0x178E DUP3 PUSH3 0x14EA JUMP JUMPDEST SWAP2 POP PUSH32 0xFFFFFFFFFFFFFFFFFFFFFFFFFFFFFFFFFFFFFFFFFFFFFFFFFFFFFFFFFFFFFFFF DUP3 SUB PUSH3 0x17C3 JUMPI PUSH3 0x17C2 PUSH3 0x1752 JUMP JUMPDEST JUMPDEST PUSH1 0x1 DUP3 ADD SWAP1 POP SWAP2 SWAP1 POP JUMP JUMPDEST PUSH1 0x0 PUSH1 0x40 DUP3 ADD SWAP1 POP PUSH3 0x17E5 PUSH1 0x0 DUP4 ADD DUP6 PUSH3 0x1368 JUMP JUMPDEST PUSH3 0x17F4 PUSH1 0x20 DUP4 ADD DUP5 PUSH3 0x1368 JUMP JUMPDEST SWAP4 SWAP3 POP POP POP JUMP JUMPDEST PUSH1 0x0 DUP3 DUP3 MSTORE PUSH1 0x20 DUP3 ADD SWAP1 POP SWAP3 SWAP2 POP POP JUMP JUMPDEST PUSH32 0x464F5242494444454E0000000000000000000000000000000000000000000000 PUSH1 0x0 DUP3 ADD MSTORE POP JUMP JUMPDEST PUSH1 0x0 PUSH3 0x1844 PUSH1 0x9 DUP4 PUSH3 0x17FB JUMP JUMPDEST SWAP2 POP PUSH3 0x1851 DUP3 PUSH3 0x180C JUMP JUMPDEST PUSH1 0x20 DUP3 ADD SWAP1 POP SWAP2 SWAP1 POP JUMP JUMPDEST PUSH1 0x0 PUSH1 0x20 DUP3 ADD SWAP1 POP DUP2 DUP2 SUB PUSH1 0x0 DUP4 ADD MSTORE PUSH3 0x1877 DUP2 PUSH3 0x1835 JUMP JUMPDEST SWAP1 POP SWAP2 SWAP1 POP JUMP JUMPDEST PUSH32 0x73616D6520746F6B656E00000000000000000000000000000000000000000000 PUSH1 0x0 DUP3 ADD MSTORE POP JUMP JUMPDEST PUSH1 0x0 PUSH3 0x18B6 PUSH1 0xA DUP4 PUSH3 0x17FB JUMP JUMPDEST SWAP2 POP PUSH3 0x18C3 DUP3 PUSH3 0x187E JUMP JUMPDEST PUSH1 0x20 DUP3 ADD SWAP1 POP SWAP2 SWAP1 POP JUMP JUMPDEST PUSH1 0x0 PUSH1 0x20 DUP3 ADD SWAP1 POP DUP2 DUP2 SUB PUSH1 0x0 DUP4 ADD MSTORE PUSH3 0x18E9 DUP2 PUSH3 0x18A7 JUMP JUMPDEST SWAP1 POP SWAP2 SWAP1 POP JUMP JUMPDEST PUSH32 0x746F6B656E206973207A65726F20616464726573730000000000000000000000 PUSH1 0x0 DUP3 ADD MSTORE POP JUMP JUMPDEST PUSH1 0x0 PUSH3 0x1928 PUSH1 0x15 DUP4 PUSH3 0x17FB JUMP JUMPDEST SWAP2 POP PUSH3 0x1935 DUP3 PUSH3 0x18F0 JUMP JUMPDEST PUSH1 0x20 DUP3 ADD SWAP1 POP SWAP2 SWAP1 POP JUMP JUMPDEST PUSH1 0x0 PUSH1 0x20 DUP3 ADD SWAP1 POP DUP2 DUP2 SUB PUSH1 0x0 DUP4 ADD MSTORE PUSH3 0x195B DUP2 PUSH3 0x1919 JUMP JUMPDEST SWAP1 POP SWAP2 SWAP1 POP JUMP JUMPDEST PUSH32 0x7061697220616C72656164792065786973747300000000000000000000000000 PUSH1 0x0 DUP3 ADD MSTORE POP JUMP JUMPDEST PUSH1 0x0 PUSH3 0x199A PUSH1 0x13 DUP4 PUSH3 0x17FB JUMP JUMPDEST SWAP2 POP PUSH3 0x19A7 DUP3 PUSH3 0x1962 JUMP JUMPDEST PUSH1 0x20 DUP3 ADD SWAP1 POP SWAP2 SWAP1 POP JUMP JUMPDEST PUSH1 0x0 PUSH1 0x20 DUP3 ADD SWAP1 POP DUP2 DUP2 SUB PUSH1 0x0 DUP4 ADD MSTORE PUSH3 0x19CD DUP2 PUSH3 0x198B JUMP JUMPDEST SWAP1 POP SWAP2 SWAP1 POP JUMP JUMPDEST PUSH1 0x0 DUP1 REVERT JUMPDEST PUSH1 0x0 PUSH8 0xFFFFFFFFFFFFFFFF DUP3 GT ISZERO PUSH3 0x19F7 JUMPI PUSH3 0x19F6 PUSH3 0x155C JUMP JUMPDEST JUMPDEST PUSH3 0x1A02 DUP3 PUSH3 0x12BE JUMP JUMPDEST SWAP1 POP PUSH1 0x20 DUP2 ADD SWAP1 POP SWAP2 SWAP1 POP JUMP JUMPDEST PUSH1 0x0 PUSH3 0x1A26 PUSH3 0x1A20 DUP5 PUSH3 0x19D9 JUMP JUMPDEST PUSH3 0x15C1 JUMP JUMPDEST SWAP1 POP DUP3 DUP2 MSTORE PUSH1 0x20 DUP2 ADD DUP5 DUP5 DUP5 ADD GT ISZERO PUSH3 0x1A45 JUMPI PUSH3 0x1A44 PUSH3 0x19D4 JUMP JUMPDEST JUMPDEST PUSH3 0x1A52 DUP5 DUP3 DUP6 PUSH3 0x1292 JUMP JUMPDEST POP SWAP4 SWAP3 POP POP POP JUMP JUMPDEST PUSH1 0x0 DUP3 PUSH1 0x1F DUP4 ADD SLT PUSH3 0x1A72 JUMPI PUSH3 0x1A71 PUSH3 0x1557 JUMP JUMPDEST JUMPDEST DUP2 MLOAD PUSH3 0x1A84 DUP5 DUP3 PUSH1 0x20 DUP7 ADD PUSH3 0x1A0F JUMP JUMPDEST SWAP2 POP POP SWAP3 SWAP2 POP POP JUMP JUMPDEST PUSH1 0x0 PUSH1 0x20 DUP3 DUP5 SUB SLT ISZERO PUSH3 0x1AA6 JUMPI PUSH3 0x1AA5 PUSH3 0x13A0 JUMP JUMPDEST JUMPDEST PUSH1 0x0 DUP3 ADD MLOAD PUSH8 0xFFFFFFFFFFFFFFFF DUP2 GT ISZERO PUSH3 0x1AC7 JUMPI PUSH3 0x1AC6 PUSH3 0x13A5 JUMP JUMPDEST JUMPDEST PUSH3 0x1AD5 DUP5 DUP3 DUP6 ADD PUSH3 0x1A5A JUMP JUMPDEST SWAP2 POP POP SWAP3 SWAP2 POP POP JUMP JUMPDEST PUSH1 0x0 DUP2 MLOAD SWAP1 POP SWAP2 SWAP1 POP JUMP JUMPDEST PUSH1 0x0 DUP2 SWAP1 POP SWAP3 SWAP2 POP POP JUMP JUMPDEST PUSH1 0x0 PUSH3 0x1B01 DUP3 PUSH3 0x1ADE JUMP JUMPDEST PUSH3 0x1B0D DUP2 DUP6 PUSH3 0x1AE9 JUMP JUMPDEST SWAP4 POP PUSH3 0x1B1F DUP2 DUP6 PUSH1 0x20 DUP7 ADD PUSH3 0x1292 JUMP JUMPDEST DUP1 DUP5 ADD SWAP2 POP POP SWAP3 SWAP2 POP POP JUMP JUMPDEST PUSH32 0x2D00000000000000000000000000000000000000000000000000000000000000 PUSH1 0x0 DUP3 ADD MSTORE POP JUMP JUMPDEST PUSH1 0x0 PUSH3 0x1B63 PUSH1 0x1 DUP4 PUSH3 0x1AE9 JUMP JUMPDEST SWAP2 POP PUSH3 0x1B70 DUP3 PUSH3 0x1B2B JUMP JUMPDEST PUSH1 0x1 DUP3 ADD SWAP1 POP SWAP2 SWAP1 POP JUMP JUMPDEST PUSH1 0x0 PUSH3 0x1B89 DUP3 DUP6 PUSH3 0x1AF4 JUMP JUMPDEST SWAP2 POP PUSH3 0x1B96 DUP3 PUSH3 0x1B54 JUMP JUMPDEST SWAP2 POP PUSH3 0x1BA4 DUP3 DUP5 PUSH3 0x1AF4 JUMP JUMPDEST SWAP2 POP DUP2 SWAP1 POP SWAP4 SWAP3 POP POP POP JUMP JUMPDEST PUSH1 0x0 PUSH3 0x1BBE DUP3 DUP6 PUSH3 0x1AF4 JUMP JUMPDEST SWAP2 POP PUSH3 0x1BCC DUP3 DUP5 PUSH3 0x1AF4 JUMP JUMPDEST SWAP2 POP DUP2 SWAP1 POP SWAP4 SWAP3 POP POP POP JUMP JUMPDEST PUSH1 0x0 PUSH3 0x1BE5 DUP3 PUSH3 0x1ADE JUMP JUMPDEST PUSH3 0x1BF1 DUP2 DUP6 PUSH3 0x17FB JUMP JUMPDEST SWAP4 POP PUSH3 0x1C03 DUP2 DUP6 PUSH1 0x20 DUP7 ADD PUSH3 0x1292 JUMP JUMPDEST PUSH3 0x1C0E DUP2 PUSH3 0x12BE JUMP JUMPDEST DUP5 ADD SWAP2 POP POP SWAP3 SWAP2 POP POP JUMP JUMPDEST PUSH1 0x0 PUSH1 0x40 DUP3 ADD SWAP1 POP DUP2 DUP2 SUB PUSH1 0x0 DUP4 ADD MSTORE PUSH3 0x1C35 DUP2 DUP6 PUSH3 0x1BD8 JUMP JUMPDEST SWAP1 POP DUP2 DUP2 SUB PUSH1 0x20 DUP4 ADD MSTORE PUSH3 0x1C4B DUP2 DUP5 PUSH3 0x1BD8 JUMP JUMPDEST SWAP1 POP SWAP4 SWAP3 POP POP POP JUMP JUMPDEST PUSH3 0x1C5F DUP2 PUSH3 0x14EA JUMP JUMPDEST DUP3 MSTORE POP POP JUMP JUMPDEST PUSH1 0x0 PUSH1 0x40 DUP3 ADD SWAP1 POP PUSH3 0x1C7C PUSH1 0x0 DUP4 ADD DUP6 PUSH3 0x1368 JUMP JUMPDEST PUSH3 0x1C8B PUSH1 0x20 DUP4 ADD DUP5 PUSH3 0x1C54 JUMP JUMPDEST SWAP4 SWAP3 POP POP POP JUMP JUMPDEST PUSH1 0x0 PUSH1 0x20 DUP3 ADD SWAP1 POP DUP2 DUP2 SUB PUSH1 0x0 DUP4 ADD MSTORE PUSH3 0x1CAE DUP2 DUP5 PUSH3 0x1BD8 JUMP JUMPDEST SWAP1 POP SWAP3 SWAP2 POP POP JUMP JUMPDEST PUSH32 0x4E487B7100000000000000000000000000000000000000000000000000000000 PUSH1 0x0 MSTORE PUSH1 0x51 PUSH1 0x4 MSTORE PUSH1 0x24 PUSH1 0x0 REVERT INVALID PUSH1 0x80 PUSH1 0x40 MSTORE PUSH1 0x12 PUSH1 0x3 SSTORE PUSH1 0x1 PUSH1 0xE SSTORE CALLVALUE DUP1 ISZERO PUSH3 0x1B JUMPI PUSH1 0x0 DUP1 REVERT JUMPDEST POP PUSH1 0x40 MLOAD PUSH3 0x3F37 CODESIZE SUB DUP1 PUSH3 0x3F37 DUP4 CODECOPY DUP2 DUP2 ADD PUSH1 0x40 MSTORE DUP2 ADD SWAP1 PUSH3 0x41 SWAP2 SWAP1 PUSH3 0x37E JUMP JUMPDEST DUP2 DUP2 PUSH1 0x0 PUSH1 0x40 MLOAD DUP1 PUSH1 0x20 ADD PUSH1 0x40 MSTORE DUP1 PUSH1 0x0 DUP2 MSTORE POP DUP4 PUSH1 0x0 SWAP1 DUP2 PUSH3 0x66 SWAP2 SWAP1 PUSH3 0x64E JUMP JUMPDEST POP DUP3 PUSH1 0x1 SWAP1 DUP2 PUSH3 0x78 SWAP2 SWAP1 PUSH3 0x64E JUMP JUMPDEST POP PUSH3 0x8A DUP2 PUSH3 0x117 PUSH1 0x20 SHL PUSH1 0x20 SHR JUMP JUMPDEST PUSH1 0x2 SWAP1 DUP2 PUSH3 0x9A SWAP2 SWAP1 PUSH3 0x64E JUMP JUMPDEST POP PUSH3 0xCA CALLER PUSH1 0x3 SLOAD PUSH1 0xA PUSH3 0xB1 SWAP2 SWAP1 PUSH3 0x8B8 JUMP JUMPDEST DUP5 PUSH3 0xBE SWAP2 SWAP1 PUSH3 0x909 JUMP JUMPDEST PUSH3 0x153 PUSH1 0x20 SHL PUSH1 0x20 SHR JUMP JUMPDEST POP POP POP POP CALLER PUSH1 0x7 PUSH1 0x0 PUSH2 0x100 EXP DUP2 SLOAD DUP2 PUSH20 0xFFFFFFFFFFFFFFFFFFFFFFFFFFFFFFFFFFFFFFFF MUL NOT AND SWAP1 DUP4 PUSH20 0xFFFFFFFFFFFFFFFFFFFFFFFFFFFFFFFFFFFFFFFF AND MUL OR SWAP1 SSTORE POP POP POP PUSH3 0x9F9 JUMP JUMPDEST PUSH1 0x60 PUSH3 0x129 PUSH3 0x1CA PUSH1 0x20 SHL PUSH1 0x20 SHR JUMP JUMPDEST DUP3 PUSH1 0x40 MLOAD PUSH1 0x20 ADD PUSH3 0x13D SWAP3 SWAP2 SWAP1 PUSH3 0x996 JUMP JUMPDEST PUSH1 0x40 MLOAD PUSH1 0x20 DUP2 DUP4 SUB SUB DUP2 MSTORE SWAP1 PUSH1 0x40 MSTORE SWAP1 POP SWAP2 SWAP1 POP JUMP JUMPDEST DUP1 PUSH1 0x5 PUSH1 0x0 DUP5 PUSH20 0xFFFFFFFFFFFFFFFFFFFFFFFFFFFFFFFFFFFFFFFF AND PUSH20 0xFFFFFFFFFFFFFFFFFFFFFFFFFFFFFFFFFFFFFFFF AND DUP2 MSTORE PUSH1 0x20 ADD SWAP1 DUP2 MSTORE PUSH1 0x20 ADD PUSH1 0x0 KECCAK256 PUSH1 0x0 DUP3 DUP3 SLOAD PUSH3 0x1A4 SWAP2 SWAP1 PUSH3 0x9BE JUMP JUMPDEST SWAP3 POP POP DUP2 SWAP1 SSTORE POP DUP1 PUSH1 0x4 PUSH1 0x0 DUP3 DUP3 SLOAD PUSH3 0x1BF SWAP2 SWAP1 PUSH3 0x9BE JUMP JUMPDEST SWAP3 POP POP DUP2 SWAP1 SSTORE POP POP POP JUMP JUMPDEST PUSH1 0x60 PUSH1 0x40 MLOAD DUP1 PUSH1 0x60 ADD PUSH1 0x40 MSTORE DUP1 PUSH1 0x35 DUP2 MSTORE PUSH1 0x20 ADD PUSH3 0x3F02 PUSH1 0x35 SWAP2 CODECOPY SWAP1 POP SWAP1 JUMP JUMPDEST PUSH1 0x0 PUSH1 0x40 MLOAD SWAP1 POP SWAP1 JUMP JUMPDEST PUSH1 0x0 DUP1 REVERT JUMPDEST PUSH1 0x0 DUP1 REVERT JUMPDEST PUSH1 0x0 DUP1 REVERT JUMPDEST PUSH1 0x0 DUP1 REVERT JUMPDEST PUSH1 0x0 PUSH1 0x1F NOT PUSH1 0x1F DUP4 ADD AND SWAP1 POP SWAP2 SWAP1 POP JUMP JUMPDEST PUSH32 0x4E487B7100000000000000000000000000000000000000000000000000000000 PUSH1 0x0 MSTORE PUSH1 0x41 PUSH1 0x4 MSTORE PUSH1 0x24 PUSH1 0x0 REVERT JUMPDEST PUSH3 0x254 DUP3 PUSH3 0x209 JUMP JUMPDEST DUP2 ADD DUP2 DUP2 LT PUSH8 0xFFFFFFFFFFFFFFFF DUP3 GT OR ISZERO PUSH3 0x276 JUMPI PUSH3 0x275 PUSH3 0x21A JUMP JUMPDEST JUMPDEST DUP1 PUSH1 0x40 MSTORE POP POP POP JUMP JUMPDEST PUSH1 0x0 PUSH3 0x28B PUSH3 0x1EB JUMP JUMPDEST SWAP1 POP PUSH3 0x299 DUP3 DUP3 PUSH3 0x249 JUMP JUMPDEST SWAP2 SWAP1 POP JUMP JUMPDEST PUSH1 0x0 PUSH8 0xFFFFFFFFFFFFFFFF DUP3 GT ISZERO PUSH3 0x2BC JUMPI PUSH3 0x2BB PUSH3 0x21A JUMP JUMPDEST JUMPDEST PUSH3 0x2C7 DUP3 PUSH3 0x209 JUMP JUMPDEST SWAP1 POP PUSH1 0x20 DUP2 ADD SWAP1 POP SWAP2 SWAP1 POP JUMP JUMPDEST PUSH1 0x0 JUMPDEST DUP4 DUP2 LT ISZERO PUSH3 0x2F4 JUMPI DUP1 DUP3 ADD MLOAD DUP2 DUP5 ADD MSTORE PUSH1 0x20 DUP2 ADD SWAP1 POP PUSH3 0x2D7 JUMP JUMPDEST PUSH1 0x0 DUP5 DUP5 ADD MSTORE POP POP POP POP JUMP JUMPDEST PUSH1 0x0 PUSH3 0x317 PUSH3 0x311 DUP5 PUSH3 0x29E JUMP JUMPDEST PUSH3 0x27F JUMP JUMPDEST SWAP1 POP DUP3 DUP2 MSTORE PUSH1 0x20 DUP2 ADD DUP5 DUP5 DUP5 ADD GT ISZERO PUSH3 0x336 JUMPI PUSH3 0x335 PUSH3 0x204 JUMP JUMPDEST JUMPDEST PUSH3 0x343 DUP5 DUP3 DUP6 PUSH3 0x2D4 JUMP JUMPDEST POP SWAP4 SWAP3 POP POP POP JUMP JUMPDEST PUSH1 0x0 DUP3 PUSH1 0x1F DUP4 ADD SLT PUSH3 0x363 JUMPI PUSH3 0x362 PUSH3 0x1FF JUMP JUMPDEST JUMPDEST DUP2 MLOAD PUSH3 0x375 DUP5 DUP3 PUSH1 0x20 DUP7 ADD PUSH3 0x300 JUMP JUMPDEST SWAP2 POP POP SWAP3 SWAP2 POP POP JUMP JUMPDEST PUSH1 0x0 DUP1 PUSH1 0x40 DUP4 DUP6 SUB SLT ISZERO PUSH3 0x398 JUMPI PUSH3 0x397 PUSH3 0x1F5 JUMP JUMPDEST JUMPDEST PUSH1 0x0 DUP4 ADD MLOAD PUSH8 0xFFFFFFFFFFFFFFFF DUP2 GT ISZERO PUSH3 0x3B9 JUMPI PUSH3 0x3B8 PUSH3 0x1FA JUMP JUMPDEST JUMPDEST PUSH3 0x3C7 DUP6 DUP3 DUP7 ADD PUSH3 0x34B JUMP JUMPDEST SWAP3 POP POP PUSH1 0x20 DUP4 ADD MLOAD PUSH8 0xFFFFFFFFFFFFFFFF DUP2 GT ISZERO PUSH3 0x3EB JUMPI PUSH3 0x3EA PUSH3 0x1FA JUMP JUMPDEST JUMPDEST PUSH3 0x3F9 DUP6 DUP3 DUP7 ADD PUSH3 0x34B JUMP JUMPDEST SWAP2 POP POP SWAP3 POP SWAP3 SWAP1 POP JUMP JUMPDEST PUSH1 0x0 DUP2 MLOAD SWAP1 POP SWAP2 SWAP1 POP JUMP JUMPDEST PUSH32 0x4E487B7100000000000000000000000000000000000000000000000000000000 PUSH1 0x0 MSTORE PUSH1 0x22 PUSH1 0x4 MSTORE PUSH1 0x24 PUSH1 0x0 REVERT JUMPDEST PUSH1 0x0 PUSH1 0x2 DUP3 DIV SWAP1 POP PUSH1 0x1 DUP3 AND DUP1 PUSH3 0x456 JUMPI PUSH1 0x7F DUP3 AND SWAP2 POP JUMPDEST PUSH1 0x20 DUP3 LT DUP2 SUB PUSH3 0x46C JUMPI PUSH3 0x46B PUSH3 0x40E JUMP JUMPDEST JUMPDEST POP SWAP2 SWAP1 POP JUMP JUMPDEST PUSH1 0x0 DUP2 SWAP1 POP DUP2 PUSH1 0x0 MSTORE PUSH1 0x20 PUSH1 0x0 KECCAK256 SWAP1 POP SWAP2 SWAP1 POP JUMP JUMPDEST PUSH1 0x0 PUSH1 0x20 PUSH1 0x1F DUP4 ADD DIV SWAP1 POP SWAP2 SWAP1 POP JUMP JUMPDEST PUSH1 0x0 DUP3 DUP3 SHL SWAP1 POP SWAP3 SWAP2 POP POP JUMP JUMPDEST PUSH1 0x0 PUSH1 0x8 DUP4 MUL PUSH3 0x4D6 PUSH32 0xFFFFFFFFFFFFFFFFFFFFFFFFFFFFFFFFFFFFFFFFFFFFFFFFFFFFFFFFFFFFFFFF DUP3 PUSH3 0x497 JUMP JUMPDEST PUSH3 0x4E2 DUP7 DUP4 PUSH3 0x497 JUMP JUMPDEST SWAP6 POP DUP1 NOT DUP5 AND SWAP4 POP DUP1 DUP7 AND DUP5 OR SWAP3 POP POP POP SWAP4 SWAP3 POP POP POP JUMP JUMPDEST PUSH1 0x0 DUP2 SWAP1 POP SWAP2 SWAP1 POP JUMP JUMPDEST PUSH1 0x0 DUP2 SWAP1 POP SWAP2 SWAP1 POP JUMP JUMPDEST PUSH1 0x0 PUSH3 0x52F PUSH3 0x529 PUSH3 0x523 DUP5 PUSH3 0x4FA JUMP JUMPDEST PUSH3 0x504 JUMP JUMPDEST PUSH3 0x4FA JUMP JUMPDEST SWAP1 POP SWAP2 SWAP1 POP JUMP JUMPDEST PUSH1 0x0 DUP2 SWAP1 POP SWAP2 SWAP1 POP JUMP JUMPDEST PUSH3 0x54B DUP4 PUSH3 0x50E JUMP JUMPDEST PUSH3 0x563 PUSH3 0x55A DUP3 PUSH3 0x536 JUMP JUMPDEST DUP5 DUP5 SLOAD PUSH3 0x4A4 JUMP JUMPDEST DUP3 SSTORE POP POP POP POP JUMP JUMPDEST PUSH1 0x0 SWAP1 JUMP JUMPDEST PUSH3 0x57A PUSH3 0x56B JUMP JUMPDEST PUSH3 0x587 DUP2 DUP5 DUP5 PUSH3 0x540 JUMP JUMPDEST POP POP POP JUMP JUMPDEST JUMPDEST DUP2 DUP2 LT ISZERO PUSH3 0x5AF JUMPI PUSH3 0x5A3 PUSH1 0x0 DUP3 PUSH3 0x570 JUMP JUMPDEST PUSH1 0x1 DUP2 ADD SWAP1 POP PUSH3 0x58D JUMP JUMPDEST POP POP JUMP JUMPDEST PUSH1 0x1F DUP3 GT ISZERO PUSH3 0x5FE JUMPI PUSH3 0x5C8 DUP2 PUSH3 0x472 JUMP JUMPDEST PUSH3 0x5D3 DUP5 PUSH3 0x487 JUMP JUMPDEST DUP2 ADD PUSH1 0x20 DUP6 LT ISZERO PUSH3 0x5E3 JUMPI DUP2 SWAP1 POP JUMPDEST PUSH3 0x5FB PUSH3 0x5F2 DUP6 PUSH3 0x487 JUMP JUMPDEST DUP4 ADD DUP3 PUSH3 0x58C JUMP JUMPDEST POP POP JUMPDEST POP POP POP JUMP JUMPDEST PUSH1 0x0 DUP3 DUP3 SHR SWAP1 POP SWAP3 SWAP2 POP POP JUMP JUMPDEST PUSH1 0x0 PUSH3 0x623 PUSH1 0x0 NOT DUP5 PUSH1 0x8 MUL PUSH3 0x603 JUMP JUMPDEST NOT DUP1 DUP4 AND SWAP2 POP POP SWAP3 SWAP2 POP POP JUMP JUMPDEST PUSH1 0x0 PUSH3 0x63E DUP4 DUP4 PUSH3 0x610 JUMP JUMPDEST SWAP2 POP DUP3 PUSH1 0x2 MUL DUP3 OR SWAP1 POP SWAP3 SWAP2 POP POP JUMP JUMPDEST PUSH3 0x659 DUP3 PUSH3 0x403 JUMP JUMPDEST PUSH8 0xFFFFFFFFFFFFFFFF DUP2 GT ISZERO PUSH3 0x675 JUMPI PUSH3 0x674 PUSH3 0x21A JUMP JUMPDEST JUMPDEST PUSH3 0x681 DUP3 SLOAD PUSH3 0x43D JUMP JUMPDEST PUSH3 0x68E DUP3 DUP3 DUP6 PUSH3 0x5B3 JUMP JUMPDEST PUSH1 0x0 PUSH1 0x20 SWAP1 POP PUSH1 0x1F DUP4 GT PUSH1 0x1 DUP2 EQ PUSH3 0x6C6 JUMPI PUSH1 0x0 DUP5 ISZERO PUSH3 0x6B1 JUMPI DUP3 DUP8 ADD MLOAD SWAP1 POP JUMPDEST PUSH3 0x6BD DUP6 DUP3 PUSH3 0x630 JUMP JUMPDEST DUP7 SSTORE POP PUSH3 0x72D JUMP JUMPDEST PUSH1 0x1F NOT DUP5 AND PUSH3 0x6D6 DUP7 PUSH3 0x472 JUMP JUMPDEST PUSH1 0x0 JUMPDEST DUP3 DUP2 LT ISZERO PUSH3 0x700 JUMPI DUP5 DUP10 ADD MLOAD DUP3 SSTORE PUSH1 0x1 DUP3 ADD SWAP2 POP PUSH1 0x20 DUP6 ADD SWAP5 POP PUSH1 0x20 DUP2 ADD SWAP1 POP PUSH3 0x6D9 JUMP JUMPDEST DUP7 DUP4 LT ISZERO PUSH3 0x720 JUMPI DUP5 DUP10 ADD MLOAD PUSH3 0x71C PUSH1 0x1F DUP10 AND DUP3 PUSH3 0x610 JUMP JUMPDEST DUP4 SSTORE POP JUMPDEST PUSH1 0x1 PUSH1 0x2 DUP9 MUL ADD DUP9 SSTORE POP POP POP JUMPDEST POP POP POP POP POP POP JUMP JUMPDEST PUSH32 0x4E487B7100000000000000000000000000000000000000000000000000000000 PUSH1 0x0 MSTORE PUSH1 0x11 PUSH1 0x4 MSTORE PUSH1 0x24 PUSH1 0x0 REVERT JUMPDEST PUSH1 0x0 DUP2 PUSH1 0x1 SHR SWAP1 POP SWAP2 SWAP1 POP JUMP JUMPDEST PUSH1 0x0 DUP1 DUP3 SWAP2 POP DUP4 SWAP1 POP JUMPDEST PUSH1 0x1 DUP6 GT ISZERO PUSH3 0x7C3 JUMPI DUP1 DUP7 DIV DUP2 GT ISZERO PUSH3 0x79B JUMPI PUSH3 0x79A PUSH3 0x735 JUMP JUMPDEST JUMPDEST PUSH1 0x1 DUP6 AND ISZERO PUSH3 0x7AB JUMPI DUP1 DUP3 MUL SWAP2 POP JUMPDEST DUP1 DUP2 MUL SWAP1 POP PUSH3 0x7BB DUP6 PUSH3 0x764 JUMP JUMPDEST SWAP5 POP PUSH3 0x77B JUMP JUMPDEST SWAP5 POP SWAP5 SWAP3 POP POP POP JUMP JUMPDEST PUSH1 0x0 DUP3 PUSH3 0x7DE JUMPI PUSH1 0x1 SWAP1 POP PUSH3 0x8B1 JUMP JUMPDEST DUP2 PUSH3 0x7EE JUMPI PUSH1 0x0 SWAP1 POP PUSH3 0x8B1 JUMP JUMPDEST DUP2 PUSH1 0x1 DUP2 EQ PUSH3 0x807 JUMPI PUSH1 0x2 DUP2 EQ PUSH3 0x812 JUMPI PUSH3 0x848 JUMP JUMPDEST PUSH1 0x1 SWAP2 POP POP PUSH3 0x8B1 JUMP JUMPDEST PUSH1 0xFF DUP5 GT ISZERO PUSH3 0x827 JUMPI PUSH3 0x826 PUSH3 0x735 JUMP JUMPDEST JUMPDEST DUP4 PUSH1 0x2 EXP SWAP2 POP DUP5 DUP3 GT ISZERO PUSH3 0x841 JUMPI PUSH3 0x840 PUSH3 0x735 JUMP JUMPDEST JUMPDEST POP PUSH3 0x8B1 JUMP JUMPDEST POP PUSH1 0x20 DUP4 LT PUSH2 0x133 DUP4 LT AND PUSH1 0x4E DUP5 LT PUSH1 0xB DUP5 LT AND OR ISZERO PUSH3 0x882 JUMPI DUP3 DUP3 EXP SWAP1 POP DUP4 DUP2 GT ISZERO PUSH3 0x87C JUMPI PUSH3 0x87B PUSH3 0x735 JUMP JUMPDEST JUMPDEST PUSH3 0x8B1 JUMP JUMPDEST PUSH3 0x891 DUP5 DUP5 DUP5 PUSH1 0x1 PUSH3 0x771 JUMP JUMPDEST SWAP3 POP SWAP1 POP DUP2 DUP5 DIV DUP2 GT ISZERO PUSH3 0x8AB JUMPI PUSH3 0x8AA PUSH3 0x735 JUMP JUMPDEST JUMPDEST DUP2 DUP2 MUL SWAP1 POP JUMPDEST SWAP4 SWAP3 POP POP POP JUMP JUMPDEST PUSH1 0x0 PUSH3 0x8C5 DUP3 PUSH3 0x4FA JUMP JUMPDEST SWAP2 POP PUSH3 0x8D2 DUP4 PUSH3 0x4FA JUMP JUMPDEST SWAP3 POP PUSH3 0x901 PUSH32 0xFFFFFFFFFFFFFFFFFFFFFFFFFFFFFFFFFFFFFFFFFFFFFFFFFFFFFFFFFFFFFFFF DUP5 DUP5 PUSH3 0x7CC JUMP JUMPDEST SWAP1 POP SWAP3 SWAP2 POP POP JUMP JUMPDEST PUSH1 0x0 PUSH3 0x916 DUP3 PUSH3 0x4FA JUMP JUMPDEST SWAP2 POP PUSH3 0x923 DUP4 PUSH3 0x4FA JUMP JUMPDEST SWAP3 POP DUP3 DUP3 MUL PUSH3 0x933 DUP2 PUSH3 0x4FA JUMP JUMPDEST SWAP2 POP DUP3 DUP3 DIV DUP5 EQ DUP4 ISZERO OR PUSH3 0x94D JUMPI PUSH3 0x94C PUSH3 0x735 JUMP JUMPDEST JUMPDEST POP SWAP3 SWAP2 POP POP JUMP JUMPDEST PUSH1 0x0 DUP2 SWAP1 POP SWAP3 SWAP2 POP POP JUMP JUMPDEST PUSH1 0x0 PUSH3 0x96C DUP3 PUSH3 0x403 JUMP JUMPDEST PUSH3 0x978 DUP2 DUP6 PUSH3 0x954 JUMP JUMPDEST SWAP4 POP PUSH3 0x98A DUP2 DUP6 PUSH1 0x20 DUP7 ADD PUSH3 0x2D4 JUMP JUMPDEST DUP1 DUP5 ADD SWAP2 POP POP SWAP3 SWAP2 POP POP JUMP JUMPDEST PUSH1 0x0 PUSH3 0x9A4 DUP3 DUP6 PUSH3 0x95F JUMP JUMPDEST SWAP2 POP PUSH3 0x9B2 DUP3 DUP5 PUSH3 0x95F JUMP JUMPDEST SWAP2 POP DUP2 SWAP1 POP SWAP4 SWAP3 POP POP POP JUMP JUMPDEST PUSH1 0x0 PUSH3 0x9CB DUP3 PUSH3 0x4FA JUMP JUMPDEST SWAP2 POP PUSH3 0x9D8 DUP4 PUSH3 0x4FA JUMP JUMPDEST SWAP3 POP DUP3 DUP3 ADD SWAP1 POP DUP1 DUP3 GT ISZERO PUSH3 0x9F3 JUMPI PUSH3 0x9F2 PUSH3 0x735 JUMP JUMPDEST JUMPDEST SWAP3 SWAP2 POP POP JUMP JUMPDEST PUSH2 0x34F9 DUP1 PUSH3 0xA09 PUSH1 0x0 CODECOPY PUSH1 0x0 RETURN INVALID PUSH1 0x80 PUSH1 0x40 MSTORE CALLVALUE DUP1 ISZERO PUSH2 0x10 JUMPI PUSH1 0x0 DUP1 REVERT JUMPDEST POP PUSH1 0x4 CALLDATASIZE LT PUSH2 0x1CF JUMPI PUSH1 0x0 CALLDATALOAD PUSH1 0xE0 SHR DUP1 PUSH4 0x6EBC51E1 GT PUSH2 0x104 JUMPI DUP1 PUSH4 0xBC25CF77 GT PUSH2 0xA2 JUMPI DUP1 PUSH4 0xDBBDD935 GT PUSH2 0x71 JUMPI DUP1 PUSH4 0xDBBDD935 EQ PUSH2 0x56E JUMPI DUP1 PUSH4 0xDD62ED3E EQ PUSH2 0x59F JUMPI DUP1 PUSH4 0xEAC989F8 EQ PUSH2 0x5CF JUMPI DUP1 PUSH4 0xFFF6CAE9 EQ PUSH2 0x5ED JUMPI PUSH2 0x1CF JUMP JUMPDEST DUP1 PUSH4 0xBC25CF77 EQ PUSH2 0x4F8 JUMPI DUP1 PUSH4 0xC45A0155 EQ PUSH2 0x514 JUMPI DUP1 PUSH4 0xC5700A02 EQ PUSH2 0x532 JUMPI DUP1 PUSH4 0xD21220A7 EQ PUSH2 0x550 JUMPI PUSH2 0x1CF JUMP JUMPDEST DUP1 PUSH4 0x7DC0A1FA GT PUSH2 0xDE JUMPI DUP1 PUSH4 0x7DC0A1FA EQ PUSH2 0x45E JUMPI DUP1 PUSH4 0x95D89B41 EQ PUSH2 0x47A JUMPI DUP1 PUSH4 0x9DC29FAC EQ PUSH2 0x498 JUMPI DUP1 PUSH4 0xA9059CBB EQ PUSH2 0x4C8 JUMPI PUSH2 0x1CF JUMP JUMPDEST DUP1 PUSH4 0x6EBC51E1 EQ PUSH2 0x3E0 JUMPI DUP1 PUSH4 0x70A08231 EQ PUSH2 0x410 JUMPI DUP1 PUSH4 0x7464FC3D EQ PUSH2 0x440 JUMPI PUSH2 0x1CF JUMP JUMPDEST DUP1 PUSH4 0x27E235E3 GT PUSH2 0x171 JUMPI DUP1 PUSH4 0x4E6EC247 GT PUSH2 0x14B JUMPI DUP1 PUSH4 0x4E6EC247 EQ PUSH2 0x348 JUMPI DUP1 PUSH4 0x55B6ED5C EQ PUSH2 0x364 JUMPI DUP1 PUSH4 0x6161EB18 EQ PUSH2 0x394 JUMPI DUP1 PUSH4 0x6A627842 EQ PUSH2 0x3B0 JUMPI PUSH2 0x1CF JUMP JUMPDEST DUP1 PUSH4 0x27E235E3 EQ PUSH2 0x2CC JUMPI DUP1 PUSH4 0x485CC955 EQ PUSH2 0x2FC JUMPI DUP1 PUSH4 0x4CF12D26 EQ PUSH2 0x318 JUMPI PUSH2 0x1CF JUMP JUMPDEST DUP1 PUSH4 0xDFE1681 GT PUSH2 0x1AD JUMPI DUP1 PUSH4 0xDFE1681 EQ PUSH2 0x242 JUMPI DUP1 PUSH4 0x18160DDD EQ PUSH2 0x260 JUMPI DUP1 PUSH4 0x1B655054 EQ PUSH2 0x27E JUMPI DUP1 PUSH4 0x23B872DD EQ PUSH2 0x29C JUMPI PUSH2 0x1CF JUMP JUMPDEST DUP1 PUSH4 0x6FDDE03 EQ PUSH2 0x1D4 JUMPI DUP1 PUSH4 0x902F1AC EQ PUSH2 0x1F2 JUMPI DUP1 PUSH4 0x95EA7B3 EQ PUSH2 0x212 JUMPI JUMPDEST PUSH1 0x0 DUP1 REVERT JUMPDEST PUSH2 0x1DC PUSH2 0x5F7 JUMP JUMPDEST PUSH1 0x40 MLOAD PUSH2 0x1E9 SWAP2 SWAP1 PUSH2 0x27BA JUMP JUMPDEST PUSH1 0x40 MLOAD DUP1 SWAP2 SUB SWAP1 RETURN JUMPDEST PUSH2 0x1FA PUSH2 0x685 JUMP JUMPDEST PUSH1 0x40 MLOAD PUSH2 0x209 SWAP4 SWAP3 SWAP2 SWAP1 PUSH2 0x2824 JUMP JUMPDEST PUSH1 0x40 MLOAD DUP1 SWAP2 SUB SWAP1 RETURN JUMPDEST PUSH2 0x22C PUSH1 0x4 DUP1 CALLDATASIZE SUB DUP2 ADD SWAP1 PUSH2 0x227 SWAP2 SWAP1 PUSH2 0x2903 JUMP JUMPDEST PUSH2 0x6E2 JUMP JUMPDEST PUSH1 0x40 MLOAD PUSH2 0x239 SWAP2 SWAP1 PUSH2 0x295E JUMP JUMPDEST PUSH1 0x40 MLOAD DUP1 SWAP2 SUB SWAP1 RETURN JUMPDEST PUSH2 0x24A PUSH2 0x76F JUMP JUMPDEST PUSH1 0x40 MLOAD PUSH2 0x257 SWAP2 SWAP1 PUSH2 0x2988 JUMP JUMPDEST PUSH1 0x40 MLOAD DUP1 SWAP2 SUB SWAP1 RETURN JUMPDEST PUSH2 0x268 PUSH2 0x795 JUMP JUMPDEST PUSH1 0x40 MLOAD PUSH2 0x275 SWAP2 SWAP1 PUSH2 0x29B2 JUMP JUMPDEST PUSH1 0x40 MLOAD DUP1 SWAP2 SUB SWAP1 RETURN JUMPDEST PUSH2 0x286 PUSH2 0x79B JUMP JUMPDEST PUSH1 0x40 MLOAD PUSH2 0x293 SWAP2 SWAP1 PUSH2 0x2988 JUMP JUMPDEST PUSH1 0x40 MLOAD DUP1 SWAP2 SUB SWAP1 RETURN JUMPDEST PUSH2 0x2B6 PUSH1 0x4 DUP1 CALLDATASIZE SUB DUP2 ADD SWAP1 PUSH2 0x2B1 SWAP2 SWAP1 PUSH2 0x29CD JUMP JUMPDEST PUSH2 0x7C1 JUMP JUMPDEST PUSH1 0x40 MLOAD PUSH2 0x2C3 SWAP2 SWAP1 PUSH2 0x295E JUMP JUMPDEST PUSH1 0x40 MLOAD DUP1 SWAP2 SUB SWAP1 RETURN JUMPDEST PUSH2 0x2E6 PUSH1 0x4 DUP1 CALLDATASIZE SUB DUP2 ADD SWAP1 PUSH2 0x2E1 SWAP2 SWAP1 PUSH2 0x2A20 JUMP JUMPDEST PUSH2 0x996 JUMP JUMPDEST PUSH1 0x40 MLOAD PUSH2 0x2F3 SWAP2 SWAP1 PUSH2 0x29B2 JUMP JUMPDEST PUSH1 0x40 MLOAD DUP1 SWAP2 SUB SWAP1 RETURN JUMPDEST PUSH2 0x316 PUSH1 0x4 DUP1 CALLDATASIZE SUB DUP2 ADD SWAP1 PUSH2 0x311 SWAP2 SWAP1 PUSH2 0x2A4D JUMP JUMPDEST PUSH2 0x9AE JUMP JUMPDEST STOP JUMPDEST PUSH2 0x332 PUSH1 0x4 DUP1 CALLDATASIZE SUB DUP2 ADD SWAP1 PUSH2 0x32D SWAP2 SWAP1 PUSH2 0x2BC2 JUMP JUMPDEST PUSH2 0xA8E JUMP JUMPDEST PUSH1 0x40 MLOAD PUSH2 0x33F SWAP2 SWAP1 PUSH2 0x27BA JUMP JUMPDEST PUSH1 0x40 MLOAD DUP1 SWAP2 SUB SWAP1 RETURN JUMPDEST PUSH2 0x362 PUSH1 0x4 DUP1 CALLDATASIZE SUB DUP2 ADD SWAP1 PUSH2 0x35D SWAP2 SWAP1 PUSH2 0x2903 JUMP JUMPDEST PUSH2 0xAC0 JUMP JUMPDEST STOP JUMPDEST PUSH2 0x37E PUSH1 0x4 DUP1 CALLDATASIZE SUB DUP2 ADD SWAP1 PUSH2 0x379 SWAP2 SWAP1 PUSH2 0x2A4D JUMP JUMPDEST PUSH2 0xB33 JUMP JUMPDEST PUSH1 0x40 MLOAD PUSH2 0x38B SWAP2 SWAP1 PUSH2 0x29B2 JUMP JUMPDEST PUSH1 0x40 MLOAD DUP1 SWAP2 SUB SWAP1 RETURN JUMPDEST PUSH2 0x3AE PUSH1 0x4 DUP1 CALLDATASIZE SUB DUP2 ADD SWAP1 PUSH2 0x3A9 SWAP2 SWAP1 PUSH2 0x2903 JUMP JUMPDEST PUSH2 0xB58 JUMP JUMPDEST STOP JUMPDEST PUSH2 0x3CA PUSH1 0x4 DUP1 CALLDATASIZE SUB DUP2 ADD SWAP1 PUSH2 0x3C5 SWAP2 SWAP1 PUSH2 0x2A20 JUMP JUMPDEST PUSH2 0xBCB JUMP JUMPDEST PUSH1 0x40 MLOAD PUSH2 0x3D7 SWAP2 SWAP1 PUSH2 0x295E JUMP JUMPDEST PUSH1 0x40 MLOAD DUP1 SWAP2 SUB SWAP1 RETURN JUMPDEST PUSH2 0x3FA PUSH1 0x4 DUP1 CALLDATASIZE SUB DUP2 ADD SWAP1 PUSH2 0x3F5 SWAP2 SWAP1 PUSH2 0x2A20 JUMP JUMPDEST PUSH2 0x10D7 JUMP JUMPDEST PUSH1 0x40 MLOAD PUSH2 0x407 SWAP2 SWAP1 PUSH2 0x295E JUMP JUMPDEST PUSH1 0x40 MLOAD DUP1 SWAP2 SUB SWAP1 RETURN JUMPDEST PUSH2 0x42A PUSH1 0x4 DUP1 CALLDATASIZE SUB DUP2 ADD SWAP1 PUSH2 0x425 SWAP2 SWAP1 PUSH2 0x2A20 JUMP JUMPDEST PUSH2 0x13AC JUMP JUMPDEST PUSH1 0x40 MLOAD PUSH2 0x437 SWAP2 SWAP1 PUSH2 0x29B2 JUMP JUMPDEST PUSH1 0x40 MLOAD DUP1 SWAP2 SUB SWAP1 RETURN JUMPDEST PUSH2 0x448 PUSH2 0x13F5 JUMP JUMPDEST PUSH1 0x40 MLOAD PUSH2 0x455 SWAP2 SWAP1 PUSH2 0x29B2 JUMP JUMPDEST PUSH1 0x40 MLOAD DUP1 SWAP2 SUB SWAP1 RETURN JUMPDEST PUSH2 0x478 PUSH1 0x4 DUP1 CALLDATASIZE SUB DUP2 ADD SWAP1 PUSH2 0x473 SWAP2 SWAP1 PUSH2 0x2C37 JUMP JUMPDEST PUSH2 0x13FB JUMP JUMPDEST STOP JUMPDEST PUSH2 0x482 PUSH2 0x1582 JUMP JUMPDEST PUSH1 0x40 MLOAD PUSH2 0x48F SWAP2 SWAP1 PUSH2 0x27BA JUMP JUMPDEST PUSH1 0x40 MLOAD DUP1 SWAP2 SUB SWAP1 RETURN JUMPDEST PUSH2 0x4B2 PUSH1 0x4 DUP1 CALLDATASIZE SUB DUP2 ADD SWAP1 PUSH2 0x4AD SWAP2 SWAP1 PUSH2 0x2903 JUMP JUMPDEST PUSH2 0x1610 JUMP JUMPDEST PUSH1 0x40 MLOAD PUSH2 0x4BF SWAP2 SWAP1 PUSH2 0x295E JUMP JUMPDEST PUSH1 0x40 MLOAD DUP1 SWAP2 SUB SWAP1 RETURN JUMPDEST PUSH2 0x4E2 PUSH1 0x4 DUP1 CALLDATASIZE SUB DUP2 ADD SWAP1 PUSH2 0x4DD SWAP2 SWAP1 PUSH2 0x2903 JUMP JUMPDEST PUSH2 0x1DEF JUMP JUMPDEST PUSH1 0x40 MLOAD PUSH2 0x4EF SWAP2 SWAP1 PUSH2 0x295E JUMP JUMPDEST PUSH1 0x40 MLOAD DUP1 SWAP2 SUB SWAP1 RETURN JUMPDEST PUSH2 0x512 PUSH1 0x4 DUP1 CALLDATASIZE SUB DUP2 ADD SWAP1 PUSH2 0x50D SWAP2 SWAP1 PUSH2 0x2A20 JUMP JUMPDEST PUSH2 0x1EA7 JUMP JUMPDEST STOP JUMPDEST PUSH2 0x51C PUSH2 0x1F4F JUMP JUMPDEST PUSH1 0x40 MLOAD PUSH2 0x529 SWAP2 SWAP1 PUSH2 0x2988 JUMP JUMPDEST PUSH1 0x40 MLOAD DUP1 SWAP2 SUB SWAP1 RETURN JUMPDEST PUSH2 0x53A PUSH2 0x1F75 JUMP JUMPDEST PUSH1 0x40 MLOAD PUSH2 0x547 SWAP2 SWAP1 PUSH2 0x2C9E JUMP JUMPDEST PUSH1 0x40 MLOAD DUP1 SWAP2 SUB SWAP1 RETURN JUMPDEST PUSH2 0x558 PUSH2 0x1F8B JUMP JUMPDEST PUSH1 0x40 MLOAD PUSH2 0x565 SWAP2 SWAP1 PUSH2 0x2988 JUMP JUMPDEST PUSH1 0x40 MLOAD DUP1 SWAP2 SUB SWAP1 RETURN JUMPDEST PUSH2 0x588 PUSH1 0x4 DUP1 CALLDATASIZE SUB DUP2 ADD SWAP1 PUSH2 0x583 SWAP2 SWAP1 PUSH2 0x2A20 JUMP JUMPDEST PUSH2 0x1FB1 JUMP JUMPDEST PUSH1 0x40 MLOAD PUSH2 0x596 SWAP3 SWAP2 SWAP1 PUSH2 0x2CB9 JUMP JUMPDEST PUSH1 0x40 MLOAD DUP1 SWAP2 SUB SWAP1 RETURN JUMPDEST PUSH2 0x5B9 PUSH1 0x4 DUP1 CALLDATASIZE SUB DUP2 ADD SWAP1 PUSH2 0x5B4 SWAP2 SWAP1 PUSH2 0x2A4D JUMP JUMPDEST PUSH2 0x2094 JUMP JUMPDEST PUSH1 0x40 MLOAD PUSH2 0x5C6 SWAP2 SWAP1 PUSH2 0x29B2 JUMP JUMPDEST PUSH1 0x40 MLOAD DUP1 SWAP2 SUB SWAP1 RETURN JUMPDEST PUSH2 0x5D7 PUSH2 0x211B JUMP JUMPDEST PUSH1 0x40 MLOAD PUSH2 0x5E4 SWAP2 SWAP1 PUSH2 0x27BA JUMP JUMPDEST PUSH1 0x40 MLOAD DUP1 SWAP2 SUB SWAP1 RETURN JUMPDEST PUSH2 0x5F5 PUSH2 0x21A9 JUMP JUMPDEST STOP JUMPDEST PUSH1 0x0 DUP1 SLOAD PUSH2 0x604 SWAP1 PUSH2 0x2D11 JUMP JUMPDEST DUP1 PUSH1 0x1F ADD PUSH1 0x20 DUP1 SWAP2 DIV MUL PUSH1 0x20 ADD PUSH1 0x40 MLOAD SWAP1 DUP2 ADD PUSH1 0x40 MSTORE DUP1 SWAP3 SWAP2 SWAP1 DUP2 DUP2 MSTORE PUSH1 0x20 ADD DUP3 DUP1 SLOAD PUSH2 0x630 SWAP1 PUSH2 0x2D11 JUMP JUMPDEST DUP1 ISZERO PUSH2 0x67D JUMPI DUP1 PUSH1 0x1F LT PUSH2 0x652 JUMPI PUSH2 0x100 DUP1 DUP4 SLOAD DIV MUL DUP4 MSTORE SWAP2 PUSH1 0x20 ADD SWAP2 PUSH2 0x67D JUMP JUMPDEST DUP3 ADD SWAP2 SWAP1 PUSH1 0x0 MSTORE PUSH1 0x20 PUSH1 0x0 KECCAK256 SWAP1 JUMPDEST DUP2 SLOAD DUP2 MSTORE SWAP1 PUSH1 0x1 ADD SWAP1 PUSH1 0x20 ADD DUP1 DUP4 GT PUSH2 0x660 JUMPI DUP3 SWAP1 SUB PUSH1 0x1F AND DUP3 ADD SWAP2 JUMPDEST POP POP POP POP POP DUP2 JUMP JUMPDEST PUSH1 0x0 DUP1 PUSH1 0x0 PUSH1 0xB PUSH1 0x0 SWAP1 SLOAD SWAP1 PUSH2 0x100 EXP SWAP1 DIV PUSH14 0xFFFFFFFFFFFFFFFFFFFFFFFFFFFF AND SWAP3 POP PUSH1 0xB PUSH1 0xE SWAP1 SLOAD SWAP1 PUSH2 0x100 EXP SWAP1 DIV PUSH14 0xFFFFFFFFFFFFFFFFFFFFFFFFFFFF AND SWAP2 POP PUSH1 0xD PUSH1 0x0 SWAP1 SLOAD SWAP1 PUSH2 0x100 EXP SWAP1 DIV PUSH4 0xFFFFFFFF AND SWAP1 POP SWAP1 SWAP2 SWAP3 JUMP JUMPDEST PUSH1 0x0 DUP2 PUSH1 0x6 PUSH1 0x0 CALLER PUSH20 0xFFFFFFFFFFFFFFFFFFFFFFFFFFFFFFFFFFFFFFFF AND PUSH20 0xFFFFFFFFFFFFFFFFFFFFFFFFFFFFFFFFFFFFFFFF AND DUP2 MSTORE PUSH1 0x20 ADD SWAP1 DUP2 MSTORE PUSH1 0x20 ADD PUSH1 0x0 KECCAK256 PUSH1 0x0 DUP6 PUSH20 0xFFFFFFFFFFFFFFFFFFFFFFFFFFFFFFFFFFFFFFFF AND PUSH20 0xFFFFFFFFFFFFFFFFFFFFFFFFFFFFFFFFFFFFFFFF AND DUP2 MSTORE PUSH1 0x20 ADD SWAP1 DUP2 MSTORE PUSH1 0x20 ADD PUSH1 0x0 KECCAK256 DUP2 SWAP1 SSTORE POP PUSH1 0x1 SWAP1 POP SWAP3 SWAP2 POP POP JUMP JUMPDEST PUSH1 0x9 PUSH1 0x0 SWAP1 SLOAD SWAP1 PUSH2 0x100 EXP SWAP1 DIV PUSH20 0xFFFFFFFFFFFFFFFFFFFFFFFFFFFFFFFFFFFFFFFF AND DUP2 JUMP JUMPDEST PUSH1 0x4 SLOAD DUP2 JUMP JUMPDEST PUSH1 0x8 PUSH1 0x0 SWAP1 SLOAD SWAP1 PUSH2 0x100 EXP SWAP1 DIV PUSH20 0xFFFFFFFFFFFFFFFFFFFFFFFFFFFFFFFFFFFFFFFF AND DUP2 JUMP JUMPDEST PUSH1 0x0 DUP2 PUSH1 0x6 PUSH1 0x0 DUP7 PUSH20 0xFFFFFFFFFFFFFFFFFFFFFFFFFFFFFFFFFFFFFFFF AND PUSH20 0xFFFFFFFFFFFFFFFFFFFFFFFFFFFFFFFFFFFFFFFF AND DUP2 MSTORE PUSH1 0x20 ADD SWAP1 DUP2 MSTORE PUSH1 0x20 ADD PUSH1 0x0 KECCAK256 PUSH1 0x0 CALLER PUSH20 0xFFFFFFFFFFFFFFFFFFFFFFFFFFFFFFFFFFFFFFFF AND PUSH20 0xFFFFFFFFFFFFFFFFFFFFFFFFFFFFFFFFFFFFFFFF AND DUP2 MSTORE PUSH1 0x20 ADD SWAP1 DUP2 MSTORE PUSH1 0x20 ADD PUSH1 0x0 KECCAK256 SLOAD LT ISZERO PUSH2 0x84C JUMPI PUSH1 0x0 DUP1 REVERT JUMPDEST DUP2 PUSH1 0x6 PUSH1 0x0 DUP7 PUSH20 0xFFFFFFFFFFFFFFFFFFFFFFFFFFFFFFFFFFFFFFFF AND PUSH20 0xFFFFFFFFFFFFFFFFFFFFFFFFFFFFFFFFFFFFFFFF AND DUP2 MSTORE PUSH1 0x20 ADD SWAP1 DUP2 MSTORE PUSH1 0x20 ADD PUSH1 0x0 KECCAK256 PUSH1 0x0 CALLER PUSH20 0xFFFFFFFFFFFFFFFFFFFFFFFFFFFFFFFFFFFFFFFF AND PUSH20 0xFFFFFFFFFFFFFFFFFFFFFFFFFFFFFFFFFFFFFFFF AND DUP2 MSTORE PUSH1 0x20 ADD SWAP1 DUP2 MSTORE PUSH1 0x20 ADD PUSH1 0x0 KECCAK256 PUSH1 0x0 DUP3 DUP3 SLOAD PUSH2 0x8D8 SWAP2 SWAP1 PUSH2 0x2D71 JUMP JUMPDEST SWAP3 POP POP DUP2 SWAP1 SSTORE POP DUP2 PUSH1 0x5 PUSH1 0x0 DUP7 PUSH20 0xFFFFFFFFFFFFFFFFFFFFFFFFFFFFFFFFFFFFFFFF AND PUSH20 0xFFFFFFFFFFFFFFFFFFFFFFFFFFFFFFFFFFFFFFFF AND DUP2 MSTORE PUSH1 0x20 ADD SWAP1 DUP2 MSTORE PUSH1 0x20 ADD PUSH1 0x0 KECCAK256 PUSH1 0x0 DUP3 DUP3 SLOAD PUSH2 0x92E SWAP2 SWAP1 PUSH2 0x2D71 JUMP JUMPDEST SWAP3 POP POP DUP2 SWAP1 SSTORE POP DUP2 PUSH1 0x5 PUSH1 0x0 DUP6 PUSH20 0xFFFFFFFFFFFFFFFFFFFFFFFFFFFFFFFFFFFFFFFF AND PUSH20 0xFFFFFFFFFFFFFFFFFFFFFFFFFFFFFFFFFFFFFFFF AND DUP2 MSTORE PUSH1 0x20 ADD SWAP1 DUP2 MSTORE PUSH1 0x20 ADD PUSH1 0x0 KECCAK256 PUSH1 0x0 DUP3 DUP3 SLOAD PUSH2 0x984 SWAP2 SWAP1 PUSH2 0x2DA5 JUMP JUMPDEST SWAP3 POP POP DUP2 SWAP1 SSTORE POP PUSH1 0x1 SWAP1 POP SWAP4 SWAP3 POP POP POP JUMP JUMPDEST PUSH1 0x5 PUSH1 0x20 MSTORE DUP1 PUSH1 0x0 MSTORE PUSH1 0x40 PUSH1 0x0 KECCAK256 PUSH1 0x0 SWAP2 POP SWAP1 POP SLOAD DUP2 JUMP JUMPDEST PUSH1 0x7 PUSH1 0x0 SWAP1 SLOAD SWAP1 PUSH2 0x100 EXP SWAP1 DIV PUSH20 0xFFFFFFFFFFFFFFFFFFFFFFFFFFFFFFFFFFFFFFFF AND PUSH20 0xFFFFFFFFFFFFFFFFFFFFFFFFFFFFFFFFFFFFFFFF AND CALLER PUSH20 0xFFFFFFFFFFFFFFFFFFFFFFFFFFFFFFFFFFFFFFFF AND EQ PUSH2 0xA08 JUMPI PUSH1 0x0 DUP1 REVERT JUMPDEST DUP2 PUSH1 0x9 PUSH1 0x0 PUSH2 0x100 EXP DUP2 SLOAD DUP2 PUSH20 0xFFFFFFFFFFFFFFFFFFFFFFFFFFFFFFFFFFFFFFFF MUL NOT AND SWAP1 DUP4 PUSH20 0xFFFFFFFFFFFFFFFFFFFFFFFFFFFFFFFFFFFFFFFF AND MUL OR SWAP1 SSTORE POP DUP1 PUSH1 0xA PUSH1 0x0 PUSH2 0x100 EXP DUP2 SLOAD DUP2 PUSH20 0xFFFFFFFFFFFFFFFFFFFFFFFFFFFFFFFFFFFFFFFF MUL NOT AND SWAP1 DUP4 PUSH20 0xFFFFFFFFFFFFFFFFFFFFFFFFFFFFFFFFFFFFFFFF AND MUL OR SWAP1 SSTORE POP POP POP JUMP JUMPDEST PUSH1 0x60 PUSH2 0xA98 PUSH2 0x237A JUMP JUMPDEST DUP3 PUSH1 0x40 MLOAD PUSH1 0x20 ADD PUSH2 0xAAA SWAP3 SWAP2 SWAP1 PUSH2 0x2E15 JUMP JUMPDEST PUSH1 0x40 MLOAD PUSH1 0x20 DUP2 DUP4 SUB SUB DUP2 MSTORE SWAP1 PUSH1 0x40 MSTORE SWAP1 POP SWAP2 SWAP1 POP JUMP JUMPDEST DUP1 PUSH1 0x5 PUSH1 0x0 DUP5 PUSH20 0xFFFFFFFFFFFFFFFFFFFFFFFFFFFFFFFFFFFFFFFF AND PUSH20 0xFFFFFFFFFFFFFFFFFFFFFFFFFFFFFFFFFFFFFFFF AND DUP2 MSTORE PUSH1 0x20 ADD SWAP1 DUP2 MSTORE PUSH1 0x20 ADD PUSH1 0x0 KECCAK256 PUSH1 0x0 DUP3 DUP3 SLOAD PUSH2 0xB0F SWAP2 SWAP1 PUSH2 0x2DA5 JUMP JUMPDEST SWAP3 POP POP DUP2 SWAP1 SSTORE POP DUP1 PUSH1 0x4 PUSH1 0x0 DUP3 DUP3 SLOAD PUSH2 0xB28 SWAP2 SWAP1 PUSH2 0x2DA5 JUMP JUMPDEST SWAP3 POP POP DUP2 SWAP1 SSTORE POP POP POP JUMP JUMPDEST PUSH1 0x6 PUSH1 0x20 MSTORE DUP2 PUSH1 0x0 MSTORE PUSH1 0x40 PUSH1 0x0 KECCAK256 PUSH1 0x20 MSTORE DUP1 PUSH1 0x0 MSTORE PUSH1 0x40 PUSH1 0x0 KECCAK256 PUSH1 0x0 SWAP2 POP SWAP2 POP POP SLOAD DUP2 JUMP JUMPDEST DUP1 PUSH1 0x5 PUSH1 0x0 DUP5 PUSH20 0xFFFFFFFFFFFFFFFFFFFFFFFFFFFFFFFFFFFFFFFF AND PUSH20 0xFFFFFFFFFFFFFFFFFFFFFFFFFFFFFFFFFFFFFFFF AND DUP2 MSTORE PUSH1 0x20 ADD SWAP1 DUP2 MSTORE PUSH1 0x20 ADD PUSH1 0x0 KECCAK256 PUSH1 0x0 DUP3 DUP3 SLOAD PUSH2 0xBA7 SWAP2 SWAP1 PUSH2 0x2D71 JUMP JUMPDEST SWAP3 POP POP DUP2 SWAP1 SSTORE POP DUP1 PUSH1 0x4 PUSH1 0x0 DUP3 DUP3 SLOAD PUSH2 0xBC0 SWAP2 SWAP1 PUSH2 0x2D71 JUMP JUMPDEST SWAP3 POP POP DUP2 SWAP1 SSTORE POP POP POP JUMP JUMPDEST PUSH1 0x0 PUSH1 0x1 PUSH1 0xE SLOAD EQ PUSH2 0xC12 JUMPI PUSH1 0x40 MLOAD PUSH32 0x8C379A000000000000000000000000000000000000000000000000000000000 DUP2 MSTORE PUSH1 0x4 ADD PUSH2 0xC09 SWAP1 PUSH2 0x2E85 JUMP JUMPDEST PUSH1 0x40 MLOAD DUP1 SWAP2 SUB SWAP1 REVERT JUMPDEST PUSH1 0x0 PUSH1 0xE DUP2 SWAP1 SSTORE POP PUSH1 0x0 PUSH1 0x9 PUSH1 0x0 SWAP1 SLOAD SWAP1 PUSH2 0x100 EXP SWAP1 DIV PUSH20 0xFFFFFFFFFFFFFFFFFFFFFFFFFFFFFFFFFFFFFFFF AND PUSH20 0xFFFFFFFFFFFFFFFFFFFFFFFFFFFFFFFFFFFFFFFF AND PUSH4 0x70A08231 ADDRESS PUSH1 0x40 MLOAD DUP3 PUSH4 0xFFFFFFFF AND PUSH1 0xE0 SHL DUP2 MSTORE PUSH1 0x4 ADD PUSH2 0xC77 SWAP2 SWAP1 PUSH2 0x2988 JUMP JUMPDEST PUSH1 0x20 PUSH1 0x40 MLOAD DUP1 DUP4 SUB DUP2 DUP7 GAS STATICCALL ISZERO DUP1 ISZERO PUSH2 0xC94 JUMPI RETURNDATASIZE PUSH1 0x0 DUP1 RETURNDATACOPY RETURNDATASIZE PUSH1 0x0 REVERT JUMPDEST POP POP POP POP PUSH1 0x40 MLOAD RETURNDATASIZE PUSH1 0x1F NOT PUSH1 0x1F DUP3 ADD AND DUP3 ADD DUP1 PUSH1 0x40 MSTORE POP DUP2 ADD SWAP1 PUSH2 0xCB8 SWAP2 SWAP1 PUSH2 0x2EBA JUMP JUMPDEST SWAP1 POP PUSH1 0x0 PUSH1 0xA PUSH1 0x0 SWAP1 SLOAD SWAP1 PUSH2 0x100 EXP SWAP1 DIV PUSH20 0xFFFFFFFFFFFFFFFFFFFFFFFFFFFFFFFFFFFFFFFF AND PUSH20 0xFFFFFFFFFFFFFFFFFFFFFFFFFFFFFFFFFFFFFFFF AND PUSH4 0x70A08231 ADDRESS PUSH1 0x40 MLOAD DUP3 PUSH4 0xFFFFFFFF AND PUSH1 0xE0 SHL DUP2 MSTORE PUSH1 0x4 ADD PUSH2 0xD17 SWAP2 SWAP1 PUSH2 0x2988 JUMP JUMPDEST PUSH1 0x20 PUSH1 0x40 MLOAD DUP1 DUP4 SUB DUP2 DUP7 GAS STATICCALL ISZERO DUP1 ISZERO PUSH2 0xD34 JUMPI RETURNDATASIZE PUSH1 0x0 DUP1 RETURNDATACOPY RETURNDATASIZE PUSH1 0x0 REVERT JUMPDEST POP POP POP POP PUSH1 0x40 MLOAD RETURNDATASIZE PUSH1 0x1F NOT PUSH1 0x1F DUP3 ADD AND DUP3 ADD DUP1 PUSH1 0x40 MSTORE POP DUP2 ADD SWAP1 PUSH2 0xD58 SWAP2 SWAP1 PUSH2 0x2EBA JUMP JUMPDEST SWAP1 POP PUSH1 0x0 PUSH2 0xD92 DUP4 PUSH1 0xB PUSH1 0x0 SWAP1 SLOAD SWAP1 PUSH2 0x100 EXP SWAP1 DIV PUSH14 0xFFFFFFFFFFFFFFFFFFFFFFFFFFFF AND PUSH14 0xFFFFFFFFFFFFFFFFFFFFFFFFFFFF AND PUSH2 0x239A JUMP JUMPDEST SWAP1 POP PUSH1 0x0 PUSH2 0xDCC DUP4 PUSH1 0xB PUSH1 0xE SWAP1 SLOAD SWAP1 PUSH2 0x100 EXP SWAP1 DIV PUSH14 0xFFFFFFFFFFFFFFFFFFFFFFFFFFFF AND PUSH14 0xFFFFFFFFFFFFFFFFFFFFFFFFFFFF AND PUSH2 0x239A JUMP JUMPDEST SWAP1 POP PUSH1 0x0 PUSH2 0xE12 PUSH1 0xB PUSH1 0x0 SWAP1 SLOAD SWAP1 PUSH2 0x100 EXP SWAP1 DIV PUSH14 0xFFFFFFFFFFFFFFFFFFFFFFFFFFFF AND PUSH1 0xB PUSH1 0xE SWAP1 SLOAD SWAP1 PUSH2 0x100 EXP SWAP1 DIV PUSH14 0xFFFFFFFFFFFFFFFFFFFFFFFFFFFF AND PUSH2 0x2406 JUMP JUMPDEST SWAP1 POP PUSH1 0x0 DUP1 PUSH1 0x4 SLOAD SUB PUSH2 0xE50 JUMPI PUSH2 0xE3C PUSH2 0xE34 PUSH2 0xE2F DUP7 DUP7 PUSH2 0x25AA JUMP JUMPDEST PUSH2 0x262B JUMP JUMPDEST PUSH2 0x3E8 PUSH2 0x239A JUMP JUMPDEST SWAP1 POP PUSH2 0xE4B PUSH1 0x0 PUSH2 0x3E8 PUSH2 0xAC0 JUMP JUMPDEST PUSH2 0xEE1 JUMP JUMPDEST PUSH2 0xEDE PUSH1 0xB PUSH1 0x0 SWAP1 SLOAD SWAP1 PUSH2 0x100 EXP SWAP1 DIV PUSH14 0xFFFFFFFFFFFFFFFFFFFFFFFFFFFF AND PUSH14 0xFFFFFFFFFFFFFFFFFFFFFFFFFFFF AND PUSH2 0xE8C DUP7 PUSH1 0x4 SLOAD PUSH2 0x25AA JUMP JUMPDEST PUSH2 0xE96 SWAP2 SWAP1 PUSH2 0x2F16 JUMP JUMPDEST PUSH1 0xB PUSH1 0xE SWAP1 SLOAD SWAP1 PUSH2 0x100 EXP SWAP1 DIV PUSH14 0xFFFFFFFFFFFFFFFFFFFFFFFFFFFF AND PUSH14 0xFFFFFFFFFFFFFFFFFFFFFFFFFFFF AND PUSH2 0xECF DUP7 PUSH1 0x4 SLOAD PUSH2 0x25AA JUMP JUMPDEST PUSH2 0xED9 SWAP2 SWAP1 PUSH2 0x2F16 JUMP JUMPDEST PUSH2 0x26A5 JUMP JUMPDEST SWAP1 POP JUMPDEST PUSH1 0x0 DUP2 GT PUSH2 0xF24 JUMPI PUSH1 0x40 MLOAD PUSH32 0x8C379A000000000000000000000000000000000000000000000000000000000 DUP2 MSTORE PUSH1 0x4 ADD PUSH2 0xF1B SWAP1 PUSH2 0x2F93 JUMP JUMPDEST PUSH1 0x40 MLOAD DUP1 SWAP2 SUB SWAP1 REVERT JUMPDEST PUSH2 0xF2E DUP9 DUP3 PUSH2 0xAC0 JUMP JUMPDEST PUSH1 0x8 PUSH1 0x0 SWAP1 SLOAD SWAP1 PUSH2 0x100 EXP SWAP1 DIV PUSH20 0xFFFFFFFFFFFFFFFFFFFFFFFFFFFFFFFFFFFFFFFF AND PUSH20 0xFFFFFFFFFFFFFFFFFFFFFFFFFFFFFFFFFFFFFFFF AND PUSH4 0xEB201D99 ADDRESS DUP11 PUSH1 0x40 MLOAD DUP4 PUSH4 0xFFFFFFFF AND PUSH1 0xE0 SHL DUP2 MSTORE PUSH1 0x4 ADD PUSH2 0xF8B SWAP3 SWAP2 SWAP1 PUSH2 0x2FB3 JUMP JUMPDEST PUSH1 0x0 PUSH1 0x40 MLOAD DUP1 DUP4 SUB DUP2 PUSH1 0x0 DUP8 DUP1 EXTCODESIZE ISZERO DUP1 ISZERO PUSH2 0xFA5 JUMPI PUSH1 0x0 DUP1 REVERT JUMPDEST POP GAS CALL ISZERO DUP1 ISZERO PUSH2 0xFB9 JUMPI RETURNDATASIZE PUSH1 0x0 DUP1 RETURNDATACOPY RETURNDATASIZE PUSH1 0x0 REVERT JUMPDEST POP POP POP POP PUSH2 0x1001 DUP7 DUP7 PUSH1 0xB PUSH1 0x0 SWAP1 SLOAD SWAP1 PUSH2 0x100 EXP SWAP1 DIV PUSH14 0xFFFFFFFFFFFFFFFFFFFFFFFFFFFF AND PUSH1 0xB PUSH1 0xE SWAP1 SLOAD SWAP1 PUSH2 0x100 EXP SWAP1 DIV PUSH14 0xFFFFFFFFFFFFFFFFFFFFFFFFFFFF AND PUSH2 0x13FB JUMP JUMPDEST DUP2 ISZERO PUSH2 0x1070 JUMPI PUSH2 0x1069 PUSH1 0xB PUSH1 0x0 SWAP1 SLOAD SWAP1 PUSH2 0x100 EXP SWAP1 DIV PUSH14 0xFFFFFFFFFFFFFFFFFFFFFFFFFFFF AND PUSH14 0xFFFFFFFFFFFFFFFFFFFFFFFFFFFF AND PUSH1 0xB PUSH1 0xE SWAP1 SLOAD SWAP1 PUSH2 0x100 EXP SWAP1 DIV PUSH14 0xFFFFFFFFFFFFFFFFFFFFFFFFFFFF AND PUSH14 0xFFFFFFFFFFFFFFFFFFFFFFFFFFFF AND PUSH2 0x25AA JUMP JUMPDEST PUSH1 0xC DUP2 SWAP1 SSTORE POP JUMPDEST CALLER PUSH20 0xFFFFFFFFFFFFFFFFFFFFFFFFFFFFFFFFFFFFFFFF AND PUSH32 0x4C209B5FC8AD50758F13E2E1088BA56A560DFF690A1C6FEF26394F4C03821C4F DUP6 DUP6 PUSH1 0x40 MLOAD PUSH2 0x10B8 SWAP3 SWAP2 SWAP1 PUSH2 0x2CB9 JUMP JUMPDEST PUSH1 0x40 MLOAD DUP1 SWAP2 SUB SWAP1 LOG2 PUSH1 0x1 SWAP7 POP POP POP POP POP POP POP PUSH1 0x1 PUSH1 0xE DUP2 SWAP1 SSTORE POP SWAP2 SWAP1 POP JUMP JUMPDEST PUSH1 0x0 DUP1 PUSH1 0x0 PUSH1 0x8 PUSH1 0x0 SWAP1 SLOAD SWAP1 PUSH2 0x100 EXP SWAP1 DIV PUSH20 0xFFFFFFFFFFFFFFFFFFFFFFFFFFFFFFFFFFFFFFFF AND PUSH20 0xFFFFFFFFFFFFFFFFFFFFFFFFFFFFFFFFFFFFFFFF AND PUSH4 0x238C45EB DUP6 ADDRESS PUSH1 0x40 MLOAD DUP4 PUSH4 0xFFFFFFFF AND PUSH1 0xE0 SHL DUP2 MSTORE PUSH1 0x4 ADD PUSH2 0x1139 SWAP3 SWAP2 SWAP1 PUSH2 0x2FB3 JUMP JUMPDEST PUSH1 0x40 DUP1 MLOAD DUP1 DUP4 SUB DUP2 DUP7 GAS STATICCALL ISZERO DUP1 ISZERO PUSH2 0x1155 JUMPI RETURNDATASIZE PUSH1 0x0 DUP1 RETURNDATACOPY RETURNDATASIZE PUSH1 0x0 REVERT JUMPDEST POP POP POP POP PUSH1 0x40 MLOAD RETURNDATASIZE PUSH1 0x1F NOT PUSH1 0x1F DUP3 ADD AND DUP3 ADD DUP1 PUSH1 0x40 MSTORE POP DUP2 ADD SWAP1 PUSH2 0x1179 SWAP2 SWAP1 PUSH2 0x2FDC JUMP JUMPDEST SWAP2 POP SWAP2 POP PUSH1 0x0 DUP3 GT DUP1 PUSH2 0x118C JUMPI POP PUSH1 0x0 DUP2 GT JUMPDEST PUSH2 0x11CB JUMPI PUSH1 0x40 MLOAD PUSH32 0x8C379A000000000000000000000000000000000000000000000000000000000 DUP2 MSTORE PUSH1 0x4 ADD PUSH2 0x11C2 SWAP1 PUSH2 0x3068 JUMP JUMPDEST PUSH1 0x40 MLOAD DUP1 SWAP2 SUB SWAP1 REVERT JUMPDEST PUSH1 0x9 PUSH1 0x0 SWAP1 SLOAD SWAP1 PUSH2 0x100 EXP SWAP1 DIV PUSH20 0xFFFFFFFFFFFFFFFFFFFFFFFFFFFFFFFFFFFFFFFF AND PUSH20 0xFFFFFFFFFFFFFFFFFFFFFFFFFFFFFFFFFFFFFFFF AND PUSH4 0xA9059CBB DUP6 DUP5 PUSH1 0x40 MLOAD DUP4 PUSH4 0xFFFFFFFF AND PUSH1 0xE0 SHL DUP2 MSTORE PUSH1 0x4 ADD PUSH2 0x1228 SWAP3 SWAP2 SWAP1 PUSH2 0x3088 JUMP JUMPDEST PUSH1 0x20 PUSH1 0x40 MLOAD DUP1 DUP4 SUB DUP2 PUSH1 0x0 DUP8 GAS CALL ISZERO DUP1 ISZERO PUSH2 0x1247 JUMPI RETURNDATASIZE PUSH1 0x0 DUP1 RETURNDATACOPY RETURNDATASIZE PUSH1 0x0 REVERT JUMPDEST POP POP POP POP PUSH1 0x40 MLOAD RETURNDATASIZE PUSH1 0x1F NOT PUSH1 0x1F DUP3 ADD AND DUP3 ADD DUP1 PUSH1 0x40 MSTORE POP DUP2 ADD SWAP1 PUSH2 0x126B SWAP2 SWAP1 PUSH2 0x30DD JUMP JUMPDEST POP PUSH1 0xA PUSH1 0x0 SWAP1 SLOAD SWAP1 PUSH2 0x100 EXP SWAP1 DIV PUSH20 0xFFFFFFFFFFFFFFFFFFFFFFFFFFFFFFFFFFFFFFFF AND PUSH20 0xFFFFFFFFFFFFFFFFFFFFFFFFFFFFFFFFFFFFFFFF AND PUSH4 0xA9059CBB DUP6 DUP4 PUSH1 0x40 MLOAD DUP4 PUSH4 0xFFFFFFFF AND PUSH1 0xE0 SHL DUP2 MSTORE PUSH1 0x4 ADD PUSH2 0x12C9 SWAP3 SWAP2 SWAP1 PUSH2 0x3088 JUMP JUMPDEST PUSH1 0x20 PUSH1 0x40 MLOAD DUP1 DUP4 SUB DUP2 PUSH1 0x0 DUP8 GAS CALL ISZERO DUP1 ISZERO PUSH2 0x12E8 JUMPI RETURNDATASIZE PUSH1 0x0 DUP1 RETURNDATACOPY RETURNDATASIZE PUSH1 0x0 REVERT JUMPDEST POP POP POP POP PUSH1 0x40 MLOAD RETURNDATASIZE PUSH1 0x1F NOT PUSH1 0x1F DUP3 ADD AND DUP3 ADD DUP1 PUSH1 0x40 MSTORE POP DUP2 ADD SWAP1 PUSH2 0x130C SWAP2 SWAP1 PUSH2 0x30DD JUMP JUMPDEST POP PUSH1 0x8 PUSH1 0x0 SWAP1 SLOAD SWAP1 PUSH2 0x100 EXP SWAP1 DIV PUSH20 0xFFFFFFFFFFFFFFFFFFFFFFFFFFFFFFFFFFFFFFFF AND PUSH20 0xFFFFFFFFFFFFFFFFFFFFFFFFFFFFFFFFFFFFFFFF AND PUSH4 0xBDD6BE07 DUP6 ADDRESS PUSH1 0x0 DUP1 PUSH1 0x40 MLOAD DUP6 PUSH4 0xFFFFFFFF AND PUSH1 0xE0 SHL DUP2 MSTORE PUSH1 0x4 ADD PUSH2 0x136F SWAP5 SWAP4 SWAP3 SWAP2 SWAP1 PUSH2 0x314F JUMP JUMPDEST PUSH1 0x0 PUSH1 0x40 MLOAD DUP1 DUP4 SUB DUP2 PUSH1 0x0 DUP8 DUP1 EXTCODESIZE ISZERO DUP1 ISZERO PUSH2 0x1389 JUMPI PUSH1 0x0 DUP1 REVERT JUMPDEST POP GAS CALL ISZERO DUP1 ISZERO PUSH2 0x139D JUMPI RETURNDATASIZE PUSH1 0x0 DUP1 RETURNDATACOPY RETURNDATASIZE PUSH1 0x0 REVERT JUMPDEST POP POP POP POP PUSH1 0x1 SWAP3 POP POP POP SWAP2 SWAP1 POP JUMP JUMPDEST PUSH1 0x0 PUSH1 0x5 PUSH1 0x0 DUP4 PUSH20 0xFFFFFFFFFFFFFFFFFFFFFFFFFFFFFFFFFFFFFFFF AND PUSH20 0xFFFFFFFFFFFFFFFFFFFFFFFFFFFFFFFFFFFFFFFF AND DUP2 MSTORE PUSH1 0x20 ADD SWAP1 DUP2 MSTORE PUSH1 0x20 ADD PUSH1 0x0 KECCAK256 SLOAD SWAP1 POP SWAP2 SWAP1 POP JUMP JUMPDEST PUSH1 0xC SLOAD DUP2 JUMP JUMPDEST PUSH14 0xFFFFFFFFFFFFFFFFFFFFFFFFFFFF DUP1 AND DUP5 GT ISZERO DUP1 ISZERO PUSH2 0x142B JUMPI POP PUSH14 0xFFFFFFFFFFFFFFFFFFFFFFFFFFFF DUP1 AND DUP4 GT ISZERO JUMPDEST PUSH2 0x146A JUMPI PUSH1 0x40 MLOAD PUSH32 0x8C379A000000000000000000000000000000000000000000000000000000000 DUP2 MSTORE PUSH1 0x4 ADD PUSH2 0x1461 SWAP1 PUSH2 0x31E0 JUMP JUMPDEST PUSH1 0x40 MLOAD DUP1 SWAP2 SUB SWAP1 REVERT JUMPDEST PUSH1 0x0 PUSH5 0x100000000 TIMESTAMP PUSH2 0x147D SWAP2 SWAP1 PUSH2 0x3200 JUMP JUMPDEST SWAP1 POP DUP5 PUSH1 0xB PUSH1 0x0 PUSH2 0x100 EXP DUP2 SLOAD DUP2 PUSH14 0xFFFFFFFFFFFFFFFFFFFFFFFFFFFF MUL NOT AND SWAP1 DUP4 PUSH14 0xFFFFFFFFFFFFFFFFFFFFFFFFFFFF AND MUL OR SWAP1 SSTORE POP DUP4 PUSH1 0xB PUSH1 0xE PUSH2 0x100 EXP DUP2 SLOAD DUP2 PUSH14 0xFFFFFFFFFFFFFFFFFFFFFFFFFFFF MUL NOT AND SWAP1 DUP4 PUSH14 0xFFFFFFFFFFFFFFFFFFFFFFFFFFFF AND MUL OR SWAP1 SSTORE POP DUP1 PUSH1 0xD PUSH1 0x0 PUSH2 0x100 EXP DUP2 SLOAD DUP2 PUSH4 0xFFFFFFFF MUL NOT AND SWAP1 DUP4 PUSH4 0xFFFFFFFF AND MUL OR SWAP1 SSTORE POP PUSH32 0x1C411E9A96E071241C2F21F7726B17AE89E3CAB4C78BE50E062B03A9FFFBBAD1 PUSH1 0xB PUSH1 0x0 SWAP1 SLOAD SWAP1 PUSH2 0x100 EXP SWAP1 DIV PUSH14 0xFFFFFFFFFFFFFFFFFFFFFFFFFFFF AND PUSH1 0xB PUSH1 0xE SWAP1 SLOAD SWAP1 PUSH2 0x100 EXP SWAP1 DIV PUSH14 0xFFFFFFFFFFFFFFFFFFFFFFFFFFFF AND PUSH1 0x40 MLOAD PUSH2 0x1573 SWAP3 SWAP2 SWAP1 PUSH2 0x3231 JUMP JUMPDEST PUSH1 0x40 MLOAD DUP1 SWAP2 SUB SWAP1 LOG1 POP POP POP POP POP JUMP JUMPDEST PUSH1 0x1 DUP1 SLOAD PUSH2 0x158F SWAP1 PUSH2 0x2D11 JUMP JUMPDEST DUP1 PUSH1 0x1F ADD PUSH1 0x20 DUP1 SWAP2 DIV MUL PUSH1 0x20 ADD PUSH1 0x40 MLOAD SWAP1 DUP2 ADD PUSH1 0x40 MSTORE DUP1 SWAP3 SWAP2 SWAP1 DUP2 DUP2 MSTORE PUSH1 0x20 ADD DUP3 DUP1 SLOAD PUSH2 0x15BB SWAP1 PUSH2 0x2D11 JUMP JUMPDEST DUP1 ISZERO PUSH2 0x1608 JUMPI DUP1 PUSH1 0x1F LT PUSH2 0x15DD JUMPI PUSH2 0x100 DUP1 DUP4 SLOAD DIV MUL DUP4 MSTORE SWAP2 PUSH1 0x20 ADD SWAP2 PUSH2 0x1608 JUMP JUMPDEST DUP3 ADD SWAP2 SWAP1 PUSH1 0x0 MSTORE PUSH1 0x20 PUSH1 0x0 KECCAK256 SWAP1 JUMPDEST DUP2 SLOAD DUP2 MSTORE SWAP1 PUSH1 0x1 ADD SWAP1 PUSH1 0x20 ADD DUP1 DUP4 GT PUSH2 0x15EB JUMPI DUP3 SWAP1 SUB PUSH1 0x1F AND DUP3 ADD SWAP2 JUMPDEST POP POP POP POP POP DUP2 JUMP JUMPDEST PUSH1 0x0 PUSH1 0x1 PUSH1 0xE SLOAD EQ PUSH2 0x1657 JUMPI PUSH1 0x40 MLOAD PUSH32 0x8C379A000000000000000000000000000000000000000000000000000000000 DUP2 MSTORE PUSH1 0x4 ADD PUSH2 0x164E SWAP1 PUSH2 0x2E85 JUMP JUMPDEST PUSH1 0x40 MLOAD DUP1 SWAP2 SUB SWAP1 REVERT JUMPDEST PUSH1 0x0 PUSH1 0xE DUP2 SWAP1 SSTORE POP PUSH1 0x0 PUSH1 0x9 PUSH1 0x0 SWAP1 SLOAD SWAP1 PUSH2 0x100 EXP SWAP1 DIV PUSH20 0xFFFFFFFFFFFFFFFFFFFFFFFFFFFFFFFFFFFFFFFF AND PUSH20 0xFFFFFFFFFFFFFFFFFFFFFFFFFFFFFFFFFFFFFFFF AND PUSH4 0x70A08231 ADDRESS PUSH1 0x40 MLOAD DUP3 PUSH4 0xFFFFFFFF AND PUSH1 0xE0 SHL DUP2 MSTORE PUSH1 0x4 ADD PUSH2 0x16BC SWAP2 SWAP1 PUSH2 0x2988 JUMP JUMPDEST PUSH1 0x20 PUSH1 0x40 MLOAD DUP1 DUP4 SUB DUP2 DUP7 GAS STATICCALL ISZERO DUP1 ISZERO PUSH2 0x16D9 JUMPI RETURNDATASIZE PUSH1 0x0 DUP1 RETURNDATACOPY RETURNDATASIZE PUSH1 0x0 REVERT JUMPDEST POP POP POP POP PUSH1 0x40 MLOAD RETURNDATASIZE PUSH1 0x1F NOT PUSH1 0x1F DUP3 ADD AND DUP3 ADD DUP1 PUSH1 0x40 MSTORE POP DUP2 ADD SWAP1 PUSH2 0x16FD SWAP2 SWAP1 PUSH2 0x2EBA JUMP JUMPDEST SWAP1 POP PUSH1 0x0 PUSH1 0xA PUSH1 0x0 SWAP1 SLOAD SWAP1 PUSH2 0x100 EXP SWAP1 DIV PUSH20 0xFFFFFFFFFFFFFFFFFFFFFFFFFFFFFFFFFFFFFFFF AND PUSH20 0xFFFFFFFFFFFFFFFFFFFFFFFFFFFFFFFFFFFFFFFF AND PUSH4 0x70A08231 ADDRESS PUSH1 0x40 MLOAD DUP3 PUSH4 0xFFFFFFFF AND PUSH1 0xE0 SHL DUP2 MSTORE PUSH1 0x4 ADD PUSH2 0x175C SWAP2 SWAP1 PUSH2 0x2988 JUMP JUMPDEST PUSH1 0x20 PUSH1 0x40 MLOAD DUP1 DUP4 SUB DUP2 DUP7 GAS STATICCALL ISZERO DUP1 ISZERO PUSH2 0x1779 JUMPI RETURNDATASIZE PUSH1 0x0 DUP1 RETURNDATACOPY RETURNDATASIZE PUSH1 0x0 REVERT JUMPDEST POP POP POP POP PUSH1 0x40 MLOAD RETURNDATASIZE PUSH1 0x1F NOT PUSH1 0x1F DUP3 ADD AND DUP3 ADD DUP1 PUSH1 0x40 MSTORE POP DUP2 ADD SWAP1 PUSH2 0x179D SWAP2 SWAP1 PUSH2 0x2EBA JUMP JUMPDEST SWAP1 POP PUSH1 0x0 PUSH1 0x5 PUSH1 0x0 ADDRESS PUSH20 0xFFFFFFFFFFFFFFFFFFFFFFFFFFFFFFFFFFFFFFFF AND PUSH20 0xFFFFFFFFFFFFFFFFFFFFFFFFFFFFFFFFFFFFFFFF AND DUP2 MSTORE PUSH1 0x20 ADD SWAP1 DUP2 MSTORE PUSH1 0x20 ADD PUSH1 0x0 KECCAK256 SLOAD SWAP1 POP PUSH1 0x0 PUSH2 0x1827 PUSH1 0xB PUSH1 0x0 SWAP1 SLOAD SWAP1 PUSH2 0x100 EXP SWAP1 DIV PUSH14 0xFFFFFFFFFFFFFFFFFFFFFFFFFFFF AND PUSH1 0xB PUSH1 0xE SWAP1 SLOAD SWAP1 PUSH2 0x100 EXP SWAP1 DIV PUSH14 0xFFFFFFFFFFFFFFFFFFFFFFFFFFFF AND PUSH2 0x2406 JUMP JUMPDEST SWAP1 POP PUSH1 0x0 PUSH1 0x64 DUP8 DUP5 PUSH2 0x1839 SWAP2 SWAP1 PUSH2 0x325A JUMP JUMPDEST PUSH2 0x1843 SWAP2 SWAP1 PUSH2 0x2F16 JUMP JUMPDEST SWAP1 POP PUSH1 0x0 DUP2 GT PUSH2 0x1888 JUMPI PUSH1 0x40 MLOAD PUSH32 0x8C379A000000000000000000000000000000000000000000000000000000000 DUP2 MSTORE PUSH1 0x4 ADD PUSH2 0x187F SWAP1 PUSH2 0x32E8 JUMP JUMPDEST PUSH1 0x40 MLOAD DUP1 SWAP2 SUB SWAP1 REVERT JUMPDEST PUSH1 0x0 PUSH1 0x4 SLOAD PUSH2 0x1897 DUP4 DUP9 PUSH2 0x25AA JUMP JUMPDEST PUSH2 0x18A1 SWAP2 SWAP1 PUSH2 0x2F16 JUMP JUMPDEST SWAP1 POP PUSH1 0x0 PUSH1 0x4 SLOAD PUSH2 0x18B2 DUP5 DUP9 PUSH2 0x25AA JUMP JUMPDEST PUSH2 0x18BC SWAP2 SWAP1 PUSH2 0x2F16 JUMP JUMPDEST SWAP1 POP PUSH1 0x0 DUP3 GT DUP1 ISZERO PUSH2 0x18CE JUMPI POP PUSH1 0x0 DUP2 GT JUMPDEST PUSH2 0x190D JUMPI PUSH1 0x40 MLOAD PUSH32 0x8C379A000000000000000000000000000000000000000000000000000000000 DUP2 MSTORE PUSH1 0x4 ADD PUSH2 0x1904 SWAP1 PUSH2 0x32E8 JUMP JUMPDEST PUSH1 0x40 MLOAD DUP1 SWAP2 SUB SWAP1 REVERT JUMPDEST PUSH2 0x1917 ADDRESS DUP5 PUSH2 0xB58 JUMP JUMPDEST PUSH1 0x9 PUSH1 0x0 SWAP1 SLOAD SWAP1 PUSH2 0x100 EXP SWAP1 DIV PUSH20 0xFFFFFFFFFFFFFFFFFFFFFFFFFFFFFFFFFFFFFFFF AND PUSH20 0xFFFFFFFFFFFFFFFFFFFFFFFFFFFFFFFFFFFFFFFF AND PUSH4 0xA9059CBB DUP12 DUP5 PUSH1 0x40 MLOAD DUP4 PUSH4 0xFFFFFFFF AND PUSH1 0xE0 SHL DUP2 MSTORE PUSH1 0x4 ADD PUSH2 0x1974 SWAP3 SWAP2 SWAP1 PUSH2 0x3088 JUMP JUMPDEST PUSH1 0x20 PUSH1 0x40 MLOAD DUP1 DUP4 SUB DUP2 PUSH1 0x0 DUP8 GAS CALL ISZERO DUP1 ISZERO PUSH2 0x1993 JUMPI RETURNDATASIZE PUSH1 0x0 DUP1 RETURNDATACOPY RETURNDATASIZE PUSH1 0x0 REVERT JUMPDEST POP POP POP POP PUSH1 0x40 MLOAD RETURNDATASIZE PUSH1 0x1F NOT PUSH1 0x1F DUP3 ADD AND DUP3 ADD DUP1 PUSH1 0x40 MSTORE POP DUP2 ADD SWAP1 PUSH2 0x19B7 SWAP2 SWAP1 PUSH2 0x30DD JUMP JUMPDEST POP PUSH1 0xA PUSH1 0x0 SWAP1 SLOAD SWAP1 PUSH2 0x100 EXP SWAP1 DIV PUSH20 0xFFFFFFFFFFFFFFFFFFFFFFFFFFFFFFFFFFFFFFFF AND PUSH20 0xFFFFFFFFFFFFFFFFFFFFFFFFFFFFFFFFFFFFFFFF AND PUSH4 0xA9059CBB DUP12 DUP4 PUSH1 0x40 MLOAD DUP4 PUSH4 0xFFFFFFFF AND PUSH1 0xE0 SHL DUP2 MSTORE PUSH1 0x4 ADD PUSH2 0x1A15 SWAP3 SWAP2 SWAP1 PUSH2 0x3088 JUMP JUMPDEST PUSH1 0x20 PUSH1 0x40 MLOAD DUP1 DUP4 SUB DUP2 PUSH1 0x0 DUP8 GAS CALL ISZERO DUP1 ISZERO PUSH2 0x1A34 JUMPI RETURNDATASIZE PUSH1 0x0 DUP1 RETURNDATACOPY RETURNDATASIZE PUSH1 0x0 REVERT JUMPDEST POP POP POP POP PUSH1 0x40 MLOAD RETURNDATASIZE PUSH1 0x1F NOT PUSH1 0x1F DUP3 ADD AND DUP3 ADD DUP1 PUSH1 0x40 MSTORE POP DUP2 ADD SWAP1 PUSH2 0x1A58 SWAP2 SWAP1 PUSH2 0x30DD JUMP JUMPDEST POP PUSH1 0x9 PUSH1 0x0 SWAP1 SLOAD SWAP1 PUSH2 0x100 EXP SWAP1 DIV PUSH20 0xFFFFFFFFFFFFFFFFFFFFFFFFFFFFFFFFFFFFFFFF AND PUSH20 0xFFFFFFFFFFFFFFFFFFFFFFFFFFFFFFFFFFFFFFFF AND PUSH4 0x70A08231 ADDRESS PUSH1 0x40 MLOAD DUP3 PUSH4 0xFFFFFFFF AND PUSH1 0xE0 SHL DUP2 MSTORE PUSH1 0x4 ADD PUSH2 0x1AB4 SWAP2 SWAP1 PUSH2 0x2988 JUMP JUMPDEST PUSH1 0x20 PUSH1 0x40 MLOAD DUP1 DUP4 SUB DUP2 DUP7 GAS STATICCALL ISZERO DUP1 ISZERO PUSH2 0x1AD1 JUMPI RETURNDATASIZE PUSH1 0x0 DUP1 RETURNDATACOPY RETURNDATASIZE PUSH1 0x0 REVERT JUMPDEST POP POP POP POP PUSH1 0x40 MLOAD RETURNDATASIZE PUSH1 0x1F NOT PUSH1 0x1F DUP3 ADD AND DUP3 ADD DUP1 PUSH1 0x40 MSTORE POP DUP2 ADD SWAP1 PUSH2 0x1AF5 SWAP2 SWAP1 PUSH2 0x2EBA JUMP JUMPDEST SWAP7 POP PUSH1 0xA PUSH1 0x0 SWAP1 SLOAD SWAP1 PUSH2 0x100 EXP SWAP1 DIV PUSH20 0xFFFFFFFFFFFFFFFFFFFFFFFFFFFFFFFFFFFFFFFF AND PUSH20 0xFFFFFFFFFFFFFFFFFFFFFFFFFFFFFFFFFFFFFFFF AND PUSH4 0x70A08231 ADDRESS PUSH1 0x40 MLOAD DUP3 PUSH4 0xFFFFFFFF AND PUSH1 0xE0 SHL DUP2 MSTORE PUSH1 0x4 ADD PUSH2 0x1B52 SWAP2 SWAP1 PUSH2 0x2988 JUMP JUMPDEST PUSH1 0x20 PUSH1 0x40 MLOAD DUP1 DUP4 SUB DUP2 DUP7 GAS STATICCALL ISZERO DUP1 ISZERO PUSH2 0x1B6F JUMPI RETURNDATASIZE PUSH1 0x0 DUP1 RETURNDATACOPY RETURNDATASIZE PUSH1 0x0 REVERT JUMPDEST POP POP POP POP PUSH1 0x40 MLOAD RETURNDATASIZE PUSH1 0x1F NOT PUSH1 0x1F DUP3 ADD AND DUP3 ADD DUP1 PUSH1 0x40 MSTORE POP DUP2 ADD SWAP1 PUSH2 0x1B93 SWAP2 SWAP1 PUSH2 0x2EBA JUMP JUMPDEST SWAP6 POP PUSH1 0x64 DUP10 SUB PUSH2 0x1CBC JUMPI PUSH1 0x8 PUSH1 0x0 SWAP1 SLOAD SWAP1 PUSH2 0x100 EXP SWAP1 DIV PUSH20 0xFFFFFFFFFFFFFFFFFFFFFFFFFFFFFFFFFFFFFFFF AND PUSH20 0xFFFFFFFFFFFFFFFFFFFFFFFFFFFFFFFFFFFFFFFF AND PUSH4 0x369DADFF DUP12 ADDRESS PUSH1 0x40 MLOAD DUP4 PUSH4 0xFFFFFFFF AND PUSH1 0xE0 SHL DUP2 MSTORE PUSH1 0x4 ADD PUSH2 0x1BFA SWAP3 SWAP2 SWAP1 PUSH2 0x2FB3 JUMP JUMPDEST PUSH1 0x0 PUSH1 0x40 MLOAD DUP1 DUP4 SUB DUP2 PUSH1 0x0 DUP8 DUP1 EXTCODESIZE ISZERO DUP1 ISZERO PUSH2 0x1C14 JUMPI PUSH1 0x0 DUP1 REVERT JUMPDEST POP GAS CALL ISZERO DUP1 ISZERO PUSH2 0x1C28 JUMPI RETURNDATASIZE PUSH1 0x0 DUP1 RETURNDATACOPY RETURNDATASIZE PUSH1 0x0 REVERT JUMPDEST POP POP POP POP PUSH1 0x8 PUSH1 0x0 SWAP1 SLOAD SWAP1 PUSH2 0x100 EXP SWAP1 DIV PUSH20 0xFFFFFFFFFFFFFFFFFFFFFFFFFFFFFFFFFFFFFFFF AND PUSH20 0xFFFFFFFFFFFFFFFFFFFFFFFFFFFFFFFFFFFFFFFF AND PUSH4 0x202787B ADDRESS DUP13 PUSH1 0x40 MLOAD DUP4 PUSH4 0xFFFFFFFF AND PUSH1 0xE0 SHL DUP2 MSTORE PUSH1 0x4 ADD PUSH2 0x1C89 SWAP3 SWAP2 SWAP1 PUSH2 0x2FB3 JUMP JUMPDEST PUSH1 0x0 PUSH1 0x40 MLOAD DUP1 DUP4 SUB DUP2 PUSH1 0x0 DUP8 DUP1 EXTCODESIZE ISZERO DUP1 ISZERO PUSH2 0x1CA3 JUMPI PUSH1 0x0 DUP1 REVERT JUMPDEST POP GAS CALL ISZERO DUP1 ISZERO PUSH2 0x1CB7 JUMPI RETURNDATASIZE PUSH1 0x0 DUP1 RETURNDATACOPY RETURNDATASIZE PUSH1 0x0 REVERT JUMPDEST POP POP POP POP JUMPDEST PUSH2 0x1D00 DUP8 DUP8 PUSH1 0xB PUSH1 0x0 SWAP1 SLOAD SWAP1 PUSH2 0x100 EXP SWAP1 DIV PUSH14 0xFFFFFFFFFFFFFFFFFFFFFFFFFFFF AND PUSH1 0xB PUSH1 0xE SWAP1 SLOAD SWAP1 PUSH2 0x100 EXP SWAP1 DIV PUSH14 0xFFFFFFFFFFFFFFFFFFFFFFFFFFFF AND PUSH2 0x13FB JUMP JUMPDEST DUP4 ISZERO PUSH2 0x1D6F JUMPI PUSH2 0x1D68 PUSH1 0xB PUSH1 0x0 SWAP1 SLOAD SWAP1 PUSH2 0x100 EXP SWAP1 DIV PUSH14 0xFFFFFFFFFFFFFFFFFFFFFFFFFFFF AND PUSH14 0xFFFFFFFFFFFFFFFFFFFFFFFFFFFF AND PUSH1 0xB PUSH1 0xE SWAP1 SLOAD SWAP1 PUSH2 0x100 EXP SWAP1 DIV PUSH14 0xFFFFFFFFFFFFFFFFFFFFFFFFFFFF AND PUSH14 0xFFFFFFFFFFFFFFFFFFFFFFFFFFFF AND PUSH2 0x25AA JUMP JUMPDEST PUSH1 0xC DUP2 SWAP1 SSTORE POP JUMPDEST DUP10 PUSH20 0xFFFFFFFFFFFFFFFFFFFFFFFFFFFFFFFFFFFFFFFF AND CALLER PUSH20 0xFFFFFFFFFFFFFFFFFFFFFFFFFFFFFFFFFFFFFFFF AND PUSH32 0xDCCD412F0B1252819CB1FD330B93224CA42612892BB3F4F789976E6D81936496 DUP5 DUP5 PUSH1 0x40 MLOAD PUSH2 0x1DCE SWAP3 SWAP2 SWAP1 PUSH2 0x2CB9 JUMP JUMPDEST PUSH1 0x40 MLOAD DUP1 SWAP2 SUB SWAP1 LOG3 PUSH1 0x1 SWAP8 POP POP POP POP POP POP POP POP PUSH1 0x1 PUSH1 0xE DUP2 SWAP1 SSTORE POP SWAP3 SWAP2 POP POP JUMP JUMPDEST PUSH1 0x0 DUP2 PUSH1 0x5 PUSH1 0x0 CALLER PUSH20 0xFFFFFFFFFFFFFFFFFFFFFFFFFFFFFFFFFFFFFFFF AND PUSH20 0xFFFFFFFFFFFFFFFFFFFFFFFFFFFFFFFFFFFFFFFF AND DUP2 MSTORE PUSH1 0x20 ADD SWAP1 DUP2 MSTORE PUSH1 0x20 ADD PUSH1 0x0 KECCAK256 PUSH1 0x0 DUP3 DUP3 SLOAD PUSH2 0x1E40 SWAP2 SWAP1 PUSH2 0x2D71 JUMP JUMPDEST SWAP3 POP POP DUP2 SWAP1 SSTORE POP DUP2 PUSH1 0x5 PUSH1 0x0 DUP6 PUSH20 0xFFFFFFFFFFFFFFFFFFFFFFFFFFFFFFFFFFFFFFFF AND PUSH20 0xFFFFFFFFFFFFFFFFFFFFFFFFFFFFFFFFFFFFFFFF AND DUP2 MSTORE PUSH1 0x20 ADD SWAP1 DUP2 MSTORE PUSH1 0x20 ADD PUSH1 0x0 KECCAK256 PUSH1 0x0 DUP3 DUP3 SLOAD PUSH2 0x1E96 SWAP2 SWAP1 PUSH2 0x2DA5 JUMP JUMPDEST SWAP3 POP POP DUP2 SWAP1 SSTORE POP PUSH1 0x1 SWAP1 POP SWAP3 SWAP2 POP POP JUMP JUMPDEST PUSH1 0x1 PUSH1 0xE SLOAD EQ PUSH2 0x1EEC JUMPI PUSH1 0x40 MLOAD PUSH32 0x8C379A000000000000000000000000000000000000000000000000000000000 DUP2 MSTORE PUSH1 0x4 ADD PUSH2 0x1EE3 SWAP1 PUSH2 0x2E85 JUMP JUMPDEST PUSH1 0x40 MLOAD DUP1 SWAP2 SUB SWAP1 REVERT JUMPDEST PUSH1 0x0 PUSH1 0xE DUP2 SWAP1 SSTORE POP PUSH1 0x0 PUSH1 0x9 PUSH1 0x0 SWAP1 SLOAD SWAP1 PUSH2 0x100 EXP SWAP1 DIV PUSH20 0xFFFFFFFFFFFFFFFFFFFFFFFFFFFFFFFFFFFFFFFF AND SWAP1 POP PUSH1 0x0 PUSH1 0xA PUSH1 0x0 SWAP1 SLOAD SWAP1 PUSH2 0x100 EXP SWAP1 DIV PUSH20 0xFFFFFFFFFFFFFFFFFFFFFFFFFFFFFFFFFFFFFFFF AND SWAP1 POP POP POP PUSH1 0x1 PUSH1 0xE DUP2 SWAP1 SSTORE POP POP JUMP JUMPDEST PUSH1 0x7 PUSH1 0x0 SWAP1 SLOAD SWAP1 PUSH2 0x100 EXP SWAP1 DIV PUSH20 0xFFFFFFFFFFFFFFFFFFFFFFFFFFFFFFFFFFFFFFFF AND DUP2 JUMP JUMPDEST PUSH1 0xD PUSH1 0x0 SWAP1 SLOAD SWAP1 PUSH2 0x100 EXP SWAP1 DIV PUSH4 0xFFFFFFFF AND DUP2 JUMP JUMPDEST PUSH1 0xA PUSH1 0x0 SWAP1 SLOAD SWAP1 PUSH2 0x100 EXP SWAP1 DIV PUSH20 0xFFFFFFFFFFFFFFFFFFFFFFFFFFFFFFFFFFFFFFFF AND DUP2 JUMP JUMPDEST PUSH1 0x0 DUP1 PUSH1 0x0 PUSH1 0x5 PUSH1 0x0 DUP6 PUSH20 0xFFFFFFFFFFFFFFFFFFFFFFFFFFFFFFFFFFFFFFFF AND PUSH20 0xFFFFFFFFFFFFFFFFFFFFFFFFFFFFFFFFFFFFFFFF AND DUP2 MSTORE PUSH1 0x20 ADD SWAP1 DUP2 MSTORE PUSH1 0x20 ADD PUSH1 0x0 KECCAK256 SLOAD SWAP1 POP PUSH1 0x0 PUSH1 0x4 SLOAD PUSH2 0x2033 DUP4 PUSH1 0xB PUSH1 0x0 SWAP1 SLOAD SWAP1 PUSH2 0x100 EXP SWAP1 DIV PUSH14 0xFFFFFFFFFFFFFFFFFFFFFFFFFFFF AND PUSH14 0xFFFFFFFFFFFFFFFFFFFFFFFFFFFF AND PUSH2 0x25AA JUMP JUMPDEST PUSH2 0x203D SWAP2 SWAP1 PUSH2 0x2F16 JUMP JUMPDEST SWAP1 POP PUSH1 0x0 PUSH1 0x4 SLOAD PUSH2 0x207A DUP5 PUSH1 0xB PUSH1 0xE SWAP1 SLOAD SWAP1 PUSH2 0x100 EXP SWAP1 DIV PUSH14 0xFFFFFFFFFFFFFFFFFFFFFFFFFFFF AND PUSH14 0xFFFFFFFFFFFFFFFFFFFFFFFFFFFF AND PUSH2 0x25AA JUMP JUMPDEST PUSH2 0x2084 SWAP2 SWAP1 PUSH2 0x2F16 JUMP JUMPDEST SWAP1 POP DUP2 DUP2 SWAP5 POP SWAP5 POP POP POP POP SWAP2 POP SWAP2 JUMP JUMPDEST PUSH1 0x0 PUSH1 0x6 PUSH1 0x0 DUP5 PUSH20 0xFFFFFFFFFFFFFFFFFFFFFFFFFFFFFFFFFFFFFFFF AND PUSH20 0xFFFFFFFFFFFFFFFFFFFFFFFFFFFFFFFFFFFFFFFF AND DUP2 MSTORE PUSH1 0x20 ADD SWAP1 DUP2 MSTORE PUSH1 0x20 ADD PUSH1 0x0 KECCAK256 PUSH1 0x0 DUP4 PUSH20 0xFFFFFFFFFFFFFFFFFFFFFFFFFFFFFFFFFFFFFFFF AND PUSH20 0xFFFFFFFFFFFFFFFFFFFFFFFFFFFFFFFFFFFFFFFF AND DUP2 MSTORE PUSH1 0x20 ADD SWAP1 DUP2 MSTORE PUSH1 0x20 ADD PUSH1 0x0 KECCAK256 SLOAD SWAP1 POP SWAP3 SWAP2 POP POP JUMP JUMPDEST PUSH1 0x2 DUP1 SLOAD PUSH2 0x2128 SWAP1 PUSH2 0x2D11 JUMP JUMPDEST DUP1 PUSH1 0x1F ADD PUSH1 0x20 DUP1 SWAP2 DIV MUL PUSH1 0x20 ADD PUSH1 0x40 MLOAD SWAP1 DUP2 ADD PUSH1 0x40 MSTORE DUP1 SWAP3 SWAP2 SWAP1 DUP2 DUP2 MSTORE PUSH1 0x20 ADD DUP3 DUP1 SLOAD PUSH2 0x2154 SWAP1 PUSH2 0x2D11 JUMP JUMPDEST DUP1 ISZERO PUSH2 0x21A1 JUMPI DUP1 PUSH1 0x1F LT PUSH2 0x2176 JUMPI PUSH2 0x100 DUP1 DUP4 SLOAD DIV MUL DUP4 MSTORE SWAP2 PUSH1 0x20 ADD SWAP2 PUSH2 0x21A1 JUMP JUMPDEST DUP3 ADD SWAP2 SWAP1 PUSH1 0x0 MSTORE PUSH1 0x20 PUSH1 0x0 KECCAK256 SWAP1 JUMPDEST DUP2 SLOAD DUP2 MSTORE SWAP1 PUSH1 0x1 ADD SWAP1 PUSH1 0x20 ADD DUP1 DUP4 GT PUSH2 0x2184 JUMPI DUP3 SWAP1 SUB PUSH1 0x1F AND DUP3 ADD SWAP2 JUMPDEST POP POP POP POP POP DUP2 JUMP JUMPDEST PUSH1 0x1 PUSH1 0xE SLOAD EQ PUSH2 0x21EE JUMPI PUSH1 0x40 MLOAD PUSH32 0x8C379A000000000000000000000000000000000000000000000000000000000 DUP2 MSTORE PUSH1 0x4 ADD PUSH2 0x21E5 SWAP1 PUSH2 0x2E85 JUMP JUMPDEST PUSH1 0x40 MLOAD DUP1 SWAP2 SUB SWAP1 REVERT JUMPDEST PUSH1 0x0 PUSH1 0xE DUP2 SWAP1 SSTORE POP PUSH2 0x2370 PUSH1 0x9 PUSH1 0x0 SWAP1 SLOAD SWAP1 PUSH2 0x100 EXP SWAP1 DIV PUSH20 0xFFFFFFFFFFFFFFFFFFFFFFFFFFFFFFFFFFFFFFFF AND PUSH20 0xFFFFFFFFFFFFFFFFFFFFFFFFFFFFFFFFFFFFFFFF AND PUSH4 0x70A08231 ADDRESS PUSH1 0x40 MLOAD DUP3 PUSH4 0xFFFFFFFF AND PUSH1 0xE0 SHL DUP2 MSTORE PUSH1 0x4 ADD PUSH2 0x2254 SWAP2 SWAP1 PUSH2 0x2988 JUMP JUMPDEST PUSH1 0x20 PUSH1 0x40 MLOAD DUP1 DUP4 SUB DUP2 DUP7 GAS STATICCALL ISZERO DUP1 ISZERO PUSH2 0x2271 JUMPI RETURNDATASIZE PUSH1 0x0 DUP1 RETURNDATACOPY RETURNDATASIZE PUSH1 0x0 REVERT JUMPDEST POP POP POP POP PUSH1 0x40 MLOAD RETURNDATASIZE PUSH1 0x1F NOT PUSH1 0x1F DUP3 ADD AND DUP3 ADD DUP1 PUSH1 0x40 MSTORE POP DUP2 ADD SWAP1 PUSH2 0x2295 SWAP2 SWAP1 PUSH2 0x2EBA JUMP JUMPDEST PUSH1 0xA PUSH1 0x0 SWAP1 SLOAD SWAP1 PUSH2 0x100 EXP SWAP1 DIV PUSH20 0xFFFFFFFFFFFFFFFFFFFFFFFFFFFFFFFFFFFFFFFF AND PUSH20 0xFFFFFFFFFFFFFFFFFFFFFFFFFFFFFFFFFFFFFFFF AND PUSH4 0x70A08231 ADDRESS PUSH1 0x40 MLOAD DUP3 PUSH4 0xFFFFFFFF AND PUSH1 0xE0 SHL DUP2 MSTORE PUSH1 0x4 ADD PUSH2 0x22F0 SWAP2 SWAP1 PUSH2 0x2988 JUMP JUMPDEST PUSH1 0x20 PUSH1 0x40 MLOAD DUP1 DUP4 SUB DUP2 DUP7 GAS STATICCALL ISZERO DUP1 ISZERO PUSH2 0x230D JUMPI RETURNDATASIZE PUSH1 0x0 DUP1 RETURNDATACOPY RETURNDATASIZE PUSH1 0x0 REVERT JUMPDEST POP POP POP POP PUSH1 0x40 MLOAD RETURNDATASIZE PUSH1 0x1F NOT PUSH1 0x1F DUP3 ADD AND DUP3 ADD DUP1 PUSH1 0x40 MSTORE POP DUP2 ADD SWAP1 PUSH2 0x2331 SWAP2 SWAP1 PUSH2 0x2EBA JUMP JUMPDEST PUSH1 0xB PUSH1 0x0 SWAP1 SLOAD SWAP1 PUSH2 0x100 EXP SWAP1 DIV PUSH14 0xFFFFFFFFFFFFFFFFFFFFFFFFFFFF AND PUSH1 0xB PUSH1 0xE SWAP1 SLOAD SWAP1 PUSH2 0x100 EXP SWAP1 DIV PUSH14 0xFFFFFFFFFFFFFFFFFFFFFFFFFFFF AND PUSH2 0x13FB JUMP JUMPDEST PUSH1 0x1 PUSH1 0xE DUP2 SWAP1 SSTORE POP JUMP JUMPDEST PUSH1 0x60 PUSH1 0x40 MLOAD DUP1 PUSH1 0x60 ADD PUSH1 0x40 MSTORE DUP1 PUSH1 0x35 DUP2 MSTORE PUSH1 0x20 ADD PUSH2 0x348F PUSH1 0x35 SWAP2 CODECOPY SWAP1 POP SWAP1 JUMP JUMPDEST PUSH1 0x0 DUP1 DUP3 DUP5 PUSH2 0x23A9 SWAP2 SWAP1 PUSH2 0x2D71 JUMP JUMPDEST SWAP1 POP DUP4 DUP4 DUP6 PUSH2 0x23B8 SWAP2 SWAP1 PUSH2 0x2D71 JUMP JUMPDEST SWAP2 POP DUP2 GT ISZERO PUSH2 0x23FC JUMPI PUSH1 0x40 MLOAD PUSH32 0x8C379A000000000000000000000000000000000000000000000000000000000 DUP2 MSTORE PUSH1 0x4 ADD PUSH2 0x23F3 SWAP1 PUSH2 0x3354 JUMP JUMPDEST PUSH1 0x40 MLOAD DUP1 SWAP2 SUB SWAP1 REVERT JUMPDEST DUP1 SWAP2 POP POP SWAP3 SWAP2 POP POP JUMP JUMPDEST PUSH1 0x0 DUP1 PUSH1 0x7 PUSH1 0x0 SWAP1 SLOAD SWAP1 PUSH2 0x100 EXP SWAP1 DIV PUSH20 0xFFFFFFFFFFFFFFFFFFFFFFFFFFFFFFFFFFFFFFFF AND PUSH20 0xFFFFFFFFFFFFFFFFFFFFFFFFFFFFFFFFFFFFFFFF AND PUSH4 0x17E7E58 PUSH1 0x40 MLOAD DUP2 PUSH4 0xFFFFFFFF AND PUSH1 0xE0 SHL DUP2 MSTORE PUSH1 0x4 ADD PUSH1 0x20 PUSH1 0x40 MLOAD DUP1 DUP4 SUB DUP2 DUP7 GAS STATICCALL ISZERO DUP1 ISZERO PUSH2 0x2476 JUMPI RETURNDATASIZE PUSH1 0x0 DUP1 RETURNDATACOPY RETURNDATASIZE PUSH1 0x0 REVERT JUMPDEST POP POP POP POP PUSH1 0x40 MLOAD RETURNDATASIZE PUSH1 0x1F NOT PUSH1 0x1F DUP3 ADD AND DUP3 ADD DUP1 PUSH1 0x40 MSTORE POP DUP2 ADD SWAP1 PUSH2 0x249A SWAP2 SWAP1 PUSH2 0x3389 JUMP JUMPDEST SWAP1 POP PUSH1 0x0 PUSH20 0xFFFFFFFFFFFFFFFFFFFFFFFFFFFFFFFFFFFFFFFF AND DUP2 PUSH20 0xFFFFFFFFFFFFFFFFFFFFFFFFFFFFFFFFFFFFFFFF AND EQ ISZERO SWAP2 POP PUSH1 0x0 PUSH1 0xC SLOAD SWAP1 POP DUP3 ISZERO PUSH2 0x2590 JUMPI PUSH1 0x0 DUP2 EQ PUSH2 0x258B JUMPI PUSH1 0x0 PUSH2 0x2518 PUSH2 0x2513 DUP8 PUSH14 0xFFFFFFFFFFFFFFFFFFFFFFFFFFFF AND DUP8 PUSH14 0xFFFFFFFFFFFFFFFFFFFFFFFFFFFF AND PUSH2 0x25AA JUMP JUMPDEST PUSH2 0x262B JUMP JUMPDEST SWAP1 POP PUSH1 0x0 PUSH2 0x2525 DUP4 PUSH2 0x262B JUMP JUMPDEST SWAP1 POP DUP1 DUP3 GT ISZERO PUSH2 0x2588 JUMPI PUSH1 0x0 PUSH2 0x2546 PUSH1 0x4 SLOAD PUSH2 0x2541 DUP6 DUP6 PUSH2 0x239A JUMP JUMPDEST PUSH2 0x25AA JUMP JUMPDEST SWAP1 POP PUSH1 0x0 PUSH2 0x255E PUSH2 0x2558 DUP6 PUSH1 0x5 PUSH2 0x25AA JUMP JUMPDEST DUP5 PUSH2 0x26BE JUMP JUMPDEST SWAP1 POP PUSH1 0x0 DUP2 DUP4 PUSH2 0x256E SWAP2 SWAP1 PUSH2 0x2F16 JUMP JUMPDEST SWAP1 POP PUSH1 0x0 DUP2 GT ISZERO PUSH2 0x2584 JUMPI PUSH2 0x2583 DUP8 DUP3 PUSH2 0xAC0 JUMP JUMPDEST JUMPDEST POP POP POP JUMPDEST POP POP JUMPDEST PUSH2 0x25A2 JUMP JUMPDEST PUSH1 0x0 DUP2 EQ PUSH2 0x25A1 JUMPI PUSH1 0x0 PUSH1 0xC DUP2 SWAP1 SSTORE POP JUMPDEST JUMPDEST POP POP SWAP3 SWAP2 POP POP JUMP JUMPDEST PUSH1 0x0 DUP1 DUP3 DUP5 PUSH2 0x25B9 SWAP2 SWAP1 PUSH2 0x325A JUMP JUMPDEST SWAP1 POP PUSH1 0x0 DUP4 EQ DUP1 PUSH2 0x25E2 JUMPI POP DUP4 DUP4 DUP5 DUP7 PUSH2 0x25D3 SWAP2 SWAP1 PUSH2 0x325A JUMP JUMPDEST SWAP3 POP DUP3 PUSH2 0x25E0 SWAP2 SWAP1 PUSH2 0x2F16 JUMP JUMPDEST EQ JUMPDEST PUSH2 0x2621 JUMPI PUSH1 0x40 MLOAD PUSH32 0x8C379A000000000000000000000000000000000000000000000000000000000 DUP2 MSTORE PUSH1 0x4 ADD PUSH2 0x2618 SWAP1 PUSH2 0x3402 JUMP JUMPDEST PUSH1 0x40 MLOAD DUP1 SWAP2 SUB SWAP1 REVERT JUMPDEST DUP1 SWAP2 POP POP SWAP3 SWAP2 POP POP JUMP JUMPDEST PUSH1 0x0 PUSH1 0x3 DUP3 GT ISZERO PUSH2 0x2692 JUMPI DUP2 SWAP1 POP PUSH1 0x0 PUSH1 0x1 PUSH1 0x2 DUP5 PUSH2 0x264A SWAP2 SWAP1 PUSH2 0x2F16 JUMP JUMPDEST PUSH2 0x2654 SWAP2 SWAP1 PUSH2 0x2DA5 JUMP JUMPDEST SWAP1 POP JUMPDEST DUP2 DUP2 LT ISZERO PUSH2 0x268C JUMPI DUP1 SWAP2 POP PUSH1 0x2 DUP2 DUP3 DUP6 PUSH2 0x2671 SWAP2 SWAP1 PUSH2 0x2F16 JUMP JUMPDEST PUSH2 0x267B SWAP2 SWAP1 PUSH2 0x2DA5 JUMP JUMPDEST PUSH2 0x2685 SWAP2 SWAP1 PUSH2 0x2F16 JUMP JUMPDEST SWAP1 POP PUSH2 0x2657 JUMP JUMPDEST POP PUSH2 0x26A0 JUMP JUMPDEST PUSH1 0x0 DUP3 EQ PUSH2 0x269F JUMPI PUSH1 0x1 SWAP1 POP JUMPDEST JUMPDEST SWAP2 SWAP1 POP JUMP JUMPDEST PUSH1 0x0 DUP2 DUP4 LT PUSH2 0x26B4 JUMPI DUP2 PUSH2 0x26B6 JUMP JUMPDEST DUP3 JUMPDEST SWAP1 POP SWAP3 SWAP2 POP POP JUMP JUMPDEST PUSH1 0x0 DUP1 DUP3 DUP5 PUSH2 0x26CD SWAP2 SWAP1 PUSH2 0x2DA5 JUMP JUMPDEST SWAP1 POP DUP4 DUP4 DUP6 PUSH2 0x26DC SWAP2 SWAP1 PUSH2 0x2DA5 JUMP JUMPDEST SWAP2 POP DUP2 LT ISZERO PUSH2 0x2720 JUMPI PUSH1 0x40 MLOAD PUSH32 0x8C379A000000000000000000000000000000000000000000000000000000000 DUP2 MSTORE PUSH1 0x4 ADD PUSH2 0x2717 SWAP1 PUSH2 0x346E JUMP JUMPDEST PUSH1 0x40 MLOAD DUP1 SWAP2 SUB SWAP1 REVERT JUMPDEST DUP1 SWAP2 POP POP SWAP3 SWAP2 POP POP JUMP JUMPDEST PUSH1 0x0 DUP2 MLOAD SWAP1 POP SWAP2 SWAP1 POP JUMP JUMPDEST PUSH1 0x0 DUP3 DUP3 MSTORE PUSH1 0x20 DUP3 ADD SWAP1 POP SWAP3 SWAP2 POP POP JUMP JUMPDEST PUSH1 0x0 JUMPDEST DUP4 DUP2 LT ISZERO PUSH2 0x2764 JUMPI DUP1 DUP3 ADD MLOAD DUP2 DUP5 ADD MSTORE PUSH1 0x20 DUP2 ADD SWAP1 POP PUSH2 0x2749 JUMP JUMPDEST PUSH1 0x0 DUP5 DUP5 ADD MSTORE POP POP POP POP JUMP JUMPDEST PUSH1 0x0 PUSH1 0x1F NOT PUSH1 0x1F DUP4 ADD AND SWAP1 POP SWAP2 SWAP1 POP JUMP JUMPDEST PUSH1 0x0 PUSH2 0x278C DUP3 PUSH2 0x272A JUMP JUMPDEST PUSH2 0x2796 DUP2 DUP6 PUSH2 0x2735 JUMP JUMPDEST SWAP4 POP PUSH2 0x27A6 DUP2 DUP6 PUSH1 0x20 DUP7 ADD PUSH2 0x2746 JUMP JUMPDEST PUSH2 0x27AF DUP2 PUSH2 0x2770 JUMP JUMPDEST DUP5 ADD SWAP2 POP POP SWAP3 SWAP2 POP POP JUMP JUMPDEST PUSH1 0x0 PUSH1 0x20 DUP3 ADD SWAP1 POP DUP2 DUP2 SUB PUSH1 0x0 DUP4 ADD MSTORE PUSH2 0x27D4 DUP2 DUP5 PUSH2 0x2781 JUMP JUMPDEST SWAP1 POP SWAP3 SWAP2 POP POP JUMP JUMPDEST PUSH1 0x0 PUSH14 0xFFFFFFFFFFFFFFFFFFFFFFFFFFFF DUP3 AND SWAP1 POP SWAP2 SWAP1 POP JUMP JUMPDEST PUSH2 0x27FF DUP2 PUSH2 0x27DC JUMP JUMPDEST DUP3 MSTORE POP POP JUMP JUMPDEST PUSH1 0x0 PUSH4 0xFFFFFFFF DUP3 AND SWAP1 POP SWAP2 SWAP1 POP JUMP JUMPDEST PUSH2 0x281E DUP2 PUSH2 0x2805 JUMP JUMPDEST DUP3 MSTORE POP POP JUMP JUMPDEST PUSH1 0x0 PUSH1 0x60 DUP3 ADD SWAP1 POP PUSH2 0x2839 PUSH1 0x0 DUP4 ADD DUP7 PUSH2 0x27F6 JUMP JUMPDEST PUSH2 0x2846 PUSH1 0x20 DUP4 ADD DUP6 PUSH2 0x27F6 JUMP JUMPDEST PUSH2 0x2853 PUSH1 0x40 DUP4 ADD DUP5 PUSH2 0x2815 JUMP JUMPDEST SWAP5 SWAP4 POP POP POP POP JUMP JUMPDEST PUSH1 0x0 PUSH1 0x40 MLOAD SWAP1 POP SWAP1 JUMP JUMPDEST PUSH1 0x0 DUP1 REVERT JUMPDEST PUSH1 0x0 DUP1 REVERT JUMPDEST PUSH1 0x0 PUSH20 0xFFFFFFFFFFFFFFFFFFFFFFFFFFFFFFFFFFFFFFFF DUP3 AND SWAP1 POP SWAP2 SWAP1 POP JUMP JUMPDEST PUSH1 0x0 PUSH2 0x289A DUP3 PUSH2 0x286F JUMP JUMPDEST SWAP1 POP SWAP2 SWAP1 POP JUMP JUMPDEST PUSH2 0x28AA DUP2 PUSH2 0x288F JUMP JUMPDEST DUP2 EQ PUSH2 0x28B5 JUMPI PUSH1 0x0 DUP1 REVERT JUMPDEST POP JUMP JUMPDEST PUSH1 0x0 DUP2 CALLDATALOAD SWAP1 POP PUSH2 0x28C7 DUP2 PUSH2 0x28A1 JUMP JUMPDEST SWAP3 SWAP2 POP POP JUMP JUMPDEST PUSH1 0x0 DUP2 SWAP1 POP SWAP2 SWAP1 POP JUMP JUMPDEST PUSH2 0x28E0 DUP2 PUSH2 0x28CD JUMP JUMPDEST DUP2 EQ PUSH2 0x28EB JUMPI PUSH1 0x0 DUP1 REVERT JUMPDEST POP JUMP JUMPDEST PUSH1 0x0 DUP2 CALLDATALOAD SWAP1 POP PUSH2 0x28FD DUP2 PUSH2 0x28D7 JUMP JUMPDEST SWAP3 SWAP2 POP POP JUMP JUMPDEST PUSH1 0x0 DUP1 PUSH1 0x40 DUP4 DUP6 SUB SLT ISZERO PUSH2 0x291A JUMPI PUSH2 0x2919 PUSH2 0x2865 JUMP JUMPDEST JUMPDEST PUSH1 0x0 PUSH2 0x2928 DUP6 DUP3 DUP7 ADD PUSH2 0x28B8 JUMP JUMPDEST SWAP3 POP POP PUSH1 0x20 PUSH2 0x2939 DUP6 DUP3 DUP7 ADD PUSH2 0x28EE JUMP JUMPDEST SWAP2 POP POP SWAP3 POP SWAP3 SWAP1 POP JUMP JUMPDEST PUSH1 0x0 DUP2 ISZERO ISZERO SWAP1 POP SWAP2 SWAP1 POP JUMP JUMPDEST PUSH2 0x2958 DUP2 PUSH2 0x2943 JUMP JUMPDEST DUP3 MSTORE POP POP JUMP JUMPDEST PUSH1 0x0 PUSH1 0x20 DUP3 ADD SWAP1 POP PUSH2 0x2973 PUSH1 0x0 DUP4 ADD DUP5 PUSH2 0x294F JUMP JUMPDEST SWAP3 SWAP2 POP POP JUMP JUMPDEST PUSH2 0x2982 DUP2 PUSH2 0x288F JUMP JUMPDEST DUP3 MSTORE POP POP JUMP JUMPDEST PUSH1 0x0 PUSH1 0x20 DUP3 ADD SWAP1 POP PUSH2 0x299D PUSH1 0x0 DUP4 ADD DUP5 PUSH2 0x2979 JUMP JUMPDEST SWAP3 SWAP2 POP POP JUMP JUMPDEST PUSH2 0x29AC DUP2 PUSH2 0x28CD JUMP JUMPDEST DUP3 MSTORE POP POP JUMP JUMPDEST PUSH1 0x0 PUSH1 0x20 DUP3 ADD SWAP1 POP PUSH2 0x29C7 PUSH1 0x0 DUP4 ADD DUP5 PUSH2 0x29A3 JUMP JUMPDEST SWAP3 SWAP2 POP POP JUMP JUMPDEST PUSH1 0x0 DUP1 PUSH1 0x0 PUSH1 0x60 DUP5 DUP7 SUB SLT ISZERO PUSH2 0x29E6 JUMPI PUSH2 0x29E5 PUSH2 0x2865 JUMP JUMPDEST JUMPDEST PUSH1 0x0 PUSH2 0x29F4 DUP7 DUP3 DUP8 ADD PUSH2 0x28B8 JUMP JUMPDEST SWAP4 POP POP PUSH1 0x20 PUSH2 0x2A05 DUP7 DUP3 DUP8 ADD PUSH2 0x28B8 JUMP JUMPDEST SWAP3 POP POP PUSH1 0x40 PUSH2 0x2A16 DUP7 DUP3 DUP8 ADD PUSH2 0x28EE JUMP JUMPDEST SWAP2 POP POP SWAP3 POP SWAP3 POP SWAP3 JUMP JUMPDEST PUSH1 0x0 PUSH1 0x20 DUP3 DUP5 SUB SLT ISZERO PUSH2 0x2A36 JUMPI PUSH2 0x2A35 PUSH2 0x2865 JUMP JUMPDEST JUMPDEST PUSH1 0x0 PUSH2 0x2A44 DUP5 DUP3 DUP6 ADD PUSH2 0x28B8 JUMP JUMPDEST SWAP2 POP POP SWAP3 SWAP2 POP POP JUMP JUMPDEST PUSH1 0x0 DUP1 PUSH1 0x40 DUP4 DUP6 SUB SLT ISZERO PUSH2 0x2A64 JUMPI PUSH2 0x2A63 PUSH2 0x2865 JUMP JUMPDEST JUMPDEST PUSH1 0x0 PUSH2 0x2A72 DUP6 DUP3 DUP7 ADD PUSH2 0x28B8 JUMP JUMPDEST SWAP3 POP POP PUSH1 0x20 PUSH2 0x2A83 DUP6 DUP3 DUP7 ADD PUSH2 0x28B8 JUMP JUMPDEST SWAP2 POP POP SWAP3 POP SWAP3 SWAP1 POP JUMP JUMPDEST PUSH1 0x0 DUP1 REVERT JUMPDEST PUSH1 0x0 DUP1 REVERT JUMPDEST PUSH32 0x4E487B7100000000000000000000000000000000000000000000000000000000 PUSH1 0x0 MSTORE PUSH1 0x41 PUSH1 0x4 MSTORE PUSH1 0x24 PUSH1 0x0 REVERT JUMPDEST PUSH2 0x2ACF DUP3 PUSH2 0x2770 JUMP JUMPDEST DUP2 ADD DUP2 DUP2 LT PUSH8 0xFFFFFFFFFFFFFFFF DUP3 GT OR ISZERO PUSH2 0x2AEE JUMPI PUSH2 0x2AED PUSH2 0x2A97 JUMP JUMPDEST JUMPDEST DUP1 PUSH1 0x40 MSTORE POP POP POP JUMP JUMPDEST PUSH1 0x0 PUSH2 0x2B01 PUSH2 0x285B JUMP JUMPDEST SWAP1 POP PUSH2 0x2B0D DUP3 DUP3 PUSH2 0x2AC6 JUMP JUMPDEST SWAP2 SWAP1 POP JUMP JUMPDEST PUSH1 0x0 PUSH8 0xFFFFFFFFFFFFFFFF DUP3 GT ISZERO PUSH2 0x2B2D JUMPI PUSH2 0x2B2C PUSH2 0x2A97 JUMP JUMPDEST JUMPDEST PUSH2 0x2B36 DUP3 PUSH2 0x2770 JUMP JUMPDEST SWAP1 POP PUSH1 0x20 DUP2 ADD SWAP1 POP SWAP2 SWAP1 POP JUMP JUMPDEST DUP3 DUP2 DUP4 CALLDATACOPY PUSH1 0x0 DUP4 DUP4 ADD MSTORE POP POP POP JUMP JUMPDEST PUSH1 0x0 PUSH2 0x2B65 PUSH2 0x2B60 DUP5 PUSH2 0x2B12 JUMP JUMPDEST PUSH2 0x2AF7 JUMP JUMPDEST SWAP1 POP DUP3 DUP2 MSTORE PUSH1 0x20 DUP2 ADD DUP5 DUP5 DUP5 ADD GT ISZERO PUSH2 0x2B81 JUMPI PUSH2 0x2B80 PUSH2 0x2A92 JUMP JUMPDEST JUMPDEST PUSH2 0x2B8C DUP5 DUP3 DUP6 PUSH2 0x2B43 JUMP JUMPDEST POP SWAP4 SWAP3 POP POP POP JUMP JUMPDEST PUSH1 0x0 DUP3 PUSH1 0x1F DUP4 ADD SLT PUSH2 0x2BA9 JUMPI PUSH2 0x2BA8 PUSH2 0x2A8D JUMP JUMPDEST JUMPDEST DUP2 CALLDATALOAD PUSH2 0x2BB9 DUP5 DUP3 PUSH1 0x20 DUP7 ADD PUSH2 0x2B52 JUMP JUMPDEST SWAP2 POP POP SWAP3 SWAP2 POP POP JUMP JUMPDEST PUSH1 0x0 PUSH1 0x20 DUP3 DUP5 SUB SLT ISZERO PUSH2 0x2BD8 JUMPI PUSH2 0x2BD7 PUSH2 0x2865 JUMP JUMPDEST JUMPDEST PUSH1 0x0 DUP3 ADD CALLDATALOAD PUSH8 0xFFFFFFFFFFFFFFFF DUP2 GT ISZERO PUSH2 0x2BF6 JUMPI PUSH2 0x2BF5 PUSH2 0x286A JUMP JUMPDEST JUMPDEST PUSH2 0x2C02 DUP5 DUP3 DUP6 ADD PUSH2 0x2B94 JUMP JUMPDEST SWAP2 POP POP SWAP3 SWAP2 POP POP JUMP JUMPDEST PUSH2 0x2C14 DUP2 PUSH2 0x27DC JUMP JUMPDEST DUP2 EQ PUSH2 0x2C1F JUMPI PUSH1 0x0 DUP1 REVERT JUMPDEST POP JUMP JUMPDEST PUSH1 0x0 DUP2 CALLDATALOAD SWAP1 POP PUSH2 0x2C31 DUP2 PUSH2 0x2C0B JUMP JUMPDEST SWAP3 SWAP2 POP POP JUMP JUMPDEST PUSH1 0x0 DUP1 PUSH1 0x0 DUP1 PUSH1 0x80 DUP6 DUP8 SUB SLT ISZERO PUSH2 0x2C51 JUMPI PUSH2 0x2C50 PUSH2 0x2865 JUMP JUMPDEST JUMPDEST PUSH1 0x0 PUSH2 0x2C5F DUP8 DUP3 DUP9 ADD PUSH2 0x28EE JUMP JUMPDEST SWAP5 POP POP PUSH1 0x20 PUSH2 0x2C70 DUP8 DUP3 DUP9 ADD PUSH2 0x28EE JUMP JUMPDEST SWAP4 POP POP PUSH1 0x40 PUSH2 0x2C81 DUP8 DUP3 DUP9 ADD PUSH2 0x2C22 JUMP JUMPDEST SWAP3 POP POP PUSH1 0x60 PUSH2 0x2C92 DUP8 DUP3 DUP9 ADD PUSH2 0x2C22 JUMP JUMPDEST SWAP2 POP POP SWAP3 SWAP6 SWAP2 SWAP5 POP SWAP3 POP JUMP JUMPDEST PUSH1 0x0 PUSH1 0x20 DUP3 ADD SWAP1 POP PUSH2 0x2CB3 PUSH1 0x0 DUP4 ADD DUP5 PUSH2 0x2815 JUMP JUMPDEST SWAP3 SWAP2 POP POP JUMP JUMPDEST PUSH1 0x0 PUSH1 0x40 DUP3 ADD SWAP1 POP PUSH2 0x2CCE PUSH1 0x0 DUP4 ADD DUP6 PUSH2 0x29A3 JUMP JUMPDEST PUSH2 0x2CDB PUSH1 0x20 DUP4 ADD DUP5 PUSH2 0x29A3 JUMP JUMPDEST SWAP4 SWAP3 POP POP POP JUMP JUMPDEST PUSH32 0x4E487B7100000000000000000000000000000000000000000000000000000000 PUSH1 0x0 MSTORE PUSH1 0x22 PUSH1 0x4 MSTORE PUSH1 0x24 PUSH1 0x0 REVERT JUMPDEST PUSH1 0x0 PUSH1 0x2 DUP3 DIV SWAP1 POP PUSH1 0x1 DUP3 AND DUP1 PUSH2 0x2D29 JUMPI PUSH1 0x7F DUP3 AND SWAP2 POP JUMPDEST PUSH1 0x20 DUP3 LT DUP2 SUB PUSH2 0x2D3C JUMPI PUSH2 0x2D3B PUSH2 0x2CE2 JUMP JUMPDEST JUMPDEST POP SWAP2 SWAP1 POP JUMP JUMPDEST PUSH32 0x4E487B7100000000000000000000000000000000000000000000000000000000 PUSH1 0x0 MSTORE PUSH1 0x11 PUSH1 0x4 MSTORE PUSH1 0x24 PUSH1 0x0 REVERT JUMPDEST PUSH1 0x0 PUSH2 0x2D7C DUP3 PUSH2 0x28CD JUMP JUMPDEST SWAP2 POP PUSH2 0x2D87 DUP4 PUSH2 0x28CD JUMP JUMPDEST SWAP3 POP DUP3 DUP3 SUB SWAP1 POP DUP2 DUP2 GT ISZERO PUSH2 0x2D9F JUMPI PUSH2 0x2D9E PUSH2 0x2D42 JUMP JUMPDEST JUMPDEST SWAP3 SWAP2 POP POP JUMP JUMPDEST PUSH1 0x0 PUSH2 0x2DB0 DUP3 PUSH2 0x28CD JUMP JUMPDEST SWAP2 POP PUSH2 0x2DBB DUP4 PUSH2 0x28CD JUMP JUMPDEST SWAP3 POP DUP3 DUP3 ADD SWAP1 POP DUP1 DUP3 GT ISZERO PUSH2 0x2DD3 JUMPI PUSH2 0x2DD2 PUSH2 0x2D42 JUMP JUMPDEST JUMPDEST SWAP3 SWAP2 POP POP JUMP JUMPDEST PUSH1 0x0 DUP2 SWAP1 POP SWAP3 SWAP2 POP POP JUMP JUMPDEST PUSH1 0x0 PUSH2 0x2DEF DUP3 PUSH2 0x272A JUMP JUMPDEST PUSH2 0x2DF9 DUP2 DUP6 PUSH2 0x2DD9 JUMP JUMPDEST SWAP4 POP PUSH2 0x2E09 DUP2 DUP6 PUSH1 0x20 DUP7 ADD PUSH2 0x2746 JUMP JUMPDEST DUP1 DUP5 ADD SWAP2 POP POP SWAP3 SWAP2 POP POP JUMP JUMPDEST PUSH1 0x0 PUSH2 0x2E21 DUP3 DUP6 PUSH2 0x2DE4 JUMP JUMPDEST SWAP2 POP PUSH2 0x2E2D DUP3 DUP5 PUSH2 0x2DE4 JUMP JUMPDEST SWAP2 POP DUP2 SWAP1 POP SWAP4 SWAP3 POP POP POP JUMP JUMPDEST PUSH32 0x4C4F434B45440000000000000000000000000000000000000000000000000000 PUSH1 0x0 DUP3 ADD MSTORE POP JUMP JUMPDEST PUSH1 0x0 PUSH2 0x2E6F PUSH1 0x6 DUP4 PUSH2 0x2735 JUMP JUMPDEST SWAP2 POP PUSH2 0x2E7A DUP3 PUSH2 0x2E39 JUMP JUMPDEST PUSH1 0x20 DUP3 ADD SWAP1 POP SWAP2 SWAP1 POP JUMP JUMPDEST PUSH1 0x0 PUSH1 0x20 DUP3 ADD SWAP1 POP DUP2 DUP2 SUB PUSH1 0x0 DUP4 ADD MSTORE PUSH2 0x2E9E DUP2 PUSH2 0x2E62 JUMP JUMPDEST SWAP1 POP SWAP2 SWAP1 POP JUMP JUMPDEST PUSH1 0x0 DUP2 MLOAD SWAP1 POP PUSH2 0x2EB4 DUP2 PUSH2 0x28D7 JUMP JUMPDEST SWAP3 SWAP2 POP POP JUMP JUMPDEST PUSH1 0x0 PUSH1 0x20 DUP3 DUP5 SUB SLT ISZERO PUSH2 0x2ED0 JUMPI PUSH2 0x2ECF PUSH2 0x2865 JUMP JUMPDEST JUMPDEST PUSH1 0x0 PUSH2 0x2EDE DUP5 DUP3 DUP6 ADD PUSH2 0x2EA5 JUMP JUMPDEST SWAP2 POP POP SWAP3 SWAP2 POP POP JUMP JUMPDEST PUSH32 0x4E487B7100000000000000000000000000000000000000000000000000000000 PUSH1 0x0 MSTORE PUSH1 0x12 PUSH1 0x4 MSTORE PUSH1 0x24 PUSH1 0x0 REVERT JUMPDEST PUSH1 0x0 PUSH2 0x2F21 DUP3 PUSH2 0x28CD JUMP JUMPDEST SWAP2 POP PUSH2 0x2F2C DUP4 PUSH2 0x28CD JUMP JUMPDEST SWAP3 POP DUP3 PUSH2 0x2F3C JUMPI PUSH2 0x2F3B PUSH2 0x2EE7 JUMP JUMPDEST JUMPDEST DUP3 DUP3 DIV SWAP1 POP SWAP3 SWAP2 POP POP JUMP JUMPDEST PUSH32 0x494E53554646494349454E545F4C49515549444954595F4D494E544544000000 PUSH1 0x0 DUP3 ADD MSTORE POP JUMP JUMPDEST PUSH1 0x0 PUSH2 0x2F7D PUSH1 0x1D DUP4 PUSH2 0x2735 JUMP JUMPDEST SWAP2 POP PUSH2 0x2F88 DUP3 PUSH2 0x2F47 JUMP JUMPDEST PUSH1 0x20 DUP3 ADD SWAP1 POP SWAP2 SWAP1 POP JUMP JUMPDEST PUSH1 0x0 PUSH1 0x20 DUP3 ADD SWAP1 POP DUP2 DUP2 SUB PUSH1 0x0 DUP4 ADD MSTORE PUSH2 0x2FAC DUP2 PUSH2 0x2F70 JUMP JUMPDEST SWAP1 POP SWAP2 SWAP1 POP JUMP JUMPDEST PUSH1 0x0 PUSH1 0x40 DUP3 ADD SWAP1 POP PUSH2 0x2FC8 PUSH1 0x0 DUP4 ADD DUP6 PUSH2 0x2979 JUMP JUMPDEST PUSH2 0x2FD5 PUSH1 0x20 DUP4 ADD DUP5 PUSH2 0x2979 JUMP JUMPDEST SWAP4 SWAP3 POP POP POP JUMP JUMPDEST PUSH1 0x0 DUP1 PUSH1 0x40 DUP4 DUP6 SUB SLT ISZERO PUSH2 0x2FF3 JUMPI PUSH2 0x2FF2 PUSH2 0x2865 JUMP JUMPDEST JUMPDEST PUSH1 0x0 PUSH2 0x3001 DUP6 DUP3 DUP7 ADD PUSH2 0x2EA5 JUMP JUMPDEST SWAP3 POP POP PUSH1 0x20 PUSH2 0x3012 DUP6 DUP3 DUP7 ADD PUSH2 0x2EA5 JUMP JUMPDEST SWAP2 POP POP SWAP3 POP SWAP3 SWAP1 POP JUMP JUMPDEST PUSH32 0x4E6F206665657320746F20636C61696D00000000000000000000000000000000 PUSH1 0x0 DUP3 ADD MSTORE POP JUMP JUMPDEST PUSH1 0x0 PUSH2 0x3052 PUSH1 0x10 DUP4 PUSH2 0x2735 JUMP JUMPDEST SWAP2 POP PUSH2 0x305D DUP3 PUSH2 0x301C JUMP JUMPDEST PUSH1 0x20 DUP3 ADD SWAP1 POP SWAP2 SWAP1 POP JUMP JUMPDEST PUSH1 0x0 PUSH1 0x20 DUP3 ADD SWAP1 POP DUP2 DUP2 SUB PUSH1 0x0 DUP4 ADD MSTORE PUSH2 0x3081 DUP2 PUSH2 0x3045 JUMP JUMPDEST SWAP1 POP SWAP2 SWAP1 POP JUMP JUMPDEST PUSH1 0x0 PUSH1 0x40 DUP3 ADD SWAP1 POP PUSH2 0x309D PUSH1 0x0 DUP4 ADD DUP6 PUSH2 0x2979 JUMP JUMPDEST PUSH2 0x30AA PUSH1 0x20 DUP4 ADD DUP5 PUSH2 0x29A3 JUMP JUMPDEST SWAP4 SWAP3 POP POP POP JUMP JUMPDEST PUSH2 0x30BA DUP2 PUSH2 0x2943 JUMP JUMPDEST DUP2 EQ PUSH2 0x30C5 JUMPI PUSH1 0x0 DUP1 REVERT JUMPDEST POP JUMP JUMPDEST PUSH1 0x0 DUP2 MLOAD SWAP1 POP PUSH2 0x30D7 DUP2 PUSH2 0x30B1 JUMP JUMPDEST SWAP3 SWAP2 POP POP JUMP JUMPDEST PUSH1 0x0 PUSH1 0x20 DUP3 DUP5 SUB SLT ISZERO PUSH2 0x30F3 JUMPI PUSH2 0x30F2 PUSH2 0x2865 JUMP JUMPDEST JUMPDEST PUSH1 0x0 PUSH2 0x3101 DUP5 DUP3 DUP6 ADD PUSH2 0x30C8 JUMP JUMPDEST SWAP2 POP POP SWAP3 SWAP2 POP POP JUMP JUMPDEST PUSH1 0x0 DUP2 SWAP1 POP SWAP2 SWAP1 POP JUMP JUMPDEST PUSH1 0x0 DUP2 SWAP1 POP SWAP2 SWAP1 POP JUMP JUMPDEST PUSH1 0x0 PUSH2 0x3139 PUSH2 0x3134 PUSH2 0x312F DUP5 PUSH2 0x310A JUMP JUMPDEST PUSH2 0x3114 JUMP JUMPDEST PUSH2 0x28CD JUMP JUMPDEST SWAP1 POP SWAP2 SWAP1 POP JUMP JUMPDEST PUSH2 0x3149 DUP2 PUSH2 0x311E JUMP JUMPDEST DUP3 MSTORE POP POP JUMP JUMPDEST PUSH1 0x0 PUSH1 0x80 DUP3 ADD SWAP1 POP PUSH2 0x3164 PUSH1 0x0 DUP4 ADD DUP8 PUSH2 0x2979 JUMP JUMPDEST PUSH2 0x3171 PUSH1 0x20 DUP4 ADD DUP7 PUSH2 0x2979 JUMP JUMPDEST PUSH2 0x317E PUSH1 0x40 DUP4 ADD DUP6 PUSH2 0x3140 JUMP JUMPDEST PUSH2 0x318B PUSH1 0x60 DUP4 ADD DUP5 PUSH2 0x3140 JUMP JUMPDEST SWAP6 SWAP5 POP POP POP POP POP JUMP JUMPDEST PUSH32 0x4F564552464C4F57000000000000000000000000000000000000000000000000 PUSH1 0x0 DUP3 ADD MSTORE POP JUMP JUMPDEST PUSH1 0x0 PUSH2 0x31CA PUSH1 0x8 DUP4 PUSH2 0x2735 JUMP JUMPDEST SWAP2 POP PUSH2 0x31D5 DUP3 PUSH2 0x3194 JUMP JUMPDEST PUSH1 0x20 DUP3 ADD SWAP1 POP SWAP2 SWAP1 POP JUMP JUMPDEST PUSH1 0x0 PUSH1 0x20 DUP3 ADD SWAP1 POP DUP2 DUP2 SUB PUSH1 0x0 DUP4 ADD MSTORE PUSH2 0x31F9 DUP2 PUSH2 0x31BD JUMP JUMPDEST SWAP1 POP SWAP2 SWAP1 POP JUMP JUMPDEST PUSH1 0x0 PUSH2 0x320B DUP3 PUSH2 0x28CD JUMP JUMPDEST SWAP2 POP PUSH2 0x3216 DUP4 PUSH2 0x28CD JUMP JUMPDEST SWAP3 POP DUP3 PUSH2 0x3226 JUMPI PUSH2 0x3225 PUSH2 0x2EE7 JUMP JUMPDEST JUMPDEST DUP3 DUP3 MOD SWAP1 POP SWAP3 SWAP2 POP POP JUMP JUMPDEST PUSH1 0x0 PUSH1 0x40 DUP3 ADD SWAP1 POP PUSH2 0x3246 PUSH1 0x0 DUP4 ADD DUP6 PUSH2 0x27F6 JUMP JUMPDEST PUSH2 0x3253 PUSH1 0x20 DUP4 ADD DUP5 PUSH2 0x27F6 JUMP JUMPDEST SWAP4 SWAP3 POP POP POP JUMP JUMPDEST PUSH1 0x0 PUSH2 0x3265 DUP3 PUSH2 0x28CD JUMP JUMPDEST SWAP2 POP PUSH2 0x3270 DUP4 PUSH2 0x28CD JUMP JUMPDEST SWAP3 POP DUP3 DUP3 MUL PUSH2 0x327E DUP2 PUSH2 0x28CD JUMP JUMPDEST SWAP2 POP DUP3 DUP3 DIV DUP5 EQ DUP4 ISZERO OR PUSH2 0x3295 JUMPI PUSH2 0x3294 PUSH2 0x2D42 JUMP JUMPDEST JUMPDEST POP SWAP3 SWAP2 POP POP JUMP JUMPDEST PUSH32 0x494E53554646494349454E545F4C49515549444954595F4255524E4544000000 PUSH1 0x0 DUP3 ADD MSTORE POP JUMP JUMPDEST PUSH1 0x0 PUSH2 0x32D2 PUSH1 0x1D DUP4 PUSH2 0x2735 JUMP JUMPDEST SWAP2 POP PUSH2 0x32DD DUP3 PUSH2 0x329C JUMP JUMPDEST PUSH1 0x20 DUP3 ADD SWAP1 POP SWAP2 SWAP1 POP JUMP JUMPDEST PUSH1 0x0 PUSH1 0x20 DUP3 ADD SWAP1 POP DUP2 DUP2 SUB PUSH1 0x0 DUP4 ADD MSTORE PUSH2 0x3301 DUP2 PUSH2 0x32C5 JUMP JUMPDEST SWAP1 POP SWAP2 SWAP1 POP JUMP JUMPDEST PUSH32 0x64732D6D6174682D7375622D756E646572666C6F770000000000000000000000 PUSH1 0x0 DUP3 ADD MSTORE POP JUMP JUMPDEST PUSH1 0x0 PUSH2 0x333E PUSH1 0x15 DUP4 PUSH2 0x2735 JUMP JUMPDEST SWAP2 POP PUSH2 0x3349 DUP3 PUSH2 0x3308 JUMP JUMPDEST PUSH1 0x20 DUP3 ADD SWAP1 POP SWAP2 SWAP1 POP JUMP JUMPDEST PUSH1 0x0 PUSH1 0x20 DUP3 ADD SWAP1 POP DUP2 DUP2 SUB PUSH1 0x0 DUP4 ADD MSTORE PUSH2 0x336D DUP2 PUSH2 0x3331 JUMP JUMPDEST SWAP1 POP SWAP2 SWAP1 POP JUMP JUMPDEST PUSH1 0x0 DUP2 MLOAD SWAP1 POP PUSH2 0x3383 DUP2 PUSH2 0x28A1 JUMP JUMPDEST SWAP3 SWAP2 POP POP JUMP JUMPDEST PUSH1 0x0 PUSH1 0x20 DUP3 DUP5 SUB SLT ISZERO PUSH2 0x339F JUMPI PUSH2 0x339E PUSH2 0x2865 JUMP JUMPDEST JUMPDEST PUSH1 0x0 PUSH2 0x33AD DUP5 DUP3 DUP6 ADD PUSH2 0x3374 JUMP JUMPDEST SWAP2 POP POP SWAP3 SWAP2 POP POP JUMP JUMPDEST PUSH32 0x64732D6D6174682D6D756C2D6F766572666C6F77000000000000000000000000 PUSH1 0x0 DUP3 ADD MSTORE POP JUMP JUMPDEST PUSH1 0x0 PUSH2 0x33EC PUSH1 0x14 DUP4 PUSH2 0x2735 JUMP JUMPDEST SWAP2 POP PUSH2 0x33F7 DUP3 PUSH2 0x33B6 JUMP JUMPDEST PUSH1 0x20 DUP3 ADD SWAP1 POP SWAP2 SWAP1 POP JUMP JUMPDEST PUSH1 0x0 PUSH1 0x20 DUP3 ADD SWAP1 POP DUP2 DUP2 SUB PUSH1 0x0 DUP4 ADD MSTORE PUSH2 0x341B DUP2 PUSH2 0x33DF JUMP JUMPDEST SWAP1 POP SWAP2 SWAP1 POP JUMP JUMPDEST PUSH32 0x64732D6D6174682D6164642D6F766572666C6F77000000000000000000000000 PUSH1 0x0 DUP3 ADD MSTORE POP JUMP JUMPDEST PUSH1 0x0 PUSH2 0x3458 PUSH1 0x14 DUP4 PUSH2 0x2735 JUMP JUMPDEST SWAP2 POP PUSH2 0x3463 DUP3 PUSH2 0x3422 JUMP JUMPDEST PUSH1 0x20 DUP3 ADD SWAP1 POP SWAP2 SWAP1 POP JUMP JUMPDEST PUSH1 0x0 PUSH1 0x20 DUP3 ADD SWAP1 POP DUP2 DUP2 SUB PUSH1 0x0 DUP4 ADD MSTORE PUSH2 0x3487 DUP2 PUSH2 0x344B JUMP JUMPDEST SWAP1 POP SWAP2 SWAP1 POP JUMP INVALID PUSH9 0x747470733A2F2F6372 PUSH10 0x6D736F6E2D67656E6572 PUSH16 0x75732D616E742D3339352E6D7970696E PUSH2 0x7461 0x2E PUSH4 0x6C6F7564 0x2F PUSH10 0x7066732FA26469706673 PC 0x22 SLT KECCAK256 DUP13 PREVRANDAO LOG2 CODESIZE OR 0xA5 DUP15 SLOAD SAR PUSH6 0x41AB6E499755 LOG3 PUSH7 0x4E675B21F0C4A2 RETURNDATASIZE 0xC4 LOG0 0xD9 PUSH25 0x457F64736F6C6343000813003368747470733A2F2F6372696D PUSH20 0x6F6E2D67656E65726F75732D616E742D3339352E PUSH14 0x7970696E6174612E636C6F75642F PUSH10 0x7066732FA26469706673 PC 0x22 SLT KECCAK256 PUSH11 0x20E8BFEC1108FA72DAA0E4 SHL 0x25 MUL 0xC7 DUP6 0x2C 0xDC 0xA5 SDIV PUSH13 0xD314B020D710301AFA864736F PUSH13 0x63430008130033000000000000 "
		},
		"gasEstimates": {
			"creation": {
				"codeDepositCost": "4726800",
				"executionCost": "infinite",
				"totalCost": "infinite"
			},
			"external": {
				"createPair(address,address)": "infinite",
				"feeTo()": "2537",
				"getCreationCode()": "infinite",
				"getPairAddress(address,address)": "infinite",
				"setFeeTo(address)": "26958",
				"setFeeToSetter(address)": "26892",
				"setValidatorPoolArr(address,address,address)": "infinite"
			}
		},
		"methodIdentifiers": {
			"createPair(address,address)": "c9c65396",
			"feeTo()": "017e7e58",
			"getCreationCode()": "00c194db",
			"getPairAddress(address,address)": "b4f69a2f",
			"setFeeTo(address)": "f46901ed",
			"setFeeToSetter(address)": "a2e74af6",
			"setValidatorPoolArr(address,address,address)": "98eac009"
		}
	},
	"abi": [
		{
			"inputs": [
				{
					"internalType": "address",
					"name": "_dataAddress",
					"type": "address"
				},
				{
					"internalType": "address",
					"name": "_feeToSetter",
					"type": "address"
				}
			],
			"stateMutability": "nonpayable",
			"type": "constructor"
		},
		{
			"anonymous": false,
			"inputs": [
				{
					"indexed": true,
					"internalType": "address",
					"name": "token0",
					"type": "address"
				},
				{
					"indexed": true,
					"internalType": "address",
					"name": "token1",
					"type": "address"
				},
				{
					"indexed": false,
					"internalType": "address",
					"name": "pair",
					"type": "address"
				},
				{
					"indexed": false,
					"internalType": "uint256",
					"name": "",
					"type": "uint256"
				}
			],
			"name": "PairCreated",
			"type": "event"
		},
		{
			"inputs": [
				{
					"internalType": "address",
					"name": "tokenA",
					"type": "address"
				},
				{
					"internalType": "address",
					"name": "tokenB",
					"type": "address"
				}
			],
			"name": "createPair",
			"outputs": [
				{
					"internalType": "bool",
					"name": "",
					"type": "bool"
				}
			],
			"stateMutability": "nonpayable",
			"type": "function"
		},
		{
			"inputs": [],
			"name": "feeTo",
			"outputs": [
				{
					"internalType": "address",
					"name": "",
					"type": "address"
				}
			],
			"stateMutability": "view",
			"type": "function"
		},
		{
			"inputs": [],
			"name": "getCreationCode",
			"outputs": [
				{
					"internalType": "bytes",
					"name": "",
					"type": "bytes"
				}
			],
			"stateMutability": "pure",
			"type": "function"
		},
		{
			"inputs": [
				{
					"internalType": "address",
					"name": "tokenA",
					"type": "address"
				},
				{
					"internalType": "address",
					"name": "tokenB",
					"type": "address"
				}
			],
			"name": "getPairAddress",
			"outputs": [
				{
					"internalType": "address",
					"name": "",
					"type": "address"
				}
			],
			"stateMutability": "nonpayable",
			"type": "function"
		},
		{
			"inputs": [
				{
					"internalType": "address",
					"name": "_feeTo",
					"type": "address"
				}
			],
			"name": "setFeeTo",
			"outputs": [],
			"stateMutability": "nonpayable",
			"type": "function"
		},
		{
			"inputs": [
				{
					"internalType": "address",
					"name": "_feeToSetter",
					"type": "address"
				}
			],
			"name": "setFeeToSetter",
			"outputs": [],
			"stateMutability": "nonpayable",
			"type": "function"
		},
		{
			"inputs": [
				{
					"internalType": "address",
					"name": "userAddress",
					"type": "address"
				},
				{
					"internalType": "address",
					"name": "tokenA",
					"type": "address"
				},
				{
					"internalType": "address",
					"name": "tokenB",
					"type": "address"
				}
			],
			"name": "setValidatorPoolArr",
			"outputs": [
				{
					"internalType": "bool",
					"name": "",
					"type": "bool"
				}
			],
			"stateMutability": "nonpayable",
			"type": "function"
		}
	]
}