{
	"data": {
		"bytecode": {
			"linkReferences": {},
			"object": "608060405261271060045560016009555f600d553480156200001f575f80fd5b5060405162002c8038038062002c80833981810160405281019062000045919062000321565b805f73ffffffffffffffffffffffffffffffffffffffff168173ffffffffffffffffffffffffffffffffffffffff1603620000b9575f6040517f1e4fbdf7000000000000000000000000000000000000000000000000000000008152600401620000b09190620003f6565b60405180910390fd5b620000ca81620001c360201b60201c565b50600180819055508760025f6101000a81548173ffffffffffffffffffffffffffffffffffffffff021916908373ffffffffffffffffffffffffffffffffffffffff1602179055508660035f6101000a81548173ffffffffffffffffffffffffffffffffffffffff021916908373ffffffffffffffffffffffffffffffffffffffff1602179055508560075f6101000a81548173ffffffffffffffffffffffffffffffffffffffff021916908373ffffffffffffffffffffffffffffffffffffffff16021790555084600681905550836005819055508260088190555081600e8190555081600a81905550505050505050505062000411565b5f805f9054906101000a900473ffffffffffffffffffffffffffffffffffffffff169050815f806101000a81548173ffffffffffffffffffffffffffffffffffffffff021916908373ffffffffffffffffffffffffffffffffffffffff1602179055508173ffffffffffffffffffffffffffffffffffffffff168173ffffffffffffffffffffffffffffffffffffffff167f8be0079c531659141344cd1fd0a4f28419497f9722a3daafe3b4186f6b6457e060405160405180910390a35050565b5f80fd5b5f73ffffffffffffffffffffffffffffffffffffffff82169050919050565b5f620002b38262000288565b9050919050565b620002c581620002a7565b8114620002d0575f80fd5b50565b5f81519050620002e381620002ba565b92915050565b5f819050919050565b620002fd81620002e9565b811462000308575f80fd5b50565b5f815190506200031b81620002f2565b92915050565b5f805f805f805f80610100898b03121562000341576200034062000284565b5b5f620003508b828c01620002d3565b9850506020620003638b828c01620002d3565b9750506040620003768b828c01620002d3565b9650506060620003898b828c016200030b565b95505060806200039c8b828c016200030b565b94505060a0620003af8b828c016200030b565b93505060c0620003c28b828c016200030b565b92505060e0620003d58b828c01620002d3565b9150509295985092959890939650565b620003f081620002a7565b82525050565b5f6020820190506200040b5f830184620003e5565b92915050565b612861806200041f5f395ff3fe608060405234801561000f575f80fd5b50600436106101e3575f3560e01c80638aa285501161010d578063be1193ea116100a0578063e2bbb1581161006f578063e2bbb15814610510578063e88e0e3a1461052c578063f29588c71461054a578063f2fde38b14610568576101e3565b8063be1193ea146104ae578063c6a37cb8146104cc578063cb93f7ef146104ea578063d0d41fe1146104f4576101e3565b80639586712a116100dc5780639586712a1461043a578063a5981e7b14610456578063b76e360c14610472578063bd62a7d914610490576101e3565b80638aa285501461039c5780638da5cb5b146103ba5780638dbb1e3a146103d857806393f1a40b14610408576101e3565b80634e0f4e9f11610185578063715018a611610154578063715018a61461033c57806373d4a13a146103465780637709fc4b146103645780638a50bb3614610380576101e3565b80634e0f4e9f146102ca57806351eb05a6146102fa5780635312ea8e14610316578063630b5ba114610332576101e3565b80631ab06ee5116101c15780631ab06ee51461025657806321b1aecb14610272578063441a3e701461029057806348cd4cb1146102ac576101e3565b8063081e3eda146101e75780631526fe271461020557806317caf6f114610238575b5f80fd5b6101ef610584565b6040516101fc9190611f34565b60405180910390f35b61021f600480360381019061021a9190611f7b565b610590565b60405161022f9493929190612020565b60405180910390f35b6102406105ea565b60405161024d9190611f34565b60405180910390f35b610270600480360381019061026b9190612063565b6105f0565b005b61027a6106b7565b6040516102879190611f34565b60405180910390f35b6102aa60048036038101906102a59190612063565b6106bd565b005b6102b461091e565b6040516102c19190611f34565b60405180910390f35b6102e460048036038101906102df91906120dc565b610924565b6040516102f19190611f34565b60405180910390f35b610314600480360381019061030f9190611f7b565b610b6a565b005b610330600480360381019061032b9190611f7b565b610dc0565b005b61033a610f9d565b005b610344610fce565b005b61034e610fe1565b60405161035b919061213a565b60405180910390f35b61037e60048036038101906103799190611f7b565b611006565b005b61039a60048036038101906103959190611f7b565b6110e7565b005b6103a461121e565b6040516103b19190611f34565b60405180910390f35b6103c2611224565b6040516103cf9190612162565b60405180910390f35b6103f260048036038101906103ed9190612063565b61124b565b6040516103ff9190611f34565b60405180910390f35b610422600480360381019061041d91906120dc565b61126d565b6040516104319392919061217b565b60405180910390f35b610454600480360381019061044f91906120dc565b61129e565b005b610470600480360381019061046b9190612063565b6113a9565b005b61047a611455565b6040516104879190611f34565b60405180910390f35b61049861145b565b6040516104a59190611f34565b60405180910390f35b6104b6611461565b6040516104c39190611f34565b60405180910390f35b6104d4611467565b6040516104e19190611f34565b60405180910390f35b6104f261146d565b005b61050e600480360381019061050991906121b0565b61159d565b005b61052a60048036038101906105259190612063565b6116ba565b005b6105346118d7565b6040516105419190612162565b60405180910390f35b6105526118fc565b60405161055f91906121fb565b60405180910390f35b610582600480360381019061057d91906121b0565b611921565b005b5f600b80549050905090565b600b818154811061059f575f80fd5b905f5260205f2090600402015f91509050805f015f9054906101000a900473ffffffffffffffffffffffffffffffffffffffff16908060010154908060020154908060030154905084565b600d5481565b6105f86119a5565b81600b805490508110610640576040517f08c379a00000000000000000000000000000000000000000000000000000000081526004016106379061226e565b60405180910390fd5b610648610f9d565b81600b848154811061065d5761065c61228c565b5b905f5260205f20906004020160010154600d5461067a91906122e6565b6106849190612319565b600d8190555081600b848154811061069f5761069e61228c565b5b905f5260205f20906004020160010181905550505050565b60045481565b6106c5611a2c565b81600b80549050811061070d576040517f08c379a00000000000000000000000000000000000000000000000000000000081526004016107049061226e565b60405180910390fd5b5f600b84815481106107225761072161228c565b5b905f5260205f20906004020190505f600c5f8681526020019081526020015f205f3373ffffffffffffffffffffffffffffffffffffffff1673ffffffffffffffffffffffffffffffffffffffff1681526020019081526020015f20905083815f015410156107c5576040517f08c379a00000000000000000000000000000000000000000000000000000000081526004016107bc90612396565b60405180910390fd5b6107ce85610b6a565b6107d88533611a72565b5f8411156108955783815f01546107ef91906122e6565b815f0181905550815f015f9054906101000a900473ffffffffffffffffffffffffffffffffffffffff1673ffffffffffffffffffffffffffffffffffffffff1663a9059cbb33866040518363ffffffff1660e01b81526004016108539291906123b4565b6020604051808303815f875af115801561086f573d5f803e3d5ffd5b505050506040513d601f19601f820116820180604052508101906108939190612410565b505b64e8d4a510008260030154825f01546108ae919061243b565b6108b891906124a9565b8160010181905550843373ffffffffffffffffffffffffffffffffffffffff167ff279e6a1f5e320cca91135676d9cb6e44ca8a08c0b88342bcdb1144f6511b568866040516109079190611f34565b60405180910390a350505061091a611b8a565b5050565b600e5481565b5f82600b80549050811061096d576040517f08c379a00000000000000000000000000000000000000000000000000000000081526004016109649061226e565b60405180910390fd5b5f600b85815481106109825761098161228c565b5b905f5260205f20906004020190505f600c5f8781526020019081526020015f205f8673ffffffffffffffffffffffffffffffffffffffff1673ffffffffffffffffffffffffffffffffffffffff1681526020019081526020015f2090505f826003015490505f835f015f9054906101000a900473ffffffffffffffffffffffffffffffffffffffff1673ffffffffffffffffffffffffffffffffffffffff166370a08231306040518263ffffffff1660e01b8152600401610a439190612162565b602060405180830381865afa158015610a5e573d5f803e3d5ffd5b505050506040513d601f19601f82011682018060405250810190610a8291906124ed565b9050836002015443118015610a9757505f8114155b15610b20575f610aab85600201544361124b565b90505f600454600554600d54886001015460085486610aca919061243b565b610ad4919061243b565b610ade91906124a9565b610ae8919061243b565b610af291906124a9565b90508264e8d4a5100082610b06919061243b565b610b1091906124a9565b84610b1b9190612319565b935050505b826001015464e8d4a5100083855f0154610b3a919061243b565b610b4491906124a9565b8460020154610b539190612319565b610b5d91906122e6565b9550505050505092915050565b80600b805490508110610bb2576040517f08c379a0000000000000000000000000000000000000000000000000000000008152600401610ba99061226e565b60405180910390fd5b5f600b8381548110610bc757610bc661228c565b5b905f5260205f209060040201905080600201544311610be65750610dbc565b5f815f015f9054906101000a900473ffffffffffffffffffffffffffffffffffffffff1673ffffffffffffffffffffffffffffffffffffffff166370a08231306040518263ffffffff1660e01b8152600401610c429190612162565b602060405180830381865afa158015610c5d573d5f803e3d5ffd5b505050506040513d601f19601f82011682018060405250810190610c8191906124ed565b90505f8111610c9a574382600201819055505050610dbc565b5f610ca983600201544361124b565b90505f600454600554600d54866001015460085486610cc8919061243b565b610cd2919061243b565b610cdc91906124a9565b610ce6919061243b565b610cf091906124a9565b905060025f9054906101000a900473ffffffffffffffffffffffffffffffffffffffff1673ffffffffffffffffffffffffffffffffffffffff16634e6ec24730836040518363ffffffff1660e01b8152600401610d4e9291906123b4565b5f604051808303815f87803b158015610d65575f80fd5b505af1158015610d77573d5f803e3d5ffd5b505050508264e8d4a5100082610d8d919061243b565b610d9791906124a9565b8460030154610da69190612319565b8460030181905550438460020181905550505050505b5050565b610dc8611a2c565b80600b805490508110610e10576040517f08c379a0000000000000000000000000000000000000000000000000000000008152600401610e079061226e565b60405180910390fd5b5f600b8381548110610e2557610e2461228c565b5b905f5260205f20906004020190505f600c5f8581526020019081526020015f205f3373ffffffffffffffffffffffffffffffffffffffff1673ffffffffffffffffffffffffffffffffffffffff1681526020019081526020015f209050815f015f9054906101000a900473ffffffffffffffffffffffffffffffffffffffff1673ffffffffffffffffffffffffffffffffffffffff1663a9059cbb33835f01546040518363ffffffff1660e01b8152600401610ee29291906123b4565b6020604051808303815f875af1158015610efe573d5f803e3d5ffd5b505050506040513d601f19601f82011682018060405250810190610f229190612410565b50833373ffffffffffffffffffffffffffffffffffffffff167fbb757047c2b5f3974fe26b7c10f732e7bce710b0952a71082702781e62ae0595835f0154604051610f6d9190611f34565b60405180910390a35f815f01819055505f81600101819055505f8160020181905550505050610f9a611b8a565b50565b5f600b8054905090505f5b81811015610fca57610fb981610b6a565b80610fc390612518565b9050610fa8565b5050565b610fd66119a5565b610fdf5f611b93565b565b60035f9054906101000a900473ffffffffffffffffffffffffffffffffffffffff1681565b61100e6119a5565b68056bc75e2d6310000081111561105a576040517f08c379a0000000000000000000000000000000000000000000000000000000008152600401611051906125a9565b60405180910390fd5b66038d7ea4c680008110156110a4576040517f08c379a000000000000000000000000000000000000000000000000000000000815260040161109b90612611565b60405180910390fd5b806008819055507f1e19929b3cb970f6d66d05a2698000db2ac7eafe495aee2c6c32bd7960a97ead6008546040516110dc9190611f34565b60405180910390a150565b6110ef611a2c565b80600b805490508110611137576040517f08c379a000000000000000000000000000000000000000000000000000000000815260040161112e9061226e565b60405180910390fd5b61114082610b6a565b61114a8233611a72565b5f600c5f8481526020019081526020015f205f3373ffffffffffffffffffffffffffffffffffffffff1673ffffffffffffffffffffffffffffffffffffffff1681526020019081526020015f2090505f81600201541115611211575f816002015490505f82600201819055506111c03382611c54565b833373ffffffffffffffffffffffffffffffffffffffff167f9da87e8cce29a4140e89780f6e64e0b1cd58e4fa1cb5ee53effe97264f290c6c836040516112079190611f34565b60405180910390a3505b505061121b611b8a565b50565b60095481565b5f805f9054906101000a900473ffffffffffffffffffffffffffffffffffffffff16905090565b5f6009548361125a919061243b565b8261126591906122e6565b905092915050565b600c602052815f5260405f20602052805f5260405f205f9150915050805f0154908060010154908060020154905083565b6112a66119a5565b6112af81611e3d565b6112b7610f9d565b5f600e5443106112c757436112cb565b600e545b905082600d546112db9190612319565b600d81905550600b60405180608001604052808473ffffffffffffffffffffffffffffffffffffffff1681526020018581526020018381526020015f815250908060018154018082558091505060019003905f5260205f2090600402015f909190919091505f820151815f015f6101000a81548173ffffffffffffffffffffffffffffffffffffffff021916908373ffffffffffffffffffffffffffffffffffffffff1602179055506020820151816001015560408201518160020155606082015181600301555050505050565b6113b16119a5565b5f81905060045481846113c49190612319565b1115611405576040517f08c379a00000000000000000000000000000000000000000000000000000000081526004016113fc90612679565b60405180910390fd5b82600581905550816006819055507fcbd554161f22a88862569b669f84507adc410008353e0a023297d3ea419126f7600554600654604051611448929190612697565b60405180910390a1505050565b600a5481565b60065481565b60055481565b60085481565b43600a54106114b1576040517f08c379a00000000000000000000000000000000000000000000000000000000081526004016114a890612708565b60405180910390fd5b5f600854600a54436114c391906122e6565b6114cd919061243b565b905060025f9054906101000a900473ffffffffffffffffffffffffffffffffffffffff1673ffffffffffffffffffffffffffffffffffffffff16634e6ec24760075f9054906101000a900473ffffffffffffffffffffffffffffffffffffffff166004546006548561153f919061243b565b61154991906124a9565b6040518363ffffffff1660e01b81526004016115669291906123b4565b5f604051808303815f87803b15801561157d575f80fd5b505af115801561158f573d5f803e3d5ffd5b5050505043600a8190555050565b6115a56119a5565b5f73ffffffffffffffffffffffffffffffffffffffff168173ffffffffffffffffffffffffffffffffffffffff1603611613576040517f08c379a000000000000000000000000000000000000000000000000000000000815260040161160a90612770565b60405180910390fd5b8060075f6101000a81548173ffffffffffffffffffffffffffffffffffffffff021916908373ffffffffffffffffffffffffffffffffffffffff16021790555060075f9054906101000a900473ffffffffffffffffffffffffffffffffffffffff1673ffffffffffffffffffffffffffffffffffffffff167fb1c7911ca1455735ffd17fec398b65f34157a7b58831b586878f5d3c2cf44ee260405160405180910390a250565b6116c2611a2c565b81600b80549050811061170a576040517f08c379a00000000000000000000000000000000000000000000000000000000081526004016117019061226e565b60405180910390fd5b5f600b848154811061171f5761171e61228c565b5b905f5260205f20906004020190505f600c5f8681526020019081526020015f205f3373ffffffffffffffffffffffffffffffffffffffff1673ffffffffffffffffffffffffffffffffffffffff1681526020019081526020015f20905061178585610b6a565b61178f8533611a72565b5f84111561184e57815f015f9054906101000a900473ffffffffffffffffffffffffffffffffffffffff1673ffffffffffffffffffffffffffffffffffffffff166323b872dd3330876040518463ffffffff1660e01b81526004016117f69392919061278e565b6020604051808303815f875af1158015611812573d5f803e3d5ffd5b505050506040513d601f19601f820116820180604052508101906118369190612410565b5083815f01546118469190612319565b815f01819055505b64e8d4a510008260030154825f0154611867919061243b565b61187191906124a9565b8160010181905550843373ffffffffffffffffffffffffffffffffffffffff167f90890809c654f11d6e72a28fa60149770a0d11ec6c92319d6ceb2bb0a4ea1a15866040516118c09190611f34565b60405180910390a35050506118d3611b8a565b5050565b60075f9054906101000a900473ffffffffffffffffffffffffffffffffffffffff1681565b60025f9054906101000a900473ffffffffffffffffffffffffffffffffffffffff1681565b6119296119a5565b5f73ffffffffffffffffffffffffffffffffffffffff168173ffffffffffffffffffffffffffffffffffffffff1603611999575f6040517f1e4fbdf70000000000000000000000000000000000000000000000000000000081526004016119909190612162565b60405180910390fd5b6119a281611b93565b50565b6119ad611f15565b73ffffffffffffffffffffffffffffffffffffffff166119cb611224565b73ffffffffffffffffffffffffffffffffffffffff1614611a2a576119ee611f15565b6040517f118cdaa7000000000000000000000000000000000000000000000000000000008152600401611a219190612162565b60405180910390fd5b565b600260015403611a68576040517f3ee5aeb500000000000000000000000000000000000000000000000000000000815260040160405180910390fd5b6002600181905550565b81600b805490508110611aba576040517f08c379a0000000000000000000000000000000000000000000000000000000008152600401611ab19061226e565b60405180910390fd5b5f600b8481548110611acf57611ace61228c565b5b905f5260205f20906004020190505f600c5f8681526020019081526020015f205f8573ffffffffffffffffffffffffffffffffffffffff1673ffffffffffffffffffffffffffffffffffffffff1681526020019081526020015f2090505f816001015464e8d4a510008460030154845f0154611b4b919061243b565b611b5591906124a9565b611b5f91906122e6565b90505f811115611b8257808260020154611b799190612319565b82600201819055505b505050505050565b60018081905550565b5f805f9054906101000a900473ffffffffffffffffffffffffffffffffffffffff169050815f806101000a81548173ffffffffffffffffffffffffffffffffffffffff021916908373ffffffffffffffffffffffffffffffffffffffff1602179055508173ffffffffffffffffffffffffffffffffffffffff168173ffffffffffffffffffffffffffffffffffffffff167f8be0079c531659141344cd1fd0a4f28419497f9722a3daafe3b4186f6b6457e060405160405180910390a35050565b5f60025f9054906101000a900473ffffffffffffffffffffffffffffffffffffffff1673ffffffffffffffffffffffffffffffffffffffff166327e235e3306040518263ffffffff1660e01b8152600401611caf9190612162565b602060405180830381865afa158015611cca573d5f803e3d5ffd5b505050506040513d601f19601f82011682018060405250810190611cee91906124ed565b905080821115611d9a5760025f9054906101000a900473ffffffffffffffffffffffffffffffffffffffff1673ffffffffffffffffffffffffffffffffffffffff1663a9059cbb84836040518363ffffffff1660e01b8152600401611d549291906123b4565b6020604051808303815f875af1158015611d70573d5f803e3d5ffd5b505050506040513d601f19601f82011682018060405250810190611d949190612410565b50611e38565b60025f9054906101000a900473ffffffffffffffffffffffffffffffffffffffff1673ffffffffffffffffffffffffffffffffffffffff1663a9059cbb84846040518363ffffffff1660e01b8152600401611df69291906123b4565b6020604051808303815f875af1158015611e12573d5f803e3d5ffd5b505050506040513d601f19601f82011682018060405250810190611e369190612410565b505b505050565b5f600b8054905090505f5b81811015611f10578273ffffffffffffffffffffffffffffffffffffffff16600b8281548110611e7b57611e7a61228c565b5b905f5260205f2090600402015f015f9054906101000a900473ffffffffffffffffffffffffffffffffffffffff1673ffffffffffffffffffffffffffffffffffffffff1603611eff576040517f08c379a0000000000000000000000000000000000000000000000000000000008152600401611ef69061280d565b60405180910390fd5b80611f0990612518565b9050611e48565b505050565b5f33905090565b5f819050919050565b611f2e81611f1c565b82525050565b5f602082019050611f475f830184611f25565b92915050565b5f80fd5b611f5a81611f1c565b8114611f64575f80fd5b50565b5f81359050611f7581611f51565b92915050565b5f60208284031215611f9057611f8f611f4d565b5b5f611f9d84828501611f67565b91505092915050565b5f73ffffffffffffffffffffffffffffffffffffffff82169050919050565b5f819050919050565b5f611fe8611fe3611fde84611fa6565b611fc5565b611fa6565b9050919050565b5f611ff982611fce565b9050919050565b5f61200a82611fef565b9050919050565b61201a81612000565b82525050565b5f6080820190506120335f830187612011565b6120406020830186611f25565b61204d6040830185611f25565b61205a6060830184611f25565b95945050505050565b5f806040838503121561207957612078611f4d565b5b5f61208685828601611f67565b925050602061209785828601611f67565b9150509250929050565b5f6120ab82611fa6565b9050919050565b6120bb816120a1565b81146120c5575f80fd5b50565b5f813590506120d6816120b2565b92915050565b5f80604083850312156120f2576120f1611f4d565b5b5f6120ff85828601611f67565b9250506020612110858286016120c8565b9150509250929050565b5f61212482611fef565b9050919050565b6121348161211a565b82525050565b5f60208201905061214d5f83018461212b565b92915050565b61215c816120a1565b82525050565b5f6020820190506121755f830184612153565b92915050565b5f60608201905061218e5f830186611f25565b61219b6020830185611f25565b6121a86040830184611f25565b949350505050565b5f602082840312156121c5576121c4611f4d565b5b5f6121d2848285016120c8565b91505092915050565b5f6121e582611fef565b9050919050565b6121f5816121db565b82525050565b5f60208201905061220e5f8301846121ec565b92915050565b5f82825260208201905092915050565b7f706f6f6c206e6f742065786973740000000000000000000000000000000000005f82015250565b5f612258600e83612214565b915061226382612224565b602082019050919050565b5f6020820190508181035f8301526122858161224c565b9050919050565b7f4e487b71000000000000000000000000000000000000000000000000000000005f52603260045260245ffd5b7f4e487b71000000000000000000000000000000000000000000000000000000005f52601160045260245ffd5b5f6122f082611f1c565b91506122fb83611f1c565b9250828203905081811115612313576123126122b9565b5b92915050565b5f61232382611f1c565b915061232e83611f1c565b9250828201905080821115612346576123456122b9565b5b92915050565b7f77697468647261773a206e6f7420676f6f6400000000000000000000000000005f82015250565b5f612380601283612214565b915061238b8261234c565b602082019050919050565b5f6020820190508181035f8301526123ad81612374565b9050919050565b5f6040820190506123c75f830185612153565b6123d46020830184611f25565b9392505050565b5f8115159050919050565b6123ef816123db565b81146123f9575f80fd5b50565b5f8151905061240a816123e6565b92915050565b5f6020828403121561242557612424611f4d565b5b5f612432848285016123fc565b91505092915050565b5f61244582611f1c565b915061245083611f1c565b925082820261245e81611f1c565b91508282048414831517612475576124746122b9565b5b5092915050565b7f4e487b71000000000000000000000000000000000000000000000000000000005f52601260045260245ffd5b5f6124b382611f1c565b91506124be83611f1c565b9250826124ce576124cd61247c565b5b828204905092915050565b5f815190506124e781611f51565b92915050565b5f6020828403121561250257612501611f4d565b5b5f61250f848285016124d9565b91505092915050565b5f61252282611f1c565b91507fffffffffffffffffffffffffffffffffffffffffffffffffffffffffffffffff8203612554576125536122b9565b5b600182019050919050565b7f4d61782070657220626c6f636b2031303020424e4300000000000000000000005f82015250565b5f612593601583612214565b915061259e8261255f565b602082019050919050565b5f6020820190508181035f8301526125c081612587565b9050919050565b7f4d696e2070657220626c6f636b20302e30303120424e430000000000000000005f82015250565b5f6125fb601783612214565b9150612606826125c7565b602082019050919050565b5f6020820190508181035f830152612628816125ef565b9050919050565b7f50657263656e742053756d0000000000000000000000000000000000000000005f82015250565b5f612663600b83612214565b915061266e8261262f565b602082019050919050565b5f6020820190508181035f83015261269081612657565b9050919050565b5f6040820190506126aa5f830185611f25565b6126b76020830184611f25565b9392505050565b7f7761697420666f72206e657720626c6f636b00000000000000000000000000005f82015250565b5f6126f2601283612214565b91506126fd826126be565b602082019050919050565b5f6020820190508181035f83015261271f816126e6565b9050919050565b7f5a65726f000000000000000000000000000000000000000000000000000000005f82015250565b5f61275a600483612214565b915061276582612726565b602082019050919050565b5f6020820190508181035f8301526127878161274e565b9050919050565b5f6060820190506127a15f830186612153565b6127ae6020830185612153565b6127bb6040830184611f25565b949350505050565b7f706f6f6c206578697374656400000000000000000000000000000000000000005f82015250565b5f6127f7600c83612214565b9150612802826127c3565b602082019050919050565b5f6020820190508181035f830152612824816127eb565b905091905056fea26469706673582212204e1ab6a7dc1b31a82ed76256bcfdd450721225a64a36aa0d7b6b8b60ea76520364736f6c63430008140033",
			"opcodes": "PUSH1 0x80 PUSH1 0x40 MSTORE PUSH2 0x2710 PUSH1 0x4 SSTORE PUSH1 0x1 PUSH1 0x9 SSTORE PUSH0 PUSH1 0xD SSTORE CALLVALUE DUP1 ISZERO PUSH3 0x1F JUMPI PUSH0 DUP1 REVERT JUMPDEST POP PUSH1 0x40 MLOAD PUSH3 0x2C80 CODESIZE SUB DUP1 PUSH3 0x2C80 DUP4 CODECOPY DUP2 DUP2 ADD PUSH1 0x40 MSTORE DUP2 ADD SWAP1 PUSH3 0x45 SWAP2 SWAP1 PUSH3 0x321 JUMP JUMPDEST DUP1 PUSH0 PUSH20 0xFFFFFFFFFFFFFFFFFFFFFFFFFFFFFFFFFFFFFFFF AND DUP2 PUSH20 0xFFFFFFFFFFFFFFFFFFFFFFFFFFFFFFFFFFFFFFFF AND SUB PUSH3 0xB9 JUMPI PUSH0 PUSH1 0x40 MLOAD PUSH32 0x1E4FBDF700000000000000000000000000000000000000000000000000000000 DUP2 MSTORE PUSH1 0x4 ADD PUSH3 0xB0 SWAP2 SWAP1 PUSH3 0x3F6 JUMP JUMPDEST PUSH1 0x40 MLOAD DUP1 SWAP2 SUB SWAP1 REVERT JUMPDEST PUSH3 0xCA DUP2 PUSH3 0x1C3 PUSH1 0x20 SHL PUSH1 0x20 SHR JUMP JUMPDEST POP PUSH1 0x1 DUP1 DUP2 SWAP1 SSTORE POP DUP8 PUSH1 0x2 PUSH0 PUSH2 0x100 EXP DUP2 SLOAD DUP2 PUSH20 0xFFFFFFFFFFFFFFFFFFFFFFFFFFFFFFFFFFFFFFFF MUL NOT AND SWAP1 DUP4 PUSH20 0xFFFFFFFFFFFFFFFFFFFFFFFFFFFFFFFFFFFFFFFF AND MUL OR SWAP1 SSTORE POP DUP7 PUSH1 0x3 PUSH0 PUSH2 0x100 EXP DUP2 SLOAD DUP2 PUSH20 0xFFFFFFFFFFFFFFFFFFFFFFFFFFFFFFFFFFFFFFFF MUL NOT AND SWAP1 DUP4 PUSH20 0xFFFFFFFFFFFFFFFFFFFFFFFFFFFFFFFFFFFFFFFF AND MUL OR SWAP1 SSTORE POP DUP6 PUSH1 0x7 PUSH0 PUSH2 0x100 EXP DUP2 SLOAD DUP2 PUSH20 0xFFFFFFFFFFFFFFFFFFFFFFFFFFFFFFFFFFFFFFFF MUL NOT AND SWAP1 DUP4 PUSH20 0xFFFFFFFFFFFFFFFFFFFFFFFFFFFFFFFFFFFFFFFF AND MUL OR SWAP1 SSTORE POP DUP5 PUSH1 0x6 DUP2 SWAP1 SSTORE POP DUP4 PUSH1 0x5 DUP2 SWAP1 SSTORE POP DUP3 PUSH1 0x8 DUP2 SWAP1 SSTORE POP DUP2 PUSH1 0xE DUP2 SWAP1 SSTORE POP DUP2 PUSH1 0xA DUP2 SWAP1 SSTORE POP POP POP POP POP POP POP POP POP PUSH3 0x411 JUMP JUMPDEST PUSH0 DUP1 PUSH0 SWAP1 SLOAD SWAP1 PUSH2 0x100 EXP SWAP1 DIV PUSH20 0xFFFFFFFFFFFFFFFFFFFFFFFFFFFFFFFFFFFFFFFF AND SWAP1 POP DUP2 PUSH0 DUP1 PUSH2 0x100 EXP DUP2 SLOAD DUP2 PUSH20 0xFFFFFFFFFFFFFFFFFFFFFFFFFFFFFFFFFFFFFFFF MUL NOT AND SWAP1 DUP4 PUSH20 0xFFFFFFFFFFFFFFFFFFFFFFFFFFFFFFFFFFFFFFFF AND MUL OR SWAP1 SSTORE POP DUP2 PUSH20 0xFFFFFFFFFFFFFFFFFFFFFFFFFFFFFFFFFFFFFFFF AND DUP2 PUSH20 0xFFFFFFFFFFFFFFFFFFFFFFFFFFFFFFFFFFFFFFFF AND PUSH32 0x8BE0079C531659141344CD1FD0A4F28419497F9722A3DAAFE3B4186F6B6457E0 PUSH1 0x40 MLOAD PUSH1 0x40 MLOAD DUP1 SWAP2 SUB SWAP1 LOG3 POP POP JUMP JUMPDEST PUSH0 DUP1 REVERT JUMPDEST PUSH0 PUSH20 0xFFFFFFFFFFFFFFFFFFFFFFFFFFFFFFFFFFFFFFFF DUP3 AND SWAP1 POP SWAP2 SWAP1 POP JUMP JUMPDEST PUSH0 PUSH3 0x2B3 DUP3 PUSH3 0x288 JUMP JUMPDEST SWAP1 POP SWAP2 SWAP1 POP JUMP JUMPDEST PUSH3 0x2C5 DUP2 PUSH3 0x2A7 JUMP JUMPDEST DUP2 EQ PUSH3 0x2D0 JUMPI PUSH0 DUP1 REVERT JUMPDEST POP JUMP JUMPDEST PUSH0 DUP2 MLOAD SWAP1 POP PUSH3 0x2E3 DUP2 PUSH3 0x2BA JUMP JUMPDEST SWAP3 SWAP2 POP POP JUMP JUMPDEST PUSH0 DUP2 SWAP1 POP SWAP2 SWAP1 POP JUMP JUMPDEST PUSH3 0x2FD DUP2 PUSH3 0x2E9 JUMP JUMPDEST DUP2 EQ PUSH3 0x308 JUMPI PUSH0 DUP1 REVERT JUMPDEST POP JUMP JUMPDEST PUSH0 DUP2 MLOAD SWAP1 POP PUSH3 0x31B DUP2 PUSH3 0x2F2 JUMP JUMPDEST SWAP3 SWAP2 POP POP JUMP JUMPDEST PUSH0 DUP1 PUSH0 DUP1 PUSH0 DUP1 PUSH0 DUP1 PUSH2 0x100 DUP10 DUP12 SUB SLT ISZERO PUSH3 0x341 JUMPI PUSH3 0x340 PUSH3 0x284 JUMP JUMPDEST JUMPDEST PUSH0 PUSH3 0x350 DUP12 DUP3 DUP13 ADD PUSH3 0x2D3 JUMP JUMPDEST SWAP9 POP POP PUSH1 0x20 PUSH3 0x363 DUP12 DUP3 DUP13 ADD PUSH3 0x2D3 JUMP JUMPDEST SWAP8 POP POP PUSH1 0x40 PUSH3 0x376 DUP12 DUP3 DUP13 ADD PUSH3 0x2D3 JUMP JUMPDEST SWAP7 POP POP PUSH1 0x60 PUSH3 0x389 DUP12 DUP3 DUP13 ADD PUSH3 0x30B JUMP JUMPDEST SWAP6 POP POP PUSH1 0x80 PUSH3 0x39C DUP12 DUP3 DUP13 ADD PUSH3 0x30B JUMP JUMPDEST SWAP5 POP POP PUSH1 0xA0 PUSH3 0x3AF DUP12 DUP3 DUP13 ADD PUSH3 0x30B JUMP JUMPDEST SWAP4 POP POP PUSH1 0xC0 PUSH3 0x3C2 DUP12 DUP3 DUP13 ADD PUSH3 0x30B JUMP JUMPDEST SWAP3 POP POP PUSH1 0xE0 PUSH3 0x3D5 DUP12 DUP3 DUP13 ADD PUSH3 0x2D3 JUMP JUMPDEST SWAP2 POP POP SWAP3 SWAP6 SWAP9 POP SWAP3 SWAP6 SWAP9 SWAP1 SWAP4 SWAP7 POP JUMP JUMPDEST PUSH3 0x3F0 DUP2 PUSH3 0x2A7 JUMP JUMPDEST DUP3 MSTORE POP POP JUMP JUMPDEST PUSH0 PUSH1 0x20 DUP3 ADD SWAP1 POP PUSH3 0x40B PUSH0 DUP4 ADD DUP5 PUSH3 0x3E5 JUMP JUMPDEST SWAP3 SWAP2 POP POP JUMP JUMPDEST PUSH2 0x2861 DUP1 PUSH3 0x41F PUSH0 CODECOPY PUSH0 RETURN INVALID PUSH1 0x80 PUSH1 0x40 MSTORE CALLVALUE DUP1 ISZERO PUSH2 0xF JUMPI PUSH0 DUP1 REVERT JUMPDEST POP PUSH1 0x4 CALLDATASIZE LT PUSH2 0x1E3 JUMPI PUSH0 CALLDATALOAD PUSH1 0xE0 SHR DUP1 PUSH4 0x8AA28550 GT PUSH2 0x10D JUMPI DUP1 PUSH4 0xBE1193EA GT PUSH2 0xA0 JUMPI DUP1 PUSH4 0xE2BBB158 GT PUSH2 0x6F JUMPI DUP1 PUSH4 0xE2BBB158 EQ PUSH2 0x510 JUMPI DUP1 PUSH4 0xE88E0E3A EQ PUSH2 0x52C JUMPI DUP1 PUSH4 0xF29588C7 EQ PUSH2 0x54A JUMPI DUP1 PUSH4 0xF2FDE38B EQ PUSH2 0x568 JUMPI PUSH2 0x1E3 JUMP JUMPDEST DUP1 PUSH4 0xBE1193EA EQ PUSH2 0x4AE JUMPI DUP1 PUSH4 0xC6A37CB8 EQ PUSH2 0x4CC JUMPI DUP1 PUSH4 0xCB93F7EF EQ PUSH2 0x4EA JUMPI DUP1 PUSH4 0xD0D41FE1 EQ PUSH2 0x4F4 JUMPI PUSH2 0x1E3 JUMP JUMPDEST DUP1 PUSH4 0x9586712A GT PUSH2 0xDC JUMPI DUP1 PUSH4 0x9586712A EQ PUSH2 0x43A JUMPI DUP1 PUSH4 0xA5981E7B EQ PUSH2 0x456 JUMPI DUP1 PUSH4 0xB76E360C EQ PUSH2 0x472 JUMPI DUP1 PUSH4 0xBD62A7D9 EQ PUSH2 0x490 JUMPI PUSH2 0x1E3 JUMP JUMPDEST DUP1 PUSH4 0x8AA28550 EQ PUSH2 0x39C JUMPI DUP1 PUSH4 0x8DA5CB5B EQ PUSH2 0x3BA JUMPI DUP1 PUSH4 0x8DBB1E3A EQ PUSH2 0x3D8 JUMPI DUP1 PUSH4 0x93F1A40B EQ PUSH2 0x408 JUMPI PUSH2 0x1E3 JUMP JUMPDEST DUP1 PUSH4 0x4E0F4E9F GT PUSH2 0x185 JUMPI DUP1 PUSH4 0x715018A6 GT PUSH2 0x154 JUMPI DUP1 PUSH4 0x715018A6 EQ PUSH2 0x33C JUMPI DUP1 PUSH4 0x73D4A13A EQ PUSH2 0x346 JUMPI DUP1 PUSH4 0x7709FC4B EQ PUSH2 0x364 JUMPI DUP1 PUSH4 0x8A50BB36 EQ PUSH2 0x380 JUMPI PUSH2 0x1E3 JUMP JUMPDEST DUP1 PUSH4 0x4E0F4E9F EQ PUSH2 0x2CA JUMPI DUP1 PUSH4 0x51EB05A6 EQ PUSH2 0x2FA JUMPI DUP1 PUSH4 0x5312EA8E EQ PUSH2 0x316 JUMPI DUP1 PUSH4 0x630B5BA1 EQ PUSH2 0x332 JUMPI PUSH2 0x1E3 JUMP JUMPDEST DUP1 PUSH4 0x1AB06EE5 GT PUSH2 0x1C1 JUMPI DUP1 PUSH4 0x1AB06EE5 EQ PUSH2 0x256 JUMPI DUP1 PUSH4 0x21B1AECB EQ PUSH2 0x272 JUMPI DUP1 PUSH4 0x441A3E70 EQ PUSH2 0x290 JUMPI DUP1 PUSH4 0x48CD4CB1 EQ PUSH2 0x2AC JUMPI PUSH2 0x1E3 JUMP JUMPDEST DUP1 PUSH4 0x81E3EDA EQ PUSH2 0x1E7 JUMPI DUP1 PUSH4 0x1526FE27 EQ PUSH2 0x205 JUMPI DUP1 PUSH4 0x17CAF6F1 EQ PUSH2 0x238 JUMPI JUMPDEST PUSH0 DUP1 REVERT JUMPDEST PUSH2 0x1EF PUSH2 0x584 JUMP JUMPDEST PUSH1 0x40 MLOAD PUSH2 0x1FC SWAP2 SWAP1 PUSH2 0x1F34 JUMP JUMPDEST PUSH1 0x40 MLOAD DUP1 SWAP2 SUB SWAP1 RETURN JUMPDEST PUSH2 0x21F PUSH1 0x4 DUP1 CALLDATASIZE SUB DUP2 ADD SWAP1 PUSH2 0x21A SWAP2 SWAP1 PUSH2 0x1F7B JUMP JUMPDEST PUSH2 0x590 JUMP JUMPDEST PUSH1 0x40 MLOAD PUSH2 0x22F SWAP5 SWAP4 SWAP3 SWAP2 SWAP1 PUSH2 0x2020 JUMP JUMPDEST PUSH1 0x40 MLOAD DUP1 SWAP2 SUB SWAP1 RETURN JUMPDEST PUSH2 0x240 PUSH2 0x5EA JUMP JUMPDEST PUSH1 0x40 MLOAD PUSH2 0x24D SWAP2 SWAP1 PUSH2 0x1F34 JUMP JUMPDEST PUSH1 0x40 MLOAD DUP1 SWAP2 SUB SWAP1 RETURN JUMPDEST PUSH2 0x270 PUSH1 0x4 DUP1 CALLDATASIZE SUB DUP2 ADD SWAP1 PUSH2 0x26B SWAP2 SWAP1 PUSH2 0x2063 JUMP JUMPDEST PUSH2 0x5F0 JUMP JUMPDEST STOP JUMPDEST PUSH2 0x27A PUSH2 0x6B7 JUMP JUMPDEST PUSH1 0x40 MLOAD PUSH2 0x287 SWAP2 SWAP1 PUSH2 0x1F34 JUMP JUMPDEST PUSH1 0x40 MLOAD DUP1 SWAP2 SUB SWAP1 RETURN JUMPDEST PUSH2 0x2AA PUSH1 0x4 DUP1 CALLDATASIZE SUB DUP2 ADD SWAP1 PUSH2 0x2A5 SWAP2 SWAP1 PUSH2 0x2063 JUMP JUMPDEST PUSH2 0x6BD JUMP JUMPDEST STOP JUMPDEST PUSH2 0x2B4 PUSH2 0x91E JUMP JUMPDEST PUSH1 0x40 MLOAD PUSH2 0x2C1 SWAP2 SWAP1 PUSH2 0x1F34 JUMP JUMPDEST PUSH1 0x40 MLOAD DUP1 SWAP2 SUB SWAP1 RETURN JUMPDEST PUSH2 0x2E4 PUSH1 0x4 DUP1 CALLDATASIZE SUB DUP2 ADD SWAP1 PUSH2 0x2DF SWAP2 SWAP1 PUSH2 0x20DC JUMP JUMPDEST PUSH2 0x924 JUMP JUMPDEST PUSH1 0x40 MLOAD PUSH2 0x2F1 SWAP2 SWAP1 PUSH2 0x1F34 JUMP JUMPDEST PUSH1 0x40 MLOAD DUP1 SWAP2 SUB SWAP1 RETURN JUMPDEST PUSH2 0x314 PUSH1 0x4 DUP1 CALLDATASIZE SUB DUP2 ADD SWAP1 PUSH2 0x30F SWAP2 SWAP1 PUSH2 0x1F7B JUMP JUMPDEST PUSH2 0xB6A JUMP JUMPDEST STOP JUMPDEST PUSH2 0x330 PUSH1 0x4 DUP1 CALLDATASIZE SUB DUP2 ADD SWAP1 PUSH2 0x32B SWAP2 SWAP1 PUSH2 0x1F7B JUMP JUMPDEST PUSH2 0xDC0 JUMP JUMPDEST STOP JUMPDEST PUSH2 0x33A PUSH2 0xF9D JUMP JUMPDEST STOP JUMPDEST PUSH2 0x344 PUSH2 0xFCE JUMP JUMPDEST STOP JUMPDEST PUSH2 0x34E PUSH2 0xFE1 JUMP JUMPDEST PUSH1 0x40 MLOAD PUSH2 0x35B SWAP2 SWAP1 PUSH2 0x213A JUMP JUMPDEST PUSH1 0x40 MLOAD DUP1 SWAP2 SUB SWAP1 RETURN JUMPDEST PUSH2 0x37E PUSH1 0x4 DUP1 CALLDATASIZE SUB DUP2 ADD SWAP1 PUSH2 0x379 SWAP2 SWAP1 PUSH2 0x1F7B JUMP JUMPDEST PUSH2 0x1006 JUMP JUMPDEST STOP JUMPDEST PUSH2 0x39A PUSH1 0x4 DUP1 CALLDATASIZE SUB DUP2 ADD SWAP1 PUSH2 0x395 SWAP2 SWAP1 PUSH2 0x1F7B JUMP JUMPDEST PUSH2 0x10E7 JUMP JUMPDEST STOP JUMPDEST PUSH2 0x3A4 PUSH2 0x121E JUMP JUMPDEST PUSH1 0x40 MLOAD PUSH2 0x3B1 SWAP2 SWAP1 PUSH2 0x1F34 JUMP JUMPDEST PUSH1 0x40 MLOAD DUP1 SWAP2 SUB SWAP1 RETURN JUMPDEST PUSH2 0x3C2 PUSH2 0x1224 JUMP JUMPDEST PUSH1 0x40 MLOAD PUSH2 0x3CF SWAP2 SWAP1 PUSH2 0x2162 JUMP JUMPDEST PUSH1 0x40 MLOAD DUP1 SWAP2 SUB SWAP1 RETURN JUMPDEST PUSH2 0x3F2 PUSH1 0x4 DUP1 CALLDATASIZE SUB DUP2 ADD SWAP1 PUSH2 0x3ED SWAP2 SWAP1 PUSH2 0x2063 JUMP JUMPDEST PUSH2 0x124B JUMP JUMPDEST PUSH1 0x40 MLOAD PUSH2 0x3FF SWAP2 SWAP1 PUSH2 0x1F34 JUMP JUMPDEST PUSH1 0x40 MLOAD DUP1 SWAP2 SUB SWAP1 RETURN JUMPDEST PUSH2 0x422 PUSH1 0x4 DUP1 CALLDATASIZE SUB DUP2 ADD SWAP1 PUSH2 0x41D SWAP2 SWAP1 PUSH2 0x20DC JUMP JUMPDEST PUSH2 0x126D JUMP JUMPDEST PUSH1 0x40 MLOAD PUSH2 0x431 SWAP4 SWAP3 SWAP2 SWAP1 PUSH2 0x217B JUMP JUMPDEST PUSH1 0x40 MLOAD DUP1 SWAP2 SUB SWAP1 RETURN JUMPDEST PUSH2 0x454 PUSH1 0x4 DUP1 CALLDATASIZE SUB DUP2 ADD SWAP1 PUSH2 0x44F SWAP2 SWAP1 PUSH2 0x20DC JUMP JUMPDEST PUSH2 0x129E JUMP JUMPDEST STOP JUMPDEST PUSH2 0x470 PUSH1 0x4 DUP1 CALLDATASIZE SUB DUP2 ADD SWAP1 PUSH2 0x46B SWAP2 SWAP1 PUSH2 0x2063 JUMP JUMPDEST PUSH2 0x13A9 JUMP JUMPDEST STOP JUMPDEST PUSH2 0x47A PUSH2 0x1455 JUMP JUMPDEST PUSH1 0x40 MLOAD PUSH2 0x487 SWAP2 SWAP1 PUSH2 0x1F34 JUMP JUMPDEST PUSH1 0x40 MLOAD DUP1 SWAP2 SUB SWAP1 RETURN JUMPDEST PUSH2 0x498 PUSH2 0x145B JUMP JUMPDEST PUSH1 0x40 MLOAD PUSH2 0x4A5 SWAP2 SWAP1 PUSH2 0x1F34 JUMP JUMPDEST PUSH1 0x40 MLOAD DUP1 SWAP2 SUB SWAP1 RETURN JUMPDEST PUSH2 0x4B6 PUSH2 0x1461 JUMP JUMPDEST PUSH1 0x40 MLOAD PUSH2 0x4C3 SWAP2 SWAP1 PUSH2 0x1F34 JUMP JUMPDEST PUSH1 0x40 MLOAD DUP1 SWAP2 SUB SWAP1 RETURN JUMPDEST PUSH2 0x4D4 PUSH2 0x1467 JUMP JUMPDEST PUSH1 0x40 MLOAD PUSH2 0x4E1 SWAP2 SWAP1 PUSH2 0x1F34 JUMP JUMPDEST PUSH1 0x40 MLOAD DUP1 SWAP2 SUB SWAP1 RETURN JUMPDEST PUSH2 0x4F2 PUSH2 0x146D JUMP JUMPDEST STOP JUMPDEST PUSH2 0x50E PUSH1 0x4 DUP1 CALLDATASIZE SUB DUP2 ADD SWAP1 PUSH2 0x509 SWAP2 SWAP1 PUSH2 0x21B0 JUMP JUMPDEST PUSH2 0x159D JUMP JUMPDEST STOP JUMPDEST PUSH2 0x52A PUSH1 0x4 DUP1 CALLDATASIZE SUB DUP2 ADD SWAP1 PUSH2 0x525 SWAP2 SWAP1 PUSH2 0x2063 JUMP JUMPDEST PUSH2 0x16BA JUMP JUMPDEST STOP JUMPDEST PUSH2 0x534 PUSH2 0x18D7 JUMP JUMPDEST PUSH1 0x40 MLOAD PUSH2 0x541 SWAP2 SWAP1 PUSH2 0x2162 JUMP JUMPDEST PUSH1 0x40 MLOAD DUP1 SWAP2 SUB SWAP1 RETURN JUMPDEST PUSH2 0x552 PUSH2 0x18FC JUMP JUMPDEST PUSH1 0x40 MLOAD PUSH2 0x55F SWAP2 SWAP1 PUSH2 0x21FB JUMP JUMPDEST PUSH1 0x40 MLOAD DUP1 SWAP2 SUB SWAP1 RETURN JUMPDEST PUSH2 0x582 PUSH1 0x4 DUP1 CALLDATASIZE SUB DUP2 ADD SWAP1 PUSH2 0x57D SWAP2 SWAP1 PUSH2 0x21B0 JUMP JUMPDEST PUSH2 0x1921 JUMP JUMPDEST STOP JUMPDEST PUSH0 PUSH1 0xB DUP1 SLOAD SWAP1 POP SWAP1 POP SWAP1 JUMP JUMPDEST PUSH1 0xB DUP2 DUP2 SLOAD DUP2 LT PUSH2 0x59F JUMPI PUSH0 DUP1 REVERT JUMPDEST SWAP1 PUSH0 MSTORE PUSH1 0x20 PUSH0 KECCAK256 SWAP1 PUSH1 0x4 MUL ADD PUSH0 SWAP2 POP SWAP1 POP DUP1 PUSH0 ADD PUSH0 SWAP1 SLOAD SWAP1 PUSH2 0x100 EXP SWAP1 DIV PUSH20 0xFFFFFFFFFFFFFFFFFFFFFFFFFFFFFFFFFFFFFFFF AND SWAP1 DUP1 PUSH1 0x1 ADD SLOAD SWAP1 DUP1 PUSH1 0x2 ADD SLOAD SWAP1 DUP1 PUSH1 0x3 ADD SLOAD SWAP1 POP DUP5 JUMP JUMPDEST PUSH1 0xD SLOAD DUP2 JUMP JUMPDEST PUSH2 0x5F8 PUSH2 0x19A5 JUMP JUMPDEST DUP2 PUSH1 0xB DUP1 SLOAD SWAP1 POP DUP2 LT PUSH2 0x640 JUMPI PUSH1 0x40 MLOAD PUSH32 0x8C379A000000000000000000000000000000000000000000000000000000000 DUP2 MSTORE PUSH1 0x4 ADD PUSH2 0x637 SWAP1 PUSH2 0x226E JUMP JUMPDEST PUSH1 0x40 MLOAD DUP1 SWAP2 SUB SWAP1 REVERT JUMPDEST PUSH2 0x648 PUSH2 0xF9D JUMP JUMPDEST DUP2 PUSH1 0xB DUP5 DUP2 SLOAD DUP2 LT PUSH2 0x65D JUMPI PUSH2 0x65C PUSH2 0x228C JUMP JUMPDEST JUMPDEST SWAP1 PUSH0 MSTORE PUSH1 0x20 PUSH0 KECCAK256 SWAP1 PUSH1 0x4 MUL ADD PUSH1 0x1 ADD SLOAD PUSH1 0xD SLOAD PUSH2 0x67A SWAP2 SWAP1 PUSH2 0x22E6 JUMP JUMPDEST PUSH2 0x684 SWAP2 SWAP1 PUSH2 0x2319 JUMP JUMPDEST PUSH1 0xD DUP2 SWAP1 SSTORE POP DUP2 PUSH1 0xB DUP5 DUP2 SLOAD DUP2 LT PUSH2 0x69F JUMPI PUSH2 0x69E PUSH2 0x228C JUMP JUMPDEST JUMPDEST SWAP1 PUSH0 MSTORE PUSH1 0x20 PUSH0 KECCAK256 SWAP1 PUSH1 0x4 MUL ADD PUSH1 0x1 ADD DUP2 SWAP1 SSTORE POP POP POP POP JUMP JUMPDEST PUSH1 0x4 SLOAD DUP2 JUMP JUMPDEST PUSH2 0x6C5 PUSH2 0x1A2C JUMP JUMPDEST DUP2 PUSH1 0xB DUP1 SLOAD SWAP1 POP DUP2 LT PUSH2 0x70D JUMPI PUSH1 0x40 MLOAD PUSH32 0x8C379A000000000000000000000000000000000000000000000000000000000 DUP2 MSTORE PUSH1 0x4 ADD PUSH2 0x704 SWAP1 PUSH2 0x226E JUMP JUMPDEST PUSH1 0x40 MLOAD DUP1 SWAP2 SUB SWAP1 REVERT JUMPDEST PUSH0 PUSH1 0xB DUP5 DUP2 SLOAD DUP2 LT PUSH2 0x722 JUMPI PUSH2 0x721 PUSH2 0x228C JUMP JUMPDEST JUMPDEST SWAP1 PUSH0 MSTORE PUSH1 0x20 PUSH0 KECCAK256 SWAP1 PUSH1 0x4 MUL ADD SWAP1 POP PUSH0 PUSH1 0xC PUSH0 DUP7 DUP2 MSTORE PUSH1 0x20 ADD SWAP1 DUP2 MSTORE PUSH1 0x20 ADD PUSH0 KECCAK256 PUSH0 CALLER PUSH20 0xFFFFFFFFFFFFFFFFFFFFFFFFFFFFFFFFFFFFFFFF AND PUSH20 0xFFFFFFFFFFFFFFFFFFFFFFFFFFFFFFFFFFFFFFFF AND DUP2 MSTORE PUSH1 0x20 ADD SWAP1 DUP2 MSTORE PUSH1 0x20 ADD PUSH0 KECCAK256 SWAP1 POP DUP4 DUP2 PUSH0 ADD SLOAD LT ISZERO PUSH2 0x7C5 JUMPI PUSH1 0x40 MLOAD PUSH32 0x8C379A000000000000000000000000000000000000000000000000000000000 DUP2 MSTORE PUSH1 0x4 ADD PUSH2 0x7BC SWAP1 PUSH2 0x2396 JUMP JUMPDEST PUSH1 0x40 MLOAD DUP1 SWAP2 SUB SWAP1 REVERT JUMPDEST PUSH2 0x7CE DUP6 PUSH2 0xB6A JUMP JUMPDEST PUSH2 0x7D8 DUP6 CALLER PUSH2 0x1A72 JUMP JUMPDEST PUSH0 DUP5 GT ISZERO PUSH2 0x895 JUMPI DUP4 DUP2 PUSH0 ADD SLOAD PUSH2 0x7EF SWAP2 SWAP1 PUSH2 0x22E6 JUMP JUMPDEST DUP2 PUSH0 ADD DUP2 SWAP1 SSTORE POP DUP2 PUSH0 ADD PUSH0 SWAP1 SLOAD SWAP1 PUSH2 0x100 EXP SWAP1 DIV PUSH20 0xFFFFFFFFFFFFFFFFFFFFFFFFFFFFFFFFFFFFFFFF AND PUSH20 0xFFFFFFFFFFFFFFFFFFFFFFFFFFFFFFFFFFFFFFFF AND PUSH4 0xA9059CBB CALLER DUP7 PUSH1 0x40 MLOAD DUP4 PUSH4 0xFFFFFFFF AND PUSH1 0xE0 SHL DUP2 MSTORE PUSH1 0x4 ADD PUSH2 0x853 SWAP3 SWAP2 SWAP1 PUSH2 0x23B4 JUMP JUMPDEST PUSH1 0x20 PUSH1 0x40 MLOAD DUP1 DUP4 SUB DUP2 PUSH0 DUP8 GAS CALL ISZERO DUP1 ISZERO PUSH2 0x86F JUMPI RETURNDATASIZE PUSH0 DUP1 RETURNDATACOPY RETURNDATASIZE PUSH0 REVERT JUMPDEST POP POP POP POP PUSH1 0x40 MLOAD RETURNDATASIZE PUSH1 0x1F NOT PUSH1 0x1F DUP3 ADD AND DUP3 ADD DUP1 PUSH1 0x40 MSTORE POP DUP2 ADD SWAP1 PUSH2 0x893 SWAP2 SWAP1 PUSH2 0x2410 JUMP JUMPDEST POP JUMPDEST PUSH5 0xE8D4A51000 DUP3 PUSH1 0x3 ADD SLOAD DUP3 PUSH0 ADD SLOAD PUSH2 0x8AE SWAP2 SWAP1 PUSH2 0x243B JUMP JUMPDEST PUSH2 0x8B8 SWAP2 SWAP1 PUSH2 0x24A9 JUMP JUMPDEST DUP2 PUSH1 0x1 ADD DUP2 SWAP1 SSTORE POP DUP5 CALLER PUSH20 0xFFFFFFFFFFFFFFFFFFFFFFFFFFFFFFFFFFFFFFFF AND PUSH32 0xF279E6A1F5E320CCA91135676D9CB6E44CA8A08C0B88342BCDB1144F6511B568 DUP7 PUSH1 0x40 MLOAD PUSH2 0x907 SWAP2 SWAP1 PUSH2 0x1F34 JUMP JUMPDEST PUSH1 0x40 MLOAD DUP1 SWAP2 SUB SWAP1 LOG3 POP POP POP PUSH2 0x91A PUSH2 0x1B8A JUMP JUMPDEST POP POP JUMP JUMPDEST PUSH1 0xE SLOAD DUP2 JUMP JUMPDEST PUSH0 DUP3 PUSH1 0xB DUP1 SLOAD SWAP1 POP DUP2 LT PUSH2 0x96D JUMPI PUSH1 0x40 MLOAD PUSH32 0x8C379A000000000000000000000000000000000000000000000000000000000 DUP2 MSTORE PUSH1 0x4 ADD PUSH2 0x964 SWAP1 PUSH2 0x226E JUMP JUMPDEST PUSH1 0x40 MLOAD DUP1 SWAP2 SUB SWAP1 REVERT JUMPDEST PUSH0 PUSH1 0xB DUP6 DUP2 SLOAD DUP2 LT PUSH2 0x982 JUMPI PUSH2 0x981 PUSH2 0x228C JUMP JUMPDEST JUMPDEST SWAP1 PUSH0 MSTORE PUSH1 0x20 PUSH0 KECCAK256 SWAP1 PUSH1 0x4 MUL ADD SWAP1 POP PUSH0 PUSH1 0xC PUSH0 DUP8 DUP2 MSTORE PUSH1 0x20 ADD SWAP1 DUP2 MSTORE PUSH1 0x20 ADD PUSH0 KECCAK256 PUSH0 DUP7 PUSH20 0xFFFFFFFFFFFFFFFFFFFFFFFFFFFFFFFFFFFFFFFF AND PUSH20 0xFFFFFFFFFFFFFFFFFFFFFFFFFFFFFFFFFFFFFFFF AND DUP2 MSTORE PUSH1 0x20 ADD SWAP1 DUP2 MSTORE PUSH1 0x20 ADD PUSH0 KECCAK256 SWAP1 POP PUSH0 DUP3 PUSH1 0x3 ADD SLOAD SWAP1 POP PUSH0 DUP4 PUSH0 ADD PUSH0 SWAP1 SLOAD SWAP1 PUSH2 0x100 EXP SWAP1 DIV PUSH20 0xFFFFFFFFFFFFFFFFFFFFFFFFFFFFFFFFFFFFFFFF AND PUSH20 0xFFFFFFFFFFFFFFFFFFFFFFFFFFFFFFFFFFFFFFFF AND PUSH4 0x70A08231 ADDRESS PUSH1 0x40 MLOAD DUP3 PUSH4 0xFFFFFFFF AND PUSH1 0xE0 SHL DUP2 MSTORE PUSH1 0x4 ADD PUSH2 0xA43 SWAP2 SWAP1 PUSH2 0x2162 JUMP JUMPDEST PUSH1 0x20 PUSH1 0x40 MLOAD DUP1 DUP4 SUB DUP2 DUP7 GAS STATICCALL ISZERO DUP1 ISZERO PUSH2 0xA5E JUMPI RETURNDATASIZE PUSH0 DUP1 RETURNDATACOPY RETURNDATASIZE PUSH0 REVERT JUMPDEST POP POP POP POP PUSH1 0x40 MLOAD RETURNDATASIZE PUSH1 0x1F NOT PUSH1 0x1F DUP3 ADD AND DUP3 ADD DUP1 PUSH1 0x40 MSTORE POP DUP2 ADD SWAP1 PUSH2 0xA82 SWAP2 SWAP1 PUSH2 0x24ED JUMP JUMPDEST SWAP1 POP DUP4 PUSH1 0x2 ADD SLOAD NUMBER GT DUP1 ISZERO PUSH2 0xA97 JUMPI POP PUSH0 DUP2 EQ ISZERO JUMPDEST ISZERO PUSH2 0xB20 JUMPI PUSH0 PUSH2 0xAAB DUP6 PUSH1 0x2 ADD SLOAD NUMBER PUSH2 0x124B JUMP JUMPDEST SWAP1 POP PUSH0 PUSH1 0x4 SLOAD PUSH1 0x5 SLOAD PUSH1 0xD SLOAD DUP9 PUSH1 0x1 ADD SLOAD PUSH1 0x8 SLOAD DUP7 PUSH2 0xACA SWAP2 SWAP1 PUSH2 0x243B JUMP JUMPDEST PUSH2 0xAD4 SWAP2 SWAP1 PUSH2 0x243B JUMP JUMPDEST PUSH2 0xADE SWAP2 SWAP1 PUSH2 0x24A9 JUMP JUMPDEST PUSH2 0xAE8 SWAP2 SWAP1 PUSH2 0x243B JUMP JUMPDEST PUSH2 0xAF2 SWAP2 SWAP1 PUSH2 0x24A9 JUMP JUMPDEST SWAP1 POP DUP3 PUSH5 0xE8D4A51000 DUP3 PUSH2 0xB06 SWAP2 SWAP1 PUSH2 0x243B JUMP JUMPDEST PUSH2 0xB10 SWAP2 SWAP1 PUSH2 0x24A9 JUMP JUMPDEST DUP5 PUSH2 0xB1B SWAP2 SWAP1 PUSH2 0x2319 JUMP JUMPDEST SWAP4 POP POP POP JUMPDEST DUP3 PUSH1 0x1 ADD SLOAD PUSH5 0xE8D4A51000 DUP4 DUP6 PUSH0 ADD SLOAD PUSH2 0xB3A SWAP2 SWAP1 PUSH2 0x243B JUMP JUMPDEST PUSH2 0xB44 SWAP2 SWAP1 PUSH2 0x24A9 JUMP JUMPDEST DUP5 PUSH1 0x2 ADD SLOAD PUSH2 0xB53 SWAP2 SWAP1 PUSH2 0x2319 JUMP JUMPDEST PUSH2 0xB5D SWAP2 SWAP1 PUSH2 0x22E6 JUMP JUMPDEST SWAP6 POP POP POP POP POP POP SWAP3 SWAP2 POP POP JUMP JUMPDEST DUP1 PUSH1 0xB DUP1 SLOAD SWAP1 POP DUP2 LT PUSH2 0xBB2 JUMPI PUSH1 0x40 MLOAD PUSH32 0x8C379A000000000000000000000000000000000000000000000000000000000 DUP2 MSTORE PUSH1 0x4 ADD PUSH2 0xBA9 SWAP1 PUSH2 0x226E JUMP JUMPDEST PUSH1 0x40 MLOAD DUP1 SWAP2 SUB SWAP1 REVERT JUMPDEST PUSH0 PUSH1 0xB DUP4 DUP2 SLOAD DUP2 LT PUSH2 0xBC7 JUMPI PUSH2 0xBC6 PUSH2 0x228C JUMP JUMPDEST JUMPDEST SWAP1 PUSH0 MSTORE PUSH1 0x20 PUSH0 KECCAK256 SWAP1 PUSH1 0x4 MUL ADD SWAP1 POP DUP1 PUSH1 0x2 ADD SLOAD NUMBER GT PUSH2 0xBE6 JUMPI POP PUSH2 0xDBC JUMP JUMPDEST PUSH0 DUP2 PUSH0 ADD PUSH0 SWAP1 SLOAD SWAP1 PUSH2 0x100 EXP SWAP1 DIV PUSH20 0xFFFFFFFFFFFFFFFFFFFFFFFFFFFFFFFFFFFFFFFF AND PUSH20 0xFFFFFFFFFFFFFFFFFFFFFFFFFFFFFFFFFFFFFFFF AND PUSH4 0x70A08231 ADDRESS PUSH1 0x40 MLOAD DUP3 PUSH4 0xFFFFFFFF AND PUSH1 0xE0 SHL DUP2 MSTORE PUSH1 0x4 ADD PUSH2 0xC42 SWAP2 SWAP1 PUSH2 0x2162 JUMP JUMPDEST PUSH1 0x20 PUSH1 0x40 MLOAD DUP1 DUP4 SUB DUP2 DUP7 GAS STATICCALL ISZERO DUP1 ISZERO PUSH2 0xC5D JUMPI RETURNDATASIZE PUSH0 DUP1 RETURNDATACOPY RETURNDATASIZE PUSH0 REVERT JUMPDEST POP POP POP POP PUSH1 0x40 MLOAD RETURNDATASIZE PUSH1 0x1F NOT PUSH1 0x1F DUP3 ADD AND DUP3 ADD DUP1 PUSH1 0x40 MSTORE POP DUP2 ADD SWAP1 PUSH2 0xC81 SWAP2 SWAP1 PUSH2 0x24ED JUMP JUMPDEST SWAP1 POP PUSH0 DUP2 GT PUSH2 0xC9A JUMPI NUMBER DUP3 PUSH1 0x2 ADD DUP2 SWAP1 SSTORE POP POP POP PUSH2 0xDBC JUMP JUMPDEST PUSH0 PUSH2 0xCA9 DUP4 PUSH1 0x2 ADD SLOAD NUMBER PUSH2 0x124B JUMP JUMPDEST SWAP1 POP PUSH0 PUSH1 0x4 SLOAD PUSH1 0x5 SLOAD PUSH1 0xD SLOAD DUP7 PUSH1 0x1 ADD SLOAD PUSH1 0x8 SLOAD DUP7 PUSH2 0xCC8 SWAP2 SWAP1 PUSH2 0x243B JUMP JUMPDEST PUSH2 0xCD2 SWAP2 SWAP1 PUSH2 0x243B JUMP JUMPDEST PUSH2 0xCDC SWAP2 SWAP1 PUSH2 0x24A9 JUMP JUMPDEST PUSH2 0xCE6 SWAP2 SWAP1 PUSH2 0x243B JUMP JUMPDEST PUSH2 0xCF0 SWAP2 SWAP1 PUSH2 0x24A9 JUMP JUMPDEST SWAP1 POP PUSH1 0x2 PUSH0 SWAP1 SLOAD SWAP1 PUSH2 0x100 EXP SWAP1 DIV PUSH20 0xFFFFFFFFFFFFFFFFFFFFFFFFFFFFFFFFFFFFFFFF AND PUSH20 0xFFFFFFFFFFFFFFFFFFFFFFFFFFFFFFFFFFFFFFFF AND PUSH4 0x4E6EC247 ADDRESS DUP4 PUSH1 0x40 MLOAD DUP4 PUSH4 0xFFFFFFFF AND PUSH1 0xE0 SHL DUP2 MSTORE PUSH1 0x4 ADD PUSH2 0xD4E SWAP3 SWAP2 SWAP1 PUSH2 0x23B4 JUMP JUMPDEST PUSH0 PUSH1 0x40 MLOAD DUP1 DUP4 SUB DUP2 PUSH0 DUP8 DUP1 EXTCODESIZE ISZERO DUP1 ISZERO PUSH2 0xD65 JUMPI PUSH0 DUP1 REVERT JUMPDEST POP GAS CALL ISZERO DUP1 ISZERO PUSH2 0xD77 JUMPI RETURNDATASIZE PUSH0 DUP1 RETURNDATACOPY RETURNDATASIZE PUSH0 REVERT JUMPDEST POP POP POP POP DUP3 PUSH5 0xE8D4A51000 DUP3 PUSH2 0xD8D SWAP2 SWAP1 PUSH2 0x243B JUMP JUMPDEST PUSH2 0xD97 SWAP2 SWAP1 PUSH2 0x24A9 JUMP JUMPDEST DUP5 PUSH1 0x3 ADD SLOAD PUSH2 0xDA6 SWAP2 SWAP1 PUSH2 0x2319 JUMP JUMPDEST DUP5 PUSH1 0x3 ADD DUP2 SWAP1 SSTORE POP NUMBER DUP5 PUSH1 0x2 ADD DUP2 SWAP1 SSTORE POP POP POP POP POP JUMPDEST POP POP JUMP JUMPDEST PUSH2 0xDC8 PUSH2 0x1A2C JUMP JUMPDEST DUP1 PUSH1 0xB DUP1 SLOAD SWAP1 POP DUP2 LT PUSH2 0xE10 JUMPI PUSH1 0x40 MLOAD PUSH32 0x8C379A000000000000000000000000000000000000000000000000000000000 DUP2 MSTORE PUSH1 0x4 ADD PUSH2 0xE07 SWAP1 PUSH2 0x226E JUMP JUMPDEST PUSH1 0x40 MLOAD DUP1 SWAP2 SUB SWAP1 REVERT JUMPDEST PUSH0 PUSH1 0xB DUP4 DUP2 SLOAD DUP2 LT PUSH2 0xE25 JUMPI PUSH2 0xE24 PUSH2 0x228C JUMP JUMPDEST JUMPDEST SWAP1 PUSH0 MSTORE PUSH1 0x20 PUSH0 KECCAK256 SWAP1 PUSH1 0x4 MUL ADD SWAP1 POP PUSH0 PUSH1 0xC PUSH0 DUP6 DUP2 MSTORE PUSH1 0x20 ADD SWAP1 DUP2 MSTORE PUSH1 0x20 ADD PUSH0 KECCAK256 PUSH0 CALLER PUSH20 0xFFFFFFFFFFFFFFFFFFFFFFFFFFFFFFFFFFFFFFFF AND PUSH20 0xFFFFFFFFFFFFFFFFFFFFFFFFFFFFFFFFFFFFFFFF AND DUP2 MSTORE PUSH1 0x20 ADD SWAP1 DUP2 MSTORE PUSH1 0x20 ADD PUSH0 KECCAK256 SWAP1 POP DUP2 PUSH0 ADD PUSH0 SWAP1 SLOAD SWAP1 PUSH2 0x100 EXP SWAP1 DIV PUSH20 0xFFFFFFFFFFFFFFFFFFFFFFFFFFFFFFFFFFFFFFFF AND PUSH20 0xFFFFFFFFFFFFFFFFFFFFFFFFFFFFFFFFFFFFFFFF AND PUSH4 0xA9059CBB CALLER DUP4 PUSH0 ADD SLOAD PUSH1 0x40 MLOAD DUP4 PUSH4 0xFFFFFFFF AND PUSH1 0xE0 SHL DUP2 MSTORE PUSH1 0x4 ADD PUSH2 0xEE2 SWAP3 SWAP2 SWAP1 PUSH2 0x23B4 JUMP JUMPDEST PUSH1 0x20 PUSH1 0x40 MLOAD DUP1 DUP4 SUB DUP2 PUSH0 DUP8 GAS CALL ISZERO DUP1 ISZERO PUSH2 0xEFE JUMPI RETURNDATASIZE PUSH0 DUP1 RETURNDATACOPY RETURNDATASIZE PUSH0 REVERT JUMPDEST POP POP POP POP PUSH1 0x40 MLOAD RETURNDATASIZE PUSH1 0x1F NOT PUSH1 0x1F DUP3 ADD AND DUP3 ADD DUP1 PUSH1 0x40 MSTORE POP DUP2 ADD SWAP1 PUSH2 0xF22 SWAP2 SWAP1 PUSH2 0x2410 JUMP JUMPDEST POP DUP4 CALLER PUSH20 0xFFFFFFFFFFFFFFFFFFFFFFFFFFFFFFFFFFFFFFFF AND PUSH32 0xBB757047C2B5F3974FE26B7C10F732E7BCE710B0952A71082702781E62AE0595 DUP4 PUSH0 ADD SLOAD PUSH1 0x40 MLOAD PUSH2 0xF6D SWAP2 SWAP1 PUSH2 0x1F34 JUMP JUMPDEST PUSH1 0x40 MLOAD DUP1 SWAP2 SUB SWAP1 LOG3 PUSH0 DUP2 PUSH0 ADD DUP2 SWAP1 SSTORE POP PUSH0 DUP2 PUSH1 0x1 ADD DUP2 SWAP1 SSTORE POP PUSH0 DUP2 PUSH1 0x2 ADD DUP2 SWAP1 SSTORE POP POP POP POP PUSH2 0xF9A PUSH2 0x1B8A JUMP JUMPDEST POP JUMP JUMPDEST PUSH0 PUSH1 0xB DUP1 SLOAD SWAP1 POP SWAP1 POP PUSH0 JUMPDEST DUP2 DUP2 LT ISZERO PUSH2 0xFCA JUMPI PUSH2 0xFB9 DUP2 PUSH2 0xB6A JUMP JUMPDEST DUP1 PUSH2 0xFC3 SWAP1 PUSH2 0x2518 JUMP JUMPDEST SWAP1 POP PUSH2 0xFA8 JUMP JUMPDEST POP POP JUMP JUMPDEST PUSH2 0xFD6 PUSH2 0x19A5 JUMP JUMPDEST PUSH2 0xFDF PUSH0 PUSH2 0x1B93 JUMP JUMPDEST JUMP JUMPDEST PUSH1 0x3 PUSH0 SWAP1 SLOAD SWAP1 PUSH2 0x100 EXP SWAP1 DIV PUSH20 0xFFFFFFFFFFFFFFFFFFFFFFFFFFFFFFFFFFFFFFFF AND DUP2 JUMP JUMPDEST PUSH2 0x100E PUSH2 0x19A5 JUMP JUMPDEST PUSH9 0x56BC75E2D63100000 DUP2 GT ISZERO PUSH2 0x105A JUMPI PUSH1 0x40 MLOAD PUSH32 0x8C379A000000000000000000000000000000000000000000000000000000000 DUP2 MSTORE PUSH1 0x4 ADD PUSH2 0x1051 SWAP1 PUSH2 0x25A9 JUMP JUMPDEST PUSH1 0x40 MLOAD DUP1 SWAP2 SUB SWAP1 REVERT JUMPDEST PUSH7 0x38D7EA4C68000 DUP2 LT ISZERO PUSH2 0x10A4 JUMPI PUSH1 0x40 MLOAD PUSH32 0x8C379A000000000000000000000000000000000000000000000000000000000 DUP2 MSTORE PUSH1 0x4 ADD PUSH2 0x109B SWAP1 PUSH2 0x2611 JUMP JUMPDEST PUSH1 0x40 MLOAD DUP1 SWAP2 SUB SWAP1 REVERT JUMPDEST DUP1 PUSH1 0x8 DUP2 SWAP1 SSTORE POP PUSH32 0x1E19929B3CB970F6D66D05A2698000DB2AC7EAFE495AEE2C6C32BD7960A97EAD PUSH1 0x8 SLOAD PUSH1 0x40 MLOAD PUSH2 0x10DC SWAP2 SWAP1 PUSH2 0x1F34 JUMP JUMPDEST PUSH1 0x40 MLOAD DUP1 SWAP2 SUB SWAP1 LOG1 POP JUMP JUMPDEST PUSH2 0x10EF PUSH2 0x1A2C JUMP JUMPDEST DUP1 PUSH1 0xB DUP1 SLOAD SWAP1 POP DUP2 LT PUSH2 0x1137 JUMPI PUSH1 0x40 MLOAD PUSH32 0x8C379A000000000000000000000000000000000000000000000000000000000 DUP2 MSTORE PUSH1 0x4 ADD PUSH2 0x112E SWAP1 PUSH2 0x226E JUMP JUMPDEST PUSH1 0x40 MLOAD DUP1 SWAP2 SUB SWAP1 REVERT JUMPDEST PUSH2 0x1140 DUP3 PUSH2 0xB6A JUMP JUMPDEST PUSH2 0x114A DUP3 CALLER PUSH2 0x1A72 JUMP JUMPDEST PUSH0 PUSH1 0xC PUSH0 DUP5 DUP2 MSTORE PUSH1 0x20 ADD SWAP1 DUP2 MSTORE PUSH1 0x20 ADD PUSH0 KECCAK256 PUSH0 CALLER PUSH20 0xFFFFFFFFFFFFFFFFFFFFFFFFFFFFFFFFFFFFFFFF AND PUSH20 0xFFFFFFFFFFFFFFFFFFFFFFFFFFFFFFFFFFFFFFFF AND DUP2 MSTORE PUSH1 0x20 ADD SWAP1 DUP2 MSTORE PUSH1 0x20 ADD PUSH0 KECCAK256 SWAP1 POP PUSH0 DUP2 PUSH1 0x2 ADD SLOAD GT ISZERO PUSH2 0x1211 JUMPI PUSH0 DUP2 PUSH1 0x2 ADD SLOAD SWAP1 POP PUSH0 DUP3 PUSH1 0x2 ADD DUP2 SWAP1 SSTORE POP PUSH2 0x11C0 CALLER DUP3 PUSH2 0x1C54 JUMP JUMPDEST DUP4 CALLER PUSH20 0xFFFFFFFFFFFFFFFFFFFFFFFFFFFFFFFFFFFFFFFF AND PUSH32 0x9DA87E8CCE29A4140E89780F6E64E0B1CD58E4FA1CB5EE53EFFE97264F290C6C DUP4 PUSH1 0x40 MLOAD PUSH2 0x1207 SWAP2 SWAP1 PUSH2 0x1F34 JUMP JUMPDEST PUSH1 0x40 MLOAD DUP1 SWAP2 SUB SWAP1 LOG3 POP JUMPDEST POP POP PUSH2 0x121B PUSH2 0x1B8A JUMP JUMPDEST POP JUMP JUMPDEST PUSH1 0x9 SLOAD DUP2 JUMP JUMPDEST PUSH0 DUP1 PUSH0 SWAP1 SLOAD SWAP1 PUSH2 0x100 EXP SWAP1 DIV PUSH20 0xFFFFFFFFFFFFFFFFFFFFFFFFFFFFFFFFFFFFFFFF AND SWAP1 POP SWAP1 JUMP JUMPDEST PUSH0 PUSH1 0x9 SLOAD DUP4 PUSH2 0x125A SWAP2 SWAP1 PUSH2 0x243B JUMP JUMPDEST DUP3 PUSH2 0x1265 SWAP2 SWAP1 PUSH2 0x22E6 JUMP JUMPDEST SWAP1 POP SWAP3 SWAP2 POP POP JUMP JUMPDEST PUSH1 0xC PUSH1 0x20 MSTORE DUP2 PUSH0 MSTORE PUSH1 0x40 PUSH0 KECCAK256 PUSH1 0x20 MSTORE DUP1 PUSH0 MSTORE PUSH1 0x40 PUSH0 KECCAK256 PUSH0 SWAP2 POP SWAP2 POP POP DUP1 PUSH0 ADD SLOAD SWAP1 DUP1 PUSH1 0x1 ADD SLOAD SWAP1 DUP1 PUSH1 0x2 ADD SLOAD SWAP1 POP DUP4 JUMP JUMPDEST PUSH2 0x12A6 PUSH2 0x19A5 JUMP JUMPDEST PUSH2 0x12AF DUP2 PUSH2 0x1E3D JUMP JUMPDEST PUSH2 0x12B7 PUSH2 0xF9D JUMP JUMPDEST PUSH0 PUSH1 0xE SLOAD NUMBER LT PUSH2 0x12C7 JUMPI NUMBER PUSH2 0x12CB JUMP JUMPDEST PUSH1 0xE SLOAD JUMPDEST SWAP1 POP DUP3 PUSH1 0xD SLOAD PUSH2 0x12DB SWAP2 SWAP1 PUSH2 0x2319 JUMP JUMPDEST PUSH1 0xD DUP2 SWAP1 SSTORE POP PUSH1 0xB PUSH1 0x40 MLOAD DUP1 PUSH1 0x80 ADD PUSH1 0x40 MSTORE DUP1 DUP5 PUSH20 0xFFFFFFFFFFFFFFFFFFFFFFFFFFFFFFFFFFFFFFFF AND DUP2 MSTORE PUSH1 0x20 ADD DUP6 DUP2 MSTORE PUSH1 0x20 ADD DUP4 DUP2 MSTORE PUSH1 0x20 ADD PUSH0 DUP2 MSTORE POP SWAP1 DUP1 PUSH1 0x1 DUP2 SLOAD ADD DUP1 DUP3 SSTORE DUP1 SWAP2 POP POP PUSH1 0x1 SWAP1 SUB SWAP1 PUSH0 MSTORE PUSH1 0x20 PUSH0 KECCAK256 SWAP1 PUSH1 0x4 MUL ADD PUSH0 SWAP1 SWAP2 SWAP1 SWAP2 SWAP1 SWAP2 POP PUSH0 DUP3 ADD MLOAD DUP2 PUSH0 ADD PUSH0 PUSH2 0x100 EXP DUP2 SLOAD DUP2 PUSH20 0xFFFFFFFFFFFFFFFFFFFFFFFFFFFFFFFFFFFFFFFF MUL NOT AND SWAP1 DUP4 PUSH20 0xFFFFFFFFFFFFFFFFFFFFFFFFFFFFFFFFFFFFFFFF AND MUL OR SWAP1 SSTORE POP PUSH1 0x20 DUP3 ADD MLOAD DUP2 PUSH1 0x1 ADD SSTORE PUSH1 0x40 DUP3 ADD MLOAD DUP2 PUSH1 0x2 ADD SSTORE PUSH1 0x60 DUP3 ADD MLOAD DUP2 PUSH1 0x3 ADD SSTORE POP POP POP POP POP JUMP JUMPDEST PUSH2 0x13B1 PUSH2 0x19A5 JUMP JUMPDEST PUSH0 DUP2 SWAP1 POP PUSH1 0x4 SLOAD DUP2 DUP5 PUSH2 0x13C4 SWAP2 SWAP1 PUSH2 0x2319 JUMP JUMPDEST GT ISZERO PUSH2 0x1405 JUMPI PUSH1 0x40 MLOAD PUSH32 0x8C379A000000000000000000000000000000000000000000000000000000000 DUP2 MSTORE PUSH1 0x4 ADD PUSH2 0x13FC SWAP1 PUSH2 0x2679 JUMP JUMPDEST PUSH1 0x40 MLOAD DUP1 SWAP2 SUB SWAP1 REVERT JUMPDEST DUP3 PUSH1 0x5 DUP2 SWAP1 SSTORE POP DUP2 PUSH1 0x6 DUP2 SWAP1 SSTORE POP PUSH32 0xCBD554161F22A88862569B669F84507ADC410008353E0A023297D3EA419126F7 PUSH1 0x5 SLOAD PUSH1 0x6 SLOAD PUSH1 0x40 MLOAD PUSH2 0x1448 SWAP3 SWAP2 SWAP1 PUSH2 0x2697 JUMP JUMPDEST PUSH1 0x40 MLOAD DUP1 SWAP2 SUB SWAP1 LOG1 POP POP POP JUMP JUMPDEST PUSH1 0xA SLOAD DUP2 JUMP JUMPDEST PUSH1 0x6 SLOAD DUP2 JUMP JUMPDEST PUSH1 0x5 SLOAD DUP2 JUMP JUMPDEST PUSH1 0x8 SLOAD DUP2 JUMP JUMPDEST NUMBER PUSH1 0xA SLOAD LT PUSH2 0x14B1 JUMPI PUSH1 0x40 MLOAD PUSH32 0x8C379A000000000000000000000000000000000000000000000000000000000 DUP2 MSTORE PUSH1 0x4 ADD PUSH2 0x14A8 SWAP1 PUSH2 0x2708 JUMP JUMPDEST PUSH1 0x40 MLOAD DUP1 SWAP2 SUB SWAP1 REVERT JUMPDEST PUSH0 PUSH1 0x8 SLOAD PUSH1 0xA SLOAD NUMBER PUSH2 0x14C3 SWAP2 SWAP1 PUSH2 0x22E6 JUMP JUMPDEST PUSH2 0x14CD SWAP2 SWAP1 PUSH2 0x243B JUMP JUMPDEST SWAP1 POP PUSH1 0x2 PUSH0 SWAP1 SLOAD SWAP1 PUSH2 0x100 EXP SWAP1 DIV PUSH20 0xFFFFFFFFFFFFFFFFFFFFFFFFFFFFFFFFFFFFFFFF AND PUSH20 0xFFFFFFFFFFFFFFFFFFFFFFFFFFFFFFFFFFFFFFFF AND PUSH4 0x4E6EC247 PUSH1 0x7 PUSH0 SWAP1 SLOAD SWAP1 PUSH2 0x100 EXP SWAP1 DIV PUSH20 0xFFFFFFFFFFFFFFFFFFFFFFFFFFFFFFFFFFFFFFFF AND PUSH1 0x4 SLOAD PUSH1 0x6 SLOAD DUP6 PUSH2 0x153F SWAP2 SWAP1 PUSH2 0x243B JUMP JUMPDEST PUSH2 0x1549 SWAP2 SWAP1 PUSH2 0x24A9 JUMP JUMPDEST PUSH1 0x40 MLOAD DUP4 PUSH4 0xFFFFFFFF AND PUSH1 0xE0 SHL DUP2 MSTORE PUSH1 0x4 ADD PUSH2 0x1566 SWAP3 SWAP2 SWAP1 PUSH2 0x23B4 JUMP JUMPDEST PUSH0 PUSH1 0x40 MLOAD DUP1 DUP4 SUB DUP2 PUSH0 DUP8 DUP1 EXTCODESIZE ISZERO DUP1 ISZERO PUSH2 0x157D JUMPI PUSH0 DUP1 REVERT JUMPDEST POP GAS CALL ISZERO DUP1 ISZERO PUSH2 0x158F JUMPI RETURNDATASIZE PUSH0 DUP1 RETURNDATACOPY RETURNDATASIZE PUSH0 REVERT JUMPDEST POP POP POP POP NUMBER PUSH1 0xA DUP2 SWAP1 SSTORE POP POP JUMP JUMPDEST PUSH2 0x15A5 PUSH2 0x19A5 JUMP JUMPDEST PUSH0 PUSH20 0xFFFFFFFFFFFFFFFFFFFFFFFFFFFFFFFFFFFFFFFF AND DUP2 PUSH20 0xFFFFFFFFFFFFFFFFFFFFFFFFFFFFFFFFFFFFFFFF AND SUB PUSH2 0x1613 JUMPI PUSH1 0x40 MLOAD PUSH32 0x8C379A000000000000000000000000000000000000000000000000000000000 DUP2 MSTORE PUSH1 0x4 ADD PUSH2 0x160A SWAP1 PUSH2 0x2770 JUMP JUMPDEST PUSH1 0x40 MLOAD DUP1 SWAP2 SUB SWAP1 REVERT JUMPDEST DUP1 PUSH1 0x7 PUSH0 PUSH2 0x100 EXP DUP2 SLOAD DUP2 PUSH20 0xFFFFFFFFFFFFFFFFFFFFFFFFFFFFFFFFFFFFFFFF MUL NOT AND SWAP1 DUP4 PUSH20 0xFFFFFFFFFFFFFFFFFFFFFFFFFFFFFFFFFFFFFFFF AND MUL OR SWAP1 SSTORE POP PUSH1 0x7 PUSH0 SWAP1 SLOAD SWAP1 PUSH2 0x100 EXP SWAP1 DIV PUSH20 0xFFFFFFFFFFFFFFFFFFFFFFFFFFFFFFFFFFFFFFFF AND PUSH20 0xFFFFFFFFFFFFFFFFFFFFFFFFFFFFFFFFFFFFFFFF AND PUSH32 0xB1C7911CA1455735FFD17FEC398B65F34157A7B58831B586878F5D3C2CF44EE2 PUSH1 0x40 MLOAD PUSH1 0x40 MLOAD DUP1 SWAP2 SUB SWAP1 LOG2 POP JUMP JUMPDEST PUSH2 0x16C2 PUSH2 0x1A2C JUMP JUMPDEST DUP2 PUSH1 0xB DUP1 SLOAD SWAP1 POP DUP2 LT PUSH2 0x170A JUMPI PUSH1 0x40 MLOAD PUSH32 0x8C379A000000000000000000000000000000000000000000000000000000000 DUP2 MSTORE PUSH1 0x4 ADD PUSH2 0x1701 SWAP1 PUSH2 0x226E JUMP JUMPDEST PUSH1 0x40 MLOAD DUP1 SWAP2 SUB SWAP1 REVERT JUMPDEST PUSH0 PUSH1 0xB DUP5 DUP2 SLOAD DUP2 LT PUSH2 0x171F JUMPI PUSH2 0x171E PUSH2 0x228C JUMP JUMPDEST JUMPDEST SWAP1 PUSH0 MSTORE PUSH1 0x20 PUSH0 KECCAK256 SWAP1 PUSH1 0x4 MUL ADD SWAP1 POP PUSH0 PUSH1 0xC PUSH0 DUP7 DUP2 MSTORE PUSH1 0x20 ADD SWAP1 DUP2 MSTORE PUSH1 0x20 ADD PUSH0 KECCAK256 PUSH0 CALLER PUSH20 0xFFFFFFFFFFFFFFFFFFFFFFFFFFFFFFFFFFFFFFFF AND PUSH20 0xFFFFFFFFFFFFFFFFFFFFFFFFFFFFFFFFFFFFFFFF AND DUP2 MSTORE PUSH1 0x20 ADD SWAP1 DUP2 MSTORE PUSH1 0x20 ADD PUSH0 KECCAK256 SWAP1 POP PUSH2 0x1785 DUP6 PUSH2 0xB6A JUMP JUMPDEST PUSH2 0x178F DUP6 CALLER PUSH2 0x1A72 JUMP JUMPDEST PUSH0 DUP5 GT ISZERO PUSH2 0x184E JUMPI DUP2 PUSH0 ADD PUSH0 SWAP1 SLOAD SWAP1 PUSH2 0x100 EXP SWAP1 DIV PUSH20 0xFFFFFFFFFFFFFFFFFFFFFFFFFFFFFFFFFFFFFFFF AND PUSH20 0xFFFFFFFFFFFFFFFFFFFFFFFFFFFFFFFFFFFFFFFF AND PUSH4 0x23B872DD CALLER ADDRESS DUP8 PUSH1 0x40 MLOAD DUP5 PUSH4 0xFFFFFFFF AND PUSH1 0xE0 SHL DUP2 MSTORE PUSH1 0x4 ADD PUSH2 0x17F6 SWAP4 SWAP3 SWAP2 SWAP1 PUSH2 0x278E JUMP JUMPDEST PUSH1 0x20 PUSH1 0x40 MLOAD DUP1 DUP4 SUB DUP2 PUSH0 DUP8 GAS CALL ISZERO DUP1 ISZERO PUSH2 0x1812 JUMPI RETURNDATASIZE PUSH0 DUP1 RETURNDATACOPY RETURNDATASIZE PUSH0 REVERT JUMPDEST POP POP POP POP PUSH1 0x40 MLOAD RETURNDATASIZE PUSH1 0x1F NOT PUSH1 0x1F DUP3 ADD AND DUP3 ADD DUP1 PUSH1 0x40 MSTORE POP DUP2 ADD SWAP1 PUSH2 0x1836 SWAP2 SWAP1 PUSH2 0x2410 JUMP JUMPDEST POP DUP4 DUP2 PUSH0 ADD SLOAD PUSH2 0x1846 SWAP2 SWAP1 PUSH2 0x2319 JUMP JUMPDEST DUP2 PUSH0 ADD DUP2 SWAP1 SSTORE POP JUMPDEST PUSH5 0xE8D4A51000 DUP3 PUSH1 0x3 ADD SLOAD DUP3 PUSH0 ADD SLOAD PUSH2 0x1867 SWAP2 SWAP1 PUSH2 0x243B JUMP JUMPDEST PUSH2 0x1871 SWAP2 SWAP1 PUSH2 0x24A9 JUMP JUMPDEST DUP2 PUSH1 0x1 ADD DUP2 SWAP1 SSTORE POP DUP5 CALLER PUSH20 0xFFFFFFFFFFFFFFFFFFFFFFFFFFFFFFFFFFFFFFFF AND PUSH32 0x90890809C654F11D6E72A28FA60149770A0D11EC6C92319D6CEB2BB0A4EA1A15 DUP7 PUSH1 0x40 MLOAD PUSH2 0x18C0 SWAP2 SWAP1 PUSH2 0x1F34 JUMP JUMPDEST PUSH1 0x40 MLOAD DUP1 SWAP2 SUB SWAP1 LOG3 POP POP POP PUSH2 0x18D3 PUSH2 0x1B8A JUMP JUMPDEST POP POP JUMP JUMPDEST PUSH1 0x7 PUSH0 SWAP1 SLOAD SWAP1 PUSH2 0x100 EXP SWAP1 DIV PUSH20 0xFFFFFFFFFFFFFFFFFFFFFFFFFFFFFFFFFFFFFFFF AND DUP2 JUMP JUMPDEST PUSH1 0x2 PUSH0 SWAP1 SLOAD SWAP1 PUSH2 0x100 EXP SWAP1 DIV PUSH20 0xFFFFFFFFFFFFFFFFFFFFFFFFFFFFFFFFFFFFFFFF AND DUP2 JUMP JUMPDEST PUSH2 0x1929 PUSH2 0x19A5 JUMP JUMPDEST PUSH0 PUSH20 0xFFFFFFFFFFFFFFFFFFFFFFFFFFFFFFFFFFFFFFFF AND DUP2 PUSH20 0xFFFFFFFFFFFFFFFFFFFFFFFFFFFFFFFFFFFFFFFF AND SUB PUSH2 0x1999 JUMPI PUSH0 PUSH1 0x40 MLOAD PUSH32 0x1E4FBDF700000000000000000000000000000000000000000000000000000000 DUP2 MSTORE PUSH1 0x4 ADD PUSH2 0x1990 SWAP2 SWAP1 PUSH2 0x2162 JUMP JUMPDEST PUSH1 0x40 MLOAD DUP1 SWAP2 SUB SWAP1 REVERT JUMPDEST PUSH2 0x19A2 DUP2 PUSH2 0x1B93 JUMP JUMPDEST POP JUMP JUMPDEST PUSH2 0x19AD PUSH2 0x1F15 JUMP JUMPDEST PUSH20 0xFFFFFFFFFFFFFFFFFFFFFFFFFFFFFFFFFFFFFFFF AND PUSH2 0x19CB PUSH2 0x1224 JUMP JUMPDEST PUSH20 0xFFFFFFFFFFFFFFFFFFFFFFFFFFFFFFFFFFFFFFFF AND EQ PUSH2 0x1A2A JUMPI PUSH2 0x19EE PUSH2 0x1F15 JUMP JUMPDEST PUSH1 0x40 MLOAD PUSH32 0x118CDAA700000000000000000000000000000000000000000000000000000000 DUP2 MSTORE PUSH1 0x4 ADD PUSH2 0x1A21 SWAP2 SWAP1 PUSH2 0x2162 JUMP JUMPDEST PUSH1 0x40 MLOAD DUP1 SWAP2 SUB SWAP1 REVERT JUMPDEST JUMP JUMPDEST PUSH1 0x2 PUSH1 0x1 SLOAD SUB PUSH2 0x1A68 JUMPI PUSH1 0x40 MLOAD PUSH32 0x3EE5AEB500000000000000000000000000000000000000000000000000000000 DUP2 MSTORE PUSH1 0x4 ADD PUSH1 0x40 MLOAD DUP1 SWAP2 SUB SWAP1 REVERT JUMPDEST PUSH1 0x2 PUSH1 0x1 DUP2 SWAP1 SSTORE POP JUMP JUMPDEST DUP2 PUSH1 0xB DUP1 SLOAD SWAP1 POP DUP2 LT PUSH2 0x1ABA JUMPI PUSH1 0x40 MLOAD PUSH32 0x8C379A000000000000000000000000000000000000000000000000000000000 DUP2 MSTORE PUSH1 0x4 ADD PUSH2 0x1AB1 SWAP1 PUSH2 0x226E JUMP JUMPDEST PUSH1 0x40 MLOAD DUP1 SWAP2 SUB SWAP1 REVERT JUMPDEST PUSH0 PUSH1 0xB DUP5 DUP2 SLOAD DUP2 LT PUSH2 0x1ACF JUMPI PUSH2 0x1ACE PUSH2 0x228C JUMP JUMPDEST JUMPDEST SWAP1 PUSH0 MSTORE PUSH1 0x20 PUSH0 KECCAK256 SWAP1 PUSH1 0x4 MUL ADD SWAP1 POP PUSH0 PUSH1 0xC PUSH0 DUP7 DUP2 MSTORE PUSH1 0x20 ADD SWAP1 DUP2 MSTORE PUSH1 0x20 ADD PUSH0 KECCAK256 PUSH0 DUP6 PUSH20 0xFFFFFFFFFFFFFFFFFFFFFFFFFFFFFFFFFFFFFFFF AND PUSH20 0xFFFFFFFFFFFFFFFFFFFFFFFFFFFFFFFFFFFFFFFF AND DUP2 MSTORE PUSH1 0x20 ADD SWAP1 DUP2 MSTORE PUSH1 0x20 ADD PUSH0 KECCAK256 SWAP1 POP PUSH0 DUP2 PUSH1 0x1 ADD SLOAD PUSH5 0xE8D4A51000 DUP5 PUSH1 0x3 ADD SLOAD DUP5 PUSH0 ADD SLOAD PUSH2 0x1B4B SWAP2 SWAP1 PUSH2 0x243B JUMP JUMPDEST PUSH2 0x1B55 SWAP2 SWAP1 PUSH2 0x24A9 JUMP JUMPDEST PUSH2 0x1B5F SWAP2 SWAP1 PUSH2 0x22E6 JUMP JUMPDEST SWAP1 POP PUSH0 DUP2 GT ISZERO PUSH2 0x1B82 JUMPI DUP1 DUP3 PUSH1 0x2 ADD SLOAD PUSH2 0x1B79 SWAP2 SWAP1 PUSH2 0x2319 JUMP JUMPDEST DUP3 PUSH1 0x2 ADD DUP2 SWAP1 SSTORE POP JUMPDEST POP POP POP POP POP POP JUMP JUMPDEST PUSH1 0x1 DUP1 DUP2 SWAP1 SSTORE POP JUMP JUMPDEST PUSH0 DUP1 PUSH0 SWAP1 SLOAD SWAP1 PUSH2 0x100 EXP SWAP1 DIV PUSH20 0xFFFFFFFFFFFFFFFFFFFFFFFFFFFFFFFFFFFFFFFF AND SWAP1 POP DUP2 PUSH0 DUP1 PUSH2 0x100 EXP DUP2 SLOAD DUP2 PUSH20 0xFFFFFFFFFFFFFFFFFFFFFFFFFFFFFFFFFFFFFFFF MUL NOT AND SWAP1 DUP4 PUSH20 0xFFFFFFFFFFFFFFFFFFFFFFFFFFFFFFFFFFFFFFFF AND MUL OR SWAP1 SSTORE POP DUP2 PUSH20 0xFFFFFFFFFFFFFFFFFFFFFFFFFFFFFFFFFFFFFFFF AND DUP2 PUSH20 0xFFFFFFFFFFFFFFFFFFFFFFFFFFFFFFFFFFFFFFFF AND PUSH32 0x8BE0079C531659141344CD1FD0A4F28419497F9722A3DAAFE3B4186F6B6457E0 PUSH1 0x40 MLOAD PUSH1 0x40 MLOAD DUP1 SWAP2 SUB SWAP1 LOG3 POP POP JUMP JUMPDEST PUSH0 PUSH1 0x2 PUSH0 SWAP1 SLOAD SWAP1 PUSH2 0x100 EXP SWAP1 DIV PUSH20 0xFFFFFFFFFFFFFFFFFFFFFFFFFFFFFFFFFFFFFFFF AND PUSH20 0xFFFFFFFFFFFFFFFFFFFFFFFFFFFFFFFFFFFFFFFF AND PUSH4 0x27E235E3 ADDRESS PUSH1 0x40 MLOAD DUP3 PUSH4 0xFFFFFFFF AND PUSH1 0xE0 SHL DUP2 MSTORE PUSH1 0x4 ADD PUSH2 0x1CAF SWAP2 SWAP1 PUSH2 0x2162 JUMP JUMPDEST PUSH1 0x20 PUSH1 0x40 MLOAD DUP1 DUP4 SUB DUP2 DUP7 GAS STATICCALL ISZERO DUP1 ISZERO PUSH2 0x1CCA JUMPI RETURNDATASIZE PUSH0 DUP1 RETURNDATACOPY RETURNDATASIZE PUSH0 REVERT JUMPDEST POP POP POP POP PUSH1 0x40 MLOAD RETURNDATASIZE PUSH1 0x1F NOT PUSH1 0x1F DUP3 ADD AND DUP3 ADD DUP1 PUSH1 0x40 MSTORE POP DUP2 ADD SWAP1 PUSH2 0x1CEE SWAP2 SWAP1 PUSH2 0x24ED JUMP JUMPDEST SWAP1 POP DUP1 DUP3 GT ISZERO PUSH2 0x1D9A JUMPI PUSH1 0x2 PUSH0 SWAP1 SLOAD SWAP1 PUSH2 0x100 EXP SWAP1 DIV PUSH20 0xFFFFFFFFFFFFFFFFFFFFFFFFFFFFFFFFFFFFFFFF AND PUSH20 0xFFFFFFFFFFFFFFFFFFFFFFFFFFFFFFFFFFFFFFFF AND PUSH4 0xA9059CBB DUP5 DUP4 PUSH1 0x40 MLOAD DUP4 PUSH4 0xFFFFFFFF AND PUSH1 0xE0 SHL DUP2 MSTORE PUSH1 0x4 ADD PUSH2 0x1D54 SWAP3 SWAP2 SWAP1 PUSH2 0x23B4 JUMP JUMPDEST PUSH1 0x20 PUSH1 0x40 MLOAD DUP1 DUP4 SUB DUP2 PUSH0 DUP8 GAS CALL ISZERO DUP1 ISZERO PUSH2 0x1D70 JUMPI RETURNDATASIZE PUSH0 DUP1 RETURNDATACOPY RETURNDATASIZE PUSH0 REVERT JUMPDEST POP POP POP POP PUSH1 0x40 MLOAD RETURNDATASIZE PUSH1 0x1F NOT PUSH1 0x1F DUP3 ADD AND DUP3 ADD DUP1 PUSH1 0x40 MSTORE POP DUP2 ADD SWAP1 PUSH2 0x1D94 SWAP2 SWAP1 PUSH2 0x2410 JUMP JUMPDEST POP PUSH2 0x1E38 JUMP JUMPDEST PUSH1 0x2 PUSH0 SWAP1 SLOAD SWAP1 PUSH2 0x100 EXP SWAP1 DIV PUSH20 0xFFFFFFFFFFFFFFFFFFFFFFFFFFFFFFFFFFFFFFFF AND PUSH20 0xFFFFFFFFFFFFFFFFFFFFFFFFFFFFFFFFFFFFFFFF AND PUSH4 0xA9059CBB DUP5 DUP5 PUSH1 0x40 MLOAD DUP4 PUSH4 0xFFFFFFFF AND PUSH1 0xE0 SHL DUP2 MSTORE PUSH1 0x4 ADD PUSH2 0x1DF6 SWAP3 SWAP2 SWAP1 PUSH2 0x23B4 JUMP JUMPDEST PUSH1 0x20 PUSH1 0x40 MLOAD DUP1 DUP4 SUB DUP2 PUSH0 DUP8 GAS CALL ISZERO DUP1 ISZERO PUSH2 0x1E12 JUMPI RETURNDATASIZE PUSH0 DUP1 RETURNDATACOPY RETURNDATASIZE PUSH0 REVERT JUMPDEST POP POP POP POP PUSH1 0x40 MLOAD RETURNDATASIZE PUSH1 0x1F NOT PUSH1 0x1F DUP3 ADD AND DUP3 ADD DUP1 PUSH1 0x40 MSTORE POP DUP2 ADD SWAP1 PUSH2 0x1E36 SWAP2 SWAP1 PUSH2 0x2410 JUMP JUMPDEST POP JUMPDEST POP POP POP JUMP JUMPDEST PUSH0 PUSH1 0xB DUP1 SLOAD SWAP1 POP SWAP1 POP PUSH0 JUMPDEST DUP2 DUP2 LT ISZERO PUSH2 0x1F10 JUMPI DUP3 PUSH20 0xFFFFFFFFFFFFFFFFFFFFFFFFFFFFFFFFFFFFFFFF AND PUSH1 0xB DUP3 DUP2 SLOAD DUP2 LT PUSH2 0x1E7B JUMPI PUSH2 0x1E7A PUSH2 0x228C JUMP JUMPDEST JUMPDEST SWAP1 PUSH0 MSTORE PUSH1 0x20 PUSH0 KECCAK256 SWAP1 PUSH1 0x4 MUL ADD PUSH0 ADD PUSH0 SWAP1 SLOAD SWAP1 PUSH2 0x100 EXP SWAP1 DIV PUSH20 0xFFFFFFFFFFFFFFFFFFFFFFFFFFFFFFFFFFFFFFFF AND PUSH20 0xFFFFFFFFFFFFFFFFFFFFFFFFFFFFFFFFFFFFFFFF AND SUB PUSH2 0x1EFF JUMPI PUSH1 0x40 MLOAD PUSH32 0x8C379A000000000000000000000000000000000000000000000000000000000 DUP2 MSTORE PUSH1 0x4 ADD PUSH2 0x1EF6 SWAP1 PUSH2 0x280D JUMP JUMPDEST PUSH1 0x40 MLOAD DUP1 SWAP2 SUB SWAP1 REVERT JUMPDEST DUP1 PUSH2 0x1F09 SWAP1 PUSH2 0x2518 JUMP JUMPDEST SWAP1 POP PUSH2 0x1E48 JUMP JUMPDEST POP POP POP JUMP JUMPDEST PUSH0 CALLER SWAP1 POP SWAP1 JUMP JUMPDEST PUSH0 DUP2 SWAP1 POP SWAP2 SWAP1 POP JUMP JUMPDEST PUSH2 0x1F2E DUP2 PUSH2 0x1F1C JUMP JUMPDEST DUP3 MSTORE POP POP JUMP JUMPDEST PUSH0 PUSH1 0x20 DUP3 ADD SWAP1 POP PUSH2 0x1F47 PUSH0 DUP4 ADD DUP5 PUSH2 0x1F25 JUMP JUMPDEST SWAP3 SWAP2 POP POP JUMP JUMPDEST PUSH0 DUP1 REVERT JUMPDEST PUSH2 0x1F5A DUP2 PUSH2 0x1F1C JUMP JUMPDEST DUP2 EQ PUSH2 0x1F64 JUMPI PUSH0 DUP1 REVERT JUMPDEST POP JUMP JUMPDEST PUSH0 DUP2 CALLDATALOAD SWAP1 POP PUSH2 0x1F75 DUP2 PUSH2 0x1F51 JUMP JUMPDEST SWAP3 SWAP2 POP POP JUMP JUMPDEST PUSH0 PUSH1 0x20 DUP3 DUP5 SUB SLT ISZERO PUSH2 0x1F90 JUMPI PUSH2 0x1F8F PUSH2 0x1F4D JUMP JUMPDEST JUMPDEST PUSH0 PUSH2 0x1F9D DUP5 DUP3 DUP6 ADD PUSH2 0x1F67 JUMP JUMPDEST SWAP2 POP POP SWAP3 SWAP2 POP POP JUMP JUMPDEST PUSH0 PUSH20 0xFFFFFFFFFFFFFFFFFFFFFFFFFFFFFFFFFFFFFFFF DUP3 AND SWAP1 POP SWAP2 SWAP1 POP JUMP JUMPDEST PUSH0 DUP2 SWAP1 POP SWAP2 SWAP1 POP JUMP JUMPDEST PUSH0 PUSH2 0x1FE8 PUSH2 0x1FE3 PUSH2 0x1FDE DUP5 PUSH2 0x1FA6 JUMP JUMPDEST PUSH2 0x1FC5 JUMP JUMPDEST PUSH2 0x1FA6 JUMP JUMPDEST SWAP1 POP SWAP2 SWAP1 POP JUMP JUMPDEST PUSH0 PUSH2 0x1FF9 DUP3 PUSH2 0x1FCE JUMP JUMPDEST SWAP1 POP SWAP2 SWAP1 POP JUMP JUMPDEST PUSH0 PUSH2 0x200A DUP3 PUSH2 0x1FEF JUMP JUMPDEST SWAP1 POP SWAP2 SWAP1 POP JUMP JUMPDEST PUSH2 0x201A DUP2 PUSH2 0x2000 JUMP JUMPDEST DUP3 MSTORE POP POP JUMP JUMPDEST PUSH0 PUSH1 0x80 DUP3 ADD SWAP1 POP PUSH2 0x2033 PUSH0 DUP4 ADD DUP8 PUSH2 0x2011 JUMP JUMPDEST PUSH2 0x2040 PUSH1 0x20 DUP4 ADD DUP7 PUSH2 0x1F25 JUMP JUMPDEST PUSH2 0x204D PUSH1 0x40 DUP4 ADD DUP6 PUSH2 0x1F25 JUMP JUMPDEST PUSH2 0x205A PUSH1 0x60 DUP4 ADD DUP5 PUSH2 0x1F25 JUMP JUMPDEST SWAP6 SWAP5 POP POP POP POP POP JUMP JUMPDEST PUSH0 DUP1 PUSH1 0x40 DUP4 DUP6 SUB SLT ISZERO PUSH2 0x2079 JUMPI PUSH2 0x2078 PUSH2 0x1F4D JUMP JUMPDEST JUMPDEST PUSH0 PUSH2 0x2086 DUP6 DUP3 DUP7 ADD PUSH2 0x1F67 JUMP JUMPDEST SWAP3 POP POP PUSH1 0x20 PUSH2 0x2097 DUP6 DUP3 DUP7 ADD PUSH2 0x1F67 JUMP JUMPDEST SWAP2 POP POP SWAP3 POP SWAP3 SWAP1 POP JUMP JUMPDEST PUSH0 PUSH2 0x20AB DUP3 PUSH2 0x1FA6 JUMP JUMPDEST SWAP1 POP SWAP2 SWAP1 POP JUMP JUMPDEST PUSH2 0x20BB DUP2 PUSH2 0x20A1 JUMP JUMPDEST DUP2 EQ PUSH2 0x20C5 JUMPI PUSH0 DUP1 REVERT JUMPDEST POP JUMP JUMPDEST PUSH0 DUP2 CALLDATALOAD SWAP1 POP PUSH2 0x20D6 DUP2 PUSH2 0x20B2 JUMP JUMPDEST SWAP3 SWAP2 POP POP JUMP JUMPDEST PUSH0 DUP1 PUSH1 0x40 DUP4 DUP6 SUB SLT ISZERO PUSH2 0x20F2 JUMPI PUSH2 0x20F1 PUSH2 0x1F4D JUMP JUMPDEST JUMPDEST PUSH0 PUSH2 0x20FF DUP6 DUP3 DUP7 ADD PUSH2 0x1F67 JUMP JUMPDEST SWAP3 POP POP PUSH1 0x20 PUSH2 0x2110 DUP6 DUP3 DUP7 ADD PUSH2 0x20C8 JUMP JUMPDEST SWAP2 POP POP SWAP3 POP SWAP3 SWAP1 POP JUMP JUMPDEST PUSH0 PUSH2 0x2124 DUP3 PUSH2 0x1FEF JUMP JUMPDEST SWAP1 POP SWAP2 SWAP1 POP JUMP JUMPDEST PUSH2 0x2134 DUP2 PUSH2 0x211A JUMP JUMPDEST DUP3 MSTORE POP POP JUMP JUMPDEST PUSH0 PUSH1 0x20 DUP3 ADD SWAP1 POP PUSH2 0x214D PUSH0 DUP4 ADD DUP5 PUSH2 0x212B JUMP JUMPDEST SWAP3 SWAP2 POP POP JUMP JUMPDEST PUSH2 0x215C DUP2 PUSH2 0x20A1 JUMP JUMPDEST DUP3 MSTORE POP POP JUMP JUMPDEST PUSH0 PUSH1 0x20 DUP3 ADD SWAP1 POP PUSH2 0x2175 PUSH0 DUP4 ADD DUP5 PUSH2 0x2153 JUMP JUMPDEST SWAP3 SWAP2 POP POP JUMP JUMPDEST PUSH0 PUSH1 0x60 DUP3 ADD SWAP1 POP PUSH2 0x218E PUSH0 DUP4 ADD DUP7 PUSH2 0x1F25 JUMP JUMPDEST PUSH2 0x219B PUSH1 0x20 DUP4 ADD DUP6 PUSH2 0x1F25 JUMP JUMPDEST PUSH2 0x21A8 PUSH1 0x40 DUP4 ADD DUP5 PUSH2 0x1F25 JUMP JUMPDEST SWAP5 SWAP4 POP POP POP POP JUMP JUMPDEST PUSH0 PUSH1 0x20 DUP3 DUP5 SUB SLT ISZERO PUSH2 0x21C5 JUMPI PUSH2 0x21C4 PUSH2 0x1F4D JUMP JUMPDEST JUMPDEST PUSH0 PUSH2 0x21D2 DUP5 DUP3 DUP6 ADD PUSH2 0x20C8 JUMP JUMPDEST SWAP2 POP POP SWAP3 SWAP2 POP POP JUMP JUMPDEST PUSH0 PUSH2 0x21E5 DUP3 PUSH2 0x1FEF JUMP JUMPDEST SWAP1 POP SWAP2 SWAP1 POP JUMP JUMPDEST PUSH2 0x21F5 DUP2 PUSH2 0x21DB JUMP JUMPDEST DUP3 MSTORE POP POP JUMP JUMPDEST PUSH0 PUSH1 0x20 DUP3 ADD SWAP1 POP PUSH2 0x220E PUSH0 DUP4 ADD DUP5 PUSH2 0x21EC JUMP JUMPDEST SWAP3 SWAP2 POP POP JUMP JUMPDEST PUSH0 DUP3 DUP3 MSTORE PUSH1 0x20 DUP3 ADD SWAP1 POP SWAP3 SWAP2 POP POP JUMP JUMPDEST PUSH32 0x706F6F6C206E6F74206578697374000000000000000000000000000000000000 PUSH0 DUP3 ADD MSTORE POP JUMP JUMPDEST PUSH0 PUSH2 0x2258 PUSH1 0xE DUP4 PUSH2 0x2214 JUMP JUMPDEST SWAP2 POP PUSH2 0x2263 DUP3 PUSH2 0x2224 JUMP JUMPDEST PUSH1 0x20 DUP3 ADD SWAP1 POP SWAP2 SWAP1 POP JUMP JUMPDEST PUSH0 PUSH1 0x20 DUP3 ADD SWAP1 POP DUP2 DUP2 SUB PUSH0 DUP4 ADD MSTORE PUSH2 0x2285 DUP2 PUSH2 0x224C JUMP JUMPDEST SWAP1 POP SWAP2 SWAP1 POP JUMP JUMPDEST PUSH32 0x4E487B7100000000000000000000000000000000000000000000000000000000 PUSH0 MSTORE PUSH1 0x32 PUSH1 0x4 MSTORE PUSH1 0x24 PUSH0 REVERT JUMPDEST PUSH32 0x4E487B7100000000000000000000000000000000000000000000000000000000 PUSH0 MSTORE PUSH1 0x11 PUSH1 0x4 MSTORE PUSH1 0x24 PUSH0 REVERT JUMPDEST PUSH0 PUSH2 0x22F0 DUP3 PUSH2 0x1F1C JUMP JUMPDEST SWAP2 POP PUSH2 0x22FB DUP4 PUSH2 0x1F1C JUMP JUMPDEST SWAP3 POP DUP3 DUP3 SUB SWAP1 POP DUP2 DUP2 GT ISZERO PUSH2 0x2313 JUMPI PUSH2 0x2312 PUSH2 0x22B9 JUMP JUMPDEST JUMPDEST SWAP3 SWAP2 POP POP JUMP JUMPDEST PUSH0 PUSH2 0x2323 DUP3 PUSH2 0x1F1C JUMP JUMPDEST SWAP2 POP PUSH2 0x232E DUP4 PUSH2 0x1F1C JUMP JUMPDEST SWAP3 POP DUP3 DUP3 ADD SWAP1 POP DUP1 DUP3 GT ISZERO PUSH2 0x2346 JUMPI PUSH2 0x2345 PUSH2 0x22B9 JUMP JUMPDEST JUMPDEST SWAP3 SWAP2 POP POP JUMP JUMPDEST PUSH32 0x77697468647261773A206E6F7420676F6F640000000000000000000000000000 PUSH0 DUP3 ADD MSTORE POP JUMP JUMPDEST PUSH0 PUSH2 0x2380 PUSH1 0x12 DUP4 PUSH2 0x2214 JUMP JUMPDEST SWAP2 POP PUSH2 0x238B DUP3 PUSH2 0x234C JUMP JUMPDEST PUSH1 0x20 DUP3 ADD SWAP1 POP SWAP2 SWAP1 POP JUMP JUMPDEST PUSH0 PUSH1 0x20 DUP3 ADD SWAP1 POP DUP2 DUP2 SUB PUSH0 DUP4 ADD MSTORE PUSH2 0x23AD DUP2 PUSH2 0x2374 JUMP JUMPDEST SWAP1 POP SWAP2 SWAP1 POP JUMP JUMPDEST PUSH0 PUSH1 0x40 DUP3 ADD SWAP1 POP PUSH2 0x23C7 PUSH0 DUP4 ADD DUP6 PUSH2 0x2153 JUMP JUMPDEST PUSH2 0x23D4 PUSH1 0x20 DUP4 ADD DUP5 PUSH2 0x1F25 JUMP JUMPDEST SWAP4 SWAP3 POP POP POP JUMP JUMPDEST PUSH0 DUP2 ISZERO ISZERO SWAP1 POP SWAP2 SWAP1 POP JUMP JUMPDEST PUSH2 0x23EF DUP2 PUSH2 0x23DB JUMP JUMPDEST DUP2 EQ PUSH2 0x23F9 JUMPI PUSH0 DUP1 REVERT JUMPDEST POP JUMP JUMPDEST PUSH0 DUP2 MLOAD SWAP1 POP PUSH2 0x240A DUP2 PUSH2 0x23E6 JUMP JUMPDEST SWAP3 SWAP2 POP POP JUMP JUMPDEST PUSH0 PUSH1 0x20 DUP3 DUP5 SUB SLT ISZERO PUSH2 0x2425 JUMPI PUSH2 0x2424 PUSH2 0x1F4D JUMP JUMPDEST JUMPDEST PUSH0 PUSH2 0x2432 DUP5 DUP3 DUP6 ADD PUSH2 0x23FC JUMP JUMPDEST SWAP2 POP POP SWAP3 SWAP2 POP POP JUMP JUMPDEST PUSH0 PUSH2 0x2445 DUP3 PUSH2 0x1F1C JUMP JUMPDEST SWAP2 POP PUSH2 0x2450 DUP4 PUSH2 0x1F1C JUMP JUMPDEST SWAP3 POP DUP3 DUP3 MUL PUSH2 0x245E DUP2 PUSH2 0x1F1C JUMP JUMPDEST SWAP2 POP DUP3 DUP3 DIV DUP5 EQ DUP4 ISZERO OR PUSH2 0x2475 JUMPI PUSH2 0x2474 PUSH2 0x22B9 JUMP JUMPDEST JUMPDEST POP SWAP3 SWAP2 POP POP JUMP JUMPDEST PUSH32 0x4E487B7100000000000000000000000000000000000000000000000000000000 PUSH0 MSTORE PUSH1 0x12 PUSH1 0x4 MSTORE PUSH1 0x24 PUSH0 REVERT JUMPDEST PUSH0 PUSH2 0x24B3 DUP3 PUSH2 0x1F1C JUMP JUMPDEST SWAP2 POP PUSH2 0x24BE DUP4 PUSH2 0x1F1C JUMP JUMPDEST SWAP3 POP DUP3 PUSH2 0x24CE JUMPI PUSH2 0x24CD PUSH2 0x247C JUMP JUMPDEST JUMPDEST DUP3 DUP3 DIV SWAP1 POP SWAP3 SWAP2 POP POP JUMP JUMPDEST PUSH0 DUP2 MLOAD SWAP1 POP PUSH2 0x24E7 DUP2 PUSH2 0x1F51 JUMP JUMPDEST SWAP3 SWAP2 POP POP JUMP JUMPDEST PUSH0 PUSH1 0x20 DUP3 DUP5 SUB SLT ISZERO PUSH2 0x2502 JUMPI PUSH2 0x2501 PUSH2 0x1F4D JUMP JUMPDEST JUMPDEST PUSH0 PUSH2 0x250F DUP5 DUP3 DUP6 ADD PUSH2 0x24D9 JUMP JUMPDEST SWAP2 POP POP SWAP3 SWAP2 POP POP JUMP JUMPDEST PUSH0 PUSH2 0x2522 DUP3 PUSH2 0x1F1C JUMP JUMPDEST SWAP2 POP PUSH32 0xFFFFFFFFFFFFFFFFFFFFFFFFFFFFFFFFFFFFFFFFFFFFFFFFFFFFFFFFFFFFFFFF DUP3 SUB PUSH2 0x2554 JUMPI PUSH2 0x2553 PUSH2 0x22B9 JUMP JUMPDEST JUMPDEST PUSH1 0x1 DUP3 ADD SWAP1 POP SWAP2 SWAP1 POP JUMP JUMPDEST PUSH32 0x4D61782070657220626C6F636B2031303020424E430000000000000000000000 PUSH0 DUP3 ADD MSTORE POP JUMP JUMPDEST PUSH0 PUSH2 0x2593 PUSH1 0x15 DUP4 PUSH2 0x2214 JUMP JUMPDEST SWAP2 POP PUSH2 0x259E DUP3 PUSH2 0x255F JUMP JUMPDEST PUSH1 0x20 DUP3 ADD SWAP1 POP SWAP2 SWAP1 POP JUMP JUMPDEST PUSH0 PUSH1 0x20 DUP3 ADD SWAP1 POP DUP2 DUP2 SUB PUSH0 DUP4 ADD MSTORE PUSH2 0x25C0 DUP2 PUSH2 0x2587 JUMP JUMPDEST SWAP1 POP SWAP2 SWAP1 POP JUMP JUMPDEST PUSH32 0x4D696E2070657220626C6F636B20302E30303120424E43000000000000000000 PUSH0 DUP3 ADD MSTORE POP JUMP JUMPDEST PUSH0 PUSH2 0x25FB PUSH1 0x17 DUP4 PUSH2 0x2214 JUMP JUMPDEST SWAP2 POP PUSH2 0x2606 DUP3 PUSH2 0x25C7 JUMP JUMPDEST PUSH1 0x20 DUP3 ADD SWAP1 POP SWAP2 SWAP1 POP JUMP JUMPDEST PUSH0 PUSH1 0x20 DUP3 ADD SWAP1 POP DUP2 DUP2 SUB PUSH0 DUP4 ADD MSTORE PUSH2 0x2628 DUP2 PUSH2 0x25EF JUMP JUMPDEST SWAP1 POP SWAP2 SWAP1 POP JUMP JUMPDEST PUSH32 0x50657263656E742053756D000000000000000000000000000000000000000000 PUSH0 DUP3 ADD MSTORE POP JUMP JUMPDEST PUSH0 PUSH2 0x2663 PUSH1 0xB DUP4 PUSH2 0x2214 JUMP JUMPDEST SWAP2 POP PUSH2 0x266E DUP3 PUSH2 0x262F JUMP JUMPDEST PUSH1 0x20 DUP3 ADD SWAP1 POP SWAP2 SWAP1 POP JUMP JUMPDEST PUSH0 PUSH1 0x20 DUP3 ADD SWAP1 POP DUP2 DUP2 SUB PUSH0 DUP4 ADD MSTORE PUSH2 0x2690 DUP2 PUSH2 0x2657 JUMP JUMPDEST SWAP1 POP SWAP2 SWAP1 POP JUMP JUMPDEST PUSH0 PUSH1 0x40 DUP3 ADD SWAP1 POP PUSH2 0x26AA PUSH0 DUP4 ADD DUP6 PUSH2 0x1F25 JUMP JUMPDEST PUSH2 0x26B7 PUSH1 0x20 DUP4 ADD DUP5 PUSH2 0x1F25 JUMP JUMPDEST SWAP4 SWAP3 POP POP POP JUMP JUMPDEST PUSH32 0x7761697420666F72206E657720626C6F636B0000000000000000000000000000 PUSH0 DUP3 ADD MSTORE POP JUMP JUMPDEST PUSH0 PUSH2 0x26F2 PUSH1 0x12 DUP4 PUSH2 0x2214 JUMP JUMPDEST SWAP2 POP PUSH2 0x26FD DUP3 PUSH2 0x26BE JUMP JUMPDEST PUSH1 0x20 DUP3 ADD SWAP1 POP SWAP2 SWAP1 POP JUMP JUMPDEST PUSH0 PUSH1 0x20 DUP3 ADD SWAP1 POP DUP2 DUP2 SUB PUSH0 DUP4 ADD MSTORE PUSH2 0x271F DUP2 PUSH2 0x26E6 JUMP JUMPDEST SWAP1 POP SWAP2 SWAP1 POP JUMP JUMPDEST PUSH32 0x5A65726F00000000000000000000000000000000000000000000000000000000 PUSH0 DUP3 ADD MSTORE POP JUMP JUMPDEST PUSH0 PUSH2 0x275A PUSH1 0x4 DUP4 PUSH2 0x2214 JUMP JUMPDEST SWAP2 POP PUSH2 0x2765 DUP3 PUSH2 0x2726 JUMP JUMPDEST PUSH1 0x20 DUP3 ADD SWAP1 POP SWAP2 SWAP1 POP JUMP JUMPDEST PUSH0 PUSH1 0x20 DUP3 ADD SWAP1 POP DUP2 DUP2 SUB PUSH0 DUP4 ADD MSTORE PUSH2 0x2787 DUP2 PUSH2 0x274E JUMP JUMPDEST SWAP1 POP SWAP2 SWAP1 POP JUMP JUMPDEST PUSH0 PUSH1 0x60 DUP3 ADD SWAP1 POP PUSH2 0x27A1 PUSH0 DUP4 ADD DUP7 PUSH2 0x2153 JUMP JUMPDEST PUSH2 0x27AE PUSH1 0x20 DUP4 ADD DUP6 PUSH2 0x2153 JUMP JUMPDEST PUSH2 0x27BB PUSH1 0x40 DUP4 ADD DUP5 PUSH2 0x1F25 JUMP JUMPDEST SWAP5 SWAP4 POP POP POP POP JUMP JUMPDEST PUSH32 0x706F6F6C20657869737465640000000000000000000000000000000000000000 PUSH0 DUP3 ADD MSTORE POP JUMP JUMPDEST PUSH0 PUSH2 0x27F7 PUSH1 0xC DUP4 PUSH2 0x2214 JUMP JUMPDEST SWAP2 POP PUSH2 0x2802 DUP3 PUSH2 0x27C3 JUMP JUMPDEST PUSH1 0x20 DUP3 ADD SWAP1 POP SWAP2 SWAP1 POP JUMP JUMPDEST PUSH0 PUSH1 0x20 DUP3 ADD SWAP1 POP DUP2 DUP2 SUB PUSH0 DUP4 ADD MSTORE PUSH2 0x2824 DUP2 PUSH2 0x27EB JUMP JUMPDEST SWAP1 POP SWAP2 SWAP1 POP JUMP INVALID LOG2 PUSH5 0x6970667358 0x22 SLT KECCAK256 0x4E BYTE 0xB6 0xA7 0xDC SHL BALANCE 0xA8 0x2E 0xD7 PUSH3 0x56BCFD 0xD4 POP PUSH19 0x1225A64A36AA0D7B6B8B60EA76520364736F6C PUSH4 0x43000814 STOP CALLER "
		},
		"gasEstimates": {
			"creation": {
				"codeDepositCost": "2067400",
				"executionCost": "infinite",
				"totalCost": "infinite"
			},
			"external": {
				"BNC()": "infinite",
				"BNCPerBlock()": "2492",
				"BONUS_MULTIPLIER()": "2471",
				"addStakingPool(uint256,address)": "infinite",
				"claimBNC(uint256)": "infinite",
				"data()": "infinite",
				"deposit(uint256,uint256)": "infinite",
				"dev0Addr()": "2574",
				"dev0Percent()": "2536",
				"emergencyWithdraw(uint256)": "infinite",
				"getMultiplier(uint256,uint256)": "infinite",
				"lastBlockDevWithdraw()": "2514",
				"massUpdatePools()": "infinite",
				"owner()": "2583",
				"pendingBNC(uint256,address)": "infinite",
				"percentDec()": "2493",
				"poolInfo(uint256)": "infinite",
				"poolLength()": "2487",
				"renounceOwnership()": "infinite",
				"set(uint256,uint256)": "infinite",
				"setDevAddress(address)": "infinite",
				"setPercent(uint256,uint256)": "infinite",
				"stakingPercent()": "2470",
				"startBlock()": "2537",
				"totalAllocPoint()": "2516",
				"transferOwnership(address)": "infinite",
				"updateBNCPerBlock(uint256)": "infinite",
				"updatePool(uint256)": "infinite",
				"userInfo(uint256,address)": "infinite",
				"withdraw(uint256,uint256)": "infinite",
				"withdrawDevFee()": "infinite"
			},
			"internal": {
				"_checkPoolDuplicate(address)": "infinite",
				"addPendingBNC(uint256,address)": "infinite",
				"safeBNCTransfer(address,uint256)": "infinite"
			}
		},
		"methodIdentifiers": {
			"BNC()": "f29588c7",
			"BNCPerBlock()": "c6a37cb8",
			"BONUS_MULTIPLIER()": "8aa28550",
			"addStakingPool(uint256,address)": "9586712a",
			"claimBNC(uint256)": "8a50bb36",
			"data()": "73d4a13a",
			"deposit(uint256,uint256)": "e2bbb158",
			"dev0Addr()": "e88e0e3a",
			"dev0Percent()": "bd62a7d9",
			"emergencyWithdraw(uint256)": "5312ea8e",
			"getMultiplier(uint256,uint256)": "8dbb1e3a",
			"lastBlockDevWithdraw()": "b76e360c",
			"massUpdatePools()": "630b5ba1",
			"owner()": "8da5cb5b",
			"pendingBNC(uint256,address)": "4e0f4e9f",
			"percentDec()": "21b1aecb",
			"poolInfo(uint256)": "1526fe27",
			"poolLength()": "081e3eda",
			"renounceOwnership()": "715018a6",
			"set(uint256,uint256)": "1ab06ee5",
			"setDevAddress(address)": "d0d41fe1",
			"setPercent(uint256,uint256)": "a5981e7b",
			"stakingPercent()": "be1193ea",
			"startBlock()": "48cd4cb1",
			"totalAllocPoint()": "17caf6f1",
			"transferOwnership(address)": "f2fde38b",
			"updateBNCPerBlock(uint256)": "7709fc4b",
			"updatePool(uint256)": "51eb05a6",
			"userInfo(uint256,address)": "93f1a40b",
			"withdraw(uint256,uint256)": "441a3e70",
			"withdrawDevFee()": "cb93f7ef"
		}
	},
	"abi": [
		{
			"inputs": [
				{
					"internalType": "address",
					"name": "_BNCToken",
					"type": "address"
				},
				{
					"internalType": "address",
					"name": "_data",
					"type": "address"
				},
				{
					"internalType": "address",
					"name": "_dev0Addr",
					"type": "address"
				},
				{
					"internalType": "uint256",
					"name": "_dev0Percent",
					"type": "uint256"
				},
				{
					"internalType": "uint256",
					"name": "_stakingPercent",
					"type": "uint256"
				},
				{
					"internalType": "uint256",
					"name": "_BNCPerBlock",
					"type": "uint256"
				},
				{
					"internalType": "uint256",
					"name": "_startBlock",
					"type": "uint256"
				},
				{
					"internalType": "address",
					"name": "_initialOwner",
					"type": "address"
				}
			],
			"stateMutability": "nonpayable",
			"type": "constructor"
		},
		{
			"inputs": [
				{
					"internalType": "address",
					"name": "owner",
					"type": "address"
				}
			],
			"name": "OwnableInvalidOwner",
			"type": "error"
		},
		{
			"inputs": [
				{
					"internalType": "address",
					"name": "account",
					"type": "address"
				}
			],
			"name": "OwnableUnauthorizedAccount",
			"type": "error"
		},
		{
			"inputs": [],
			"name": "ReentrancyGuardReentrantCall",
			"type": "error"
		},
		{
			"anonymous": false,
			"inputs": [
				{
					"indexed": true,
					"internalType": "address",
					"name": "user",
					"type": "address"
				},
				{
					"indexed": true,
					"internalType": "uint256",
					"name": "pid",
					"type": "uint256"
				},
				{
					"indexed": false,
					"internalType": "uint256",
					"name": "amount",
					"type": "uint256"
				}
			],
			"name": "ClaimBNC",
			"type": "event"
		},
		{
			"anonymous": false,
			"inputs": [
				{
					"indexed": true,
					"internalType": "address",
					"name": "user",
					"type": "address"
				},
				{
					"indexed": true,
					"internalType": "uint256",
					"name": "pid",
					"type": "uint256"
				},
				{
					"indexed": false,
					"internalType": "uint256",
					"name": "amount",
					"type": "uint256"
				}
			],
			"name": "Deposit",
			"type": "event"
		},
		{
			"anonymous": false,
			"inputs": [
				{
					"indexed": true,
					"internalType": "address",
					"name": "user",
					"type": "address"
				},
				{
					"indexed": true,
					"internalType": "uint256",
					"name": "pid",
					"type": "uint256"
				},
				{
					"indexed": false,
					"internalType": "uint256",
					"name": "amount",
					"type": "uint256"
				}
			],
			"name": "EmergencyWithdraw",
			"type": "event"
		},
		{
			"anonymous": false,
			"inputs": [
				{
					"indexed": true,
					"internalType": "address",
					"name": "previousOwner",
					"type": "address"
				},
				{
					"indexed": true,
					"internalType": "address",
					"name": "newOwner",
					"type": "address"
				}
			],
			"name": "OwnershipTransferred",
			"type": "event"
		},
		{
			"anonymous": false,
			"inputs": [
				{
					"indexed": true,
					"internalType": "address",
					"name": "dev0Addr",
					"type": "address"
				}
			],
			"name": "SetDev0Address",
			"type": "event"
		},
		{
			"anonymous": false,
			"inputs": [
				{
					"indexed": false,
					"internalType": "uint256",
					"name": "stakingPercent",
					"type": "uint256"
				},
				{
					"indexed": false,
					"internalType": "uint256",
					"name": "dev0Percent",
					"type": "uint256"
				}
			],
			"name": "SetPercent",
			"type": "event"
		},
		{
			"anonymous": false,
			"inputs": [
				{
					"indexed": false,
					"internalType": "uint256",
					"name": "BNCPerBlock",
					"type": "uint256"
				}
			],
			"name": "UpdateBNCPerBlock",
			"type": "event"
		},
		{
			"anonymous": false,
			"inputs": [
				{
					"indexed": true,
					"internalType": "address",
					"name": "user",
					"type": "address"
				},
				{
					"indexed": true,
					"internalType": "uint256",
					"name": "pid",
					"type": "uint256"
				},
				{
					"indexed": false,
					"internalType": "uint256",
					"name": "amount",
					"type": "uint256"
				}
			],
			"name": "Withdraw",
			"type": "event"
		},
		{
			"inputs": [],
			"name": "BNC",
			"outputs": [
				{
					"internalType": "contract WBNC",
					"name": "",
					"type": "address"
				}
			],
			"stateMutability": "view",
			"type": "function"
		},
		{
			"inputs": [],
			"name": "BNCPerBlock",
			"outputs": [
				{
					"internalType": "uint256",
					"name": "",
					"type": "uint256"
				}
			],
			"stateMutability": "view",
			"type": "function"
		},
		{
			"inputs": [],
			"name": "BONUS_MULTIPLIER",
			"outputs": [
				{
					"internalType": "uint256",
					"name": "",
					"type": "uint256"
				}
			],
			"stateMutability": "view",
			"type": "function"
		},
		{
			"inputs": [
				{
					"internalType": "uint256",
					"name": "_allocPoint",
					"type": "uint256"
				},
				{
					"internalType": "address",
					"name": "_lpToken",
					"type": "address"
				}
			],
			"name": "addStakingPool",
			"outputs": [],
			"stateMutability": "nonpayable",
			"type": "function"
		},
		{
			"inputs": [
				{
					"internalType": "uint256",
					"name": "_pid",
					"type": "uint256"
				}
			],
			"name": "claimBNC",
			"outputs": [],
			"stateMutability": "nonpayable",
			"type": "function"
		},
		{
			"inputs": [],
			"name": "data",
			"outputs": [
				{
					"internalType": "contract Data",
					"name": "",
					"type": "address"
				}
			],
			"stateMutability": "view",
			"type": "function"
		},
		{
			"inputs": [
				{
					"internalType": "uint256",
					"name": "_pid",
					"type": "uint256"
				},
				{
					"internalType": "uint256",
					"name": "_amount",
					"type": "uint256"
				}
			],
			"name": "deposit",
			"outputs": [],
			"stateMutability": "nonpayable",
			"type": "function"
		},
		{
			"inputs": [],
			"name": "dev0Addr",
			"outputs": [
				{
					"internalType": "address",
					"name": "",
					"type": "address"
				}
			],
			"stateMutability": "view",
			"type": "function"
		},
		{
			"inputs": [],
			"name": "dev0Percent",
			"outputs": [
				{
					"internalType": "uint256",
					"name": "",
					"type": "uint256"
				}
			],
			"stateMutability": "view",
			"type": "function"
		},
		{
			"inputs": [
				{
					"internalType": "uint256",
					"name": "_pid",
					"type": "uint256"
				}
			],
			"name": "emergencyWithdraw",
			"outputs": [],
			"stateMutability": "nonpayable",
			"type": "function"
		},
		{
			"inputs": [
				{
					"internalType": "uint256",
					"name": "_from",
					"type": "uint256"
				},
				{
					"internalType": "uint256",
					"name": "_to",
					"type": "uint256"
				}
			],
			"name": "getMultiplier",
			"outputs": [
				{
					"internalType": "uint256",
					"name": "",
					"type": "uint256"
				}
			],
			"stateMutability": "view",
			"type": "function"
		},
		{
			"inputs": [],
			"name": "lastBlockDevWithdraw",
			"outputs": [
				{
					"internalType": "uint256",
					"name": "",
					"type": "uint256"
				}
			],
			"stateMutability": "view",
			"type": "function"
		},
		{
			"inputs": [],
			"name": "massUpdatePools",
			"outputs": [],
			"stateMutability": "nonpayable",
			"type": "function"
		},
		{
			"inputs": [],
			"name": "owner",
			"outputs": [
				{
					"internalType": "address",
					"name": "",
					"type": "address"
				}
			],
			"stateMutability": "view",
			"type": "function"
		},
		{
			"inputs": [
				{
					"internalType": "uint256",
					"name": "_pid",
					"type": "uint256"
				},
				{
					"internalType": "address",
					"name": "_user",
					"type": "address"
				}
			],
			"name": "pendingBNC",
			"outputs": [
				{
					"internalType": "uint256",
					"name": "",
					"type": "uint256"
				}
			],
			"stateMutability": "view",
			"type": "function"
		},
		{
			"inputs": [],
			"name": "percentDec",
			"outputs": [
				{
					"internalType": "uint256",
					"name": "",
					"type": "uint256"
				}
			],
			"stateMutability": "view",
			"type": "function"
		},
		{
			"inputs": [
				{
					"internalType": "uint256",
					"name": "",
					"type": "uint256"
				}
			],
			"name": "poolInfo",
			"outputs": [
				{
					"internalType": "contract IERC20",
					"name": "lpToken",
					"type": "address"
				},
				{
					"internalType": "uint256",
					"name": "allocPoint",
					"type": "uint256"
				},
				{
					"internalType": "uint256",
					"name": "lastRewardBlock",
					"type": "uint256"
				},
				{
					"internalType": "uint256",
					"name": "accBNCPerShare",
					"type": "uint256"
				}
			],
			"stateMutability": "view",
			"type": "function"
		},
		{
			"inputs": [],
			"name": "poolLength",
			"outputs": [
				{
					"internalType": "uint256",
					"name": "",
					"type": "uint256"
				}
			],
			"stateMutability": "view",
			"type": "function"
		},
		{
			"inputs": [],
			"name": "renounceOwnership",
			"outputs": [],
			"stateMutability": "nonpayable",
			"type": "function"
		},
		{
			"inputs": [
				{
					"internalType": "uint256",
					"name": "_pid",
					"type": "uint256"
				},
				{
					"internalType": "uint256",
					"name": "_allocPoint",
					"type": "uint256"
				}
			],
			"name": "set",
			"outputs": [],
			"stateMutability": "nonpayable",
			"type": "function"
		},
		{
			"inputs": [
				{
					"internalType": "address",
					"name": "_dev0Addr",
					"type": "address"
				}
			],
			"name": "setDevAddress",
			"outputs": [],
			"stateMutability": "nonpayable",
			"type": "function"
		},
		{
			"inputs": [
				{
					"internalType": "uint256",
					"name": "_stakingPercent",
					"type": "uint256"
				},
				{
					"internalType": "uint256",
					"name": "_dev0Percent",
					"type": "uint256"
				}
			],
			"name": "setPercent",
			"outputs": [],
			"stateMutability": "nonpayable",
			"type": "function"
		},
		{
			"inputs": [],
			"name": "stakingPercent",
			"outputs": [
				{
					"internalType": "uint256",
					"name": "",
					"type": "uint256"
				}
			],
			"stateMutability": "view",
			"type": "function"
		},
		{
			"inputs": [],
			"name": "startBlock",
			"outputs": [
				{
					"internalType": "uint256",
					"name": "",
					"type": "uint256"
				}
			],
			"stateMutability": "view",
			"type": "function"
		},
		{
			"inputs": [],
			"name": "totalAllocPoint",
			"outputs": [
				{
					"internalType": "uint256",
					"name": "",
					"type": "uint256"
				}
			],
			"stateMutability": "view",
			"type": "function"
		},
		{
			"inputs": [
				{
					"internalType": "address",
					"name": "newOwner",
					"type": "address"
				}
			],
			"name": "transferOwnership",
			"outputs": [],
			"stateMutability": "nonpayable",
			"type": "function"
		},
		{
			"inputs": [
				{
					"internalType": "uint256",
					"name": "newAmount",
					"type": "uint256"
				}
			],
			"name": "updateBNCPerBlock",
			"outputs": [],
			"stateMutability": "nonpayable",
			"type": "function"
		},
		{
			"inputs": [
				{
					"internalType": "uint256",
					"name": "_pid",
					"type": "uint256"
				}
			],
			"name": "updatePool",
			"outputs": [],
			"stateMutability": "nonpayable",
			"type": "function"
		},
		{
			"inputs": [
				{
					"internalType": "uint256",
					"name": "",
					"type": "uint256"
				},
				{
					"internalType": "address",
					"name": "",
					"type": "address"
				}
			],
			"name": "userInfo",
			"outputs": [
				{
					"internalType": "uint256",
					"name": "amount",
					"type": "uint256"
				},
				{
					"internalType": "uint256",
					"name": "exactRewardCal",
					"type": "uint256"
				},
				{
					"internalType": "uint256",
					"name": "pendingReward",
					"type": "uint256"
				}
			],
			"stateMutability": "view",
			"type": "function"
		},
		{
			"inputs": [
				{
					"internalType": "uint256",
					"name": "_pid",
					"type": "uint256"
				},
				{
					"internalType": "uint256",
					"name": "_amount",
					"type": "uint256"
				}
			],
			"name": "withdraw",
			"outputs": [],
			"stateMutability": "nonpayable",
			"type": "function"
		},
		{
			"inputs": [],
			"name": "withdrawDevFee",
			"outputs": [],
			"stateMutability": "nonpayable",
			"type": "function"
		}
	]
}