{
	"data": {
		"bytecode": {
			"linkReferences": {},
			"object": "608060405261271060045560016009555f600f555f60105534801562000023575f80fd5b5060405162004598380380620045988339818101604052810190620000499190620002e4565b805f73ffffffffffffffffffffffffffffffffffffffff168173ffffffffffffffffffffffffffffffffffffffff1603620000bd575f6040517f1e4fbdf7000000000000000000000000000000000000000000000000000000008152600401620000b49190620003a3565b60405180910390fd5b620000ce816200018660201b60201c565b50600180819055508660025f6101000a81548173ffffffffffffffffffffffffffffffffffffffff021916908373ffffffffffffffffffffffffffffffffffffffff1602179055508560075f6101000a81548173ffffffffffffffffffffffffffffffffffffffff021916908373ffffffffffffffffffffffffffffffffffffffff1602179055508460068190555083600581905550826008819055508160118190555081600a8190555050505050505050620003be565b5f805f9054906101000a900473ffffffffffffffffffffffffffffffffffffffff169050815f806101000a81548173ffffffffffffffffffffffffffffffffffffffff021916908373ffffffffffffffffffffffffffffffffffffffff1602179055508173ffffffffffffffffffffffffffffffffffffffff168173ffffffffffffffffffffffffffffffffffffffff167f8be0079c531659141344cd1fd0a4f28419497f9722a3daafe3b4186f6b6457e060405160405180910390a35050565b5f80fd5b5f73ffffffffffffffffffffffffffffffffffffffff82169050919050565b5f62000276826200024b565b9050919050565b62000288816200026a565b811462000293575f80fd5b50565b5f81519050620002a6816200027d565b92915050565b5f819050919050565b620002c081620002ac565b8114620002cb575f80fd5b50565b5f81519050620002de81620002b5565b92915050565b5f805f805f805f60e0888a03121562000302576200030162000247565b5b5f620003118a828b0162000296565b9750506020620003248a828b0162000296565b9650506040620003378a828b01620002ce565b95505060606200034a8a828b01620002ce565b94505060806200035d8a828b01620002ce565b93505060a0620003708a828b01620002ce565b92505060c0620003838a828b0162000296565b91505092959891949750929550565b6200039d816200026a565b82525050565b5f602082019050620003b85f83018462000392565b92915050565b6141cc80620003cc5f395ff3fe608060405234801561000f575f80fd5b5060043610610288575f3560e01c80638aa285501161015a578063c2e40266116100cc578063e2bbb15811610085578063e2bbb158146107e0578063e88e0e3a146107fc578063eab443141461081a578063f27470991461084a578063f29588c71461087a578063f2fde38b1461089857610288565b8063c2e4026614610732578063c6a37cb814610762578063cb93f7ef14610780578063d0d41fe11461078a578063d84439d5146107a6578063e12da02e146107c257610288565b8063abb762681161011e578063abb762681461065a578063b76e360c14610676578063bb7ef61f14610694578063bd62a7d9146106c6578063be1193ea146106e4578063bfa621f51461070257610288565b80638aa285501461059f5780638da5cb5b146105bd5780638dbb1e3a146105db57806393f1a40b1461060b578063a5981e7b1461063e57610288565b806348cd4cb1116101fe57806370d6fcbd116101b757806370d6fcbd146104f1578063715018a61461052157806373d4a13a1461052b5780637709fc4b1461054957806387831b43146105655780638a50bb361461058357610288565b806348cd4cb11461043157806348fec1041461044f5780634e0f4e9f1461047f57806351eb05a6146104af5780635312ea8e146104cb578063630b5ba1146104e757610288565b80631609061511610250578063160906151461035b578063172728cc1461038d57806317caf6f1146103bd5780631ab06ee5146103db57806321b1aecb146103f7578063441a3e701461041557610288565b8063081e3eda1461028c5780630bd399fd146102aa5780630d25b679146102c657806315155add146102f65780631526fe2714610326575b5f80fd5b6102946108b4565b6040516102a191906135cf565b60405180910390f35b6102c460048036038101906102bf9190613616565b6108c0565b005b6102e060048036038101906102db9190613616565b610b1d565b6040516102ed91906135cf565b60405180910390f35b610310600480360381019061030b9190613616565b610b26565b60405161031d9190613728565b60405180910390f35b610340600480360381019061033b9190613616565b610bc2565b604051610352969594939291906137a3565b60405180910390f35b6103756004803603810190610370919061382c565b610c28565b6040516103849392919061386a565b60405180910390f35b6103a760048036038101906103a2919061389f565b610c59565b6040516103b491906138ec565b60405180910390f35b6103c5610ca1565b6040516103d291906135cf565b60405180910390f35b6103f560048036038101906103f0919061389f565b610ca7565b005b6103ff610d6e565b60405161040c91906135cf565b60405180910390f35b61042f600480360381019061042a919061389f565b610d74565b005b61043961101c565b60405161044691906135cf565b60405180910390f35b61046960048036038101906104649190613616565b611022565b60405161047691906135cf565b60405180910390f35b6104996004803603810190610494919061382c565b61114d565b6040516104a691906135cf565b60405180910390f35b6104c960048036038101906104c49190613616565b611393565b005b6104e560048036038101906104e09190613616565b6115e9565b005b6104ef6119da565b005b61050b6004803603810190610506919061382c565b611a05565b60405161051891906135cf565b60405180910390f35b610529611b6c565b005b610533611b7f565b6040516105409190613925565b60405180910390f35b610563600480360381019061055e9190613616565b611ba4565b005b61056d611c85565b60405161057a91906135cf565b60405180910390f35b61059d60048036038101906105989190613616565b611c8e565b005b6105a7611e30565b6040516105b491906135cf565b60405180910390f35b6105c5611e36565b6040516105d291906138ec565b60405180910390f35b6105f560048036038101906105f0919061389f565b611e5d565b60405161060291906135cf565b60405180910390f35b6106256004803603810190610620919061382c565b611e7f565b604051610635949392919061393e565b60405180910390f35b6106586004803603810190610653919061389f565b611eb6565b005b610674600480360381019061066f919061389f565b611f62565b005b61067e612042565b60405161068b91906135cf565b60405180910390f35b6106ae60048036038101906106a9919061382c565b612048565b6040516106bd9392919061386a565b60405180910390f35b6106ce612085565b6040516106db91906135cf565b60405180910390f35b6106ec61208b565b6040516106f991906135cf565b60405180910390f35b61071c60048036038101906107179190613616565b612091565b60405161072991906135cf565b60405180910390f35b61074c6004803603810190610747919061382c565b6120e1565b60405161075991906135cf565b60405180910390f35b61076a612242565b60405161077791906135cf565b60405180910390f35b610788612248565b005b6107a4600480360381019061079f9190613981565b612380565b005b6107c060048036038101906107bb91906139ac565b61249d565b005b6107ca61266f565b6040516107d791906135cf565b60405180910390f35b6107fa60048036038101906107f5919061389f565b612675565b005b610804612938565b60405161081191906138ec565b60405180910390f35b610834600480360381019061082f919061382c565b61295d565b60405161084191906135cf565b60405180910390f35b610864600480360381019061085f919061382c565b612bc4565b60405161087191906135cf565b60405180910390f35b610882612c69565b60405161088f9190613a1c565b60405180910390f35b6108b260048036038101906108ad9190613981565b612c8e565b005b5f600b80549050905090565b6108c8612d12565b80600b805490508110610910576040517f08c379a000000000000000000000000000000000000000000000000000000000815260040161090790613a8f565b60405180910390fd5b5f600b838154811061092557610924613aad565b5b905f5260205f20906006020190505f600c5f8581526020019081526020015f205f3373ffffffffffffffffffffffffffffffffffffffff1673ffffffffffffffffffffffffffffffffffffffff1681526020019081526020015f20905081600401544210156109c9576040517f08c379a00000000000000000000000000000000000000000000000000000000081526004016109c090613b24565b60405180910390fd5b6109d284611393565b6109dc8433612d58565b6109e584611c8e565b5f815f01541115610a9257815f015f9054906101000a900473ffffffffffffffffffffffffffffffffffffffff1673ffffffffffffffffffffffffffffffffffffffff1663a9059cbb33835f01546040518363ffffffff1660e01b8152600401610a50929190613b42565b6020604051808303815f875af1158015610a6c573d5f803e3d5ffd5b505050506040513d601f19601f82011682018060405250810190610a909190613b9e565b505b64e8d4a510008260030154825f0154610aab9190613bf6565b610ab59190613c64565b8160010181905550833373ffffffffffffffffffffffffffffffffffffffff167ff279e6a1f5e320cca91135676d9cb6e44ca8a08c0b88342bcdb1144f6511b568835f0154604051610b0791906135cf565b60405180910390a3505050610b1a612e70565b50565b5f819050919050565b6060600e5f8381526020019081526020015f20805480602002602001604051908101604052809291908181526020018280548015610bb657602002820191905f5260205f20905b815f9054906101000a900473ffffffffffffffffffffffffffffffffffffffff1673ffffffffffffffffffffffffffffffffffffffff1681526020019060010190808311610b6d575b50505050509050919050565b600b8181548110610bd1575f80fd5b905f5260205f2090600602015f91509050805f015f9054906101000a900473ffffffffffffffffffffffffffffffffffffffff16908060010154908060020154908060030154908060040154908060050154905086565b600d602052815f5260405f20602052805f5260405f205f9150915050805f0154908060010154908060020154905083565b600e602052815f5260405f208181548110610c72575f80fd5b905f5260205f20015f915091509054906101000a900473ffffffffffffffffffffffffffffffffffffffff1681565b60105481565b610caf612e79565b81600b805490508110610cf7576040517f08c379a0000000000000000000000000000000000000000000000000000000008152600401610cee90613a8f565b60405180910390fd5b610cff6119da565b81600b8481548110610d1457610d13613aad565b5b905f5260205f20906006020160010154601054610d319190613c94565b610d3b9190613cc7565b60108190555081600b8481548110610d5657610d55613aad565b5b905f5260205f20906006020160010181905550505050565b60045481565b610d7c612d12565b81600b805490508110610dc4576040517f08c379a0000000000000000000000000000000000000000000000000000000008152600401610dbb90613a8f565b60405180910390fd5b5f600b8481548110610dd957610dd8613aad565b5b905f5260205f20906006020190505f600c5f8681526020019081526020015f205f3373ffffffffffffffffffffffffffffffffffffffff1673ffffffffffffffffffffffffffffffffffffffff1681526020019081526020015f2090508160040154421015610e7d576040517f08c379a0000000000000000000000000000000000000000000000000000000008152600401610e7490613b24565b60405180910390fd5b83815f01541015610ec3576040517f08c379a0000000000000000000000000000000000000000000000000000000008152600401610eba90613d44565b60405180910390fd5b610ecc85611393565b610ed68533612d58565b5f841115610f935783815f0154610eed9190613c94565b815f0181905550815f015f9054906101000a900473ffffffffffffffffffffffffffffffffffffffff1673ffffffffffffffffffffffffffffffffffffffff1663a9059cbb33866040518363ffffffff1660e01b8152600401610f51929190613b42565b6020604051808303815f875af1158015610f6d573d5f803e3d5ffd5b505050506040513d601f19601f82011682018060405250810190610f919190613b9e565b505b64e8d4a510008260030154825f0154610fac9190613bf6565b610fb69190613c64565b8160010181905550843373ffffffffffffffffffffffffffffffffffffffff167ff279e6a1f5e320cca91135676d9cb6e44ca8a08c0b88342bcdb1144f6511b5688660405161100591906135cf565b60405180910390a3505050611018612e70565b5050565b60115481565b5f80600b838154811061103857611037613aad565b5b905f5260205f20906006020190505f601054826001015460085461105c9190613bf6565b6110669190613c64565b90505f825f015f9054906101000a900473ffffffffffffffffffffffffffffffffffffffff1673ffffffffffffffffffffffffffffffffffffffff166370a08231306040518263ffffffff1660e01b81526004016110c491906138ec565b602060405180830381865afa1580156110df573d5f803e3d5ffd5b505050506040513d601f19601f820116820180604052508101906111039190613d76565b90505f808211611113575f61113f565b606482670de0b6b3a76400008561112a9190613bf6565b6111349190613c64565b61113e9190613bf6565b5b905080945050505050919050565b5f82600b805490508110611196576040517f08c379a000000000000000000000000000000000000000000000000000000000815260040161118d90613a8f565b60405180910390fd5b5f600b85815481106111ab576111aa613aad565b5b905f5260205f20906006020190505f600c5f8781526020019081526020015f205f8673ffffffffffffffffffffffffffffffffffffffff1673ffffffffffffffffffffffffffffffffffffffff1681526020019081526020015f2090505f826003015490505f835f015f9054906101000a900473ffffffffffffffffffffffffffffffffffffffff1673ffffffffffffffffffffffffffffffffffffffff166370a08231306040518263ffffffff1660e01b815260040161126c91906138ec565b602060405180830381865afa158015611287573d5f803e3d5ffd5b505050506040513d601f19601f820116820180604052508101906112ab9190613d76565b90508360020154431180156112c057505f8114155b15611349575f6112d4856002015443611e5d565b90505f6004546005546010548860010154600854866112f39190613bf6565b6112fd9190613bf6565b6113079190613c64565b6113119190613bf6565b61131b9190613c64565b90508264e8d4a510008261132f9190613bf6565b6113399190613c64565b846113449190613cc7565b935050505b826001015464e8d4a5100083855f01546113639190613bf6565b61136d9190613c64565b846002015461137c9190613cc7565b6113869190613c94565b9550505050505092915050565b80600b8054905081106113db576040517f08c379a00000000000000000000000000000000000000000000000000000000081526004016113d290613a8f565b60405180910390fd5b5f600b83815481106113f0576113ef613aad565b5b905f5260205f20906006020190508060020154431161140f57506115e5565b5f815f015f9054906101000a900473ffffffffffffffffffffffffffffffffffffffff1673ffffffffffffffffffffffffffffffffffffffff166370a08231306040518263ffffffff1660e01b815260040161146b91906138ec565b602060405180830381865afa158015611486573d5f803e3d5ffd5b505050506040513d601f19601f820116820180604052508101906114aa9190613d76565b90505f81116114c35743826002018190555050506115e5565b5f6114d2836002015443611e5d565b90505f6004546005546010548660010154600854866114f19190613bf6565b6114fb9190613bf6565b6115059190613c64565b61150f9190613bf6565b6115199190613c64565b905060025f9054906101000a900473ffffffffffffffffffffffffffffffffffffffff1673ffffffffffffffffffffffffffffffffffffffff16634e6ec24730836040518363ffffffff1660e01b8152600401611577929190613b42565b5f604051808303815f87803b15801561158e575f80fd5b505af11580156115a0573d5f803e3d5ffd5b505050508264e8d4a51000826115b69190613bf6565b6115c09190613c64565b84600301546115cf9190613cc7565b8460030181905550438460020181905550505050505b5050565b6115f1612d12565b80600b805490508110611639576040517f08c379a000000000000000000000000000000000000000000000000000000000815260040161163090613a8f565b60405180910390fd5b5f600b838154811061164e5761164d613aad565b5b905f5260205f20906006020190505f600c5f8581526020019081526020015f205f3373ffffffffffffffffffffffffffffffffffffffff1673ffffffffffffffffffffffffffffffffffffffff1681526020019081526020015f2090506116b5843361295d565b505f815f015490505f826002015490505f82855f015f9054906101000a900473ffffffffffffffffffffffffffffffffffffffff1673ffffffffffffffffffffffffffffffffffffffff166370a08231306040518263ffffffff1660e01b815260040161172291906138ec565b602060405180830381865afa15801561173d573d5f803e3d5ffd5b505050506040513d601f19601f820116820180604052508101906117619190613d76565b61176b9190613c94565b90505f600d5f8981526020019081526020015f205f3373ffffffffffffffffffffffffffffffffffffffff1673ffffffffffffffffffffffffffffffffffffffff1681526020019081526020015f20905083815f018190555082816001018190555042816002018190555082600f5f8282546117e79190613cc7565b925050819055505f80841180156117fd57505f83115b611807575f611838565b600e5f8a81526020019081526020015f208054905064e8d4a510008561182d9190613bf6565b6118379190613c64565b5b905061184381610b1d565b507f649c84831f10e26ab05a0e59436157f1e7fad268f97e5ba8c43768809683f79733835f01548460010154856002015485604051611886959493929190613da1565b60405180910390a15f8311801561189c57505f84115b156118ad576118ac898585612f00565b5b865f015f9054906101000a900473ffffffffffffffffffffffffffffffffffffffff1673ffffffffffffffffffffffffffffffffffffffff1663a9059cbb33876040518363ffffffff1660e01b815260040161190a929190613b42565b6020604051808303815f875af1158015611926573d5f803e3d5ffd5b505050506040513d601f19601f8201168201806040525081019061194a9190613b9e565b50883373ffffffffffffffffffffffffffffffffffffffff167fbb757047c2b5f3974fe26b7c10f732e7bce710b0952a71082702781e62ae05958760405161199291906135cf565b60405180910390a35f865f01819055505f86600201819055505f86600101819055505f86600301819055506119c7893361306b565b50505050505050506119d7612e70565b50565b5f600b8054905090505f5b81811015611a01576119f681611393565b8060010190506119e5565b5050565b5f80600b8481548110611a1b57611a1a613aad565b5b905f5260205f20906006020190505f600c5f8681526020019081526020015f205f8573ffffffffffffffffffffffffffffffffffffffff1673ffffffffffffffffffffffffffffffffffffffff1681526020019081526020015f2090505f611a8286612091565b90505f835f015f9054906101000a900473ffffffffffffffffffffffffffffffffffffffff1673ffffffffffffffffffffffffffffffffffffffff166370a08231306040518263ffffffff1660e01b8152600401611ae091906138ec565b602060405180830381865afa158015611afb573d5f803e3d5ffd5b505050506040513d601f19601f82011682018060405250810190611b1f9190613d76565b64e8d4a51000845f0154611b339190613bf6565b611b3d9190613c64565b90505f64e8d4a510008284611b529190613bf6565b611b5c9190613c64565b9050809550505050505092915050565b611b74612e79565b611b7d5f613234565b565b60035f9054906101000a900473ffffffffffffffffffffffffffffffffffffffff1681565b611bac612e79565b68056bc75e2d63100000811115611bf8576040517f08c379a0000000000000000000000000000000000000000000000000000000008152600401611bef90613e3c565b60405180910390fd5b66038d7ea4c68000811015611c42576040517f08c379a0000000000000000000000000000000000000000000000000000000008152600401611c3990613ea4565b60405180910390fd5b806008819055507f1e19929b3cb970f6d66d05a2698000db2ac7eafe495aee2c6c32bd7960a97ead600854604051611c7a91906135cf565b60405180910390a150565b5f600f54905090565b611c96612d12565b80600b805490508110611cde576040517f08c379a0000000000000000000000000000000000000000000000000000000008152600401611cd590613a8f565b60405180910390fd5b611ce782611393565b611cf18233612d58565b5f600c5f8481526020019081526020015f205f3373ffffffffffffffffffffffffffffffffffffffff1673ffffffffffffffffffffffffffffffffffffffff1681526020019081526020015f2090505f600b8481548110611d5557611d54613aad565b5b905f5260205f20906006020190508060040154421015611daa576040517f08c379a0000000000000000000000000000000000000000000000000000000008152600401611da190613b24565b60405180910390fd5b5f82600201541115611e22575f826002015490505f8360020181905550611dd133826132f5565b843373ffffffffffffffffffffffffffffffffffffffff167f9da87e8cce29a4140e89780f6e64e0b1cd58e4fa1cb5ee53effe97264f290c6c83604051611e1891906135cf565b60405180910390a3505b505050611e2d612e70565b50565b60095481565b5f805f9054906101000a900473ffffffffffffffffffffffffffffffffffffffff16905090565b5f60095483611e6c9190613bf6565b82611e779190613c94565b905092915050565b600c602052815f5260405f20602052805f5260405f205f9150915050805f0154908060010154908060020154908060030154905084565b611ebe612e79565b5f8190506004548184611ed19190613cc7565b1115611f12576040517f08c379a0000000000000000000000000000000000000000000000000000000008152600401611f0990613f0c565b60405180910390fd5b82600581905550816006819055507fcbd554161f22a88862569b669f84507adc410008353e0a023297d3ea419126f7600554600654604051611f55929190613f2a565b60405180910390a1505050565b611f6a612e79565b81600b805490508110611fb2576040517f08c379a0000000000000000000000000000000000000000000000000000000008152600401611fa990613a8f565b60405180910390fd5b5f600b8481548110611fc757611fc6613aad565b5b905f5260205f20906006020190505f600184611fe39190613bf6565b42611fee9190613cc7565b9050428111612032576040517f08c379a000000000000000000000000000000000000000000000000000000000815260040161202990613f9b565b60405180910390fd5b8082600401819055505050505050565b600a5481565b5f805f80612056868661114d565b90505f6120638787611a05565b90505f61207088886120e1565b90508282829550955095505050509250925092565b60065481565b60055481565b5f80600b83815481106120a7576120a6613aad565b5b905f5260205f20906006020190505f60105482600101546008546120cb9190613bf6565b6120d59190613c64565b90508092505050919050565b5f80600b84815481106120f7576120f6613aad565b5b905f5260205f20906006020190505f600c5f8681526020019081526020015f205f8573ffffffffffffffffffffffffffffffffffffffff1673ffffffffffffffffffffffffffffffffffffffff1681526020019081526020015f2090505f825f015f9054906101000a900473ffffffffffffffffffffffffffffffffffffffff1673ffffffffffffffffffffffffffffffffffffffff166370a08231306040518263ffffffff1660e01b81526004016121b091906138ec565b602060405180830381865afa1580156121cb573d5f803e3d5ffd5b505050506040513d601f19601f820116820180604052508101906121ef9190613d76565b90505f8164e8d4a51000845f01546122079190613bf6565b6122119190613c64565b90505f64e8d4a5100082600f546122289190613bf6565b6122329190613c64565b9050809550505050505092915050565b60085481565b612250612e79565b43600a5410612294576040517f08c379a000000000000000000000000000000000000000000000000000000000815260040161228b90614003565b60405180910390fd5b5f600854600a54436122a69190613c94565b6122b09190613bf6565b905060025f9054906101000a900473ffffffffffffffffffffffffffffffffffffffff1673ffffffffffffffffffffffffffffffffffffffff16634e6ec24760075f9054906101000a900473ffffffffffffffffffffffffffffffffffffffff16600454600654856123229190613bf6565b61232c9190613c64565b6040518363ffffffff1660e01b8152600401612349929190613b42565b5f604051808303815f87803b158015612360575f80fd5b505af1158015612372573d5f803e3d5ffd5b5050505043600a8190555050565b612388612e79565b5f73ffffffffffffffffffffffffffffffffffffffff168173ffffffffffffffffffffffffffffffffffffffff16036123f6576040517f08c379a00000000000000000000000000000000000000000000000000000000081526004016123ed9061406b565b60405180910390fd5b8060075f6101000a81548173ffffffffffffffffffffffffffffffffffffffff021916908373ffffffffffffffffffffffffffffffffffffffff16021790555060075f9054906101000a900473ffffffffffffffffffffffffffffffffffffffff1673ffffffffffffffffffffffffffffffffffffffff167fb1c7911ca1455735ffd17fec398b65f34157a7b58831b586878f5d3c2cf44ee260405160405180910390a250565b6124a5612e79565b6124ae826134de565b6124b66119da565b5f60115443106124c657436124ca565b6011545b9050836010546124da9190613cc7565b6010819055505f4290505f62015180846124f49190613bf6565b426124ff9190613cc7565b9050600b6040518060c001604052808773ffffffffffffffffffffffffffffffffffffffff1681526020018881526020018581526020015f81526020015f815260200184815250908060018154018082558091505060019003905f5260205f2090600602015f909190919091505f820151815f015f6101000a81548173ffffffffffffffffffffffffffffffffffffffff021916908373ffffffffffffffffffffffffffffffffffffffff1602179055506020820151816001015560408201518160020155606082015181600301556080820151816004015560a0820151816005015550505f600b6001600b805490506125f99190613c94565b8154811061260a57612609613aad565b5b905f5260205f20906006020190508181600401819055507feeb213a5f24f4d07164e968a0886fa179ee7b22af50a6fa2d60874f91c573e7287878360050154846004015460405161265e9493929190614089565b60405180910390a150505050505050565b600f5481565b61267d612d12565b81600b8054905081106126c5576040517f08c379a00000000000000000000000000000000000000000000000000000000081526004016126bc90613a8f565b60405180910390fd5b5f600b84815481106126da576126d9613aad565b5b905f5260205f20906006020190505f600c5f8681526020019081526020015f205f3373ffffffffffffffffffffffffffffffffffffffff1673ffffffffffffffffffffffffffffffffffffffff1681526020019081526020015f20905061274085611393565b61274a8533612d58565b5f8411801561275b57505f815f0154145b156127d057600e5f8681526020019081526020015f2033908060018154018082558091505060019003905f5260205f20015f9091909190916101000a81548173ffffffffffffffffffffffffffffffffffffffff021916908373ffffffffffffffffffffffffffffffffffffffff1602179055505b5f841115612894575f825f015f9054906101000a900473ffffffffffffffffffffffffffffffffffffffff1690508073ffffffffffffffffffffffffffffffffffffffff166323b872dd3330886040518463ffffffff1660e01b815260040161283b939291906140cc565b6020604051808303815f875af1158015612857573d5f803e3d5ffd5b505050506040513d601f19601f8201168201806040525081019061287b9190613b9e565b5084825f015461288b9190613cc7565b825f0181905550505b64e8d4a510008260030154825f01546128ad9190613bf6565b6128b79190613c64565b81600101819055505f8160030154036128d4574281600301819055505b843373ffffffffffffffffffffffffffffffffffffffff167f36af321ec8d3c75236829c5317affd40ddb308863a1236d2d277a4025cccee1e868460030154604051612921929190613f2a565b60405180910390a3505050612934612e70565b5050565b60075f9054906101000a900473ffffffffffffffffffffffffffffffffffffffff1681565b5f82600b8054905081106129a6576040517f08c379a000000000000000000000000000000000000000000000000000000000815260040161299d90613a8f565b60405180910390fd5b5f600b85815481106129bb576129ba613aad565b5b905f5260205f20906006020190505f600c5f8781526020019081526020015f205f8673ffffffffffffffffffffffffffffffffffffffff1673ffffffffffffffffffffffffffffffffffffffff1681526020019081526020015f2090505f826003015490505f835f015f9054906101000a900473ffffffffffffffffffffffffffffffffffffffff1673ffffffffffffffffffffffffffffffffffffffff166370a08231306040518263ffffffff1660e01b8152600401612a7c91906138ec565b602060405180830381865afa158015612a97573d5f803e3d5ffd5b505050506040513d601f19601f82011682018060405250810190612abb9190613d76565b9050836002015443118015612ad057505f8114155b15612b59575f612ae4856002015443611e5d565b90505f600454600554601054886001015460085486612b039190613bf6565b612b0d9190613bf6565b612b179190613c64565b612b219190613bf6565b612b2b9190613c64565b90508264e8d4a5100082612b3f9190613bf6565b612b499190613c64565b84612b549190613cc7565b935050505b5f836001015464e8d4a5100084865f0154612b749190613bf6565b612b7e9190613c64565b8560020154612b8d9190613cc7565b612b979190613c94565b9050808460020154612ba99190613cc7565b84600201819055508360020154965050505050505092915050565b5f80600b8481548110612bda57612bd9613aad565b5b905f5260205f20906006020190505f600c5f8681526020019081526020015f205f8573ffffffffffffffffffffffffffffffffffffffff1673ffffffffffffffffffffffffffffffffffffffff1681526020019081526020015f2090505f64e8d4a510008360030154835f0154612c519190613bf6565b612c5b9190613c64565b905080935050505092915050565b60025f9054906101000a900473ffffffffffffffffffffffffffffffffffffffff1681565b612c96612e79565b5f73ffffffffffffffffffffffffffffffffffffffff168173ffffffffffffffffffffffffffffffffffffffff1603612d06575f6040517f1e4fbdf7000000000000000000000000000000000000000000000000000000008152600401612cfd91906138ec565b60405180910390fd5b612d0f81613234565b50565b600260015403612d4e576040517f3ee5aeb500000000000000000000000000000000000000000000000000000000815260040160405180910390fd5b6002600181905550565b81600b805490508110612da0576040517f08c379a0000000000000000000000000000000000000000000000000000000008152600401612d9790613a8f565b60405180910390fd5b5f600b8481548110612db557612db4613aad565b5b905f5260205f20906006020190505f600c5f8681526020019081526020015f205f8573ffffffffffffffffffffffffffffffffffffffff1673ffffffffffffffffffffffffffffffffffffffff1681526020019081526020015f2090505f816001015464e8d4a510008460030154845f0154612e319190613bf6565b612e3b9190613c64565b612e459190613c94565b90505f811115612e6857808260020154612e5f9190613cc7565b82600201819055505b505050505050565b60018081905550565b612e816135b0565b73ffffffffffffffffffffffffffffffffffffffff16612e9f611e36565b73ffffffffffffffffffffffffffffffffffffffff1614612efe57612ec26135b0565b6040517f118cdaa7000000000000000000000000000000000000000000000000000000008152600401612ef591906138ec565b60405180910390fd5b565b5f600e5f8581526020019081526020015f208054905090505f5b81811015613029575f600e5f8781526020019081526020015f208281548110612f4657612f45613aad565b5b905f5260205f20015f9054906101000a900473ffffffffffffffffffffffffffffffffffffffff1690505f600c5f8881526020019081526020015f205f8373ffffffffffffffffffffffffffffffffffffffff1673ffffffffffffffffffffffffffffffffffffffff1681526020019081526020015f2090505f8564e8d4a51000835f0154612fd59190613bf6565b612fdf9190613c64565b90505f64e8d4a510008289612ff49190613bf6565b612ffe9190613c64565b905080836002015f8282546130139190613cc7565b9250508190555050505050806001019050612f1a565b507f2b3815017a53df0f7a02daff8930fa0330e6091a501c5de817e0df95894bab1d84848460405161305d9392919061386a565b60405180910390a150505050565b5f600e5f8481526020019081526020015f208054905090505f5b8181101561322e578273ffffffffffffffffffffffffffffffffffffffff16600e5f8681526020019081526020015f2082815481106130c7576130c6613aad565b5b905f5260205f20015f9054906101000a900473ffffffffffffffffffffffffffffffffffffffff1673ffffffffffffffffffffffffffffffffffffffff160361322157600e5f8581526020019081526020015f206001836131289190613c94565b8154811061313957613138613aad565b5b905f5260205f20015f9054906101000a900473ffffffffffffffffffffffffffffffffffffffff16600e5f8681526020019081526020015f20828154811061318457613183613aad565b5b905f5260205f20015f6101000a81548173ffffffffffffffffffffffffffffffffffffffff021916908373ffffffffffffffffffffffffffffffffffffffff160217905550600e5f8581526020019081526020015f208054806131ea576131e9614101565b5b600190038181905f5260205f20015f6101000a81549073ffffffffffffffffffffffffffffffffffffffff0219169055905561322e565b8080600101915050613085565b50505050565b5f805f9054906101000a900473ffffffffffffffffffffffffffffffffffffffff169050815f806101000a81548173ffffffffffffffffffffffffffffffffffffffff021916908373ffffffffffffffffffffffffffffffffffffffff1602179055508173ffffffffffffffffffffffffffffffffffffffff168173ffffffffffffffffffffffffffffffffffffffff167f8be0079c531659141344cd1fd0a4f28419497f9722a3daafe3b4186f6b6457e060405160405180910390a35050565b5f60025f9054906101000a900473ffffffffffffffffffffffffffffffffffffffff1673ffffffffffffffffffffffffffffffffffffffff166327e235e3306040518263ffffffff1660e01b815260040161335091906138ec565b602060405180830381865afa15801561336b573d5f803e3d5ffd5b505050506040513d601f19601f8201168201806040525081019061338f9190613d76565b90508082111561343b5760025f9054906101000a900473ffffffffffffffffffffffffffffffffffffffff1673ffffffffffffffffffffffffffffffffffffffff1663a9059cbb84836040518363ffffffff1660e01b81526004016133f5929190613b42565b6020604051808303815f875af1158015613411573d5f803e3d5ffd5b505050506040513d601f19601f820116820180604052508101906134359190613b9e565b506134d9565b60025f9054906101000a900473ffffffffffffffffffffffffffffffffffffffff1673ffffffffffffffffffffffffffffffffffffffff1663a9059cbb84846040518363ffffffff1660e01b8152600401613497929190613b42565b6020604051808303815f875af11580156134b3573d5f803e3d5ffd5b505050506040513d601f19601f820116820180604052508101906134d79190613b9e565b505b505050565b5f600b8054905090505f5b818110156135ab578273ffffffffffffffffffffffffffffffffffffffff16600b828154811061351c5761351b613aad565b5b905f5260205f2090600602015f015f9054906101000a900473ffffffffffffffffffffffffffffffffffffffff1673ffffffffffffffffffffffffffffffffffffffff16036135a0576040517f08c379a000000000000000000000000000000000000000000000000000000000815260040161359790614178565b60405180910390fd5b8060010190506134e9565b505050565b5f33905090565b5f819050919050565b6135c9816135b7565b82525050565b5f6020820190506135e25f8301846135c0565b92915050565b5f80fd5b6135f5816135b7565b81146135ff575f80fd5b50565b5f81359050613610816135ec565b92915050565b5f6020828403121561362b5761362a6135e8565b5b5f61363884828501613602565b91505092915050565b5f81519050919050565b5f82825260208201905092915050565b5f819050602082019050919050565b5f73ffffffffffffffffffffffffffffffffffffffff82169050919050565b5f6136938261366a565b9050919050565b6136a381613689565b82525050565b5f6136b4838361369a565b60208301905092915050565b5f602082019050919050565b5f6136d682613641565b6136e0818561364b565b93506136eb8361365b565b805f5b8381101561371b57815161370288826136a9565b975061370d836136c0565b9250506001810190506136ee565b5085935050505092915050565b5f6020820190508181035f83015261374081846136cc565b905092915050565b5f819050919050565b5f61376b6137666137618461366a565b613748565b61366a565b9050919050565b5f61377c82613751565b9050919050565b5f61378d82613772565b9050919050565b61379d81613783565b82525050565b5f60c0820190506137b65f830189613794565b6137c360208301886135c0565b6137d060408301876135c0565b6137dd60608301866135c0565b6137ea60808301856135c0565b6137f760a08301846135c0565b979650505050505050565b61380b81613689565b8114613815575f80fd5b50565b5f8135905061382681613802565b92915050565b5f8060408385031215613842576138416135e8565b5b5f61384f85828601613602565b925050602061386085828601613818565b9150509250929050565b5f60608201905061387d5f8301866135c0565b61388a60208301856135c0565b61389760408301846135c0565b949350505050565b5f80604083850312156138b5576138b46135e8565b5b5f6138c285828601613602565b92505060206138d385828601613602565b9150509250929050565b6138e681613689565b82525050565b5f6020820190506138ff5f8301846138dd565b92915050565b5f61390f82613772565b9050919050565b61391f81613905565b82525050565b5f6020820190506139385f830184613916565b92915050565b5f6080820190506139515f8301876135c0565b61395e60208301866135c0565b61396b60408301856135c0565b61397860608301846135c0565b95945050505050565b5f60208284031215613996576139956135e8565b5b5f6139a384828501613818565b91505092915050565b5f805f606084860312156139c3576139c26135e8565b5b5f6139d086828701613602565b93505060206139e186828701613818565b92505060406139f286828701613602565b9150509250925092565b5f613a0682613772565b9050919050565b613a16816139fc565b82525050565b5f602082019050613a2f5f830184613a0d565b92915050565b5f82825260208201905092915050565b7f706f6f6c206e6f742065786973740000000000000000000000000000000000005f82015250565b5f613a79600e83613a35565b9150613a8482613a45565b602082019050919050565b5f6020820190508181035f830152613aa681613a6d565b9050919050565b7f4e487b71000000000000000000000000000000000000000000000000000000005f52603260045260245ffd5b7f5374616b696e6720706572696f64206e6f742079657420656e646564000000005f82015250565b5f613b0e601c83613a35565b9150613b1982613ada565b602082019050919050565b5f6020820190508181035f830152613b3b81613b02565b9050919050565b5f604082019050613b555f8301856138dd565b613b6260208301846135c0565b9392505050565b5f8115159050919050565b613b7d81613b69565b8114613b87575f80fd5b50565b5f81519050613b9881613b74565b92915050565b5f60208284031215613bb357613bb26135e8565b5b5f613bc084828501613b8a565b91505092915050565b7f4e487b71000000000000000000000000000000000000000000000000000000005f52601160045260245ffd5b5f613c00826135b7565b9150613c0b836135b7565b9250828202613c19816135b7565b91508282048414831517613c3057613c2f613bc9565b5b5092915050565b7f4e487b71000000000000000000000000000000000000000000000000000000005f52601260045260245ffd5b5f613c6e826135b7565b9150613c79836135b7565b925082613c8957613c88613c37565b5b828204905092915050565b5f613c9e826135b7565b9150613ca9836135b7565b9250828203905081811115613cc157613cc0613bc9565b5b92915050565b5f613cd1826135b7565b9150613cdc836135b7565b9250828201905080821115613cf457613cf3613bc9565b5b92915050565b7f77697468647261773a206e6f7420676f6f6400000000000000000000000000005f82015250565b5f613d2e601283613a35565b9150613d3982613cfa565b602082019050919050565b5f6020820190508181035f830152613d5b81613d22565b9050919050565b5f81519050613d70816135ec565b92915050565b5f60208284031215613d8b57613d8a6135e8565b5b5f613d9884828501613d62565b91505092915050565b5f60a082019050613db45f8301886138dd565b613dc160208301876135c0565b613dce60408301866135c0565b613ddb60608301856135c0565b613de860808301846135c0565b9695505050505050565b7f4d61782070657220626c6f636b2031303020424e4300000000000000000000005f82015250565b5f613e26601583613a35565b9150613e3182613df2565b602082019050919050565b5f6020820190508181035f830152613e5381613e1a565b9050919050565b7f4d696e2070657220626c6f636b20302e30303120424e430000000000000000005f82015250565b5f613e8e601783613a35565b9150613e9982613e5a565b602082019050919050565b5f6020820190508181035f830152613ebb81613e82565b9050919050565b7f50657263656e742053756d0000000000000000000000000000000000000000005f82015250565b5f613ef6600b83613a35565b9150613f0182613ec2565b602082019050919050565b5f6020820190508181035f830152613f2381613eea565b9050919050565b5f604082019050613f3d5f8301856135c0565b613f4a60208301846135c0565b9392505050565b7f456e642054696d65206d75737420626520696e207468652066757475726500005f82015250565b5f613f85601e83613a35565b9150613f9082613f51565b602082019050919050565b5f6020820190508181035f830152613fb281613f79565b9050919050565b7f7761697420666f72206e657720626c6f636b00000000000000000000000000005f82015250565b5f613fed601283613a35565b9150613ff882613fb9565b602082019050919050565b5f6020820190508181035f83015261401a81613fe1565b9050919050565b7f5a65726f000000000000000000000000000000000000000000000000000000005f82015250565b5f614055600483613a35565b915061406082614021565b602082019050919050565b5f6020820190508181035f83015261408281614049565b9050919050565b5f60808201905061409c5f8301876135c0565b6140a960208301866138dd565b6140b660408301856135c0565b6140c360608301846135c0565b95945050505050565b5f6060820190506140df5f8301866138dd565b6140ec60208301856138dd565b6140f960408301846135c0565b949350505050565b7f4e487b71000000000000000000000000000000000000000000000000000000005f52603160045260245ffd5b7f706f6f6c206578697374656400000000000000000000000000000000000000005f82015250565b5f614162600c83613a35565b915061416d8261412e565b602082019050919050565b5f6020820190508181035f83015261418f81614156565b905091905056fea2646970667358221220210c8b4cc934871af4d2b49084eee60ea481dddf9bc46e3d9ea0e92895a271cb64736f6c63430008170033",
			"opcodes": "PUSH1 0x80 PUSH1 0x40 MSTORE PUSH2 0x2710 PUSH1 0x4 SSTORE PUSH1 0x1 PUSH1 0x9 SSTORE PUSH0 PUSH1 0xF SSTORE PUSH0 PUSH1 0x10 SSTORE CALLVALUE DUP1 ISZERO PUSH3 0x23 JUMPI PUSH0 DUP1 REVERT JUMPDEST POP PUSH1 0x40 MLOAD PUSH3 0x4598 CODESIZE SUB DUP1 PUSH3 0x4598 DUP4 CODECOPY DUP2 DUP2 ADD PUSH1 0x40 MSTORE DUP2 ADD SWAP1 PUSH3 0x49 SWAP2 SWAP1 PUSH3 0x2E4 JUMP JUMPDEST DUP1 PUSH0 PUSH20 0xFFFFFFFFFFFFFFFFFFFFFFFFFFFFFFFFFFFFFFFF AND DUP2 PUSH20 0xFFFFFFFFFFFFFFFFFFFFFFFFFFFFFFFFFFFFFFFF AND SUB PUSH3 0xBD JUMPI PUSH0 PUSH1 0x40 MLOAD PUSH32 0x1E4FBDF700000000000000000000000000000000000000000000000000000000 DUP2 MSTORE PUSH1 0x4 ADD PUSH3 0xB4 SWAP2 SWAP1 PUSH3 0x3A3 JUMP JUMPDEST PUSH1 0x40 MLOAD DUP1 SWAP2 SUB SWAP1 REVERT JUMPDEST PUSH3 0xCE DUP2 PUSH3 0x186 PUSH1 0x20 SHL PUSH1 0x20 SHR JUMP JUMPDEST POP PUSH1 0x1 DUP1 DUP2 SWAP1 SSTORE POP DUP7 PUSH1 0x2 PUSH0 PUSH2 0x100 EXP DUP2 SLOAD DUP2 PUSH20 0xFFFFFFFFFFFFFFFFFFFFFFFFFFFFFFFFFFFFFFFF MUL NOT AND SWAP1 DUP4 PUSH20 0xFFFFFFFFFFFFFFFFFFFFFFFFFFFFFFFFFFFFFFFF AND MUL OR SWAP1 SSTORE POP DUP6 PUSH1 0x7 PUSH0 PUSH2 0x100 EXP DUP2 SLOAD DUP2 PUSH20 0xFFFFFFFFFFFFFFFFFFFFFFFFFFFFFFFFFFFFFFFF MUL NOT AND SWAP1 DUP4 PUSH20 0xFFFFFFFFFFFFFFFFFFFFFFFFFFFFFFFFFFFFFFFF AND MUL OR SWAP1 SSTORE POP DUP5 PUSH1 0x6 DUP2 SWAP1 SSTORE POP DUP4 PUSH1 0x5 DUP2 SWAP1 SSTORE POP DUP3 PUSH1 0x8 DUP2 SWAP1 SSTORE POP DUP2 PUSH1 0x11 DUP2 SWAP1 SSTORE POP DUP2 PUSH1 0xA DUP2 SWAP1 SSTORE POP POP POP POP POP POP POP POP PUSH3 0x3BE JUMP JUMPDEST PUSH0 DUP1 PUSH0 SWAP1 SLOAD SWAP1 PUSH2 0x100 EXP SWAP1 DIV PUSH20 0xFFFFFFFFFFFFFFFFFFFFFFFFFFFFFFFFFFFFFFFF AND SWAP1 POP DUP2 PUSH0 DUP1 PUSH2 0x100 EXP DUP2 SLOAD DUP2 PUSH20 0xFFFFFFFFFFFFFFFFFFFFFFFFFFFFFFFFFFFFFFFF MUL NOT AND SWAP1 DUP4 PUSH20 0xFFFFFFFFFFFFFFFFFFFFFFFFFFFFFFFFFFFFFFFF AND MUL OR SWAP1 SSTORE POP DUP2 PUSH20 0xFFFFFFFFFFFFFFFFFFFFFFFFFFFFFFFFFFFFFFFF AND DUP2 PUSH20 0xFFFFFFFFFFFFFFFFFFFFFFFFFFFFFFFFFFFFFFFF AND PUSH32 0x8BE0079C531659141344CD1FD0A4F28419497F9722A3DAAFE3B4186F6B6457E0 PUSH1 0x40 MLOAD PUSH1 0x40 MLOAD DUP1 SWAP2 SUB SWAP1 LOG3 POP POP JUMP JUMPDEST PUSH0 DUP1 REVERT JUMPDEST PUSH0 PUSH20 0xFFFFFFFFFFFFFFFFFFFFFFFFFFFFFFFFFFFFFFFF DUP3 AND SWAP1 POP SWAP2 SWAP1 POP JUMP JUMPDEST PUSH0 PUSH3 0x276 DUP3 PUSH3 0x24B JUMP JUMPDEST SWAP1 POP SWAP2 SWAP1 POP JUMP JUMPDEST PUSH3 0x288 DUP2 PUSH3 0x26A JUMP JUMPDEST DUP2 EQ PUSH3 0x293 JUMPI PUSH0 DUP1 REVERT JUMPDEST POP JUMP JUMPDEST PUSH0 DUP2 MLOAD SWAP1 POP PUSH3 0x2A6 DUP2 PUSH3 0x27D JUMP JUMPDEST SWAP3 SWAP2 POP POP JUMP JUMPDEST PUSH0 DUP2 SWAP1 POP SWAP2 SWAP1 POP JUMP JUMPDEST PUSH3 0x2C0 DUP2 PUSH3 0x2AC JUMP JUMPDEST DUP2 EQ PUSH3 0x2CB JUMPI PUSH0 DUP1 REVERT JUMPDEST POP JUMP JUMPDEST PUSH0 DUP2 MLOAD SWAP1 POP PUSH3 0x2DE DUP2 PUSH3 0x2B5 JUMP JUMPDEST SWAP3 SWAP2 POP POP JUMP JUMPDEST PUSH0 DUP1 PUSH0 DUP1 PUSH0 DUP1 PUSH0 PUSH1 0xE0 DUP9 DUP11 SUB SLT ISZERO PUSH3 0x302 JUMPI PUSH3 0x301 PUSH3 0x247 JUMP JUMPDEST JUMPDEST PUSH0 PUSH3 0x311 DUP11 DUP3 DUP12 ADD PUSH3 0x296 JUMP JUMPDEST SWAP8 POP POP PUSH1 0x20 PUSH3 0x324 DUP11 DUP3 DUP12 ADD PUSH3 0x296 JUMP JUMPDEST SWAP7 POP POP PUSH1 0x40 PUSH3 0x337 DUP11 DUP3 DUP12 ADD PUSH3 0x2CE JUMP JUMPDEST SWAP6 POP POP PUSH1 0x60 PUSH3 0x34A DUP11 DUP3 DUP12 ADD PUSH3 0x2CE JUMP JUMPDEST SWAP5 POP POP PUSH1 0x80 PUSH3 0x35D DUP11 DUP3 DUP12 ADD PUSH3 0x2CE JUMP JUMPDEST SWAP4 POP POP PUSH1 0xA0 PUSH3 0x370 DUP11 DUP3 DUP12 ADD PUSH3 0x2CE JUMP JUMPDEST SWAP3 POP POP PUSH1 0xC0 PUSH3 0x383 DUP11 DUP3 DUP12 ADD PUSH3 0x296 JUMP JUMPDEST SWAP2 POP POP SWAP3 SWAP6 SWAP9 SWAP2 SWAP5 SWAP8 POP SWAP3 SWAP6 POP JUMP JUMPDEST PUSH3 0x39D DUP2 PUSH3 0x26A JUMP JUMPDEST DUP3 MSTORE POP POP JUMP JUMPDEST PUSH0 PUSH1 0x20 DUP3 ADD SWAP1 POP PUSH3 0x3B8 PUSH0 DUP4 ADD DUP5 PUSH3 0x392 JUMP JUMPDEST SWAP3 SWAP2 POP POP JUMP JUMPDEST PUSH2 0x41CC DUP1 PUSH3 0x3CC PUSH0 CODECOPY PUSH0 RETURN INVALID PUSH1 0x80 PUSH1 0x40 MSTORE CALLVALUE DUP1 ISZERO PUSH2 0xF JUMPI PUSH0 DUP1 REVERT JUMPDEST POP PUSH1 0x4 CALLDATASIZE LT PUSH2 0x288 JUMPI PUSH0 CALLDATALOAD PUSH1 0xE0 SHR DUP1 PUSH4 0x8AA28550 GT PUSH2 0x15A JUMPI DUP1 PUSH4 0xC2E40266 GT PUSH2 0xCC JUMPI DUP1 PUSH4 0xE2BBB158 GT PUSH2 0x85 JUMPI DUP1 PUSH4 0xE2BBB158 EQ PUSH2 0x7E0 JUMPI DUP1 PUSH4 0xE88E0E3A EQ PUSH2 0x7FC JUMPI DUP1 PUSH4 0xEAB44314 EQ PUSH2 0x81A JUMPI DUP1 PUSH4 0xF2747099 EQ PUSH2 0x84A JUMPI DUP1 PUSH4 0xF29588C7 EQ PUSH2 0x87A JUMPI DUP1 PUSH4 0xF2FDE38B EQ PUSH2 0x898 JUMPI PUSH2 0x288 JUMP JUMPDEST DUP1 PUSH4 0xC2E40266 EQ PUSH2 0x732 JUMPI DUP1 PUSH4 0xC6A37CB8 EQ PUSH2 0x762 JUMPI DUP1 PUSH4 0xCB93F7EF EQ PUSH2 0x780 JUMPI DUP1 PUSH4 0xD0D41FE1 EQ PUSH2 0x78A JUMPI DUP1 PUSH4 0xD84439D5 EQ PUSH2 0x7A6 JUMPI DUP1 PUSH4 0xE12DA02E EQ PUSH2 0x7C2 JUMPI PUSH2 0x288 JUMP JUMPDEST DUP1 PUSH4 0xABB76268 GT PUSH2 0x11E JUMPI DUP1 PUSH4 0xABB76268 EQ PUSH2 0x65A JUMPI DUP1 PUSH4 0xB76E360C EQ PUSH2 0x676 JUMPI DUP1 PUSH4 0xBB7EF61F EQ PUSH2 0x694 JUMPI DUP1 PUSH4 0xBD62A7D9 EQ PUSH2 0x6C6 JUMPI DUP1 PUSH4 0xBE1193EA EQ PUSH2 0x6E4 JUMPI DUP1 PUSH4 0xBFA621F5 EQ PUSH2 0x702 JUMPI PUSH2 0x288 JUMP JUMPDEST DUP1 PUSH4 0x8AA28550 EQ PUSH2 0x59F JUMPI DUP1 PUSH4 0x8DA5CB5B EQ PUSH2 0x5BD JUMPI DUP1 PUSH4 0x8DBB1E3A EQ PUSH2 0x5DB JUMPI DUP1 PUSH4 0x93F1A40B EQ PUSH2 0x60B JUMPI DUP1 PUSH4 0xA5981E7B EQ PUSH2 0x63E JUMPI PUSH2 0x288 JUMP JUMPDEST DUP1 PUSH4 0x48CD4CB1 GT PUSH2 0x1FE JUMPI DUP1 PUSH4 0x70D6FCBD GT PUSH2 0x1B7 JUMPI DUP1 PUSH4 0x70D6FCBD EQ PUSH2 0x4F1 JUMPI DUP1 PUSH4 0x715018A6 EQ PUSH2 0x521 JUMPI DUP1 PUSH4 0x73D4A13A EQ PUSH2 0x52B JUMPI DUP1 PUSH4 0x7709FC4B EQ PUSH2 0x549 JUMPI DUP1 PUSH4 0x87831B43 EQ PUSH2 0x565 JUMPI DUP1 PUSH4 0x8A50BB36 EQ PUSH2 0x583 JUMPI PUSH2 0x288 JUMP JUMPDEST DUP1 PUSH4 0x48CD4CB1 EQ PUSH2 0x431 JUMPI DUP1 PUSH4 0x48FEC104 EQ PUSH2 0x44F JUMPI DUP1 PUSH4 0x4E0F4E9F EQ PUSH2 0x47F JUMPI DUP1 PUSH4 0x51EB05A6 EQ PUSH2 0x4AF JUMPI DUP1 PUSH4 0x5312EA8E EQ PUSH2 0x4CB JUMPI DUP1 PUSH4 0x630B5BA1 EQ PUSH2 0x4E7 JUMPI PUSH2 0x288 JUMP JUMPDEST DUP1 PUSH4 0x16090615 GT PUSH2 0x250 JUMPI DUP1 PUSH4 0x16090615 EQ PUSH2 0x35B JUMPI DUP1 PUSH4 0x172728CC EQ PUSH2 0x38D JUMPI DUP1 PUSH4 0x17CAF6F1 EQ PUSH2 0x3BD JUMPI DUP1 PUSH4 0x1AB06EE5 EQ PUSH2 0x3DB JUMPI DUP1 PUSH4 0x21B1AECB EQ PUSH2 0x3F7 JUMPI DUP1 PUSH4 0x441A3E70 EQ PUSH2 0x415 JUMPI PUSH2 0x288 JUMP JUMPDEST DUP1 PUSH4 0x81E3EDA EQ PUSH2 0x28C JUMPI DUP1 PUSH4 0xBD399FD EQ PUSH2 0x2AA JUMPI DUP1 PUSH4 0xD25B679 EQ PUSH2 0x2C6 JUMPI DUP1 PUSH4 0x15155ADD EQ PUSH2 0x2F6 JUMPI DUP1 PUSH4 0x1526FE27 EQ PUSH2 0x326 JUMPI JUMPDEST PUSH0 DUP1 REVERT JUMPDEST PUSH2 0x294 PUSH2 0x8B4 JUMP JUMPDEST PUSH1 0x40 MLOAD PUSH2 0x2A1 SWAP2 SWAP1 PUSH2 0x35CF JUMP JUMPDEST PUSH1 0x40 MLOAD DUP1 SWAP2 SUB SWAP1 RETURN JUMPDEST PUSH2 0x2C4 PUSH1 0x4 DUP1 CALLDATASIZE SUB DUP2 ADD SWAP1 PUSH2 0x2BF SWAP2 SWAP1 PUSH2 0x3616 JUMP JUMPDEST PUSH2 0x8C0 JUMP JUMPDEST STOP JUMPDEST PUSH2 0x2E0 PUSH1 0x4 DUP1 CALLDATASIZE SUB DUP2 ADD SWAP1 PUSH2 0x2DB SWAP2 SWAP1 PUSH2 0x3616 JUMP JUMPDEST PUSH2 0xB1D JUMP JUMPDEST PUSH1 0x40 MLOAD PUSH2 0x2ED SWAP2 SWAP1 PUSH2 0x35CF JUMP JUMPDEST PUSH1 0x40 MLOAD DUP1 SWAP2 SUB SWAP1 RETURN JUMPDEST PUSH2 0x310 PUSH1 0x4 DUP1 CALLDATASIZE SUB DUP2 ADD SWAP1 PUSH2 0x30B SWAP2 SWAP1 PUSH2 0x3616 JUMP JUMPDEST PUSH2 0xB26 JUMP JUMPDEST PUSH1 0x40 MLOAD PUSH2 0x31D SWAP2 SWAP1 PUSH2 0x3728 JUMP JUMPDEST PUSH1 0x40 MLOAD DUP1 SWAP2 SUB SWAP1 RETURN JUMPDEST PUSH2 0x340 PUSH1 0x4 DUP1 CALLDATASIZE SUB DUP2 ADD SWAP1 PUSH2 0x33B SWAP2 SWAP1 PUSH2 0x3616 JUMP JUMPDEST PUSH2 0xBC2 JUMP JUMPDEST PUSH1 0x40 MLOAD PUSH2 0x352 SWAP7 SWAP6 SWAP5 SWAP4 SWAP3 SWAP2 SWAP1 PUSH2 0x37A3 JUMP JUMPDEST PUSH1 0x40 MLOAD DUP1 SWAP2 SUB SWAP1 RETURN JUMPDEST PUSH2 0x375 PUSH1 0x4 DUP1 CALLDATASIZE SUB DUP2 ADD SWAP1 PUSH2 0x370 SWAP2 SWAP1 PUSH2 0x382C JUMP JUMPDEST PUSH2 0xC28 JUMP JUMPDEST PUSH1 0x40 MLOAD PUSH2 0x384 SWAP4 SWAP3 SWAP2 SWAP1 PUSH2 0x386A JUMP JUMPDEST PUSH1 0x40 MLOAD DUP1 SWAP2 SUB SWAP1 RETURN JUMPDEST PUSH2 0x3A7 PUSH1 0x4 DUP1 CALLDATASIZE SUB DUP2 ADD SWAP1 PUSH2 0x3A2 SWAP2 SWAP1 PUSH2 0x389F JUMP JUMPDEST PUSH2 0xC59 JUMP JUMPDEST PUSH1 0x40 MLOAD PUSH2 0x3B4 SWAP2 SWAP1 PUSH2 0x38EC JUMP JUMPDEST PUSH1 0x40 MLOAD DUP1 SWAP2 SUB SWAP1 RETURN JUMPDEST PUSH2 0x3C5 PUSH2 0xCA1 JUMP JUMPDEST PUSH1 0x40 MLOAD PUSH2 0x3D2 SWAP2 SWAP1 PUSH2 0x35CF JUMP JUMPDEST PUSH1 0x40 MLOAD DUP1 SWAP2 SUB SWAP1 RETURN JUMPDEST PUSH2 0x3F5 PUSH1 0x4 DUP1 CALLDATASIZE SUB DUP2 ADD SWAP1 PUSH2 0x3F0 SWAP2 SWAP1 PUSH2 0x389F JUMP JUMPDEST PUSH2 0xCA7 JUMP JUMPDEST STOP JUMPDEST PUSH2 0x3FF PUSH2 0xD6E JUMP JUMPDEST PUSH1 0x40 MLOAD PUSH2 0x40C SWAP2 SWAP1 PUSH2 0x35CF JUMP JUMPDEST PUSH1 0x40 MLOAD DUP1 SWAP2 SUB SWAP1 RETURN JUMPDEST PUSH2 0x42F PUSH1 0x4 DUP1 CALLDATASIZE SUB DUP2 ADD SWAP1 PUSH2 0x42A SWAP2 SWAP1 PUSH2 0x389F JUMP JUMPDEST PUSH2 0xD74 JUMP JUMPDEST STOP JUMPDEST PUSH2 0x439 PUSH2 0x101C JUMP JUMPDEST PUSH1 0x40 MLOAD PUSH2 0x446 SWAP2 SWAP1 PUSH2 0x35CF JUMP JUMPDEST PUSH1 0x40 MLOAD DUP1 SWAP2 SUB SWAP1 RETURN JUMPDEST PUSH2 0x469 PUSH1 0x4 DUP1 CALLDATASIZE SUB DUP2 ADD SWAP1 PUSH2 0x464 SWAP2 SWAP1 PUSH2 0x3616 JUMP JUMPDEST PUSH2 0x1022 JUMP JUMPDEST PUSH1 0x40 MLOAD PUSH2 0x476 SWAP2 SWAP1 PUSH2 0x35CF JUMP JUMPDEST PUSH1 0x40 MLOAD DUP1 SWAP2 SUB SWAP1 RETURN JUMPDEST PUSH2 0x499 PUSH1 0x4 DUP1 CALLDATASIZE SUB DUP2 ADD SWAP1 PUSH2 0x494 SWAP2 SWAP1 PUSH2 0x382C JUMP JUMPDEST PUSH2 0x114D JUMP JUMPDEST PUSH1 0x40 MLOAD PUSH2 0x4A6 SWAP2 SWAP1 PUSH2 0x35CF JUMP JUMPDEST PUSH1 0x40 MLOAD DUP1 SWAP2 SUB SWAP1 RETURN JUMPDEST PUSH2 0x4C9 PUSH1 0x4 DUP1 CALLDATASIZE SUB DUP2 ADD SWAP1 PUSH2 0x4C4 SWAP2 SWAP1 PUSH2 0x3616 JUMP JUMPDEST PUSH2 0x1393 JUMP JUMPDEST STOP JUMPDEST PUSH2 0x4E5 PUSH1 0x4 DUP1 CALLDATASIZE SUB DUP2 ADD SWAP1 PUSH2 0x4E0 SWAP2 SWAP1 PUSH2 0x3616 JUMP JUMPDEST PUSH2 0x15E9 JUMP JUMPDEST STOP JUMPDEST PUSH2 0x4EF PUSH2 0x19DA JUMP JUMPDEST STOP JUMPDEST PUSH2 0x50B PUSH1 0x4 DUP1 CALLDATASIZE SUB DUP2 ADD SWAP1 PUSH2 0x506 SWAP2 SWAP1 PUSH2 0x382C JUMP JUMPDEST PUSH2 0x1A05 JUMP JUMPDEST PUSH1 0x40 MLOAD PUSH2 0x518 SWAP2 SWAP1 PUSH2 0x35CF JUMP JUMPDEST PUSH1 0x40 MLOAD DUP1 SWAP2 SUB SWAP1 RETURN JUMPDEST PUSH2 0x529 PUSH2 0x1B6C JUMP JUMPDEST STOP JUMPDEST PUSH2 0x533 PUSH2 0x1B7F JUMP JUMPDEST PUSH1 0x40 MLOAD PUSH2 0x540 SWAP2 SWAP1 PUSH2 0x3925 JUMP JUMPDEST PUSH1 0x40 MLOAD DUP1 SWAP2 SUB SWAP1 RETURN JUMPDEST PUSH2 0x563 PUSH1 0x4 DUP1 CALLDATASIZE SUB DUP2 ADD SWAP1 PUSH2 0x55E SWAP2 SWAP1 PUSH2 0x3616 JUMP JUMPDEST PUSH2 0x1BA4 JUMP JUMPDEST STOP JUMPDEST PUSH2 0x56D PUSH2 0x1C85 JUMP JUMPDEST PUSH1 0x40 MLOAD PUSH2 0x57A SWAP2 SWAP1 PUSH2 0x35CF JUMP JUMPDEST PUSH1 0x40 MLOAD DUP1 SWAP2 SUB SWAP1 RETURN JUMPDEST PUSH2 0x59D PUSH1 0x4 DUP1 CALLDATASIZE SUB DUP2 ADD SWAP1 PUSH2 0x598 SWAP2 SWAP1 PUSH2 0x3616 JUMP JUMPDEST PUSH2 0x1C8E JUMP JUMPDEST STOP JUMPDEST PUSH2 0x5A7 PUSH2 0x1E30 JUMP JUMPDEST PUSH1 0x40 MLOAD PUSH2 0x5B4 SWAP2 SWAP1 PUSH2 0x35CF JUMP JUMPDEST PUSH1 0x40 MLOAD DUP1 SWAP2 SUB SWAP1 RETURN JUMPDEST PUSH2 0x5C5 PUSH2 0x1E36 JUMP JUMPDEST PUSH1 0x40 MLOAD PUSH2 0x5D2 SWAP2 SWAP1 PUSH2 0x38EC JUMP JUMPDEST PUSH1 0x40 MLOAD DUP1 SWAP2 SUB SWAP1 RETURN JUMPDEST PUSH2 0x5F5 PUSH1 0x4 DUP1 CALLDATASIZE SUB DUP2 ADD SWAP1 PUSH2 0x5F0 SWAP2 SWAP1 PUSH2 0x389F JUMP JUMPDEST PUSH2 0x1E5D JUMP JUMPDEST PUSH1 0x40 MLOAD PUSH2 0x602 SWAP2 SWAP1 PUSH2 0x35CF JUMP JUMPDEST PUSH1 0x40 MLOAD DUP1 SWAP2 SUB SWAP1 RETURN JUMPDEST PUSH2 0x625 PUSH1 0x4 DUP1 CALLDATASIZE SUB DUP2 ADD SWAP1 PUSH2 0x620 SWAP2 SWAP1 PUSH2 0x382C JUMP JUMPDEST PUSH2 0x1E7F JUMP JUMPDEST PUSH1 0x40 MLOAD PUSH2 0x635 SWAP5 SWAP4 SWAP3 SWAP2 SWAP1 PUSH2 0x393E JUMP JUMPDEST PUSH1 0x40 MLOAD DUP1 SWAP2 SUB SWAP1 RETURN JUMPDEST PUSH2 0x658 PUSH1 0x4 DUP1 CALLDATASIZE SUB DUP2 ADD SWAP1 PUSH2 0x653 SWAP2 SWAP1 PUSH2 0x389F JUMP JUMPDEST PUSH2 0x1EB6 JUMP JUMPDEST STOP JUMPDEST PUSH2 0x674 PUSH1 0x4 DUP1 CALLDATASIZE SUB DUP2 ADD SWAP1 PUSH2 0x66F SWAP2 SWAP1 PUSH2 0x389F JUMP JUMPDEST PUSH2 0x1F62 JUMP JUMPDEST STOP JUMPDEST PUSH2 0x67E PUSH2 0x2042 JUMP JUMPDEST PUSH1 0x40 MLOAD PUSH2 0x68B SWAP2 SWAP1 PUSH2 0x35CF JUMP JUMPDEST PUSH1 0x40 MLOAD DUP1 SWAP2 SUB SWAP1 RETURN JUMPDEST PUSH2 0x6AE PUSH1 0x4 DUP1 CALLDATASIZE SUB DUP2 ADD SWAP1 PUSH2 0x6A9 SWAP2 SWAP1 PUSH2 0x382C JUMP JUMPDEST PUSH2 0x2048 JUMP JUMPDEST PUSH1 0x40 MLOAD PUSH2 0x6BD SWAP4 SWAP3 SWAP2 SWAP1 PUSH2 0x386A JUMP JUMPDEST PUSH1 0x40 MLOAD DUP1 SWAP2 SUB SWAP1 RETURN JUMPDEST PUSH2 0x6CE PUSH2 0x2085 JUMP JUMPDEST PUSH1 0x40 MLOAD PUSH2 0x6DB SWAP2 SWAP1 PUSH2 0x35CF JUMP JUMPDEST PUSH1 0x40 MLOAD DUP1 SWAP2 SUB SWAP1 RETURN JUMPDEST PUSH2 0x6EC PUSH2 0x208B JUMP JUMPDEST PUSH1 0x40 MLOAD PUSH2 0x6F9 SWAP2 SWAP1 PUSH2 0x35CF JUMP JUMPDEST PUSH1 0x40 MLOAD DUP1 SWAP2 SUB SWAP1 RETURN JUMPDEST PUSH2 0x71C PUSH1 0x4 DUP1 CALLDATASIZE SUB DUP2 ADD SWAP1 PUSH2 0x717 SWAP2 SWAP1 PUSH2 0x3616 JUMP JUMPDEST PUSH2 0x2091 JUMP JUMPDEST PUSH1 0x40 MLOAD PUSH2 0x729 SWAP2 SWAP1 PUSH2 0x35CF JUMP JUMPDEST PUSH1 0x40 MLOAD DUP1 SWAP2 SUB SWAP1 RETURN JUMPDEST PUSH2 0x74C PUSH1 0x4 DUP1 CALLDATASIZE SUB DUP2 ADD SWAP1 PUSH2 0x747 SWAP2 SWAP1 PUSH2 0x382C JUMP JUMPDEST PUSH2 0x20E1 JUMP JUMPDEST PUSH1 0x40 MLOAD PUSH2 0x759 SWAP2 SWAP1 PUSH2 0x35CF JUMP JUMPDEST PUSH1 0x40 MLOAD DUP1 SWAP2 SUB SWAP1 RETURN JUMPDEST PUSH2 0x76A PUSH2 0x2242 JUMP JUMPDEST PUSH1 0x40 MLOAD PUSH2 0x777 SWAP2 SWAP1 PUSH2 0x35CF JUMP JUMPDEST PUSH1 0x40 MLOAD DUP1 SWAP2 SUB SWAP1 RETURN JUMPDEST PUSH2 0x788 PUSH2 0x2248 JUMP JUMPDEST STOP JUMPDEST PUSH2 0x7A4 PUSH1 0x4 DUP1 CALLDATASIZE SUB DUP2 ADD SWAP1 PUSH2 0x79F SWAP2 SWAP1 PUSH2 0x3981 JUMP JUMPDEST PUSH2 0x2380 JUMP JUMPDEST STOP JUMPDEST PUSH2 0x7C0 PUSH1 0x4 DUP1 CALLDATASIZE SUB DUP2 ADD SWAP1 PUSH2 0x7BB SWAP2 SWAP1 PUSH2 0x39AC JUMP JUMPDEST PUSH2 0x249D JUMP JUMPDEST STOP JUMPDEST PUSH2 0x7CA PUSH2 0x266F JUMP JUMPDEST PUSH1 0x40 MLOAD PUSH2 0x7D7 SWAP2 SWAP1 PUSH2 0x35CF JUMP JUMPDEST PUSH1 0x40 MLOAD DUP1 SWAP2 SUB SWAP1 RETURN JUMPDEST PUSH2 0x7FA PUSH1 0x4 DUP1 CALLDATASIZE SUB DUP2 ADD SWAP1 PUSH2 0x7F5 SWAP2 SWAP1 PUSH2 0x389F JUMP JUMPDEST PUSH2 0x2675 JUMP JUMPDEST STOP JUMPDEST PUSH2 0x804 PUSH2 0x2938 JUMP JUMPDEST PUSH1 0x40 MLOAD PUSH2 0x811 SWAP2 SWAP1 PUSH2 0x38EC JUMP JUMPDEST PUSH1 0x40 MLOAD DUP1 SWAP2 SUB SWAP1 RETURN JUMPDEST PUSH2 0x834 PUSH1 0x4 DUP1 CALLDATASIZE SUB DUP2 ADD SWAP1 PUSH2 0x82F SWAP2 SWAP1 PUSH2 0x382C JUMP JUMPDEST PUSH2 0x295D JUMP JUMPDEST PUSH1 0x40 MLOAD PUSH2 0x841 SWAP2 SWAP1 PUSH2 0x35CF JUMP JUMPDEST PUSH1 0x40 MLOAD DUP1 SWAP2 SUB SWAP1 RETURN JUMPDEST PUSH2 0x864 PUSH1 0x4 DUP1 CALLDATASIZE SUB DUP2 ADD SWAP1 PUSH2 0x85F SWAP2 SWAP1 PUSH2 0x382C JUMP JUMPDEST PUSH2 0x2BC4 JUMP JUMPDEST PUSH1 0x40 MLOAD PUSH2 0x871 SWAP2 SWAP1 PUSH2 0x35CF JUMP JUMPDEST PUSH1 0x40 MLOAD DUP1 SWAP2 SUB SWAP1 RETURN JUMPDEST PUSH2 0x882 PUSH2 0x2C69 JUMP JUMPDEST PUSH1 0x40 MLOAD PUSH2 0x88F SWAP2 SWAP1 PUSH2 0x3A1C JUMP JUMPDEST PUSH1 0x40 MLOAD DUP1 SWAP2 SUB SWAP1 RETURN JUMPDEST PUSH2 0x8B2 PUSH1 0x4 DUP1 CALLDATASIZE SUB DUP2 ADD SWAP1 PUSH2 0x8AD SWAP2 SWAP1 PUSH2 0x3981 JUMP JUMPDEST PUSH2 0x2C8E JUMP JUMPDEST STOP JUMPDEST PUSH0 PUSH1 0xB DUP1 SLOAD SWAP1 POP SWAP1 POP SWAP1 JUMP JUMPDEST PUSH2 0x8C8 PUSH2 0x2D12 JUMP JUMPDEST DUP1 PUSH1 0xB DUP1 SLOAD SWAP1 POP DUP2 LT PUSH2 0x910 JUMPI PUSH1 0x40 MLOAD PUSH32 0x8C379A000000000000000000000000000000000000000000000000000000000 DUP2 MSTORE PUSH1 0x4 ADD PUSH2 0x907 SWAP1 PUSH2 0x3A8F JUMP JUMPDEST PUSH1 0x40 MLOAD DUP1 SWAP2 SUB SWAP1 REVERT JUMPDEST PUSH0 PUSH1 0xB DUP4 DUP2 SLOAD DUP2 LT PUSH2 0x925 JUMPI PUSH2 0x924 PUSH2 0x3AAD JUMP JUMPDEST JUMPDEST SWAP1 PUSH0 MSTORE PUSH1 0x20 PUSH0 KECCAK256 SWAP1 PUSH1 0x6 MUL ADD SWAP1 POP PUSH0 PUSH1 0xC PUSH0 DUP6 DUP2 MSTORE PUSH1 0x20 ADD SWAP1 DUP2 MSTORE PUSH1 0x20 ADD PUSH0 KECCAK256 PUSH0 CALLER PUSH20 0xFFFFFFFFFFFFFFFFFFFFFFFFFFFFFFFFFFFFFFFF AND PUSH20 0xFFFFFFFFFFFFFFFFFFFFFFFFFFFFFFFFFFFFFFFF AND DUP2 MSTORE PUSH1 0x20 ADD SWAP1 DUP2 MSTORE PUSH1 0x20 ADD PUSH0 KECCAK256 SWAP1 POP DUP2 PUSH1 0x4 ADD SLOAD TIMESTAMP LT ISZERO PUSH2 0x9C9 JUMPI PUSH1 0x40 MLOAD PUSH32 0x8C379A000000000000000000000000000000000000000000000000000000000 DUP2 MSTORE PUSH1 0x4 ADD PUSH2 0x9C0 SWAP1 PUSH2 0x3B24 JUMP JUMPDEST PUSH1 0x40 MLOAD DUP1 SWAP2 SUB SWAP1 REVERT JUMPDEST PUSH2 0x9D2 DUP5 PUSH2 0x1393 JUMP JUMPDEST PUSH2 0x9DC DUP5 CALLER PUSH2 0x2D58 JUMP JUMPDEST PUSH2 0x9E5 DUP5 PUSH2 0x1C8E JUMP JUMPDEST PUSH0 DUP2 PUSH0 ADD SLOAD GT ISZERO PUSH2 0xA92 JUMPI DUP2 PUSH0 ADD PUSH0 SWAP1 SLOAD SWAP1 PUSH2 0x100 EXP SWAP1 DIV PUSH20 0xFFFFFFFFFFFFFFFFFFFFFFFFFFFFFFFFFFFFFFFF AND PUSH20 0xFFFFFFFFFFFFFFFFFFFFFFFFFFFFFFFFFFFFFFFF AND PUSH4 0xA9059CBB CALLER DUP4 PUSH0 ADD SLOAD PUSH1 0x40 MLOAD DUP4 PUSH4 0xFFFFFFFF AND PUSH1 0xE0 SHL DUP2 MSTORE PUSH1 0x4 ADD PUSH2 0xA50 SWAP3 SWAP2 SWAP1 PUSH2 0x3B42 JUMP JUMPDEST PUSH1 0x20 PUSH1 0x40 MLOAD DUP1 DUP4 SUB DUP2 PUSH0 DUP8 GAS CALL ISZERO DUP1 ISZERO PUSH2 0xA6C JUMPI RETURNDATASIZE PUSH0 DUP1 RETURNDATACOPY RETURNDATASIZE PUSH0 REVERT JUMPDEST POP POP POP POP PUSH1 0x40 MLOAD RETURNDATASIZE PUSH1 0x1F NOT PUSH1 0x1F DUP3 ADD AND DUP3 ADD DUP1 PUSH1 0x40 MSTORE POP DUP2 ADD SWAP1 PUSH2 0xA90 SWAP2 SWAP1 PUSH2 0x3B9E JUMP JUMPDEST POP JUMPDEST PUSH5 0xE8D4A51000 DUP3 PUSH1 0x3 ADD SLOAD DUP3 PUSH0 ADD SLOAD PUSH2 0xAAB SWAP2 SWAP1 PUSH2 0x3BF6 JUMP JUMPDEST PUSH2 0xAB5 SWAP2 SWAP1 PUSH2 0x3C64 JUMP JUMPDEST DUP2 PUSH1 0x1 ADD DUP2 SWAP1 SSTORE POP DUP4 CALLER PUSH20 0xFFFFFFFFFFFFFFFFFFFFFFFFFFFFFFFFFFFFFFFF AND PUSH32 0xF279E6A1F5E320CCA91135676D9CB6E44CA8A08C0B88342BCDB1144F6511B568 DUP4 PUSH0 ADD SLOAD PUSH1 0x40 MLOAD PUSH2 0xB07 SWAP2 SWAP1 PUSH2 0x35CF JUMP JUMPDEST PUSH1 0x40 MLOAD DUP1 SWAP2 SUB SWAP1 LOG3 POP POP POP PUSH2 0xB1A PUSH2 0x2E70 JUMP JUMPDEST POP JUMP JUMPDEST PUSH0 DUP2 SWAP1 POP SWAP2 SWAP1 POP JUMP JUMPDEST PUSH1 0x60 PUSH1 0xE PUSH0 DUP4 DUP2 MSTORE PUSH1 0x20 ADD SWAP1 DUP2 MSTORE PUSH1 0x20 ADD PUSH0 KECCAK256 DUP1 SLOAD DUP1 PUSH1 0x20 MUL PUSH1 0x20 ADD PUSH1 0x40 MLOAD SWAP1 DUP2 ADD PUSH1 0x40 MSTORE DUP1 SWAP3 SWAP2 SWAP1 DUP2 DUP2 MSTORE PUSH1 0x20 ADD DUP3 DUP1 SLOAD DUP1 ISZERO PUSH2 0xBB6 JUMPI PUSH1 0x20 MUL DUP3 ADD SWAP2 SWAP1 PUSH0 MSTORE PUSH1 0x20 PUSH0 KECCAK256 SWAP1 JUMPDEST DUP2 PUSH0 SWAP1 SLOAD SWAP1 PUSH2 0x100 EXP SWAP1 DIV PUSH20 0xFFFFFFFFFFFFFFFFFFFFFFFFFFFFFFFFFFFFFFFF AND PUSH20 0xFFFFFFFFFFFFFFFFFFFFFFFFFFFFFFFFFFFFFFFF AND DUP2 MSTORE PUSH1 0x20 ADD SWAP1 PUSH1 0x1 ADD SWAP1 DUP1 DUP4 GT PUSH2 0xB6D JUMPI JUMPDEST POP POP POP POP POP SWAP1 POP SWAP2 SWAP1 POP JUMP JUMPDEST PUSH1 0xB DUP2 DUP2 SLOAD DUP2 LT PUSH2 0xBD1 JUMPI PUSH0 DUP1 REVERT JUMPDEST SWAP1 PUSH0 MSTORE PUSH1 0x20 PUSH0 KECCAK256 SWAP1 PUSH1 0x6 MUL ADD PUSH0 SWAP2 POP SWAP1 POP DUP1 PUSH0 ADD PUSH0 SWAP1 SLOAD SWAP1 PUSH2 0x100 EXP SWAP1 DIV PUSH20 0xFFFFFFFFFFFFFFFFFFFFFFFFFFFFFFFFFFFFFFFF AND SWAP1 DUP1 PUSH1 0x1 ADD SLOAD SWAP1 DUP1 PUSH1 0x2 ADD SLOAD SWAP1 DUP1 PUSH1 0x3 ADD SLOAD SWAP1 DUP1 PUSH1 0x4 ADD SLOAD SWAP1 DUP1 PUSH1 0x5 ADD SLOAD SWAP1 POP DUP7 JUMP JUMPDEST PUSH1 0xD PUSH1 0x20 MSTORE DUP2 PUSH0 MSTORE PUSH1 0x40 PUSH0 KECCAK256 PUSH1 0x20 MSTORE DUP1 PUSH0 MSTORE PUSH1 0x40 PUSH0 KECCAK256 PUSH0 SWAP2 POP SWAP2 POP POP DUP1 PUSH0 ADD SLOAD SWAP1 DUP1 PUSH1 0x1 ADD SLOAD SWAP1 DUP1 PUSH1 0x2 ADD SLOAD SWAP1 POP DUP4 JUMP JUMPDEST PUSH1 0xE PUSH1 0x20 MSTORE DUP2 PUSH0 MSTORE PUSH1 0x40 PUSH0 KECCAK256 DUP2 DUP2 SLOAD DUP2 LT PUSH2 0xC72 JUMPI PUSH0 DUP1 REVERT JUMPDEST SWAP1 PUSH0 MSTORE PUSH1 0x20 PUSH0 KECCAK256 ADD PUSH0 SWAP2 POP SWAP2 POP SWAP1 SLOAD SWAP1 PUSH2 0x100 EXP SWAP1 DIV PUSH20 0xFFFFFFFFFFFFFFFFFFFFFFFFFFFFFFFFFFFFFFFF AND DUP2 JUMP JUMPDEST PUSH1 0x10 SLOAD DUP2 JUMP JUMPDEST PUSH2 0xCAF PUSH2 0x2E79 JUMP JUMPDEST DUP2 PUSH1 0xB DUP1 SLOAD SWAP1 POP DUP2 LT PUSH2 0xCF7 JUMPI PUSH1 0x40 MLOAD PUSH32 0x8C379A000000000000000000000000000000000000000000000000000000000 DUP2 MSTORE PUSH1 0x4 ADD PUSH2 0xCEE SWAP1 PUSH2 0x3A8F JUMP JUMPDEST PUSH1 0x40 MLOAD DUP1 SWAP2 SUB SWAP1 REVERT JUMPDEST PUSH2 0xCFF PUSH2 0x19DA JUMP JUMPDEST DUP2 PUSH1 0xB DUP5 DUP2 SLOAD DUP2 LT PUSH2 0xD14 JUMPI PUSH2 0xD13 PUSH2 0x3AAD JUMP JUMPDEST JUMPDEST SWAP1 PUSH0 MSTORE PUSH1 0x20 PUSH0 KECCAK256 SWAP1 PUSH1 0x6 MUL ADD PUSH1 0x1 ADD SLOAD PUSH1 0x10 SLOAD PUSH2 0xD31 SWAP2 SWAP1 PUSH2 0x3C94 JUMP JUMPDEST PUSH2 0xD3B SWAP2 SWAP1 PUSH2 0x3CC7 JUMP JUMPDEST PUSH1 0x10 DUP2 SWAP1 SSTORE POP DUP2 PUSH1 0xB DUP5 DUP2 SLOAD DUP2 LT PUSH2 0xD56 JUMPI PUSH2 0xD55 PUSH2 0x3AAD JUMP JUMPDEST JUMPDEST SWAP1 PUSH0 MSTORE PUSH1 0x20 PUSH0 KECCAK256 SWAP1 PUSH1 0x6 MUL ADD PUSH1 0x1 ADD DUP2 SWAP1 SSTORE POP POP POP POP JUMP JUMPDEST PUSH1 0x4 SLOAD DUP2 JUMP JUMPDEST PUSH2 0xD7C PUSH2 0x2D12 JUMP JUMPDEST DUP2 PUSH1 0xB DUP1 SLOAD SWAP1 POP DUP2 LT PUSH2 0xDC4 JUMPI PUSH1 0x40 MLOAD PUSH32 0x8C379A000000000000000000000000000000000000000000000000000000000 DUP2 MSTORE PUSH1 0x4 ADD PUSH2 0xDBB SWAP1 PUSH2 0x3A8F JUMP JUMPDEST PUSH1 0x40 MLOAD DUP1 SWAP2 SUB SWAP1 REVERT JUMPDEST PUSH0 PUSH1 0xB DUP5 DUP2 SLOAD DUP2 LT PUSH2 0xDD9 JUMPI PUSH2 0xDD8 PUSH2 0x3AAD JUMP JUMPDEST JUMPDEST SWAP1 PUSH0 MSTORE PUSH1 0x20 PUSH0 KECCAK256 SWAP1 PUSH1 0x6 MUL ADD SWAP1 POP PUSH0 PUSH1 0xC PUSH0 DUP7 DUP2 MSTORE PUSH1 0x20 ADD SWAP1 DUP2 MSTORE PUSH1 0x20 ADD PUSH0 KECCAK256 PUSH0 CALLER PUSH20 0xFFFFFFFFFFFFFFFFFFFFFFFFFFFFFFFFFFFFFFFF AND PUSH20 0xFFFFFFFFFFFFFFFFFFFFFFFFFFFFFFFFFFFFFFFF AND DUP2 MSTORE PUSH1 0x20 ADD SWAP1 DUP2 MSTORE PUSH1 0x20 ADD PUSH0 KECCAK256 SWAP1 POP DUP2 PUSH1 0x4 ADD SLOAD TIMESTAMP LT ISZERO PUSH2 0xE7D JUMPI PUSH1 0x40 MLOAD PUSH32 0x8C379A000000000000000000000000000000000000000000000000000000000 DUP2 MSTORE PUSH1 0x4 ADD PUSH2 0xE74 SWAP1 PUSH2 0x3B24 JUMP JUMPDEST PUSH1 0x40 MLOAD DUP1 SWAP2 SUB SWAP1 REVERT JUMPDEST DUP4 DUP2 PUSH0 ADD SLOAD LT ISZERO PUSH2 0xEC3 JUMPI PUSH1 0x40 MLOAD PUSH32 0x8C379A000000000000000000000000000000000000000000000000000000000 DUP2 MSTORE PUSH1 0x4 ADD PUSH2 0xEBA SWAP1 PUSH2 0x3D44 JUMP JUMPDEST PUSH1 0x40 MLOAD DUP1 SWAP2 SUB SWAP1 REVERT JUMPDEST PUSH2 0xECC DUP6 PUSH2 0x1393 JUMP JUMPDEST PUSH2 0xED6 DUP6 CALLER PUSH2 0x2D58 JUMP JUMPDEST PUSH0 DUP5 GT ISZERO PUSH2 0xF93 JUMPI DUP4 DUP2 PUSH0 ADD SLOAD PUSH2 0xEED SWAP2 SWAP1 PUSH2 0x3C94 JUMP JUMPDEST DUP2 PUSH0 ADD DUP2 SWAP1 SSTORE POP DUP2 PUSH0 ADD PUSH0 SWAP1 SLOAD SWAP1 PUSH2 0x100 EXP SWAP1 DIV PUSH20 0xFFFFFFFFFFFFFFFFFFFFFFFFFFFFFFFFFFFFFFFF AND PUSH20 0xFFFFFFFFFFFFFFFFFFFFFFFFFFFFFFFFFFFFFFFF AND PUSH4 0xA9059CBB CALLER DUP7 PUSH1 0x40 MLOAD DUP4 PUSH4 0xFFFFFFFF AND PUSH1 0xE0 SHL DUP2 MSTORE PUSH1 0x4 ADD PUSH2 0xF51 SWAP3 SWAP2 SWAP1 PUSH2 0x3B42 JUMP JUMPDEST PUSH1 0x20 PUSH1 0x40 MLOAD DUP1 DUP4 SUB DUP2 PUSH0 DUP8 GAS CALL ISZERO DUP1 ISZERO PUSH2 0xF6D JUMPI RETURNDATASIZE PUSH0 DUP1 RETURNDATACOPY RETURNDATASIZE PUSH0 REVERT JUMPDEST POP POP POP POP PUSH1 0x40 MLOAD RETURNDATASIZE PUSH1 0x1F NOT PUSH1 0x1F DUP3 ADD AND DUP3 ADD DUP1 PUSH1 0x40 MSTORE POP DUP2 ADD SWAP1 PUSH2 0xF91 SWAP2 SWAP1 PUSH2 0x3B9E JUMP JUMPDEST POP JUMPDEST PUSH5 0xE8D4A51000 DUP3 PUSH1 0x3 ADD SLOAD DUP3 PUSH0 ADD SLOAD PUSH2 0xFAC SWAP2 SWAP1 PUSH2 0x3BF6 JUMP JUMPDEST PUSH2 0xFB6 SWAP2 SWAP1 PUSH2 0x3C64 JUMP JUMPDEST DUP2 PUSH1 0x1 ADD DUP2 SWAP1 SSTORE POP DUP5 CALLER PUSH20 0xFFFFFFFFFFFFFFFFFFFFFFFFFFFFFFFFFFFFFFFF AND PUSH32 0xF279E6A1F5E320CCA91135676D9CB6E44CA8A08C0B88342BCDB1144F6511B568 DUP7 PUSH1 0x40 MLOAD PUSH2 0x1005 SWAP2 SWAP1 PUSH2 0x35CF JUMP JUMPDEST PUSH1 0x40 MLOAD DUP1 SWAP2 SUB SWAP1 LOG3 POP POP POP PUSH2 0x1018 PUSH2 0x2E70 JUMP JUMPDEST POP POP JUMP JUMPDEST PUSH1 0x11 SLOAD DUP2 JUMP JUMPDEST PUSH0 DUP1 PUSH1 0xB DUP4 DUP2 SLOAD DUP2 LT PUSH2 0x1038 JUMPI PUSH2 0x1037 PUSH2 0x3AAD JUMP JUMPDEST JUMPDEST SWAP1 PUSH0 MSTORE PUSH1 0x20 PUSH0 KECCAK256 SWAP1 PUSH1 0x6 MUL ADD SWAP1 POP PUSH0 PUSH1 0x10 SLOAD DUP3 PUSH1 0x1 ADD SLOAD PUSH1 0x8 SLOAD PUSH2 0x105C SWAP2 SWAP1 PUSH2 0x3BF6 JUMP JUMPDEST PUSH2 0x1066 SWAP2 SWAP1 PUSH2 0x3C64 JUMP JUMPDEST SWAP1 POP PUSH0 DUP3 PUSH0 ADD PUSH0 SWAP1 SLOAD SWAP1 PUSH2 0x100 EXP SWAP1 DIV PUSH20 0xFFFFFFFFFFFFFFFFFFFFFFFFFFFFFFFFFFFFFFFF AND PUSH20 0xFFFFFFFFFFFFFFFFFFFFFFFFFFFFFFFFFFFFFFFF AND PUSH4 0x70A08231 ADDRESS PUSH1 0x40 MLOAD DUP3 PUSH4 0xFFFFFFFF AND PUSH1 0xE0 SHL DUP2 MSTORE PUSH1 0x4 ADD PUSH2 0x10C4 SWAP2 SWAP1 PUSH2 0x38EC JUMP JUMPDEST PUSH1 0x20 PUSH1 0x40 MLOAD DUP1 DUP4 SUB DUP2 DUP7 GAS STATICCALL ISZERO DUP1 ISZERO PUSH2 0x10DF JUMPI RETURNDATASIZE PUSH0 DUP1 RETURNDATACOPY RETURNDATASIZE PUSH0 REVERT JUMPDEST POP POP POP POP PUSH1 0x40 MLOAD RETURNDATASIZE PUSH1 0x1F NOT PUSH1 0x1F DUP3 ADD AND DUP3 ADD DUP1 PUSH1 0x40 MSTORE POP DUP2 ADD SWAP1 PUSH2 0x1103 SWAP2 SWAP1 PUSH2 0x3D76 JUMP JUMPDEST SWAP1 POP PUSH0 DUP1 DUP3 GT PUSH2 0x1113 JUMPI PUSH0 PUSH2 0x113F JUMP JUMPDEST PUSH1 0x64 DUP3 PUSH8 0xDE0B6B3A7640000 DUP6 PUSH2 0x112A SWAP2 SWAP1 PUSH2 0x3BF6 JUMP JUMPDEST PUSH2 0x1134 SWAP2 SWAP1 PUSH2 0x3C64 JUMP JUMPDEST PUSH2 0x113E SWAP2 SWAP1 PUSH2 0x3BF6 JUMP JUMPDEST JUMPDEST SWAP1 POP DUP1 SWAP5 POP POP POP POP POP SWAP2 SWAP1 POP JUMP JUMPDEST PUSH0 DUP3 PUSH1 0xB DUP1 SLOAD SWAP1 POP DUP2 LT PUSH2 0x1196 JUMPI PUSH1 0x40 MLOAD PUSH32 0x8C379A000000000000000000000000000000000000000000000000000000000 DUP2 MSTORE PUSH1 0x4 ADD PUSH2 0x118D SWAP1 PUSH2 0x3A8F JUMP JUMPDEST PUSH1 0x40 MLOAD DUP1 SWAP2 SUB SWAP1 REVERT JUMPDEST PUSH0 PUSH1 0xB DUP6 DUP2 SLOAD DUP2 LT PUSH2 0x11AB JUMPI PUSH2 0x11AA PUSH2 0x3AAD JUMP JUMPDEST JUMPDEST SWAP1 PUSH0 MSTORE PUSH1 0x20 PUSH0 KECCAK256 SWAP1 PUSH1 0x6 MUL ADD SWAP1 POP PUSH0 PUSH1 0xC PUSH0 DUP8 DUP2 MSTORE PUSH1 0x20 ADD SWAP1 DUP2 MSTORE PUSH1 0x20 ADD PUSH0 KECCAK256 PUSH0 DUP7 PUSH20 0xFFFFFFFFFFFFFFFFFFFFFFFFFFFFFFFFFFFFFFFF AND PUSH20 0xFFFFFFFFFFFFFFFFFFFFFFFFFFFFFFFFFFFFFFFF AND DUP2 MSTORE PUSH1 0x20 ADD SWAP1 DUP2 MSTORE PUSH1 0x20 ADD PUSH0 KECCAK256 SWAP1 POP PUSH0 DUP3 PUSH1 0x3 ADD SLOAD SWAP1 POP PUSH0 DUP4 PUSH0 ADD PUSH0 SWAP1 SLOAD SWAP1 PUSH2 0x100 EXP SWAP1 DIV PUSH20 0xFFFFFFFFFFFFFFFFFFFFFFFFFFFFFFFFFFFFFFFF AND PUSH20 0xFFFFFFFFFFFFFFFFFFFFFFFFFFFFFFFFFFFFFFFF AND PUSH4 0x70A08231 ADDRESS PUSH1 0x40 MLOAD DUP3 PUSH4 0xFFFFFFFF AND PUSH1 0xE0 SHL DUP2 MSTORE PUSH1 0x4 ADD PUSH2 0x126C SWAP2 SWAP1 PUSH2 0x38EC JUMP JUMPDEST PUSH1 0x20 PUSH1 0x40 MLOAD DUP1 DUP4 SUB DUP2 DUP7 GAS STATICCALL ISZERO DUP1 ISZERO PUSH2 0x1287 JUMPI RETURNDATASIZE PUSH0 DUP1 RETURNDATACOPY RETURNDATASIZE PUSH0 REVERT JUMPDEST POP POP POP POP PUSH1 0x40 MLOAD RETURNDATASIZE PUSH1 0x1F NOT PUSH1 0x1F DUP3 ADD AND DUP3 ADD DUP1 PUSH1 0x40 MSTORE POP DUP2 ADD SWAP1 PUSH2 0x12AB SWAP2 SWAP1 PUSH2 0x3D76 JUMP JUMPDEST SWAP1 POP DUP4 PUSH1 0x2 ADD SLOAD NUMBER GT DUP1 ISZERO PUSH2 0x12C0 JUMPI POP PUSH0 DUP2 EQ ISZERO JUMPDEST ISZERO PUSH2 0x1349 JUMPI PUSH0 PUSH2 0x12D4 DUP6 PUSH1 0x2 ADD SLOAD NUMBER PUSH2 0x1E5D JUMP JUMPDEST SWAP1 POP PUSH0 PUSH1 0x4 SLOAD PUSH1 0x5 SLOAD PUSH1 0x10 SLOAD DUP9 PUSH1 0x1 ADD SLOAD PUSH1 0x8 SLOAD DUP7 PUSH2 0x12F3 SWAP2 SWAP1 PUSH2 0x3BF6 JUMP JUMPDEST PUSH2 0x12FD SWAP2 SWAP1 PUSH2 0x3BF6 JUMP JUMPDEST PUSH2 0x1307 SWAP2 SWAP1 PUSH2 0x3C64 JUMP JUMPDEST PUSH2 0x1311 SWAP2 SWAP1 PUSH2 0x3BF6 JUMP JUMPDEST PUSH2 0x131B SWAP2 SWAP1 PUSH2 0x3C64 JUMP JUMPDEST SWAP1 POP DUP3 PUSH5 0xE8D4A51000 DUP3 PUSH2 0x132F SWAP2 SWAP1 PUSH2 0x3BF6 JUMP JUMPDEST PUSH2 0x1339 SWAP2 SWAP1 PUSH2 0x3C64 JUMP JUMPDEST DUP5 PUSH2 0x1344 SWAP2 SWAP1 PUSH2 0x3CC7 JUMP JUMPDEST SWAP4 POP POP POP JUMPDEST DUP3 PUSH1 0x1 ADD SLOAD PUSH5 0xE8D4A51000 DUP4 DUP6 PUSH0 ADD SLOAD PUSH2 0x1363 SWAP2 SWAP1 PUSH2 0x3BF6 JUMP JUMPDEST PUSH2 0x136D SWAP2 SWAP1 PUSH2 0x3C64 JUMP JUMPDEST DUP5 PUSH1 0x2 ADD SLOAD PUSH2 0x137C SWAP2 SWAP1 PUSH2 0x3CC7 JUMP JUMPDEST PUSH2 0x1386 SWAP2 SWAP1 PUSH2 0x3C94 JUMP JUMPDEST SWAP6 POP POP POP POP POP POP SWAP3 SWAP2 POP POP JUMP JUMPDEST DUP1 PUSH1 0xB DUP1 SLOAD SWAP1 POP DUP2 LT PUSH2 0x13DB JUMPI PUSH1 0x40 MLOAD PUSH32 0x8C379A000000000000000000000000000000000000000000000000000000000 DUP2 MSTORE PUSH1 0x4 ADD PUSH2 0x13D2 SWAP1 PUSH2 0x3A8F JUMP JUMPDEST PUSH1 0x40 MLOAD DUP1 SWAP2 SUB SWAP1 REVERT JUMPDEST PUSH0 PUSH1 0xB DUP4 DUP2 SLOAD DUP2 LT PUSH2 0x13F0 JUMPI PUSH2 0x13EF PUSH2 0x3AAD JUMP JUMPDEST JUMPDEST SWAP1 PUSH0 MSTORE PUSH1 0x20 PUSH0 KECCAK256 SWAP1 PUSH1 0x6 MUL ADD SWAP1 POP DUP1 PUSH1 0x2 ADD SLOAD NUMBER GT PUSH2 0x140F JUMPI POP PUSH2 0x15E5 JUMP JUMPDEST PUSH0 DUP2 PUSH0 ADD PUSH0 SWAP1 SLOAD SWAP1 PUSH2 0x100 EXP SWAP1 DIV PUSH20 0xFFFFFFFFFFFFFFFFFFFFFFFFFFFFFFFFFFFFFFFF AND PUSH20 0xFFFFFFFFFFFFFFFFFFFFFFFFFFFFFFFFFFFFFFFF AND PUSH4 0x70A08231 ADDRESS PUSH1 0x40 MLOAD DUP3 PUSH4 0xFFFFFFFF AND PUSH1 0xE0 SHL DUP2 MSTORE PUSH1 0x4 ADD PUSH2 0x146B SWAP2 SWAP1 PUSH2 0x38EC JUMP JUMPDEST PUSH1 0x20 PUSH1 0x40 MLOAD DUP1 DUP4 SUB DUP2 DUP7 GAS STATICCALL ISZERO DUP1 ISZERO PUSH2 0x1486 JUMPI RETURNDATASIZE PUSH0 DUP1 RETURNDATACOPY RETURNDATASIZE PUSH0 REVERT JUMPDEST POP POP POP POP PUSH1 0x40 MLOAD RETURNDATASIZE PUSH1 0x1F NOT PUSH1 0x1F DUP3 ADD AND DUP3 ADD DUP1 PUSH1 0x40 MSTORE POP DUP2 ADD SWAP1 PUSH2 0x14AA SWAP2 SWAP1 PUSH2 0x3D76 JUMP JUMPDEST SWAP1 POP PUSH0 DUP2 GT PUSH2 0x14C3 JUMPI NUMBER DUP3 PUSH1 0x2 ADD DUP2 SWAP1 SSTORE POP POP POP PUSH2 0x15E5 JUMP JUMPDEST PUSH0 PUSH2 0x14D2 DUP4 PUSH1 0x2 ADD SLOAD NUMBER PUSH2 0x1E5D JUMP JUMPDEST SWAP1 POP PUSH0 PUSH1 0x4 SLOAD PUSH1 0x5 SLOAD PUSH1 0x10 SLOAD DUP7 PUSH1 0x1 ADD SLOAD PUSH1 0x8 SLOAD DUP7 PUSH2 0x14F1 SWAP2 SWAP1 PUSH2 0x3BF6 JUMP JUMPDEST PUSH2 0x14FB SWAP2 SWAP1 PUSH2 0x3BF6 JUMP JUMPDEST PUSH2 0x1505 SWAP2 SWAP1 PUSH2 0x3C64 JUMP JUMPDEST PUSH2 0x150F SWAP2 SWAP1 PUSH2 0x3BF6 JUMP JUMPDEST PUSH2 0x1519 SWAP2 SWAP1 PUSH2 0x3C64 JUMP JUMPDEST SWAP1 POP PUSH1 0x2 PUSH0 SWAP1 SLOAD SWAP1 PUSH2 0x100 EXP SWAP1 DIV PUSH20 0xFFFFFFFFFFFFFFFFFFFFFFFFFFFFFFFFFFFFFFFF AND PUSH20 0xFFFFFFFFFFFFFFFFFFFFFFFFFFFFFFFFFFFFFFFF AND PUSH4 0x4E6EC247 ADDRESS DUP4 PUSH1 0x40 MLOAD DUP4 PUSH4 0xFFFFFFFF AND PUSH1 0xE0 SHL DUP2 MSTORE PUSH1 0x4 ADD PUSH2 0x1577 SWAP3 SWAP2 SWAP1 PUSH2 0x3B42 JUMP JUMPDEST PUSH0 PUSH1 0x40 MLOAD DUP1 DUP4 SUB DUP2 PUSH0 DUP8 DUP1 EXTCODESIZE ISZERO DUP1 ISZERO PUSH2 0x158E JUMPI PUSH0 DUP1 REVERT JUMPDEST POP GAS CALL ISZERO DUP1 ISZERO PUSH2 0x15A0 JUMPI RETURNDATASIZE PUSH0 DUP1 RETURNDATACOPY RETURNDATASIZE PUSH0 REVERT JUMPDEST POP POP POP POP DUP3 PUSH5 0xE8D4A51000 DUP3 PUSH2 0x15B6 SWAP2 SWAP1 PUSH2 0x3BF6 JUMP JUMPDEST PUSH2 0x15C0 SWAP2 SWAP1 PUSH2 0x3C64 JUMP JUMPDEST DUP5 PUSH1 0x3 ADD SLOAD PUSH2 0x15CF SWAP2 SWAP1 PUSH2 0x3CC7 JUMP JUMPDEST DUP5 PUSH1 0x3 ADD DUP2 SWAP1 SSTORE POP NUMBER DUP5 PUSH1 0x2 ADD DUP2 SWAP1 SSTORE POP POP POP POP POP JUMPDEST POP POP JUMP JUMPDEST PUSH2 0x15F1 PUSH2 0x2D12 JUMP JUMPDEST DUP1 PUSH1 0xB DUP1 SLOAD SWAP1 POP DUP2 LT PUSH2 0x1639 JUMPI PUSH1 0x40 MLOAD PUSH32 0x8C379A000000000000000000000000000000000000000000000000000000000 DUP2 MSTORE PUSH1 0x4 ADD PUSH2 0x1630 SWAP1 PUSH2 0x3A8F JUMP JUMPDEST PUSH1 0x40 MLOAD DUP1 SWAP2 SUB SWAP1 REVERT JUMPDEST PUSH0 PUSH1 0xB DUP4 DUP2 SLOAD DUP2 LT PUSH2 0x164E JUMPI PUSH2 0x164D PUSH2 0x3AAD JUMP JUMPDEST JUMPDEST SWAP1 PUSH0 MSTORE PUSH1 0x20 PUSH0 KECCAK256 SWAP1 PUSH1 0x6 MUL ADD SWAP1 POP PUSH0 PUSH1 0xC PUSH0 DUP6 DUP2 MSTORE PUSH1 0x20 ADD SWAP1 DUP2 MSTORE PUSH1 0x20 ADD PUSH0 KECCAK256 PUSH0 CALLER PUSH20 0xFFFFFFFFFFFFFFFFFFFFFFFFFFFFFFFFFFFFFFFF AND PUSH20 0xFFFFFFFFFFFFFFFFFFFFFFFFFFFFFFFFFFFFFFFF AND DUP2 MSTORE PUSH1 0x20 ADD SWAP1 DUP2 MSTORE PUSH1 0x20 ADD PUSH0 KECCAK256 SWAP1 POP PUSH2 0x16B5 DUP5 CALLER PUSH2 0x295D JUMP JUMPDEST POP PUSH0 DUP2 PUSH0 ADD SLOAD SWAP1 POP PUSH0 DUP3 PUSH1 0x2 ADD SLOAD SWAP1 POP PUSH0 DUP3 DUP6 PUSH0 ADD PUSH0 SWAP1 SLOAD SWAP1 PUSH2 0x100 EXP SWAP1 DIV PUSH20 0xFFFFFFFFFFFFFFFFFFFFFFFFFFFFFFFFFFFFFFFF AND PUSH20 0xFFFFFFFFFFFFFFFFFFFFFFFFFFFFFFFFFFFFFFFF AND PUSH4 0x70A08231 ADDRESS PUSH1 0x40 MLOAD DUP3 PUSH4 0xFFFFFFFF AND PUSH1 0xE0 SHL DUP2 MSTORE PUSH1 0x4 ADD PUSH2 0x1722 SWAP2 SWAP1 PUSH2 0x38EC JUMP JUMPDEST PUSH1 0x20 PUSH1 0x40 MLOAD DUP1 DUP4 SUB DUP2 DUP7 GAS STATICCALL ISZERO DUP1 ISZERO PUSH2 0x173D JUMPI RETURNDATASIZE PUSH0 DUP1 RETURNDATACOPY RETURNDATASIZE PUSH0 REVERT JUMPDEST POP POP POP POP PUSH1 0x40 MLOAD RETURNDATASIZE PUSH1 0x1F NOT PUSH1 0x1F DUP3 ADD AND DUP3 ADD DUP1 PUSH1 0x40 MSTORE POP DUP2 ADD SWAP1 PUSH2 0x1761 SWAP2 SWAP1 PUSH2 0x3D76 JUMP JUMPDEST PUSH2 0x176B SWAP2 SWAP1 PUSH2 0x3C94 JUMP JUMPDEST SWAP1 POP PUSH0 PUSH1 0xD PUSH0 DUP10 DUP2 MSTORE PUSH1 0x20 ADD SWAP1 DUP2 MSTORE PUSH1 0x20 ADD PUSH0 KECCAK256 PUSH0 CALLER PUSH20 0xFFFFFFFFFFFFFFFFFFFFFFFFFFFFFFFFFFFFFFFF AND PUSH20 0xFFFFFFFFFFFFFFFFFFFFFFFFFFFFFFFFFFFFFFFF AND DUP2 MSTORE PUSH1 0x20 ADD SWAP1 DUP2 MSTORE PUSH1 0x20 ADD PUSH0 KECCAK256 SWAP1 POP DUP4 DUP2 PUSH0 ADD DUP2 SWAP1 SSTORE POP DUP3 DUP2 PUSH1 0x1 ADD DUP2 SWAP1 SSTORE POP TIMESTAMP DUP2 PUSH1 0x2 ADD DUP2 SWAP1 SSTORE POP DUP3 PUSH1 0xF PUSH0 DUP3 DUP3 SLOAD PUSH2 0x17E7 SWAP2 SWAP1 PUSH2 0x3CC7 JUMP JUMPDEST SWAP3 POP POP DUP2 SWAP1 SSTORE POP PUSH0 DUP1 DUP5 GT DUP1 ISZERO PUSH2 0x17FD JUMPI POP PUSH0 DUP4 GT JUMPDEST PUSH2 0x1807 JUMPI PUSH0 PUSH2 0x1838 JUMP JUMPDEST PUSH1 0xE PUSH0 DUP11 DUP2 MSTORE PUSH1 0x20 ADD SWAP1 DUP2 MSTORE PUSH1 0x20 ADD PUSH0 KECCAK256 DUP1 SLOAD SWAP1 POP PUSH5 0xE8D4A51000 DUP6 PUSH2 0x182D SWAP2 SWAP1 PUSH2 0x3BF6 JUMP JUMPDEST PUSH2 0x1837 SWAP2 SWAP1 PUSH2 0x3C64 JUMP JUMPDEST JUMPDEST SWAP1 POP PUSH2 0x1843 DUP2 PUSH2 0xB1D JUMP JUMPDEST POP PUSH32 0x649C84831F10E26AB05A0E59436157F1E7FAD268F97E5BA8C43768809683F797 CALLER DUP4 PUSH0 ADD SLOAD DUP5 PUSH1 0x1 ADD SLOAD DUP6 PUSH1 0x2 ADD SLOAD DUP6 PUSH1 0x40 MLOAD PUSH2 0x1886 SWAP6 SWAP5 SWAP4 SWAP3 SWAP2 SWAP1 PUSH2 0x3DA1 JUMP JUMPDEST PUSH1 0x40 MLOAD DUP1 SWAP2 SUB SWAP1 LOG1 PUSH0 DUP4 GT DUP1 ISZERO PUSH2 0x189C JUMPI POP PUSH0 DUP5 GT JUMPDEST ISZERO PUSH2 0x18AD JUMPI PUSH2 0x18AC DUP10 DUP6 DUP6 PUSH2 0x2F00 JUMP JUMPDEST JUMPDEST DUP7 PUSH0 ADD PUSH0 SWAP1 SLOAD SWAP1 PUSH2 0x100 EXP SWAP1 DIV PUSH20 0xFFFFFFFFFFFFFFFFFFFFFFFFFFFFFFFFFFFFFFFF AND PUSH20 0xFFFFFFFFFFFFFFFFFFFFFFFFFFFFFFFFFFFFFFFF AND PUSH4 0xA9059CBB CALLER DUP8 PUSH1 0x40 MLOAD DUP4 PUSH4 0xFFFFFFFF AND PUSH1 0xE0 SHL DUP2 MSTORE PUSH1 0x4 ADD PUSH2 0x190A SWAP3 SWAP2 SWAP1 PUSH2 0x3B42 JUMP JUMPDEST PUSH1 0x20 PUSH1 0x40 MLOAD DUP1 DUP4 SUB DUP2 PUSH0 DUP8 GAS CALL ISZERO DUP1 ISZERO PUSH2 0x1926 JUMPI RETURNDATASIZE PUSH0 DUP1 RETURNDATACOPY RETURNDATASIZE PUSH0 REVERT JUMPDEST POP POP POP POP PUSH1 0x40 MLOAD RETURNDATASIZE PUSH1 0x1F NOT PUSH1 0x1F DUP3 ADD AND DUP3 ADD DUP1 PUSH1 0x40 MSTORE POP DUP2 ADD SWAP1 PUSH2 0x194A SWAP2 SWAP1 PUSH2 0x3B9E JUMP JUMPDEST POP DUP9 CALLER PUSH20 0xFFFFFFFFFFFFFFFFFFFFFFFFFFFFFFFFFFFFFFFF AND PUSH32 0xBB757047C2B5F3974FE26B7C10F732E7BCE710B0952A71082702781E62AE0595 DUP8 PUSH1 0x40 MLOAD PUSH2 0x1992 SWAP2 SWAP1 PUSH2 0x35CF JUMP JUMPDEST PUSH1 0x40 MLOAD DUP1 SWAP2 SUB SWAP1 LOG3 PUSH0 DUP7 PUSH0 ADD DUP2 SWAP1 SSTORE POP PUSH0 DUP7 PUSH1 0x2 ADD DUP2 SWAP1 SSTORE POP PUSH0 DUP7 PUSH1 0x1 ADD DUP2 SWAP1 SSTORE POP PUSH0 DUP7 PUSH1 0x3 ADD DUP2 SWAP1 SSTORE POP PUSH2 0x19C7 DUP10 CALLER PUSH2 0x306B JUMP JUMPDEST POP POP POP POP POP POP POP POP PUSH2 0x19D7 PUSH2 0x2E70 JUMP JUMPDEST POP JUMP JUMPDEST PUSH0 PUSH1 0xB DUP1 SLOAD SWAP1 POP SWAP1 POP PUSH0 JUMPDEST DUP2 DUP2 LT ISZERO PUSH2 0x1A01 JUMPI PUSH2 0x19F6 DUP2 PUSH2 0x1393 JUMP JUMPDEST DUP1 PUSH1 0x1 ADD SWAP1 POP PUSH2 0x19E5 JUMP JUMPDEST POP POP JUMP JUMPDEST PUSH0 DUP1 PUSH1 0xB DUP5 DUP2 SLOAD DUP2 LT PUSH2 0x1A1B JUMPI PUSH2 0x1A1A PUSH2 0x3AAD JUMP JUMPDEST JUMPDEST SWAP1 PUSH0 MSTORE PUSH1 0x20 PUSH0 KECCAK256 SWAP1 PUSH1 0x6 MUL ADD SWAP1 POP PUSH0 PUSH1 0xC PUSH0 DUP7 DUP2 MSTORE PUSH1 0x20 ADD SWAP1 DUP2 MSTORE PUSH1 0x20 ADD PUSH0 KECCAK256 PUSH0 DUP6 PUSH20 0xFFFFFFFFFFFFFFFFFFFFFFFFFFFFFFFFFFFFFFFF AND PUSH20 0xFFFFFFFFFFFFFFFFFFFFFFFFFFFFFFFFFFFFFFFF AND DUP2 MSTORE PUSH1 0x20 ADD SWAP1 DUP2 MSTORE PUSH1 0x20 ADD PUSH0 KECCAK256 SWAP1 POP PUSH0 PUSH2 0x1A82 DUP7 PUSH2 0x2091 JUMP JUMPDEST SWAP1 POP PUSH0 DUP4 PUSH0 ADD PUSH0 SWAP1 SLOAD SWAP1 PUSH2 0x100 EXP SWAP1 DIV PUSH20 0xFFFFFFFFFFFFFFFFFFFFFFFFFFFFFFFFFFFFFFFF AND PUSH20 0xFFFFFFFFFFFFFFFFFFFFFFFFFFFFFFFFFFFFFFFF AND PUSH4 0x70A08231 ADDRESS PUSH1 0x40 MLOAD DUP3 PUSH4 0xFFFFFFFF AND PUSH1 0xE0 SHL DUP2 MSTORE PUSH1 0x4 ADD PUSH2 0x1AE0 SWAP2 SWAP1 PUSH2 0x38EC JUMP JUMPDEST PUSH1 0x20 PUSH1 0x40 MLOAD DUP1 DUP4 SUB DUP2 DUP7 GAS STATICCALL ISZERO DUP1 ISZERO PUSH2 0x1AFB JUMPI RETURNDATASIZE PUSH0 DUP1 RETURNDATACOPY RETURNDATASIZE PUSH0 REVERT JUMPDEST POP POP POP POP PUSH1 0x40 MLOAD RETURNDATASIZE PUSH1 0x1F NOT PUSH1 0x1F DUP3 ADD AND DUP3 ADD DUP1 PUSH1 0x40 MSTORE POP DUP2 ADD SWAP1 PUSH2 0x1B1F SWAP2 SWAP1 PUSH2 0x3D76 JUMP JUMPDEST PUSH5 0xE8D4A51000 DUP5 PUSH0 ADD SLOAD PUSH2 0x1B33 SWAP2 SWAP1 PUSH2 0x3BF6 JUMP JUMPDEST PUSH2 0x1B3D SWAP2 SWAP1 PUSH2 0x3C64 JUMP JUMPDEST SWAP1 POP PUSH0 PUSH5 0xE8D4A51000 DUP3 DUP5 PUSH2 0x1B52 SWAP2 SWAP1 PUSH2 0x3BF6 JUMP JUMPDEST PUSH2 0x1B5C SWAP2 SWAP1 PUSH2 0x3C64 JUMP JUMPDEST SWAP1 POP DUP1 SWAP6 POP POP POP POP POP POP SWAP3 SWAP2 POP POP JUMP JUMPDEST PUSH2 0x1B74 PUSH2 0x2E79 JUMP JUMPDEST PUSH2 0x1B7D PUSH0 PUSH2 0x3234 JUMP JUMPDEST JUMP JUMPDEST PUSH1 0x3 PUSH0 SWAP1 SLOAD SWAP1 PUSH2 0x100 EXP SWAP1 DIV PUSH20 0xFFFFFFFFFFFFFFFFFFFFFFFFFFFFFFFFFFFFFFFF AND DUP2 JUMP JUMPDEST PUSH2 0x1BAC PUSH2 0x2E79 JUMP JUMPDEST PUSH9 0x56BC75E2D63100000 DUP2 GT ISZERO PUSH2 0x1BF8 JUMPI PUSH1 0x40 MLOAD PUSH32 0x8C379A000000000000000000000000000000000000000000000000000000000 DUP2 MSTORE PUSH1 0x4 ADD PUSH2 0x1BEF SWAP1 PUSH2 0x3E3C JUMP JUMPDEST PUSH1 0x40 MLOAD DUP1 SWAP2 SUB SWAP1 REVERT JUMPDEST PUSH7 0x38D7EA4C68000 DUP2 LT ISZERO PUSH2 0x1C42 JUMPI PUSH1 0x40 MLOAD PUSH32 0x8C379A000000000000000000000000000000000000000000000000000000000 DUP2 MSTORE PUSH1 0x4 ADD PUSH2 0x1C39 SWAP1 PUSH2 0x3EA4 JUMP JUMPDEST PUSH1 0x40 MLOAD DUP1 SWAP2 SUB SWAP1 REVERT JUMPDEST DUP1 PUSH1 0x8 DUP2 SWAP1 SSTORE POP PUSH32 0x1E19929B3CB970F6D66D05A2698000DB2AC7EAFE495AEE2C6C32BD7960A97EAD PUSH1 0x8 SLOAD PUSH1 0x40 MLOAD PUSH2 0x1C7A SWAP2 SWAP1 PUSH2 0x35CF JUMP JUMPDEST PUSH1 0x40 MLOAD DUP1 SWAP2 SUB SWAP1 LOG1 POP JUMP JUMPDEST PUSH0 PUSH1 0xF SLOAD SWAP1 POP SWAP1 JUMP JUMPDEST PUSH2 0x1C96 PUSH2 0x2D12 JUMP JUMPDEST DUP1 PUSH1 0xB DUP1 SLOAD SWAP1 POP DUP2 LT PUSH2 0x1CDE JUMPI PUSH1 0x40 MLOAD PUSH32 0x8C379A000000000000000000000000000000000000000000000000000000000 DUP2 MSTORE PUSH1 0x4 ADD PUSH2 0x1CD5 SWAP1 PUSH2 0x3A8F JUMP JUMPDEST PUSH1 0x40 MLOAD DUP1 SWAP2 SUB SWAP1 REVERT JUMPDEST PUSH2 0x1CE7 DUP3 PUSH2 0x1393 JUMP JUMPDEST PUSH2 0x1CF1 DUP3 CALLER PUSH2 0x2D58 JUMP JUMPDEST PUSH0 PUSH1 0xC PUSH0 DUP5 DUP2 MSTORE PUSH1 0x20 ADD SWAP1 DUP2 MSTORE PUSH1 0x20 ADD PUSH0 KECCAK256 PUSH0 CALLER PUSH20 0xFFFFFFFFFFFFFFFFFFFFFFFFFFFFFFFFFFFFFFFF AND PUSH20 0xFFFFFFFFFFFFFFFFFFFFFFFFFFFFFFFFFFFFFFFF AND DUP2 MSTORE PUSH1 0x20 ADD SWAP1 DUP2 MSTORE PUSH1 0x20 ADD PUSH0 KECCAK256 SWAP1 POP PUSH0 PUSH1 0xB DUP5 DUP2 SLOAD DUP2 LT PUSH2 0x1D55 JUMPI PUSH2 0x1D54 PUSH2 0x3AAD JUMP JUMPDEST JUMPDEST SWAP1 PUSH0 MSTORE PUSH1 0x20 PUSH0 KECCAK256 SWAP1 PUSH1 0x6 MUL ADD SWAP1 POP DUP1 PUSH1 0x4 ADD SLOAD TIMESTAMP LT ISZERO PUSH2 0x1DAA JUMPI PUSH1 0x40 MLOAD PUSH32 0x8C379A000000000000000000000000000000000000000000000000000000000 DUP2 MSTORE PUSH1 0x4 ADD PUSH2 0x1DA1 SWAP1 PUSH2 0x3B24 JUMP JUMPDEST PUSH1 0x40 MLOAD DUP1 SWAP2 SUB SWAP1 REVERT JUMPDEST PUSH0 DUP3 PUSH1 0x2 ADD SLOAD GT ISZERO PUSH2 0x1E22 JUMPI PUSH0 DUP3 PUSH1 0x2 ADD SLOAD SWAP1 POP PUSH0 DUP4 PUSH1 0x2 ADD DUP2 SWAP1 SSTORE POP PUSH2 0x1DD1 CALLER DUP3 PUSH2 0x32F5 JUMP JUMPDEST DUP5 CALLER PUSH20 0xFFFFFFFFFFFFFFFFFFFFFFFFFFFFFFFFFFFFFFFF AND PUSH32 0x9DA87E8CCE29A4140E89780F6E64E0B1CD58E4FA1CB5EE53EFFE97264F290C6C DUP4 PUSH1 0x40 MLOAD PUSH2 0x1E18 SWAP2 SWAP1 PUSH2 0x35CF JUMP JUMPDEST PUSH1 0x40 MLOAD DUP1 SWAP2 SUB SWAP1 LOG3 POP JUMPDEST POP POP POP PUSH2 0x1E2D PUSH2 0x2E70 JUMP JUMPDEST POP JUMP JUMPDEST PUSH1 0x9 SLOAD DUP2 JUMP JUMPDEST PUSH0 DUP1 PUSH0 SWAP1 SLOAD SWAP1 PUSH2 0x100 EXP SWAP1 DIV PUSH20 0xFFFFFFFFFFFFFFFFFFFFFFFFFFFFFFFFFFFFFFFF AND SWAP1 POP SWAP1 JUMP JUMPDEST PUSH0 PUSH1 0x9 SLOAD DUP4 PUSH2 0x1E6C SWAP2 SWAP1 PUSH2 0x3BF6 JUMP JUMPDEST DUP3 PUSH2 0x1E77 SWAP2 SWAP1 PUSH2 0x3C94 JUMP JUMPDEST SWAP1 POP SWAP3 SWAP2 POP POP JUMP JUMPDEST PUSH1 0xC PUSH1 0x20 MSTORE DUP2 PUSH0 MSTORE PUSH1 0x40 PUSH0 KECCAK256 PUSH1 0x20 MSTORE DUP1 PUSH0 MSTORE PUSH1 0x40 PUSH0 KECCAK256 PUSH0 SWAP2 POP SWAP2 POP POP DUP1 PUSH0 ADD SLOAD SWAP1 DUP1 PUSH1 0x1 ADD SLOAD SWAP1 DUP1 PUSH1 0x2 ADD SLOAD SWAP1 DUP1 PUSH1 0x3 ADD SLOAD SWAP1 POP DUP5 JUMP JUMPDEST PUSH2 0x1EBE PUSH2 0x2E79 JUMP JUMPDEST PUSH0 DUP2 SWAP1 POP PUSH1 0x4 SLOAD DUP2 DUP5 PUSH2 0x1ED1 SWAP2 SWAP1 PUSH2 0x3CC7 JUMP JUMPDEST GT ISZERO PUSH2 0x1F12 JUMPI PUSH1 0x40 MLOAD PUSH32 0x8C379A000000000000000000000000000000000000000000000000000000000 DUP2 MSTORE PUSH1 0x4 ADD PUSH2 0x1F09 SWAP1 PUSH2 0x3F0C JUMP JUMPDEST PUSH1 0x40 MLOAD DUP1 SWAP2 SUB SWAP1 REVERT JUMPDEST DUP3 PUSH1 0x5 DUP2 SWAP1 SSTORE POP DUP2 PUSH1 0x6 DUP2 SWAP1 SSTORE POP PUSH32 0xCBD554161F22A88862569B669F84507ADC410008353E0A023297D3EA419126F7 PUSH1 0x5 SLOAD PUSH1 0x6 SLOAD PUSH1 0x40 MLOAD PUSH2 0x1F55 SWAP3 SWAP2 SWAP1 PUSH2 0x3F2A JUMP JUMPDEST PUSH1 0x40 MLOAD DUP1 SWAP2 SUB SWAP1 LOG1 POP POP POP JUMP JUMPDEST PUSH2 0x1F6A PUSH2 0x2E79 JUMP JUMPDEST DUP2 PUSH1 0xB DUP1 SLOAD SWAP1 POP DUP2 LT PUSH2 0x1FB2 JUMPI PUSH1 0x40 MLOAD PUSH32 0x8C379A000000000000000000000000000000000000000000000000000000000 DUP2 MSTORE PUSH1 0x4 ADD PUSH2 0x1FA9 SWAP1 PUSH2 0x3A8F JUMP JUMPDEST PUSH1 0x40 MLOAD DUP1 SWAP2 SUB SWAP1 REVERT JUMPDEST PUSH0 PUSH1 0xB DUP5 DUP2 SLOAD DUP2 LT PUSH2 0x1FC7 JUMPI PUSH2 0x1FC6 PUSH2 0x3AAD JUMP JUMPDEST JUMPDEST SWAP1 PUSH0 MSTORE PUSH1 0x20 PUSH0 KECCAK256 SWAP1 PUSH1 0x6 MUL ADD SWAP1 POP PUSH0 PUSH1 0x1 DUP5 PUSH2 0x1FE3 SWAP2 SWAP1 PUSH2 0x3BF6 JUMP JUMPDEST TIMESTAMP PUSH2 0x1FEE SWAP2 SWAP1 PUSH2 0x3CC7 JUMP JUMPDEST SWAP1 POP TIMESTAMP DUP2 GT PUSH2 0x2032 JUMPI PUSH1 0x40 MLOAD PUSH32 0x8C379A000000000000000000000000000000000000000000000000000000000 DUP2 MSTORE PUSH1 0x4 ADD PUSH2 0x2029 SWAP1 PUSH2 0x3F9B JUMP JUMPDEST PUSH1 0x40 MLOAD DUP1 SWAP2 SUB SWAP1 REVERT JUMPDEST DUP1 DUP3 PUSH1 0x4 ADD DUP2 SWAP1 SSTORE POP POP POP POP POP POP JUMP JUMPDEST PUSH1 0xA SLOAD DUP2 JUMP JUMPDEST PUSH0 DUP1 PUSH0 DUP1 PUSH2 0x2056 DUP7 DUP7 PUSH2 0x114D JUMP JUMPDEST SWAP1 POP PUSH0 PUSH2 0x2063 DUP8 DUP8 PUSH2 0x1A05 JUMP JUMPDEST SWAP1 POP PUSH0 PUSH2 0x2070 DUP9 DUP9 PUSH2 0x20E1 JUMP JUMPDEST SWAP1 POP DUP3 DUP3 DUP3 SWAP6 POP SWAP6 POP SWAP6 POP POP POP POP SWAP3 POP SWAP3 POP SWAP3 JUMP JUMPDEST PUSH1 0x6 SLOAD DUP2 JUMP JUMPDEST PUSH1 0x5 SLOAD DUP2 JUMP JUMPDEST PUSH0 DUP1 PUSH1 0xB DUP4 DUP2 SLOAD DUP2 LT PUSH2 0x20A7 JUMPI PUSH2 0x20A6 PUSH2 0x3AAD JUMP JUMPDEST JUMPDEST SWAP1 PUSH0 MSTORE PUSH1 0x20 PUSH0 KECCAK256 SWAP1 PUSH1 0x6 MUL ADD SWAP1 POP PUSH0 PUSH1 0x10 SLOAD DUP3 PUSH1 0x1 ADD SLOAD PUSH1 0x8 SLOAD PUSH2 0x20CB SWAP2 SWAP1 PUSH2 0x3BF6 JUMP JUMPDEST PUSH2 0x20D5 SWAP2 SWAP1 PUSH2 0x3C64 JUMP JUMPDEST SWAP1 POP DUP1 SWAP3 POP POP POP SWAP2 SWAP1 POP JUMP JUMPDEST PUSH0 DUP1 PUSH1 0xB DUP5 DUP2 SLOAD DUP2 LT PUSH2 0x20F7 JUMPI PUSH2 0x20F6 PUSH2 0x3AAD JUMP JUMPDEST JUMPDEST SWAP1 PUSH0 MSTORE PUSH1 0x20 PUSH0 KECCAK256 SWAP1 PUSH1 0x6 MUL ADD SWAP1 POP PUSH0 PUSH1 0xC PUSH0 DUP7 DUP2 MSTORE PUSH1 0x20 ADD SWAP1 DUP2 MSTORE PUSH1 0x20 ADD PUSH0 KECCAK256 PUSH0 DUP6 PUSH20 0xFFFFFFFFFFFFFFFFFFFFFFFFFFFFFFFFFFFFFFFF AND PUSH20 0xFFFFFFFFFFFFFFFFFFFFFFFFFFFFFFFFFFFFFFFF AND DUP2 MSTORE PUSH1 0x20 ADD SWAP1 DUP2 MSTORE PUSH1 0x20 ADD PUSH0 KECCAK256 SWAP1 POP PUSH0 DUP3 PUSH0 ADD PUSH0 SWAP1 SLOAD SWAP1 PUSH2 0x100 EXP SWAP1 DIV PUSH20 0xFFFFFFFFFFFFFFFFFFFFFFFFFFFFFFFFFFFFFFFF AND PUSH20 0xFFFFFFFFFFFFFFFFFFFFFFFFFFFFFFFFFFFFFFFF AND PUSH4 0x70A08231 ADDRESS PUSH1 0x40 MLOAD DUP3 PUSH4 0xFFFFFFFF AND PUSH1 0xE0 SHL DUP2 MSTORE PUSH1 0x4 ADD PUSH2 0x21B0 SWAP2 SWAP1 PUSH2 0x38EC JUMP JUMPDEST PUSH1 0x20 PUSH1 0x40 MLOAD DUP1 DUP4 SUB DUP2 DUP7 GAS STATICCALL ISZERO DUP1 ISZERO PUSH2 0x21CB JUMPI RETURNDATASIZE PUSH0 DUP1 RETURNDATACOPY RETURNDATASIZE PUSH0 REVERT JUMPDEST POP POP POP POP PUSH1 0x40 MLOAD RETURNDATASIZE PUSH1 0x1F NOT PUSH1 0x1F DUP3 ADD AND DUP3 ADD DUP1 PUSH1 0x40 MSTORE POP DUP2 ADD SWAP1 PUSH2 0x21EF SWAP2 SWAP1 PUSH2 0x3D76 JUMP JUMPDEST SWAP1 POP PUSH0 DUP2 PUSH5 0xE8D4A51000 DUP5 PUSH0 ADD SLOAD PUSH2 0x2207 SWAP2 SWAP1 PUSH2 0x3BF6 JUMP JUMPDEST PUSH2 0x2211 SWAP2 SWAP1 PUSH2 0x3C64 JUMP JUMPDEST SWAP1 POP PUSH0 PUSH5 0xE8D4A51000 DUP3 PUSH1 0xF SLOAD PUSH2 0x2228 SWAP2 SWAP1 PUSH2 0x3BF6 JUMP JUMPDEST PUSH2 0x2232 SWAP2 SWAP1 PUSH2 0x3C64 JUMP JUMPDEST SWAP1 POP DUP1 SWAP6 POP POP POP POP POP POP SWAP3 SWAP2 POP POP JUMP JUMPDEST PUSH1 0x8 SLOAD DUP2 JUMP JUMPDEST PUSH2 0x2250 PUSH2 0x2E79 JUMP JUMPDEST NUMBER PUSH1 0xA SLOAD LT PUSH2 0x2294 JUMPI PUSH1 0x40 MLOAD PUSH32 0x8C379A000000000000000000000000000000000000000000000000000000000 DUP2 MSTORE PUSH1 0x4 ADD PUSH2 0x228B SWAP1 PUSH2 0x4003 JUMP JUMPDEST PUSH1 0x40 MLOAD DUP1 SWAP2 SUB SWAP1 REVERT JUMPDEST PUSH0 PUSH1 0x8 SLOAD PUSH1 0xA SLOAD NUMBER PUSH2 0x22A6 SWAP2 SWAP1 PUSH2 0x3C94 JUMP JUMPDEST PUSH2 0x22B0 SWAP2 SWAP1 PUSH2 0x3BF6 JUMP JUMPDEST SWAP1 POP PUSH1 0x2 PUSH0 SWAP1 SLOAD SWAP1 PUSH2 0x100 EXP SWAP1 DIV PUSH20 0xFFFFFFFFFFFFFFFFFFFFFFFFFFFFFFFFFFFFFFFF AND PUSH20 0xFFFFFFFFFFFFFFFFFFFFFFFFFFFFFFFFFFFFFFFF AND PUSH4 0x4E6EC247 PUSH1 0x7 PUSH0 SWAP1 SLOAD SWAP1 PUSH2 0x100 EXP SWAP1 DIV PUSH20 0xFFFFFFFFFFFFFFFFFFFFFFFFFFFFFFFFFFFFFFFF AND PUSH1 0x4 SLOAD PUSH1 0x6 SLOAD DUP6 PUSH2 0x2322 SWAP2 SWAP1 PUSH2 0x3BF6 JUMP JUMPDEST PUSH2 0x232C SWAP2 SWAP1 PUSH2 0x3C64 JUMP JUMPDEST PUSH1 0x40 MLOAD DUP4 PUSH4 0xFFFFFFFF AND PUSH1 0xE0 SHL DUP2 MSTORE PUSH1 0x4 ADD PUSH2 0x2349 SWAP3 SWAP2 SWAP1 PUSH2 0x3B42 JUMP JUMPDEST PUSH0 PUSH1 0x40 MLOAD DUP1 DUP4 SUB DUP2 PUSH0 DUP8 DUP1 EXTCODESIZE ISZERO DUP1 ISZERO PUSH2 0x2360 JUMPI PUSH0 DUP1 REVERT JUMPDEST POP GAS CALL ISZERO DUP1 ISZERO PUSH2 0x2372 JUMPI RETURNDATASIZE PUSH0 DUP1 RETURNDATACOPY RETURNDATASIZE PUSH0 REVERT JUMPDEST POP POP POP POP NUMBER PUSH1 0xA DUP2 SWAP1 SSTORE POP POP JUMP JUMPDEST PUSH2 0x2388 PUSH2 0x2E79 JUMP JUMPDEST PUSH0 PUSH20 0xFFFFFFFFFFFFFFFFFFFFFFFFFFFFFFFFFFFFFFFF AND DUP2 PUSH20 0xFFFFFFFFFFFFFFFFFFFFFFFFFFFFFFFFFFFFFFFF AND SUB PUSH2 0x23F6 JUMPI PUSH1 0x40 MLOAD PUSH32 0x8C379A000000000000000000000000000000000000000000000000000000000 DUP2 MSTORE PUSH1 0x4 ADD PUSH2 0x23ED SWAP1 PUSH2 0x406B JUMP JUMPDEST PUSH1 0x40 MLOAD DUP1 SWAP2 SUB SWAP1 REVERT JUMPDEST DUP1 PUSH1 0x7 PUSH0 PUSH2 0x100 EXP DUP2 SLOAD DUP2 PUSH20 0xFFFFFFFFFFFFFFFFFFFFFFFFFFFFFFFFFFFFFFFF MUL NOT AND SWAP1 DUP4 PUSH20 0xFFFFFFFFFFFFFFFFFFFFFFFFFFFFFFFFFFFFFFFF AND MUL OR SWAP1 SSTORE POP PUSH1 0x7 PUSH0 SWAP1 SLOAD SWAP1 PUSH2 0x100 EXP SWAP1 DIV PUSH20 0xFFFFFFFFFFFFFFFFFFFFFFFFFFFFFFFFFFFFFFFF AND PUSH20 0xFFFFFFFFFFFFFFFFFFFFFFFFFFFFFFFFFFFFFFFF AND PUSH32 0xB1C7911CA1455735FFD17FEC398B65F34157A7B58831B586878F5D3C2CF44EE2 PUSH1 0x40 MLOAD PUSH1 0x40 MLOAD DUP1 SWAP2 SUB SWAP1 LOG2 POP JUMP JUMPDEST PUSH2 0x24A5 PUSH2 0x2E79 JUMP JUMPDEST PUSH2 0x24AE DUP3 PUSH2 0x34DE JUMP JUMPDEST PUSH2 0x24B6 PUSH2 0x19DA JUMP JUMPDEST PUSH0 PUSH1 0x11 SLOAD NUMBER LT PUSH2 0x24C6 JUMPI NUMBER PUSH2 0x24CA JUMP JUMPDEST PUSH1 0x11 SLOAD JUMPDEST SWAP1 POP DUP4 PUSH1 0x10 SLOAD PUSH2 0x24DA SWAP2 SWAP1 PUSH2 0x3CC7 JUMP JUMPDEST PUSH1 0x10 DUP2 SWAP1 SSTORE POP PUSH0 TIMESTAMP SWAP1 POP PUSH0 PUSH3 0x15180 DUP5 PUSH2 0x24F4 SWAP2 SWAP1 PUSH2 0x3BF6 JUMP JUMPDEST TIMESTAMP PUSH2 0x24FF SWAP2 SWAP1 PUSH2 0x3CC7 JUMP JUMPDEST SWAP1 POP PUSH1 0xB PUSH1 0x40 MLOAD DUP1 PUSH1 0xC0 ADD PUSH1 0x40 MSTORE DUP1 DUP8 PUSH20 0xFFFFFFFFFFFFFFFFFFFFFFFFFFFFFFFFFFFFFFFF AND DUP2 MSTORE PUSH1 0x20 ADD DUP9 DUP2 MSTORE PUSH1 0x20 ADD DUP6 DUP2 MSTORE PUSH1 0x20 ADD PUSH0 DUP2 MSTORE PUSH1 0x20 ADD PUSH0 DUP2 MSTORE PUSH1 0x20 ADD DUP5 DUP2 MSTORE POP SWAP1 DUP1 PUSH1 0x1 DUP2 SLOAD ADD DUP1 DUP3 SSTORE DUP1 SWAP2 POP POP PUSH1 0x1 SWAP1 SUB SWAP1 PUSH0 MSTORE PUSH1 0x20 PUSH0 KECCAK256 SWAP1 PUSH1 0x6 MUL ADD PUSH0 SWAP1 SWAP2 SWAP1 SWAP2 SWAP1 SWAP2 POP PUSH0 DUP3 ADD MLOAD DUP2 PUSH0 ADD PUSH0 PUSH2 0x100 EXP DUP2 SLOAD DUP2 PUSH20 0xFFFFFFFFFFFFFFFFFFFFFFFFFFFFFFFFFFFFFFFF MUL NOT AND SWAP1 DUP4 PUSH20 0xFFFFFFFFFFFFFFFFFFFFFFFFFFFFFFFFFFFFFFFF AND MUL OR SWAP1 SSTORE POP PUSH1 0x20 DUP3 ADD MLOAD DUP2 PUSH1 0x1 ADD SSTORE PUSH1 0x40 DUP3 ADD MLOAD DUP2 PUSH1 0x2 ADD SSTORE PUSH1 0x60 DUP3 ADD MLOAD DUP2 PUSH1 0x3 ADD SSTORE PUSH1 0x80 DUP3 ADD MLOAD DUP2 PUSH1 0x4 ADD SSTORE PUSH1 0xA0 DUP3 ADD MLOAD DUP2 PUSH1 0x5 ADD SSTORE POP POP PUSH0 PUSH1 0xB PUSH1 0x1 PUSH1 0xB DUP1 SLOAD SWAP1 POP PUSH2 0x25F9 SWAP2 SWAP1 PUSH2 0x3C94 JUMP JUMPDEST DUP2 SLOAD DUP2 LT PUSH2 0x260A JUMPI PUSH2 0x2609 PUSH2 0x3AAD JUMP JUMPDEST JUMPDEST SWAP1 PUSH0 MSTORE PUSH1 0x20 PUSH0 KECCAK256 SWAP1 PUSH1 0x6 MUL ADD SWAP1 POP DUP2 DUP2 PUSH1 0x4 ADD DUP2 SWAP1 SSTORE POP PUSH32 0xEEB213A5F24F4D07164E968A0886FA179EE7B22AF50A6FA2D60874F91C573E72 DUP8 DUP8 DUP4 PUSH1 0x5 ADD SLOAD DUP5 PUSH1 0x4 ADD SLOAD PUSH1 0x40 MLOAD PUSH2 0x265E SWAP5 SWAP4 SWAP3 SWAP2 SWAP1 PUSH2 0x4089 JUMP JUMPDEST PUSH1 0x40 MLOAD DUP1 SWAP2 SUB SWAP1 LOG1 POP POP POP POP POP POP POP JUMP JUMPDEST PUSH1 0xF SLOAD DUP2 JUMP JUMPDEST PUSH2 0x267D PUSH2 0x2D12 JUMP JUMPDEST DUP2 PUSH1 0xB DUP1 SLOAD SWAP1 POP DUP2 LT PUSH2 0x26C5 JUMPI PUSH1 0x40 MLOAD PUSH32 0x8C379A000000000000000000000000000000000000000000000000000000000 DUP2 MSTORE PUSH1 0x4 ADD PUSH2 0x26BC SWAP1 PUSH2 0x3A8F JUMP JUMPDEST PUSH1 0x40 MLOAD DUP1 SWAP2 SUB SWAP1 REVERT JUMPDEST PUSH0 PUSH1 0xB DUP5 DUP2 SLOAD DUP2 LT PUSH2 0x26DA JUMPI PUSH2 0x26D9 PUSH2 0x3AAD JUMP JUMPDEST JUMPDEST SWAP1 PUSH0 MSTORE PUSH1 0x20 PUSH0 KECCAK256 SWAP1 PUSH1 0x6 MUL ADD SWAP1 POP PUSH0 PUSH1 0xC PUSH0 DUP7 DUP2 MSTORE PUSH1 0x20 ADD SWAP1 DUP2 MSTORE PUSH1 0x20 ADD PUSH0 KECCAK256 PUSH0 CALLER PUSH20 0xFFFFFFFFFFFFFFFFFFFFFFFFFFFFFFFFFFFFFFFF AND PUSH20 0xFFFFFFFFFFFFFFFFFFFFFFFFFFFFFFFFFFFFFFFF AND DUP2 MSTORE PUSH1 0x20 ADD SWAP1 DUP2 MSTORE PUSH1 0x20 ADD PUSH0 KECCAK256 SWAP1 POP PUSH2 0x2740 DUP6 PUSH2 0x1393 JUMP JUMPDEST PUSH2 0x274A DUP6 CALLER PUSH2 0x2D58 JUMP JUMPDEST PUSH0 DUP5 GT DUP1 ISZERO PUSH2 0x275B JUMPI POP PUSH0 DUP2 PUSH0 ADD SLOAD EQ JUMPDEST ISZERO PUSH2 0x27D0 JUMPI PUSH1 0xE PUSH0 DUP7 DUP2 MSTORE PUSH1 0x20 ADD SWAP1 DUP2 MSTORE PUSH1 0x20 ADD PUSH0 KECCAK256 CALLER SWAP1 DUP1 PUSH1 0x1 DUP2 SLOAD ADD DUP1 DUP3 SSTORE DUP1 SWAP2 POP POP PUSH1 0x1 SWAP1 SUB SWAP1 PUSH0 MSTORE PUSH1 0x20 PUSH0 KECCAK256 ADD PUSH0 SWAP1 SWAP2 SWAP1 SWAP2 SWAP1 SWAP2 PUSH2 0x100 EXP DUP2 SLOAD DUP2 PUSH20 0xFFFFFFFFFFFFFFFFFFFFFFFFFFFFFFFFFFFFFFFF MUL NOT AND SWAP1 DUP4 PUSH20 0xFFFFFFFFFFFFFFFFFFFFFFFFFFFFFFFFFFFFFFFF AND MUL OR SWAP1 SSTORE POP JUMPDEST PUSH0 DUP5 GT ISZERO PUSH2 0x2894 JUMPI PUSH0 DUP3 PUSH0 ADD PUSH0 SWAP1 SLOAD SWAP1 PUSH2 0x100 EXP SWAP1 DIV PUSH20 0xFFFFFFFFFFFFFFFFFFFFFFFFFFFFFFFFFFFFFFFF AND SWAP1 POP DUP1 PUSH20 0xFFFFFFFFFFFFFFFFFFFFFFFFFFFFFFFFFFFFFFFF AND PUSH4 0x23B872DD CALLER ADDRESS DUP9 PUSH1 0x40 MLOAD DUP5 PUSH4 0xFFFFFFFF AND PUSH1 0xE0 SHL DUP2 MSTORE PUSH1 0x4 ADD PUSH2 0x283B SWAP4 SWAP3 SWAP2 SWAP1 PUSH2 0x40CC JUMP JUMPDEST PUSH1 0x20 PUSH1 0x40 MLOAD DUP1 DUP4 SUB DUP2 PUSH0 DUP8 GAS CALL ISZERO DUP1 ISZERO PUSH2 0x2857 JUMPI RETURNDATASIZE PUSH0 DUP1 RETURNDATACOPY RETURNDATASIZE PUSH0 REVERT JUMPDEST POP POP POP POP PUSH1 0x40 MLOAD RETURNDATASIZE PUSH1 0x1F NOT PUSH1 0x1F DUP3 ADD AND DUP3 ADD DUP1 PUSH1 0x40 MSTORE POP DUP2 ADD SWAP1 PUSH2 0x287B SWAP2 SWAP1 PUSH2 0x3B9E JUMP JUMPDEST POP DUP5 DUP3 PUSH0 ADD SLOAD PUSH2 0x288B SWAP2 SWAP1 PUSH2 0x3CC7 JUMP JUMPDEST DUP3 PUSH0 ADD DUP2 SWAP1 SSTORE POP POP JUMPDEST PUSH5 0xE8D4A51000 DUP3 PUSH1 0x3 ADD SLOAD DUP3 PUSH0 ADD SLOAD PUSH2 0x28AD SWAP2 SWAP1 PUSH2 0x3BF6 JUMP JUMPDEST PUSH2 0x28B7 SWAP2 SWAP1 PUSH2 0x3C64 JUMP JUMPDEST DUP2 PUSH1 0x1 ADD DUP2 SWAP1 SSTORE POP PUSH0 DUP2 PUSH1 0x3 ADD SLOAD SUB PUSH2 0x28D4 JUMPI TIMESTAMP DUP2 PUSH1 0x3 ADD DUP2 SWAP1 SSTORE POP JUMPDEST DUP5 CALLER PUSH20 0xFFFFFFFFFFFFFFFFFFFFFFFFFFFFFFFFFFFFFFFF AND PUSH32 0x36AF321EC8D3C75236829C5317AFFD40DDB308863A1236D2D277A4025CCCEE1E DUP7 DUP5 PUSH1 0x3 ADD SLOAD PUSH1 0x40 MLOAD PUSH2 0x2921 SWAP3 SWAP2 SWAP1 PUSH2 0x3F2A JUMP JUMPDEST PUSH1 0x40 MLOAD DUP1 SWAP2 SUB SWAP1 LOG3 POP POP POP PUSH2 0x2934 PUSH2 0x2E70 JUMP JUMPDEST POP POP JUMP JUMPDEST PUSH1 0x7 PUSH0 SWAP1 SLOAD SWAP1 PUSH2 0x100 EXP SWAP1 DIV PUSH20 0xFFFFFFFFFFFFFFFFFFFFFFFFFFFFFFFFFFFFFFFF AND DUP2 JUMP JUMPDEST PUSH0 DUP3 PUSH1 0xB DUP1 SLOAD SWAP1 POP DUP2 LT PUSH2 0x29A6 JUMPI PUSH1 0x40 MLOAD PUSH32 0x8C379A000000000000000000000000000000000000000000000000000000000 DUP2 MSTORE PUSH1 0x4 ADD PUSH2 0x299D SWAP1 PUSH2 0x3A8F JUMP JUMPDEST PUSH1 0x40 MLOAD DUP1 SWAP2 SUB SWAP1 REVERT JUMPDEST PUSH0 PUSH1 0xB DUP6 DUP2 SLOAD DUP2 LT PUSH2 0x29BB JUMPI PUSH2 0x29BA PUSH2 0x3AAD JUMP JUMPDEST JUMPDEST SWAP1 PUSH0 MSTORE PUSH1 0x20 PUSH0 KECCAK256 SWAP1 PUSH1 0x6 MUL ADD SWAP1 POP PUSH0 PUSH1 0xC PUSH0 DUP8 DUP2 MSTORE PUSH1 0x20 ADD SWAP1 DUP2 MSTORE PUSH1 0x20 ADD PUSH0 KECCAK256 PUSH0 DUP7 PUSH20 0xFFFFFFFFFFFFFFFFFFFFFFFFFFFFFFFFFFFFFFFF AND PUSH20 0xFFFFFFFFFFFFFFFFFFFFFFFFFFFFFFFFFFFFFFFF AND DUP2 MSTORE PUSH1 0x20 ADD SWAP1 DUP2 MSTORE PUSH1 0x20 ADD PUSH0 KECCAK256 SWAP1 POP PUSH0 DUP3 PUSH1 0x3 ADD SLOAD SWAP1 POP PUSH0 DUP4 PUSH0 ADD PUSH0 SWAP1 SLOAD SWAP1 PUSH2 0x100 EXP SWAP1 DIV PUSH20 0xFFFFFFFFFFFFFFFFFFFFFFFFFFFFFFFFFFFFFFFF AND PUSH20 0xFFFFFFFFFFFFFFFFFFFFFFFFFFFFFFFFFFFFFFFF AND PUSH4 0x70A08231 ADDRESS PUSH1 0x40 MLOAD DUP3 PUSH4 0xFFFFFFFF AND PUSH1 0xE0 SHL DUP2 MSTORE PUSH1 0x4 ADD PUSH2 0x2A7C SWAP2 SWAP1 PUSH2 0x38EC JUMP JUMPDEST PUSH1 0x20 PUSH1 0x40 MLOAD DUP1 DUP4 SUB DUP2 DUP7 GAS STATICCALL ISZERO DUP1 ISZERO PUSH2 0x2A97 JUMPI RETURNDATASIZE PUSH0 DUP1 RETURNDATACOPY RETURNDATASIZE PUSH0 REVERT JUMPDEST POP POP POP POP PUSH1 0x40 MLOAD RETURNDATASIZE PUSH1 0x1F NOT PUSH1 0x1F DUP3 ADD AND DUP3 ADD DUP1 PUSH1 0x40 MSTORE POP DUP2 ADD SWAP1 PUSH2 0x2ABB SWAP2 SWAP1 PUSH2 0x3D76 JUMP JUMPDEST SWAP1 POP DUP4 PUSH1 0x2 ADD SLOAD NUMBER GT DUP1 ISZERO PUSH2 0x2AD0 JUMPI POP PUSH0 DUP2 EQ ISZERO JUMPDEST ISZERO PUSH2 0x2B59 JUMPI PUSH0 PUSH2 0x2AE4 DUP6 PUSH1 0x2 ADD SLOAD NUMBER PUSH2 0x1E5D JUMP JUMPDEST SWAP1 POP PUSH0 PUSH1 0x4 SLOAD PUSH1 0x5 SLOAD PUSH1 0x10 SLOAD DUP9 PUSH1 0x1 ADD SLOAD PUSH1 0x8 SLOAD DUP7 PUSH2 0x2B03 SWAP2 SWAP1 PUSH2 0x3BF6 JUMP JUMPDEST PUSH2 0x2B0D SWAP2 SWAP1 PUSH2 0x3BF6 JUMP JUMPDEST PUSH2 0x2B17 SWAP2 SWAP1 PUSH2 0x3C64 JUMP JUMPDEST PUSH2 0x2B21 SWAP2 SWAP1 PUSH2 0x3BF6 JUMP JUMPDEST PUSH2 0x2B2B SWAP2 SWAP1 PUSH2 0x3C64 JUMP JUMPDEST SWAP1 POP DUP3 PUSH5 0xE8D4A51000 DUP3 PUSH2 0x2B3F SWAP2 SWAP1 PUSH2 0x3BF6 JUMP JUMPDEST PUSH2 0x2B49 SWAP2 SWAP1 PUSH2 0x3C64 JUMP JUMPDEST DUP5 PUSH2 0x2B54 SWAP2 SWAP1 PUSH2 0x3CC7 JUMP JUMPDEST SWAP4 POP POP POP JUMPDEST PUSH0 DUP4 PUSH1 0x1 ADD SLOAD PUSH5 0xE8D4A51000 DUP5 DUP7 PUSH0 ADD SLOAD PUSH2 0x2B74 SWAP2 SWAP1 PUSH2 0x3BF6 JUMP JUMPDEST PUSH2 0x2B7E SWAP2 SWAP1 PUSH2 0x3C64 JUMP JUMPDEST DUP6 PUSH1 0x2 ADD SLOAD PUSH2 0x2B8D SWAP2 SWAP1 PUSH2 0x3CC7 JUMP JUMPDEST PUSH2 0x2B97 SWAP2 SWAP1 PUSH2 0x3C94 JUMP JUMPDEST SWAP1 POP DUP1 DUP5 PUSH1 0x2 ADD SLOAD PUSH2 0x2BA9 SWAP2 SWAP1 PUSH2 0x3CC7 JUMP JUMPDEST DUP5 PUSH1 0x2 ADD DUP2 SWAP1 SSTORE POP DUP4 PUSH1 0x2 ADD SLOAD SWAP7 POP POP POP POP POP POP POP SWAP3 SWAP2 POP POP JUMP JUMPDEST PUSH0 DUP1 PUSH1 0xB DUP5 DUP2 SLOAD DUP2 LT PUSH2 0x2BDA JUMPI PUSH2 0x2BD9 PUSH2 0x3AAD JUMP JUMPDEST JUMPDEST SWAP1 PUSH0 MSTORE PUSH1 0x20 PUSH0 KECCAK256 SWAP1 PUSH1 0x6 MUL ADD SWAP1 POP PUSH0 PUSH1 0xC PUSH0 DUP7 DUP2 MSTORE PUSH1 0x20 ADD SWAP1 DUP2 MSTORE PUSH1 0x20 ADD PUSH0 KECCAK256 PUSH0 DUP6 PUSH20 0xFFFFFFFFFFFFFFFFFFFFFFFFFFFFFFFFFFFFFFFF AND PUSH20 0xFFFFFFFFFFFFFFFFFFFFFFFFFFFFFFFFFFFFFFFF AND DUP2 MSTORE PUSH1 0x20 ADD SWAP1 DUP2 MSTORE PUSH1 0x20 ADD PUSH0 KECCAK256 SWAP1 POP PUSH0 PUSH5 0xE8D4A51000 DUP4 PUSH1 0x3 ADD SLOAD DUP4 PUSH0 ADD SLOAD PUSH2 0x2C51 SWAP2 SWAP1 PUSH2 0x3BF6 JUMP JUMPDEST PUSH2 0x2C5B SWAP2 SWAP1 PUSH2 0x3C64 JUMP JUMPDEST SWAP1 POP DUP1 SWAP4 POP POP POP POP SWAP3 SWAP2 POP POP JUMP JUMPDEST PUSH1 0x2 PUSH0 SWAP1 SLOAD SWAP1 PUSH2 0x100 EXP SWAP1 DIV PUSH20 0xFFFFFFFFFFFFFFFFFFFFFFFFFFFFFFFFFFFFFFFF AND DUP2 JUMP JUMPDEST PUSH2 0x2C96 PUSH2 0x2E79 JUMP JUMPDEST PUSH0 PUSH20 0xFFFFFFFFFFFFFFFFFFFFFFFFFFFFFFFFFFFFFFFF AND DUP2 PUSH20 0xFFFFFFFFFFFFFFFFFFFFFFFFFFFFFFFFFFFFFFFF AND SUB PUSH2 0x2D06 JUMPI PUSH0 PUSH1 0x40 MLOAD PUSH32 0x1E4FBDF700000000000000000000000000000000000000000000000000000000 DUP2 MSTORE PUSH1 0x4 ADD PUSH2 0x2CFD SWAP2 SWAP1 PUSH2 0x38EC JUMP JUMPDEST PUSH1 0x40 MLOAD DUP1 SWAP2 SUB SWAP1 REVERT JUMPDEST PUSH2 0x2D0F DUP2 PUSH2 0x3234 JUMP JUMPDEST POP JUMP JUMPDEST PUSH1 0x2 PUSH1 0x1 SLOAD SUB PUSH2 0x2D4E JUMPI PUSH1 0x40 MLOAD PUSH32 0x3EE5AEB500000000000000000000000000000000000000000000000000000000 DUP2 MSTORE PUSH1 0x4 ADD PUSH1 0x40 MLOAD DUP1 SWAP2 SUB SWAP1 REVERT JUMPDEST PUSH1 0x2 PUSH1 0x1 DUP2 SWAP1 SSTORE POP JUMP JUMPDEST DUP2 PUSH1 0xB DUP1 SLOAD SWAP1 POP DUP2 LT PUSH2 0x2DA0 JUMPI PUSH1 0x40 MLOAD PUSH32 0x8C379A000000000000000000000000000000000000000000000000000000000 DUP2 MSTORE PUSH1 0x4 ADD PUSH2 0x2D97 SWAP1 PUSH2 0x3A8F JUMP JUMPDEST PUSH1 0x40 MLOAD DUP1 SWAP2 SUB SWAP1 REVERT JUMPDEST PUSH0 PUSH1 0xB DUP5 DUP2 SLOAD DUP2 LT PUSH2 0x2DB5 JUMPI PUSH2 0x2DB4 PUSH2 0x3AAD JUMP JUMPDEST JUMPDEST SWAP1 PUSH0 MSTORE PUSH1 0x20 PUSH0 KECCAK256 SWAP1 PUSH1 0x6 MUL ADD SWAP1 POP PUSH0 PUSH1 0xC PUSH0 DUP7 DUP2 MSTORE PUSH1 0x20 ADD SWAP1 DUP2 MSTORE PUSH1 0x20 ADD PUSH0 KECCAK256 PUSH0 DUP6 PUSH20 0xFFFFFFFFFFFFFFFFFFFFFFFFFFFFFFFFFFFFFFFF AND PUSH20 0xFFFFFFFFFFFFFFFFFFFFFFFFFFFFFFFFFFFFFFFF AND DUP2 MSTORE PUSH1 0x20 ADD SWAP1 DUP2 MSTORE PUSH1 0x20 ADD PUSH0 KECCAK256 SWAP1 POP PUSH0 DUP2 PUSH1 0x1 ADD SLOAD PUSH5 0xE8D4A51000 DUP5 PUSH1 0x3 ADD SLOAD DUP5 PUSH0 ADD SLOAD PUSH2 0x2E31 SWAP2 SWAP1 PUSH2 0x3BF6 JUMP JUMPDEST PUSH2 0x2E3B SWAP2 SWAP1 PUSH2 0x3C64 JUMP JUMPDEST PUSH2 0x2E45 SWAP2 SWAP1 PUSH2 0x3C94 JUMP JUMPDEST SWAP1 POP PUSH0 DUP2 GT ISZERO PUSH2 0x2E68 JUMPI DUP1 DUP3 PUSH1 0x2 ADD SLOAD PUSH2 0x2E5F SWAP2 SWAP1 PUSH2 0x3CC7 JUMP JUMPDEST DUP3 PUSH1 0x2 ADD DUP2 SWAP1 SSTORE POP JUMPDEST POP POP POP POP POP POP JUMP JUMPDEST PUSH1 0x1 DUP1 DUP2 SWAP1 SSTORE POP JUMP JUMPDEST PUSH2 0x2E81 PUSH2 0x35B0 JUMP JUMPDEST PUSH20 0xFFFFFFFFFFFFFFFFFFFFFFFFFFFFFFFFFFFFFFFF AND PUSH2 0x2E9F PUSH2 0x1E36 JUMP JUMPDEST PUSH20 0xFFFFFFFFFFFFFFFFFFFFFFFFFFFFFFFFFFFFFFFF AND EQ PUSH2 0x2EFE JUMPI PUSH2 0x2EC2 PUSH2 0x35B0 JUMP JUMPDEST PUSH1 0x40 MLOAD PUSH32 0x118CDAA700000000000000000000000000000000000000000000000000000000 DUP2 MSTORE PUSH1 0x4 ADD PUSH2 0x2EF5 SWAP2 SWAP1 PUSH2 0x38EC JUMP JUMPDEST PUSH1 0x40 MLOAD DUP1 SWAP2 SUB SWAP1 REVERT JUMPDEST JUMP JUMPDEST PUSH0 PUSH1 0xE PUSH0 DUP6 DUP2 MSTORE PUSH1 0x20 ADD SWAP1 DUP2 MSTORE PUSH1 0x20 ADD PUSH0 KECCAK256 DUP1 SLOAD SWAP1 POP SWAP1 POP PUSH0 JUMPDEST DUP2 DUP2 LT ISZERO PUSH2 0x3029 JUMPI PUSH0 PUSH1 0xE PUSH0 DUP8 DUP2 MSTORE PUSH1 0x20 ADD SWAP1 DUP2 MSTORE PUSH1 0x20 ADD PUSH0 KECCAK256 DUP3 DUP2 SLOAD DUP2 LT PUSH2 0x2F46 JUMPI PUSH2 0x2F45 PUSH2 0x3AAD JUMP JUMPDEST JUMPDEST SWAP1 PUSH0 MSTORE PUSH1 0x20 PUSH0 KECCAK256 ADD PUSH0 SWAP1 SLOAD SWAP1 PUSH2 0x100 EXP SWAP1 DIV PUSH20 0xFFFFFFFFFFFFFFFFFFFFFFFFFFFFFFFFFFFFFFFF AND SWAP1 POP PUSH0 PUSH1 0xC PUSH0 DUP9 DUP2 MSTORE PUSH1 0x20 ADD SWAP1 DUP2 MSTORE PUSH1 0x20 ADD PUSH0 KECCAK256 PUSH0 DUP4 PUSH20 0xFFFFFFFFFFFFFFFFFFFFFFFFFFFFFFFFFFFFFFFF AND PUSH20 0xFFFFFFFFFFFFFFFFFFFFFFFFFFFFFFFFFFFFFFFF AND DUP2 MSTORE PUSH1 0x20 ADD SWAP1 DUP2 MSTORE PUSH1 0x20 ADD PUSH0 KECCAK256 SWAP1 POP PUSH0 DUP6 PUSH5 0xE8D4A51000 DUP4 PUSH0 ADD SLOAD PUSH2 0x2FD5 SWAP2 SWAP1 PUSH2 0x3BF6 JUMP JUMPDEST PUSH2 0x2FDF SWAP2 SWAP1 PUSH2 0x3C64 JUMP JUMPDEST SWAP1 POP PUSH0 PUSH5 0xE8D4A51000 DUP3 DUP10 PUSH2 0x2FF4 SWAP2 SWAP1 PUSH2 0x3BF6 JUMP JUMPDEST PUSH2 0x2FFE SWAP2 SWAP1 PUSH2 0x3C64 JUMP JUMPDEST SWAP1 POP DUP1 DUP4 PUSH1 0x2 ADD PUSH0 DUP3 DUP3 SLOAD PUSH2 0x3013 SWAP2 SWAP1 PUSH2 0x3CC7 JUMP JUMPDEST SWAP3 POP POP DUP2 SWAP1 SSTORE POP POP POP POP POP DUP1 PUSH1 0x1 ADD SWAP1 POP PUSH2 0x2F1A JUMP JUMPDEST POP PUSH32 0x2B3815017A53DF0F7A02DAFF8930FA0330E6091A501C5DE817E0DF95894BAB1D DUP5 DUP5 DUP5 PUSH1 0x40 MLOAD PUSH2 0x305D SWAP4 SWAP3 SWAP2 SWAP1 PUSH2 0x386A JUMP JUMPDEST PUSH1 0x40 MLOAD DUP1 SWAP2 SUB SWAP1 LOG1 POP POP POP POP JUMP JUMPDEST PUSH0 PUSH1 0xE PUSH0 DUP5 DUP2 MSTORE PUSH1 0x20 ADD SWAP1 DUP2 MSTORE PUSH1 0x20 ADD PUSH0 KECCAK256 DUP1 SLOAD SWAP1 POP SWAP1 POP PUSH0 JUMPDEST DUP2 DUP2 LT ISZERO PUSH2 0x322E JUMPI DUP3 PUSH20 0xFFFFFFFFFFFFFFFFFFFFFFFFFFFFFFFFFFFFFFFF AND PUSH1 0xE PUSH0 DUP7 DUP2 MSTORE PUSH1 0x20 ADD SWAP1 DUP2 MSTORE PUSH1 0x20 ADD PUSH0 KECCAK256 DUP3 DUP2 SLOAD DUP2 LT PUSH2 0x30C7 JUMPI PUSH2 0x30C6 PUSH2 0x3AAD JUMP JUMPDEST JUMPDEST SWAP1 PUSH0 MSTORE PUSH1 0x20 PUSH0 KECCAK256 ADD PUSH0 SWAP1 SLOAD SWAP1 PUSH2 0x100 EXP SWAP1 DIV PUSH20 0xFFFFFFFFFFFFFFFFFFFFFFFFFFFFFFFFFFFFFFFF AND PUSH20 0xFFFFFFFFFFFFFFFFFFFFFFFFFFFFFFFFFFFFFFFF AND SUB PUSH2 0x3221 JUMPI PUSH1 0xE PUSH0 DUP6 DUP2 MSTORE PUSH1 0x20 ADD SWAP1 DUP2 MSTORE PUSH1 0x20 ADD PUSH0 KECCAK256 PUSH1 0x1 DUP4 PUSH2 0x3128 SWAP2 SWAP1 PUSH2 0x3C94 JUMP JUMPDEST DUP2 SLOAD DUP2 LT PUSH2 0x3139 JUMPI PUSH2 0x3138 PUSH2 0x3AAD JUMP JUMPDEST JUMPDEST SWAP1 PUSH0 MSTORE PUSH1 0x20 PUSH0 KECCAK256 ADD PUSH0 SWAP1 SLOAD SWAP1 PUSH2 0x100 EXP SWAP1 DIV PUSH20 0xFFFFFFFFFFFFFFFFFFFFFFFFFFFFFFFFFFFFFFFF AND PUSH1 0xE PUSH0 DUP7 DUP2 MSTORE PUSH1 0x20 ADD SWAP1 DUP2 MSTORE PUSH1 0x20 ADD PUSH0 KECCAK256 DUP3 DUP2 SLOAD DUP2 LT PUSH2 0x3184 JUMPI PUSH2 0x3183 PUSH2 0x3AAD JUMP JUMPDEST JUMPDEST SWAP1 PUSH0 MSTORE PUSH1 0x20 PUSH0 KECCAK256 ADD PUSH0 PUSH2 0x100 EXP DUP2 SLOAD DUP2 PUSH20 0xFFFFFFFFFFFFFFFFFFFFFFFFFFFFFFFFFFFFFFFF MUL NOT AND SWAP1 DUP4 PUSH20 0xFFFFFFFFFFFFFFFFFFFFFFFFFFFFFFFFFFFFFFFF AND MUL OR SWAP1 SSTORE POP PUSH1 0xE PUSH0 DUP6 DUP2 MSTORE PUSH1 0x20 ADD SWAP1 DUP2 MSTORE PUSH1 0x20 ADD PUSH0 KECCAK256 DUP1 SLOAD DUP1 PUSH2 0x31EA JUMPI PUSH2 0x31E9 PUSH2 0x4101 JUMP JUMPDEST JUMPDEST PUSH1 0x1 SWAP1 SUB DUP2 DUP2 SWAP1 PUSH0 MSTORE PUSH1 0x20 PUSH0 KECCAK256 ADD PUSH0 PUSH2 0x100 EXP DUP2 SLOAD SWAP1 PUSH20 0xFFFFFFFFFFFFFFFFFFFFFFFFFFFFFFFFFFFFFFFF MUL NOT AND SWAP1 SSTORE SWAP1 SSTORE PUSH2 0x322E JUMP JUMPDEST DUP1 DUP1 PUSH1 0x1 ADD SWAP2 POP POP PUSH2 0x3085 JUMP JUMPDEST POP POP POP POP JUMP JUMPDEST PUSH0 DUP1 PUSH0 SWAP1 SLOAD SWAP1 PUSH2 0x100 EXP SWAP1 DIV PUSH20 0xFFFFFFFFFFFFFFFFFFFFFFFFFFFFFFFFFFFFFFFF AND SWAP1 POP DUP2 PUSH0 DUP1 PUSH2 0x100 EXP DUP2 SLOAD DUP2 PUSH20 0xFFFFFFFFFFFFFFFFFFFFFFFFFFFFFFFFFFFFFFFF MUL NOT AND SWAP1 DUP4 PUSH20 0xFFFFFFFFFFFFFFFFFFFFFFFFFFFFFFFFFFFFFFFF AND MUL OR SWAP1 SSTORE POP DUP2 PUSH20 0xFFFFFFFFFFFFFFFFFFFFFFFFFFFFFFFFFFFFFFFF AND DUP2 PUSH20 0xFFFFFFFFFFFFFFFFFFFFFFFFFFFFFFFFFFFFFFFF AND PUSH32 0x8BE0079C531659141344CD1FD0A4F28419497F9722A3DAAFE3B4186F6B6457E0 PUSH1 0x40 MLOAD PUSH1 0x40 MLOAD DUP1 SWAP2 SUB SWAP1 LOG3 POP POP JUMP JUMPDEST PUSH0 PUSH1 0x2 PUSH0 SWAP1 SLOAD SWAP1 PUSH2 0x100 EXP SWAP1 DIV PUSH20 0xFFFFFFFFFFFFFFFFFFFFFFFFFFFFFFFFFFFFFFFF AND PUSH20 0xFFFFFFFFFFFFFFFFFFFFFFFFFFFFFFFFFFFFFFFF AND PUSH4 0x27E235E3 ADDRESS PUSH1 0x40 MLOAD DUP3 PUSH4 0xFFFFFFFF AND PUSH1 0xE0 SHL DUP2 MSTORE PUSH1 0x4 ADD PUSH2 0x3350 SWAP2 SWAP1 PUSH2 0x38EC JUMP JUMPDEST PUSH1 0x20 PUSH1 0x40 MLOAD DUP1 DUP4 SUB DUP2 DUP7 GAS STATICCALL ISZERO DUP1 ISZERO PUSH2 0x336B JUMPI RETURNDATASIZE PUSH0 DUP1 RETURNDATACOPY RETURNDATASIZE PUSH0 REVERT JUMPDEST POP POP POP POP PUSH1 0x40 MLOAD RETURNDATASIZE PUSH1 0x1F NOT PUSH1 0x1F DUP3 ADD AND DUP3 ADD DUP1 PUSH1 0x40 MSTORE POP DUP2 ADD SWAP1 PUSH2 0x338F SWAP2 SWAP1 PUSH2 0x3D76 JUMP JUMPDEST SWAP1 POP DUP1 DUP3 GT ISZERO PUSH2 0x343B JUMPI PUSH1 0x2 PUSH0 SWAP1 SLOAD SWAP1 PUSH2 0x100 EXP SWAP1 DIV PUSH20 0xFFFFFFFFFFFFFFFFFFFFFFFFFFFFFFFFFFFFFFFF AND PUSH20 0xFFFFFFFFFFFFFFFFFFFFFFFFFFFFFFFFFFFFFFFF AND PUSH4 0xA9059CBB DUP5 DUP4 PUSH1 0x40 MLOAD DUP4 PUSH4 0xFFFFFFFF AND PUSH1 0xE0 SHL DUP2 MSTORE PUSH1 0x4 ADD PUSH2 0x33F5 SWAP3 SWAP2 SWAP1 PUSH2 0x3B42 JUMP JUMPDEST PUSH1 0x20 PUSH1 0x40 MLOAD DUP1 DUP4 SUB DUP2 PUSH0 DUP8 GAS CALL ISZERO DUP1 ISZERO PUSH2 0x3411 JUMPI RETURNDATASIZE PUSH0 DUP1 RETURNDATACOPY RETURNDATASIZE PUSH0 REVERT JUMPDEST POP POP POP POP PUSH1 0x40 MLOAD RETURNDATASIZE PUSH1 0x1F NOT PUSH1 0x1F DUP3 ADD AND DUP3 ADD DUP1 PUSH1 0x40 MSTORE POP DUP2 ADD SWAP1 PUSH2 0x3435 SWAP2 SWAP1 PUSH2 0x3B9E JUMP JUMPDEST POP PUSH2 0x34D9 JUMP JUMPDEST PUSH1 0x2 PUSH0 SWAP1 SLOAD SWAP1 PUSH2 0x100 EXP SWAP1 DIV PUSH20 0xFFFFFFFFFFFFFFFFFFFFFFFFFFFFFFFFFFFFFFFF AND PUSH20 0xFFFFFFFFFFFFFFFFFFFFFFFFFFFFFFFFFFFFFFFF AND PUSH4 0xA9059CBB DUP5 DUP5 PUSH1 0x40 MLOAD DUP4 PUSH4 0xFFFFFFFF AND PUSH1 0xE0 SHL DUP2 MSTORE PUSH1 0x4 ADD PUSH2 0x3497 SWAP3 SWAP2 SWAP1 PUSH2 0x3B42 JUMP JUMPDEST PUSH1 0x20 PUSH1 0x40 MLOAD DUP1 DUP4 SUB DUP2 PUSH0 DUP8 GAS CALL ISZERO DUP1 ISZERO PUSH2 0x34B3 JUMPI RETURNDATASIZE PUSH0 DUP1 RETURNDATACOPY RETURNDATASIZE PUSH0 REVERT JUMPDEST POP POP POP POP PUSH1 0x40 MLOAD RETURNDATASIZE PUSH1 0x1F NOT PUSH1 0x1F DUP3 ADD AND DUP3 ADD DUP1 PUSH1 0x40 MSTORE POP DUP2 ADD SWAP1 PUSH2 0x34D7 SWAP2 SWAP1 PUSH2 0x3B9E JUMP JUMPDEST POP JUMPDEST POP POP POP JUMP JUMPDEST PUSH0 PUSH1 0xB DUP1 SLOAD SWAP1 POP SWAP1 POP PUSH0 JUMPDEST DUP2 DUP2 LT ISZERO PUSH2 0x35AB JUMPI DUP3 PUSH20 0xFFFFFFFFFFFFFFFFFFFFFFFFFFFFFFFFFFFFFFFF AND PUSH1 0xB DUP3 DUP2 SLOAD DUP2 LT PUSH2 0x351C JUMPI PUSH2 0x351B PUSH2 0x3AAD JUMP JUMPDEST JUMPDEST SWAP1 PUSH0 MSTORE PUSH1 0x20 PUSH0 KECCAK256 SWAP1 PUSH1 0x6 MUL ADD PUSH0 ADD PUSH0 SWAP1 SLOAD SWAP1 PUSH2 0x100 EXP SWAP1 DIV PUSH20 0xFFFFFFFFFFFFFFFFFFFFFFFFFFFFFFFFFFFFFFFF AND PUSH20 0xFFFFFFFFFFFFFFFFFFFFFFFFFFFFFFFFFFFFFFFF AND SUB PUSH2 0x35A0 JUMPI PUSH1 0x40 MLOAD PUSH32 0x8C379A000000000000000000000000000000000000000000000000000000000 DUP2 MSTORE PUSH1 0x4 ADD PUSH2 0x3597 SWAP1 PUSH2 0x4178 JUMP JUMPDEST PUSH1 0x40 MLOAD DUP1 SWAP2 SUB SWAP1 REVERT JUMPDEST DUP1 PUSH1 0x1 ADD SWAP1 POP PUSH2 0x34E9 JUMP JUMPDEST POP POP POP JUMP JUMPDEST PUSH0 CALLER SWAP1 POP SWAP1 JUMP JUMPDEST PUSH0 DUP2 SWAP1 POP SWAP2 SWAP1 POP JUMP JUMPDEST PUSH2 0x35C9 DUP2 PUSH2 0x35B7 JUMP JUMPDEST DUP3 MSTORE POP POP JUMP JUMPDEST PUSH0 PUSH1 0x20 DUP3 ADD SWAP1 POP PUSH2 0x35E2 PUSH0 DUP4 ADD DUP5 PUSH2 0x35C0 JUMP JUMPDEST SWAP3 SWAP2 POP POP JUMP JUMPDEST PUSH0 DUP1 REVERT JUMPDEST PUSH2 0x35F5 DUP2 PUSH2 0x35B7 JUMP JUMPDEST DUP2 EQ PUSH2 0x35FF JUMPI PUSH0 DUP1 REVERT JUMPDEST POP JUMP JUMPDEST PUSH0 DUP2 CALLDATALOAD SWAP1 POP PUSH2 0x3610 DUP2 PUSH2 0x35EC JUMP JUMPDEST SWAP3 SWAP2 POP POP JUMP JUMPDEST PUSH0 PUSH1 0x20 DUP3 DUP5 SUB SLT ISZERO PUSH2 0x362B JUMPI PUSH2 0x362A PUSH2 0x35E8 JUMP JUMPDEST JUMPDEST PUSH0 PUSH2 0x3638 DUP5 DUP3 DUP6 ADD PUSH2 0x3602 JUMP JUMPDEST SWAP2 POP POP SWAP3 SWAP2 POP POP JUMP JUMPDEST PUSH0 DUP2 MLOAD SWAP1 POP SWAP2 SWAP1 POP JUMP JUMPDEST PUSH0 DUP3 DUP3 MSTORE PUSH1 0x20 DUP3 ADD SWAP1 POP SWAP3 SWAP2 POP POP JUMP JUMPDEST PUSH0 DUP2 SWAP1 POP PUSH1 0x20 DUP3 ADD SWAP1 POP SWAP2 SWAP1 POP JUMP JUMPDEST PUSH0 PUSH20 0xFFFFFFFFFFFFFFFFFFFFFFFFFFFFFFFFFFFFFFFF DUP3 AND SWAP1 POP SWAP2 SWAP1 POP JUMP JUMPDEST PUSH0 PUSH2 0x3693 DUP3 PUSH2 0x366A JUMP JUMPDEST SWAP1 POP SWAP2 SWAP1 POP JUMP JUMPDEST PUSH2 0x36A3 DUP2 PUSH2 0x3689 JUMP JUMPDEST DUP3 MSTORE POP POP JUMP JUMPDEST PUSH0 PUSH2 0x36B4 DUP4 DUP4 PUSH2 0x369A JUMP JUMPDEST PUSH1 0x20 DUP4 ADD SWAP1 POP SWAP3 SWAP2 POP POP JUMP JUMPDEST PUSH0 PUSH1 0x20 DUP3 ADD SWAP1 POP SWAP2 SWAP1 POP JUMP JUMPDEST PUSH0 PUSH2 0x36D6 DUP3 PUSH2 0x3641 JUMP JUMPDEST PUSH2 0x36E0 DUP2 DUP6 PUSH2 0x364B JUMP JUMPDEST SWAP4 POP PUSH2 0x36EB DUP4 PUSH2 0x365B JUMP JUMPDEST DUP1 PUSH0 JUMPDEST DUP4 DUP2 LT ISZERO PUSH2 0x371B JUMPI DUP2 MLOAD PUSH2 0x3702 DUP9 DUP3 PUSH2 0x36A9 JUMP JUMPDEST SWAP8 POP PUSH2 0x370D DUP4 PUSH2 0x36C0 JUMP JUMPDEST SWAP3 POP POP PUSH1 0x1 DUP2 ADD SWAP1 POP PUSH2 0x36EE JUMP JUMPDEST POP DUP6 SWAP4 POP POP POP POP SWAP3 SWAP2 POP POP JUMP JUMPDEST PUSH0 PUSH1 0x20 DUP3 ADD SWAP1 POP DUP2 DUP2 SUB PUSH0 DUP4 ADD MSTORE PUSH2 0x3740 DUP2 DUP5 PUSH2 0x36CC JUMP JUMPDEST SWAP1 POP SWAP3 SWAP2 POP POP JUMP JUMPDEST PUSH0 DUP2 SWAP1 POP SWAP2 SWAP1 POP JUMP JUMPDEST PUSH0 PUSH2 0x376B PUSH2 0x3766 PUSH2 0x3761 DUP5 PUSH2 0x366A JUMP JUMPDEST PUSH2 0x3748 JUMP JUMPDEST PUSH2 0x366A JUMP JUMPDEST SWAP1 POP SWAP2 SWAP1 POP JUMP JUMPDEST PUSH0 PUSH2 0x377C DUP3 PUSH2 0x3751 JUMP JUMPDEST SWAP1 POP SWAP2 SWAP1 POP JUMP JUMPDEST PUSH0 PUSH2 0x378D DUP3 PUSH2 0x3772 JUMP JUMPDEST SWAP1 POP SWAP2 SWAP1 POP JUMP JUMPDEST PUSH2 0x379D DUP2 PUSH2 0x3783 JUMP JUMPDEST DUP3 MSTORE POP POP JUMP JUMPDEST PUSH0 PUSH1 0xC0 DUP3 ADD SWAP1 POP PUSH2 0x37B6 PUSH0 DUP4 ADD DUP10 PUSH2 0x3794 JUMP JUMPDEST PUSH2 0x37C3 PUSH1 0x20 DUP4 ADD DUP9 PUSH2 0x35C0 JUMP JUMPDEST PUSH2 0x37D0 PUSH1 0x40 DUP4 ADD DUP8 PUSH2 0x35C0 JUMP JUMPDEST PUSH2 0x37DD PUSH1 0x60 DUP4 ADD DUP7 PUSH2 0x35C0 JUMP JUMPDEST PUSH2 0x37EA PUSH1 0x80 DUP4 ADD DUP6 PUSH2 0x35C0 JUMP JUMPDEST PUSH2 0x37F7 PUSH1 0xA0 DUP4 ADD DUP5 PUSH2 0x35C0 JUMP JUMPDEST SWAP8 SWAP7 POP POP POP POP POP POP POP JUMP JUMPDEST PUSH2 0x380B DUP2 PUSH2 0x3689 JUMP JUMPDEST DUP2 EQ PUSH2 0x3815 JUMPI PUSH0 DUP1 REVERT JUMPDEST POP JUMP JUMPDEST PUSH0 DUP2 CALLDATALOAD SWAP1 POP PUSH2 0x3826 DUP2 PUSH2 0x3802 JUMP JUMPDEST SWAP3 SWAP2 POP POP JUMP JUMPDEST PUSH0 DUP1 PUSH1 0x40 DUP4 DUP6 SUB SLT ISZERO PUSH2 0x3842 JUMPI PUSH2 0x3841 PUSH2 0x35E8 JUMP JUMPDEST JUMPDEST PUSH0 PUSH2 0x384F DUP6 DUP3 DUP7 ADD PUSH2 0x3602 JUMP JUMPDEST SWAP3 POP POP PUSH1 0x20 PUSH2 0x3860 DUP6 DUP3 DUP7 ADD PUSH2 0x3818 JUMP JUMPDEST SWAP2 POP POP SWAP3 POP SWAP3 SWAP1 POP JUMP JUMPDEST PUSH0 PUSH1 0x60 DUP3 ADD SWAP1 POP PUSH2 0x387D PUSH0 DUP4 ADD DUP7 PUSH2 0x35C0 JUMP JUMPDEST PUSH2 0x388A PUSH1 0x20 DUP4 ADD DUP6 PUSH2 0x35C0 JUMP JUMPDEST PUSH2 0x3897 PUSH1 0x40 DUP4 ADD DUP5 PUSH2 0x35C0 JUMP JUMPDEST SWAP5 SWAP4 POP POP POP POP JUMP JUMPDEST PUSH0 DUP1 PUSH1 0x40 DUP4 DUP6 SUB SLT ISZERO PUSH2 0x38B5 JUMPI PUSH2 0x38B4 PUSH2 0x35E8 JUMP JUMPDEST JUMPDEST PUSH0 PUSH2 0x38C2 DUP6 DUP3 DUP7 ADD PUSH2 0x3602 JUMP JUMPDEST SWAP3 POP POP PUSH1 0x20 PUSH2 0x38D3 DUP6 DUP3 DUP7 ADD PUSH2 0x3602 JUMP JUMPDEST SWAP2 POP POP SWAP3 POP SWAP3 SWAP1 POP JUMP JUMPDEST PUSH2 0x38E6 DUP2 PUSH2 0x3689 JUMP JUMPDEST DUP3 MSTORE POP POP JUMP JUMPDEST PUSH0 PUSH1 0x20 DUP3 ADD SWAP1 POP PUSH2 0x38FF PUSH0 DUP4 ADD DUP5 PUSH2 0x38DD JUMP JUMPDEST SWAP3 SWAP2 POP POP JUMP JUMPDEST PUSH0 PUSH2 0x390F DUP3 PUSH2 0x3772 JUMP JUMPDEST SWAP1 POP SWAP2 SWAP1 POP JUMP JUMPDEST PUSH2 0x391F DUP2 PUSH2 0x3905 JUMP JUMPDEST DUP3 MSTORE POP POP JUMP JUMPDEST PUSH0 PUSH1 0x20 DUP3 ADD SWAP1 POP PUSH2 0x3938 PUSH0 DUP4 ADD DUP5 PUSH2 0x3916 JUMP JUMPDEST SWAP3 SWAP2 POP POP JUMP JUMPDEST PUSH0 PUSH1 0x80 DUP3 ADD SWAP1 POP PUSH2 0x3951 PUSH0 DUP4 ADD DUP8 PUSH2 0x35C0 JUMP JUMPDEST PUSH2 0x395E PUSH1 0x20 DUP4 ADD DUP7 PUSH2 0x35C0 JUMP JUMPDEST PUSH2 0x396B PUSH1 0x40 DUP4 ADD DUP6 PUSH2 0x35C0 JUMP JUMPDEST PUSH2 0x3978 PUSH1 0x60 DUP4 ADD DUP5 PUSH2 0x35C0 JUMP JUMPDEST SWAP6 SWAP5 POP POP POP POP POP JUMP JUMPDEST PUSH0 PUSH1 0x20 DUP3 DUP5 SUB SLT ISZERO PUSH2 0x3996 JUMPI PUSH2 0x3995 PUSH2 0x35E8 JUMP JUMPDEST JUMPDEST PUSH0 PUSH2 0x39A3 DUP5 DUP3 DUP6 ADD PUSH2 0x3818 JUMP JUMPDEST SWAP2 POP POP SWAP3 SWAP2 POP POP JUMP JUMPDEST PUSH0 DUP1 PUSH0 PUSH1 0x60 DUP5 DUP7 SUB SLT ISZERO PUSH2 0x39C3 JUMPI PUSH2 0x39C2 PUSH2 0x35E8 JUMP JUMPDEST JUMPDEST PUSH0 PUSH2 0x39D0 DUP7 DUP3 DUP8 ADD PUSH2 0x3602 JUMP JUMPDEST SWAP4 POP POP PUSH1 0x20 PUSH2 0x39E1 DUP7 DUP3 DUP8 ADD PUSH2 0x3818 JUMP JUMPDEST SWAP3 POP POP PUSH1 0x40 PUSH2 0x39F2 DUP7 DUP3 DUP8 ADD PUSH2 0x3602 JUMP JUMPDEST SWAP2 POP POP SWAP3 POP SWAP3 POP SWAP3 JUMP JUMPDEST PUSH0 PUSH2 0x3A06 DUP3 PUSH2 0x3772 JUMP JUMPDEST SWAP1 POP SWAP2 SWAP1 POP JUMP JUMPDEST PUSH2 0x3A16 DUP2 PUSH2 0x39FC JUMP JUMPDEST DUP3 MSTORE POP POP JUMP JUMPDEST PUSH0 PUSH1 0x20 DUP3 ADD SWAP1 POP PUSH2 0x3A2F PUSH0 DUP4 ADD DUP5 PUSH2 0x3A0D JUMP JUMPDEST SWAP3 SWAP2 POP POP JUMP JUMPDEST PUSH0 DUP3 DUP3 MSTORE PUSH1 0x20 DUP3 ADD SWAP1 POP SWAP3 SWAP2 POP POP JUMP JUMPDEST PUSH32 0x706F6F6C206E6F74206578697374000000000000000000000000000000000000 PUSH0 DUP3 ADD MSTORE POP JUMP JUMPDEST PUSH0 PUSH2 0x3A79 PUSH1 0xE DUP4 PUSH2 0x3A35 JUMP JUMPDEST SWAP2 POP PUSH2 0x3A84 DUP3 PUSH2 0x3A45 JUMP JUMPDEST PUSH1 0x20 DUP3 ADD SWAP1 POP SWAP2 SWAP1 POP JUMP JUMPDEST PUSH0 PUSH1 0x20 DUP3 ADD SWAP1 POP DUP2 DUP2 SUB PUSH0 DUP4 ADD MSTORE PUSH2 0x3AA6 DUP2 PUSH2 0x3A6D JUMP JUMPDEST SWAP1 POP SWAP2 SWAP1 POP JUMP JUMPDEST PUSH32 0x4E487B7100000000000000000000000000000000000000000000000000000000 PUSH0 MSTORE PUSH1 0x32 PUSH1 0x4 MSTORE PUSH1 0x24 PUSH0 REVERT JUMPDEST PUSH32 0x5374616B696E6720706572696F64206E6F742079657420656E64656400000000 PUSH0 DUP3 ADD MSTORE POP JUMP JUMPDEST PUSH0 PUSH2 0x3B0E PUSH1 0x1C DUP4 PUSH2 0x3A35 JUMP JUMPDEST SWAP2 POP PUSH2 0x3B19 DUP3 PUSH2 0x3ADA JUMP JUMPDEST PUSH1 0x20 DUP3 ADD SWAP1 POP SWAP2 SWAP1 POP JUMP JUMPDEST PUSH0 PUSH1 0x20 DUP3 ADD SWAP1 POP DUP2 DUP2 SUB PUSH0 DUP4 ADD MSTORE PUSH2 0x3B3B DUP2 PUSH2 0x3B02 JUMP JUMPDEST SWAP1 POP SWAP2 SWAP1 POP JUMP JUMPDEST PUSH0 PUSH1 0x40 DUP3 ADD SWAP1 POP PUSH2 0x3B55 PUSH0 DUP4 ADD DUP6 PUSH2 0x38DD JUMP JUMPDEST PUSH2 0x3B62 PUSH1 0x20 DUP4 ADD DUP5 PUSH2 0x35C0 JUMP JUMPDEST SWAP4 SWAP3 POP POP POP JUMP JUMPDEST PUSH0 DUP2 ISZERO ISZERO SWAP1 POP SWAP2 SWAP1 POP JUMP JUMPDEST PUSH2 0x3B7D DUP2 PUSH2 0x3B69 JUMP JUMPDEST DUP2 EQ PUSH2 0x3B87 JUMPI PUSH0 DUP1 REVERT JUMPDEST POP JUMP JUMPDEST PUSH0 DUP2 MLOAD SWAP1 POP PUSH2 0x3B98 DUP2 PUSH2 0x3B74 JUMP JUMPDEST SWAP3 SWAP2 POP POP JUMP JUMPDEST PUSH0 PUSH1 0x20 DUP3 DUP5 SUB SLT ISZERO PUSH2 0x3BB3 JUMPI PUSH2 0x3BB2 PUSH2 0x35E8 JUMP JUMPDEST JUMPDEST PUSH0 PUSH2 0x3BC0 DUP5 DUP3 DUP6 ADD PUSH2 0x3B8A JUMP JUMPDEST SWAP2 POP POP SWAP3 SWAP2 POP POP JUMP JUMPDEST PUSH32 0x4E487B7100000000000000000000000000000000000000000000000000000000 PUSH0 MSTORE PUSH1 0x11 PUSH1 0x4 MSTORE PUSH1 0x24 PUSH0 REVERT JUMPDEST PUSH0 PUSH2 0x3C00 DUP3 PUSH2 0x35B7 JUMP JUMPDEST SWAP2 POP PUSH2 0x3C0B DUP4 PUSH2 0x35B7 JUMP JUMPDEST SWAP3 POP DUP3 DUP3 MUL PUSH2 0x3C19 DUP2 PUSH2 0x35B7 JUMP JUMPDEST SWAP2 POP DUP3 DUP3 DIV DUP5 EQ DUP4 ISZERO OR PUSH2 0x3C30 JUMPI PUSH2 0x3C2F PUSH2 0x3BC9 JUMP JUMPDEST JUMPDEST POP SWAP3 SWAP2 POP POP JUMP JUMPDEST PUSH32 0x4E487B7100000000000000000000000000000000000000000000000000000000 PUSH0 MSTORE PUSH1 0x12 PUSH1 0x4 MSTORE PUSH1 0x24 PUSH0 REVERT JUMPDEST PUSH0 PUSH2 0x3C6E DUP3 PUSH2 0x35B7 JUMP JUMPDEST SWAP2 POP PUSH2 0x3C79 DUP4 PUSH2 0x35B7 JUMP JUMPDEST SWAP3 POP DUP3 PUSH2 0x3C89 JUMPI PUSH2 0x3C88 PUSH2 0x3C37 JUMP JUMPDEST JUMPDEST DUP3 DUP3 DIV SWAP1 POP SWAP3 SWAP2 POP POP JUMP JUMPDEST PUSH0 PUSH2 0x3C9E DUP3 PUSH2 0x35B7 JUMP JUMPDEST SWAP2 POP PUSH2 0x3CA9 DUP4 PUSH2 0x35B7 JUMP JUMPDEST SWAP3 POP DUP3 DUP3 SUB SWAP1 POP DUP2 DUP2 GT ISZERO PUSH2 0x3CC1 JUMPI PUSH2 0x3CC0 PUSH2 0x3BC9 JUMP JUMPDEST JUMPDEST SWAP3 SWAP2 POP POP JUMP JUMPDEST PUSH0 PUSH2 0x3CD1 DUP3 PUSH2 0x35B7 JUMP JUMPDEST SWAP2 POP PUSH2 0x3CDC DUP4 PUSH2 0x35B7 JUMP JUMPDEST SWAP3 POP DUP3 DUP3 ADD SWAP1 POP DUP1 DUP3 GT ISZERO PUSH2 0x3CF4 JUMPI PUSH2 0x3CF3 PUSH2 0x3BC9 JUMP JUMPDEST JUMPDEST SWAP3 SWAP2 POP POP JUMP JUMPDEST PUSH32 0x77697468647261773A206E6F7420676F6F640000000000000000000000000000 PUSH0 DUP3 ADD MSTORE POP JUMP JUMPDEST PUSH0 PUSH2 0x3D2E PUSH1 0x12 DUP4 PUSH2 0x3A35 JUMP JUMPDEST SWAP2 POP PUSH2 0x3D39 DUP3 PUSH2 0x3CFA JUMP JUMPDEST PUSH1 0x20 DUP3 ADD SWAP1 POP SWAP2 SWAP1 POP JUMP JUMPDEST PUSH0 PUSH1 0x20 DUP3 ADD SWAP1 POP DUP2 DUP2 SUB PUSH0 DUP4 ADD MSTORE PUSH2 0x3D5B DUP2 PUSH2 0x3D22 JUMP JUMPDEST SWAP1 POP SWAP2 SWAP1 POP JUMP JUMPDEST PUSH0 DUP2 MLOAD SWAP1 POP PUSH2 0x3D70 DUP2 PUSH2 0x35EC JUMP JUMPDEST SWAP3 SWAP2 POP POP JUMP JUMPDEST PUSH0 PUSH1 0x20 DUP3 DUP5 SUB SLT ISZERO PUSH2 0x3D8B JUMPI PUSH2 0x3D8A PUSH2 0x35E8 JUMP JUMPDEST JUMPDEST PUSH0 PUSH2 0x3D98 DUP5 DUP3 DUP6 ADD PUSH2 0x3D62 JUMP JUMPDEST SWAP2 POP POP SWAP3 SWAP2 POP POP JUMP JUMPDEST PUSH0 PUSH1 0xA0 DUP3 ADD SWAP1 POP PUSH2 0x3DB4 PUSH0 DUP4 ADD DUP9 PUSH2 0x38DD JUMP JUMPDEST PUSH2 0x3DC1 PUSH1 0x20 DUP4 ADD DUP8 PUSH2 0x35C0 JUMP JUMPDEST PUSH2 0x3DCE PUSH1 0x40 DUP4 ADD DUP7 PUSH2 0x35C0 JUMP JUMPDEST PUSH2 0x3DDB PUSH1 0x60 DUP4 ADD DUP6 PUSH2 0x35C0 JUMP JUMPDEST PUSH2 0x3DE8 PUSH1 0x80 DUP4 ADD DUP5 PUSH2 0x35C0 JUMP JUMPDEST SWAP7 SWAP6 POP POP POP POP POP POP JUMP JUMPDEST PUSH32 0x4D61782070657220626C6F636B2031303020424E430000000000000000000000 PUSH0 DUP3 ADD MSTORE POP JUMP JUMPDEST PUSH0 PUSH2 0x3E26 PUSH1 0x15 DUP4 PUSH2 0x3A35 JUMP JUMPDEST SWAP2 POP PUSH2 0x3E31 DUP3 PUSH2 0x3DF2 JUMP JUMPDEST PUSH1 0x20 DUP3 ADD SWAP1 POP SWAP2 SWAP1 POP JUMP JUMPDEST PUSH0 PUSH1 0x20 DUP3 ADD SWAP1 POP DUP2 DUP2 SUB PUSH0 DUP4 ADD MSTORE PUSH2 0x3E53 DUP2 PUSH2 0x3E1A JUMP JUMPDEST SWAP1 POP SWAP2 SWAP1 POP JUMP JUMPDEST PUSH32 0x4D696E2070657220626C6F636B20302E30303120424E43000000000000000000 PUSH0 DUP3 ADD MSTORE POP JUMP JUMPDEST PUSH0 PUSH2 0x3E8E PUSH1 0x17 DUP4 PUSH2 0x3A35 JUMP JUMPDEST SWAP2 POP PUSH2 0x3E99 DUP3 PUSH2 0x3E5A JUMP JUMPDEST PUSH1 0x20 DUP3 ADD SWAP1 POP SWAP2 SWAP1 POP JUMP JUMPDEST PUSH0 PUSH1 0x20 DUP3 ADD SWAP1 POP DUP2 DUP2 SUB PUSH0 DUP4 ADD MSTORE PUSH2 0x3EBB DUP2 PUSH2 0x3E82 JUMP JUMPDEST SWAP1 POP SWAP2 SWAP1 POP JUMP JUMPDEST PUSH32 0x50657263656E742053756D000000000000000000000000000000000000000000 PUSH0 DUP3 ADD MSTORE POP JUMP JUMPDEST PUSH0 PUSH2 0x3EF6 PUSH1 0xB DUP4 PUSH2 0x3A35 JUMP JUMPDEST SWAP2 POP PUSH2 0x3F01 DUP3 PUSH2 0x3EC2 JUMP JUMPDEST PUSH1 0x20 DUP3 ADD SWAP1 POP SWAP2 SWAP1 POP JUMP JUMPDEST PUSH0 PUSH1 0x20 DUP3 ADD SWAP1 POP DUP2 DUP2 SUB PUSH0 DUP4 ADD MSTORE PUSH2 0x3F23 DUP2 PUSH2 0x3EEA JUMP JUMPDEST SWAP1 POP SWAP2 SWAP1 POP JUMP JUMPDEST PUSH0 PUSH1 0x40 DUP3 ADD SWAP1 POP PUSH2 0x3F3D PUSH0 DUP4 ADD DUP6 PUSH2 0x35C0 JUMP JUMPDEST PUSH2 0x3F4A PUSH1 0x20 DUP4 ADD DUP5 PUSH2 0x35C0 JUMP JUMPDEST SWAP4 SWAP3 POP POP POP JUMP JUMPDEST PUSH32 0x456E642054696D65206D75737420626520696E20746865206675747572650000 PUSH0 DUP3 ADD MSTORE POP JUMP JUMPDEST PUSH0 PUSH2 0x3F85 PUSH1 0x1E DUP4 PUSH2 0x3A35 JUMP JUMPDEST SWAP2 POP PUSH2 0x3F90 DUP3 PUSH2 0x3F51 JUMP JUMPDEST PUSH1 0x20 DUP3 ADD SWAP1 POP SWAP2 SWAP1 POP JUMP JUMPDEST PUSH0 PUSH1 0x20 DUP3 ADD SWAP1 POP DUP2 DUP2 SUB PUSH0 DUP4 ADD MSTORE PUSH2 0x3FB2 DUP2 PUSH2 0x3F79 JUMP JUMPDEST SWAP1 POP SWAP2 SWAP1 POP JUMP JUMPDEST PUSH32 0x7761697420666F72206E657720626C6F636B0000000000000000000000000000 PUSH0 DUP3 ADD MSTORE POP JUMP JUMPDEST PUSH0 PUSH2 0x3FED PUSH1 0x12 DUP4 PUSH2 0x3A35 JUMP JUMPDEST SWAP2 POP PUSH2 0x3FF8 DUP3 PUSH2 0x3FB9 JUMP JUMPDEST PUSH1 0x20 DUP3 ADD SWAP1 POP SWAP2 SWAP1 POP JUMP JUMPDEST PUSH0 PUSH1 0x20 DUP3 ADD SWAP1 POP DUP2 DUP2 SUB PUSH0 DUP4 ADD MSTORE PUSH2 0x401A DUP2 PUSH2 0x3FE1 JUMP JUMPDEST SWAP1 POP SWAP2 SWAP1 POP JUMP JUMPDEST PUSH32 0x5A65726F00000000000000000000000000000000000000000000000000000000 PUSH0 DUP3 ADD MSTORE POP JUMP JUMPDEST PUSH0 PUSH2 0x4055 PUSH1 0x4 DUP4 PUSH2 0x3A35 JUMP JUMPDEST SWAP2 POP PUSH2 0x4060 DUP3 PUSH2 0x4021 JUMP JUMPDEST PUSH1 0x20 DUP3 ADD SWAP1 POP SWAP2 SWAP1 POP JUMP JUMPDEST PUSH0 PUSH1 0x20 DUP3 ADD SWAP1 POP DUP2 DUP2 SUB PUSH0 DUP4 ADD MSTORE PUSH2 0x4082 DUP2 PUSH2 0x4049 JUMP JUMPDEST SWAP1 POP SWAP2 SWAP1 POP JUMP JUMPDEST PUSH0 PUSH1 0x80 DUP3 ADD SWAP1 POP PUSH2 0x409C PUSH0 DUP4 ADD DUP8 PUSH2 0x35C0 JUMP JUMPDEST PUSH2 0x40A9 PUSH1 0x20 DUP4 ADD DUP7 PUSH2 0x38DD JUMP JUMPDEST PUSH2 0x40B6 PUSH1 0x40 DUP4 ADD DUP6 PUSH2 0x35C0 JUMP JUMPDEST PUSH2 0x40C3 PUSH1 0x60 DUP4 ADD DUP5 PUSH2 0x35C0 JUMP JUMPDEST SWAP6 SWAP5 POP POP POP POP POP JUMP JUMPDEST PUSH0 PUSH1 0x60 DUP3 ADD SWAP1 POP PUSH2 0x40DF PUSH0 DUP4 ADD DUP7 PUSH2 0x38DD JUMP JUMPDEST PUSH2 0x40EC PUSH1 0x20 DUP4 ADD DUP6 PUSH2 0x38DD JUMP JUMPDEST PUSH2 0x40F9 PUSH1 0x40 DUP4 ADD DUP5 PUSH2 0x35C0 JUMP JUMPDEST SWAP5 SWAP4 POP POP POP POP JUMP JUMPDEST PUSH32 0x4E487B7100000000000000000000000000000000000000000000000000000000 PUSH0 MSTORE PUSH1 0x31 PUSH1 0x4 MSTORE PUSH1 0x24 PUSH0 REVERT JUMPDEST PUSH32 0x706F6F6C20657869737465640000000000000000000000000000000000000000 PUSH0 DUP3 ADD MSTORE POP JUMP JUMPDEST PUSH0 PUSH2 0x4162 PUSH1 0xC DUP4 PUSH2 0x3A35 JUMP JUMPDEST SWAP2 POP PUSH2 0x416D DUP3 PUSH2 0x412E JUMP JUMPDEST PUSH1 0x20 DUP3 ADD SWAP1 POP SWAP2 SWAP1 POP JUMP JUMPDEST PUSH0 PUSH1 0x20 DUP3 ADD SWAP1 POP DUP2 DUP2 SUB PUSH0 DUP4 ADD MSTORE PUSH2 0x418F DUP2 PUSH2 0x4156 JUMP JUMPDEST SWAP1 POP SWAP2 SWAP1 POP JUMP INVALID LOG2 PUSH5 0x6970667358 0x22 SLT KECCAK256 0x21 0xC DUP12 0x4C 0xC9 CALLVALUE DUP8 BYTE DELEGATECALL 0xD2 0xB4 SWAP1 DUP5 0xEE 0xE6 0xE LOG4 DUP2 0xDD 0xDF SWAP12 0xC4 PUSH15 0x3D9EA0E92895A271CB64736F6C6343 STOP ADDMOD OR STOP CALLER "
		},
		"gasEstimates": {
			"creation": {
				"codeDepositCost": "3368800",
				"executionCost": "infinite",
				"totalCost": "infinite"
			},
			"external": {
				"AlltotalNinjaReward()": "2580",
				"BNC()": "infinite",
				"BNCPerBlock()": "2492",
				"BONUS_MULTIPLIER()": "2471",
				"addStakingPool(uint256,address,uint256)": "infinite",
				"claimBNC(uint256)": "infinite",
				"data()": "infinite",
				"deposit(uint256,uint256)": "infinite",
				"dev0Addr()": "2574",
				"dev0Percent()": "2536",
				"emergencyWithdraw(uint256)": "infinite",
				"estimatedUserRewardFromNinjs(uint256,address)": "infinite",
				"getAccBNCPerShareFromUser(uint256,address)": "infinite",
				"getAllTotalNinjaReward()": "2565",
				"getLastNinjaRewardInfo(uint256)": "infinite",
				"getMultiplier(uint256,uint256)": "infinite",
				"getStakingUsers(uint256)": "infinite",
				"lastBlockDevWithdraw()": "2492",
				"massUpdatePools()": "infinite",
				"maturedWithdraw(uint256)": "infinite",
				"myAllReward(uint256,address)": "infinite",
				"ninjaInfo(uint256,address)": "infinite",
				"owner()": "2583",
				"pendingBNC(uint256,address)": "infinite",
				"perBlockReward(uint256)": "infinite",
				"percentDec()": "2559",
				"poolInfo(uint256)": "infinite",
				"poolLength()": "2487",
				"renounceOwnership()": "infinite",
				"rewardPer100Tokens(uint256)": "infinite",
				"set(uint256,uint256)": "infinite",
				"setDevAddress(address)": "infinite",
				"setPercent(uint256,uint256)": "infinite",
				"setStakingEndDays(uint256,uint256)": "infinite",
				"stakingPercent()": "2558",
				"stakingUsers(uint256,uint256)": "infinite",
				"startBlock()": "2471",
				"totalAllocPoint()": "2515",
				"transferOwnership(address)": "infinite",
				"updateBNCPerBlock(uint256)": "infinite",
				"updatePendingBNC(uint256,address)": "infinite",
				"updatePool(uint256)": "infinite",
				"userBlockRewardPerBlock(uint256,address)": "infinite",
				"userInfo(uint256,address)": "infinite",
				"withdraw(uint256,uint256)": "infinite",
				"withdrawDevFee()": "infinite"
			},
			"internal": {
				"_checkPoolDuplicate(address)": "infinite",
				"_removeUserFromStakingUsers(uint256,address)": "infinite",
				"addPendingBNC(uint256,address)": "infinite",
				"distributeRewards(uint256,uint256,uint256)": "infinite",
				"safeBNCTransfer(address,uint256)": "infinite",
				"updateUserReward(uint256,address)": "infinite"
			}
		},
		"methodIdentifiers": {
			"AlltotalNinjaReward()": "e12da02e",
			"BNC()": "f29588c7",
			"BNCPerBlock()": "c6a37cb8",
			"BONUS_MULTIPLIER()": "8aa28550",
			"addStakingPool(uint256,address,uint256)": "d84439d5",
			"claimBNC(uint256)": "8a50bb36",
			"data()": "73d4a13a",
			"deposit(uint256,uint256)": "e2bbb158",
			"dev0Addr()": "e88e0e3a",
			"dev0Percent()": "bd62a7d9",
			"emergencyWithdraw(uint256)": "5312ea8e",
			"estimatedUserRewardFromNinjs(uint256,address)": "c2e40266",
			"getAccBNCPerShareFromUser(uint256,address)": "f2747099",
			"getAllTotalNinjaReward()": "87831b43",
			"getLastNinjaRewardInfo(uint256)": "0d25b679",
			"getMultiplier(uint256,uint256)": "8dbb1e3a",
			"getStakingUsers(uint256)": "15155add",
			"lastBlockDevWithdraw()": "b76e360c",
			"massUpdatePools()": "630b5ba1",
			"maturedWithdraw(uint256)": "0bd399fd",
			"myAllReward(uint256,address)": "bb7ef61f",
			"ninjaInfo(uint256,address)": "16090615",
			"owner()": "8da5cb5b",
			"pendingBNC(uint256,address)": "4e0f4e9f",
			"perBlockReward(uint256)": "bfa621f5",
			"percentDec()": "21b1aecb",
			"poolInfo(uint256)": "1526fe27",
			"poolLength()": "081e3eda",
			"renounceOwnership()": "715018a6",
			"rewardPer100Tokens(uint256)": "48fec104",
			"set(uint256,uint256)": "1ab06ee5",
			"setDevAddress(address)": "d0d41fe1",
			"setPercent(uint256,uint256)": "a5981e7b",
			"setStakingEndDays(uint256,uint256)": "abb76268",
			"stakingPercent()": "be1193ea",
			"stakingUsers(uint256,uint256)": "172728cc",
			"startBlock()": "48cd4cb1",
			"totalAllocPoint()": "17caf6f1",
			"transferOwnership(address)": "f2fde38b",
			"updateBNCPerBlock(uint256)": "7709fc4b",
			"updatePendingBNC(uint256,address)": "eab44314",
			"updatePool(uint256)": "51eb05a6",
			"userBlockRewardPerBlock(uint256,address)": "70d6fcbd",
			"userInfo(uint256,address)": "93f1a40b",
			"withdraw(uint256,uint256)": "441a3e70",
			"withdrawDevFee()": "cb93f7ef"
		}
	},
	"abi": [
		{
			"inputs": [
				{
					"internalType": "address",
					"name": "_BNCToken",
					"type": "address"
				},
				{
					"internalType": "address",
					"name": "_dev0Addr",
					"type": "address"
				},
				{
					"internalType": "uint256",
					"name": "_dev0Percent",
					"type": "uint256"
				},
				{
					"internalType": "uint256",
					"name": "_stakingPercent",
					"type": "uint256"
				},
				{
					"internalType": "uint256",
					"name": "_BNCPerBlock",
					"type": "uint256"
				},
				{
					"internalType": "uint256",
					"name": "_startBlock",
					"type": "uint256"
				},
				{
					"internalType": "address",
					"name": "_initialOwner",
					"type": "address"
				}
			],
			"stateMutability": "nonpayable",
			"type": "constructor"
		},
		{
			"inputs": [
				{
					"internalType": "address",
					"name": "owner",
					"type": "address"
				}
			],
			"name": "OwnableInvalidOwner",
			"type": "error"
		},
		{
			"inputs": [
				{
					"internalType": "address",
					"name": "account",
					"type": "address"
				}
			],
			"name": "OwnableUnauthorizedAccount",
			"type": "error"
		},
		{
			"inputs": [],
			"name": "ReentrancyGuardReentrantCall",
			"type": "error"
		},
		{
			"anonymous": false,
			"inputs": [
				{
					"indexed": false,
					"internalType": "uint256",
					"name": "_allocPoint",
					"type": "uint256"
				},
				{
					"indexed": false,
					"internalType": "address",
					"name": "_lpToken",
					"type": "address"
				},
				{
					"indexed": false,
					"internalType": "uint256",
					"name": "stakingPoolStartTime",
					"type": "uint256"
				},
				{
					"indexed": false,
					"internalType": "uint256",
					"name": "stakingEndTime",
					"type": "uint256"
				}
			],
			"name": "AddStakingPool",
			"type": "event"
		},
		{
			"anonymous": false,
			"inputs": [
				{
					"indexed": true,
					"internalType": "address",
					"name": "user",
					"type": "address"
				},
				{
					"indexed": true,
					"internalType": "uint256",
					"name": "pid",
					"type": "uint256"
				},
				{
					"indexed": false,
					"internalType": "uint256",
					"name": "amount",
					"type": "uint256"
				}
			],
			"name": "ClaimBNC",
			"type": "event"
		},
		{
			"anonymous": false,
			"inputs": [
				{
					"indexed": true,
					"internalType": "address",
					"name": "user",
					"type": "address"
				},
				{
					"indexed": true,
					"internalType": "uint256",
					"name": "pid",
					"type": "uint256"
				},
				{
					"indexed": false,
					"internalType": "uint256",
					"name": "amount",
					"type": "uint256"
				},
				{
					"indexed": false,
					"internalType": "uint256",
					"name": "stakingStartTime",
					"type": "uint256"
				}
			],
			"name": "Deposit",
			"type": "event"
		},
		{
			"anonymous": false,
			"inputs": [
				{
					"indexed": false,
					"internalType": "uint256",
					"name": "_pid",
					"type": "uint256"
				},
				{
					"indexed": false,
					"internalType": "uint256",
					"name": "pendingReward",
					"type": "uint256"
				},
				{
					"indexed": false,
					"internalType": "uint256",
					"name": "totalStaked",
					"type": "uint256"
				}
			],
			"name": "DistributeRewards",
			"type": "event"
		},
		{
			"anonymous": false,
			"inputs": [
				{
					"indexed": true,
					"internalType": "address",
					"name": "user",
					"type": "address"
				},
				{
					"indexed": true,
					"internalType": "uint256",
					"name": "pid",
					"type": "uint256"
				},
				{
					"indexed": false,
					"internalType": "uint256",
					"name": "amount",
					"type": "uint256"
				}
			],
			"name": "EmergencyWithdraw",
			"type": "event"
		},
		{
			"anonymous": false,
			"inputs": [
				{
					"indexed": false,
					"internalType": "uint256",
					"name": "_pendingBNC",
					"type": "uint256"
				},
				{
					"indexed": false,
					"internalType": "uint256",
					"name": "_userBlockRewardPerBlock",
					"type": "uint256"
				},
				{
					"indexed": false,
					"internalType": "uint256",
					"name": "_estimatedUserRewardFromNinjs",
					"type": "uint256"
				}
			],
			"name": "MyAllReward",
			"type": "event"
		},
		{
			"anonymous": false,
			"inputs": [
				{
					"indexed": false,
					"internalType": "address",
					"name": "_Ninja",
					"type": "address"
				},
				{
					"indexed": false,
					"internalType": "uint256",
					"name": "_totalLPToken",
					"type": "uint256"
				},
				{
					"indexed": false,
					"internalType": "uint256",
					"name": "_totalNinjaReward",
					"type": "uint256"
				},
				{
					"indexed": false,
					"internalType": "uint256",
					"name": "_stakingLeftTime",
					"type": "uint256"
				},
				{
					"indexed": false,
					"internalType": "uint256",
					"name": "_ninjaRewardRate",
					"type": "uint256"
				}
			],
			"name": "NinjaLiftInfo",
			"type": "event"
		},
		{
			"anonymous": false,
			"inputs": [
				{
					"indexed": true,
					"internalType": "address",
					"name": "previousOwner",
					"type": "address"
				},
				{
					"indexed": true,
					"internalType": "address",
					"name": "newOwner",
					"type": "address"
				}
			],
			"name": "OwnershipTransferred",
			"type": "event"
		},
		{
			"anonymous": false,
			"inputs": [
				{
					"indexed": true,
					"internalType": "address",
					"name": "dev0Addr",
					"type": "address"
				}
			],
			"name": "SetDev0Address",
			"type": "event"
		},
		{
			"anonymous": false,
			"inputs": [
				{
					"indexed": false,
					"internalType": "uint256",
					"name": "stakingPercent",
					"type": "uint256"
				},
				{
					"indexed": false,
					"internalType": "uint256",
					"name": "dev0Percent",
					"type": "uint256"
				}
			],
			"name": "SetPercent",
			"type": "event"
		},
		{
			"anonymous": false,
			"inputs": [
				{
					"indexed": false,
					"internalType": "uint256",
					"name": "BNCPerBlock",
					"type": "uint256"
				}
			],
			"name": "UpdateBNCPerBlock",
			"type": "event"
		},
		{
			"anonymous": false,
			"inputs": [
				{
					"indexed": true,
					"internalType": "address",
					"name": "user",
					"type": "address"
				},
				{
					"indexed": true,
					"internalType": "uint256",
					"name": "pid",
					"type": "uint256"
				},
				{
					"indexed": false,
					"internalType": "uint256",
					"name": "amount",
					"type": "uint256"
				}
			],
			"name": "Withdraw",
			"type": "event"
		},
		{
			"inputs": [],
			"name": "AlltotalNinjaReward",
			"outputs": [
				{
					"internalType": "uint256",
					"name": "",
					"type": "uint256"
				}
			],
			"stateMutability": "view",
			"type": "function"
		},
		{
			"inputs": [],
			"name": "BNC",
			"outputs": [
				{
					"internalType": "contract WBNC",
					"name": "",
					"type": "address"
				}
			],
			"stateMutability": "view",
			"type": "function"
		},
		{
			"inputs": [],
			"name": "BNCPerBlock",
			"outputs": [
				{
					"internalType": "uint256",
					"name": "",
					"type": "uint256"
				}
			],
			"stateMutability": "view",
			"type": "function"
		},
		{
			"inputs": [],
			"name": "BONUS_MULTIPLIER",
			"outputs": [
				{
					"internalType": "uint256",
					"name": "",
					"type": "uint256"
				}
			],
			"stateMutability": "view",
			"type": "function"
		},
		{
			"inputs": [
				{
					"internalType": "uint256",
					"name": "_allocPoint",
					"type": "uint256"
				},
				{
					"internalType": "address",
					"name": "_lpToken",
					"type": "address"
				},
				{
					"internalType": "uint256",
					"name": "_endDays",
					"type": "uint256"
				}
			],
			"name": "addStakingPool",
			"outputs": [],
			"stateMutability": "nonpayable",
			"type": "function"
		},
		{
			"inputs": [
				{
					"internalType": "uint256",
					"name": "_pid",
					"type": "uint256"
				}
			],
			"name": "claimBNC",
			"outputs": [],
			"stateMutability": "nonpayable",
			"type": "function"
		},
		{
			"inputs": [],
			"name": "data",
			"outputs": [
				{
					"internalType": "contract Data",
					"name": "",
					"type": "address"
				}
			],
			"stateMutability": "view",
			"type": "function"
		},
		{
			"inputs": [
				{
					"internalType": "uint256",
					"name": "_pid",
					"type": "uint256"
				},
				{
					"internalType": "uint256",
					"name": "_amount",
					"type": "uint256"
				}
			],
			"name": "deposit",
			"outputs": [],
			"stateMutability": "nonpayable",
			"type": "function"
		},
		{
			"inputs": [],
			"name": "dev0Addr",
			"outputs": [
				{
					"internalType": "address",
					"name": "",
					"type": "address"
				}
			],
			"stateMutability": "view",
			"type": "function"
		},
		{
			"inputs": [],
			"name": "dev0Percent",
			"outputs": [
				{
					"internalType": "uint256",
					"name": "",
					"type": "uint256"
				}
			],
			"stateMutability": "view",
			"type": "function"
		},
		{
			"inputs": [
				{
					"internalType": "uint256",
					"name": "_pid",
					"type": "uint256"
				}
			],
			"name": "emergencyWithdraw",
			"outputs": [],
			"stateMutability": "nonpayable",
			"type": "function"
		},
		{
			"inputs": [
				{
					"internalType": "uint256",
					"name": "_pid",
					"type": "uint256"
				},
				{
					"internalType": "address",
					"name": "_user",
					"type": "address"
				}
			],
			"name": "estimatedUserRewardFromNinjs",
			"outputs": [
				{
					"internalType": "uint256",
					"name": "",
					"type": "uint256"
				}
			],
			"stateMutability": "view",
			"type": "function"
		},
		{
			"inputs": [
				{
					"internalType": "uint256",
					"name": "_pid",
					"type": "uint256"
				},
				{
					"internalType": "address",
					"name": "_user",
					"type": "address"
				}
			],
			"name": "getAccBNCPerShareFromUser",
			"outputs": [
				{
					"internalType": "uint256",
					"name": "",
					"type": "uint256"
				}
			],
			"stateMutability": "view",
			"type": "function"
		},
		{
			"inputs": [],
			"name": "getAllTotalNinjaReward",
			"outputs": [
				{
					"internalType": "uint256",
					"name": "",
					"type": "uint256"
				}
			],
			"stateMutability": "view",
			"type": "function"
		},
		{
			"inputs": [
				{
					"internalType": "uint256",
					"name": "_lasttotalNinjaRewardRate",
					"type": "uint256"
				}
			],
			"name": "getLastNinjaRewardInfo",
			"outputs": [
				{
					"internalType": "uint256",
					"name": "",
					"type": "uint256"
				}
			],
			"stateMutability": "pure",
			"type": "function"
		},
		{
			"inputs": [
				{
					"internalType": "uint256",
					"name": "_from",
					"type": "uint256"
				},
				{
					"internalType": "uint256",
					"name": "_to",
					"type": "uint256"
				}
			],
			"name": "getMultiplier",
			"outputs": [
				{
					"internalType": "uint256",
					"name": "",
					"type": "uint256"
				}
			],
			"stateMutability": "view",
			"type": "function"
		},
		{
			"inputs": [
				{
					"internalType": "uint256",
					"name": "_pid",
					"type": "uint256"
				}
			],
			"name": "getStakingUsers",
			"outputs": [
				{
					"internalType": "address[]",
					"name": "",
					"type": "address[]"
				}
			],
			"stateMutability": "view",
			"type": "function"
		},
		{
			"inputs": [],
			"name": "lastBlockDevWithdraw",
			"outputs": [
				{
					"internalType": "uint256",
					"name": "",
					"type": "uint256"
				}
			],
			"stateMutability": "view",
			"type": "function"
		},
		{
			"inputs": [],
			"name": "massUpdatePools",
			"outputs": [],
			"stateMutability": "nonpayable",
			"type": "function"
		},
		{
			"inputs": [
				{
					"internalType": "uint256",
					"name": "_pid",
					"type": "uint256"
				}
			],
			"name": "maturedWithdraw",
			"outputs": [],
			"stateMutability": "nonpayable",
			"type": "function"
		},
		{
			"inputs": [
				{
					"internalType": "uint256",
					"name": "_pid",
					"type": "uint256"
				},
				{
					"internalType": "address",
					"name": "_user",
					"type": "address"
				}
			],
			"name": "myAllReward",
			"outputs": [
				{
					"internalType": "uint256",
					"name": "",
					"type": "uint256"
				},
				{
					"internalType": "uint256",
					"name": "",
					"type": "uint256"
				},
				{
					"internalType": "uint256",
					"name": "",
					"type": "uint256"
				}
			],
			"stateMutability": "view",
			"type": "function"
		},
		{
			"inputs": [
				{
					"internalType": "uint256",
					"name": "",
					"type": "uint256"
				},
				{
					"internalType": "address",
					"name": "",
					"type": "address"
				}
			],
			"name": "ninjaInfo",
			"outputs": [
				{
					"internalType": "uint256",
					"name": "totalLPToken",
					"type": "uint256"
				},
				{
					"internalType": "uint256",
					"name": "totalNinjaReward",
					"type": "uint256"
				},
				{
					"internalType": "uint256",
					"name": "stakingLeftTime",
					"type": "uint256"
				}
			],
			"stateMutability": "view",
			"type": "function"
		},
		{
			"inputs": [],
			"name": "owner",
			"outputs": [
				{
					"internalType": "address",
					"name": "",
					"type": "address"
				}
			],
			"stateMutability": "view",
			"type": "function"
		},
		{
			"inputs": [
				{
					"internalType": "uint256",
					"name": "_pid",
					"type": "uint256"
				},
				{
					"internalType": "address",
					"name": "_user",
					"type": "address"
				}
			],
			"name": "pendingBNC",
			"outputs": [
				{
					"internalType": "uint256",
					"name": "",
					"type": "uint256"
				}
			],
			"stateMutability": "view",
			"type": "function"
		},
		{
			"inputs": [
				{
					"internalType": "uint256",
					"name": "_pid",
					"type": "uint256"
				}
			],
			"name": "perBlockReward",
			"outputs": [
				{
					"internalType": "uint256",
					"name": "",
					"type": "uint256"
				}
			],
			"stateMutability": "view",
			"type": "function"
		},
		{
			"inputs": [],
			"name": "percentDec",
			"outputs": [
				{
					"internalType": "uint256",
					"name": "",
					"type": "uint256"
				}
			],
			"stateMutability": "view",
			"type": "function"
		},
		{
			"inputs": [
				{
					"internalType": "uint256",
					"name": "",
					"type": "uint256"
				}
			],
			"name": "poolInfo",
			"outputs": [
				{
					"internalType": "contract IERC20",
					"name": "lpToken",
					"type": "address"
				},
				{
					"internalType": "uint256",
					"name": "allocPoint",
					"type": "uint256"
				},
				{
					"internalType": "uint256",
					"name": "lastRewardBlock",
					"type": "uint256"
				},
				{
					"internalType": "uint256",
					"name": "accBNCPerShare",
					"type": "uint256"
				},
				{
					"internalType": "uint256",
					"name": "stakingPoolEndTime",
					"type": "uint256"
				},
				{
					"internalType": "uint256",
					"name": "stakingPoolStartTime",
					"type": "uint256"
				}
			],
			"stateMutability": "view",
			"type": "function"
		},
		{
			"inputs": [],
			"name": "poolLength",
			"outputs": [
				{
					"internalType": "uint256",
					"name": "",
					"type": "uint256"
				}
			],
			"stateMutability": "view",
			"type": "function"
		},
		{
			"inputs": [],
			"name": "renounceOwnership",
			"outputs": [],
			"stateMutability": "nonpayable",
			"type": "function"
		},
		{
			"inputs": [
				{
					"internalType": "uint256",
					"name": "_pid",
					"type": "uint256"
				}
			],
			"name": "rewardPer100Tokens",
			"outputs": [
				{
					"internalType": "uint256",
					"name": "",
					"type": "uint256"
				}
			],
			"stateMutability": "view",
			"type": "function"
		},
		{
			"inputs": [
				{
					"internalType": "uint256",
					"name": "_pid",
					"type": "uint256"
				},
				{
					"internalType": "uint256",
					"name": "_allocPoint",
					"type": "uint256"
				}
			],
			"name": "set",
			"outputs": [],
			"stateMutability": "nonpayable",
			"type": "function"
		},
		{
			"inputs": [
				{
					"internalType": "address",
					"name": "_dev0Addr",
					"type": "address"
				}
			],
			"name": "setDevAddress",
			"outputs": [],
			"stateMutability": "nonpayable",
			"type": "function"
		},
		{
			"inputs": [
				{
					"internalType": "uint256",
					"name": "_stakingPercent",
					"type": "uint256"
				},
				{
					"internalType": "uint256",
					"name": "_dev0Percent",
					"type": "uint256"
				}
			],
			"name": "setPercent",
			"outputs": [],
			"stateMutability": "nonpayable",
			"type": "function"
		},
		{
			"inputs": [
				{
					"internalType": "uint256",
					"name": "_pid",
					"type": "uint256"
				},
				{
					"internalType": "uint256",
					"name": "_days",
					"type": "uint256"
				}
			],
			"name": "setStakingEndDays",
			"outputs": [],
			"stateMutability": "nonpayable",
			"type": "function"
		},
		{
			"inputs": [],
			"name": "stakingPercent",
			"outputs": [
				{
					"internalType": "uint256",
					"name": "",
					"type": "uint256"
				}
			],
			"stateMutability": "view",
			"type": "function"
		},
		{
			"inputs": [
				{
					"internalType": "uint256",
					"name": "",
					"type": "uint256"
				},
				{
					"internalType": "uint256",
					"name": "",
					"type": "uint256"
				}
			],
			"name": "stakingUsers",
			"outputs": [
				{
					"internalType": "address",
					"name": "",
					"type": "address"
				}
			],
			"stateMutability": "view",
			"type": "function"
		},
		{
			"inputs": [],
			"name": "startBlock",
			"outputs": [
				{
					"internalType": "uint256",
					"name": "",
					"type": "uint256"
				}
			],
			"stateMutability": "view",
			"type": "function"
		},
		{
			"inputs": [],
			"name": "totalAllocPoint",
			"outputs": [
				{
					"internalType": "uint256",
					"name": "",
					"type": "uint256"
				}
			],
			"stateMutability": "view",
			"type": "function"
		},
		{
			"inputs": [
				{
					"internalType": "address",
					"name": "newOwner",
					"type": "address"
				}
			],
			"name": "transferOwnership",
			"outputs": [],
			"stateMutability": "nonpayable",
			"type": "function"
		},
		{
			"inputs": [
				{
					"internalType": "uint256",
					"name": "newAmount",
					"type": "uint256"
				}
			],
			"name": "updateBNCPerBlock",
			"outputs": [],
			"stateMutability": "nonpayable",
			"type": "function"
		},
		{
			"inputs": [
				{
					"internalType": "uint256",
					"name": "_pid",
					"type": "uint256"
				},
				{
					"internalType": "address",
					"name": "_user",
					"type": "address"
				}
			],
			"name": "updatePendingBNC",
			"outputs": [
				{
					"internalType": "uint256",
					"name": "",
					"type": "uint256"
				}
			],
			"stateMutability": "nonpayable",
			"type": "function"
		},
		{
			"inputs": [
				{
					"internalType": "uint256",
					"name": "_pid",
					"type": "uint256"
				}
			],
			"name": "updatePool",
			"outputs": [],
			"stateMutability": "nonpayable",
			"type": "function"
		},
		{
			"inputs": [
				{
					"internalType": "uint256",
					"name": "_pid",
					"type": "uint256"
				},
				{
					"internalType": "address",
					"name": "_user",
					"type": "address"
				}
			],
			"name": "userBlockRewardPerBlock",
			"outputs": [
				{
					"internalType": "uint256",
					"name": "",
					"type": "uint256"
				}
			],
			"stateMutability": "view",
			"type": "function"
		},
		{
			"inputs": [
				{
					"internalType": "uint256",
					"name": "",
					"type": "uint256"
				},
				{
					"internalType": "address",
					"name": "",
					"type": "address"
				}
			],
			"name": "userInfo",
			"outputs": [
				{
					"internalType": "uint256",
					"name": "amount",
					"type": "uint256"
				},
				{
					"internalType": "uint256",
					"name": "exactRewardCal",
					"type": "uint256"
				},
				{
					"internalType": "uint256",
					"name": "pendingReward",
					"type": "uint256"
				},
				{
					"internalType": "uint256",
					"name": "stakingStartTime",
					"type": "uint256"
				}
			],
			"stateMutability": "view",
			"type": "function"
		},
		{
			"inputs": [
				{
					"internalType": "uint256",
					"name": "_pid",
					"type": "uint256"
				},
				{
					"internalType": "uint256",
					"name": "_amount",
					"type": "uint256"
				}
			],
			"name": "withdraw",
			"outputs": [],
			"stateMutability": "nonpayable",
			"type": "function"
		},
		{
			"inputs": [],
			"name": "withdrawDevFee",
			"outputs": [],
			"stateMutability": "nonpayable",
			"type": "function"
		}
	]
}