{
	"data": {
		"bytecode": {
			"linkReferences": {},
			"object": "608060405261271060045560016009555f600e553480156200001f575f80fd5b506040516200347538038062003475833981810160405281019062000045919062000321565b805f73ffffffffffffffffffffffffffffffffffffffff168173ffffffffffffffffffffffffffffffffffffffff1603620000b9575f6040517f1e4fbdf7000000000000000000000000000000000000000000000000000000008152600401620000b09190620003f6565b60405180910390fd5b620000ca81620001c360201b60201c565b50600180819055508760025f6101000a81548173ffffffffffffffffffffffffffffffffffffffff021916908373ffffffffffffffffffffffffffffffffffffffff1602179055508660035f6101000a81548173ffffffffffffffffffffffffffffffffffffffff021916908373ffffffffffffffffffffffffffffffffffffffff1602179055508560075f6101000a81548173ffffffffffffffffffffffffffffffffffffffff021916908373ffffffffffffffffffffffffffffffffffffffff16021790555084600681905550836005819055508260088190555081600f8190555081600a81905550505050505050505062000411565b5f805f9054906101000a900473ffffffffffffffffffffffffffffffffffffffff169050815f806101000a81548173ffffffffffffffffffffffffffffffffffffffff021916908373ffffffffffffffffffffffffffffffffffffffff1602179055508173ffffffffffffffffffffffffffffffffffffffff168173ffffffffffffffffffffffffffffffffffffffff167f8be0079c531659141344cd1fd0a4f28419497f9722a3daafe3b4186f6b6457e060405160405180910390a35050565b5f80fd5b5f73ffffffffffffffffffffffffffffffffffffffff82169050919050565b5f620002b38262000288565b9050919050565b620002c581620002a7565b8114620002d0575f80fd5b50565b5f81519050620002e381620002ba565b92915050565b5f819050919050565b620002fd81620002e9565b811462000308575f80fd5b50565b5f815190506200031b81620002f2565b92915050565b5f805f805f805f80610100898b03121562000341576200034062000284565b5b5f620003508b828c01620002d3565b9850506020620003638b828c01620002d3565b9750506040620003768b828c01620002d3565b9650506060620003898b828c016200030b565b95505060806200039c8b828c016200030b565b94505060a0620003af8b828c016200030b565b93505060c0620003c28b828c016200030b565b92505060e0620003d58b828c01620002d3565b9150509295985092959890939650565b620003f081620002a7565b82525050565b5f6020820190506200040b5f830184620003e5565b92915050565b613056806200041f5f395ff3fe608060405234801561000f575f80fd5b50600436106101ee575f3560e01c80638da5cb5b1161010d578063be1193ea116100a0578063e2bbb1581161006f578063e2bbb15814610538578063e88e0e3a14610554578063f29588c714610572578063f2fde38b14610590576101ee565b8063be1193ea146104d6578063c6a37cb8146104f4578063cb93f7ef14610512578063d0d41fe11461051c576101ee565b8063a5981e7b116100dc578063a5981e7b14610462578063abb762681461047e578063b76e360c1461049a578063bd62a7d9146104b8576101ee565b80638da5cb5b146103c65780638dbb1e3a146103e457806393f1a40b146104145780639586712a14610446576101ee565b806351eb05a61161018557806373d4a13a1161015457806373d4a13a146103525780637709fc4b146103705780638a50bb361461038c5780638aa28550146103a8576101ee565b806351eb05a6146103065780635312ea8e14610322578063630b5ba11461033e578063715018a614610348576101ee565b806321b1aecb116101c157806321b1aecb1461027e578063441a3e701461029c57806348cd4cb1146102b85780634e0f4e9f146102d6576101ee565b8063081e3eda146101f25780631526fe271461021057806317caf6f1146102445780631ab06ee514610262575b5f80fd5b6101fa6105ac565b60405161020791906125a5565b60405180910390f35b61022a600480360381019061022591906125ec565b6105b8565b60405161023b959493929190612691565b60405180910390f35b61024c610618565b60405161025991906125a5565b60405180910390f35b61027c600480360381019061027791906126e2565b61061e565b005b6102866106e5565b60405161029391906125a5565b60405180910390f35b6102b660048036038101906102b191906126e2565b6106eb565b005b6102c0610993565b6040516102cd91906125a5565b60405180910390f35b6102f060048036038101906102eb919061275b565b610999565b6040516102fd91906125a5565b60405180910390f35b610320600480360381019061031b91906125ec565b610bdf565b005b61033c600480360381019061033791906125ec565b610e35565b005b6103466110f0565b005b610350611121565b005b61035a611134565b60405161036791906127b9565b60405180910390f35b61038a600480360381019061038591906125ec565b611159565b005b6103a660048036038101906103a191906125ec565b61123a565b005b6103b06113dc565b6040516103bd91906125a5565b60405180910390f35b6103ce6113e2565b6040516103db91906127e1565b60405180910390f35b6103fe60048036038101906103f991906126e2565b611409565b60405161040b91906125a5565b60405180910390f35b61042e6004803603810190610429919061275b565b61142b565b60405161043d939291906127fa565b60405180910390f35b610460600480360381019061045b919061286a565b61145c565b005b61047c600480360381019061047791906126e2565b611577565b005b610498600480360381019061049391906126e2565b611623565b005b6104a2611705565b6040516104af91906125a5565b60405180910390f35b6104c061170b565b6040516104cd91906125a5565b60405180910390f35b6104de611711565b6040516104eb91906125a5565b60405180910390f35b6104fc611717565b60405161050991906125a5565b60405180910390f35b61051a61171d565b005b610536600480360381019061053191906128a8565b61184d565b005b610552600480360381019061054d91906126e2565b61196a565b005b61055c611c0d565b60405161056991906127e1565b60405180910390f35b61057a611c32565b60405161058791906128f3565b60405180910390f35b6105aa60048036038101906105a591906128a8565b611c57565b005b5f600b80549050905090565b600b81815481106105c7575f80fd5b905f5260205f2090600502015f91509050805f015f9054906101000a900473ffffffffffffffffffffffffffffffffffffffff16908060010154908060020154908060030154908060040154905085565b600e5481565b610626611cdb565b81600b80549050811061066e576040517f08c379a000000000000000000000000000000000000000000000000000000000815260040161066590612966565b60405180910390fd5b6106766110f0565b81600b848154811061068b5761068a612984565b5b905f5260205f20906005020160010154600e546106a891906129de565b6106b29190612a11565b600e8190555081600b84815481106106cd576106cc612984565b5b905f5260205f20906005020160010181905550505050565b60045481565b6106f3611d62565b81600b80549050811061073b576040517f08c379a000000000000000000000000000000000000000000000000000000000815260040161073290612966565b60405180910390fd5b5f600b84815481106107505761074f612984565b5b905f5260205f20906005020190505f600c5f8681526020019081526020015f205f3373ffffffffffffffffffffffffffffffffffffffff1673ffffffffffffffffffffffffffffffffffffffff1681526020019081526020015f20905081600401544210156107f4576040517f08c379a00000000000000000000000000000000000000000000000000000000081526004016107eb90612a8e565b60405180910390fd5b83815f0154101561083a576040517f08c379a000000000000000000000000000000000000000000000000000000000815260040161083190612af6565b60405180910390fd5b61084385610bdf565b61084d8533611da8565b5f84111561090a5783815f015461086491906129de565b815f0181905550815f015f9054906101000a900473ffffffffffffffffffffffffffffffffffffffff1673ffffffffffffffffffffffffffffffffffffffff1663a9059cbb33866040518363ffffffff1660e01b81526004016108c8929190612b14565b6020604051808303815f875af11580156108e4573d5f803e3d5ffd5b505050506040513d601f19601f820116820180604052508101906109089190612b70565b505b64e8d4a510008260030154825f01546109239190612b9b565b61092d9190612c09565b8160010181905550843373ffffffffffffffffffffffffffffffffffffffff167ff279e6a1f5e320cca91135676d9cb6e44ca8a08c0b88342bcdb1144f6511b5688660405161097c91906125a5565b60405180910390a350505061098f611ec0565b5050565b600f5481565b5f82600b8054905081106109e2576040517f08c379a00000000000000000000000000000000000000000000000000000000081526004016109d990612966565b60405180910390fd5b5f600b85815481106109f7576109f6612984565b5b905f5260205f20906005020190505f600c5f8781526020019081526020015f205f8673ffffffffffffffffffffffffffffffffffffffff1673ffffffffffffffffffffffffffffffffffffffff1681526020019081526020015f2090505f826003015490505f835f015f9054906101000a900473ffffffffffffffffffffffffffffffffffffffff1673ffffffffffffffffffffffffffffffffffffffff166370a08231306040518263ffffffff1660e01b8152600401610ab891906127e1565b602060405180830381865afa158015610ad3573d5f803e3d5ffd5b505050506040513d601f19601f82011682018060405250810190610af79190612c4d565b9050836002015443118015610b0c57505f8114155b15610b95575f610b20856002015443611409565b90505f600454600554600e54886001015460085486610b3f9190612b9b565b610b499190612b9b565b610b539190612c09565b610b5d9190612b9b565b610b679190612c09565b90508264e8d4a5100082610b7b9190612b9b565b610b859190612c09565b84610b909190612a11565b935050505b826001015464e8d4a5100083855f0154610baf9190612b9b565b610bb99190612c09565b8460020154610bc89190612a11565b610bd291906129de565b9550505050505092915050565b80600b805490508110610c27576040517f08c379a0000000000000000000000000000000000000000000000000000000008152600401610c1e90612966565b60405180910390fd5b5f600b8381548110610c3c57610c3b612984565b5b905f5260205f209060050201905080600201544311610c5b5750610e31565b5f815f015f9054906101000a900473ffffffffffffffffffffffffffffffffffffffff1673ffffffffffffffffffffffffffffffffffffffff166370a08231306040518263ffffffff1660e01b8152600401610cb791906127e1565b602060405180830381865afa158015610cd2573d5f803e3d5ffd5b505050506040513d601f19601f82011682018060405250810190610cf69190612c4d565b90505f8111610d0f574382600201819055505050610e31565b5f610d1e836002015443611409565b90505f600454600554600e54866001015460085486610d3d9190612b9b565b610d479190612b9b565b610d519190612c09565b610d5b9190612b9b565b610d659190612c09565b905060025f9054906101000a900473ffffffffffffffffffffffffffffffffffffffff1673ffffffffffffffffffffffffffffffffffffffff16634e6ec24730836040518363ffffffff1660e01b8152600401610dc3929190612b14565b5f604051808303815f87803b158015610dda575f80fd5b505af1158015610dec573d5f803e3d5ffd5b505050508264e8d4a5100082610e029190612b9b565b610e0c9190612c09565b8460030154610e1b9190612a11565b8460030181905550438460020181905550505050505b5050565b610e3d611d62565b80600b805490508110610e85576040517f08c379a0000000000000000000000000000000000000000000000000000000008152600401610e7c90612966565b60405180910390fd5b5f600b8381548110610e9a57610e99612984565b5b905f5260205f20906005020190505f600c5f8581526020019081526020015f205f3373ffffffffffffffffffffffffffffffffffffffff1673ffffffffffffffffffffffffffffffffffffffff1681526020019081526020015f209050815f015f9054906101000a900473ffffffffffffffffffffffffffffffffffffffff1673ffffffffffffffffffffffffffffffffffffffff1663a9059cbb33835f01546040518363ffffffff1660e01b8152600401610f57929190612b14565b6020604051808303815f875af1158015610f73573d5f803e3d5ffd5b505050506040513d601f19601f82011682018060405250810190610f979190612b70565b50833373ffffffffffffffffffffffffffffffffffffffff167fbb757047c2b5f3974fe26b7c10f732e7bce710b0952a71082702781e62ae0595835f0154604051610fe291906125a5565b60405180910390a35f816002015490505f825f0154845f015f9054906101000a900473ffffffffffffffffffffffffffffffffffffffff1673ffffffffffffffffffffffffffffffffffffffff166370a08231306040518263ffffffff1660e01b815260040161105291906127e1565b602060405180830381865afa15801561106d573d5f803e3d5ffd5b505050506040513d601f19601f820116820180604052508101906110919190612c4d565b61109b91906129de565b90505f811180156110ab57505f82115b156110bc576110bb868383611ec9565b5b5f835f01819055505f83600101819055505f83600201819055506110e08633612035565b50505050506110ed611ec0565b50565b5f600b8054905090505f5b8181101561111d5761110c81610bdf565b8061111690612c78565b90506110fb565b5050565b611129611cdb565b6111325f612204565b565b60035f9054906101000a900473ffffffffffffffffffffffffffffffffffffffff1681565b611161611cdb565b68056bc75e2d631000008111156111ad576040517f08c379a00000000000000000000000000000000000000000000000000000000081526004016111a490612d09565b60405180910390fd5b66038d7ea4c680008110156111f7576040517f08c379a00000000000000000000000000000000000000000000000000000000081526004016111ee90612d71565b60405180910390fd5b806008819055507f1e19929b3cb970f6d66d05a2698000db2ac7eafe495aee2c6c32bd7960a97ead60085460405161122f91906125a5565b60405180910390a150565b611242611d62565b80600b80549050811061128a576040517f08c379a000000000000000000000000000000000000000000000000000000000815260040161128190612966565b60405180910390fd5b61129382610bdf565b61129d8233611da8565b5f600c5f8481526020019081526020015f205f3373ffffffffffffffffffffffffffffffffffffffff1673ffffffffffffffffffffffffffffffffffffffff1681526020019081526020015f2090505f600b848154811061130157611300612984565b5b905f5260205f20906005020190508060040154421015611356576040517f08c379a000000000000000000000000000000000000000000000000000000000815260040161134d90612a8e565b60405180910390fd5b5f826002015411156113ce575f826002015490505f836002018190555061137d33826122c5565b843373ffffffffffffffffffffffffffffffffffffffff167f9da87e8cce29a4140e89780f6e64e0b1cd58e4fa1cb5ee53effe97264f290c6c836040516113c491906125a5565b60405180910390a3505b5050506113d9611ec0565b50565b60095481565b5f805f9054906101000a900473ffffffffffffffffffffffffffffffffffffffff16905090565b5f600954836114189190612b9b565b8261142391906129de565b905092915050565b600c602052815f5260405f20602052805f5260405f205f9150915050805f0154908060010154908060020154905083565b611464611cdb565b61146d816124ae565b6114756110f0565b5f600f5443106114855743611489565b600f545b905082600e546114999190612a11565b600e81905550600b6040518060a001604052808473ffffffffffffffffffffffffffffffffffffffff1681526020018581526020018381526020015f81526020015f815250908060018154018082558091505060019003905f5260205f2090600502015f909190919091505f820151815f015f6101000a81548173ffffffffffffffffffffffffffffffffffffffff021916908373ffffffffffffffffffffffffffffffffffffffff160217905550602082015181600101556040820151816002015560608201518160030155608082015181600401555050505050565b61157f611cdb565b5f81905060045481846115929190612a11565b11156115d3576040517f08c379a00000000000000000000000000000000000000000000000000000000081526004016115ca90612dd9565b60405180910390fd5b82600581905550816006819055507fcbd554161f22a88862569b669f84507adc410008353e0a023297d3ea419126f7600554600654604051611616929190612df7565b60405180910390a1505050565b61162b611cdb565b81600b805490508110611673576040517f08c379a000000000000000000000000000000000000000000000000000000000815260040161166a90612966565b60405180910390fd5b5f600b848154811061168857611687612984565b5b905f5260205f20906005020190505f62015180846116a69190612b9b565b426116b19190612a11565b90504281116116f5576040517f08c379a00000000000000000000000000000000000000000000000000000000081526004016116ec90612e68565b60405180910390fd5b8082600401819055505050505050565b600a5481565b60065481565b60055481565b60085481565b43600a5410611761576040517f08c379a000000000000000000000000000000000000000000000000000000000815260040161175890612ed0565b60405180910390fd5b5f600854600a544361177391906129de565b61177d9190612b9b565b905060025f9054906101000a900473ffffffffffffffffffffffffffffffffffffffff1673ffffffffffffffffffffffffffffffffffffffff16634e6ec24760075f9054906101000a900473ffffffffffffffffffffffffffffffffffffffff16600454600654856117ef9190612b9b565b6117f99190612c09565b6040518363ffffffff1660e01b8152600401611816929190612b14565b5f604051808303815f87803b15801561182d575f80fd5b505af115801561183f573d5f803e3d5ffd5b5050505043600a8190555050565b611855611cdb565b5f73ffffffffffffffffffffffffffffffffffffffff168173ffffffffffffffffffffffffffffffffffffffff16036118c3576040517f08c379a00000000000000000000000000000000000000000000000000000000081526004016118ba90612f38565b60405180910390fd5b8060075f6101000a81548173ffffffffffffffffffffffffffffffffffffffff021916908373ffffffffffffffffffffffffffffffffffffffff16021790555060075f9054906101000a900473ffffffffffffffffffffffffffffffffffffffff1673ffffffffffffffffffffffffffffffffffffffff167fb1c7911ca1455735ffd17fec398b65f34157a7b58831b586878f5d3c2cf44ee260405160405180910390a250565b611972611d62565b81600b8054905081106119ba576040517f08c379a00000000000000000000000000000000000000000000000000000000081526004016119b190612966565b60405180910390fd5b5f600b84815481106119cf576119ce612984565b5b905f5260205f20906005020190505f600c5f8681526020019081526020015f205f3373ffffffffffffffffffffffffffffffffffffffff1673ffffffffffffffffffffffffffffffffffffffff1681526020019081526020015f209050611a3585610bdf565b611a3f8533611da8565b5f841115611afe57815f015f9054906101000a900473ffffffffffffffffffffffffffffffffffffffff1673ffffffffffffffffffffffffffffffffffffffff166323b872dd3330876040518463ffffffff1660e01b8152600401611aa693929190612f56565b6020604051808303815f875af1158015611ac2573d5f803e3d5ffd5b505050506040513d601f19601f82011682018060405250810190611ae69190612b70565b5083815f0154611af69190612a11565b815f01819055505b5f84118015611b0f57505f815f0154145b15611b8457600d5f8681526020019081526020015f2033908060018154018082558091505060019003905f5260205f20015f9091909190916101000a81548173ffffffffffffffffffffffffffffffffffffffff021916908373ffffffffffffffffffffffffffffffffffffffff1602179055505b64e8d4a510008260030154825f0154611b9d9190612b9b565b611ba79190612c09565b8160010181905550843373ffffffffffffffffffffffffffffffffffffffff167f90890809c654f11d6e72a28fa60149770a0d11ec6c92319d6ceb2bb0a4ea1a1586604051611bf691906125a5565b60405180910390a3505050611c09611ec0565b5050565b60075f9054906101000a900473ffffffffffffffffffffffffffffffffffffffff1681565b60025f9054906101000a900473ffffffffffffffffffffffffffffffffffffffff1681565b611c5f611cdb565b5f73ffffffffffffffffffffffffffffffffffffffff168173ffffffffffffffffffffffffffffffffffffffff1603611ccf575f6040517f1e4fbdf7000000000000000000000000000000000000000000000000000000008152600401611cc691906127e1565b60405180910390fd5b611cd881612204565b50565b611ce3612586565b73ffffffffffffffffffffffffffffffffffffffff16611d016113e2565b73ffffffffffffffffffffffffffffffffffffffff1614611d6057611d24612586565b6040517f118cdaa7000000000000000000000000000000000000000000000000000000008152600401611d5791906127e1565b60405180910390fd5b565b600260015403611d9e576040517f3ee5aeb500000000000000000000000000000000000000000000000000000000815260040160405180910390fd5b6002600181905550565b81600b805490508110611df0576040517f08c379a0000000000000000000000000000000000000000000000000000000008152600401611de790612966565b60405180910390fd5b5f600b8481548110611e0557611e04612984565b5b905f5260205f20906005020190505f600c5f8681526020019081526020015f205f8573ffffffffffffffffffffffffffffffffffffffff1673ffffffffffffffffffffffffffffffffffffffff1681526020019081526020015f2090505f816001015464e8d4a510008460030154845f0154611e819190612b9b565b611e8b9190612c09565b611e9591906129de565b90505f811115611eb857808260020154611eaf9190612a11565b82600201819055505b505050505050565b60018081905550565b5f600d5f8581526020019081526020015f208054905090505f5b81811015611ff3575f600d5f8781526020019081526020015f208281548110611f0f57611f0e612984565b5b905f5260205f20015f9054906101000a900473ffffffffffffffffffffffffffffffffffffffff1690505f600c5f8881526020019081526020015f205f8373ffffffffffffffffffffffffffffffffffffffff1673ffffffffffffffffffffffffffffffffffffffff1681526020019081526020015f2090505f8564e8d4a51000835f0154611f9e9190612b9b565b611fa89190612c09565b905064e8d4a510008188611fbc9190612b9b565b611fc69190612c09565b826002015f828254611fd89190612a11565b9250508190555050505080611fec90612c78565b9050611ee3565b507f2b3815017a53df0f7a02daff8930fa0330e6091a501c5de817e0df95894bab1d848484604051612027939291906127fa565b60405180910390a150505050565b5f600d5f8481526020019081526020015f208054905090505f5b818110156121fe578273ffffffffffffffffffffffffffffffffffffffff16600d5f8681526020019081526020015f20828154811061209157612090612984565b5b905f5260205f20015f9054906101000a900473ffffffffffffffffffffffffffffffffffffffff1673ffffffffffffffffffffffffffffffffffffffff16036121eb57600d5f8581526020019081526020015f206001836120f291906129de565b8154811061210357612102612984565b5b905f5260205f20015f9054906101000a900473ffffffffffffffffffffffffffffffffffffffff16600d5f8681526020019081526020015f20828154811061214e5761214d612984565b5b905f5260205f20015f6101000a81548173ffffffffffffffffffffffffffffffffffffffff021916908373ffffffffffffffffffffffffffffffffffffffff160217905550600d5f8581526020019081526020015f208054806121b4576121b3612f8b565b5b600190038181905f5260205f20015f6101000a81549073ffffffffffffffffffffffffffffffffffffffff021916905590556121fe565b80806121f690612c78565b91505061204f565b50505050565b5f805f9054906101000a900473ffffffffffffffffffffffffffffffffffffffff169050815f806101000a81548173ffffffffffffffffffffffffffffffffffffffff021916908373ffffffffffffffffffffffffffffffffffffffff1602179055508173ffffffffffffffffffffffffffffffffffffffff168173ffffffffffffffffffffffffffffffffffffffff167f8be0079c531659141344cd1fd0a4f28419497f9722a3daafe3b4186f6b6457e060405160405180910390a35050565b5f60025f9054906101000a900473ffffffffffffffffffffffffffffffffffffffff1673ffffffffffffffffffffffffffffffffffffffff166327e235e3306040518263ffffffff1660e01b815260040161232091906127e1565b602060405180830381865afa15801561233b573d5f803e3d5ffd5b505050506040513d601f19601f8201168201806040525081019061235f9190612c4d565b90508082111561240b5760025f9054906101000a900473ffffffffffffffffffffffffffffffffffffffff1673ffffffffffffffffffffffffffffffffffffffff1663a9059cbb84836040518363ffffffff1660e01b81526004016123c5929190612b14565b6020604051808303815f875af11580156123e1573d5f803e3d5ffd5b505050506040513d601f19601f820116820180604052508101906124059190612b70565b506124a9565b60025f9054906101000a900473ffffffffffffffffffffffffffffffffffffffff1673ffffffffffffffffffffffffffffffffffffffff1663a9059cbb84846040518363ffffffff1660e01b8152600401612467929190612b14565b6020604051808303815f875af1158015612483573d5f803e3d5ffd5b505050506040513d601f19601f820116820180604052508101906124a79190612b70565b505b505050565b5f600b8054905090505f5b81811015612581578273ffffffffffffffffffffffffffffffffffffffff16600b82815481106124ec576124eb612984565b5b905f5260205f2090600502015f015f9054906101000a900473ffffffffffffffffffffffffffffffffffffffff1673ffffffffffffffffffffffffffffffffffffffff1603612570576040517f08c379a000000000000000000000000000000000000000000000000000000000815260040161256790613002565b60405180910390fd5b8061257a90612c78565b90506124b9565b505050565b5f33905090565b5f819050919050565b61259f8161258d565b82525050565b5f6020820190506125b85f830184612596565b92915050565b5f80fd5b6125cb8161258d565b81146125d5575f80fd5b50565b5f813590506125e6816125c2565b92915050565b5f60208284031215612601576126006125be565b5b5f61260e848285016125d8565b91505092915050565b5f73ffffffffffffffffffffffffffffffffffffffff82169050919050565b5f819050919050565b5f61265961265461264f84612617565b612636565b612617565b9050919050565b5f61266a8261263f565b9050919050565b5f61267b82612660565b9050919050565b61268b81612671565b82525050565b5f60a0820190506126a45f830188612682565b6126b16020830187612596565b6126be6040830186612596565b6126cb6060830185612596565b6126d86080830184612596565b9695505050505050565b5f80604083850312156126f8576126f76125be565b5b5f612705858286016125d8565b9250506020612716858286016125d8565b9150509250929050565b5f61272a82612617565b9050919050565b61273a81612720565b8114612744575f80fd5b50565b5f8135905061275581612731565b92915050565b5f8060408385031215612771576127706125be565b5b5f61277e858286016125d8565b925050602061278f85828601612747565b9150509250929050565b5f6127a382612660565b9050919050565b6127b381612799565b82525050565b5f6020820190506127cc5f8301846127aa565b92915050565b6127db81612720565b82525050565b5f6020820190506127f45f8301846127d2565b92915050565b5f60608201905061280d5f830186612596565b61281a6020830185612596565b6128276040830184612596565b949350505050565b5f61283982612720565b9050919050565b6128498161282f565b8114612853575f80fd5b50565b5f8135905061286481612840565b92915050565b5f80604083850312156128805761287f6125be565b5b5f61288d858286016125d8565b925050602061289e85828601612856565b9150509250929050565b5f602082840312156128bd576128bc6125be565b5b5f6128ca84828501612747565b91505092915050565b5f6128dd82612660565b9050919050565b6128ed816128d3565b82525050565b5f6020820190506129065f8301846128e4565b92915050565b5f82825260208201905092915050565b7f706f6f6c206e6f742065786973740000000000000000000000000000000000005f82015250565b5f612950600e8361290c565b915061295b8261291c565b602082019050919050565b5f6020820190508181035f83015261297d81612944565b9050919050565b7f4e487b71000000000000000000000000000000000000000000000000000000005f52603260045260245ffd5b7f4e487b71000000000000000000000000000000000000000000000000000000005f52601160045260245ffd5b5f6129e88261258d565b91506129f38361258d565b9250828203905081811115612a0b57612a0a6129b1565b5b92915050565b5f612a1b8261258d565b9150612a268361258d565b9250828201905080821115612a3e57612a3d6129b1565b5b92915050565b7f5374616b696e6720706572696f64206e6f742079657420656e646564000000005f82015250565b5f612a78601c8361290c565b9150612a8382612a44565b602082019050919050565b5f6020820190508181035f830152612aa581612a6c565b9050919050565b7f77697468647261773a206e6f7420676f6f6400000000000000000000000000005f82015250565b5f612ae060128361290c565b9150612aeb82612aac565b602082019050919050565b5f6020820190508181035f830152612b0d81612ad4565b9050919050565b5f604082019050612b275f8301856127d2565b612b346020830184612596565b9392505050565b5f8115159050919050565b612b4f81612b3b565b8114612b59575f80fd5b50565b5f81519050612b6a81612b46565b92915050565b5f60208284031215612b8557612b846125be565b5b5f612b9284828501612b5c565b91505092915050565b5f612ba58261258d565b9150612bb08361258d565b9250828202612bbe8161258d565b91508282048414831517612bd557612bd46129b1565b5b5092915050565b7f4e487b71000000000000000000000000000000000000000000000000000000005f52601260045260245ffd5b5f612c138261258d565b9150612c1e8361258d565b925082612c2e57612c2d612bdc565b5b828204905092915050565b5f81519050612c47816125c2565b92915050565b5f60208284031215612c6257612c616125be565b5b5f612c6f84828501612c39565b91505092915050565b5f612c828261258d565b91507fffffffffffffffffffffffffffffffffffffffffffffffffffffffffffffffff8203612cb457612cb36129b1565b5b600182019050919050565b7f4d61782070657220626c6f636b2031303020424e4300000000000000000000005f82015250565b5f612cf360158361290c565b9150612cfe82612cbf565b602082019050919050565b5f6020820190508181035f830152612d2081612ce7565b9050919050565b7f4d696e2070657220626c6f636b20302e30303120424e430000000000000000005f82015250565b5f612d5b60178361290c565b9150612d6682612d27565b602082019050919050565b5f6020820190508181035f830152612d8881612d4f565b9050919050565b7f50657263656e742053756d0000000000000000000000000000000000000000005f82015250565b5f612dc3600b8361290c565b9150612dce82612d8f565b602082019050919050565b5f6020820190508181035f830152612df081612db7565b9050919050565b5f604082019050612e0a5f830185612596565b612e176020830184612596565b9392505050565b7f456e642054696d65206d75737420626520696e207468652066757475726500005f82015250565b5f612e52601e8361290c565b9150612e5d82612e1e565b602082019050919050565b5f6020820190508181035f830152612e7f81612e46565b9050919050565b7f7761697420666f72206e657720626c6f636b00000000000000000000000000005f82015250565b5f612eba60128361290c565b9150612ec582612e86565b602082019050919050565b5f6020820190508181035f830152612ee781612eae565b9050919050565b7f5a65726f000000000000000000000000000000000000000000000000000000005f82015250565b5f612f2260048361290c565b9150612f2d82612eee565b602082019050919050565b5f6020820190508181035f830152612f4f81612f16565b9050919050565b5f606082019050612f695f8301866127d2565b612f7660208301856127d2565b612f836040830184612596565b949350505050565b7f4e487b71000000000000000000000000000000000000000000000000000000005f52603160045260245ffd5b7f706f6f6c206578697374656400000000000000000000000000000000000000005f82015250565b5f612fec600c8361290c565b9150612ff782612fb8565b602082019050919050565b5f6020820190508181035f83015261301981612fe0565b905091905056fea26469706673582212204eb9a1b530916c30b29911646b9cfafd12ed608d79ec5883072e3c33d8ba179c64736f6c63430008140033",
			"opcodes": "PUSH1 0x80 PUSH1 0x40 MSTORE PUSH2 0x2710 PUSH1 0x4 SSTORE PUSH1 0x1 PUSH1 0x9 SSTORE PUSH0 PUSH1 0xE SSTORE CALLVALUE DUP1 ISZERO PUSH3 0x1F JUMPI PUSH0 DUP1 REVERT JUMPDEST POP PUSH1 0x40 MLOAD PUSH3 0x3475 CODESIZE SUB DUP1 PUSH3 0x3475 DUP4 CODECOPY DUP2 DUP2 ADD PUSH1 0x40 MSTORE DUP2 ADD SWAP1 PUSH3 0x45 SWAP2 SWAP1 PUSH3 0x321 JUMP JUMPDEST DUP1 PUSH0 PUSH20 0xFFFFFFFFFFFFFFFFFFFFFFFFFFFFFFFFFFFFFFFF AND DUP2 PUSH20 0xFFFFFFFFFFFFFFFFFFFFFFFFFFFFFFFFFFFFFFFF AND SUB PUSH3 0xB9 JUMPI PUSH0 PUSH1 0x40 MLOAD PUSH32 0x1E4FBDF700000000000000000000000000000000000000000000000000000000 DUP2 MSTORE PUSH1 0x4 ADD PUSH3 0xB0 SWAP2 SWAP1 PUSH3 0x3F6 JUMP JUMPDEST PUSH1 0x40 MLOAD DUP1 SWAP2 SUB SWAP1 REVERT JUMPDEST PUSH3 0xCA DUP2 PUSH3 0x1C3 PUSH1 0x20 SHL PUSH1 0x20 SHR JUMP JUMPDEST POP PUSH1 0x1 DUP1 DUP2 SWAP1 SSTORE POP DUP8 PUSH1 0x2 PUSH0 PUSH2 0x100 EXP DUP2 SLOAD DUP2 PUSH20 0xFFFFFFFFFFFFFFFFFFFFFFFFFFFFFFFFFFFFFFFF MUL NOT AND SWAP1 DUP4 PUSH20 0xFFFFFFFFFFFFFFFFFFFFFFFFFFFFFFFFFFFFFFFF AND MUL OR SWAP1 SSTORE POP DUP7 PUSH1 0x3 PUSH0 PUSH2 0x100 EXP DUP2 SLOAD DUP2 PUSH20 0xFFFFFFFFFFFFFFFFFFFFFFFFFFFFFFFFFFFFFFFF MUL NOT AND SWAP1 DUP4 PUSH20 0xFFFFFFFFFFFFFFFFFFFFFFFFFFFFFFFFFFFFFFFF AND MUL OR SWAP1 SSTORE POP DUP6 PUSH1 0x7 PUSH0 PUSH2 0x100 EXP DUP2 SLOAD DUP2 PUSH20 0xFFFFFFFFFFFFFFFFFFFFFFFFFFFFFFFFFFFFFFFF MUL NOT AND SWAP1 DUP4 PUSH20 0xFFFFFFFFFFFFFFFFFFFFFFFFFFFFFFFFFFFFFFFF AND MUL OR SWAP1 SSTORE POP DUP5 PUSH1 0x6 DUP2 SWAP1 SSTORE POP DUP4 PUSH1 0x5 DUP2 SWAP1 SSTORE POP DUP3 PUSH1 0x8 DUP2 SWAP1 SSTORE POP DUP2 PUSH1 0xF DUP2 SWAP1 SSTORE POP DUP2 PUSH1 0xA DUP2 SWAP1 SSTORE POP POP POP POP POP POP POP POP POP PUSH3 0x411 JUMP JUMPDEST PUSH0 DUP1 PUSH0 SWAP1 SLOAD SWAP1 PUSH2 0x100 EXP SWAP1 DIV PUSH20 0xFFFFFFFFFFFFFFFFFFFFFFFFFFFFFFFFFFFFFFFF AND SWAP1 POP DUP2 PUSH0 DUP1 PUSH2 0x100 EXP DUP2 SLOAD DUP2 PUSH20 0xFFFFFFFFFFFFFFFFFFFFFFFFFFFFFFFFFFFFFFFF MUL NOT AND SWAP1 DUP4 PUSH20 0xFFFFFFFFFFFFFFFFFFFFFFFFFFFFFFFFFFFFFFFF AND MUL OR SWAP1 SSTORE POP DUP2 PUSH20 0xFFFFFFFFFFFFFFFFFFFFFFFFFFFFFFFFFFFFFFFF AND DUP2 PUSH20 0xFFFFFFFFFFFFFFFFFFFFFFFFFFFFFFFFFFFFFFFF AND PUSH32 0x8BE0079C531659141344CD1FD0A4F28419497F9722A3DAAFE3B4186F6B6457E0 PUSH1 0x40 MLOAD PUSH1 0x40 MLOAD DUP1 SWAP2 SUB SWAP1 LOG3 POP POP JUMP JUMPDEST PUSH0 DUP1 REVERT JUMPDEST PUSH0 PUSH20 0xFFFFFFFFFFFFFFFFFFFFFFFFFFFFFFFFFFFFFFFF DUP3 AND SWAP1 POP SWAP2 SWAP1 POP JUMP JUMPDEST PUSH0 PUSH3 0x2B3 DUP3 PUSH3 0x288 JUMP JUMPDEST SWAP1 POP SWAP2 SWAP1 POP JUMP JUMPDEST PUSH3 0x2C5 DUP2 PUSH3 0x2A7 JUMP JUMPDEST DUP2 EQ PUSH3 0x2D0 JUMPI PUSH0 DUP1 REVERT JUMPDEST POP JUMP JUMPDEST PUSH0 DUP2 MLOAD SWAP1 POP PUSH3 0x2E3 DUP2 PUSH3 0x2BA JUMP JUMPDEST SWAP3 SWAP2 POP POP JUMP JUMPDEST PUSH0 DUP2 SWAP1 POP SWAP2 SWAP1 POP JUMP JUMPDEST PUSH3 0x2FD DUP2 PUSH3 0x2E9 JUMP JUMPDEST DUP2 EQ PUSH3 0x308 JUMPI PUSH0 DUP1 REVERT JUMPDEST POP JUMP JUMPDEST PUSH0 DUP2 MLOAD SWAP1 POP PUSH3 0x31B DUP2 PUSH3 0x2F2 JUMP JUMPDEST SWAP3 SWAP2 POP POP JUMP JUMPDEST PUSH0 DUP1 PUSH0 DUP1 PUSH0 DUP1 PUSH0 DUP1 PUSH2 0x100 DUP10 DUP12 SUB SLT ISZERO PUSH3 0x341 JUMPI PUSH3 0x340 PUSH3 0x284 JUMP JUMPDEST JUMPDEST PUSH0 PUSH3 0x350 DUP12 DUP3 DUP13 ADD PUSH3 0x2D3 JUMP JUMPDEST SWAP9 POP POP PUSH1 0x20 PUSH3 0x363 DUP12 DUP3 DUP13 ADD PUSH3 0x2D3 JUMP JUMPDEST SWAP8 POP POP PUSH1 0x40 PUSH3 0x376 DUP12 DUP3 DUP13 ADD PUSH3 0x2D3 JUMP JUMPDEST SWAP7 POP POP PUSH1 0x60 PUSH3 0x389 DUP12 DUP3 DUP13 ADD PUSH3 0x30B JUMP JUMPDEST SWAP6 POP POP PUSH1 0x80 PUSH3 0x39C DUP12 DUP3 DUP13 ADD PUSH3 0x30B JUMP JUMPDEST SWAP5 POP POP PUSH1 0xA0 PUSH3 0x3AF DUP12 DUP3 DUP13 ADD PUSH3 0x30B JUMP JUMPDEST SWAP4 POP POP PUSH1 0xC0 PUSH3 0x3C2 DUP12 DUP3 DUP13 ADD PUSH3 0x30B JUMP JUMPDEST SWAP3 POP POP PUSH1 0xE0 PUSH3 0x3D5 DUP12 DUP3 DUP13 ADD PUSH3 0x2D3 JUMP JUMPDEST SWAP2 POP POP SWAP3 SWAP6 SWAP9 POP SWAP3 SWAP6 SWAP9 SWAP1 SWAP4 SWAP7 POP JUMP JUMPDEST PUSH3 0x3F0 DUP2 PUSH3 0x2A7 JUMP JUMPDEST DUP3 MSTORE POP POP JUMP JUMPDEST PUSH0 PUSH1 0x20 DUP3 ADD SWAP1 POP PUSH3 0x40B PUSH0 DUP4 ADD DUP5 PUSH3 0x3E5 JUMP JUMPDEST SWAP3 SWAP2 POP POP JUMP JUMPDEST PUSH2 0x3056 DUP1 PUSH3 0x41F PUSH0 CODECOPY PUSH0 RETURN INVALID PUSH1 0x80 PUSH1 0x40 MSTORE CALLVALUE DUP1 ISZERO PUSH2 0xF JUMPI PUSH0 DUP1 REVERT JUMPDEST POP PUSH1 0x4 CALLDATASIZE LT PUSH2 0x1EE JUMPI PUSH0 CALLDATALOAD PUSH1 0xE0 SHR DUP1 PUSH4 0x8DA5CB5B GT PUSH2 0x10D JUMPI DUP1 PUSH4 0xBE1193EA GT PUSH2 0xA0 JUMPI DUP1 PUSH4 0xE2BBB158 GT PUSH2 0x6F JUMPI DUP1 PUSH4 0xE2BBB158 EQ PUSH2 0x538 JUMPI DUP1 PUSH4 0xE88E0E3A EQ PUSH2 0x554 JUMPI DUP1 PUSH4 0xF29588C7 EQ PUSH2 0x572 JUMPI DUP1 PUSH4 0xF2FDE38B EQ PUSH2 0x590 JUMPI PUSH2 0x1EE JUMP JUMPDEST DUP1 PUSH4 0xBE1193EA EQ PUSH2 0x4D6 JUMPI DUP1 PUSH4 0xC6A37CB8 EQ PUSH2 0x4F4 JUMPI DUP1 PUSH4 0xCB93F7EF EQ PUSH2 0x512 JUMPI DUP1 PUSH4 0xD0D41FE1 EQ PUSH2 0x51C JUMPI PUSH2 0x1EE JUMP JUMPDEST DUP1 PUSH4 0xA5981E7B GT PUSH2 0xDC JUMPI DUP1 PUSH4 0xA5981E7B EQ PUSH2 0x462 JUMPI DUP1 PUSH4 0xABB76268 EQ PUSH2 0x47E JUMPI DUP1 PUSH4 0xB76E360C EQ PUSH2 0x49A JUMPI DUP1 PUSH4 0xBD62A7D9 EQ PUSH2 0x4B8 JUMPI PUSH2 0x1EE JUMP JUMPDEST DUP1 PUSH4 0x8DA5CB5B EQ PUSH2 0x3C6 JUMPI DUP1 PUSH4 0x8DBB1E3A EQ PUSH2 0x3E4 JUMPI DUP1 PUSH4 0x93F1A40B EQ PUSH2 0x414 JUMPI DUP1 PUSH4 0x9586712A EQ PUSH2 0x446 JUMPI PUSH2 0x1EE JUMP JUMPDEST DUP1 PUSH4 0x51EB05A6 GT PUSH2 0x185 JUMPI DUP1 PUSH4 0x73D4A13A GT PUSH2 0x154 JUMPI DUP1 PUSH4 0x73D4A13A EQ PUSH2 0x352 JUMPI DUP1 PUSH4 0x7709FC4B EQ PUSH2 0x370 JUMPI DUP1 PUSH4 0x8A50BB36 EQ PUSH2 0x38C JUMPI DUP1 PUSH4 0x8AA28550 EQ PUSH2 0x3A8 JUMPI PUSH2 0x1EE JUMP JUMPDEST DUP1 PUSH4 0x51EB05A6 EQ PUSH2 0x306 JUMPI DUP1 PUSH4 0x5312EA8E EQ PUSH2 0x322 JUMPI DUP1 PUSH4 0x630B5BA1 EQ PUSH2 0x33E JUMPI DUP1 PUSH4 0x715018A6 EQ PUSH2 0x348 JUMPI PUSH2 0x1EE JUMP JUMPDEST DUP1 PUSH4 0x21B1AECB GT PUSH2 0x1C1 JUMPI DUP1 PUSH4 0x21B1AECB EQ PUSH2 0x27E JUMPI DUP1 PUSH4 0x441A3E70 EQ PUSH2 0x29C JUMPI DUP1 PUSH4 0x48CD4CB1 EQ PUSH2 0x2B8 JUMPI DUP1 PUSH4 0x4E0F4E9F EQ PUSH2 0x2D6 JUMPI PUSH2 0x1EE JUMP JUMPDEST DUP1 PUSH4 0x81E3EDA EQ PUSH2 0x1F2 JUMPI DUP1 PUSH4 0x1526FE27 EQ PUSH2 0x210 JUMPI DUP1 PUSH4 0x17CAF6F1 EQ PUSH2 0x244 JUMPI DUP1 PUSH4 0x1AB06EE5 EQ PUSH2 0x262 JUMPI JUMPDEST PUSH0 DUP1 REVERT JUMPDEST PUSH2 0x1FA PUSH2 0x5AC JUMP JUMPDEST PUSH1 0x40 MLOAD PUSH2 0x207 SWAP2 SWAP1 PUSH2 0x25A5 JUMP JUMPDEST PUSH1 0x40 MLOAD DUP1 SWAP2 SUB SWAP1 RETURN JUMPDEST PUSH2 0x22A PUSH1 0x4 DUP1 CALLDATASIZE SUB DUP2 ADD SWAP1 PUSH2 0x225 SWAP2 SWAP1 PUSH2 0x25EC JUMP JUMPDEST PUSH2 0x5B8 JUMP JUMPDEST PUSH1 0x40 MLOAD PUSH2 0x23B SWAP6 SWAP5 SWAP4 SWAP3 SWAP2 SWAP1 PUSH2 0x2691 JUMP JUMPDEST PUSH1 0x40 MLOAD DUP1 SWAP2 SUB SWAP1 RETURN JUMPDEST PUSH2 0x24C PUSH2 0x618 JUMP JUMPDEST PUSH1 0x40 MLOAD PUSH2 0x259 SWAP2 SWAP1 PUSH2 0x25A5 JUMP JUMPDEST PUSH1 0x40 MLOAD DUP1 SWAP2 SUB SWAP1 RETURN JUMPDEST PUSH2 0x27C PUSH1 0x4 DUP1 CALLDATASIZE SUB DUP2 ADD SWAP1 PUSH2 0x277 SWAP2 SWAP1 PUSH2 0x26E2 JUMP JUMPDEST PUSH2 0x61E JUMP JUMPDEST STOP JUMPDEST PUSH2 0x286 PUSH2 0x6E5 JUMP JUMPDEST PUSH1 0x40 MLOAD PUSH2 0x293 SWAP2 SWAP1 PUSH2 0x25A5 JUMP JUMPDEST PUSH1 0x40 MLOAD DUP1 SWAP2 SUB SWAP1 RETURN JUMPDEST PUSH2 0x2B6 PUSH1 0x4 DUP1 CALLDATASIZE SUB DUP2 ADD SWAP1 PUSH2 0x2B1 SWAP2 SWAP1 PUSH2 0x26E2 JUMP JUMPDEST PUSH2 0x6EB JUMP JUMPDEST STOP JUMPDEST PUSH2 0x2C0 PUSH2 0x993 JUMP JUMPDEST PUSH1 0x40 MLOAD PUSH2 0x2CD SWAP2 SWAP1 PUSH2 0x25A5 JUMP JUMPDEST PUSH1 0x40 MLOAD DUP1 SWAP2 SUB SWAP1 RETURN JUMPDEST PUSH2 0x2F0 PUSH1 0x4 DUP1 CALLDATASIZE SUB DUP2 ADD SWAP1 PUSH2 0x2EB SWAP2 SWAP1 PUSH2 0x275B JUMP JUMPDEST PUSH2 0x999 JUMP JUMPDEST PUSH1 0x40 MLOAD PUSH2 0x2FD SWAP2 SWAP1 PUSH2 0x25A5 JUMP JUMPDEST PUSH1 0x40 MLOAD DUP1 SWAP2 SUB SWAP1 RETURN JUMPDEST PUSH2 0x320 PUSH1 0x4 DUP1 CALLDATASIZE SUB DUP2 ADD SWAP1 PUSH2 0x31B SWAP2 SWAP1 PUSH2 0x25EC JUMP JUMPDEST PUSH2 0xBDF JUMP JUMPDEST STOP JUMPDEST PUSH2 0x33C PUSH1 0x4 DUP1 CALLDATASIZE SUB DUP2 ADD SWAP1 PUSH2 0x337 SWAP2 SWAP1 PUSH2 0x25EC JUMP JUMPDEST PUSH2 0xE35 JUMP JUMPDEST STOP JUMPDEST PUSH2 0x346 PUSH2 0x10F0 JUMP JUMPDEST STOP JUMPDEST PUSH2 0x350 PUSH2 0x1121 JUMP JUMPDEST STOP JUMPDEST PUSH2 0x35A PUSH2 0x1134 JUMP JUMPDEST PUSH1 0x40 MLOAD PUSH2 0x367 SWAP2 SWAP1 PUSH2 0x27B9 JUMP JUMPDEST PUSH1 0x40 MLOAD DUP1 SWAP2 SUB SWAP1 RETURN JUMPDEST PUSH2 0x38A PUSH1 0x4 DUP1 CALLDATASIZE SUB DUP2 ADD SWAP1 PUSH2 0x385 SWAP2 SWAP1 PUSH2 0x25EC JUMP JUMPDEST PUSH2 0x1159 JUMP JUMPDEST STOP JUMPDEST PUSH2 0x3A6 PUSH1 0x4 DUP1 CALLDATASIZE SUB DUP2 ADD SWAP1 PUSH2 0x3A1 SWAP2 SWAP1 PUSH2 0x25EC JUMP JUMPDEST PUSH2 0x123A JUMP JUMPDEST STOP JUMPDEST PUSH2 0x3B0 PUSH2 0x13DC JUMP JUMPDEST PUSH1 0x40 MLOAD PUSH2 0x3BD SWAP2 SWAP1 PUSH2 0x25A5 JUMP JUMPDEST PUSH1 0x40 MLOAD DUP1 SWAP2 SUB SWAP1 RETURN JUMPDEST PUSH2 0x3CE PUSH2 0x13E2 JUMP JUMPDEST PUSH1 0x40 MLOAD PUSH2 0x3DB SWAP2 SWAP1 PUSH2 0x27E1 JUMP JUMPDEST PUSH1 0x40 MLOAD DUP1 SWAP2 SUB SWAP1 RETURN JUMPDEST PUSH2 0x3FE PUSH1 0x4 DUP1 CALLDATASIZE SUB DUP2 ADD SWAP1 PUSH2 0x3F9 SWAP2 SWAP1 PUSH2 0x26E2 JUMP JUMPDEST PUSH2 0x1409 JUMP JUMPDEST PUSH1 0x40 MLOAD PUSH2 0x40B SWAP2 SWAP1 PUSH2 0x25A5 JUMP JUMPDEST PUSH1 0x40 MLOAD DUP1 SWAP2 SUB SWAP1 RETURN JUMPDEST PUSH2 0x42E PUSH1 0x4 DUP1 CALLDATASIZE SUB DUP2 ADD SWAP1 PUSH2 0x429 SWAP2 SWAP1 PUSH2 0x275B JUMP JUMPDEST PUSH2 0x142B JUMP JUMPDEST PUSH1 0x40 MLOAD PUSH2 0x43D SWAP4 SWAP3 SWAP2 SWAP1 PUSH2 0x27FA JUMP JUMPDEST PUSH1 0x40 MLOAD DUP1 SWAP2 SUB SWAP1 RETURN JUMPDEST PUSH2 0x460 PUSH1 0x4 DUP1 CALLDATASIZE SUB DUP2 ADD SWAP1 PUSH2 0x45B SWAP2 SWAP1 PUSH2 0x286A JUMP JUMPDEST PUSH2 0x145C JUMP JUMPDEST STOP JUMPDEST PUSH2 0x47C PUSH1 0x4 DUP1 CALLDATASIZE SUB DUP2 ADD SWAP1 PUSH2 0x477 SWAP2 SWAP1 PUSH2 0x26E2 JUMP JUMPDEST PUSH2 0x1577 JUMP JUMPDEST STOP JUMPDEST PUSH2 0x498 PUSH1 0x4 DUP1 CALLDATASIZE SUB DUP2 ADD SWAP1 PUSH2 0x493 SWAP2 SWAP1 PUSH2 0x26E2 JUMP JUMPDEST PUSH2 0x1623 JUMP JUMPDEST STOP JUMPDEST PUSH2 0x4A2 PUSH2 0x1705 JUMP JUMPDEST PUSH1 0x40 MLOAD PUSH2 0x4AF SWAP2 SWAP1 PUSH2 0x25A5 JUMP JUMPDEST PUSH1 0x40 MLOAD DUP1 SWAP2 SUB SWAP1 RETURN JUMPDEST PUSH2 0x4C0 PUSH2 0x170B JUMP JUMPDEST PUSH1 0x40 MLOAD PUSH2 0x4CD SWAP2 SWAP1 PUSH2 0x25A5 JUMP JUMPDEST PUSH1 0x40 MLOAD DUP1 SWAP2 SUB SWAP1 RETURN JUMPDEST PUSH2 0x4DE PUSH2 0x1711 JUMP JUMPDEST PUSH1 0x40 MLOAD PUSH2 0x4EB SWAP2 SWAP1 PUSH2 0x25A5 JUMP JUMPDEST PUSH1 0x40 MLOAD DUP1 SWAP2 SUB SWAP1 RETURN JUMPDEST PUSH2 0x4FC PUSH2 0x1717 JUMP JUMPDEST PUSH1 0x40 MLOAD PUSH2 0x509 SWAP2 SWAP1 PUSH2 0x25A5 JUMP JUMPDEST PUSH1 0x40 MLOAD DUP1 SWAP2 SUB SWAP1 RETURN JUMPDEST PUSH2 0x51A PUSH2 0x171D JUMP JUMPDEST STOP JUMPDEST PUSH2 0x536 PUSH1 0x4 DUP1 CALLDATASIZE SUB DUP2 ADD SWAP1 PUSH2 0x531 SWAP2 SWAP1 PUSH2 0x28A8 JUMP JUMPDEST PUSH2 0x184D JUMP JUMPDEST STOP JUMPDEST PUSH2 0x552 PUSH1 0x4 DUP1 CALLDATASIZE SUB DUP2 ADD SWAP1 PUSH2 0x54D SWAP2 SWAP1 PUSH2 0x26E2 JUMP JUMPDEST PUSH2 0x196A JUMP JUMPDEST STOP JUMPDEST PUSH2 0x55C PUSH2 0x1C0D JUMP JUMPDEST PUSH1 0x40 MLOAD PUSH2 0x569 SWAP2 SWAP1 PUSH2 0x27E1 JUMP JUMPDEST PUSH1 0x40 MLOAD DUP1 SWAP2 SUB SWAP1 RETURN JUMPDEST PUSH2 0x57A PUSH2 0x1C32 JUMP JUMPDEST PUSH1 0x40 MLOAD PUSH2 0x587 SWAP2 SWAP1 PUSH2 0x28F3 JUMP JUMPDEST PUSH1 0x40 MLOAD DUP1 SWAP2 SUB SWAP1 RETURN JUMPDEST PUSH2 0x5AA PUSH1 0x4 DUP1 CALLDATASIZE SUB DUP2 ADD SWAP1 PUSH2 0x5A5 SWAP2 SWAP1 PUSH2 0x28A8 JUMP JUMPDEST PUSH2 0x1C57 JUMP JUMPDEST STOP JUMPDEST PUSH0 PUSH1 0xB DUP1 SLOAD SWAP1 POP SWAP1 POP SWAP1 JUMP JUMPDEST PUSH1 0xB DUP2 DUP2 SLOAD DUP2 LT PUSH2 0x5C7 JUMPI PUSH0 DUP1 REVERT JUMPDEST SWAP1 PUSH0 MSTORE PUSH1 0x20 PUSH0 KECCAK256 SWAP1 PUSH1 0x5 MUL ADD PUSH0 SWAP2 POP SWAP1 POP DUP1 PUSH0 ADD PUSH0 SWAP1 SLOAD SWAP1 PUSH2 0x100 EXP SWAP1 DIV PUSH20 0xFFFFFFFFFFFFFFFFFFFFFFFFFFFFFFFFFFFFFFFF AND SWAP1 DUP1 PUSH1 0x1 ADD SLOAD SWAP1 DUP1 PUSH1 0x2 ADD SLOAD SWAP1 DUP1 PUSH1 0x3 ADD SLOAD SWAP1 DUP1 PUSH1 0x4 ADD SLOAD SWAP1 POP DUP6 JUMP JUMPDEST PUSH1 0xE SLOAD DUP2 JUMP JUMPDEST PUSH2 0x626 PUSH2 0x1CDB JUMP JUMPDEST DUP2 PUSH1 0xB DUP1 SLOAD SWAP1 POP DUP2 LT PUSH2 0x66E JUMPI PUSH1 0x40 MLOAD PUSH32 0x8C379A000000000000000000000000000000000000000000000000000000000 DUP2 MSTORE PUSH1 0x4 ADD PUSH2 0x665 SWAP1 PUSH2 0x2966 JUMP JUMPDEST PUSH1 0x40 MLOAD DUP1 SWAP2 SUB SWAP1 REVERT JUMPDEST PUSH2 0x676 PUSH2 0x10F0 JUMP JUMPDEST DUP2 PUSH1 0xB DUP5 DUP2 SLOAD DUP2 LT PUSH2 0x68B JUMPI PUSH2 0x68A PUSH2 0x2984 JUMP JUMPDEST JUMPDEST SWAP1 PUSH0 MSTORE PUSH1 0x20 PUSH0 KECCAK256 SWAP1 PUSH1 0x5 MUL ADD PUSH1 0x1 ADD SLOAD PUSH1 0xE SLOAD PUSH2 0x6A8 SWAP2 SWAP1 PUSH2 0x29DE JUMP JUMPDEST PUSH2 0x6B2 SWAP2 SWAP1 PUSH2 0x2A11 JUMP JUMPDEST PUSH1 0xE DUP2 SWAP1 SSTORE POP DUP2 PUSH1 0xB DUP5 DUP2 SLOAD DUP2 LT PUSH2 0x6CD JUMPI PUSH2 0x6CC PUSH2 0x2984 JUMP JUMPDEST JUMPDEST SWAP1 PUSH0 MSTORE PUSH1 0x20 PUSH0 KECCAK256 SWAP1 PUSH1 0x5 MUL ADD PUSH1 0x1 ADD DUP2 SWAP1 SSTORE POP POP POP POP JUMP JUMPDEST PUSH1 0x4 SLOAD DUP2 JUMP JUMPDEST PUSH2 0x6F3 PUSH2 0x1D62 JUMP JUMPDEST DUP2 PUSH1 0xB DUP1 SLOAD SWAP1 POP DUP2 LT PUSH2 0x73B JUMPI PUSH1 0x40 MLOAD PUSH32 0x8C379A000000000000000000000000000000000000000000000000000000000 DUP2 MSTORE PUSH1 0x4 ADD PUSH2 0x732 SWAP1 PUSH2 0x2966 JUMP JUMPDEST PUSH1 0x40 MLOAD DUP1 SWAP2 SUB SWAP1 REVERT JUMPDEST PUSH0 PUSH1 0xB DUP5 DUP2 SLOAD DUP2 LT PUSH2 0x750 JUMPI PUSH2 0x74F PUSH2 0x2984 JUMP JUMPDEST JUMPDEST SWAP1 PUSH0 MSTORE PUSH1 0x20 PUSH0 KECCAK256 SWAP1 PUSH1 0x5 MUL ADD SWAP1 POP PUSH0 PUSH1 0xC PUSH0 DUP7 DUP2 MSTORE PUSH1 0x20 ADD SWAP1 DUP2 MSTORE PUSH1 0x20 ADD PUSH0 KECCAK256 PUSH0 CALLER PUSH20 0xFFFFFFFFFFFFFFFFFFFFFFFFFFFFFFFFFFFFFFFF AND PUSH20 0xFFFFFFFFFFFFFFFFFFFFFFFFFFFFFFFFFFFFFFFF AND DUP2 MSTORE PUSH1 0x20 ADD SWAP1 DUP2 MSTORE PUSH1 0x20 ADD PUSH0 KECCAK256 SWAP1 POP DUP2 PUSH1 0x4 ADD SLOAD TIMESTAMP LT ISZERO PUSH2 0x7F4 JUMPI PUSH1 0x40 MLOAD PUSH32 0x8C379A000000000000000000000000000000000000000000000000000000000 DUP2 MSTORE PUSH1 0x4 ADD PUSH2 0x7EB SWAP1 PUSH2 0x2A8E JUMP JUMPDEST PUSH1 0x40 MLOAD DUP1 SWAP2 SUB SWAP1 REVERT JUMPDEST DUP4 DUP2 PUSH0 ADD SLOAD LT ISZERO PUSH2 0x83A JUMPI PUSH1 0x40 MLOAD PUSH32 0x8C379A000000000000000000000000000000000000000000000000000000000 DUP2 MSTORE PUSH1 0x4 ADD PUSH2 0x831 SWAP1 PUSH2 0x2AF6 JUMP JUMPDEST PUSH1 0x40 MLOAD DUP1 SWAP2 SUB SWAP1 REVERT JUMPDEST PUSH2 0x843 DUP6 PUSH2 0xBDF JUMP JUMPDEST PUSH2 0x84D DUP6 CALLER PUSH2 0x1DA8 JUMP JUMPDEST PUSH0 DUP5 GT ISZERO PUSH2 0x90A JUMPI DUP4 DUP2 PUSH0 ADD SLOAD PUSH2 0x864 SWAP2 SWAP1 PUSH2 0x29DE JUMP JUMPDEST DUP2 PUSH0 ADD DUP2 SWAP1 SSTORE POP DUP2 PUSH0 ADD PUSH0 SWAP1 SLOAD SWAP1 PUSH2 0x100 EXP SWAP1 DIV PUSH20 0xFFFFFFFFFFFFFFFFFFFFFFFFFFFFFFFFFFFFFFFF AND PUSH20 0xFFFFFFFFFFFFFFFFFFFFFFFFFFFFFFFFFFFFFFFF AND PUSH4 0xA9059CBB CALLER DUP7 PUSH1 0x40 MLOAD DUP4 PUSH4 0xFFFFFFFF AND PUSH1 0xE0 SHL DUP2 MSTORE PUSH1 0x4 ADD PUSH2 0x8C8 SWAP3 SWAP2 SWAP1 PUSH2 0x2B14 JUMP JUMPDEST PUSH1 0x20 PUSH1 0x40 MLOAD DUP1 DUP4 SUB DUP2 PUSH0 DUP8 GAS CALL ISZERO DUP1 ISZERO PUSH2 0x8E4 JUMPI RETURNDATASIZE PUSH0 DUP1 RETURNDATACOPY RETURNDATASIZE PUSH0 REVERT JUMPDEST POP POP POP POP PUSH1 0x40 MLOAD RETURNDATASIZE PUSH1 0x1F NOT PUSH1 0x1F DUP3 ADD AND DUP3 ADD DUP1 PUSH1 0x40 MSTORE POP DUP2 ADD SWAP1 PUSH2 0x908 SWAP2 SWAP1 PUSH2 0x2B70 JUMP JUMPDEST POP JUMPDEST PUSH5 0xE8D4A51000 DUP3 PUSH1 0x3 ADD SLOAD DUP3 PUSH0 ADD SLOAD PUSH2 0x923 SWAP2 SWAP1 PUSH2 0x2B9B JUMP JUMPDEST PUSH2 0x92D SWAP2 SWAP1 PUSH2 0x2C09 JUMP JUMPDEST DUP2 PUSH1 0x1 ADD DUP2 SWAP1 SSTORE POP DUP5 CALLER PUSH20 0xFFFFFFFFFFFFFFFFFFFFFFFFFFFFFFFFFFFFFFFF AND PUSH32 0xF279E6A1F5E320CCA91135676D9CB6E44CA8A08C0B88342BCDB1144F6511B568 DUP7 PUSH1 0x40 MLOAD PUSH2 0x97C SWAP2 SWAP1 PUSH2 0x25A5 JUMP JUMPDEST PUSH1 0x40 MLOAD DUP1 SWAP2 SUB SWAP1 LOG3 POP POP POP PUSH2 0x98F PUSH2 0x1EC0 JUMP JUMPDEST POP POP JUMP JUMPDEST PUSH1 0xF SLOAD DUP2 JUMP JUMPDEST PUSH0 DUP3 PUSH1 0xB DUP1 SLOAD SWAP1 POP DUP2 LT PUSH2 0x9E2 JUMPI PUSH1 0x40 MLOAD PUSH32 0x8C379A000000000000000000000000000000000000000000000000000000000 DUP2 MSTORE PUSH1 0x4 ADD PUSH2 0x9D9 SWAP1 PUSH2 0x2966 JUMP JUMPDEST PUSH1 0x40 MLOAD DUP1 SWAP2 SUB SWAP1 REVERT JUMPDEST PUSH0 PUSH1 0xB DUP6 DUP2 SLOAD DUP2 LT PUSH2 0x9F7 JUMPI PUSH2 0x9F6 PUSH2 0x2984 JUMP JUMPDEST JUMPDEST SWAP1 PUSH0 MSTORE PUSH1 0x20 PUSH0 KECCAK256 SWAP1 PUSH1 0x5 MUL ADD SWAP1 POP PUSH0 PUSH1 0xC PUSH0 DUP8 DUP2 MSTORE PUSH1 0x20 ADD SWAP1 DUP2 MSTORE PUSH1 0x20 ADD PUSH0 KECCAK256 PUSH0 DUP7 PUSH20 0xFFFFFFFFFFFFFFFFFFFFFFFFFFFFFFFFFFFFFFFF AND PUSH20 0xFFFFFFFFFFFFFFFFFFFFFFFFFFFFFFFFFFFFFFFF AND DUP2 MSTORE PUSH1 0x20 ADD SWAP1 DUP2 MSTORE PUSH1 0x20 ADD PUSH0 KECCAK256 SWAP1 POP PUSH0 DUP3 PUSH1 0x3 ADD SLOAD SWAP1 POP PUSH0 DUP4 PUSH0 ADD PUSH0 SWAP1 SLOAD SWAP1 PUSH2 0x100 EXP SWAP1 DIV PUSH20 0xFFFFFFFFFFFFFFFFFFFFFFFFFFFFFFFFFFFFFFFF AND PUSH20 0xFFFFFFFFFFFFFFFFFFFFFFFFFFFFFFFFFFFFFFFF AND PUSH4 0x70A08231 ADDRESS PUSH1 0x40 MLOAD DUP3 PUSH4 0xFFFFFFFF AND PUSH1 0xE0 SHL DUP2 MSTORE PUSH1 0x4 ADD PUSH2 0xAB8 SWAP2 SWAP1 PUSH2 0x27E1 JUMP JUMPDEST PUSH1 0x20 PUSH1 0x40 MLOAD DUP1 DUP4 SUB DUP2 DUP7 GAS STATICCALL ISZERO DUP1 ISZERO PUSH2 0xAD3 JUMPI RETURNDATASIZE PUSH0 DUP1 RETURNDATACOPY RETURNDATASIZE PUSH0 REVERT JUMPDEST POP POP POP POP PUSH1 0x40 MLOAD RETURNDATASIZE PUSH1 0x1F NOT PUSH1 0x1F DUP3 ADD AND DUP3 ADD DUP1 PUSH1 0x40 MSTORE POP DUP2 ADD SWAP1 PUSH2 0xAF7 SWAP2 SWAP1 PUSH2 0x2C4D JUMP JUMPDEST SWAP1 POP DUP4 PUSH1 0x2 ADD SLOAD NUMBER GT DUP1 ISZERO PUSH2 0xB0C JUMPI POP PUSH0 DUP2 EQ ISZERO JUMPDEST ISZERO PUSH2 0xB95 JUMPI PUSH0 PUSH2 0xB20 DUP6 PUSH1 0x2 ADD SLOAD NUMBER PUSH2 0x1409 JUMP JUMPDEST SWAP1 POP PUSH0 PUSH1 0x4 SLOAD PUSH1 0x5 SLOAD PUSH1 0xE SLOAD DUP9 PUSH1 0x1 ADD SLOAD PUSH1 0x8 SLOAD DUP7 PUSH2 0xB3F SWAP2 SWAP1 PUSH2 0x2B9B JUMP JUMPDEST PUSH2 0xB49 SWAP2 SWAP1 PUSH2 0x2B9B JUMP JUMPDEST PUSH2 0xB53 SWAP2 SWAP1 PUSH2 0x2C09 JUMP JUMPDEST PUSH2 0xB5D SWAP2 SWAP1 PUSH2 0x2B9B JUMP JUMPDEST PUSH2 0xB67 SWAP2 SWAP1 PUSH2 0x2C09 JUMP JUMPDEST SWAP1 POP DUP3 PUSH5 0xE8D4A51000 DUP3 PUSH2 0xB7B SWAP2 SWAP1 PUSH2 0x2B9B JUMP JUMPDEST PUSH2 0xB85 SWAP2 SWAP1 PUSH2 0x2C09 JUMP JUMPDEST DUP5 PUSH2 0xB90 SWAP2 SWAP1 PUSH2 0x2A11 JUMP JUMPDEST SWAP4 POP POP POP JUMPDEST DUP3 PUSH1 0x1 ADD SLOAD PUSH5 0xE8D4A51000 DUP4 DUP6 PUSH0 ADD SLOAD PUSH2 0xBAF SWAP2 SWAP1 PUSH2 0x2B9B JUMP JUMPDEST PUSH2 0xBB9 SWAP2 SWAP1 PUSH2 0x2C09 JUMP JUMPDEST DUP5 PUSH1 0x2 ADD SLOAD PUSH2 0xBC8 SWAP2 SWAP1 PUSH2 0x2A11 JUMP JUMPDEST PUSH2 0xBD2 SWAP2 SWAP1 PUSH2 0x29DE JUMP JUMPDEST SWAP6 POP POP POP POP POP POP SWAP3 SWAP2 POP POP JUMP JUMPDEST DUP1 PUSH1 0xB DUP1 SLOAD SWAP1 POP DUP2 LT PUSH2 0xC27 JUMPI PUSH1 0x40 MLOAD PUSH32 0x8C379A000000000000000000000000000000000000000000000000000000000 DUP2 MSTORE PUSH1 0x4 ADD PUSH2 0xC1E SWAP1 PUSH2 0x2966 JUMP JUMPDEST PUSH1 0x40 MLOAD DUP1 SWAP2 SUB SWAP1 REVERT JUMPDEST PUSH0 PUSH1 0xB DUP4 DUP2 SLOAD DUP2 LT PUSH2 0xC3C JUMPI PUSH2 0xC3B PUSH2 0x2984 JUMP JUMPDEST JUMPDEST SWAP1 PUSH0 MSTORE PUSH1 0x20 PUSH0 KECCAK256 SWAP1 PUSH1 0x5 MUL ADD SWAP1 POP DUP1 PUSH1 0x2 ADD SLOAD NUMBER GT PUSH2 0xC5B JUMPI POP PUSH2 0xE31 JUMP JUMPDEST PUSH0 DUP2 PUSH0 ADD PUSH0 SWAP1 SLOAD SWAP1 PUSH2 0x100 EXP SWAP1 DIV PUSH20 0xFFFFFFFFFFFFFFFFFFFFFFFFFFFFFFFFFFFFFFFF AND PUSH20 0xFFFFFFFFFFFFFFFFFFFFFFFFFFFFFFFFFFFFFFFF AND PUSH4 0x70A08231 ADDRESS PUSH1 0x40 MLOAD DUP3 PUSH4 0xFFFFFFFF AND PUSH1 0xE0 SHL DUP2 MSTORE PUSH1 0x4 ADD PUSH2 0xCB7 SWAP2 SWAP1 PUSH2 0x27E1 JUMP JUMPDEST PUSH1 0x20 PUSH1 0x40 MLOAD DUP1 DUP4 SUB DUP2 DUP7 GAS STATICCALL ISZERO DUP1 ISZERO PUSH2 0xCD2 JUMPI RETURNDATASIZE PUSH0 DUP1 RETURNDATACOPY RETURNDATASIZE PUSH0 REVERT JUMPDEST POP POP POP POP PUSH1 0x40 MLOAD RETURNDATASIZE PUSH1 0x1F NOT PUSH1 0x1F DUP3 ADD AND DUP3 ADD DUP1 PUSH1 0x40 MSTORE POP DUP2 ADD SWAP1 PUSH2 0xCF6 SWAP2 SWAP1 PUSH2 0x2C4D JUMP JUMPDEST SWAP1 POP PUSH0 DUP2 GT PUSH2 0xD0F JUMPI NUMBER DUP3 PUSH1 0x2 ADD DUP2 SWAP1 SSTORE POP POP POP PUSH2 0xE31 JUMP JUMPDEST PUSH0 PUSH2 0xD1E DUP4 PUSH1 0x2 ADD SLOAD NUMBER PUSH2 0x1409 JUMP JUMPDEST SWAP1 POP PUSH0 PUSH1 0x4 SLOAD PUSH1 0x5 SLOAD PUSH1 0xE SLOAD DUP7 PUSH1 0x1 ADD SLOAD PUSH1 0x8 SLOAD DUP7 PUSH2 0xD3D SWAP2 SWAP1 PUSH2 0x2B9B JUMP JUMPDEST PUSH2 0xD47 SWAP2 SWAP1 PUSH2 0x2B9B JUMP JUMPDEST PUSH2 0xD51 SWAP2 SWAP1 PUSH2 0x2C09 JUMP JUMPDEST PUSH2 0xD5B SWAP2 SWAP1 PUSH2 0x2B9B JUMP JUMPDEST PUSH2 0xD65 SWAP2 SWAP1 PUSH2 0x2C09 JUMP JUMPDEST SWAP1 POP PUSH1 0x2 PUSH0 SWAP1 SLOAD SWAP1 PUSH2 0x100 EXP SWAP1 DIV PUSH20 0xFFFFFFFFFFFFFFFFFFFFFFFFFFFFFFFFFFFFFFFF AND PUSH20 0xFFFFFFFFFFFFFFFFFFFFFFFFFFFFFFFFFFFFFFFF AND PUSH4 0x4E6EC247 ADDRESS DUP4 PUSH1 0x40 MLOAD DUP4 PUSH4 0xFFFFFFFF AND PUSH1 0xE0 SHL DUP2 MSTORE PUSH1 0x4 ADD PUSH2 0xDC3 SWAP3 SWAP2 SWAP1 PUSH2 0x2B14 JUMP JUMPDEST PUSH0 PUSH1 0x40 MLOAD DUP1 DUP4 SUB DUP2 PUSH0 DUP8 DUP1 EXTCODESIZE ISZERO DUP1 ISZERO PUSH2 0xDDA JUMPI PUSH0 DUP1 REVERT JUMPDEST POP GAS CALL ISZERO DUP1 ISZERO PUSH2 0xDEC JUMPI RETURNDATASIZE PUSH0 DUP1 RETURNDATACOPY RETURNDATASIZE PUSH0 REVERT JUMPDEST POP POP POP POP DUP3 PUSH5 0xE8D4A51000 DUP3 PUSH2 0xE02 SWAP2 SWAP1 PUSH2 0x2B9B JUMP JUMPDEST PUSH2 0xE0C SWAP2 SWAP1 PUSH2 0x2C09 JUMP JUMPDEST DUP5 PUSH1 0x3 ADD SLOAD PUSH2 0xE1B SWAP2 SWAP1 PUSH2 0x2A11 JUMP JUMPDEST DUP5 PUSH1 0x3 ADD DUP2 SWAP1 SSTORE POP NUMBER DUP5 PUSH1 0x2 ADD DUP2 SWAP1 SSTORE POP POP POP POP POP JUMPDEST POP POP JUMP JUMPDEST PUSH2 0xE3D PUSH2 0x1D62 JUMP JUMPDEST DUP1 PUSH1 0xB DUP1 SLOAD SWAP1 POP DUP2 LT PUSH2 0xE85 JUMPI PUSH1 0x40 MLOAD PUSH32 0x8C379A000000000000000000000000000000000000000000000000000000000 DUP2 MSTORE PUSH1 0x4 ADD PUSH2 0xE7C SWAP1 PUSH2 0x2966 JUMP JUMPDEST PUSH1 0x40 MLOAD DUP1 SWAP2 SUB SWAP1 REVERT JUMPDEST PUSH0 PUSH1 0xB DUP4 DUP2 SLOAD DUP2 LT PUSH2 0xE9A JUMPI PUSH2 0xE99 PUSH2 0x2984 JUMP JUMPDEST JUMPDEST SWAP1 PUSH0 MSTORE PUSH1 0x20 PUSH0 KECCAK256 SWAP1 PUSH1 0x5 MUL ADD SWAP1 POP PUSH0 PUSH1 0xC PUSH0 DUP6 DUP2 MSTORE PUSH1 0x20 ADD SWAP1 DUP2 MSTORE PUSH1 0x20 ADD PUSH0 KECCAK256 PUSH0 CALLER PUSH20 0xFFFFFFFFFFFFFFFFFFFFFFFFFFFFFFFFFFFFFFFF AND PUSH20 0xFFFFFFFFFFFFFFFFFFFFFFFFFFFFFFFFFFFFFFFF AND DUP2 MSTORE PUSH1 0x20 ADD SWAP1 DUP2 MSTORE PUSH1 0x20 ADD PUSH0 KECCAK256 SWAP1 POP DUP2 PUSH0 ADD PUSH0 SWAP1 SLOAD SWAP1 PUSH2 0x100 EXP SWAP1 DIV PUSH20 0xFFFFFFFFFFFFFFFFFFFFFFFFFFFFFFFFFFFFFFFF AND PUSH20 0xFFFFFFFFFFFFFFFFFFFFFFFFFFFFFFFFFFFFFFFF AND PUSH4 0xA9059CBB CALLER DUP4 PUSH0 ADD SLOAD PUSH1 0x40 MLOAD DUP4 PUSH4 0xFFFFFFFF AND PUSH1 0xE0 SHL DUP2 MSTORE PUSH1 0x4 ADD PUSH2 0xF57 SWAP3 SWAP2 SWAP1 PUSH2 0x2B14 JUMP JUMPDEST PUSH1 0x20 PUSH1 0x40 MLOAD DUP1 DUP4 SUB DUP2 PUSH0 DUP8 GAS CALL ISZERO DUP1 ISZERO PUSH2 0xF73 JUMPI RETURNDATASIZE PUSH0 DUP1 RETURNDATACOPY RETURNDATASIZE PUSH0 REVERT JUMPDEST POP POP POP POP PUSH1 0x40 MLOAD RETURNDATASIZE PUSH1 0x1F NOT PUSH1 0x1F DUP3 ADD AND DUP3 ADD DUP1 PUSH1 0x40 MSTORE POP DUP2 ADD SWAP1 PUSH2 0xF97 SWAP2 SWAP1 PUSH2 0x2B70 JUMP JUMPDEST POP DUP4 CALLER PUSH20 0xFFFFFFFFFFFFFFFFFFFFFFFFFFFFFFFFFFFFFFFF AND PUSH32 0xBB757047C2B5F3974FE26B7C10F732E7BCE710B0952A71082702781E62AE0595 DUP4 PUSH0 ADD SLOAD PUSH1 0x40 MLOAD PUSH2 0xFE2 SWAP2 SWAP1 PUSH2 0x25A5 JUMP JUMPDEST PUSH1 0x40 MLOAD DUP1 SWAP2 SUB SWAP1 LOG3 PUSH0 DUP2 PUSH1 0x2 ADD SLOAD SWAP1 POP PUSH0 DUP3 PUSH0 ADD SLOAD DUP5 PUSH0 ADD PUSH0 SWAP1 SLOAD SWAP1 PUSH2 0x100 EXP SWAP1 DIV PUSH20 0xFFFFFFFFFFFFFFFFFFFFFFFFFFFFFFFFFFFFFFFF AND PUSH20 0xFFFFFFFFFFFFFFFFFFFFFFFFFFFFFFFFFFFFFFFF AND PUSH4 0x70A08231 ADDRESS PUSH1 0x40 MLOAD DUP3 PUSH4 0xFFFFFFFF AND PUSH1 0xE0 SHL DUP2 MSTORE PUSH1 0x4 ADD PUSH2 0x1052 SWAP2 SWAP1 PUSH2 0x27E1 JUMP JUMPDEST PUSH1 0x20 PUSH1 0x40 MLOAD DUP1 DUP4 SUB DUP2 DUP7 GAS STATICCALL ISZERO DUP1 ISZERO PUSH2 0x106D JUMPI RETURNDATASIZE PUSH0 DUP1 RETURNDATACOPY RETURNDATASIZE PUSH0 REVERT JUMPDEST POP POP POP POP PUSH1 0x40 MLOAD RETURNDATASIZE PUSH1 0x1F NOT PUSH1 0x1F DUP3 ADD AND DUP3 ADD DUP1 PUSH1 0x40 MSTORE POP DUP2 ADD SWAP1 PUSH2 0x1091 SWAP2 SWAP1 PUSH2 0x2C4D JUMP JUMPDEST PUSH2 0x109B SWAP2 SWAP1 PUSH2 0x29DE JUMP JUMPDEST SWAP1 POP PUSH0 DUP2 GT DUP1 ISZERO PUSH2 0x10AB JUMPI POP PUSH0 DUP3 GT JUMPDEST ISZERO PUSH2 0x10BC JUMPI PUSH2 0x10BB DUP7 DUP4 DUP4 PUSH2 0x1EC9 JUMP JUMPDEST JUMPDEST PUSH0 DUP4 PUSH0 ADD DUP2 SWAP1 SSTORE POP PUSH0 DUP4 PUSH1 0x1 ADD DUP2 SWAP1 SSTORE POP PUSH0 DUP4 PUSH1 0x2 ADD DUP2 SWAP1 SSTORE POP PUSH2 0x10E0 DUP7 CALLER PUSH2 0x2035 JUMP JUMPDEST POP POP POP POP POP PUSH2 0x10ED PUSH2 0x1EC0 JUMP JUMPDEST POP JUMP JUMPDEST PUSH0 PUSH1 0xB DUP1 SLOAD SWAP1 POP SWAP1 POP PUSH0 JUMPDEST DUP2 DUP2 LT ISZERO PUSH2 0x111D JUMPI PUSH2 0x110C DUP2 PUSH2 0xBDF JUMP JUMPDEST DUP1 PUSH2 0x1116 SWAP1 PUSH2 0x2C78 JUMP JUMPDEST SWAP1 POP PUSH2 0x10FB JUMP JUMPDEST POP POP JUMP JUMPDEST PUSH2 0x1129 PUSH2 0x1CDB JUMP JUMPDEST PUSH2 0x1132 PUSH0 PUSH2 0x2204 JUMP JUMPDEST JUMP JUMPDEST PUSH1 0x3 PUSH0 SWAP1 SLOAD SWAP1 PUSH2 0x100 EXP SWAP1 DIV PUSH20 0xFFFFFFFFFFFFFFFFFFFFFFFFFFFFFFFFFFFFFFFF AND DUP2 JUMP JUMPDEST PUSH2 0x1161 PUSH2 0x1CDB JUMP JUMPDEST PUSH9 0x56BC75E2D63100000 DUP2 GT ISZERO PUSH2 0x11AD JUMPI PUSH1 0x40 MLOAD PUSH32 0x8C379A000000000000000000000000000000000000000000000000000000000 DUP2 MSTORE PUSH1 0x4 ADD PUSH2 0x11A4 SWAP1 PUSH2 0x2D09 JUMP JUMPDEST PUSH1 0x40 MLOAD DUP1 SWAP2 SUB SWAP1 REVERT JUMPDEST PUSH7 0x38D7EA4C68000 DUP2 LT ISZERO PUSH2 0x11F7 JUMPI PUSH1 0x40 MLOAD PUSH32 0x8C379A000000000000000000000000000000000000000000000000000000000 DUP2 MSTORE PUSH1 0x4 ADD PUSH2 0x11EE SWAP1 PUSH2 0x2D71 JUMP JUMPDEST PUSH1 0x40 MLOAD DUP1 SWAP2 SUB SWAP1 REVERT JUMPDEST DUP1 PUSH1 0x8 DUP2 SWAP1 SSTORE POP PUSH32 0x1E19929B3CB970F6D66D05A2698000DB2AC7EAFE495AEE2C6C32BD7960A97EAD PUSH1 0x8 SLOAD PUSH1 0x40 MLOAD PUSH2 0x122F SWAP2 SWAP1 PUSH2 0x25A5 JUMP JUMPDEST PUSH1 0x40 MLOAD DUP1 SWAP2 SUB SWAP1 LOG1 POP JUMP JUMPDEST PUSH2 0x1242 PUSH2 0x1D62 JUMP JUMPDEST DUP1 PUSH1 0xB DUP1 SLOAD SWAP1 POP DUP2 LT PUSH2 0x128A JUMPI PUSH1 0x40 MLOAD PUSH32 0x8C379A000000000000000000000000000000000000000000000000000000000 DUP2 MSTORE PUSH1 0x4 ADD PUSH2 0x1281 SWAP1 PUSH2 0x2966 JUMP JUMPDEST PUSH1 0x40 MLOAD DUP1 SWAP2 SUB SWAP1 REVERT JUMPDEST PUSH2 0x1293 DUP3 PUSH2 0xBDF JUMP JUMPDEST PUSH2 0x129D DUP3 CALLER PUSH2 0x1DA8 JUMP JUMPDEST PUSH0 PUSH1 0xC PUSH0 DUP5 DUP2 MSTORE PUSH1 0x20 ADD SWAP1 DUP2 MSTORE PUSH1 0x20 ADD PUSH0 KECCAK256 PUSH0 CALLER PUSH20 0xFFFFFFFFFFFFFFFFFFFFFFFFFFFFFFFFFFFFFFFF AND PUSH20 0xFFFFFFFFFFFFFFFFFFFFFFFFFFFFFFFFFFFFFFFF AND DUP2 MSTORE PUSH1 0x20 ADD SWAP1 DUP2 MSTORE PUSH1 0x20 ADD PUSH0 KECCAK256 SWAP1 POP PUSH0 PUSH1 0xB DUP5 DUP2 SLOAD DUP2 LT PUSH2 0x1301 JUMPI PUSH2 0x1300 PUSH2 0x2984 JUMP JUMPDEST JUMPDEST SWAP1 PUSH0 MSTORE PUSH1 0x20 PUSH0 KECCAK256 SWAP1 PUSH1 0x5 MUL ADD SWAP1 POP DUP1 PUSH1 0x4 ADD SLOAD TIMESTAMP LT ISZERO PUSH2 0x1356 JUMPI PUSH1 0x40 MLOAD PUSH32 0x8C379A000000000000000000000000000000000000000000000000000000000 DUP2 MSTORE PUSH1 0x4 ADD PUSH2 0x134D SWAP1 PUSH2 0x2A8E JUMP JUMPDEST PUSH1 0x40 MLOAD DUP1 SWAP2 SUB SWAP1 REVERT JUMPDEST PUSH0 DUP3 PUSH1 0x2 ADD SLOAD GT ISZERO PUSH2 0x13CE JUMPI PUSH0 DUP3 PUSH1 0x2 ADD SLOAD SWAP1 POP PUSH0 DUP4 PUSH1 0x2 ADD DUP2 SWAP1 SSTORE POP PUSH2 0x137D CALLER DUP3 PUSH2 0x22C5 JUMP JUMPDEST DUP5 CALLER PUSH20 0xFFFFFFFFFFFFFFFFFFFFFFFFFFFFFFFFFFFFFFFF AND PUSH32 0x9DA87E8CCE29A4140E89780F6E64E0B1CD58E4FA1CB5EE53EFFE97264F290C6C DUP4 PUSH1 0x40 MLOAD PUSH2 0x13C4 SWAP2 SWAP1 PUSH2 0x25A5 JUMP JUMPDEST PUSH1 0x40 MLOAD DUP1 SWAP2 SUB SWAP1 LOG3 POP JUMPDEST POP POP POP PUSH2 0x13D9 PUSH2 0x1EC0 JUMP JUMPDEST POP JUMP JUMPDEST PUSH1 0x9 SLOAD DUP2 JUMP JUMPDEST PUSH0 DUP1 PUSH0 SWAP1 SLOAD SWAP1 PUSH2 0x100 EXP SWAP1 DIV PUSH20 0xFFFFFFFFFFFFFFFFFFFFFFFFFFFFFFFFFFFFFFFF AND SWAP1 POP SWAP1 JUMP JUMPDEST PUSH0 PUSH1 0x9 SLOAD DUP4 PUSH2 0x1418 SWAP2 SWAP1 PUSH2 0x2B9B JUMP JUMPDEST DUP3 PUSH2 0x1423 SWAP2 SWAP1 PUSH2 0x29DE JUMP JUMPDEST SWAP1 POP SWAP3 SWAP2 POP POP JUMP JUMPDEST PUSH1 0xC PUSH1 0x20 MSTORE DUP2 PUSH0 MSTORE PUSH1 0x40 PUSH0 KECCAK256 PUSH1 0x20 MSTORE DUP1 PUSH0 MSTORE PUSH1 0x40 PUSH0 KECCAK256 PUSH0 SWAP2 POP SWAP2 POP POP DUP1 PUSH0 ADD SLOAD SWAP1 DUP1 PUSH1 0x1 ADD SLOAD SWAP1 DUP1 PUSH1 0x2 ADD SLOAD SWAP1 POP DUP4 JUMP JUMPDEST PUSH2 0x1464 PUSH2 0x1CDB JUMP JUMPDEST PUSH2 0x146D DUP2 PUSH2 0x24AE JUMP JUMPDEST PUSH2 0x1475 PUSH2 0x10F0 JUMP JUMPDEST PUSH0 PUSH1 0xF SLOAD NUMBER LT PUSH2 0x1485 JUMPI NUMBER PUSH2 0x1489 JUMP JUMPDEST PUSH1 0xF SLOAD JUMPDEST SWAP1 POP DUP3 PUSH1 0xE SLOAD PUSH2 0x1499 SWAP2 SWAP1 PUSH2 0x2A11 JUMP JUMPDEST PUSH1 0xE DUP2 SWAP1 SSTORE POP PUSH1 0xB PUSH1 0x40 MLOAD DUP1 PUSH1 0xA0 ADD PUSH1 0x40 MSTORE DUP1 DUP5 PUSH20 0xFFFFFFFFFFFFFFFFFFFFFFFFFFFFFFFFFFFFFFFF AND DUP2 MSTORE PUSH1 0x20 ADD DUP6 DUP2 MSTORE PUSH1 0x20 ADD DUP4 DUP2 MSTORE PUSH1 0x20 ADD PUSH0 DUP2 MSTORE PUSH1 0x20 ADD PUSH0 DUP2 MSTORE POP SWAP1 DUP1 PUSH1 0x1 DUP2 SLOAD ADD DUP1 DUP3 SSTORE DUP1 SWAP2 POP POP PUSH1 0x1 SWAP1 SUB SWAP1 PUSH0 MSTORE PUSH1 0x20 PUSH0 KECCAK256 SWAP1 PUSH1 0x5 MUL ADD PUSH0 SWAP1 SWAP2 SWAP1 SWAP2 SWAP1 SWAP2 POP PUSH0 DUP3 ADD MLOAD DUP2 PUSH0 ADD PUSH0 PUSH2 0x100 EXP DUP2 SLOAD DUP2 PUSH20 0xFFFFFFFFFFFFFFFFFFFFFFFFFFFFFFFFFFFFFFFF MUL NOT AND SWAP1 DUP4 PUSH20 0xFFFFFFFFFFFFFFFFFFFFFFFFFFFFFFFFFFFFFFFF AND MUL OR SWAP1 SSTORE POP PUSH1 0x20 DUP3 ADD MLOAD DUP2 PUSH1 0x1 ADD SSTORE PUSH1 0x40 DUP3 ADD MLOAD DUP2 PUSH1 0x2 ADD SSTORE PUSH1 0x60 DUP3 ADD MLOAD DUP2 PUSH1 0x3 ADD SSTORE PUSH1 0x80 DUP3 ADD MLOAD DUP2 PUSH1 0x4 ADD SSTORE POP POP POP POP POP JUMP JUMPDEST PUSH2 0x157F PUSH2 0x1CDB JUMP JUMPDEST PUSH0 DUP2 SWAP1 POP PUSH1 0x4 SLOAD DUP2 DUP5 PUSH2 0x1592 SWAP2 SWAP1 PUSH2 0x2A11 JUMP JUMPDEST GT ISZERO PUSH2 0x15D3 JUMPI PUSH1 0x40 MLOAD PUSH32 0x8C379A000000000000000000000000000000000000000000000000000000000 DUP2 MSTORE PUSH1 0x4 ADD PUSH2 0x15CA SWAP1 PUSH2 0x2DD9 JUMP JUMPDEST PUSH1 0x40 MLOAD DUP1 SWAP2 SUB SWAP1 REVERT JUMPDEST DUP3 PUSH1 0x5 DUP2 SWAP1 SSTORE POP DUP2 PUSH1 0x6 DUP2 SWAP1 SSTORE POP PUSH32 0xCBD554161F22A88862569B669F84507ADC410008353E0A023297D3EA419126F7 PUSH1 0x5 SLOAD PUSH1 0x6 SLOAD PUSH1 0x40 MLOAD PUSH2 0x1616 SWAP3 SWAP2 SWAP1 PUSH2 0x2DF7 JUMP JUMPDEST PUSH1 0x40 MLOAD DUP1 SWAP2 SUB SWAP1 LOG1 POP POP POP JUMP JUMPDEST PUSH2 0x162B PUSH2 0x1CDB JUMP JUMPDEST DUP2 PUSH1 0xB DUP1 SLOAD SWAP1 POP DUP2 LT PUSH2 0x1673 JUMPI PUSH1 0x40 MLOAD PUSH32 0x8C379A000000000000000000000000000000000000000000000000000000000 DUP2 MSTORE PUSH1 0x4 ADD PUSH2 0x166A SWAP1 PUSH2 0x2966 JUMP JUMPDEST PUSH1 0x40 MLOAD DUP1 SWAP2 SUB SWAP1 REVERT JUMPDEST PUSH0 PUSH1 0xB DUP5 DUP2 SLOAD DUP2 LT PUSH2 0x1688 JUMPI PUSH2 0x1687 PUSH2 0x2984 JUMP JUMPDEST JUMPDEST SWAP1 PUSH0 MSTORE PUSH1 0x20 PUSH0 KECCAK256 SWAP1 PUSH1 0x5 MUL ADD SWAP1 POP PUSH0 PUSH3 0x15180 DUP5 PUSH2 0x16A6 SWAP2 SWAP1 PUSH2 0x2B9B JUMP JUMPDEST TIMESTAMP PUSH2 0x16B1 SWAP2 SWAP1 PUSH2 0x2A11 JUMP JUMPDEST SWAP1 POP TIMESTAMP DUP2 GT PUSH2 0x16F5 JUMPI PUSH1 0x40 MLOAD PUSH32 0x8C379A000000000000000000000000000000000000000000000000000000000 DUP2 MSTORE PUSH1 0x4 ADD PUSH2 0x16EC SWAP1 PUSH2 0x2E68 JUMP JUMPDEST PUSH1 0x40 MLOAD DUP1 SWAP2 SUB SWAP1 REVERT JUMPDEST DUP1 DUP3 PUSH1 0x4 ADD DUP2 SWAP1 SSTORE POP POP POP POP POP POP JUMP JUMPDEST PUSH1 0xA SLOAD DUP2 JUMP JUMPDEST PUSH1 0x6 SLOAD DUP2 JUMP JUMPDEST PUSH1 0x5 SLOAD DUP2 JUMP JUMPDEST PUSH1 0x8 SLOAD DUP2 JUMP JUMPDEST NUMBER PUSH1 0xA SLOAD LT PUSH2 0x1761 JUMPI PUSH1 0x40 MLOAD PUSH32 0x8C379A000000000000000000000000000000000000000000000000000000000 DUP2 MSTORE PUSH1 0x4 ADD PUSH2 0x1758 SWAP1 PUSH2 0x2ED0 JUMP JUMPDEST PUSH1 0x40 MLOAD DUP1 SWAP2 SUB SWAP1 REVERT JUMPDEST PUSH0 PUSH1 0x8 SLOAD PUSH1 0xA SLOAD NUMBER PUSH2 0x1773 SWAP2 SWAP1 PUSH2 0x29DE JUMP JUMPDEST PUSH2 0x177D SWAP2 SWAP1 PUSH2 0x2B9B JUMP JUMPDEST SWAP1 POP PUSH1 0x2 PUSH0 SWAP1 SLOAD SWAP1 PUSH2 0x100 EXP SWAP1 DIV PUSH20 0xFFFFFFFFFFFFFFFFFFFFFFFFFFFFFFFFFFFFFFFF AND PUSH20 0xFFFFFFFFFFFFFFFFFFFFFFFFFFFFFFFFFFFFFFFF AND PUSH4 0x4E6EC247 PUSH1 0x7 PUSH0 SWAP1 SLOAD SWAP1 PUSH2 0x100 EXP SWAP1 DIV PUSH20 0xFFFFFFFFFFFFFFFFFFFFFFFFFFFFFFFFFFFFFFFF AND PUSH1 0x4 SLOAD PUSH1 0x6 SLOAD DUP6 PUSH2 0x17EF SWAP2 SWAP1 PUSH2 0x2B9B JUMP JUMPDEST PUSH2 0x17F9 SWAP2 SWAP1 PUSH2 0x2C09 JUMP JUMPDEST PUSH1 0x40 MLOAD DUP4 PUSH4 0xFFFFFFFF AND PUSH1 0xE0 SHL DUP2 MSTORE PUSH1 0x4 ADD PUSH2 0x1816 SWAP3 SWAP2 SWAP1 PUSH2 0x2B14 JUMP JUMPDEST PUSH0 PUSH1 0x40 MLOAD DUP1 DUP4 SUB DUP2 PUSH0 DUP8 DUP1 EXTCODESIZE ISZERO DUP1 ISZERO PUSH2 0x182D JUMPI PUSH0 DUP1 REVERT JUMPDEST POP GAS CALL ISZERO DUP1 ISZERO PUSH2 0x183F JUMPI RETURNDATASIZE PUSH0 DUP1 RETURNDATACOPY RETURNDATASIZE PUSH0 REVERT JUMPDEST POP POP POP POP NUMBER PUSH1 0xA DUP2 SWAP1 SSTORE POP POP JUMP JUMPDEST PUSH2 0x1855 PUSH2 0x1CDB JUMP JUMPDEST PUSH0 PUSH20 0xFFFFFFFFFFFFFFFFFFFFFFFFFFFFFFFFFFFFFFFF AND DUP2 PUSH20 0xFFFFFFFFFFFFFFFFFFFFFFFFFFFFFFFFFFFFFFFF AND SUB PUSH2 0x18C3 JUMPI PUSH1 0x40 MLOAD PUSH32 0x8C379A000000000000000000000000000000000000000000000000000000000 DUP2 MSTORE PUSH1 0x4 ADD PUSH2 0x18BA SWAP1 PUSH2 0x2F38 JUMP JUMPDEST PUSH1 0x40 MLOAD DUP1 SWAP2 SUB SWAP1 REVERT JUMPDEST DUP1 PUSH1 0x7 PUSH0 PUSH2 0x100 EXP DUP2 SLOAD DUP2 PUSH20 0xFFFFFFFFFFFFFFFFFFFFFFFFFFFFFFFFFFFFFFFF MUL NOT AND SWAP1 DUP4 PUSH20 0xFFFFFFFFFFFFFFFFFFFFFFFFFFFFFFFFFFFFFFFF AND MUL OR SWAP1 SSTORE POP PUSH1 0x7 PUSH0 SWAP1 SLOAD SWAP1 PUSH2 0x100 EXP SWAP1 DIV PUSH20 0xFFFFFFFFFFFFFFFFFFFFFFFFFFFFFFFFFFFFFFFF AND PUSH20 0xFFFFFFFFFFFFFFFFFFFFFFFFFFFFFFFFFFFFFFFF AND PUSH32 0xB1C7911CA1455735FFD17FEC398B65F34157A7B58831B586878F5D3C2CF44EE2 PUSH1 0x40 MLOAD PUSH1 0x40 MLOAD DUP1 SWAP2 SUB SWAP1 LOG2 POP JUMP JUMPDEST PUSH2 0x1972 PUSH2 0x1D62 JUMP JUMPDEST DUP2 PUSH1 0xB DUP1 SLOAD SWAP1 POP DUP2 LT PUSH2 0x19BA JUMPI PUSH1 0x40 MLOAD PUSH32 0x8C379A000000000000000000000000000000000000000000000000000000000 DUP2 MSTORE PUSH1 0x4 ADD PUSH2 0x19B1 SWAP1 PUSH2 0x2966 JUMP JUMPDEST PUSH1 0x40 MLOAD DUP1 SWAP2 SUB SWAP1 REVERT JUMPDEST PUSH0 PUSH1 0xB DUP5 DUP2 SLOAD DUP2 LT PUSH2 0x19CF JUMPI PUSH2 0x19CE PUSH2 0x2984 JUMP JUMPDEST JUMPDEST SWAP1 PUSH0 MSTORE PUSH1 0x20 PUSH0 KECCAK256 SWAP1 PUSH1 0x5 MUL ADD SWAP1 POP PUSH0 PUSH1 0xC PUSH0 DUP7 DUP2 MSTORE PUSH1 0x20 ADD SWAP1 DUP2 MSTORE PUSH1 0x20 ADD PUSH0 KECCAK256 PUSH0 CALLER PUSH20 0xFFFFFFFFFFFFFFFFFFFFFFFFFFFFFFFFFFFFFFFF AND PUSH20 0xFFFFFFFFFFFFFFFFFFFFFFFFFFFFFFFFFFFFFFFF AND DUP2 MSTORE PUSH1 0x20 ADD SWAP1 DUP2 MSTORE PUSH1 0x20 ADD PUSH0 KECCAK256 SWAP1 POP PUSH2 0x1A35 DUP6 PUSH2 0xBDF JUMP JUMPDEST PUSH2 0x1A3F DUP6 CALLER PUSH2 0x1DA8 JUMP JUMPDEST PUSH0 DUP5 GT ISZERO PUSH2 0x1AFE JUMPI DUP2 PUSH0 ADD PUSH0 SWAP1 SLOAD SWAP1 PUSH2 0x100 EXP SWAP1 DIV PUSH20 0xFFFFFFFFFFFFFFFFFFFFFFFFFFFFFFFFFFFFFFFF AND PUSH20 0xFFFFFFFFFFFFFFFFFFFFFFFFFFFFFFFFFFFFFFFF AND PUSH4 0x23B872DD CALLER ADDRESS DUP8 PUSH1 0x40 MLOAD DUP5 PUSH4 0xFFFFFFFF AND PUSH1 0xE0 SHL DUP2 MSTORE PUSH1 0x4 ADD PUSH2 0x1AA6 SWAP4 SWAP3 SWAP2 SWAP1 PUSH2 0x2F56 JUMP JUMPDEST PUSH1 0x20 PUSH1 0x40 MLOAD DUP1 DUP4 SUB DUP2 PUSH0 DUP8 GAS CALL ISZERO DUP1 ISZERO PUSH2 0x1AC2 JUMPI RETURNDATASIZE PUSH0 DUP1 RETURNDATACOPY RETURNDATASIZE PUSH0 REVERT JUMPDEST POP POP POP POP PUSH1 0x40 MLOAD RETURNDATASIZE PUSH1 0x1F NOT PUSH1 0x1F DUP3 ADD AND DUP3 ADD DUP1 PUSH1 0x40 MSTORE POP DUP2 ADD SWAP1 PUSH2 0x1AE6 SWAP2 SWAP1 PUSH2 0x2B70 JUMP JUMPDEST POP DUP4 DUP2 PUSH0 ADD SLOAD PUSH2 0x1AF6 SWAP2 SWAP1 PUSH2 0x2A11 JUMP JUMPDEST DUP2 PUSH0 ADD DUP2 SWAP1 SSTORE POP JUMPDEST PUSH0 DUP5 GT DUP1 ISZERO PUSH2 0x1B0F JUMPI POP PUSH0 DUP2 PUSH0 ADD SLOAD EQ JUMPDEST ISZERO PUSH2 0x1B84 JUMPI PUSH1 0xD PUSH0 DUP7 DUP2 MSTORE PUSH1 0x20 ADD SWAP1 DUP2 MSTORE PUSH1 0x20 ADD PUSH0 KECCAK256 CALLER SWAP1 DUP1 PUSH1 0x1 DUP2 SLOAD ADD DUP1 DUP3 SSTORE DUP1 SWAP2 POP POP PUSH1 0x1 SWAP1 SUB SWAP1 PUSH0 MSTORE PUSH1 0x20 PUSH0 KECCAK256 ADD PUSH0 SWAP1 SWAP2 SWAP1 SWAP2 SWAP1 SWAP2 PUSH2 0x100 EXP DUP2 SLOAD DUP2 PUSH20 0xFFFFFFFFFFFFFFFFFFFFFFFFFFFFFFFFFFFFFFFF MUL NOT AND SWAP1 DUP4 PUSH20 0xFFFFFFFFFFFFFFFFFFFFFFFFFFFFFFFFFFFFFFFF AND MUL OR SWAP1 SSTORE POP JUMPDEST PUSH5 0xE8D4A51000 DUP3 PUSH1 0x3 ADD SLOAD DUP3 PUSH0 ADD SLOAD PUSH2 0x1B9D SWAP2 SWAP1 PUSH2 0x2B9B JUMP JUMPDEST PUSH2 0x1BA7 SWAP2 SWAP1 PUSH2 0x2C09 JUMP JUMPDEST DUP2 PUSH1 0x1 ADD DUP2 SWAP1 SSTORE POP DUP5 CALLER PUSH20 0xFFFFFFFFFFFFFFFFFFFFFFFFFFFFFFFFFFFFFFFF AND PUSH32 0x90890809C654F11D6E72A28FA60149770A0D11EC6C92319D6CEB2BB0A4EA1A15 DUP7 PUSH1 0x40 MLOAD PUSH2 0x1BF6 SWAP2 SWAP1 PUSH2 0x25A5 JUMP JUMPDEST PUSH1 0x40 MLOAD DUP1 SWAP2 SUB SWAP1 LOG3 POP POP POP PUSH2 0x1C09 PUSH2 0x1EC0 JUMP JUMPDEST POP POP JUMP JUMPDEST PUSH1 0x7 PUSH0 SWAP1 SLOAD SWAP1 PUSH2 0x100 EXP SWAP1 DIV PUSH20 0xFFFFFFFFFFFFFFFFFFFFFFFFFFFFFFFFFFFFFFFF AND DUP2 JUMP JUMPDEST PUSH1 0x2 PUSH0 SWAP1 SLOAD SWAP1 PUSH2 0x100 EXP SWAP1 DIV PUSH20 0xFFFFFFFFFFFFFFFFFFFFFFFFFFFFFFFFFFFFFFFF AND DUP2 JUMP JUMPDEST PUSH2 0x1C5F PUSH2 0x1CDB JUMP JUMPDEST PUSH0 PUSH20 0xFFFFFFFFFFFFFFFFFFFFFFFFFFFFFFFFFFFFFFFF AND DUP2 PUSH20 0xFFFFFFFFFFFFFFFFFFFFFFFFFFFFFFFFFFFFFFFF AND SUB PUSH2 0x1CCF JUMPI PUSH0 PUSH1 0x40 MLOAD PUSH32 0x1E4FBDF700000000000000000000000000000000000000000000000000000000 DUP2 MSTORE PUSH1 0x4 ADD PUSH2 0x1CC6 SWAP2 SWAP1 PUSH2 0x27E1 JUMP JUMPDEST PUSH1 0x40 MLOAD DUP1 SWAP2 SUB SWAP1 REVERT JUMPDEST PUSH2 0x1CD8 DUP2 PUSH2 0x2204 JUMP JUMPDEST POP JUMP JUMPDEST PUSH2 0x1CE3 PUSH2 0x2586 JUMP JUMPDEST PUSH20 0xFFFFFFFFFFFFFFFFFFFFFFFFFFFFFFFFFFFFFFFF AND PUSH2 0x1D01 PUSH2 0x13E2 JUMP JUMPDEST PUSH20 0xFFFFFFFFFFFFFFFFFFFFFFFFFFFFFFFFFFFFFFFF AND EQ PUSH2 0x1D60 JUMPI PUSH2 0x1D24 PUSH2 0x2586 JUMP JUMPDEST PUSH1 0x40 MLOAD PUSH32 0x118CDAA700000000000000000000000000000000000000000000000000000000 DUP2 MSTORE PUSH1 0x4 ADD PUSH2 0x1D57 SWAP2 SWAP1 PUSH2 0x27E1 JUMP JUMPDEST PUSH1 0x40 MLOAD DUP1 SWAP2 SUB SWAP1 REVERT JUMPDEST JUMP JUMPDEST PUSH1 0x2 PUSH1 0x1 SLOAD SUB PUSH2 0x1D9E JUMPI PUSH1 0x40 MLOAD PUSH32 0x3EE5AEB500000000000000000000000000000000000000000000000000000000 DUP2 MSTORE PUSH1 0x4 ADD PUSH1 0x40 MLOAD DUP1 SWAP2 SUB SWAP1 REVERT JUMPDEST PUSH1 0x2 PUSH1 0x1 DUP2 SWAP1 SSTORE POP JUMP JUMPDEST DUP2 PUSH1 0xB DUP1 SLOAD SWAP1 POP DUP2 LT PUSH2 0x1DF0 JUMPI PUSH1 0x40 MLOAD PUSH32 0x8C379A000000000000000000000000000000000000000000000000000000000 DUP2 MSTORE PUSH1 0x4 ADD PUSH2 0x1DE7 SWAP1 PUSH2 0x2966 JUMP JUMPDEST PUSH1 0x40 MLOAD DUP1 SWAP2 SUB SWAP1 REVERT JUMPDEST PUSH0 PUSH1 0xB DUP5 DUP2 SLOAD DUP2 LT PUSH2 0x1E05 JUMPI PUSH2 0x1E04 PUSH2 0x2984 JUMP JUMPDEST JUMPDEST SWAP1 PUSH0 MSTORE PUSH1 0x20 PUSH0 KECCAK256 SWAP1 PUSH1 0x5 MUL ADD SWAP1 POP PUSH0 PUSH1 0xC PUSH0 DUP7 DUP2 MSTORE PUSH1 0x20 ADD SWAP1 DUP2 MSTORE PUSH1 0x20 ADD PUSH0 KECCAK256 PUSH0 DUP6 PUSH20 0xFFFFFFFFFFFFFFFFFFFFFFFFFFFFFFFFFFFFFFFF AND PUSH20 0xFFFFFFFFFFFFFFFFFFFFFFFFFFFFFFFFFFFFFFFF AND DUP2 MSTORE PUSH1 0x20 ADD SWAP1 DUP2 MSTORE PUSH1 0x20 ADD PUSH0 KECCAK256 SWAP1 POP PUSH0 DUP2 PUSH1 0x1 ADD SLOAD PUSH5 0xE8D4A51000 DUP5 PUSH1 0x3 ADD SLOAD DUP5 PUSH0 ADD SLOAD PUSH2 0x1E81 SWAP2 SWAP1 PUSH2 0x2B9B JUMP JUMPDEST PUSH2 0x1E8B SWAP2 SWAP1 PUSH2 0x2C09 JUMP JUMPDEST PUSH2 0x1E95 SWAP2 SWAP1 PUSH2 0x29DE JUMP JUMPDEST SWAP1 POP PUSH0 DUP2 GT ISZERO PUSH2 0x1EB8 JUMPI DUP1 DUP3 PUSH1 0x2 ADD SLOAD PUSH2 0x1EAF SWAP2 SWAP1 PUSH2 0x2A11 JUMP JUMPDEST DUP3 PUSH1 0x2 ADD DUP2 SWAP1 SSTORE POP JUMPDEST POP POP POP POP POP POP JUMP JUMPDEST PUSH1 0x1 DUP1 DUP2 SWAP1 SSTORE POP JUMP JUMPDEST PUSH0 PUSH1 0xD PUSH0 DUP6 DUP2 MSTORE PUSH1 0x20 ADD SWAP1 DUP2 MSTORE PUSH1 0x20 ADD PUSH0 KECCAK256 DUP1 SLOAD SWAP1 POP SWAP1 POP PUSH0 JUMPDEST DUP2 DUP2 LT ISZERO PUSH2 0x1FF3 JUMPI PUSH0 PUSH1 0xD PUSH0 DUP8 DUP2 MSTORE PUSH1 0x20 ADD SWAP1 DUP2 MSTORE PUSH1 0x20 ADD PUSH0 KECCAK256 DUP3 DUP2 SLOAD DUP2 LT PUSH2 0x1F0F JUMPI PUSH2 0x1F0E PUSH2 0x2984 JUMP JUMPDEST JUMPDEST SWAP1 PUSH0 MSTORE PUSH1 0x20 PUSH0 KECCAK256 ADD PUSH0 SWAP1 SLOAD SWAP1 PUSH2 0x100 EXP SWAP1 DIV PUSH20 0xFFFFFFFFFFFFFFFFFFFFFFFFFFFFFFFFFFFFFFFF AND SWAP1 POP PUSH0 PUSH1 0xC PUSH0 DUP9 DUP2 MSTORE PUSH1 0x20 ADD SWAP1 DUP2 MSTORE PUSH1 0x20 ADD PUSH0 KECCAK256 PUSH0 DUP4 PUSH20 0xFFFFFFFFFFFFFFFFFFFFFFFFFFFFFFFFFFFFFFFF AND PUSH20 0xFFFFFFFFFFFFFFFFFFFFFFFFFFFFFFFFFFFFFFFF AND DUP2 MSTORE PUSH1 0x20 ADD SWAP1 DUP2 MSTORE PUSH1 0x20 ADD PUSH0 KECCAK256 SWAP1 POP PUSH0 DUP6 PUSH5 0xE8D4A51000 DUP4 PUSH0 ADD SLOAD PUSH2 0x1F9E SWAP2 SWAP1 PUSH2 0x2B9B JUMP JUMPDEST PUSH2 0x1FA8 SWAP2 SWAP1 PUSH2 0x2C09 JUMP JUMPDEST SWAP1 POP PUSH5 0xE8D4A51000 DUP2 DUP9 PUSH2 0x1FBC SWAP2 SWAP1 PUSH2 0x2B9B JUMP JUMPDEST PUSH2 0x1FC6 SWAP2 SWAP1 PUSH2 0x2C09 JUMP JUMPDEST DUP3 PUSH1 0x2 ADD PUSH0 DUP3 DUP3 SLOAD PUSH2 0x1FD8 SWAP2 SWAP1 PUSH2 0x2A11 JUMP JUMPDEST SWAP3 POP POP DUP2 SWAP1 SSTORE POP POP POP POP DUP1 PUSH2 0x1FEC SWAP1 PUSH2 0x2C78 JUMP JUMPDEST SWAP1 POP PUSH2 0x1EE3 JUMP JUMPDEST POP PUSH32 0x2B3815017A53DF0F7A02DAFF8930FA0330E6091A501C5DE817E0DF95894BAB1D DUP5 DUP5 DUP5 PUSH1 0x40 MLOAD PUSH2 0x2027 SWAP4 SWAP3 SWAP2 SWAP1 PUSH2 0x27FA JUMP JUMPDEST PUSH1 0x40 MLOAD DUP1 SWAP2 SUB SWAP1 LOG1 POP POP POP POP JUMP JUMPDEST PUSH0 PUSH1 0xD PUSH0 DUP5 DUP2 MSTORE PUSH1 0x20 ADD SWAP1 DUP2 MSTORE PUSH1 0x20 ADD PUSH0 KECCAK256 DUP1 SLOAD SWAP1 POP SWAP1 POP PUSH0 JUMPDEST DUP2 DUP2 LT ISZERO PUSH2 0x21FE JUMPI DUP3 PUSH20 0xFFFFFFFFFFFFFFFFFFFFFFFFFFFFFFFFFFFFFFFF AND PUSH1 0xD PUSH0 DUP7 DUP2 MSTORE PUSH1 0x20 ADD SWAP1 DUP2 MSTORE PUSH1 0x20 ADD PUSH0 KECCAK256 DUP3 DUP2 SLOAD DUP2 LT PUSH2 0x2091 JUMPI PUSH2 0x2090 PUSH2 0x2984 JUMP JUMPDEST JUMPDEST SWAP1 PUSH0 MSTORE PUSH1 0x20 PUSH0 KECCAK256 ADD PUSH0 SWAP1 SLOAD SWAP1 PUSH2 0x100 EXP SWAP1 DIV PUSH20 0xFFFFFFFFFFFFFFFFFFFFFFFFFFFFFFFFFFFFFFFF AND PUSH20 0xFFFFFFFFFFFFFFFFFFFFFFFFFFFFFFFFFFFFFFFF AND SUB PUSH2 0x21EB JUMPI PUSH1 0xD PUSH0 DUP6 DUP2 MSTORE PUSH1 0x20 ADD SWAP1 DUP2 MSTORE PUSH1 0x20 ADD PUSH0 KECCAK256 PUSH1 0x1 DUP4 PUSH2 0x20F2 SWAP2 SWAP1 PUSH2 0x29DE JUMP JUMPDEST DUP2 SLOAD DUP2 LT PUSH2 0x2103 JUMPI PUSH2 0x2102 PUSH2 0x2984 JUMP JUMPDEST JUMPDEST SWAP1 PUSH0 MSTORE PUSH1 0x20 PUSH0 KECCAK256 ADD PUSH0 SWAP1 SLOAD SWAP1 PUSH2 0x100 EXP SWAP1 DIV PUSH20 0xFFFFFFFFFFFFFFFFFFFFFFFFFFFFFFFFFFFFFFFF AND PUSH1 0xD PUSH0 DUP7 DUP2 MSTORE PUSH1 0x20 ADD SWAP1 DUP2 MSTORE PUSH1 0x20 ADD PUSH0 KECCAK256 DUP3 DUP2 SLOAD DUP2 LT PUSH2 0x214E JUMPI PUSH2 0x214D PUSH2 0x2984 JUMP JUMPDEST JUMPDEST SWAP1 PUSH0 MSTORE PUSH1 0x20 PUSH0 KECCAK256 ADD PUSH0 PUSH2 0x100 EXP DUP2 SLOAD DUP2 PUSH20 0xFFFFFFFFFFFFFFFFFFFFFFFFFFFFFFFFFFFFFFFF MUL NOT AND SWAP1 DUP4 PUSH20 0xFFFFFFFFFFFFFFFFFFFFFFFFFFFFFFFFFFFFFFFF AND MUL OR SWAP1 SSTORE POP PUSH1 0xD PUSH0 DUP6 DUP2 MSTORE PUSH1 0x20 ADD SWAP1 DUP2 MSTORE PUSH1 0x20 ADD PUSH0 KECCAK256 DUP1 SLOAD DUP1 PUSH2 0x21B4 JUMPI PUSH2 0x21B3 PUSH2 0x2F8B JUMP JUMPDEST JUMPDEST PUSH1 0x1 SWAP1 SUB DUP2 DUP2 SWAP1 PUSH0 MSTORE PUSH1 0x20 PUSH0 KECCAK256 ADD PUSH0 PUSH2 0x100 EXP DUP2 SLOAD SWAP1 PUSH20 0xFFFFFFFFFFFFFFFFFFFFFFFFFFFFFFFFFFFFFFFF MUL NOT AND SWAP1 SSTORE SWAP1 SSTORE PUSH2 0x21FE JUMP JUMPDEST DUP1 DUP1 PUSH2 0x21F6 SWAP1 PUSH2 0x2C78 JUMP JUMPDEST SWAP2 POP POP PUSH2 0x204F JUMP JUMPDEST POP POP POP POP JUMP JUMPDEST PUSH0 DUP1 PUSH0 SWAP1 SLOAD SWAP1 PUSH2 0x100 EXP SWAP1 DIV PUSH20 0xFFFFFFFFFFFFFFFFFFFFFFFFFFFFFFFFFFFFFFFF AND SWAP1 POP DUP2 PUSH0 DUP1 PUSH2 0x100 EXP DUP2 SLOAD DUP2 PUSH20 0xFFFFFFFFFFFFFFFFFFFFFFFFFFFFFFFFFFFFFFFF MUL NOT AND SWAP1 DUP4 PUSH20 0xFFFFFFFFFFFFFFFFFFFFFFFFFFFFFFFFFFFFFFFF AND MUL OR SWAP1 SSTORE POP DUP2 PUSH20 0xFFFFFFFFFFFFFFFFFFFFFFFFFFFFFFFFFFFFFFFF AND DUP2 PUSH20 0xFFFFFFFFFFFFFFFFFFFFFFFFFFFFFFFFFFFFFFFF AND PUSH32 0x8BE0079C531659141344CD1FD0A4F28419497F9722A3DAAFE3B4186F6B6457E0 PUSH1 0x40 MLOAD PUSH1 0x40 MLOAD DUP1 SWAP2 SUB SWAP1 LOG3 POP POP JUMP JUMPDEST PUSH0 PUSH1 0x2 PUSH0 SWAP1 SLOAD SWAP1 PUSH2 0x100 EXP SWAP1 DIV PUSH20 0xFFFFFFFFFFFFFFFFFFFFFFFFFFFFFFFFFFFFFFFF AND PUSH20 0xFFFFFFFFFFFFFFFFFFFFFFFFFFFFFFFFFFFFFFFF AND PUSH4 0x27E235E3 ADDRESS PUSH1 0x40 MLOAD DUP3 PUSH4 0xFFFFFFFF AND PUSH1 0xE0 SHL DUP2 MSTORE PUSH1 0x4 ADD PUSH2 0x2320 SWAP2 SWAP1 PUSH2 0x27E1 JUMP JUMPDEST PUSH1 0x20 PUSH1 0x40 MLOAD DUP1 DUP4 SUB DUP2 DUP7 GAS STATICCALL ISZERO DUP1 ISZERO PUSH2 0x233B JUMPI RETURNDATASIZE PUSH0 DUP1 RETURNDATACOPY RETURNDATASIZE PUSH0 REVERT JUMPDEST POP POP POP POP PUSH1 0x40 MLOAD RETURNDATASIZE PUSH1 0x1F NOT PUSH1 0x1F DUP3 ADD AND DUP3 ADD DUP1 PUSH1 0x40 MSTORE POP DUP2 ADD SWAP1 PUSH2 0x235F SWAP2 SWAP1 PUSH2 0x2C4D JUMP JUMPDEST SWAP1 POP DUP1 DUP3 GT ISZERO PUSH2 0x240B JUMPI PUSH1 0x2 PUSH0 SWAP1 SLOAD SWAP1 PUSH2 0x100 EXP SWAP1 DIV PUSH20 0xFFFFFFFFFFFFFFFFFFFFFFFFFFFFFFFFFFFFFFFF AND PUSH20 0xFFFFFFFFFFFFFFFFFFFFFFFFFFFFFFFFFFFFFFFF AND PUSH4 0xA9059CBB DUP5 DUP4 PUSH1 0x40 MLOAD DUP4 PUSH4 0xFFFFFFFF AND PUSH1 0xE0 SHL DUP2 MSTORE PUSH1 0x4 ADD PUSH2 0x23C5 SWAP3 SWAP2 SWAP1 PUSH2 0x2B14 JUMP JUMPDEST PUSH1 0x20 PUSH1 0x40 MLOAD DUP1 DUP4 SUB DUP2 PUSH0 DUP8 GAS CALL ISZERO DUP1 ISZERO PUSH2 0x23E1 JUMPI RETURNDATASIZE PUSH0 DUP1 RETURNDATACOPY RETURNDATASIZE PUSH0 REVERT JUMPDEST POP POP POP POP PUSH1 0x40 MLOAD RETURNDATASIZE PUSH1 0x1F NOT PUSH1 0x1F DUP3 ADD AND DUP3 ADD DUP1 PUSH1 0x40 MSTORE POP DUP2 ADD SWAP1 PUSH2 0x2405 SWAP2 SWAP1 PUSH2 0x2B70 JUMP JUMPDEST POP PUSH2 0x24A9 JUMP JUMPDEST PUSH1 0x2 PUSH0 SWAP1 SLOAD SWAP1 PUSH2 0x100 EXP SWAP1 DIV PUSH20 0xFFFFFFFFFFFFFFFFFFFFFFFFFFFFFFFFFFFFFFFF AND PUSH20 0xFFFFFFFFFFFFFFFFFFFFFFFFFFFFFFFFFFFFFFFF AND PUSH4 0xA9059CBB DUP5 DUP5 PUSH1 0x40 MLOAD DUP4 PUSH4 0xFFFFFFFF AND PUSH1 0xE0 SHL DUP2 MSTORE PUSH1 0x4 ADD PUSH2 0x2467 SWAP3 SWAP2 SWAP1 PUSH2 0x2B14 JUMP JUMPDEST PUSH1 0x20 PUSH1 0x40 MLOAD DUP1 DUP4 SUB DUP2 PUSH0 DUP8 GAS CALL ISZERO DUP1 ISZERO PUSH2 0x2483 JUMPI RETURNDATASIZE PUSH0 DUP1 RETURNDATACOPY RETURNDATASIZE PUSH0 REVERT JUMPDEST POP POP POP POP PUSH1 0x40 MLOAD RETURNDATASIZE PUSH1 0x1F NOT PUSH1 0x1F DUP3 ADD AND DUP3 ADD DUP1 PUSH1 0x40 MSTORE POP DUP2 ADD SWAP1 PUSH2 0x24A7 SWAP2 SWAP1 PUSH2 0x2B70 JUMP JUMPDEST POP JUMPDEST POP POP POP JUMP JUMPDEST PUSH0 PUSH1 0xB DUP1 SLOAD SWAP1 POP SWAP1 POP PUSH0 JUMPDEST DUP2 DUP2 LT ISZERO PUSH2 0x2581 JUMPI DUP3 PUSH20 0xFFFFFFFFFFFFFFFFFFFFFFFFFFFFFFFFFFFFFFFF AND PUSH1 0xB DUP3 DUP2 SLOAD DUP2 LT PUSH2 0x24EC JUMPI PUSH2 0x24EB PUSH2 0x2984 JUMP JUMPDEST JUMPDEST SWAP1 PUSH0 MSTORE PUSH1 0x20 PUSH0 KECCAK256 SWAP1 PUSH1 0x5 MUL ADD PUSH0 ADD PUSH0 SWAP1 SLOAD SWAP1 PUSH2 0x100 EXP SWAP1 DIV PUSH20 0xFFFFFFFFFFFFFFFFFFFFFFFFFFFFFFFFFFFFFFFF AND PUSH20 0xFFFFFFFFFFFFFFFFFFFFFFFFFFFFFFFFFFFFFFFF AND SUB PUSH2 0x2570 JUMPI PUSH1 0x40 MLOAD PUSH32 0x8C379A000000000000000000000000000000000000000000000000000000000 DUP2 MSTORE PUSH1 0x4 ADD PUSH2 0x2567 SWAP1 PUSH2 0x3002 JUMP JUMPDEST PUSH1 0x40 MLOAD DUP1 SWAP2 SUB SWAP1 REVERT JUMPDEST DUP1 PUSH2 0x257A SWAP1 PUSH2 0x2C78 JUMP JUMPDEST SWAP1 POP PUSH2 0x24B9 JUMP JUMPDEST POP POP POP JUMP JUMPDEST PUSH0 CALLER SWAP1 POP SWAP1 JUMP JUMPDEST PUSH0 DUP2 SWAP1 POP SWAP2 SWAP1 POP JUMP JUMPDEST PUSH2 0x259F DUP2 PUSH2 0x258D JUMP JUMPDEST DUP3 MSTORE POP POP JUMP JUMPDEST PUSH0 PUSH1 0x20 DUP3 ADD SWAP1 POP PUSH2 0x25B8 PUSH0 DUP4 ADD DUP5 PUSH2 0x2596 JUMP JUMPDEST SWAP3 SWAP2 POP POP JUMP JUMPDEST PUSH0 DUP1 REVERT JUMPDEST PUSH2 0x25CB DUP2 PUSH2 0x258D JUMP JUMPDEST DUP2 EQ PUSH2 0x25D5 JUMPI PUSH0 DUP1 REVERT JUMPDEST POP JUMP JUMPDEST PUSH0 DUP2 CALLDATALOAD SWAP1 POP PUSH2 0x25E6 DUP2 PUSH2 0x25C2 JUMP JUMPDEST SWAP3 SWAP2 POP POP JUMP JUMPDEST PUSH0 PUSH1 0x20 DUP3 DUP5 SUB SLT ISZERO PUSH2 0x2601 JUMPI PUSH2 0x2600 PUSH2 0x25BE JUMP JUMPDEST JUMPDEST PUSH0 PUSH2 0x260E DUP5 DUP3 DUP6 ADD PUSH2 0x25D8 JUMP JUMPDEST SWAP2 POP POP SWAP3 SWAP2 POP POP JUMP JUMPDEST PUSH0 PUSH20 0xFFFFFFFFFFFFFFFFFFFFFFFFFFFFFFFFFFFFFFFF DUP3 AND SWAP1 POP SWAP2 SWAP1 POP JUMP JUMPDEST PUSH0 DUP2 SWAP1 POP SWAP2 SWAP1 POP JUMP JUMPDEST PUSH0 PUSH2 0x2659 PUSH2 0x2654 PUSH2 0x264F DUP5 PUSH2 0x2617 JUMP JUMPDEST PUSH2 0x2636 JUMP JUMPDEST PUSH2 0x2617 JUMP JUMPDEST SWAP1 POP SWAP2 SWAP1 POP JUMP JUMPDEST PUSH0 PUSH2 0x266A DUP3 PUSH2 0x263F JUMP JUMPDEST SWAP1 POP SWAP2 SWAP1 POP JUMP JUMPDEST PUSH0 PUSH2 0x267B DUP3 PUSH2 0x2660 JUMP JUMPDEST SWAP1 POP SWAP2 SWAP1 POP JUMP JUMPDEST PUSH2 0x268B DUP2 PUSH2 0x2671 JUMP JUMPDEST DUP3 MSTORE POP POP JUMP JUMPDEST PUSH0 PUSH1 0xA0 DUP3 ADD SWAP1 POP PUSH2 0x26A4 PUSH0 DUP4 ADD DUP9 PUSH2 0x2682 JUMP JUMPDEST PUSH2 0x26B1 PUSH1 0x20 DUP4 ADD DUP8 PUSH2 0x2596 JUMP JUMPDEST PUSH2 0x26BE PUSH1 0x40 DUP4 ADD DUP7 PUSH2 0x2596 JUMP JUMPDEST PUSH2 0x26CB PUSH1 0x60 DUP4 ADD DUP6 PUSH2 0x2596 JUMP JUMPDEST PUSH2 0x26D8 PUSH1 0x80 DUP4 ADD DUP5 PUSH2 0x2596 JUMP JUMPDEST SWAP7 SWAP6 POP POP POP POP POP POP JUMP JUMPDEST PUSH0 DUP1 PUSH1 0x40 DUP4 DUP6 SUB SLT ISZERO PUSH2 0x26F8 JUMPI PUSH2 0x26F7 PUSH2 0x25BE JUMP JUMPDEST JUMPDEST PUSH0 PUSH2 0x2705 DUP6 DUP3 DUP7 ADD PUSH2 0x25D8 JUMP JUMPDEST SWAP3 POP POP PUSH1 0x20 PUSH2 0x2716 DUP6 DUP3 DUP7 ADD PUSH2 0x25D8 JUMP JUMPDEST SWAP2 POP POP SWAP3 POP SWAP3 SWAP1 POP JUMP JUMPDEST PUSH0 PUSH2 0x272A DUP3 PUSH2 0x2617 JUMP JUMPDEST SWAP1 POP SWAP2 SWAP1 POP JUMP JUMPDEST PUSH2 0x273A DUP2 PUSH2 0x2720 JUMP JUMPDEST DUP2 EQ PUSH2 0x2744 JUMPI PUSH0 DUP1 REVERT JUMPDEST POP JUMP JUMPDEST PUSH0 DUP2 CALLDATALOAD SWAP1 POP PUSH2 0x2755 DUP2 PUSH2 0x2731 JUMP JUMPDEST SWAP3 SWAP2 POP POP JUMP JUMPDEST PUSH0 DUP1 PUSH1 0x40 DUP4 DUP6 SUB SLT ISZERO PUSH2 0x2771 JUMPI PUSH2 0x2770 PUSH2 0x25BE JUMP JUMPDEST JUMPDEST PUSH0 PUSH2 0x277E DUP6 DUP3 DUP7 ADD PUSH2 0x25D8 JUMP JUMPDEST SWAP3 POP POP PUSH1 0x20 PUSH2 0x278F DUP6 DUP3 DUP7 ADD PUSH2 0x2747 JUMP JUMPDEST SWAP2 POP POP SWAP3 POP SWAP3 SWAP1 POP JUMP JUMPDEST PUSH0 PUSH2 0x27A3 DUP3 PUSH2 0x2660 JUMP JUMPDEST SWAP1 POP SWAP2 SWAP1 POP JUMP JUMPDEST PUSH2 0x27B3 DUP2 PUSH2 0x2799 JUMP JUMPDEST DUP3 MSTORE POP POP JUMP JUMPDEST PUSH0 PUSH1 0x20 DUP3 ADD SWAP1 POP PUSH2 0x27CC PUSH0 DUP4 ADD DUP5 PUSH2 0x27AA JUMP JUMPDEST SWAP3 SWAP2 POP POP JUMP JUMPDEST PUSH2 0x27DB DUP2 PUSH2 0x2720 JUMP JUMPDEST DUP3 MSTORE POP POP JUMP JUMPDEST PUSH0 PUSH1 0x20 DUP3 ADD SWAP1 POP PUSH2 0x27F4 PUSH0 DUP4 ADD DUP5 PUSH2 0x27D2 JUMP JUMPDEST SWAP3 SWAP2 POP POP JUMP JUMPDEST PUSH0 PUSH1 0x60 DUP3 ADD SWAP1 POP PUSH2 0x280D PUSH0 DUP4 ADD DUP7 PUSH2 0x2596 JUMP JUMPDEST PUSH2 0x281A PUSH1 0x20 DUP4 ADD DUP6 PUSH2 0x2596 JUMP JUMPDEST PUSH2 0x2827 PUSH1 0x40 DUP4 ADD DUP5 PUSH2 0x2596 JUMP JUMPDEST SWAP5 SWAP4 POP POP POP POP JUMP JUMPDEST PUSH0 PUSH2 0x2839 DUP3 PUSH2 0x2720 JUMP JUMPDEST SWAP1 POP SWAP2 SWAP1 POP JUMP JUMPDEST PUSH2 0x2849 DUP2 PUSH2 0x282F JUMP JUMPDEST DUP2 EQ PUSH2 0x2853 JUMPI PUSH0 DUP1 REVERT JUMPDEST POP JUMP JUMPDEST PUSH0 DUP2 CALLDATALOAD SWAP1 POP PUSH2 0x2864 DUP2 PUSH2 0x2840 JUMP JUMPDEST SWAP3 SWAP2 POP POP JUMP JUMPDEST PUSH0 DUP1 PUSH1 0x40 DUP4 DUP6 SUB SLT ISZERO PUSH2 0x2880 JUMPI PUSH2 0x287F PUSH2 0x25BE JUMP JUMPDEST JUMPDEST PUSH0 PUSH2 0x288D DUP6 DUP3 DUP7 ADD PUSH2 0x25D8 JUMP JUMPDEST SWAP3 POP POP PUSH1 0x20 PUSH2 0x289E DUP6 DUP3 DUP7 ADD PUSH2 0x2856 JUMP JUMPDEST SWAP2 POP POP SWAP3 POP SWAP3 SWAP1 POP JUMP JUMPDEST PUSH0 PUSH1 0x20 DUP3 DUP5 SUB SLT ISZERO PUSH2 0x28BD JUMPI PUSH2 0x28BC PUSH2 0x25BE JUMP JUMPDEST JUMPDEST PUSH0 PUSH2 0x28CA DUP5 DUP3 DUP6 ADD PUSH2 0x2747 JUMP JUMPDEST SWAP2 POP POP SWAP3 SWAP2 POP POP JUMP JUMPDEST PUSH0 PUSH2 0x28DD DUP3 PUSH2 0x2660 JUMP JUMPDEST SWAP1 POP SWAP2 SWAP1 POP JUMP JUMPDEST PUSH2 0x28ED DUP2 PUSH2 0x28D3 JUMP JUMPDEST DUP3 MSTORE POP POP JUMP JUMPDEST PUSH0 PUSH1 0x20 DUP3 ADD SWAP1 POP PUSH2 0x2906 PUSH0 DUP4 ADD DUP5 PUSH2 0x28E4 JUMP JUMPDEST SWAP3 SWAP2 POP POP JUMP JUMPDEST PUSH0 DUP3 DUP3 MSTORE PUSH1 0x20 DUP3 ADD SWAP1 POP SWAP3 SWAP2 POP POP JUMP JUMPDEST PUSH32 0x706F6F6C206E6F74206578697374000000000000000000000000000000000000 PUSH0 DUP3 ADD MSTORE POP JUMP JUMPDEST PUSH0 PUSH2 0x2950 PUSH1 0xE DUP4 PUSH2 0x290C JUMP JUMPDEST SWAP2 POP PUSH2 0x295B DUP3 PUSH2 0x291C JUMP JUMPDEST PUSH1 0x20 DUP3 ADD SWAP1 POP SWAP2 SWAP1 POP JUMP JUMPDEST PUSH0 PUSH1 0x20 DUP3 ADD SWAP1 POP DUP2 DUP2 SUB PUSH0 DUP4 ADD MSTORE PUSH2 0x297D DUP2 PUSH2 0x2944 JUMP JUMPDEST SWAP1 POP SWAP2 SWAP1 POP JUMP JUMPDEST PUSH32 0x4E487B7100000000000000000000000000000000000000000000000000000000 PUSH0 MSTORE PUSH1 0x32 PUSH1 0x4 MSTORE PUSH1 0x24 PUSH0 REVERT JUMPDEST PUSH32 0x4E487B7100000000000000000000000000000000000000000000000000000000 PUSH0 MSTORE PUSH1 0x11 PUSH1 0x4 MSTORE PUSH1 0x24 PUSH0 REVERT JUMPDEST PUSH0 PUSH2 0x29E8 DUP3 PUSH2 0x258D JUMP JUMPDEST SWAP2 POP PUSH2 0x29F3 DUP4 PUSH2 0x258D JUMP JUMPDEST SWAP3 POP DUP3 DUP3 SUB SWAP1 POP DUP2 DUP2 GT ISZERO PUSH2 0x2A0B JUMPI PUSH2 0x2A0A PUSH2 0x29B1 JUMP JUMPDEST JUMPDEST SWAP3 SWAP2 POP POP JUMP JUMPDEST PUSH0 PUSH2 0x2A1B DUP3 PUSH2 0x258D JUMP JUMPDEST SWAP2 POP PUSH2 0x2A26 DUP4 PUSH2 0x258D JUMP JUMPDEST SWAP3 POP DUP3 DUP3 ADD SWAP1 POP DUP1 DUP3 GT ISZERO PUSH2 0x2A3E JUMPI PUSH2 0x2A3D PUSH2 0x29B1 JUMP JUMPDEST JUMPDEST SWAP3 SWAP2 POP POP JUMP JUMPDEST PUSH32 0x5374616B696E6720706572696F64206E6F742079657420656E64656400000000 PUSH0 DUP3 ADD MSTORE POP JUMP JUMPDEST PUSH0 PUSH2 0x2A78 PUSH1 0x1C DUP4 PUSH2 0x290C JUMP JUMPDEST SWAP2 POP PUSH2 0x2A83 DUP3 PUSH2 0x2A44 JUMP JUMPDEST PUSH1 0x20 DUP3 ADD SWAP1 POP SWAP2 SWAP1 POP JUMP JUMPDEST PUSH0 PUSH1 0x20 DUP3 ADD SWAP1 POP DUP2 DUP2 SUB PUSH0 DUP4 ADD MSTORE PUSH2 0x2AA5 DUP2 PUSH2 0x2A6C JUMP JUMPDEST SWAP1 POP SWAP2 SWAP1 POP JUMP JUMPDEST PUSH32 0x77697468647261773A206E6F7420676F6F640000000000000000000000000000 PUSH0 DUP3 ADD MSTORE POP JUMP JUMPDEST PUSH0 PUSH2 0x2AE0 PUSH1 0x12 DUP4 PUSH2 0x290C JUMP JUMPDEST SWAP2 POP PUSH2 0x2AEB DUP3 PUSH2 0x2AAC JUMP JUMPDEST PUSH1 0x20 DUP3 ADD SWAP1 POP SWAP2 SWAP1 POP JUMP JUMPDEST PUSH0 PUSH1 0x20 DUP3 ADD SWAP1 POP DUP2 DUP2 SUB PUSH0 DUP4 ADD MSTORE PUSH2 0x2B0D DUP2 PUSH2 0x2AD4 JUMP JUMPDEST SWAP1 POP SWAP2 SWAP1 POP JUMP JUMPDEST PUSH0 PUSH1 0x40 DUP3 ADD SWAP1 POP PUSH2 0x2B27 PUSH0 DUP4 ADD DUP6 PUSH2 0x27D2 JUMP JUMPDEST PUSH2 0x2B34 PUSH1 0x20 DUP4 ADD DUP5 PUSH2 0x2596 JUMP JUMPDEST SWAP4 SWAP3 POP POP POP JUMP JUMPDEST PUSH0 DUP2 ISZERO ISZERO SWAP1 POP SWAP2 SWAP1 POP JUMP JUMPDEST PUSH2 0x2B4F DUP2 PUSH2 0x2B3B JUMP JUMPDEST DUP2 EQ PUSH2 0x2B59 JUMPI PUSH0 DUP1 REVERT JUMPDEST POP JUMP JUMPDEST PUSH0 DUP2 MLOAD SWAP1 POP PUSH2 0x2B6A DUP2 PUSH2 0x2B46 JUMP JUMPDEST SWAP3 SWAP2 POP POP JUMP JUMPDEST PUSH0 PUSH1 0x20 DUP3 DUP5 SUB SLT ISZERO PUSH2 0x2B85 JUMPI PUSH2 0x2B84 PUSH2 0x25BE JUMP JUMPDEST JUMPDEST PUSH0 PUSH2 0x2B92 DUP5 DUP3 DUP6 ADD PUSH2 0x2B5C JUMP JUMPDEST SWAP2 POP POP SWAP3 SWAP2 POP POP JUMP JUMPDEST PUSH0 PUSH2 0x2BA5 DUP3 PUSH2 0x258D JUMP JUMPDEST SWAP2 POP PUSH2 0x2BB0 DUP4 PUSH2 0x258D JUMP JUMPDEST SWAP3 POP DUP3 DUP3 MUL PUSH2 0x2BBE DUP2 PUSH2 0x258D JUMP JUMPDEST SWAP2 POP DUP3 DUP3 DIV DUP5 EQ DUP4 ISZERO OR PUSH2 0x2BD5 JUMPI PUSH2 0x2BD4 PUSH2 0x29B1 JUMP JUMPDEST JUMPDEST POP SWAP3 SWAP2 POP POP JUMP JUMPDEST PUSH32 0x4E487B7100000000000000000000000000000000000000000000000000000000 PUSH0 MSTORE PUSH1 0x12 PUSH1 0x4 MSTORE PUSH1 0x24 PUSH0 REVERT JUMPDEST PUSH0 PUSH2 0x2C13 DUP3 PUSH2 0x258D JUMP JUMPDEST SWAP2 POP PUSH2 0x2C1E DUP4 PUSH2 0x258D JUMP JUMPDEST SWAP3 POP DUP3 PUSH2 0x2C2E JUMPI PUSH2 0x2C2D PUSH2 0x2BDC JUMP JUMPDEST JUMPDEST DUP3 DUP3 DIV SWAP1 POP SWAP3 SWAP2 POP POP JUMP JUMPDEST PUSH0 DUP2 MLOAD SWAP1 POP PUSH2 0x2C47 DUP2 PUSH2 0x25C2 JUMP JUMPDEST SWAP3 SWAP2 POP POP JUMP JUMPDEST PUSH0 PUSH1 0x20 DUP3 DUP5 SUB SLT ISZERO PUSH2 0x2C62 JUMPI PUSH2 0x2C61 PUSH2 0x25BE JUMP JUMPDEST JUMPDEST PUSH0 PUSH2 0x2C6F DUP5 DUP3 DUP6 ADD PUSH2 0x2C39 JUMP JUMPDEST SWAP2 POP POP SWAP3 SWAP2 POP POP JUMP JUMPDEST PUSH0 PUSH2 0x2C82 DUP3 PUSH2 0x258D JUMP JUMPDEST SWAP2 POP PUSH32 0xFFFFFFFFFFFFFFFFFFFFFFFFFFFFFFFFFFFFFFFFFFFFFFFFFFFFFFFFFFFFFFFF DUP3 SUB PUSH2 0x2CB4 JUMPI PUSH2 0x2CB3 PUSH2 0x29B1 JUMP JUMPDEST JUMPDEST PUSH1 0x1 DUP3 ADD SWAP1 POP SWAP2 SWAP1 POP JUMP JUMPDEST PUSH32 0x4D61782070657220626C6F636B2031303020424E430000000000000000000000 PUSH0 DUP3 ADD MSTORE POP JUMP JUMPDEST PUSH0 PUSH2 0x2CF3 PUSH1 0x15 DUP4 PUSH2 0x290C JUMP JUMPDEST SWAP2 POP PUSH2 0x2CFE DUP3 PUSH2 0x2CBF JUMP JUMPDEST PUSH1 0x20 DUP3 ADD SWAP1 POP SWAP2 SWAP1 POP JUMP JUMPDEST PUSH0 PUSH1 0x20 DUP3 ADD SWAP1 POP DUP2 DUP2 SUB PUSH0 DUP4 ADD MSTORE PUSH2 0x2D20 DUP2 PUSH2 0x2CE7 JUMP JUMPDEST SWAP1 POP SWAP2 SWAP1 POP JUMP JUMPDEST PUSH32 0x4D696E2070657220626C6F636B20302E30303120424E43000000000000000000 PUSH0 DUP3 ADD MSTORE POP JUMP JUMPDEST PUSH0 PUSH2 0x2D5B PUSH1 0x17 DUP4 PUSH2 0x290C JUMP JUMPDEST SWAP2 POP PUSH2 0x2D66 DUP3 PUSH2 0x2D27 JUMP JUMPDEST PUSH1 0x20 DUP3 ADD SWAP1 POP SWAP2 SWAP1 POP JUMP JUMPDEST PUSH0 PUSH1 0x20 DUP3 ADD SWAP1 POP DUP2 DUP2 SUB PUSH0 DUP4 ADD MSTORE PUSH2 0x2D88 DUP2 PUSH2 0x2D4F JUMP JUMPDEST SWAP1 POP SWAP2 SWAP1 POP JUMP JUMPDEST PUSH32 0x50657263656E742053756D000000000000000000000000000000000000000000 PUSH0 DUP3 ADD MSTORE POP JUMP JUMPDEST PUSH0 PUSH2 0x2DC3 PUSH1 0xB DUP4 PUSH2 0x290C JUMP JUMPDEST SWAP2 POP PUSH2 0x2DCE DUP3 PUSH2 0x2D8F JUMP JUMPDEST PUSH1 0x20 DUP3 ADD SWAP1 POP SWAP2 SWAP1 POP JUMP JUMPDEST PUSH0 PUSH1 0x20 DUP3 ADD SWAP1 POP DUP2 DUP2 SUB PUSH0 DUP4 ADD MSTORE PUSH2 0x2DF0 DUP2 PUSH2 0x2DB7 JUMP JUMPDEST SWAP1 POP SWAP2 SWAP1 POP JUMP JUMPDEST PUSH0 PUSH1 0x40 DUP3 ADD SWAP1 POP PUSH2 0x2E0A PUSH0 DUP4 ADD DUP6 PUSH2 0x2596 JUMP JUMPDEST PUSH2 0x2E17 PUSH1 0x20 DUP4 ADD DUP5 PUSH2 0x2596 JUMP JUMPDEST SWAP4 SWAP3 POP POP POP JUMP JUMPDEST PUSH32 0x456E642054696D65206D75737420626520696E20746865206675747572650000 PUSH0 DUP3 ADD MSTORE POP JUMP JUMPDEST PUSH0 PUSH2 0x2E52 PUSH1 0x1E DUP4 PUSH2 0x290C JUMP JUMPDEST SWAP2 POP PUSH2 0x2E5D DUP3 PUSH2 0x2E1E JUMP JUMPDEST PUSH1 0x20 DUP3 ADD SWAP1 POP SWAP2 SWAP1 POP JUMP JUMPDEST PUSH0 PUSH1 0x20 DUP3 ADD SWAP1 POP DUP2 DUP2 SUB PUSH0 DUP4 ADD MSTORE PUSH2 0x2E7F DUP2 PUSH2 0x2E46 JUMP JUMPDEST SWAP1 POP SWAP2 SWAP1 POP JUMP JUMPDEST PUSH32 0x7761697420666F72206E657720626C6F636B0000000000000000000000000000 PUSH0 DUP3 ADD MSTORE POP JUMP JUMPDEST PUSH0 PUSH2 0x2EBA PUSH1 0x12 DUP4 PUSH2 0x290C JUMP JUMPDEST SWAP2 POP PUSH2 0x2EC5 DUP3 PUSH2 0x2E86 JUMP JUMPDEST PUSH1 0x20 DUP3 ADD SWAP1 POP SWAP2 SWAP1 POP JUMP JUMPDEST PUSH0 PUSH1 0x20 DUP3 ADD SWAP1 POP DUP2 DUP2 SUB PUSH0 DUP4 ADD MSTORE PUSH2 0x2EE7 DUP2 PUSH2 0x2EAE JUMP JUMPDEST SWAP1 POP SWAP2 SWAP1 POP JUMP JUMPDEST PUSH32 0x5A65726F00000000000000000000000000000000000000000000000000000000 PUSH0 DUP3 ADD MSTORE POP JUMP JUMPDEST PUSH0 PUSH2 0x2F22 PUSH1 0x4 DUP4 PUSH2 0x290C JUMP JUMPDEST SWAP2 POP PUSH2 0x2F2D DUP3 PUSH2 0x2EEE JUMP JUMPDEST PUSH1 0x20 DUP3 ADD SWAP1 POP SWAP2 SWAP1 POP JUMP JUMPDEST PUSH0 PUSH1 0x20 DUP3 ADD SWAP1 POP DUP2 DUP2 SUB PUSH0 DUP4 ADD MSTORE PUSH2 0x2F4F DUP2 PUSH2 0x2F16 JUMP JUMPDEST SWAP1 POP SWAP2 SWAP1 POP JUMP JUMPDEST PUSH0 PUSH1 0x60 DUP3 ADD SWAP1 POP PUSH2 0x2F69 PUSH0 DUP4 ADD DUP7 PUSH2 0x27D2 JUMP JUMPDEST PUSH2 0x2F76 PUSH1 0x20 DUP4 ADD DUP6 PUSH2 0x27D2 JUMP JUMPDEST PUSH2 0x2F83 PUSH1 0x40 DUP4 ADD DUP5 PUSH2 0x2596 JUMP JUMPDEST SWAP5 SWAP4 POP POP POP POP JUMP JUMPDEST PUSH32 0x4E487B7100000000000000000000000000000000000000000000000000000000 PUSH0 MSTORE PUSH1 0x31 PUSH1 0x4 MSTORE PUSH1 0x24 PUSH0 REVERT JUMPDEST PUSH32 0x706F6F6C20657869737465640000000000000000000000000000000000000000 PUSH0 DUP3 ADD MSTORE POP JUMP JUMPDEST PUSH0 PUSH2 0x2FEC PUSH1 0xC DUP4 PUSH2 0x290C JUMP JUMPDEST SWAP2 POP PUSH2 0x2FF7 DUP3 PUSH2 0x2FB8 JUMP JUMPDEST PUSH1 0x20 DUP3 ADD SWAP1 POP SWAP2 SWAP1 POP JUMP JUMPDEST PUSH0 PUSH1 0x20 DUP3 ADD SWAP1 POP DUP2 DUP2 SUB PUSH0 DUP4 ADD MSTORE PUSH2 0x3019 DUP2 PUSH2 0x2FE0 JUMP JUMPDEST SWAP1 POP SWAP2 SWAP1 POP JUMP INVALID LOG2 PUSH5 0x6970667358 0x22 SLT KECCAK256 0x4E 0xB9 LOG1 0xB5 ADDRESS SWAP2 PUSH13 0x30B29911646B9CFAFD12ED608D PUSH26 0xEC5883072E3C33D8BA179C64736F6C6343000814003300000000 "
		},
		"gasEstimates": {
			"creation": {
				"codeDepositCost": "2474800",
				"executionCost": "infinite",
				"totalCost": "infinite"
			},
			"external": {
				"BNC()": "infinite",
				"BNCPerBlock()": "2492",
				"BONUS_MULTIPLIER()": "2536",
				"addStakingPool(uint256,address)": "infinite",
				"claimBNC(uint256)": "infinite",
				"data()": "infinite",
				"deposit(uint256,uint256)": "infinite",
				"dev0Addr()": "2574",
				"dev0Percent()": "2536",
				"emergencyWithdraw(uint256)": "infinite",
				"getMultiplier(uint256,uint256)": "infinite",
				"lastBlockDevWithdraw()": "2514",
				"massUpdatePools()": "infinite",
				"owner()": "2561",
				"pendingBNC(uint256,address)": "infinite",
				"percentDec()": "2471",
				"poolInfo(uint256)": "infinite",
				"poolLength()": "2487",
				"renounceOwnership()": "infinite",
				"set(uint256,uint256)": "infinite",
				"setDevAddress(address)": "infinite",
				"setPercent(uint256,uint256)": "infinite",
				"setStakingEndDays(uint256,uint256)": "infinite",
				"stakingPercent()": "2470",
				"startBlock()": "2515",
				"totalAllocPoint()": "2516",
				"transferOwnership(address)": "infinite",
				"updateBNCPerBlock(uint256)": "infinite",
				"updatePool(uint256)": "infinite",
				"userInfo(uint256,address)": "infinite",
				"withdraw(uint256,uint256)": "infinite",
				"withdrawDevFee()": "infinite"
			},
			"internal": {
				"_checkPoolDuplicate(contract IERC20)": "infinite",
				"_removeUserFromStakingUsers(uint256,address)": "infinite",
				"addPendingBNC(uint256,address)": "infinite",
				"distributeRewards(uint256,uint256,uint256)": "infinite",
				"safeBNCTransfer(address,uint256)": "infinite"
			}
		},
		"methodIdentifiers": {
			"BNC()": "f29588c7",
			"BNCPerBlock()": "c6a37cb8",
			"BONUS_MULTIPLIER()": "8aa28550",
			"addStakingPool(uint256,address)": "9586712a",
			"claimBNC(uint256)": "8a50bb36",
			"data()": "73d4a13a",
			"deposit(uint256,uint256)": "e2bbb158",
			"dev0Addr()": "e88e0e3a",
			"dev0Percent()": "bd62a7d9",
			"emergencyWithdraw(uint256)": "5312ea8e",
			"getMultiplier(uint256,uint256)": "8dbb1e3a",
			"lastBlockDevWithdraw()": "b76e360c",
			"massUpdatePools()": "630b5ba1",
			"owner()": "8da5cb5b",
			"pendingBNC(uint256,address)": "4e0f4e9f",
			"percentDec()": "21b1aecb",
			"poolInfo(uint256)": "1526fe27",
			"poolLength()": "081e3eda",
			"renounceOwnership()": "715018a6",
			"set(uint256,uint256)": "1ab06ee5",
			"setDevAddress(address)": "d0d41fe1",
			"setPercent(uint256,uint256)": "a5981e7b",
			"setStakingEndDays(uint256,uint256)": "abb76268",
			"stakingPercent()": "be1193ea",
			"startBlock()": "48cd4cb1",
			"totalAllocPoint()": "17caf6f1",
			"transferOwnership(address)": "f2fde38b",
			"updateBNCPerBlock(uint256)": "7709fc4b",
			"updatePool(uint256)": "51eb05a6",
			"userInfo(uint256,address)": "93f1a40b",
			"withdraw(uint256,uint256)": "441a3e70",
			"withdrawDevFee()": "cb93f7ef"
		}
	},
	"abi": [
		{
			"inputs": [
				{
					"internalType": "address",
					"name": "_BNCToken",
					"type": "address"
				},
				{
					"internalType": "address",
					"name": "_data",
					"type": "address"
				},
				{
					"internalType": "address",
					"name": "_dev0Addr",
					"type": "address"
				},
				{
					"internalType": "uint256",
					"name": "_dev0Percent",
					"type": "uint256"
				},
				{
					"internalType": "uint256",
					"name": "_stakingPercent",
					"type": "uint256"
				},
				{
					"internalType": "uint256",
					"name": "_BNCPerBlock",
					"type": "uint256"
				},
				{
					"internalType": "uint256",
					"name": "_startBlock",
					"type": "uint256"
				},
				{
					"internalType": "address",
					"name": "_initialOwner",
					"type": "address"
				}
			],
			"stateMutability": "nonpayable",
			"type": "constructor"
		},
		{
			"inputs": [
				{
					"internalType": "address",
					"name": "owner",
					"type": "address"
				}
			],
			"name": "OwnableInvalidOwner",
			"type": "error"
		},
		{
			"inputs": [
				{
					"internalType": "address",
					"name": "account",
					"type": "address"
				}
			],
			"name": "OwnableUnauthorizedAccount",
			"type": "error"
		},
		{
			"inputs": [],
			"name": "ReentrancyGuardReentrantCall",
			"type": "error"
		},
		{
			"anonymous": false,
			"inputs": [
				{
					"indexed": true,
					"internalType": "address",
					"name": "user",
					"type": "address"
				},
				{
					"indexed": true,
					"internalType": "uint256",
					"name": "pid",
					"type": "uint256"
				},
				{
					"indexed": false,
					"internalType": "uint256",
					"name": "amount",
					"type": "uint256"
				}
			],
			"name": "ClaimBNC",
			"type": "event"
		},
		{
			"anonymous": false,
			"inputs": [
				{
					"indexed": true,
					"internalType": "address",
					"name": "user",
					"type": "address"
				},
				{
					"indexed": true,
					"internalType": "uint256",
					"name": "pid",
					"type": "uint256"
				},
				{
					"indexed": false,
					"internalType": "uint256",
					"name": "amount",
					"type": "uint256"
				}
			],
			"name": "Deposit",
			"type": "event"
		},
		{
			"anonymous": false,
			"inputs": [
				{
					"indexed": false,
					"internalType": "uint256",
					"name": "_pid",
					"type": "uint256"
				},
				{
					"indexed": false,
					"internalType": "uint256",
					"name": "pendingReward",
					"type": "uint256"
				},
				{
					"indexed": false,
					"internalType": "uint256",
					"name": "totalStaked",
					"type": "uint256"
				}
			],
			"name": "DistributeRewards",
			"type": "event"
		},
		{
			"anonymous": false,
			"inputs": [
				{
					"indexed": true,
					"internalType": "address",
					"name": "user",
					"type": "address"
				},
				{
					"indexed": true,
					"internalType": "uint256",
					"name": "pid",
					"type": "uint256"
				},
				{
					"indexed": false,
					"internalType": "uint256",
					"name": "amount",
					"type": "uint256"
				}
			],
			"name": "EmergencyWithdraw",
			"type": "event"
		},
		{
			"anonymous": false,
			"inputs": [
				{
					"indexed": true,
					"internalType": "address",
					"name": "previousOwner",
					"type": "address"
				},
				{
					"indexed": true,
					"internalType": "address",
					"name": "newOwner",
					"type": "address"
				}
			],
			"name": "OwnershipTransferred",
			"type": "event"
		},
		{
			"anonymous": false,
			"inputs": [
				{
					"indexed": true,
					"internalType": "address",
					"name": "dev0Addr",
					"type": "address"
				}
			],
			"name": "SetDev0Address",
			"type": "event"
		},
		{
			"anonymous": false,
			"inputs": [
				{
					"indexed": false,
					"internalType": "uint256",
					"name": "stakingPercent",
					"type": "uint256"
				},
				{
					"indexed": false,
					"internalType": "uint256",
					"name": "dev0Percent",
					"type": "uint256"
				}
			],
			"name": "SetPercent",
			"type": "event"
		},
		{
			"anonymous": false,
			"inputs": [
				{
					"indexed": false,
					"internalType": "uint256",
					"name": "BNCPerBlock",
					"type": "uint256"
				}
			],
			"name": "UpdateBNCPerBlock",
			"type": "event"
		},
		{
			"anonymous": false,
			"inputs": [
				{
					"indexed": true,
					"internalType": "address",
					"name": "user",
					"type": "address"
				},
				{
					"indexed": true,
					"internalType": "uint256",
					"name": "pid",
					"type": "uint256"
				},
				{
					"indexed": false,
					"internalType": "uint256",
					"name": "amount",
					"type": "uint256"
				}
			],
			"name": "Withdraw",
			"type": "event"
		},
		{
			"inputs": [],
			"name": "BNC",
			"outputs": [
				{
					"internalType": "contract WBNC",
					"name": "",
					"type": "address"
				}
			],
			"stateMutability": "view",
			"type": "function"
		},
		{
			"inputs": [],
			"name": "BNCPerBlock",
			"outputs": [
				{
					"internalType": "uint256",
					"name": "",
					"type": "uint256"
				}
			],
			"stateMutability": "view",
			"type": "function"
		},
		{
			"inputs": [],
			"name": "BONUS_MULTIPLIER",
			"outputs": [
				{
					"internalType": "uint256",
					"name": "",
					"type": "uint256"
				}
			],
			"stateMutability": "view",
			"type": "function"
		},
		{
			"inputs": [
				{
					"internalType": "uint256",
					"name": "_allocPoint",
					"type": "uint256"
				},
				{
					"internalType": "contract IERC20",
					"name": "_lpToken",
					"type": "address"
				}
			],
			"name": "addStakingPool",
			"outputs": [],
			"stateMutability": "nonpayable",
			"type": "function"
		},
		{
			"inputs": [
				{
					"internalType": "uint256",
					"name": "_pid",
					"type": "uint256"
				}
			],
			"name": "claimBNC",
			"outputs": [],
			"stateMutability": "nonpayable",
			"type": "function"
		},
		{
			"inputs": [],
			"name": "data",
			"outputs": [
				{
					"internalType": "contract Data",
					"name": "",
					"type": "address"
				}
			],
			"stateMutability": "view",
			"type": "function"
		},
		{
			"inputs": [
				{
					"internalType": "uint256",
					"name": "_pid",
					"type": "uint256"
				},
				{
					"internalType": "uint256",
					"name": "_amount",
					"type": "uint256"
				}
			],
			"name": "deposit",
			"outputs": [],
			"stateMutability": "nonpayable",
			"type": "function"
		},
		{
			"inputs": [],
			"name": "dev0Addr",
			"outputs": [
				{
					"internalType": "address",
					"name": "",
					"type": "address"
				}
			],
			"stateMutability": "view",
			"type": "function"
		},
		{
			"inputs": [],
			"name": "dev0Percent",
			"outputs": [
				{
					"internalType": "uint256",
					"name": "",
					"type": "uint256"
				}
			],
			"stateMutability": "view",
			"type": "function"
		},
		{
			"inputs": [
				{
					"internalType": "uint256",
					"name": "_pid",
					"type": "uint256"
				}
			],
			"name": "emergencyWithdraw",
			"outputs": [],
			"stateMutability": "nonpayable",
			"type": "function"
		},
		{
			"inputs": [
				{
					"internalType": "uint256",
					"name": "_from",
					"type": "uint256"
				},
				{
					"internalType": "uint256",
					"name": "_to",
					"type": "uint256"
				}
			],
			"name": "getMultiplier",
			"outputs": [
				{
					"internalType": "uint256",
					"name": "",
					"type": "uint256"
				}
			],
			"stateMutability": "view",
			"type": "function"
		},
		{
			"inputs": [],
			"name": "lastBlockDevWithdraw",
			"outputs": [
				{
					"internalType": "uint256",
					"name": "",
					"type": "uint256"
				}
			],
			"stateMutability": "view",
			"type": "function"
		},
		{
			"inputs": [],
			"name": "massUpdatePools",
			"outputs": [],
			"stateMutability": "nonpayable",
			"type": "function"
		},
		{
			"inputs": [],
			"name": "owner",
			"outputs": [
				{
					"internalType": "address",
					"name": "",
					"type": "address"
				}
			],
			"stateMutability": "view",
			"type": "function"
		},
		{
			"inputs": [
				{
					"internalType": "uint256",
					"name": "_pid",
					"type": "uint256"
				},
				{
					"internalType": "address",
					"name": "_user",
					"type": "address"
				}
			],
			"name": "pendingBNC",
			"outputs": [
				{
					"internalType": "uint256",
					"name": "",
					"type": "uint256"
				}
			],
			"stateMutability": "view",
			"type": "function"
		},
		{
			"inputs": [],
			"name": "percentDec",
			"outputs": [
				{
					"internalType": "uint256",
					"name": "",
					"type": "uint256"
				}
			],
			"stateMutability": "view",
			"type": "function"
		},
		{
			"inputs": [
				{
					"internalType": "uint256",
					"name": "",
					"type": "uint256"
				}
			],
			"name": "poolInfo",
			"outputs": [
				{
					"internalType": "contract IERC20",
					"name": "lpToken",
					"type": "address"
				},
				{
					"internalType": "uint256",
					"name": "allocPoint",
					"type": "uint256"
				},
				{
					"internalType": "uint256",
					"name": "lastRewardBlock",
					"type": "uint256"
				},
				{
					"internalType": "uint256",
					"name": "accBNCPerShare",
					"type": "uint256"
				},
				{
					"internalType": "uint256",
					"name": "stakingEndTime",
					"type": "uint256"
				}
			],
			"stateMutability": "view",
			"type": "function"
		},
		{
			"inputs": [],
			"name": "poolLength",
			"outputs": [
				{
					"internalType": "uint256",
					"name": "",
					"type": "uint256"
				}
			],
			"stateMutability": "view",
			"type": "function"
		},
		{
			"inputs": [],
			"name": "renounceOwnership",
			"outputs": [],
			"stateMutability": "nonpayable",
			"type": "function"
		},
		{
			"inputs": [
				{
					"internalType": "uint256",
					"name": "_pid",
					"type": "uint256"
				},
				{
					"internalType": "uint256",
					"name": "_allocPoint",
					"type": "uint256"
				}
			],
			"name": "set",
			"outputs": [],
			"stateMutability": "nonpayable",
			"type": "function"
		},
		{
			"inputs": [
				{
					"internalType": "address",
					"name": "_dev0Addr",
					"type": "address"
				}
			],
			"name": "setDevAddress",
			"outputs": [],
			"stateMutability": "nonpayable",
			"type": "function"
		},
		{
			"inputs": [
				{
					"internalType": "uint256",
					"name": "_stakingPercent",
					"type": "uint256"
				},
				{
					"internalType": "uint256",
					"name": "_dev0Percent",
					"type": "uint256"
				}
			],
			"name": "setPercent",
			"outputs": [],
			"stateMutability": "nonpayable",
			"type": "function"
		},
		{
			"inputs": [
				{
					"internalType": "uint256",
					"name": "_pid",
					"type": "uint256"
				},
				{
					"internalType": "uint256",
					"name": "_days",
					"type": "uint256"
				}
			],
			"name": "setStakingEndDays",
			"outputs": [],
			"stateMutability": "nonpayable",
			"type": "function"
		},
		{
			"inputs": [],
			"name": "stakingPercent",
			"outputs": [
				{
					"internalType": "uint256",
					"name": "",
					"type": "uint256"
				}
			],
			"stateMutability": "view",
			"type": "function"
		},
		{
			"inputs": [],
			"name": "startBlock",
			"outputs": [
				{
					"internalType": "uint256",
					"name": "",
					"type": "uint256"
				}
			],
			"stateMutability": "view",
			"type": "function"
		},
		{
			"inputs": [],
			"name": "totalAllocPoint",
			"outputs": [
				{
					"internalType": "uint256",
					"name": "",
					"type": "uint256"
				}
			],
			"stateMutability": "view",
			"type": "function"
		},
		{
			"inputs": [
				{
					"internalType": "address",
					"name": "newOwner",
					"type": "address"
				}
			],
			"name": "transferOwnership",
			"outputs": [],
			"stateMutability": "nonpayable",
			"type": "function"
		},
		{
			"inputs": [
				{
					"internalType": "uint256",
					"name": "newAmount",
					"type": "uint256"
				}
			],
			"name": "updateBNCPerBlock",
			"outputs": [],
			"stateMutability": "nonpayable",
			"type": "function"
		},
		{
			"inputs": [
				{
					"internalType": "uint256",
					"name": "_pid",
					"type": "uint256"
				}
			],
			"name": "updatePool",
			"outputs": [],
			"stateMutability": "nonpayable",
			"type": "function"
		},
		{
			"inputs": [
				{
					"internalType": "uint256",
					"name": "",
					"type": "uint256"
				},
				{
					"internalType": "address",
					"name": "",
					"type": "address"
				}
			],
			"name": "userInfo",
			"outputs": [
				{
					"internalType": "uint256",
					"name": "amount",
					"type": "uint256"
				},
				{
					"internalType": "uint256",
					"name": "exactRewardCal",
					"type": "uint256"
				},
				{
					"internalType": "uint256",
					"name": "pendingReward",
					"type": "uint256"
				}
			],
			"stateMutability": "view",
			"type": "function"
		},
		{
			"inputs": [
				{
					"internalType": "uint256",
					"name": "_pid",
					"type": "uint256"
				},
				{
					"internalType": "uint256",
					"name": "_amount",
					"type": "uint256"
				}
			],
			"name": "withdraw",
			"outputs": [],
			"stateMutability": "nonpayable",
			"type": "function"
		},
		{
			"inputs": [],
			"name": "withdrawDevFee",
			"outputs": [],
			"stateMutability": "nonpayable",
			"type": "function"
		}
	]
}