{
  "_format": "hh-sol-artifact-1",
  "contractName": "WBNC",
  "sourceName": "contracts/contract/WBNC.sol",
  "abi": [
    {
      "inputs": [
        {
          "internalType": "string",
          "name": "_name",
          "type": "string"
        },
        {
          "internalType": "string",
          "name": "_symbol",
          "type": "string"
        },
        {
          "internalType": "string",
          "name": "_uri",
          "type": "string"
        }
      ],
      "stateMutability": "nonpayable",
      "type": "constructor"
    },
    {
      "anonymous": false,
      "inputs": [
        {
          "indexed": true,
          "internalType": "address",
          "name": "owner",
          "type": "address"
        },
        {
          "indexed": true,
          "internalType": "address",
          "name": "spender",
          "type": "address"
        },
        {
          "indexed": false,
          "internalType": "uint256",
          "name": "value",
          "type": "uint256"
        }
      ],
      "name": "Approval",
      "type": "event"
    },
    {
      "anonymous": false,
      "inputs": [
        {
          "indexed": true,
          "internalType": "address",
          "name": "from",
          "type": "address"
        },
        {
          "indexed": false,
          "internalType": "uint256",
          "name": "amount",
          "type": "uint256"
        }
      ],
      "name": "Deposit",
      "type": "event"
    },
    {
      "anonymous": false,
      "inputs": [
        {
          "indexed": true,
          "internalType": "address",
          "name": "from",
          "type": "address"
        },
        {
          "indexed": true,
          "internalType": "address",
          "name": "to",
          "type": "address"
        },
        {
          "indexed": false,
          "internalType": "uint256",
          "name": "value",
          "type": "uint256"
        }
      ],
      "name": "Transfer",
      "type": "event"
    },
    {
      "anonymous": false,
      "inputs": [
        {
          "indexed": true,
          "internalType": "address",
          "name": "to",
          "type": "address"
        },
        {
          "indexed": false,
          "internalType": "uint256",
          "name": "amount",
          "type": "uint256"
        }
      ],
      "name": "Withdrawal",
      "type": "event"
    },
    {
      "inputs": [
        {
          "internalType": "address",
          "name": "owner",
          "type": "address"
        },
        {
          "internalType": "uint256",
          "name": "amount",
          "type": "uint256"
        }
      ],
      "name": "_burn",
      "outputs": [],
      "stateMutability": "nonpayable",
      "type": "function"
    },
    {
      "inputs": [
        {
          "internalType": "address",
          "name": "to",
          "type": "address"
        },
        {
          "internalType": "uint256",
          "name": "amount",
          "type": "uint256"
        }
      ],
      "name": "_mint",
      "outputs": [],
      "stateMutability": "nonpayable",
      "type": "function"
    },
    {
      "inputs": [
        {
          "internalType": "address",
          "name": "owner",
          "type": "address"
        },
        {
          "internalType": "address",
          "name": "spender",
          "type": "address"
        }
      ],
      "name": "allowance",
      "outputs": [
        {
          "internalType": "uint256",
          "name": "",
          "type": "uint256"
        }
      ],
      "stateMutability": "view",
      "type": "function"
    },
    {
      "inputs": [
        {
          "internalType": "address",
          "name": "",
          "type": "address"
        },
        {
          "internalType": "address",
          "name": "",
          "type": "address"
        }
      ],
      "name": "allowances",
      "outputs": [
        {
          "internalType": "uint256",
          "name": "",
          "type": "uint256"
        }
      ],
      "stateMutability": "view",
      "type": "function"
    },
    {
      "inputs": [
        {
          "internalType": "address",
          "name": "spender",
          "type": "address"
        },
        {
          "internalType": "uint256",
          "name": "amount",
          "type": "uint256"
        }
      ],
      "name": "approve",
      "outputs": [
        {
          "internalType": "bool",
          "name": "",
          "type": "bool"
        }
      ],
      "stateMutability": "nonpayable",
      "type": "function"
    },
    {
      "inputs": [
        {
          "internalType": "address",
          "name": "account",
          "type": "address"
        }
      ],
      "name": "balanceOf",
      "outputs": [
        {
          "internalType": "uint256",
          "name": "",
          "type": "uint256"
        }
      ],
      "stateMutability": "view",
      "type": "function"
    },
    {
      "inputs": [
        {
          "internalType": "address",
          "name": "",
          "type": "address"
        }
      ],
      "name": "balances",
      "outputs": [
        {
          "internalType": "uint256",
          "name": "",
          "type": "uint256"
        }
      ],
      "stateMutability": "view",
      "type": "function"
    },
    {
      "inputs": [
        {
          "internalType": "uint256",
          "name": "value",
          "type": "uint256"
        }
      ],
      "name": "deposit",
      "outputs": [],
      "stateMutability": "payable",
      "type": "function"
    },
    {
      "inputs": [],
      "name": "name",
      "outputs": [
        {
          "internalType": "string",
          "name": "",
          "type": "string"
        }
      ],
      "stateMutability": "view",
      "type": "function"
    },
    {
      "inputs": [],
      "name": "symbol",
      "outputs": [
        {
          "internalType": "string",
          "name": "",
          "type": "string"
        }
      ],
      "stateMutability": "view",
      "type": "function"
    },
    {
      "inputs": [
        {
          "internalType": "string",
          "name": "_imageUri",
          "type": "string"
        }
      ],
      "name": "tokenURI",
      "outputs": [
        {
          "internalType": "string",
          "name": "",
          "type": "string"
        }
      ],
      "stateMutability": "pure",
      "type": "function"
    },
    {
      "inputs": [],
      "name": "totalSupply",
      "outputs": [
        {
          "internalType": "uint256",
          "name": "",
          "type": "uint256"
        }
      ],
      "stateMutability": "view",
      "type": "function"
    },
    {
      "inputs": [
        {
          "internalType": "address",
          "name": "to",
          "type": "address"
        },
        {
          "internalType": "uint256",
          "name": "amount",
          "type": "uint256"
        }
      ],
      "name": "transfer",
      "outputs": [
        {
          "internalType": "bool",
          "name": "",
          "type": "bool"
        }
      ],
      "stateMutability": "nonpayable",
      "type": "function"
    },
    {
      "inputs": [
        {
          "internalType": "address",
          "name": "from",
          "type": "address"
        },
        {
          "internalType": "address",
          "name": "to",
          "type": "address"
        },
        {
          "internalType": "uint256",
          "name": "value",
          "type": "uint256"
        }
      ],
      "name": "transferFrom",
      "outputs": [
        {
          "internalType": "bool",
          "name": "",
          "type": "bool"
        }
      ],
      "stateMutability": "nonpayable",
      "type": "function"
    },
    {
      "inputs": [],
      "name": "uri",
      "outputs": [
        {
          "internalType": "string",
          "name": "",
          "type": "string"
        }
      ],
      "stateMutability": "view",
      "type": "function"
    },
    {
      "inputs": [
        {
          "internalType": "uint256",
          "name": "amount",
          "type": "uint256"
        }
      ],
      "name": "withdraw",
      "outputs": [],
      "stateMutability": "nonpayable",
      "type": "function"
    }
  ],
  "bytecode": "0x608060405260126003553480156200001657600080fd5b5060405162001c2d38038062001c2d83398181016040528101906200003c91906200032a565b828260008383600090816200005291906200062e565b5082600190816200006491906200062e565b506200007681620000c360201b60201c565b600290816200008691906200062e565b50620000b633600354600a6200009d919062000898565b84620000aa9190620008e9565b620000ff60201b60201c565b50505050505050620009d9565b6060620000d56200017660201b60201c565b82604051602001620000e992919062000976565b6040516020818303038152906040529050919050565b80600560008473ffffffffffffffffffffffffffffffffffffffff1673ffffffffffffffffffffffffffffffffffffffff16815260200190815260200160002060008282546200015091906200099e565b9250508190555080600460008282546200016b91906200099e565b925050819055505050565b606060405180606001604052806035815260200162001bf860359139905090565b6000604051905090565b600080fd5b600080fd5b600080fd5b600080fd5b6000601f19601f8301169050919050565b7f4e487b7100000000000000000000000000000000000000000000000000000000600052604160045260246000fd5b6200020082620001b5565b810181811067ffffffffffffffff82111715620002225762000221620001c6565b5b80604052505050565b60006200023762000197565b9050620002458282620001f5565b919050565b600067ffffffffffffffff821115620002685762000267620001c6565b5b6200027382620001b5565b9050602081019050919050565b60005b83811015620002a057808201518184015260208101905062000283565b60008484015250505050565b6000620002c3620002bd846200024a565b6200022b565b905082815260208101848484011115620002e257620002e1620001b0565b5b620002ef84828562000280565b509392505050565b600082601f8301126200030f576200030e620001ab565b5b815162000321848260208601620002ac565b91505092915050565b600080600060608486031215620003465762000345620001a1565b5b600084015167ffffffffffffffff811115620003675762000366620001a6565b5b6200037586828701620002f7565b935050602084015167ffffffffffffffff811115620003995762000398620001a6565b5b620003a786828701620002f7565b925050604084015167ffffffffffffffff811115620003cb57620003ca620001a6565b5b620003d986828701620002f7565b9150509250925092565b600081519050919050565b7f4e487b7100000000000000000000000000000000000000000000000000000000600052602260045260246000fd5b600060028204905060018216806200043657607f821691505b6020821081036200044c576200044b620003ee565b5b50919050565b60008190508160005260206000209050919050565b60006020601f8301049050919050565b600082821b905092915050565b600060088302620004b67fffffffffffffffffffffffffffffffffffffffffffffffffffffffffffffffff8262000477565b620004c2868362000477565b95508019841693508086168417925050509392505050565b6000819050919050565b6000819050919050565b60006200050f620005096200050384620004da565b620004e4565b620004da565b9050919050565b6000819050919050565b6200052b83620004ee565b620005436200053a8262000516565b84845462000484565b825550505050565b600090565b6200055a6200054b565b6200056781848462000520565b505050565b5b818110156200058f576200058360008262000550565b6001810190506200056d565b5050565b601f821115620005de57620005a88162000452565b620005b38462000467565b81016020851015620005c3578190505b620005db620005d28562000467565b8301826200056c565b50505b505050565b600082821c905092915050565b60006200060360001984600802620005e3565b1980831691505092915050565b60006200061e8383620005f0565b9150826002028217905092915050565b6200063982620003e3565b67ffffffffffffffff811115620006555762000654620001c6565b5b6200066182546200041d565b6200066e82828562000593565b600060209050601f831160018114620006a6576000841562000691578287015190505b6200069d858262000610565b8655506200070d565b601f198416620006b68662000452565b60005b82811015620006e057848901518255600182019150602085019450602081019050620006b9565b86831015620007005784890151620006fc601f891682620005f0565b8355505b6001600288020188555050505b505050505050565b7f4e487b7100000000000000000000000000000000000000000000000000000000600052601160045260246000fd5b60008160011c9050919050565b6000808291508390505b6001851115620007a3578086048111156200077b576200077a62000715565b5b60018516156200078b5780820291505b80810290506200079b8562000744565b94506200075b565b94509492505050565b600082620007be576001905062000891565b81620007ce576000905062000891565b8160018114620007e75760028114620007f25762000828565b600191505062000891565b60ff84111562000807576200080662000715565b5b8360020a91508482111562000821576200082062000715565b5b5062000891565b5060208310610133831016604e8410600b8410161715620008625782820a9050838111156200085c576200085b62000715565b5b62000891565b62000871848484600162000751565b925090508184048111156200088b576200088a62000715565b5b81810290505b9392505050565b6000620008a582620004da565b9150620008b283620004da565b9250620008e17fffffffffffffffffffffffffffffffffffffffffffffffffffffffffffffffff8484620007ac565b905092915050565b6000620008f682620004da565b91506200090383620004da565b92508282026200091381620004da565b915082820484148315176200092d576200092c62000715565b5b5092915050565b600081905092915050565b60006200094c82620003e3565b62000958818562000934565b93506200096a81856020860162000280565b80840191505092915050565b60006200098482856200093f565b91506200099282846200093f565b91508190509392505050565b6000620009ab82620004da565b9150620009b883620004da565b9250828201905080821115620009d357620009d262000715565b5b92915050565b61120f80620009e96000396000f3fe6080604052600436106100f35760003560e01c806355b6ed5c1161008a578063a9059cbb11610059578063a9059cbb14610362578063b6b55f251461039f578063dd62ed3e146103bb578063eac989f8146103f8576100f3565b806355b6ed5c146102945780636161eb18146102d157806370a08231146102fa57806395d89b4114610337576100f3565b806327e235e3116100c657806327e235e3146101c85780632e1a7d4d146102055780634cf12d261461022e5780634e6ec2471461026b576100f3565b806306fdde03146100f8578063095ea7b31461012357806318160ddd1461016057806323b872dd1461018b575b600080fd5b34801561010457600080fd5b5061010d610423565b60405161011a9190610c78565b60405180910390f35b34801561012f57600080fd5b5061014a60048036038101906101459190610d42565b6104b1565b6040516101579190610d9d565b60405180910390f35b34801561016c57600080fd5b5061017561053e565b6040516101829190610dc7565b60405180910390f35b34801561019757600080fd5b506101b260048036038101906101ad9190610de2565b610544565b6040516101bf9190610d9d565b60405180910390f35b3480156101d457600080fd5b506101ef60048036038101906101ea9190610e35565b610719565b6040516101fc9190610dc7565b60405180910390f35b34801561021157600080fd5b5061022c60048036038101906102279190610e62565b610731565b005b34801561023a57600080fd5b5061025560048036038101906102509190610fc4565b61078c565b6040516102629190610c78565b60405180910390f35b34801561027757600080fd5b50610292600480360381019061028d9190610d42565b6107be565b005b3480156102a057600080fd5b506102bb60048036038101906102b6919061100d565b610831565b6040516102c89190610dc7565b60405180910390f35b3480156102dd57600080fd5b506102f860048036038101906102f39190610d42565b610856565b005b34801561030657600080fd5b50610321600480360381019061031c9190610e35565b6108c9565b60405161032e9190610dc7565b60405180910390f35b34801561034357600080fd5b5061034c610912565b6040516103599190610c78565b60405180910390f35b34801561036e57600080fd5b5061038960048036038101906103849190610d42565b6109a0565b6040516103969190610d9d565b60405180910390f35b6103b960048036038101906103b49190610e62565b610a58565b005b3480156103c757600080fd5b506103e260048036038101906103dd919061100d565b610ab3565b6040516103ef9190610dc7565b60405180910390f35b34801561040457600080fd5b5061040d610b3a565b60405161041a9190610c78565b60405180910390f35b600080546104309061107c565b80601f016020809104026020016040519081016040528092919081815260200182805461045c9061107c565b80156104a95780601f1061047e576101008083540402835291602001916104a9565b820191906000526020600020905b81548152906001019060200180831161048c57829003601f168201915b505050505081565b600081600660003373ffffffffffffffffffffffffffffffffffffffff1673ffffffffffffffffffffffffffffffffffffffff16815260200190815260200160002060008573ffffffffffffffffffffffffffffffffffffffff1673ffffffffffffffffffffffffffffffffffffffff168152602001908152602001600020819055506001905092915050565b60045481565b600081600660008673ffffffffffffffffffffffffffffffffffffffff1673ffffffffffffffffffffffffffffffffffffffff16815260200190815260200160002060003373ffffffffffffffffffffffffffffffffffffffff1673ffffffffffffffffffffffffffffffffffffffff1681526020019081526020016000205410156105cf57600080fd5b81600660008673ffffffffffffffffffffffffffffffffffffffff1673ffffffffffffffffffffffffffffffffffffffff16815260200190815260200160002060003373ffffffffffffffffffffffffffffffffffffffff1673ffffffffffffffffffffffffffffffffffffffff168152602001908152602001600020600082825461065b91906110dc565b9250508190555081600560008673ffffffffffffffffffffffffffffffffffffffff1673ffffffffffffffffffffffffffffffffffffffff16815260200190815260200160002060008282546106b191906110dc565b9250508190555081600560008573ffffffffffffffffffffffffffffffffffffffff1673ffffffffffffffffffffffffffffffffffffffff16815260200190815260200160002060008282546107079190611110565b92505081905550600190509392505050565b60056020528060005260406000206000915090505481565b61073b3382610856565b3373ffffffffffffffffffffffffffffffffffffffff167f7fcf532c15f0a6db0bd6d0e038bea71d30d808c7d98cb3bf7268a95bf5081b65826040516107819190610dc7565b60405180910390a250565b6060610796610bc8565b826040516020016107a8929190611180565b6040516020818303038152906040529050919050565b80600560008473ffffffffffffffffffffffffffffffffffffffff1673ffffffffffffffffffffffffffffffffffffffff168152602001908152602001600020600082825461080d9190611110565b9250508190555080600460008282546108269190611110565b925050819055505050565b6006602052816000526040600020602052806000526040600020600091509150505481565b80600560008473ffffffffffffffffffffffffffffffffffffffff1673ffffffffffffffffffffffffffffffffffffffff16815260200190815260200160002060008282546108a591906110dc565b9250508190555080600460008282546108be91906110dc565b925050819055505050565b6000600560008373ffffffffffffffffffffffffffffffffffffffff1673ffffffffffffffffffffffffffffffffffffffff168152602001908152602001600020549050919050565b6001805461091f9061107c565b80601f016020809104026020016040519081016040528092919081815260200182805461094b9061107c565b80156109985780601f1061096d57610100808354040283529160200191610998565b820191906000526020600020905b81548152906001019060200180831161097b57829003601f168201915b505050505081565b600081600560003373ffffffffffffffffffffffffffffffffffffffff1673ffffffffffffffffffffffffffffffffffffffff16815260200190815260200160002060008282546109f191906110dc565b9250508190555081600560008573ffffffffffffffffffffffffffffffffffffffff1673ffffffffffffffffffffffffffffffffffffffff1681526020019081526020016000206000828254610a479190611110565b925050819055506001905092915050565b610a6233826107be565b3373ffffffffffffffffffffffffffffffffffffffff167fe1fffcc4923d04b559f4d29a8bfc6cda04eb5b0d3c460751c2402c5c5cc9109c82604051610aa89190610dc7565b60405180910390a250565b6000600660008473ffffffffffffffffffffffffffffffffffffffff1673ffffffffffffffffffffffffffffffffffffffff16815260200190815260200160002060008373ffffffffffffffffffffffffffffffffffffffff1673ffffffffffffffffffffffffffffffffffffffff16815260200190815260200160002054905092915050565b60028054610b479061107c565b80601f0160208091040260200160405190810160405280929190818152602001828054610b739061107c565b8015610bc05780601f10610b9557610100808354040283529160200191610bc0565b820191906000526020600020905b815481529060010190602001808311610ba357829003601f168201915b505050505081565b60606040518060600160405280603581526020016111a560359139905090565b600081519050919050565b600082825260208201905092915050565b60005b83811015610c22578082015181840152602081019050610c07565b60008484015250505050565b6000601f19601f8301169050919050565b6000610c4a82610be8565b610c548185610bf3565b9350610c64818560208601610c04565b610c6d81610c2e565b840191505092915050565b60006020820190508181036000830152610c928184610c3f565b905092915050565b6000604051905090565b600080fd5b600080fd5b600073ffffffffffffffffffffffffffffffffffffffff82169050919050565b6000610cd982610cae565b9050919050565b610ce981610cce565b8114610cf457600080fd5b50565b600081359050610d0681610ce0565b92915050565b6000819050919050565b610d1f81610d0c565b8114610d2a57600080fd5b50565b600081359050610d3c81610d16565b92915050565b60008060408385031215610d5957610d58610ca4565b5b6000610d6785828601610cf7565b9250506020610d7885828601610d2d565b9150509250929050565b60008115159050919050565b610d9781610d82565b82525050565b6000602082019050610db26000830184610d8e565b92915050565b610dc181610d0c565b82525050565b6000602082019050610ddc6000830184610db8565b92915050565b600080600060608486031215610dfb57610dfa610ca4565b5b6000610e0986828701610cf7565b9350506020610e1a86828701610cf7565b9250506040610e2b86828701610d2d565b9150509250925092565b600060208284031215610e4b57610e4a610ca4565b5b6000610e5984828501610cf7565b91505092915050565b600060208284031215610e7857610e77610ca4565b5b6000610e8684828501610d2d565b91505092915050565b600080fd5b600080fd5b7f4e487b7100000000000000000000000000000000000000000000000000000000600052604160045260246000fd5b610ed182610c2e565b810181811067ffffffffffffffff82111715610ef057610eef610e99565b5b80604052505050565b6000610f03610c9a565b9050610f0f8282610ec8565b919050565b600067ffffffffffffffff821115610f2f57610f2e610e99565b5b610f3882610c2e565b9050602081019050919050565b82818337600083830152505050565b6000610f67610f6284610f14565b610ef9565b905082815260208101848484011115610f8357610f82610e94565b5b610f8e848285610f45565b509392505050565b600082601f830112610fab57610faa610e8f565b5b8135610fbb848260208601610f54565b91505092915050565b600060208284031215610fda57610fd9610ca4565b5b600082013567ffffffffffffffff811115610ff857610ff7610ca9565b5b61100484828501610f96565b91505092915050565b6000806040838503121561102457611023610ca4565b5b600061103285828601610cf7565b925050602061104385828601610cf7565b9150509250929050565b7f4e487b7100000000000000000000000000000000000000000000000000000000600052602260045260246000fd5b6000600282049050600182168061109457607f821691505b6020821081036110a7576110a661104d565b5b50919050565b7f4e487b7100000000000000000000000000000000000000000000000000000000600052601160045260246000fd5b60006110e782610d0c565b91506110f283610d0c565b925082820390508181111561110a576111096110ad565b5b92915050565b600061111b82610d0c565b915061112683610d0c565b925082820190508082111561113e5761113d6110ad565b5b92915050565b600081905092915050565b600061115a82610be8565b6111648185611144565b9350611174818560208601610c04565b80840191505092915050565b600061118c828561114f565b9150611198828461114f565b9150819050939250505056fe68747470733a2f2f6372696d736f6e2d67656e65726f75732d616e742d3339352e6d7970696e6174612e636c6f75642f697066732fa264697066735822122088c857459f148b1d12fdaa863d52f6546c6e3b7dc483d89eab9d9d190b347c6964736f6c6343000814003368747470733a2f2f6372696d736f6e2d67656e65726f75732d616e742d3339352e6d7970696e6174612e636c6f75642f697066732f",
  "linkReferences": {},
  "deployedLinkReferences": {}
}