{
  "_format": "hh-sol-artifact-1",
  "contractName": "WBNC",
  "sourceName": "contracts/contract/WBNC.sol",
  "abi": [
    {
      "inputs": [
        {
          "internalType": "string",
          "name": "_name",
          "type": "string"
        },
        {
          "internalType": "string",
          "name": "_symbol",
          "type": "string"
        },
        {
          "internalType": "uint256",
          "name": "_amount",
          "type": "uint256"
        },
        {
          "internalType": "string",
          "name": "_uri",
          "type": "string"
        }
      ],
      "stateMutability": "nonpayable",
      "type": "constructor"
    },
    {
      "anonymous": false,
      "inputs": [
        {
          "indexed": true,
          "internalType": "address",
          "name": "owner",
          "type": "address"
        },
        {
          "indexed": true,
          "internalType": "address",
          "name": "spender",
          "type": "address"
        },
        {
          "indexed": false,
          "internalType": "uint256",
          "name": "value",
          "type": "uint256"
        }
      ],
      "name": "Approval",
      "type": "event"
    },
    {
      "anonymous": false,
      "inputs": [
        {
          "indexed": true,
          "internalType": "address",
          "name": "from",
          "type": "address"
        },
        {
          "indexed": false,
          "internalType": "uint256",
          "name": "amount",
          "type": "uint256"
        }
      ],
      "name": "Deposit",
      "type": "event"
    },
    {
      "anonymous": false,
      "inputs": [
        {
          "indexed": true,
          "internalType": "address",
          "name": "from",
          "type": "address"
        },
        {
          "indexed": true,
          "internalType": "address",
          "name": "to",
          "type": "address"
        },
        {
          "indexed": false,
          "internalType": "uint256",
          "name": "value",
          "type": "uint256"
        }
      ],
      "name": "Transfer",
      "type": "event"
    },
    {
      "anonymous": false,
      "inputs": [
        {
          "indexed": true,
          "internalType": "address",
          "name": "to",
          "type": "address"
        },
        {
          "indexed": false,
          "internalType": "uint256",
          "name": "amount",
          "type": "uint256"
        }
      ],
      "name": "Withdrawal",
      "type": "event"
    },
    {
      "inputs": [
        {
          "internalType": "address",
          "name": "owner",
          "type": "address"
        },
        {
          "internalType": "uint256",
          "name": "amount",
          "type": "uint256"
        }
      ],
      "name": "_burn",
      "outputs": [],
      "stateMutability": "nonpayable",
      "type": "function"
    },
    {
      "inputs": [
        {
          "internalType": "address",
          "name": "to",
          "type": "address"
        },
        {
          "internalType": "uint256",
          "name": "amount",
          "type": "uint256"
        }
      ],
      "name": "_mint",
      "outputs": [],
      "stateMutability": "nonpayable",
      "type": "function"
    },
    {
      "inputs": [
        {
          "internalType": "address",
          "name": "owner",
          "type": "address"
        },
        {
          "internalType": "address",
          "name": "spender",
          "type": "address"
        }
      ],
      "name": "allowance",
      "outputs": [
        {
          "internalType": "uint256",
          "name": "",
          "type": "uint256"
        }
      ],
      "stateMutability": "view",
      "type": "function"
    },
    {
      "inputs": [
        {
          "internalType": "address",
          "name": "",
          "type": "address"
        },
        {
          "internalType": "address",
          "name": "",
          "type": "address"
        }
      ],
      "name": "allowances",
      "outputs": [
        {
          "internalType": "uint256",
          "name": "",
          "type": "uint256"
        }
      ],
      "stateMutability": "view",
      "type": "function"
    },
    {
      "inputs": [
        {
          "internalType": "address",
          "name": "spender",
          "type": "address"
        },
        {
          "internalType": "uint256",
          "name": "amount",
          "type": "uint256"
        }
      ],
      "name": "approve",
      "outputs": [
        {
          "internalType": "bool",
          "name": "",
          "type": "bool"
        }
      ],
      "stateMutability": "nonpayable",
      "type": "function"
    },
    {
      "inputs": [
        {
          "internalType": "address",
          "name": "account",
          "type": "address"
        }
      ],
      "name": "balanceOf",
      "outputs": [
        {
          "internalType": "uint256",
          "name": "",
          "type": "uint256"
        }
      ],
      "stateMutability": "view",
      "type": "function"
    },
    {
      "inputs": [
        {
          "internalType": "address",
          "name": "",
          "type": "address"
        }
      ],
      "name": "balances",
      "outputs": [
        {
          "internalType": "uint256",
          "name": "",
          "type": "uint256"
        }
      ],
      "stateMutability": "view",
      "type": "function"
    },
    {
      "inputs": [
        {
          "internalType": "address",
          "name": "owner",
          "type": "address"
        },
        {
          "internalType": "uint256",
          "name": "value",
          "type": "uint256"
        }
      ],
      "name": "deposit",
      "outputs": [],
      "stateMutability": "payable",
      "type": "function"
    },
    {
      "inputs": [],
      "name": "name",
      "outputs": [
        {
          "internalType": "string",
          "name": "",
          "type": "string"
        }
      ],
      "stateMutability": "view",
      "type": "function"
    },
    {
      "inputs": [],
      "name": "symbol",
      "outputs": [
        {
          "internalType": "string",
          "name": "",
          "type": "string"
        }
      ],
      "stateMutability": "view",
      "type": "function"
    },
    {
      "inputs": [
        {
          "internalType": "string",
          "name": "_imageUri",
          "type": "string"
        }
      ],
      "name": "tokenURI",
      "outputs": [
        {
          "internalType": "string",
          "name": "",
          "type": "string"
        }
      ],
      "stateMutability": "pure",
      "type": "function"
    },
    {
      "inputs": [],
      "name": "totalSupply",
      "outputs": [
        {
          "internalType": "uint256",
          "name": "",
          "type": "uint256"
        }
      ],
      "stateMutability": "view",
      "type": "function"
    },
    {
      "inputs": [
        {
          "internalType": "address",
          "name": "to",
          "type": "address"
        },
        {
          "internalType": "uint256",
          "name": "amount",
          "type": "uint256"
        }
      ],
      "name": "transfer",
      "outputs": [
        {
          "internalType": "bool",
          "name": "",
          "type": "bool"
        }
      ],
      "stateMutability": "nonpayable",
      "type": "function"
    },
    {
      "inputs": [
        {
          "internalType": "address",
          "name": "from",
          "type": "address"
        },
        {
          "internalType": "address",
          "name": "to",
          "type": "address"
        },
        {
          "internalType": "uint256",
          "name": "amount",
          "type": "uint256"
        }
      ],
      "name": "transfer",
      "outputs": [
        {
          "internalType": "bool",
          "name": "",
          "type": "bool"
        }
      ],
      "stateMutability": "nonpayable",
      "type": "function"
    },
    {
      "inputs": [
        {
          "internalType": "address",
          "name": "from",
          "type": "address"
        },
        {
          "internalType": "address",
          "name": "to",
          "type": "address"
        },
        {
          "internalType": "uint256",
          "name": "value",
          "type": "uint256"
        }
      ],
      "name": "transferFrom",
      "outputs": [
        {
          "internalType": "bool",
          "name": "",
          "type": "bool"
        }
      ],
      "stateMutability": "nonpayable",
      "type": "function"
    },
    {
      "inputs": [],
      "name": "uri",
      "outputs": [
        {
          "internalType": "string",
          "name": "",
          "type": "string"
        }
      ],
      "stateMutability": "view",
      "type": "function"
    },
    {
      "inputs": [
        {
          "internalType": "address",
          "name": "owner",
          "type": "address"
        },
        {
          "internalType": "uint256",
          "name": "amount",
          "type": "uint256"
        }
      ],
      "name": "withdraw",
      "outputs": [],
      "stateMutability": "nonpayable",
      "type": "function"
    }
  ],
  "bytecode": "0x608060405260126003553480156200001657600080fd5b5060405162001d6438038062001d6483398181016040528101906200003c91906200037f565b8383838383600090816200005191906200068f565b5082600190816200006391906200068f565b506200007581620000dd60201b60201c565b600290816200008591906200068f565b50600073f39fd6e51aad88f6f4ce6ab8827279cfffb922669050620000ce33600354600a620000b59190620008f9565b85620000c291906200094a565b6200011960201b60201c565b50505050505050505062000a3a565b6060620000ef6200019060201b60201c565b8260405160200162000103929190620009d7565b6040516020818303038152906040529050919050565b80600560008473ffffffffffffffffffffffffffffffffffffffff1673ffffffffffffffffffffffffffffffffffffffff16815260200190815260200160002060008282546200016a9190620009ff565b925050819055508060046000828254620001859190620009ff565b925050819055505050565b606060405180606001604052806035815260200162001d2f60359139905090565b6000604051905090565b600080fd5b600080fd5b600080fd5b600080fd5b6000601f19601f8301169050919050565b7f4e487b7100000000000000000000000000000000000000000000000000000000600052604160045260246000fd5b6200021a82620001cf565b810181811067ffffffffffffffff821117156200023c576200023b620001e0565b5b80604052505050565b600062000251620001b1565b90506200025f82826200020f565b919050565b600067ffffffffffffffff821115620002825762000281620001e0565b5b6200028d82620001cf565b9050602081019050919050565b60005b83811015620002ba5780820151818401526020810190506200029d565b60008484015250505050565b6000620002dd620002d78462000264565b62000245565b905082815260208101848484011115620002fc57620002fb620001ca565b5b620003098482856200029a565b509392505050565b600082601f830112620003295762000328620001c5565b5b81516200033b848260208601620002c6565b91505092915050565b6000819050919050565b620003598162000344565b81146200036557600080fd5b50565b60008151905062000379816200034e565b92915050565b600080600080608085870312156200039c576200039b620001bb565b5b600085015167ffffffffffffffff811115620003bd57620003bc620001c0565b5b620003cb8782880162000311565b945050602085015167ffffffffffffffff811115620003ef57620003ee620001c0565b5b620003fd8782880162000311565b9350506040620004108782880162000368565b925050606085015167ffffffffffffffff811115620004345762000433620001c0565b5b620004428782880162000311565b91505092959194509250565b600081519050919050565b7f4e487b7100000000000000000000000000000000000000000000000000000000600052602260045260246000fd5b60006002820490506001821680620004a157607f821691505b602082108103620004b757620004b662000459565b5b50919050565b60008190508160005260206000209050919050565b60006020601f8301049050919050565b600082821b905092915050565b600060088302620005217fffffffffffffffffffffffffffffffffffffffffffffffffffffffffffffffff82620004e2565b6200052d8683620004e2565b95508019841693508086168417925050509392505050565b6000819050919050565b6000620005706200056a620005648462000344565b62000545565b62000344565b9050919050565b6000819050919050565b6200058c836200054f565b620005a46200059b8262000577565b848454620004ef565b825550505050565b600090565b620005bb620005ac565b620005c881848462000581565b505050565b5b81811015620005f057620005e4600082620005b1565b600181019050620005ce565b5050565b601f8211156200063f576200060981620004bd565b6200061484620004d2565b8101602085101562000624578190505b6200063c6200063385620004d2565b830182620005cd565b50505b505050565b600082821c905092915050565b6000620006646000198460080262000644565b1980831691505092915050565b60006200067f838362000651565b9150826002028217905092915050565b6200069a826200044e565b67ffffffffffffffff811115620006b657620006b5620001e0565b5b620006c2825462000488565b620006cf828285620005f4565b600060209050601f831160018114620007075760008415620006f2578287015190505b620006fe858262000671565b8655506200076e565b601f1984166200071786620004bd565b60005b8281101562000741578489015182556001820191506020850194506020810190506200071a565b868310156200076157848901516200075d601f89168262000651565b8355505b6001600288020188555050505b505050505050565b7f4e487b7100000000000000000000000000000000000000000000000000000000600052601160045260246000fd5b60008160011c9050919050565b6000808291508390505b60018511156200080457808604811115620007dc57620007db62000776565b5b6001851615620007ec5780820291505b8081029050620007fc85620007a5565b9450620007bc565b94509492505050565b6000826200081f5760019050620008f2565b816200082f5760009050620008f2565b8160018114620008485760028114620008535762000889565b6001915050620008f2565b60ff84111562000868576200086762000776565b5b8360020a91508482111562000882576200088162000776565b5b50620008f2565b5060208310610133831016604e8410600b8410161715620008c35782820a905083811115620008bd57620008bc62000776565b5b620008f2565b620008d28484846001620007b2565b92509050818404811115620008ec57620008eb62000776565b5b81810290505b9392505050565b6000620009068262000344565b9150620009138362000344565b9250620009427fffffffffffffffffffffffffffffffffffffffffffffffffffffffffffffffff84846200080d565b905092915050565b6000620009578262000344565b9150620009648362000344565b9250828202620009748162000344565b915082820484148315176200098e576200098d62000776565b5b5092915050565b600081905092915050565b6000620009ad826200044e565b620009b9818562000995565b9350620009cb8185602086016200029a565b80840191505092915050565b6000620009e58285620009a0565b9150620009f38284620009a0565b91508190509392505050565b600062000a0c8262000344565b915062000a198362000344565b925082820190508082111562000a345762000a3362000776565b5b92915050565b6112e58062000a4a6000396000f3fe6080604052600436106100fe5760003560e01c806355b6ed5c11610095578063a9059cbb11610064578063a9059cbb14610360578063beabacc81461039d578063dd62ed3e146103da578063eac989f814610417578063f3fef3a314610442576100fe565b806355b6ed5c146102925780636161eb18146102cf57806370a08231146102f857806395d89b4114610335576100fe565b806327e235e3116100d157806327e235e3146101d357806347e7ef24146102105780634cf12d261461022c5780634e6ec24714610269576100fe565b806306fdde0314610103578063095ea7b31461012e57806318160ddd1461016b57806323b872dd14610196575b600080fd5b34801561010f57600080fd5b5061011861046b565b6040516101259190610d7b565b60405180910390f35b34801561013a57600080fd5b5061015560048036038101906101509190610e45565b6104f9565b6040516101629190610ea0565b60405180910390f35b34801561017757600080fd5b50610180610586565b60405161018d9190610eca565b60405180910390f35b3480156101a257600080fd5b506101bd60048036038101906101b89190610ee5565b61058c565b6040516101ca9190610ea0565b60405180910390f35b3480156101df57600080fd5b506101fa60048036038101906101f59190610f38565b610761565b6040516102079190610eca565b60405180910390f35b61022a60048036038101906102259190610e45565b610779565b005b34801561023857600080fd5b50610253600480360381019061024e919061109a565b6107d5565b6040516102609190610d7b565b60405180910390f35b34801561027557600080fd5b50610290600480360381019061028b9190610e45565b610807565b005b34801561029e57600080fd5b506102b960048036038101906102b491906110e3565b61087a565b6040516102c69190610eca565b60405180910390f35b3480156102db57600080fd5b506102f660048036038101906102f19190610e45565b61089f565b005b34801561030457600080fd5b5061031f600480360381019061031a9190610f38565b610912565b60405161032c9190610eca565b60405180910390f35b34801561034157600080fd5b5061034a61095b565b6040516103579190610d7b565b60405180910390f35b34801561036c57600080fd5b5061038760048036038101906103829190610e45565b6109e9565b6040516103949190610ea0565b60405180910390f35b3480156103a957600080fd5b506103c460048036038101906103bf9190610ee5565b610aa1565b6040516103d19190610ea0565b60405180910390f35b3480156103e657600080fd5b5061040160048036038101906103fc91906110e3565b610b5a565b60405161040e9190610eca565b60405180910390f35b34801561042357600080fd5b5061042c610be1565b6040516104399190610d7b565b60405180910390f35b34801561044e57600080fd5b5061046960048036038101906104649190610e45565b610c6f565b005b6000805461047890611152565b80601f01602080910402602001604051908101604052809291908181526020018280546104a490611152565b80156104f15780601f106104c6576101008083540402835291602001916104f1565b820191906000526020600020905b8154815290600101906020018083116104d457829003601f168201915b505050505081565b600081600660003373ffffffffffffffffffffffffffffffffffffffff1673ffffffffffffffffffffffffffffffffffffffff16815260200190815260200160002060008573ffffffffffffffffffffffffffffffffffffffff1673ffffffffffffffffffffffffffffffffffffffff168152602001908152602001600020819055506001905092915050565b60045481565b600081600660008673ffffffffffffffffffffffffffffffffffffffff1673ffffffffffffffffffffffffffffffffffffffff16815260200190815260200160002060003373ffffffffffffffffffffffffffffffffffffffff1673ffffffffffffffffffffffffffffffffffffffff16815260200190815260200160002054101561061757600080fd5b81600660008673ffffffffffffffffffffffffffffffffffffffff1673ffffffffffffffffffffffffffffffffffffffff16815260200190815260200160002060003373ffffffffffffffffffffffffffffffffffffffff1673ffffffffffffffffffffffffffffffffffffffff16815260200190815260200160002060008282546106a391906111b2565b9250508190555081600560008673ffffffffffffffffffffffffffffffffffffffff1673ffffffffffffffffffffffffffffffffffffffff16815260200190815260200160002060008282546106f991906111b2565b9250508190555081600560008573ffffffffffffffffffffffffffffffffffffffff1673ffffffffffffffffffffffffffffffffffffffff168152602001908152602001600020600082825461074f91906111e6565b92505081905550600190509392505050565b60056020528060005260406000206000915090505481565b6107838282610807565b8173ffffffffffffffffffffffffffffffffffffffff167fe1fffcc4923d04b559f4d29a8bfc6cda04eb5b0d3c460751c2402c5c5cc9109c826040516107c99190610eca565b60405180910390a25050565b60606107df610ccb565b826040516020016107f1929190611256565b6040516020818303038152906040529050919050565b80600560008473ffffffffffffffffffffffffffffffffffffffff1673ffffffffffffffffffffffffffffffffffffffff168152602001908152602001600020600082825461085691906111e6565b92505081905550806004600082825461086f91906111e6565b925050819055505050565b6006602052816000526040600020602052806000526040600020600091509150505481565b80600560008473ffffffffffffffffffffffffffffffffffffffff1673ffffffffffffffffffffffffffffffffffffffff16815260200190815260200160002060008282546108ee91906111b2565b92505081905550806004600082825461090791906111b2565b925050819055505050565b6000600560008373ffffffffffffffffffffffffffffffffffffffff1673ffffffffffffffffffffffffffffffffffffffff168152602001908152602001600020549050919050565b6001805461096890611152565b80601f016020809104026020016040519081016040528092919081815260200182805461099490611152565b80156109e15780601f106109b6576101008083540402835291602001916109e1565b820191906000526020600020905b8154815290600101906020018083116109c457829003601f168201915b505050505081565b600081600560003373ffffffffffffffffffffffffffffffffffffffff1673ffffffffffffffffffffffffffffffffffffffff1681526020019081526020016000206000828254610a3a91906111b2565b9250508190555081600560008573ffffffffffffffffffffffffffffffffffffffff1673ffffffffffffffffffffffffffffffffffffffff1681526020019081526020016000206000828254610a9091906111e6565b925050819055506001905092915050565b600081600560008673ffffffffffffffffffffffffffffffffffffffff1673ffffffffffffffffffffffffffffffffffffffff1681526020019081526020016000206000828254610af291906111b2565b9250508190555081600560008573ffffffffffffffffffffffffffffffffffffffff1673ffffffffffffffffffffffffffffffffffffffff1681526020019081526020016000206000828254610b4891906111e6565b92505081905550600190509392505050565b6000600660008473ffffffffffffffffffffffffffffffffffffffff1673ffffffffffffffffffffffffffffffffffffffff16815260200190815260200160002060008373ffffffffffffffffffffffffffffffffffffffff1673ffffffffffffffffffffffffffffffffffffffff16815260200190815260200160002054905092915050565b60028054610bee90611152565b80601f0160208091040260200160405190810160405280929190818152602001828054610c1a90611152565b8015610c675780601f10610c3c57610100808354040283529160200191610c67565b820191906000526020600020905b815481529060010190602001808311610c4a57829003601f168201915b505050505081565b610c79828261089f565b8173ffffffffffffffffffffffffffffffffffffffff167f7fcf532c15f0a6db0bd6d0e038bea71d30d808c7d98cb3bf7268a95bf5081b6582604051610cbf9190610eca565b60405180910390a25050565b606060405180606001604052806035815260200161127b60359139905090565b600081519050919050565b600082825260208201905092915050565b60005b83811015610d25578082015181840152602081019050610d0a565b60008484015250505050565b6000601f19601f8301169050919050565b6000610d4d82610ceb565b610d578185610cf6565b9350610d67818560208601610d07565b610d7081610d31565b840191505092915050565b60006020820190508181036000830152610d958184610d42565b905092915050565b6000604051905090565b600080fd5b600080fd5b600073ffffffffffffffffffffffffffffffffffffffff82169050919050565b6000610ddc82610db1565b9050919050565b610dec81610dd1565b8114610df757600080fd5b50565b600081359050610e0981610de3565b92915050565b6000819050919050565b610e2281610e0f565b8114610e2d57600080fd5b50565b600081359050610e3f81610e19565b92915050565b60008060408385031215610e5c57610e5b610da7565b5b6000610e6a85828601610dfa565b9250506020610e7b85828601610e30565b9150509250929050565b60008115159050919050565b610e9a81610e85565b82525050565b6000602082019050610eb56000830184610e91565b92915050565b610ec481610e0f565b82525050565b6000602082019050610edf6000830184610ebb565b92915050565b600080600060608486031215610efe57610efd610da7565b5b6000610f0c86828701610dfa565b9350506020610f1d86828701610dfa565b9250506040610f2e86828701610e30565b9150509250925092565b600060208284031215610f4e57610f4d610da7565b5b6000610f5c84828501610dfa565b91505092915050565b600080fd5b600080fd5b7f4e487b7100000000000000000000000000000000000000000000000000000000600052604160045260246000fd5b610fa782610d31565b810181811067ffffffffffffffff82111715610fc657610fc5610f6f565b5b80604052505050565b6000610fd9610d9d565b9050610fe58282610f9e565b919050565b600067ffffffffffffffff82111561100557611004610f6f565b5b61100e82610d31565b9050602081019050919050565b82818337600083830152505050565b600061103d61103884610fea565b610fcf565b90508281526020810184848401111561105957611058610f6a565b5b61106484828561101b565b509392505050565b600082601f83011261108157611080610f65565b5b813561109184826020860161102a565b91505092915050565b6000602082840312156110b0576110af610da7565b5b600082013567ffffffffffffffff8111156110ce576110cd610dac565b5b6110da8482850161106c565b91505092915050565b600080604083850312156110fa576110f9610da7565b5b600061110885828601610dfa565b925050602061111985828601610dfa565b9150509250929050565b7f4e487b7100000000000000000000000000000000000000000000000000000000600052602260045260246000fd5b6000600282049050600182168061116a57607f821691505b60208210810361117d5761117c611123565b5b50919050565b7f4e487b7100000000000000000000000000000000000000000000000000000000600052601160045260246000fd5b60006111bd82610e0f565b91506111c883610e0f565b92508282039050818111156111e0576111df611183565b5b92915050565b60006111f182610e0f565b91506111fc83610e0f565b925082820190508082111561121457611213611183565b5b92915050565b600081905092915050565b600061123082610ceb565b61123a818561121a565b935061124a818560208601610d07565b80840191505092915050565b60006112628285611225565b915061126e8284611225565b9150819050939250505056fe68747470733a2f2f6372696d736f6e2d67656e65726f75732d616e742d3339352e6d7970696e6174612e636c6f75642f697066732fa264697066735822122080a2aea8cf27ec0f053e164896ec000f58b863a36b19d148fab05ac80eb0d3d764736f6c6343000814003368747470733a2f2f6372696d736f6e2d67656e65726f75732d616e742d3339352e6d7970696e6174612e636c6f75642f697066732f",
  "linkReferences": {},
  "deployedLinkReferences": {}
}