{
  "_format": "hh-sol-artifact-1",
  "contractName": "Staking",
  "sourceName": "contracts/contract/Staking.sol",
  "abi": [
    {
      "inputs": [
        {
          "internalType": "address",
          "name": "_BNCToken",
          "type": "address"
        },
        {
          "internalType": "address",
          "name": "_data",
          "type": "address"
        },
        {
          "internalType": "address",
          "name": "_dev0Addr",
          "type": "address"
        },
        {
          "internalType": "uint256",
          "name": "_dev0Percent",
          "type": "uint256"
        },
        {
          "internalType": "uint256",
          "name": "_stakingPercent",
          "type": "uint256"
        },
        {
          "internalType": "uint256",
          "name": "_BNCPerBlock",
          "type": "uint256"
        },
        {
          "internalType": "uint256",
          "name": "_startBlock",
          "type": "uint256"
        },
        {
          "internalType": "address",
          "name": "_initialOwner",
          "type": "address"
        }
      ],
      "stateMutability": "nonpayable",
      "type": "constructor"
    },
    {
      "inputs": [
        {
          "internalType": "address",
          "name": "owner",
          "type": "address"
        }
      ],
      "name": "OwnableInvalidOwner",
      "type": "error"
    },
    {
      "inputs": [
        {
          "internalType": "address",
          "name": "account",
          "type": "address"
        }
      ],
      "name": "OwnableUnauthorizedAccount",
      "type": "error"
    },
    {
      "inputs": [],
      "name": "ReentrancyGuardReentrantCall",
      "type": "error"
    },
    {
      "anonymous": false,
      "inputs": [
        {
          "indexed": true,
          "internalType": "address",
          "name": "user",
          "type": "address"
        },
        {
          "indexed": true,
          "internalType": "uint256",
          "name": "pid",
          "type": "uint256"
        },
        {
          "indexed": false,
          "internalType": "uint256",
          "name": "amount",
          "type": "uint256"
        }
      ],
      "name": "ClaimBNC",
      "type": "event"
    },
    {
      "anonymous": false,
      "inputs": [
        {
          "indexed": true,
          "internalType": "address",
          "name": "user",
          "type": "address"
        },
        {
          "indexed": true,
          "internalType": "uint256",
          "name": "pid",
          "type": "uint256"
        },
        {
          "indexed": false,
          "internalType": "uint256",
          "name": "amount",
          "type": "uint256"
        }
      ],
      "name": "Deposit",
      "type": "event"
    },
    {
      "anonymous": false,
      "inputs": [
        {
          "indexed": false,
          "internalType": "uint256",
          "name": "_pid",
          "type": "uint256"
        },
        {
          "indexed": false,
          "internalType": "uint256",
          "name": "pendingReward",
          "type": "uint256"
        },
        {
          "indexed": false,
          "internalType": "uint256",
          "name": "totalStaked",
          "type": "uint256"
        }
      ],
      "name": "DistributeRewards",
      "type": "event"
    },
    {
      "anonymous": false,
      "inputs": [
        {
          "indexed": true,
          "internalType": "address",
          "name": "user",
          "type": "address"
        },
        {
          "indexed": true,
          "internalType": "uint256",
          "name": "pid",
          "type": "uint256"
        },
        {
          "indexed": false,
          "internalType": "uint256",
          "name": "amount",
          "type": "uint256"
        }
      ],
      "name": "EmergencyWithdraw",
      "type": "event"
    },
    {
      "anonymous": false,
      "inputs": [
        {
          "indexed": true,
          "internalType": "address",
          "name": "previousOwner",
          "type": "address"
        },
        {
          "indexed": true,
          "internalType": "address",
          "name": "newOwner",
          "type": "address"
        }
      ],
      "name": "OwnershipTransferred",
      "type": "event"
    },
    {
      "anonymous": false,
      "inputs": [
        {
          "indexed": true,
          "internalType": "address",
          "name": "dev0Addr",
          "type": "address"
        }
      ],
      "name": "SetDev0Address",
      "type": "event"
    },
    {
      "anonymous": false,
      "inputs": [
        {
          "indexed": false,
          "internalType": "uint256",
          "name": "stakingPercent",
          "type": "uint256"
        },
        {
          "indexed": false,
          "internalType": "uint256",
          "name": "dev0Percent",
          "type": "uint256"
        }
      ],
      "name": "SetPercent",
      "type": "event"
    },
    {
      "anonymous": false,
      "inputs": [
        {
          "indexed": false,
          "internalType": "uint256",
          "name": "BNCPerBlock",
          "type": "uint256"
        }
      ],
      "name": "UpdateBNCPerBlock",
      "type": "event"
    },
    {
      "anonymous": false,
      "inputs": [
        {
          "indexed": true,
          "internalType": "address",
          "name": "user",
          "type": "address"
        },
        {
          "indexed": true,
          "internalType": "uint256",
          "name": "pid",
          "type": "uint256"
        },
        {
          "indexed": false,
          "internalType": "uint256",
          "name": "amount",
          "type": "uint256"
        }
      ],
      "name": "Withdraw",
      "type": "event"
    },
    {
      "inputs": [],
      "name": "BNC",
      "outputs": [
        {
          "internalType": "contract WBNC",
          "name": "",
          "type": "address"
        }
      ],
      "stateMutability": "view",
      "type": "function"
    },
    {
      "inputs": [],
      "name": "BNCPerBlock",
      "outputs": [
        {
          "internalType": "uint256",
          "name": "",
          "type": "uint256"
        }
      ],
      "stateMutability": "view",
      "type": "function"
    },
    {
      "inputs": [],
      "name": "BONUS_MULTIPLIER",
      "outputs": [
        {
          "internalType": "uint256",
          "name": "",
          "type": "uint256"
        }
      ],
      "stateMutability": "view",
      "type": "function"
    },
    {
      "inputs": [
        {
          "internalType": "uint256",
          "name": "_allocPoint",
          "type": "uint256"
        },
        {
          "internalType": "contract IERC20",
          "name": "_lpToken",
          "type": "address"
        }
      ],
      "name": "addStakingPool",
      "outputs": [],
      "stateMutability": "nonpayable",
      "type": "function"
    },
    {
      "inputs": [
        {
          "internalType": "uint256",
          "name": "_pid",
          "type": "uint256"
        }
      ],
      "name": "claimBNC",
      "outputs": [],
      "stateMutability": "nonpayable",
      "type": "function"
    },
    {
      "inputs": [],
      "name": "data",
      "outputs": [
        {
          "internalType": "contract Data",
          "name": "",
          "type": "address"
        }
      ],
      "stateMutability": "view",
      "type": "function"
    },
    {
      "inputs": [
        {
          "internalType": "uint256",
          "name": "_pid",
          "type": "uint256"
        },
        {
          "internalType": "uint256",
          "name": "_amount",
          "type": "uint256"
        }
      ],
      "name": "deposit",
      "outputs": [],
      "stateMutability": "nonpayable",
      "type": "function"
    },
    {
      "inputs": [],
      "name": "dev0Addr",
      "outputs": [
        {
          "internalType": "address",
          "name": "",
          "type": "address"
        }
      ],
      "stateMutability": "view",
      "type": "function"
    },
    {
      "inputs": [],
      "name": "dev0Percent",
      "outputs": [
        {
          "internalType": "uint256",
          "name": "",
          "type": "uint256"
        }
      ],
      "stateMutability": "view",
      "type": "function"
    },
    {
      "inputs": [
        {
          "internalType": "uint256",
          "name": "_pid",
          "type": "uint256"
        }
      ],
      "name": "emergencyWithdraw",
      "outputs": [],
      "stateMutability": "nonpayable",
      "type": "function"
    },
    {
      "inputs": [
        {
          "internalType": "uint256",
          "name": "_from",
          "type": "uint256"
        },
        {
          "internalType": "uint256",
          "name": "_to",
          "type": "uint256"
        }
      ],
      "name": "getMultiplier",
      "outputs": [
        {
          "internalType": "uint256",
          "name": "",
          "type": "uint256"
        }
      ],
      "stateMutability": "view",
      "type": "function"
    },
    {
      "inputs": [],
      "name": "lastBlockDevWithdraw",
      "outputs": [
        {
          "internalType": "uint256",
          "name": "",
          "type": "uint256"
        }
      ],
      "stateMutability": "view",
      "type": "function"
    },
    {
      "inputs": [],
      "name": "massUpdatePools",
      "outputs": [],
      "stateMutability": "nonpayable",
      "type": "function"
    },
    {
      "inputs": [],
      "name": "owner",
      "outputs": [
        {
          "internalType": "address",
          "name": "",
          "type": "address"
        }
      ],
      "stateMutability": "view",
      "type": "function"
    },
    {
      "inputs": [
        {
          "internalType": "uint256",
          "name": "_pid",
          "type": "uint256"
        },
        {
          "internalType": "address",
          "name": "_user",
          "type": "address"
        }
      ],
      "name": "pendingBNC",
      "outputs": [
        {
          "internalType": "uint256",
          "name": "",
          "type": "uint256"
        }
      ],
      "stateMutability": "view",
      "type": "function"
    },
    {
      "inputs": [],
      "name": "percentDec",
      "outputs": [
        {
          "internalType": "uint256",
          "name": "",
          "type": "uint256"
        }
      ],
      "stateMutability": "view",
      "type": "function"
    },
    {
      "inputs": [
        {
          "internalType": "uint256",
          "name": "",
          "type": "uint256"
        }
      ],
      "name": "poolInfo",
      "outputs": [
        {
          "internalType": "contract IERC20",
          "name": "lpToken",
          "type": "address"
        },
        {
          "internalType": "uint256",
          "name": "allocPoint",
          "type": "uint256"
        },
        {
          "internalType": "uint256",
          "name": "lastRewardBlock",
          "type": "uint256"
        },
        {
          "internalType": "uint256",
          "name": "accBNCPerShare",
          "type": "uint256"
        },
        {
          "internalType": "uint256",
          "name": "stakingEndTime",
          "type": "uint256"
        }
      ],
      "stateMutability": "view",
      "type": "function"
    },
    {
      "inputs": [],
      "name": "poolLength",
      "outputs": [
        {
          "internalType": "uint256",
          "name": "",
          "type": "uint256"
        }
      ],
      "stateMutability": "view",
      "type": "function"
    },
    {
      "inputs": [],
      "name": "renounceOwnership",
      "outputs": [],
      "stateMutability": "nonpayable",
      "type": "function"
    },
    {
      "inputs": [
        {
          "internalType": "uint256",
          "name": "_pid",
          "type": "uint256"
        },
        {
          "internalType": "uint256",
          "name": "_allocPoint",
          "type": "uint256"
        }
      ],
      "name": "set",
      "outputs": [],
      "stateMutability": "nonpayable",
      "type": "function"
    },
    {
      "inputs": [
        {
          "internalType": "address",
          "name": "_dev0Addr",
          "type": "address"
        }
      ],
      "name": "setDevAddress",
      "outputs": [],
      "stateMutability": "nonpayable",
      "type": "function"
    },
    {
      "inputs": [
        {
          "internalType": "uint256",
          "name": "_stakingPercent",
          "type": "uint256"
        },
        {
          "internalType": "uint256",
          "name": "_dev0Percent",
          "type": "uint256"
        }
      ],
      "name": "setPercent",
      "outputs": [],
      "stateMutability": "nonpayable",
      "type": "function"
    },
    {
      "inputs": [
        {
          "internalType": "uint256",
          "name": "_pid",
          "type": "uint256"
        },
        {
          "internalType": "uint256",
          "name": "_days",
          "type": "uint256"
        }
      ],
      "name": "setStakingEndDays",
      "outputs": [],
      "stateMutability": "nonpayable",
      "type": "function"
    },
    {
      "inputs": [],
      "name": "stakingPercent",
      "outputs": [
        {
          "internalType": "uint256",
          "name": "",
          "type": "uint256"
        }
      ],
      "stateMutability": "view",
      "type": "function"
    },
    {
      "inputs": [],
      "name": "startBlock",
      "outputs": [
        {
          "internalType": "uint256",
          "name": "",
          "type": "uint256"
        }
      ],
      "stateMutability": "view",
      "type": "function"
    },
    {
      "inputs": [],
      "name": "totalAllocPoint",
      "outputs": [
        {
          "internalType": "uint256",
          "name": "",
          "type": "uint256"
        }
      ],
      "stateMutability": "view",
      "type": "function"
    },
    {
      "inputs": [
        {
          "internalType": "address",
          "name": "newOwner",
          "type": "address"
        }
      ],
      "name": "transferOwnership",
      "outputs": [],
      "stateMutability": "nonpayable",
      "type": "function"
    },
    {
      "inputs": [
        {
          "internalType": "uint256",
          "name": "newAmount",
          "type": "uint256"
        }
      ],
      "name": "updateBNCPerBlock",
      "outputs": [],
      "stateMutability": "nonpayable",
      "type": "function"
    },
    {
      "inputs": [
        {
          "internalType": "uint256",
          "name": "_pid",
          "type": "uint256"
        }
      ],
      "name": "updatePool",
      "outputs": [],
      "stateMutability": "nonpayable",
      "type": "function"
    },
    {
      "inputs": [
        {
          "internalType": "uint256",
          "name": "",
          "type": "uint256"
        },
        {
          "internalType": "address",
          "name": "",
          "type": "address"
        }
      ],
      "name": "userInfo",
      "outputs": [
        {
          "internalType": "uint256",
          "name": "amount",
          "type": "uint256"
        },
        {
          "internalType": "uint256",
          "name": "exactRewardCal",
          "type": "uint256"
        },
        {
          "internalType": "uint256",
          "name": "pendingReward",
          "type": "uint256"
        }
      ],
      "stateMutability": "view",
      "type": "function"
    },
    {
      "inputs": [
        {
          "internalType": "uint256",
          "name": "_pid",
          "type": "uint256"
        },
        {
          "internalType": "uint256",
          "name": "_amount",
          "type": "uint256"
        }
      ],
      "name": "withdraw",
      "outputs": [],
      "stateMutability": "nonpayable",
      "type": "function"
    },
    {
      "inputs": [],
      "name": "withdrawDevFee",
      "outputs": [],
      "stateMutability": "nonpayable",
      "type": "function"
    }
  ],
  "bytecode": "0x608060405261271060045560016009555f600e553480156200001f575f80fd5b506040516200347538038062003475833981810160405281019062000045919062000321565b805f73ffffffffffffffffffffffffffffffffffffffff168173ffffffffffffffffffffffffffffffffffffffff1603620000b9575f6040517f1e4fbdf7000000000000000000000000000000000000000000000000000000008152600401620000b09190620003f6565b60405180910390fd5b620000ca81620001c360201b60201c565b50600180819055508760025f6101000a81548173ffffffffffffffffffffffffffffffffffffffff021916908373ffffffffffffffffffffffffffffffffffffffff1602179055508660035f6101000a81548173ffffffffffffffffffffffffffffffffffffffff021916908373ffffffffffffffffffffffffffffffffffffffff1602179055508560075f6101000a81548173ffffffffffffffffffffffffffffffffffffffff021916908373ffffffffffffffffffffffffffffffffffffffff16021790555084600681905550836005819055508260088190555081600f8190555081600a81905550505050505050505062000411565b5f805f9054906101000a900473ffffffffffffffffffffffffffffffffffffffff169050815f806101000a81548173ffffffffffffffffffffffffffffffffffffffff021916908373ffffffffffffffffffffffffffffffffffffffff1602179055508173ffffffffffffffffffffffffffffffffffffffff168173ffffffffffffffffffffffffffffffffffffffff167f8be0079c531659141344cd1fd0a4f28419497f9722a3daafe3b4186f6b6457e060405160405180910390a35050565b5f80fd5b5f73ffffffffffffffffffffffffffffffffffffffff82169050919050565b5f620002b38262000288565b9050919050565b620002c581620002a7565b8114620002d0575f80fd5b50565b5f81519050620002e381620002ba565b92915050565b5f819050919050565b620002fd81620002e9565b811462000308575f80fd5b50565b5f815190506200031b81620002f2565b92915050565b5f805f805f805f80610100898b03121562000341576200034062000284565b5b5f620003508b828c01620002d3565b9850506020620003638b828c01620002d3565b9750506040620003768b828c01620002d3565b9650506060620003898b828c016200030b565b95505060806200039c8b828c016200030b565b94505060a0620003af8b828c016200030b565b93505060c0620003c28b828c016200030b565b92505060e0620003d58b828c01620002d3565b9150509295985092959890939650565b620003f081620002a7565b82525050565b5f6020820190506200040b5f830184620003e5565b92915050565b613056806200041f5f395ff3fe608060405234801561000f575f80fd5b50600436106101ee575f3560e01c80638da5cb5b1161010d578063be1193ea116100a0578063e2bbb1581161006f578063e2bbb15814610538578063e88e0e3a14610554578063f29588c714610572578063f2fde38b14610590576101ee565b8063be1193ea146104d6578063c6a37cb8146104f4578063cb93f7ef14610512578063d0d41fe11461051c576101ee565b8063a5981e7b116100dc578063a5981e7b14610462578063abb762681461047e578063b76e360c1461049a578063bd62a7d9146104b8576101ee565b80638da5cb5b146103c65780638dbb1e3a146103e457806393f1a40b146104145780639586712a14610446576101ee565b806351eb05a61161018557806373d4a13a1161015457806373d4a13a146103525780637709fc4b146103705780638a50bb361461038c5780638aa28550146103a8576101ee565b806351eb05a6146103065780635312ea8e14610322578063630b5ba11461033e578063715018a614610348576101ee565b806321b1aecb116101c157806321b1aecb1461027e578063441a3e701461029c57806348cd4cb1146102b85780634e0f4e9f146102d6576101ee565b8063081e3eda146101f25780631526fe271461021057806317caf6f1146102445780631ab06ee514610262575b5f80fd5b6101fa6105ac565b60405161020791906125a5565b60405180910390f35b61022a600480360381019061022591906125ec565b6105b8565b60405161023b959493929190612691565b60405180910390f35b61024c610618565b60405161025991906125a5565b60405180910390f35b61027c600480360381019061027791906126e2565b61061e565b005b6102866106e5565b60405161029391906125a5565b60405180910390f35b6102b660048036038101906102b191906126e2565b6106eb565b005b6102c0610993565b6040516102cd91906125a5565b60405180910390f35b6102f060048036038101906102eb919061275b565b610999565b6040516102fd91906125a5565b60405180910390f35b610320600480360381019061031b91906125ec565b610bdf565b005b61033c600480360381019061033791906125ec565b610e35565b005b6103466110f0565b005b610350611121565b005b61035a611134565b60405161036791906127b9565b60405180910390f35b61038a600480360381019061038591906125ec565b611159565b005b6103a660048036038101906103a191906125ec565b61123a565b005b6103b06113dc565b6040516103bd91906125a5565b60405180910390f35b6103ce6113e2565b6040516103db91906127e1565b60405180910390f35b6103fe60048036038101906103f991906126e2565b611409565b60405161040b91906125a5565b60405180910390f35b61042e6004803603810190610429919061275b565b61142b565b60405161043d939291906127fa565b60405180910390f35b610460600480360381019061045b919061286a565b61145c565b005b61047c600480360381019061047791906126e2565b611577565b005b610498600480360381019061049391906126e2565b611623565b005b6104a2611705565b6040516104af91906125a5565b60405180910390f35b6104c061170b565b6040516104cd91906125a5565b60405180910390f35b6104de611711565b6040516104eb91906125a5565b60405180910390f35b6104fc611717565b60405161050991906125a5565b60405180910390f35b61051a61171d565b005b610536600480360381019061053191906128a8565b61184d565b005b610552600480360381019061054d91906126e2565b61196a565b005b61055c611c0d565b60405161056991906127e1565b60405180910390f35b61057a611c32565b60405161058791906128f3565b60405180910390f35b6105aa60048036038101906105a591906128a8565b611c57565b005b5f600b80549050905090565b600b81815481106105c7575f80fd5b905f5260205f2090600502015f91509050805f015f9054906101000a900473ffffffffffffffffffffffffffffffffffffffff16908060010154908060020154908060030154908060040154905085565b600e5481565b610626611cdb565b81600b80549050811061066e576040517f08c379a000000000000000000000000000000000000000000000000000000000815260040161066590612966565b60405180910390fd5b6106766110f0565b81600b848154811061068b5761068a612984565b5b905f5260205f20906005020160010154600e546106a891906129de565b6106b29190612a11565b600e8190555081600b84815481106106cd576106cc612984565b5b905f5260205f20906005020160010181905550505050565b60045481565b6106f3611d62565b81600b80549050811061073b576040517f08c379a000000000000000000000000000000000000000000000000000000000815260040161073290612966565b60405180910390fd5b5f600b84815481106107505761074f612984565b5b905f5260205f20906005020190505f600c5f8681526020019081526020015f205f3373ffffffffffffffffffffffffffffffffffffffff1673ffffffffffffffffffffffffffffffffffffffff1681526020019081526020015f20905081600401544210156107f4576040517f08c379a00000000000000000000000000000000000000000000000000000000081526004016107eb90612a8e565b60405180910390fd5b83815f0154101561083a576040517f08c379a000000000000000000000000000000000000000000000000000000000815260040161083190612af6565b60405180910390fd5b61084385610bdf565b61084d8533611da8565b5f84111561090a5783815f015461086491906129de565b815f0181905550815f015f9054906101000a900473ffffffffffffffffffffffffffffffffffffffff1673ffffffffffffffffffffffffffffffffffffffff1663a9059cbb33866040518363ffffffff1660e01b81526004016108c8929190612b14565b6020604051808303815f875af11580156108e4573d5f803e3d5ffd5b505050506040513d601f19601f820116820180604052508101906109089190612b70565b505b64e8d4a510008260030154825f01546109239190612b9b565b61092d9190612c09565b8160010181905550843373ffffffffffffffffffffffffffffffffffffffff167ff279e6a1f5e320cca91135676d9cb6e44ca8a08c0b88342bcdb1144f6511b5688660405161097c91906125a5565b60405180910390a350505061098f611ec0565b5050565b600f5481565b5f82600b8054905081106109e2576040517f08c379a00000000000000000000000000000000000000000000000000000000081526004016109d990612966565b60405180910390fd5b5f600b85815481106109f7576109f6612984565b5b905f5260205f20906005020190505f600c5f8781526020019081526020015f205f8673ffffffffffffffffffffffffffffffffffffffff1673ffffffffffffffffffffffffffffffffffffffff1681526020019081526020015f2090505f826003015490505f835f015f9054906101000a900473ffffffffffffffffffffffffffffffffffffffff1673ffffffffffffffffffffffffffffffffffffffff166370a08231306040518263ffffffff1660e01b8152600401610ab891906127e1565b602060405180830381865afa158015610ad3573d5f803e3d5ffd5b505050506040513d601f19601f82011682018060405250810190610af79190612c4d565b9050836002015443118015610b0c57505f8114155b15610b95575f610b20856002015443611409565b90505f600454600554600e54886001015460085486610b3f9190612b9b565b610b499190612b9b565b610b539190612c09565b610b5d9190612b9b565b610b679190612c09565b90508264e8d4a5100082610b7b9190612b9b565b610b859190612c09565b84610b909190612a11565b935050505b826001015464e8d4a5100083855f0154610baf9190612b9b565b610bb99190612c09565b8460020154610bc89190612a11565b610bd291906129de565b9550505050505092915050565b80600b805490508110610c27576040517f08c379a0000000000000000000000000000000000000000000000000000000008152600401610c1e90612966565b60405180910390fd5b5f600b8381548110610c3c57610c3b612984565b5b905f5260205f209060050201905080600201544311610c5b5750610e31565b5f815f015f9054906101000a900473ffffffffffffffffffffffffffffffffffffffff1673ffffffffffffffffffffffffffffffffffffffff166370a08231306040518263ffffffff1660e01b8152600401610cb791906127e1565b602060405180830381865afa158015610cd2573d5f803e3d5ffd5b505050506040513d601f19601f82011682018060405250810190610cf69190612c4d565b90505f8111610d0f574382600201819055505050610e31565b5f610d1e836002015443611409565b90505f600454600554600e54866001015460085486610d3d9190612b9b565b610d479190612b9b565b610d519190612c09565b610d5b9190612b9b565b610d659190612c09565b905060025f9054906101000a900473ffffffffffffffffffffffffffffffffffffffff1673ffffffffffffffffffffffffffffffffffffffff16634e6ec24730836040518363ffffffff1660e01b8152600401610dc3929190612b14565b5f604051808303815f87803b158015610dda575f80fd5b505af1158015610dec573d5f803e3d5ffd5b505050508264e8d4a5100082610e029190612b9b565b610e0c9190612c09565b8460030154610e1b9190612a11565b8460030181905550438460020181905550505050505b5050565b610e3d611d62565b80600b805490508110610e85576040517f08c379a0000000000000000000000000000000000000000000000000000000008152600401610e7c90612966565b60405180910390fd5b5f600b8381548110610e9a57610e99612984565b5b905f5260205f20906005020190505f600c5f8581526020019081526020015f205f3373ffffffffffffffffffffffffffffffffffffffff1673ffffffffffffffffffffffffffffffffffffffff1681526020019081526020015f209050815f015f9054906101000a900473ffffffffffffffffffffffffffffffffffffffff1673ffffffffffffffffffffffffffffffffffffffff1663a9059cbb33835f01546040518363ffffffff1660e01b8152600401610f57929190612b14565b6020604051808303815f875af1158015610f73573d5f803e3d5ffd5b505050506040513d601f19601f82011682018060405250810190610f979190612b70565b50833373ffffffffffffffffffffffffffffffffffffffff167fbb757047c2b5f3974fe26b7c10f732e7bce710b0952a71082702781e62ae0595835f0154604051610fe291906125a5565b60405180910390a35f816002015490505f825f0154845f015f9054906101000a900473ffffffffffffffffffffffffffffffffffffffff1673ffffffffffffffffffffffffffffffffffffffff166370a08231306040518263ffffffff1660e01b815260040161105291906127e1565b602060405180830381865afa15801561106d573d5f803e3d5ffd5b505050506040513d601f19601f820116820180604052508101906110919190612c4d565b61109b91906129de565b90505f811180156110ab57505f82115b156110bc576110bb868383611ec9565b5b5f835f01819055505f83600101819055505f83600201819055506110e08633612035565b50505050506110ed611ec0565b50565b5f600b8054905090505f5b8181101561111d5761110c81610bdf565b8061111690612c78565b90506110fb565b5050565b611129611cdb565b6111325f612204565b565b60035f9054906101000a900473ffffffffffffffffffffffffffffffffffffffff1681565b611161611cdb565b68056bc75e2d631000008111156111ad576040517f08c379a00000000000000000000000000000000000000000000000000000000081526004016111a490612d09565b60405180910390fd5b66038d7ea4c680008110156111f7576040517f08c379a00000000000000000000000000000000000000000000000000000000081526004016111ee90612d71565b60405180910390fd5b806008819055507f1e19929b3cb970f6d66d05a2698000db2ac7eafe495aee2c6c32bd7960a97ead60085460405161122f91906125a5565b60405180910390a150565b611242611d62565b80600b80549050811061128a576040517f08c379a000000000000000000000000000000000000000000000000000000000815260040161128190612966565b60405180910390fd5b61129382610bdf565b61129d8233611da8565b5f600c5f8481526020019081526020015f205f3373ffffffffffffffffffffffffffffffffffffffff1673ffffffffffffffffffffffffffffffffffffffff1681526020019081526020015f2090505f600b848154811061130157611300612984565b5b905f5260205f20906005020190508060040154421015611356576040517f08c379a000000000000000000000000000000000000000000000000000000000815260040161134d90612a8e565b60405180910390fd5b5f826002015411156113ce575f826002015490505f836002018190555061137d33826122c5565b843373ffffffffffffffffffffffffffffffffffffffff167f9da87e8cce29a4140e89780f6e64e0b1cd58e4fa1cb5ee53effe97264f290c6c836040516113c491906125a5565b60405180910390a3505b5050506113d9611ec0565b50565b60095481565b5f805f9054906101000a900473ffffffffffffffffffffffffffffffffffffffff16905090565b5f600954836114189190612b9b565b8261142391906129de565b905092915050565b600c602052815f5260405f20602052805f5260405f205f9150915050805f0154908060010154908060020154905083565b611464611cdb565b61146d816124ae565b6114756110f0565b5f600f5443106114855743611489565b600f545b905082600e546114999190612a11565b600e81905550600b6040518060a001604052808473ffffffffffffffffffffffffffffffffffffffff1681526020018581526020018381526020015f81526020015f815250908060018154018082558091505060019003905f5260205f2090600502015f909190919091505f820151815f015f6101000a81548173ffffffffffffffffffffffffffffffffffffffff021916908373ffffffffffffffffffffffffffffffffffffffff160217905550602082015181600101556040820151816002015560608201518160030155608082015181600401555050505050565b61157f611cdb565b5f81905060045481846115929190612a11565b11156115d3576040517f08c379a00000000000000000000000000000000000000000000000000000000081526004016115ca90612dd9565b60405180910390fd5b82600581905550816006819055507fcbd554161f22a88862569b669f84507adc410008353e0a023297d3ea419126f7600554600654604051611616929190612df7565b60405180910390a1505050565b61162b611cdb565b81600b805490508110611673576040517f08c379a000000000000000000000000000000000000000000000000000000000815260040161166a90612966565b60405180910390fd5b5f600b848154811061168857611687612984565b5b905f5260205f20906005020190505f62015180846116a69190612b9b565b426116b19190612a11565b90504281116116f5576040517f08c379a00000000000000000000000000000000000000000000000000000000081526004016116ec90612e68565b60405180910390fd5b8082600401819055505050505050565b600a5481565b60065481565b60055481565b60085481565b43600a5410611761576040517f08c379a000000000000000000000000000000000000000000000000000000000815260040161175890612ed0565b60405180910390fd5b5f600854600a544361177391906129de565b61177d9190612b9b565b905060025f9054906101000a900473ffffffffffffffffffffffffffffffffffffffff1673ffffffffffffffffffffffffffffffffffffffff16634e6ec24760075f9054906101000a900473ffffffffffffffffffffffffffffffffffffffff16600454600654856117ef9190612b9b565b6117f99190612c09565b6040518363ffffffff1660e01b8152600401611816929190612b14565b5f604051808303815f87803b15801561182d575f80fd5b505af115801561183f573d5f803e3d5ffd5b5050505043600a8190555050565b611855611cdb565b5f73ffffffffffffffffffffffffffffffffffffffff168173ffffffffffffffffffffffffffffffffffffffff16036118c3576040517f08c379a00000000000000000000000000000000000000000000000000000000081526004016118ba90612f38565b60405180910390fd5b8060075f6101000a81548173ffffffffffffffffffffffffffffffffffffffff021916908373ffffffffffffffffffffffffffffffffffffffff16021790555060075f9054906101000a900473ffffffffffffffffffffffffffffffffffffffff1673ffffffffffffffffffffffffffffffffffffffff167fb1c7911ca1455735ffd17fec398b65f34157a7b58831b586878f5d3c2cf44ee260405160405180910390a250565b611972611d62565b81600b8054905081106119ba576040517f08c379a00000000000000000000000000000000000000000000000000000000081526004016119b190612966565b60405180910390fd5b5f600b84815481106119cf576119ce612984565b5b905f5260205f20906005020190505f600c5f8681526020019081526020015f205f3373ffffffffffffffffffffffffffffffffffffffff1673ffffffffffffffffffffffffffffffffffffffff1681526020019081526020015f209050611a3585610bdf565b611a3f8533611da8565b5f841115611afe57815f015f9054906101000a900473ffffffffffffffffffffffffffffffffffffffff1673ffffffffffffffffffffffffffffffffffffffff166323b872dd3330876040518463ffffffff1660e01b8152600401611aa693929190612f56565b6020604051808303815f875af1158015611ac2573d5f803e3d5ffd5b505050506040513d601f19601f82011682018060405250810190611ae69190612b70565b5083815f0154611af69190612a11565b815f01819055505b5f84118015611b0f57505f815f0154145b15611b8457600d5f8681526020019081526020015f2033908060018154018082558091505060019003905f5260205f20015f9091909190916101000a81548173ffffffffffffffffffffffffffffffffffffffff021916908373ffffffffffffffffffffffffffffffffffffffff1602179055505b64e8d4a510008260030154825f0154611b9d9190612b9b565b611ba79190612c09565b8160010181905550843373ffffffffffffffffffffffffffffffffffffffff167f90890809c654f11d6e72a28fa60149770a0d11ec6c92319d6ceb2bb0a4ea1a1586604051611bf691906125a5565b60405180910390a3505050611c09611ec0565b5050565b60075f9054906101000a900473ffffffffffffffffffffffffffffffffffffffff1681565b60025f9054906101000a900473ffffffffffffffffffffffffffffffffffffffff1681565b611c5f611cdb565b5f73ffffffffffffffffffffffffffffffffffffffff168173ffffffffffffffffffffffffffffffffffffffff1603611ccf575f6040517f1e4fbdf7000000000000000000000000000000000000000000000000000000008152600401611cc691906127e1565b60405180910390fd5b611cd881612204565b50565b611ce3612586565b73ffffffffffffffffffffffffffffffffffffffff16611d016113e2565b73ffffffffffffffffffffffffffffffffffffffff1614611d6057611d24612586565b6040517f118cdaa7000000000000000000000000000000000000000000000000000000008152600401611d5791906127e1565b60405180910390fd5b565b600260015403611d9e576040517f3ee5aeb500000000000000000000000000000000000000000000000000000000815260040160405180910390fd5b6002600181905550565b81600b805490508110611df0576040517f08c379a0000000000000000000000000000000000000000000000000000000008152600401611de790612966565b60405180910390fd5b5f600b8481548110611e0557611e04612984565b5b905f5260205f20906005020190505f600c5f8681526020019081526020015f205f8573ffffffffffffffffffffffffffffffffffffffff1673ffffffffffffffffffffffffffffffffffffffff1681526020019081526020015f2090505f816001015464e8d4a510008460030154845f0154611e819190612b9b565b611e8b9190612c09565b611e9591906129de565b90505f811115611eb857808260020154611eaf9190612a11565b82600201819055505b505050505050565b60018081905550565b5f600d5f8581526020019081526020015f208054905090505f5b81811015611ff3575f600d5f8781526020019081526020015f208281548110611f0f57611f0e612984565b5b905f5260205f20015f9054906101000a900473ffffffffffffffffffffffffffffffffffffffff1690505f600c5f8881526020019081526020015f205f8373ffffffffffffffffffffffffffffffffffffffff1673ffffffffffffffffffffffffffffffffffffffff1681526020019081526020015f2090505f8564e8d4a51000835f0154611f9e9190612b9b565b611fa89190612c09565b905064e8d4a510008188611fbc9190612b9b565b611fc69190612c09565b826002015f828254611fd89190612a11565b9250508190555050505080611fec90612c78565b9050611ee3565b507f2b3815017a53df0f7a02daff8930fa0330e6091a501c5de817e0df95894bab1d848484604051612027939291906127fa565b60405180910390a150505050565b5f600d5f8481526020019081526020015f208054905090505f5b818110156121fe578273ffffffffffffffffffffffffffffffffffffffff16600d5f8681526020019081526020015f20828154811061209157612090612984565b5b905f5260205f20015f9054906101000a900473ffffffffffffffffffffffffffffffffffffffff1673ffffffffffffffffffffffffffffffffffffffff16036121eb57600d5f8581526020019081526020015f206001836120f291906129de565b8154811061210357612102612984565b5b905f5260205f20015f9054906101000a900473ffffffffffffffffffffffffffffffffffffffff16600d5f8681526020019081526020015f20828154811061214e5761214d612984565b5b905f5260205f20015f6101000a81548173ffffffffffffffffffffffffffffffffffffffff021916908373ffffffffffffffffffffffffffffffffffffffff160217905550600d5f8581526020019081526020015f208054806121b4576121b3612f8b565b5b600190038181905f5260205f20015f6101000a81549073ffffffffffffffffffffffffffffffffffffffff021916905590556121fe565b80806121f690612c78565b91505061204f565b50505050565b5f805f9054906101000a900473ffffffffffffffffffffffffffffffffffffffff169050815f806101000a81548173ffffffffffffffffffffffffffffffffffffffff021916908373ffffffffffffffffffffffffffffffffffffffff1602179055508173ffffffffffffffffffffffffffffffffffffffff168173ffffffffffffffffffffffffffffffffffffffff167f8be0079c531659141344cd1fd0a4f28419497f9722a3daafe3b4186f6b6457e060405160405180910390a35050565b5f60025f9054906101000a900473ffffffffffffffffffffffffffffffffffffffff1673ffffffffffffffffffffffffffffffffffffffff166327e235e3306040518263ffffffff1660e01b815260040161232091906127e1565b602060405180830381865afa15801561233b573d5f803e3d5ffd5b505050506040513d601f19601f8201168201806040525081019061235f9190612c4d565b90508082111561240b5760025f9054906101000a900473ffffffffffffffffffffffffffffffffffffffff1673ffffffffffffffffffffffffffffffffffffffff1663a9059cbb84836040518363ffffffff1660e01b81526004016123c5929190612b14565b6020604051808303815f875af11580156123e1573d5f803e3d5ffd5b505050506040513d601f19601f820116820180604052508101906124059190612b70565b506124a9565b60025f9054906101000a900473ffffffffffffffffffffffffffffffffffffffff1673ffffffffffffffffffffffffffffffffffffffff1663a9059cbb84846040518363ffffffff1660e01b8152600401612467929190612b14565b6020604051808303815f875af1158015612483573d5f803e3d5ffd5b505050506040513d601f19601f820116820180604052508101906124a79190612b70565b505b505050565b5f600b8054905090505f5b81811015612581578273ffffffffffffffffffffffffffffffffffffffff16600b82815481106124ec576124eb612984565b5b905f5260205f2090600502015f015f9054906101000a900473ffffffffffffffffffffffffffffffffffffffff1673ffffffffffffffffffffffffffffffffffffffff1603612570576040517f08c379a000000000000000000000000000000000000000000000000000000000815260040161256790613002565b60405180910390fd5b8061257a90612c78565b90506124b9565b505050565b5f33905090565b5f819050919050565b61259f8161258d565b82525050565b5f6020820190506125b85f830184612596565b92915050565b5f80fd5b6125cb8161258d565b81146125d5575f80fd5b50565b5f813590506125e6816125c2565b92915050565b5f60208284031215612601576126006125be565b5b5f61260e848285016125d8565b91505092915050565b5f73ffffffffffffffffffffffffffffffffffffffff82169050919050565b5f819050919050565b5f61265961265461264f84612617565b612636565b612617565b9050919050565b5f61266a8261263f565b9050919050565b5f61267b82612660565b9050919050565b61268b81612671565b82525050565b5f60a0820190506126a45f830188612682565b6126b16020830187612596565b6126be6040830186612596565b6126cb6060830185612596565b6126d86080830184612596565b9695505050505050565b5f80604083850312156126f8576126f76125be565b5b5f612705858286016125d8565b9250506020612716858286016125d8565b9150509250929050565b5f61272a82612617565b9050919050565b61273a81612720565b8114612744575f80fd5b50565b5f8135905061275581612731565b92915050565b5f8060408385031215612771576127706125be565b5b5f61277e858286016125d8565b925050602061278f85828601612747565b9150509250929050565b5f6127a382612660565b9050919050565b6127b381612799565b82525050565b5f6020820190506127cc5f8301846127aa565b92915050565b6127db81612720565b82525050565b5f6020820190506127f45f8301846127d2565b92915050565b5f60608201905061280d5f830186612596565b61281a6020830185612596565b6128276040830184612596565b949350505050565b5f61283982612720565b9050919050565b6128498161282f565b8114612853575f80fd5b50565b5f8135905061286481612840565b92915050565b5f80604083850312156128805761287f6125be565b5b5f61288d858286016125d8565b925050602061289e85828601612856565b9150509250929050565b5f602082840312156128bd576128bc6125be565b5b5f6128ca84828501612747565b91505092915050565b5f6128dd82612660565b9050919050565b6128ed816128d3565b82525050565b5f6020820190506129065f8301846128e4565b92915050565b5f82825260208201905092915050565b7f706f6f6c206e6f742065786973740000000000000000000000000000000000005f82015250565b5f612950600e8361290c565b915061295b8261291c565b602082019050919050565b5f6020820190508181035f83015261297d81612944565b9050919050565b7f4e487b71000000000000000000000000000000000000000000000000000000005f52603260045260245ffd5b7f4e487b71000000000000000000000000000000000000000000000000000000005f52601160045260245ffd5b5f6129e88261258d565b91506129f38361258d565b9250828203905081811115612a0b57612a0a6129b1565b5b92915050565b5f612a1b8261258d565b9150612a268361258d565b9250828201905080821115612a3e57612a3d6129b1565b5b92915050565b7f5374616b696e6720706572696f64206e6f742079657420656e646564000000005f82015250565b5f612a78601c8361290c565b9150612a8382612a44565b602082019050919050565b5f6020820190508181035f830152612aa581612a6c565b9050919050565b7f77697468647261773a206e6f7420676f6f6400000000000000000000000000005f82015250565b5f612ae060128361290c565b9150612aeb82612aac565b602082019050919050565b5f6020820190508181035f830152612b0d81612ad4565b9050919050565b5f604082019050612b275f8301856127d2565b612b346020830184612596565b9392505050565b5f8115159050919050565b612b4f81612b3b565b8114612b59575f80fd5b50565b5f81519050612b6a81612b46565b92915050565b5f60208284031215612b8557612b846125be565b5b5f612b9284828501612b5c565b91505092915050565b5f612ba58261258d565b9150612bb08361258d565b9250828202612bbe8161258d565b91508282048414831517612bd557612bd46129b1565b5b5092915050565b7f4e487b71000000000000000000000000000000000000000000000000000000005f52601260045260245ffd5b5f612c138261258d565b9150612c1e8361258d565b925082612c2e57612c2d612bdc565b5b828204905092915050565b5f81519050612c47816125c2565b92915050565b5f60208284031215612c6257612c616125be565b5b5f612c6f84828501612c39565b91505092915050565b5f612c828261258d565b91507fffffffffffffffffffffffffffffffffffffffffffffffffffffffffffffffff8203612cb457612cb36129b1565b5b600182019050919050565b7f4d61782070657220626c6f636b2031303020424e4300000000000000000000005f82015250565b5f612cf360158361290c565b9150612cfe82612cbf565b602082019050919050565b5f6020820190508181035f830152612d2081612ce7565b9050919050565b7f4d696e2070657220626c6f636b20302e30303120424e430000000000000000005f82015250565b5f612d5b60178361290c565b9150612d6682612d27565b602082019050919050565b5f6020820190508181035f830152612d8881612d4f565b9050919050565b7f50657263656e742053756d0000000000000000000000000000000000000000005f82015250565b5f612dc3600b8361290c565b9150612dce82612d8f565b602082019050919050565b5f6020820190508181035f830152612df081612db7565b9050919050565b5f604082019050612e0a5f830185612596565b612e176020830184612596565b9392505050565b7f456e642054696d65206d75737420626520696e207468652066757475726500005f82015250565b5f612e52601e8361290c565b9150612e5d82612e1e565b602082019050919050565b5f6020820190508181035f830152612e7f81612e46565b9050919050565b7f7761697420666f72206e657720626c6f636b00000000000000000000000000005f82015250565b5f612eba60128361290c565b9150612ec582612e86565b602082019050919050565b5f6020820190508181035f830152612ee781612eae565b9050919050565b7f5a65726f000000000000000000000000000000000000000000000000000000005f82015250565b5f612f2260048361290c565b9150612f2d82612eee565b602082019050919050565b5f6020820190508181035f830152612f4f81612f16565b9050919050565b5f606082019050612f695f8301866127d2565b612f7660208301856127d2565b612f836040830184612596565b949350505050565b7f4e487b71000000000000000000000000000000000000000000000000000000005f52603160045260245ffd5b7f706f6f6c206578697374656400000000000000000000000000000000000000005f82015250565b5f612fec600c8361290c565b9150612ff782612fb8565b602082019050919050565b5f6020820190508181035f83015261301981612fe0565b905091905056fea2646970667358221220af3d9afe87969936baa7e7dcf10a6aa3d049ce9e9d49c93c640775703f1dcc6464736f6c63430008140033",
  "linkReferences": {},
  "deployedLinkReferences": {}
}