{
  "_format": "hh-sol-artifact-1",
  "contractName": "Staking",
  "sourceName": "contracts/contract/Staking.sol",
  "abi": [
    {
      "inputs": [
        {
          "internalType": "address",
          "name": "_BNCToken",
          "type": "address"
        },
        {
          "internalType": "address",
          "name": "_dev0Addr",
          "type": "address"
        },
        {
          "internalType": "uint256",
          "name": "_dev0Percent",
          "type": "uint256"
        },
        {
          "internalType": "uint256",
          "name": "_stakingPercent",
          "type": "uint256"
        },
        {
          "internalType": "uint256",
          "name": "_BNCPerBlock",
          "type": "uint256"
        },
        {
          "internalType": "uint256",
          "name": "_startBlock",
          "type": "uint256"
        },
        {
          "internalType": "address",
          "name": "_initialOwner",
          "type": "address"
        }
      ],
      "stateMutability": "nonpayable",
      "type": "constructor"
    },
    {
      "inputs": [
        {
          "internalType": "address",
          "name": "owner",
          "type": "address"
        }
      ],
      "name": "OwnableInvalidOwner",
      "type": "error"
    },
    {
      "inputs": [
        {
          "internalType": "address",
          "name": "account",
          "type": "address"
        }
      ],
      "name": "OwnableUnauthorizedAccount",
      "type": "error"
    },
    {
      "inputs": [],
      "name": "ReentrancyGuardReentrantCall",
      "type": "error"
    },
    {
      "anonymous": false,
      "inputs": [
        {
          "indexed": false,
          "internalType": "uint256",
          "name": "_allocPoint",
          "type": "uint256"
        },
        {
          "indexed": false,
          "internalType": "address",
          "name": "_lpToken",
          "type": "address"
        },
        {
          "indexed": false,
          "internalType": "uint256",
          "name": "stakingPoolStartTime",
          "type": "uint256"
        },
        {
          "indexed": false,
          "internalType": "uint256",
          "name": "stakingEndTime",
          "type": "uint256"
        }
      ],
      "name": "AddStakingPool",
      "type": "event"
    },
    {
      "anonymous": false,
      "inputs": [
        {
          "indexed": true,
          "internalType": "address",
          "name": "user",
          "type": "address"
        },
        {
          "indexed": true,
          "internalType": "uint256",
          "name": "pid",
          "type": "uint256"
        },
        {
          "indexed": false,
          "internalType": "uint256",
          "name": "amount",
          "type": "uint256"
        }
      ],
      "name": "ClaimBNC",
      "type": "event"
    },
    {
      "anonymous": false,
      "inputs": [
        {
          "indexed": true,
          "internalType": "address",
          "name": "user",
          "type": "address"
        },
        {
          "indexed": true,
          "internalType": "uint256",
          "name": "pid",
          "type": "uint256"
        },
        {
          "indexed": false,
          "internalType": "uint256",
          "name": "amount",
          "type": "uint256"
        },
        {
          "indexed": false,
          "internalType": "uint256",
          "name": "stakingStartTime",
          "type": "uint256"
        }
      ],
      "name": "Deposit",
      "type": "event"
    },
    {
      "anonymous": false,
      "inputs": [
        {
          "indexed": false,
          "internalType": "uint256",
          "name": "_pid",
          "type": "uint256"
        },
        {
          "indexed": false,
          "internalType": "uint256",
          "name": "pendingReward",
          "type": "uint256"
        },
        {
          "indexed": false,
          "internalType": "uint256",
          "name": "totalStaked",
          "type": "uint256"
        }
      ],
      "name": "DistributeRewards",
      "type": "event"
    },
    {
      "anonymous": false,
      "inputs": [
        {
          "indexed": true,
          "internalType": "address",
          "name": "user",
          "type": "address"
        },
        {
          "indexed": true,
          "internalType": "uint256",
          "name": "pid",
          "type": "uint256"
        },
        {
          "indexed": false,
          "internalType": "uint256",
          "name": "amount",
          "type": "uint256"
        }
      ],
      "name": "EmergencyWithdraw",
      "type": "event"
    },
    {
      "anonymous": false,
      "inputs": [
        {
          "indexed": false,
          "internalType": "address",
          "name": "user",
          "type": "address"
        },
        {
          "indexed": false,
          "internalType": "uint256",
          "name": "pid",
          "type": "uint256"
        },
        {
          "indexed": false,
          "internalType": "uint256",
          "name": "LP",
          "type": "uint256"
        },
        {
          "indexed": false,
          "internalType": "uint256",
          "name": "BNC",
          "type": "uint256"
        }
      ],
      "name": "MaturedWithdrawWithdraw",
      "type": "event"
    },
    {
      "anonymous": false,
      "inputs": [
        {
          "indexed": false,
          "internalType": "uint256",
          "name": "_pendingBNC",
          "type": "uint256"
        },
        {
          "indexed": false,
          "internalType": "uint256",
          "name": "_userBlockRewardPerBlock",
          "type": "uint256"
        },
        {
          "indexed": false,
          "internalType": "uint256",
          "name": "_estimatedUserRewardFromNinjs",
          "type": "uint256"
        }
      ],
      "name": "MyAllReward",
      "type": "event"
    },
    {
      "anonymous": false,
      "inputs": [
        {
          "indexed": false,
          "internalType": "address",
          "name": "_Ninja",
          "type": "address"
        },
        {
          "indexed": false,
          "internalType": "uint256",
          "name": "_totalLPToken",
          "type": "uint256"
        },
        {
          "indexed": false,
          "internalType": "uint256",
          "name": "_totalNinjaReward",
          "type": "uint256"
        },
        {
          "indexed": false,
          "internalType": "uint256",
          "name": "_stakingLeftTime",
          "type": "uint256"
        },
        {
          "indexed": false,
          "internalType": "uint256",
          "name": "_ninjaRewardRate",
          "type": "uint256"
        }
      ],
      "name": "NinjaLiftInfo",
      "type": "event"
    },
    {
      "anonymous": false,
      "inputs": [
        {
          "indexed": true,
          "internalType": "address",
          "name": "previousOwner",
          "type": "address"
        },
        {
          "indexed": true,
          "internalType": "address",
          "name": "newOwner",
          "type": "address"
        }
      ],
      "name": "OwnershipTransferred",
      "type": "event"
    },
    {
      "anonymous": false,
      "inputs": [
        {
          "indexed": true,
          "internalType": "address",
          "name": "dev0Addr",
          "type": "address"
        }
      ],
      "name": "SetDev0Address",
      "type": "event"
    },
    {
      "anonymous": false,
      "inputs": [
        {
          "indexed": false,
          "internalType": "uint256",
          "name": "stakingPercent",
          "type": "uint256"
        },
        {
          "indexed": false,
          "internalType": "uint256",
          "name": "dev0Percent",
          "type": "uint256"
        }
      ],
      "name": "SetPercent",
      "type": "event"
    },
    {
      "anonymous": false,
      "inputs": [
        {
          "indexed": false,
          "internalType": "uint256",
          "name": "BNCPerBlock",
          "type": "uint256"
        }
      ],
      "name": "UpdateBNCPerBlock",
      "type": "event"
    },
    {
      "anonymous": false,
      "inputs": [
        {
          "indexed": true,
          "internalType": "address",
          "name": "user",
          "type": "address"
        },
        {
          "indexed": true,
          "internalType": "uint256",
          "name": "pid",
          "type": "uint256"
        },
        {
          "indexed": false,
          "internalType": "uint256",
          "name": "amount",
          "type": "uint256"
        }
      ],
      "name": "Withdraw",
      "type": "event"
    },
    {
      "inputs": [],
      "name": "AlltotalNinjaReward",
      "outputs": [
        {
          "internalType": "uint256",
          "name": "",
          "type": "uint256"
        }
      ],
      "stateMutability": "view",
      "type": "function"
    },
    {
      "inputs": [],
      "name": "BNC",
      "outputs": [
        {
          "internalType": "contract WBNC",
          "name": "",
          "type": "address"
        }
      ],
      "stateMutability": "view",
      "type": "function"
    },
    {
      "inputs": [],
      "name": "BNCPerBlock",
      "outputs": [
        {
          "internalType": "uint256",
          "name": "",
          "type": "uint256"
        }
      ],
      "stateMutability": "view",
      "type": "function"
    },
    {
      "inputs": [],
      "name": "BONUS_MULTIPLIER",
      "outputs": [
        {
          "internalType": "uint256",
          "name": "",
          "type": "uint256"
        }
      ],
      "stateMutability": "view",
      "type": "function"
    },
    {
      "inputs": [
        {
          "internalType": "uint256",
          "name": "_allocPoint",
          "type": "uint256"
        },
        {
          "internalType": "address",
          "name": "_lpToken",
          "type": "address"
        },
        {
          "internalType": "uint256",
          "name": "_endDays",
          "type": "uint256"
        }
      ],
      "name": "addStakingPool",
      "outputs": [],
      "stateMutability": "nonpayable",
      "type": "function"
    },
    {
      "inputs": [
        {
          "internalType": "uint256",
          "name": "_pid",
          "type": "uint256"
        }
      ],
      "name": "claimBNC",
      "outputs": [],
      "stateMutability": "nonpayable",
      "type": "function"
    },
    {
      "inputs": [
        {
          "internalType": "uint256",
          "name": "_pid",
          "type": "uint256"
        },
        {
          "internalType": "uint256",
          "name": "_amount",
          "type": "uint256"
        }
      ],
      "name": "deposit",
      "outputs": [],
      "stateMutability": "nonpayable",
      "type": "function"
    },
    {
      "inputs": [],
      "name": "dev0Addr",
      "outputs": [
        {
          "internalType": "address",
          "name": "",
          "type": "address"
        }
      ],
      "stateMutability": "view",
      "type": "function"
    },
    {
      "inputs": [],
      "name": "dev0Percent",
      "outputs": [
        {
          "internalType": "uint256",
          "name": "",
          "type": "uint256"
        }
      ],
      "stateMutability": "view",
      "type": "function"
    },
    {
      "inputs": [
        {
          "internalType": "uint256",
          "name": "_pid",
          "type": "uint256"
        }
      ],
      "name": "emergencyWithdraw",
      "outputs": [],
      "stateMutability": "nonpayable",
      "type": "function"
    },
    {
      "inputs": [
        {
          "internalType": "uint256",
          "name": "_pid",
          "type": "uint256"
        },
        {
          "internalType": "address",
          "name": "_user",
          "type": "address"
        }
      ],
      "name": "estimatedUserRewardFromNinjs",
      "outputs": [
        {
          "internalType": "uint256",
          "name": "",
          "type": "uint256"
        }
      ],
      "stateMutability": "view",
      "type": "function"
    },
    {
      "inputs": [
        {
          "internalType": "uint256",
          "name": "_pid",
          "type": "uint256"
        },
        {
          "internalType": "address",
          "name": "_user",
          "type": "address"
        }
      ],
      "name": "getAccBNCPerShareFromUser",
      "outputs": [
        {
          "internalType": "uint256",
          "name": "",
          "type": "uint256"
        }
      ],
      "stateMutability": "view",
      "type": "function"
    },
    {
      "inputs": [],
      "name": "getAllTotalNinjaReward",
      "outputs": [
        {
          "internalType": "uint256",
          "name": "",
          "type": "uint256"
        }
      ],
      "stateMutability": "view",
      "type": "function"
    },
    {
      "inputs": [
        {
          "internalType": "uint256",
          "name": "_lasttotalNinjaRewardRate",
          "type": "uint256"
        }
      ],
      "name": "getLastNinjaRewardInfo",
      "outputs": [
        {
          "internalType": "uint256",
          "name": "",
          "type": "uint256"
        }
      ],
      "stateMutability": "pure",
      "type": "function"
    },
    {
      "inputs": [
        {
          "internalType": "uint256",
          "name": "_from",
          "type": "uint256"
        },
        {
          "internalType": "uint256",
          "name": "_to",
          "type": "uint256"
        }
      ],
      "name": "getMultiplier",
      "outputs": [
        {
          "internalType": "uint256",
          "name": "",
          "type": "uint256"
        }
      ],
      "stateMutability": "view",
      "type": "function"
    },
    {
      "inputs": [
        {
          "internalType": "uint256",
          "name": "_pid",
          "type": "uint256"
        }
      ],
      "name": "getStakingUsers",
      "outputs": [
        {
          "internalType": "address[]",
          "name": "",
          "type": "address[]"
        }
      ],
      "stateMutability": "view",
      "type": "function"
    },
    {
      "inputs": [],
      "name": "lastBlockDevWithdraw",
      "outputs": [
        {
          "internalType": "uint256",
          "name": "",
          "type": "uint256"
        }
      ],
      "stateMutability": "view",
      "type": "function"
    },
    {
      "inputs": [],
      "name": "massUpdatePools",
      "outputs": [],
      "stateMutability": "nonpayable",
      "type": "function"
    },
    {
      "inputs": [
        {
          "internalType": "uint256",
          "name": "_pid",
          "type": "uint256"
        }
      ],
      "name": "maturedWithdraw",
      "outputs": [],
      "stateMutability": "nonpayable",
      "type": "function"
    },
    {
      "inputs": [
        {
          "internalType": "uint256",
          "name": "_pid",
          "type": "uint256"
        },
        {
          "internalType": "address",
          "name": "_user",
          "type": "address"
        }
      ],
      "name": "myAllReward",
      "outputs": [
        {
          "internalType": "uint256",
          "name": "",
          "type": "uint256"
        },
        {
          "internalType": "uint256",
          "name": "",
          "type": "uint256"
        },
        {
          "internalType": "uint256",
          "name": "",
          "type": "uint256"
        }
      ],
      "stateMutability": "view",
      "type": "function"
    },
    {
      "inputs": [
        {
          "internalType": "uint256",
          "name": "",
          "type": "uint256"
        },
        {
          "internalType": "address",
          "name": "",
          "type": "address"
        }
      ],
      "name": "ninjaInfo",
      "outputs": [
        {
          "internalType": "uint256",
          "name": "totalLPToken",
          "type": "uint256"
        },
        {
          "internalType": "uint256",
          "name": "totalNinjaReward",
          "type": "uint256"
        },
        {
          "internalType": "uint256",
          "name": "stakingLeftTime",
          "type": "uint256"
        }
      ],
      "stateMutability": "view",
      "type": "function"
    },
    {
      "inputs": [],
      "name": "owner",
      "outputs": [
        {
          "internalType": "address",
          "name": "",
          "type": "address"
        }
      ],
      "stateMutability": "view",
      "type": "function"
    },
    {
      "inputs": [
        {
          "internalType": "uint256",
          "name": "_pid",
          "type": "uint256"
        },
        {
          "internalType": "address",
          "name": "_user",
          "type": "address"
        }
      ],
      "name": "pendingBNC",
      "outputs": [
        {
          "internalType": "uint256",
          "name": "",
          "type": "uint256"
        }
      ],
      "stateMutability": "view",
      "type": "function"
    },
    {
      "inputs": [
        {
          "internalType": "uint256",
          "name": "_pid",
          "type": "uint256"
        }
      ],
      "name": "perBlockReward",
      "outputs": [
        {
          "internalType": "uint256",
          "name": "",
          "type": "uint256"
        }
      ],
      "stateMutability": "view",
      "type": "function"
    },
    {
      "inputs": [],
      "name": "percentDec",
      "outputs": [
        {
          "internalType": "uint256",
          "name": "",
          "type": "uint256"
        }
      ],
      "stateMutability": "view",
      "type": "function"
    },
    {
      "inputs": [
        {
          "internalType": "uint256",
          "name": "",
          "type": "uint256"
        }
      ],
      "name": "poolInfo",
      "outputs": [
        {
          "internalType": "contract IERC20",
          "name": "lpToken",
          "type": "address"
        },
        {
          "internalType": "uint256",
          "name": "allocPoint",
          "type": "uint256"
        },
        {
          "internalType": "uint256",
          "name": "lastRewardBlock",
          "type": "uint256"
        },
        {
          "internalType": "uint256",
          "name": "accBNCPerShare",
          "type": "uint256"
        },
        {
          "internalType": "uint256",
          "name": "stakingPoolEndTime",
          "type": "uint256"
        },
        {
          "internalType": "uint256",
          "name": "stakingPoolStartTime",
          "type": "uint256"
        }
      ],
      "stateMutability": "view",
      "type": "function"
    },
    {
      "inputs": [],
      "name": "poolLength",
      "outputs": [
        {
          "internalType": "uint256",
          "name": "",
          "type": "uint256"
        }
      ],
      "stateMutability": "view",
      "type": "function"
    },
    {
      "inputs": [],
      "name": "renounceOwnership",
      "outputs": [],
      "stateMutability": "nonpayable",
      "type": "function"
    },
    {
      "inputs": [
        {
          "internalType": "uint256",
          "name": "_pid",
          "type": "uint256"
        }
      ],
      "name": "rewardPer100Tokens",
      "outputs": [
        {
          "internalType": "uint256",
          "name": "",
          "type": "uint256"
        }
      ],
      "stateMutability": "view",
      "type": "function"
    },
    {
      "inputs": [
        {
          "internalType": "uint256",
          "name": "_pid",
          "type": "uint256"
        },
        {
          "internalType": "uint256",
          "name": "_allocPoint",
          "type": "uint256"
        }
      ],
      "name": "set",
      "outputs": [],
      "stateMutability": "nonpayable",
      "type": "function"
    },
    {
      "inputs": [
        {
          "internalType": "address",
          "name": "_dev0Addr",
          "type": "address"
        }
      ],
      "name": "setDevAddress",
      "outputs": [],
      "stateMutability": "nonpayable",
      "type": "function"
    },
    {
      "inputs": [
        {
          "internalType": "uint256",
          "name": "_stakingPercent",
          "type": "uint256"
        },
        {
          "internalType": "uint256",
          "name": "_dev0Percent",
          "type": "uint256"
        }
      ],
      "name": "setPercent",
      "outputs": [],
      "stateMutability": "nonpayable",
      "type": "function"
    },
    {
      "inputs": [
        {
          "internalType": "uint256",
          "name": "_pid",
          "type": "uint256"
        },
        {
          "internalType": "uint256",
          "name": "_days",
          "type": "uint256"
        }
      ],
      "name": "setStakingEndDays",
      "outputs": [],
      "stateMutability": "nonpayable",
      "type": "function"
    },
    {
      "inputs": [],
      "name": "stakingPercent",
      "outputs": [
        {
          "internalType": "uint256",
          "name": "",
          "type": "uint256"
        }
      ],
      "stateMutability": "view",
      "type": "function"
    },
    {
      "inputs": [
        {
          "internalType": "uint256",
          "name": "",
          "type": "uint256"
        },
        {
          "internalType": "uint256",
          "name": "",
          "type": "uint256"
        }
      ],
      "name": "stakingUsers",
      "outputs": [
        {
          "internalType": "address",
          "name": "",
          "type": "address"
        }
      ],
      "stateMutability": "view",
      "type": "function"
    },
    {
      "inputs": [],
      "name": "startBlock",
      "outputs": [
        {
          "internalType": "uint256",
          "name": "",
          "type": "uint256"
        }
      ],
      "stateMutability": "view",
      "type": "function"
    },
    {
      "inputs": [],
      "name": "totalAllocPoint",
      "outputs": [
        {
          "internalType": "uint256",
          "name": "",
          "type": "uint256"
        }
      ],
      "stateMutability": "view",
      "type": "function"
    },
    {
      "inputs": [
        {
          "internalType": "address",
          "name": "newOwner",
          "type": "address"
        }
      ],
      "name": "transferOwnership",
      "outputs": [],
      "stateMutability": "nonpayable",
      "type": "function"
    },
    {
      "inputs": [
        {
          "internalType": "uint256",
          "name": "newAmount",
          "type": "uint256"
        }
      ],
      "name": "updateBNCPerBlock",
      "outputs": [],
      "stateMutability": "nonpayable",
      "type": "function"
    },
    {
      "inputs": [
        {
          "internalType": "uint256",
          "name": "_pid",
          "type": "uint256"
        },
        {
          "internalType": "address",
          "name": "_user",
          "type": "address"
        }
      ],
      "name": "updatePendingBNC",
      "outputs": [
        {
          "internalType": "uint256",
          "name": "",
          "type": "uint256"
        }
      ],
      "stateMutability": "nonpayable",
      "type": "function"
    },
    {
      "inputs": [
        {
          "internalType": "uint256",
          "name": "_pid",
          "type": "uint256"
        }
      ],
      "name": "updatePool",
      "outputs": [],
      "stateMutability": "nonpayable",
      "type": "function"
    },
    {
      "inputs": [
        {
          "internalType": "uint256",
          "name": "_pid",
          "type": "uint256"
        },
        {
          "internalType": "address",
          "name": "_user",
          "type": "address"
        }
      ],
      "name": "userBlockRewardPerBlock",
      "outputs": [
        {
          "internalType": "uint256",
          "name": "",
          "type": "uint256"
        }
      ],
      "stateMutability": "view",
      "type": "function"
    },
    {
      "inputs": [
        {
          "internalType": "uint256",
          "name": "",
          "type": "uint256"
        },
        {
          "internalType": "address",
          "name": "",
          "type": "address"
        }
      ],
      "name": "userInfo",
      "outputs": [
        {
          "internalType": "uint256",
          "name": "amount",
          "type": "uint256"
        },
        {
          "internalType": "uint256",
          "name": "exactRewardCal",
          "type": "uint256"
        },
        {
          "internalType": "uint256",
          "name": "pendingReward",
          "type": "uint256"
        },
        {
          "internalType": "uint256",
          "name": "stakingStartTime",
          "type": "uint256"
        }
      ],
      "stateMutability": "view",
      "type": "function"
    },
    {
      "inputs": [
        {
          "internalType": "uint256",
          "name": "_pid",
          "type": "uint256"
        },
        {
          "internalType": "uint256",
          "name": "_amount",
          "type": "uint256"
        }
      ],
      "name": "withdraw",
      "outputs": [],
      "stateMutability": "nonpayable",
      "type": "function"
    },
    {
      "inputs": [],
      "name": "withdrawDevFee",
      "outputs": [],
      "stateMutability": "nonpayable",
      "type": "function"
    }
  ],
  "bytecode": "0x608060405261271060035560016008555f600e555f600f5534801562000023575f80fd5b50604051620045a6380380620045a68339818101604052810190620000499190620002e4565b805f73ffffffffffffffffffffffffffffffffffffffff168173ffffffffffffffffffffffffffffffffffffffff1603620000bd575f6040517f1e4fbdf7000000000000000000000000000000000000000000000000000000008152600401620000b49190620003a3565b60405180910390fd5b620000ce816200018660201b60201c565b50600180819055508660025f6101000a81548173ffffffffffffffffffffffffffffffffffffffff021916908373ffffffffffffffffffffffffffffffffffffffff1602179055508560065f6101000a81548173ffffffffffffffffffffffffffffffffffffffff021916908373ffffffffffffffffffffffffffffffffffffffff160217905550846005819055508360048190555082600781905550816010819055508160098190555050505050505050620003be565b5f805f9054906101000a900473ffffffffffffffffffffffffffffffffffffffff169050815f806101000a81548173ffffffffffffffffffffffffffffffffffffffff021916908373ffffffffffffffffffffffffffffffffffffffff1602179055508173ffffffffffffffffffffffffffffffffffffffff168173ffffffffffffffffffffffffffffffffffffffff167f8be0079c531659141344cd1fd0a4f28419497f9722a3daafe3b4186f6b6457e060405160405180910390a35050565b5f80fd5b5f73ffffffffffffffffffffffffffffffffffffffff82169050919050565b5f62000276826200024b565b9050919050565b62000288816200026a565b811462000293575f80fd5b50565b5f81519050620002a6816200027d565b92915050565b5f819050919050565b620002c081620002ac565b8114620002cb575f80fd5b50565b5f81519050620002de81620002b5565b92915050565b5f805f805f805f60e0888a03121562000302576200030162000247565b5b5f620003118a828b0162000296565b9750506020620003248a828b0162000296565b9650506040620003378a828b01620002ce565b95505060606200034a8a828b01620002ce565b94505060806200035d8a828b01620002ce565b93505060a0620003708a828b01620002ce565b92505060c0620003838a828b0162000296565b91505092959891949750929550565b6200039d816200026a565b82525050565b5f602082019050620003b85f83018462000392565b92915050565b6141da80620003cc5f395ff3fe608060405234801561000f575f80fd5b506004361061027d575f3560e01c80638aa285501161015a578063c2e40266116100cc578063e2bbb15811610085578063e2bbb158146107b7578063e88e0e3a146107d3578063eab44314146107f1578063f274709914610821578063f29588c714610851578063f2fde38b1461086f5761027d565b8063c2e4026614610709578063c6a37cb814610739578063cb93f7ef14610757578063d0d41fe114610761578063d84439d51461077d578063e12da02e146107995761027d565b8063abb762681161011e578063abb7626814610631578063b76e360c1461064d578063bb7ef61f1461066b578063bd62a7d91461069d578063be1193ea146106bb578063bfa621f5146106d95761027d565b80638aa28550146105765780638da5cb5b146105945780638dbb1e3a146105b257806393f1a40b146105e2578063a5981e7b146106155761027d565b806348cd4cb1116101f3578063630b5ba1116101b7578063630b5ba1146104dc57806370d6fcbd146104e6578063715018a6146105165780637709fc4b1461052057806387831b431461053c5780638a50bb361461055a5761027d565b806348cd4cb11461042657806348fec104146104445780634e0f4e9f1461047457806351eb05a6146104a45780635312ea8e146104c05761027d565b806316090615116102455780631609061514610350578063172728cc1461038257806317caf6f1146103b25780631ab06ee5146103d057806321b1aecb146103ec578063441a3e701461040a5761027d565b8063081e3eda146102815780630bd399fd1461029f5780630d25b679146102bb57806315155add146102eb5780631526fe271461031b575b5f80fd5b61028961088b565b604051610296919061358c565b60405180910390f35b6102b960048036038101906102b491906135d3565b610897565b005b6102d560048036038101906102d091906135d3565b610ae7565b6040516102e2919061358c565b60405180910390f35b610305600480360381019061030091906135d3565b610af0565b60405161031291906136e5565b60405180910390f35b610335600480360381019061033091906135d3565b610b8c565b60405161034796959493929190613760565b60405180910390f35b61036a600480360381019061036591906137e9565b610bf2565b60405161037993929190613827565b60405180910390f35b61039c6004803603810190610397919061385c565b610c23565b6040516103a991906138a9565b60405180910390f35b6103ba610c6b565b6040516103c7919061358c565b60405180910390f35b6103ea60048036038101906103e5919061385c565b610c71565b005b6103f4610d38565b604051610401919061358c565b60405180910390f35b610424600480360381019061041f919061385c565b610d3e565b005b61042e610fe6565b60405161043b919061358c565b60405180910390f35b61045e600480360381019061045991906135d3565b610fec565b60405161046b919061358c565b60405180910390f35b61048e600480360381019061048991906137e9565b611117565b60405161049b919061358c565b60405180910390f35b6104be60048036038101906104b991906135d3565b61135d565b005b6104da60048036038101906104d591906135d3565b6115b3565b005b6104e46119a4565b005b61050060048036038101906104fb91906137e9565b6119d5565b60405161050d919061358c565b60405180910390f35b61051e611b3c565b005b61053a600480360381019061053591906135d3565b611b4f565b005b610544611c30565b604051610551919061358c565b60405180910390f35b610574600480360381019061056f91906135d3565b611c39565b005b61057e611ddb565b60405161058b919061358c565b60405180910390f35b61059c611de1565b6040516105a991906138a9565b60405180910390f35b6105cc60048036038101906105c7919061385c565b611e08565b6040516105d9919061358c565b60405180910390f35b6105fc60048036038101906105f791906137e9565b611e2a565b60405161060c94939291906138c2565b60405180910390f35b61062f600480360381019061062a919061385c565b611e61565b005b61064b6004803603810190610646919061385c565b611f0d565b005b610655611fed565b604051610662919061358c565b60405180910390f35b610685600480360381019061068091906137e9565b611ff3565b60405161069493929190613827565b60405180910390f35b6106a5612030565b6040516106b2919061358c565b60405180910390f35b6106c3612036565b6040516106d0919061358c565b60405180910390f35b6106f360048036038101906106ee91906135d3565b61203c565b604051610700919061358c565b60405180910390f35b610723600480360381019061071e91906137e9565b61208c565b604051610730919061358c565b60405180910390f35b6107416121ed565b60405161074e919061358c565b60405180910390f35b61075f6121f3565b005b61077b60048036038101906107769190613905565b61232b565b005b61079760048036038101906107929190613930565b612448565b005b6107a161261a565b6040516107ae919061358c565b60405180910390f35b6107d160048036038101906107cc919061385c565b612620565b005b6107db6128e3565b6040516107e891906138a9565b60405180910390f35b61080b600480360381019061080691906137e9565b612908565b604051610818919061358c565b60405180910390f35b61083b600480360381019061083691906137e9565b612b6f565b604051610848919061358c565b60405180910390f35b610859612c14565b60405161086691906139a0565b60405180910390f35b61088960048036038101906108849190613905565b612c39565b005b5f600a80549050905090565b61089f612cbd565b80600a8054905081106108e7576040517f08c379a00000000000000000000000000000000000000000000000000000000081526004016108de90613a13565b60405180910390fd5b5f600a83815481106108fc576108fb613a31565b5b905f5260205f20906006020190505f600b5f8581526020019081526020015f205f3373ffffffffffffffffffffffffffffffffffffffff1673ffffffffffffffffffffffffffffffffffffffff1681526020019081526020015f20905081600401544210156109a0576040517f08c379a000000000000000000000000000000000000000000000000000000000815260040161099790613aa8565b60405180910390fd5b6109a98461135d565b6109b38433612d03565b5f815f01541115610a6057815f015f9054906101000a900473ffffffffffffffffffffffffffffffffffffffff1673ffffffffffffffffffffffffffffffffffffffff1663a9059cbb33835f01546040518363ffffffff1660e01b8152600401610a1e929190613ac6565b6020604051808303815f875af1158015610a3a573d5f803e3d5ffd5b505050506040513d601f19601f82011682018060405250810190610a5e9190613b22565b505b5f81600201541115610a7b57610a7a338260020154612e1b565b5b5f815f01819055505f81600201819055505f81600101819055507f594aca6d6c4b5c5da2a4c49c995c49bd3b8366b81a8249e69f687adc2c7a3f2d3385835f01548460020154604051610ad19493929190613b4d565b60405180910390a1505050610ae4613004565b50565b5f819050919050565b6060600d5f8381526020019081526020015f20805480602002602001604051908101604052809291908181526020018280548015610b8057602002820191905f5260205f20905b815f9054906101000a900473ffffffffffffffffffffffffffffffffffffffff1673ffffffffffffffffffffffffffffffffffffffff1681526020019060010190808311610b37575b50505050509050919050565b600a8181548110610b9b575f80fd5b905f5260205f2090600602015f91509050805f015f9054906101000a900473ffffffffffffffffffffffffffffffffffffffff16908060010154908060020154908060030154908060040154908060050154905086565b600c602052815f5260405f20602052805f5260405f205f9150915050805f0154908060010154908060020154905083565b600d602052815f5260405f208181548110610c3c575f80fd5b905f5260205f20015f915091509054906101000a900473ffffffffffffffffffffffffffffffffffffffff1681565b600f5481565b610c7961300d565b81600a805490508110610cc1576040517f08c379a0000000000000000000000000000000000000000000000000000000008152600401610cb890613a13565b60405180910390fd5b610cc96119a4565b81600a8481548110610cde57610cdd613a31565b5b905f5260205f20906006020160010154600f54610cfb9190613bbd565b610d059190613bf0565b600f8190555081600a8481548110610d2057610d1f613a31565b5b905f5260205f20906006020160010181905550505050565b60035481565b610d46612cbd565b81600a805490508110610d8e576040517f08c379a0000000000000000000000000000000000000000000000000000000008152600401610d8590613a13565b60405180910390fd5b5f600a8481548110610da357610da2613a31565b5b905f5260205f20906006020190505f600b5f8681526020019081526020015f205f3373ffffffffffffffffffffffffffffffffffffffff1673ffffffffffffffffffffffffffffffffffffffff1681526020019081526020015f2090508160040154421015610e47576040517f08c379a0000000000000000000000000000000000000000000000000000000008152600401610e3e90613aa8565b60405180910390fd5b83815f01541015610e8d576040517f08c379a0000000000000000000000000000000000000000000000000000000008152600401610e8490613c6d565b60405180910390fd5b610e968561135d565b610ea08533612d03565b5f841115610f5d5783815f0154610eb79190613bbd565b815f0181905550815f015f9054906101000a900473ffffffffffffffffffffffffffffffffffffffff1673ffffffffffffffffffffffffffffffffffffffff1663a9059cbb33866040518363ffffffff1660e01b8152600401610f1b929190613ac6565b6020604051808303815f875af1158015610f37573d5f803e3d5ffd5b505050506040513d601f19601f82011682018060405250810190610f5b9190613b22565b505b64e8d4a510008260030154825f0154610f769190613c8b565b610f809190613cf9565b8160010181905550843373ffffffffffffffffffffffffffffffffffffffff167ff279e6a1f5e320cca91135676d9cb6e44ca8a08c0b88342bcdb1144f6511b56886604051610fcf919061358c565b60405180910390a3505050610fe2613004565b5050565b60105481565b5f80600a838154811061100257611001613a31565b5b905f5260205f20906006020190505f600f5482600101546007546110269190613c8b565b6110309190613cf9565b90505f825f015f9054906101000a900473ffffffffffffffffffffffffffffffffffffffff1673ffffffffffffffffffffffffffffffffffffffff166370a08231306040518263ffffffff1660e01b815260040161108e91906138a9565b602060405180830381865afa1580156110a9573d5f803e3d5ffd5b505050506040513d601f19601f820116820180604052508101906110cd9190613d3d565b90505f8082116110dd575f611109565b606482670de0b6b3a7640000856110f49190613c8b565b6110fe9190613cf9565b6111089190613c8b565b5b905080945050505050919050565b5f82600a805490508110611160576040517f08c379a000000000000000000000000000000000000000000000000000000000815260040161115790613a13565b60405180910390fd5b5f600a858154811061117557611174613a31565b5b905f5260205f20906006020190505f600b5f8781526020019081526020015f205f8673ffffffffffffffffffffffffffffffffffffffff1673ffffffffffffffffffffffffffffffffffffffff1681526020019081526020015f2090505f826003015490505f835f015f9054906101000a900473ffffffffffffffffffffffffffffffffffffffff1673ffffffffffffffffffffffffffffffffffffffff166370a08231306040518263ffffffff1660e01b815260040161123691906138a9565b602060405180830381865afa158015611251573d5f803e3d5ffd5b505050506040513d601f19601f820116820180604052508101906112759190613d3d565b905083600201544311801561128a57505f8114155b15611313575f61129e856002015443611e08565b90505f600354600454600f548860010154600754866112bd9190613c8b565b6112c79190613c8b565b6112d19190613cf9565b6112db9190613c8b565b6112e59190613cf9565b90508264e8d4a51000826112f99190613c8b565b6113039190613cf9565b8461130e9190613bf0565b935050505b826001015464e8d4a5100083855f015461132d9190613c8b565b6113379190613cf9565b84600201546113469190613bf0565b6113509190613bbd565b9550505050505092915050565b80600a8054905081106113a5576040517f08c379a000000000000000000000000000000000000000000000000000000000815260040161139c90613a13565b60405180910390fd5b5f600a83815481106113ba576113b9613a31565b5b905f5260205f2090600602019050806002015443116113d957506115af565b5f815f015f9054906101000a900473ffffffffffffffffffffffffffffffffffffffff1673ffffffffffffffffffffffffffffffffffffffff166370a08231306040518263ffffffff1660e01b815260040161143591906138a9565b602060405180830381865afa158015611450573d5f803e3d5ffd5b505050506040513d601f19601f820116820180604052508101906114749190613d3d565b90505f811161148d5743826002018190555050506115af565b5f61149c836002015443611e08565b90505f600354600454600f548660010154600754866114bb9190613c8b565b6114c59190613c8b565b6114cf9190613cf9565b6114d99190613c8b565b6114e39190613cf9565b905060025f9054906101000a900473ffffffffffffffffffffffffffffffffffffffff1673ffffffffffffffffffffffffffffffffffffffff16634e6ec24730836040518363ffffffff1660e01b8152600401611541929190613ac6565b5f604051808303815f87803b158015611558575f80fd5b505af115801561156a573d5f803e3d5ffd5b505050508264e8d4a51000826115809190613c8b565b61158a9190613cf9565b84600301546115999190613bf0565b8460030181905550438460020181905550505050505b5050565b6115bb612cbd565b80600a805490508110611603576040517f08c379a00000000000000000000000000000000000000000000000000000000081526004016115fa90613a13565b60405180910390fd5b5f600a838154811061161857611617613a31565b5b905f5260205f20906006020190505f600b5f8581526020019081526020015f205f3373ffffffffffffffffffffffffffffffffffffffff1673ffffffffffffffffffffffffffffffffffffffff1681526020019081526020015f20905061167f8433612908565b505f815f015490505f826002015490505f82855f015f9054906101000a900473ffffffffffffffffffffffffffffffffffffffff1673ffffffffffffffffffffffffffffffffffffffff166370a08231306040518263ffffffff1660e01b81526004016116ec91906138a9565b602060405180830381865afa158015611707573d5f803e3d5ffd5b505050506040513d601f19601f8201168201806040525081019061172b9190613d3d565b6117359190613bbd565b90505f600c5f8981526020019081526020015f205f3373ffffffffffffffffffffffffffffffffffffffff1673ffffffffffffffffffffffffffffffffffffffff1681526020019081526020015f20905083815f018190555082816001018190555042816002018190555082600e5f8282546117b19190613bf0565b925050819055505f80841180156117c757505f83115b6117d1575f611802565b600d5f8a81526020019081526020015f208054905064e8d4a51000856117f79190613c8b565b6118019190613cf9565b5b905061180d81610ae7565b507f649c84831f10e26ab05a0e59436157f1e7fad268f97e5ba8c43768809683f79733835f01548460010154856002015485604051611850959493929190613d68565b60405180910390a15f8311801561186657505f84115b1561187757611876898585613094565b5b865f015f9054906101000a900473ffffffffffffffffffffffffffffffffffffffff1673ffffffffffffffffffffffffffffffffffffffff1663a9059cbb33876040518363ffffffff1660e01b81526004016118d4929190613ac6565b6020604051808303815f875af11580156118f0573d5f803e3d5ffd5b505050506040513d601f19601f820116820180604052508101906119149190613b22565b50883373ffffffffffffffffffffffffffffffffffffffff167fbb757047c2b5f3974fe26b7c10f732e7bce710b0952a71082702781e62ae05958760405161195c919061358c565b60405180910390a35f865f01819055505f86600201819055505f86600101819055505f86600301819055506119918933613205565b50505050505050506119a1613004565b50565b5f600a8054905090505f5b818110156119d1576119c08161135d565b806119ca90613db9565b90506119af565b5050565b5f80600a84815481106119eb576119ea613a31565b5b905f5260205f20906006020190505f600b5f8681526020019081526020015f205f8573ffffffffffffffffffffffffffffffffffffffff1673ffffffffffffffffffffffffffffffffffffffff1681526020019081526020015f2090505f611a528661203c565b90505f835f015f9054906101000a900473ffffffffffffffffffffffffffffffffffffffff1673ffffffffffffffffffffffffffffffffffffffff166370a08231306040518263ffffffff1660e01b8152600401611ab091906138a9565b602060405180830381865afa158015611acb573d5f803e3d5ffd5b505050506040513d601f19601f82011682018060405250810190611aef9190613d3d565b64e8d4a51000845f0154611b039190613c8b565b611b0d9190613cf9565b90505f64e8d4a510008284611b229190613c8b565b611b2c9190613cf9565b9050809550505050505092915050565b611b4461300d565b611b4d5f6133d4565b565b611b5761300d565b68056bc75e2d63100000811115611ba3576040517f08c379a0000000000000000000000000000000000000000000000000000000008152600401611b9a90613e4a565b60405180910390fd5b66038d7ea4c68000811015611bed576040517f08c379a0000000000000000000000000000000000000000000000000000000008152600401611be490613eb2565b60405180910390fd5b806007819055507f1e19929b3cb970f6d66d05a2698000db2ac7eafe495aee2c6c32bd7960a97ead600754604051611c25919061358c565b60405180910390a150565b5f600e54905090565b611c41612cbd565b80600a805490508110611c89576040517f08c379a0000000000000000000000000000000000000000000000000000000008152600401611c8090613a13565b60405180910390fd5b611c928261135d565b611c9c8233612d03565b5f600b5f8481526020019081526020015f205f3373ffffffffffffffffffffffffffffffffffffffff1673ffffffffffffffffffffffffffffffffffffffff1681526020019081526020015f2090505f600a8481548110611d0057611cff613a31565b5b905f5260205f20906006020190508060040154421015611d55576040517f08c379a0000000000000000000000000000000000000000000000000000000008152600401611d4c90613aa8565b60405180910390fd5b5f82600201541115611dcd575f826002015490505f8360020181905550611d7c3382612e1b565b843373ffffffffffffffffffffffffffffffffffffffff167f9da87e8cce29a4140e89780f6e64e0b1cd58e4fa1cb5ee53effe97264f290c6c83604051611dc3919061358c565b60405180910390a3505b505050611dd8613004565b50565b60085481565b5f805f9054906101000a900473ffffffffffffffffffffffffffffffffffffffff16905090565b5f60085483611e179190613c8b565b82611e229190613bbd565b905092915050565b600b602052815f5260405f20602052805f5260405f205f9150915050805f0154908060010154908060020154908060030154905084565b611e6961300d565b5f8190506003548184611e7c9190613bf0565b1115611ebd576040517f08c379a0000000000000000000000000000000000000000000000000000000008152600401611eb490613f1a565b60405180910390fd5b82600481905550816005819055507fcbd554161f22a88862569b669f84507adc410008353e0a023297d3ea419126f7600454600554604051611f00929190613f38565b60405180910390a1505050565b611f1561300d565b81600a805490508110611f5d576040517f08c379a0000000000000000000000000000000000000000000000000000000008152600401611f5490613a13565b60405180910390fd5b5f600a8481548110611f7257611f71613a31565b5b905f5260205f20906006020190505f600184611f8e9190613c8b565b42611f999190613bf0565b9050428111611fdd576040517f08c379a0000000000000000000000000000000000000000000000000000000008152600401611fd490613fa9565b60405180910390fd5b8082600401819055505050505050565b60095481565b5f805f806120018686611117565b90505f61200e87876119d5565b90505f61201b888861208c565b90508282829550955095505050509250925092565b60055481565b60045481565b5f80600a838154811061205257612051613a31565b5b905f5260205f20906006020190505f600f5482600101546007546120769190613c8b565b6120809190613cf9565b90508092505050919050565b5f80600a84815481106120a2576120a1613a31565b5b905f5260205f20906006020190505f600b5f8681526020019081526020015f205f8573ffffffffffffffffffffffffffffffffffffffff1673ffffffffffffffffffffffffffffffffffffffff1681526020019081526020015f2090505f825f015f9054906101000a900473ffffffffffffffffffffffffffffffffffffffff1673ffffffffffffffffffffffffffffffffffffffff166370a08231306040518263ffffffff1660e01b815260040161215b91906138a9565b602060405180830381865afa158015612176573d5f803e3d5ffd5b505050506040513d601f19601f8201168201806040525081019061219a9190613d3d565b90505f8164e8d4a51000845f01546121b29190613c8b565b6121bc9190613cf9565b90505f64e8d4a5100082600e546121d39190613c8b565b6121dd9190613cf9565b9050809550505050505092915050565b60075481565b6121fb61300d565b436009541061223f576040517f08c379a000000000000000000000000000000000000000000000000000000000815260040161223690614011565b60405180910390fd5b5f600754600954436122519190613bbd565b61225b9190613c8b565b905060025f9054906101000a900473ffffffffffffffffffffffffffffffffffffffff1673ffffffffffffffffffffffffffffffffffffffff16634e6ec24760065f9054906101000a900473ffffffffffffffffffffffffffffffffffffffff16600354600554856122cd9190613c8b565b6122d79190613cf9565b6040518363ffffffff1660e01b81526004016122f4929190613ac6565b5f604051808303815f87803b15801561230b575f80fd5b505af115801561231d573d5f803e3d5ffd5b505050504360098190555050565b61233361300d565b5f73ffffffffffffffffffffffffffffffffffffffff168173ffffffffffffffffffffffffffffffffffffffff16036123a1576040517f08c379a000000000000000000000000000000000000000000000000000000000815260040161239890614079565b60405180910390fd5b8060065f6101000a81548173ffffffffffffffffffffffffffffffffffffffff021916908373ffffffffffffffffffffffffffffffffffffffff16021790555060065f9054906101000a900473ffffffffffffffffffffffffffffffffffffffff1673ffffffffffffffffffffffffffffffffffffffff167fb1c7911ca1455735ffd17fec398b65f34157a7b58831b586878f5d3c2cf44ee260405160405180910390a250565b61245061300d565b61245982613495565b6124616119a4565b5f60105443106124715743612475565b6010545b905083600f546124859190613bf0565b600f819055505f4290505f620151808461249f9190613c8b565b426124aa9190613bf0565b9050600a6040518060c001604052808773ffffffffffffffffffffffffffffffffffffffff1681526020018881526020018581526020015f81526020015f815260200184815250908060018154018082558091505060019003905f5260205f2090600602015f909190919091505f820151815f015f6101000a81548173ffffffffffffffffffffffffffffffffffffffff021916908373ffffffffffffffffffffffffffffffffffffffff1602179055506020820151816001015560408201518160020155606082015181600301556080820151816004015560a0820151816005015550505f600a6001600a805490506125a49190613bbd565b815481106125b5576125b4613a31565b5b905f5260205f20906006020190508181600401819055507feeb213a5f24f4d07164e968a0886fa179ee7b22af50a6fa2d60874f91c573e728787836005015484600401546040516126099493929190614097565b60405180910390a150505050505050565b600e5481565b612628612cbd565b81600a805490508110612670576040517f08c379a000000000000000000000000000000000000000000000000000000000815260040161266790613a13565b60405180910390fd5b5f600a848154811061268557612684613a31565b5b905f5260205f20906006020190505f600b5f8681526020019081526020015f205f3373ffffffffffffffffffffffffffffffffffffffff1673ffffffffffffffffffffffffffffffffffffffff1681526020019081526020015f2090506126eb8561135d565b6126f58533612d03565b5f8411801561270657505f815f0154145b1561277b57600d5f8681526020019081526020015f2033908060018154018082558091505060019003905f5260205f20015f9091909190916101000a81548173ffffffffffffffffffffffffffffffffffffffff021916908373ffffffffffffffffffffffffffffffffffffffff1602179055505b5f84111561283f575f825f015f9054906101000a900473ffffffffffffffffffffffffffffffffffffffff1690508073ffffffffffffffffffffffffffffffffffffffff166323b872dd3330886040518463ffffffff1660e01b81526004016127e6939291906140da565b6020604051808303815f875af1158015612802573d5f803e3d5ffd5b505050506040513d601f19601f820116820180604052508101906128269190613b22565b5084825f01546128369190613bf0565b825f0181905550505b64e8d4a510008260030154825f01546128589190613c8b565b6128629190613cf9565b81600101819055505f81600301540361287f574281600301819055505b843373ffffffffffffffffffffffffffffffffffffffff167f36af321ec8d3c75236829c5317affd40ddb308863a1236d2d277a4025cccee1e8684600301546040516128cc929190613f38565b60405180910390a35050506128df613004565b5050565b60065f9054906101000a900473ffffffffffffffffffffffffffffffffffffffff1681565b5f82600a805490508110612951576040517f08c379a000000000000000000000000000000000000000000000000000000000815260040161294890613a13565b60405180910390fd5b5f600a858154811061296657612965613a31565b5b905f5260205f20906006020190505f600b5f8781526020019081526020015f205f8673ffffffffffffffffffffffffffffffffffffffff1673ffffffffffffffffffffffffffffffffffffffff1681526020019081526020015f2090505f826003015490505f835f015f9054906101000a900473ffffffffffffffffffffffffffffffffffffffff1673ffffffffffffffffffffffffffffffffffffffff166370a08231306040518263ffffffff1660e01b8152600401612a2791906138a9565b602060405180830381865afa158015612a42573d5f803e3d5ffd5b505050506040513d601f19601f82011682018060405250810190612a669190613d3d565b9050836002015443118015612a7b57505f8114155b15612b04575f612a8f856002015443611e08565b90505f600354600454600f54886001015460075486612aae9190613c8b565b612ab89190613c8b565b612ac29190613cf9565b612acc9190613c8b565b612ad69190613cf9565b90508264e8d4a5100082612aea9190613c8b565b612af49190613cf9565b84612aff9190613bf0565b935050505b5f836001015464e8d4a5100084865f0154612b1f9190613c8b565b612b299190613cf9565b8560020154612b389190613bf0565b612b429190613bbd565b9050808460020154612b549190613bf0565b84600201819055508360020154965050505050505092915050565b5f80600a8481548110612b8557612b84613a31565b5b905f5260205f20906006020190505f600b5f8681526020019081526020015f205f8573ffffffffffffffffffffffffffffffffffffffff1673ffffffffffffffffffffffffffffffffffffffff1681526020019081526020015f2090505f64e8d4a510008360030154835f0154612bfc9190613c8b565b612c069190613cf9565b905080935050505092915050565b60025f9054906101000a900473ffffffffffffffffffffffffffffffffffffffff1681565b612c4161300d565b5f73ffffffffffffffffffffffffffffffffffffffff168173ffffffffffffffffffffffffffffffffffffffff1603612cb1575f6040517f1e4fbdf7000000000000000000000000000000000000000000000000000000008152600401612ca891906138a9565b60405180910390fd5b612cba816133d4565b50565b600260015403612cf9576040517f3ee5aeb500000000000000000000000000000000000000000000000000000000815260040160405180910390fd5b6002600181905550565b81600a805490508110612d4b576040517f08c379a0000000000000000000000000000000000000000000000000000000008152600401612d4290613a13565b60405180910390fd5b5f600a8481548110612d6057612d5f613a31565b5b905f5260205f20906006020190505f600b5f8681526020019081526020015f205f8573ffffffffffffffffffffffffffffffffffffffff1673ffffffffffffffffffffffffffffffffffffffff1681526020019081526020015f2090505f816001015464e8d4a510008460030154845f0154612ddc9190613c8b565b612de69190613cf9565b612df09190613bbd565b90505f811115612e1357808260020154612e0a9190613bf0565b82600201819055505b505050505050565b5f60025f9054906101000a900473ffffffffffffffffffffffffffffffffffffffff1673ffffffffffffffffffffffffffffffffffffffff166327e235e3306040518263ffffffff1660e01b8152600401612e7691906138a9565b602060405180830381865afa158015612e91573d5f803e3d5ffd5b505050506040513d601f19601f82011682018060405250810190612eb59190613d3d565b905080821115612f615760025f9054906101000a900473ffffffffffffffffffffffffffffffffffffffff1673ffffffffffffffffffffffffffffffffffffffff1663a9059cbb84836040518363ffffffff1660e01b8152600401612f1b929190613ac6565b6020604051808303815f875af1158015612f37573d5f803e3d5ffd5b505050506040513d601f19601f82011682018060405250810190612f5b9190613b22565b50612fff565b60025f9054906101000a900473ffffffffffffffffffffffffffffffffffffffff1673ffffffffffffffffffffffffffffffffffffffff1663a9059cbb84846040518363ffffffff1660e01b8152600401612fbd929190613ac6565b6020604051808303815f875af1158015612fd9573d5f803e3d5ffd5b505050506040513d601f19601f82011682018060405250810190612ffd9190613b22565b505b505050565b60018081905550565b61301561356d565b73ffffffffffffffffffffffffffffffffffffffff16613033611de1565b73ffffffffffffffffffffffffffffffffffffffff16146130925761305661356d565b6040517f118cdaa700000000000000000000000000000000000000000000000000000000815260040161308991906138a9565b60405180910390fd5b565b5f600d5f8581526020019081526020015f208054905090505f5b818110156131c3575f600d5f8781526020019081526020015f2082815481106130da576130d9613a31565b5b905f5260205f20015f9054906101000a900473ffffffffffffffffffffffffffffffffffffffff1690505f600b5f8881526020019081526020015f205f8373ffffffffffffffffffffffffffffffffffffffff1673ffffffffffffffffffffffffffffffffffffffff1681526020019081526020015f2090505f8564e8d4a51000835f01546131699190613c8b565b6131739190613cf9565b90505f64e8d4a5100082896131889190613c8b565b6131929190613cf9565b905080836002015f8282546131a79190613bf0565b9250508190555050505050806131bc90613db9565b90506130ae565b507f2b3815017a53df0f7a02daff8930fa0330e6091a501c5de817e0df95894bab1d8484846040516131f793929190613827565b60405180910390a150505050565b5f600d5f8481526020019081526020015f208054905090505f5b818110156133ce578273ffffffffffffffffffffffffffffffffffffffff16600d5f8681526020019081526020015f20828154811061326157613260613a31565b5b905f5260205f20015f9054906101000a900473ffffffffffffffffffffffffffffffffffffffff1673ffffffffffffffffffffffffffffffffffffffff16036133bb57600d5f8581526020019081526020015f206001836132c29190613bbd565b815481106132d3576132d2613a31565b5b905f5260205f20015f9054906101000a900473ffffffffffffffffffffffffffffffffffffffff16600d5f8681526020019081526020015f20828154811061331e5761331d613a31565b5b905f5260205f20015f6101000a81548173ffffffffffffffffffffffffffffffffffffffff021916908373ffffffffffffffffffffffffffffffffffffffff160217905550600d5f8581526020019081526020015f208054806133845761338361410f565b5b600190038181905f5260205f20015f6101000a81549073ffffffffffffffffffffffffffffffffffffffff021916905590556133ce565b80806133c690613db9565b91505061321f565b50505050565b5f805f9054906101000a900473ffffffffffffffffffffffffffffffffffffffff169050815f806101000a81548173ffffffffffffffffffffffffffffffffffffffff021916908373ffffffffffffffffffffffffffffffffffffffff1602179055508173ffffffffffffffffffffffffffffffffffffffff168173ffffffffffffffffffffffffffffffffffffffff167f8be0079c531659141344cd1fd0a4f28419497f9722a3daafe3b4186f6b6457e060405160405180910390a35050565b5f600a8054905090505f5b81811015613568578273ffffffffffffffffffffffffffffffffffffffff16600a82815481106134d3576134d2613a31565b5b905f5260205f2090600602015f015f9054906101000a900473ffffffffffffffffffffffffffffffffffffffff1673ffffffffffffffffffffffffffffffffffffffff1603613557576040517f08c379a000000000000000000000000000000000000000000000000000000000815260040161354e90614186565b60405180910390fd5b8061356190613db9565b90506134a0565b505050565b5f33905090565b5f819050919050565b61358681613574565b82525050565b5f60208201905061359f5f83018461357d565b92915050565b5f80fd5b6135b281613574565b81146135bc575f80fd5b50565b5f813590506135cd816135a9565b92915050565b5f602082840312156135e8576135e76135a5565b5b5f6135f5848285016135bf565b91505092915050565b5f81519050919050565b5f82825260208201905092915050565b5f819050602082019050919050565b5f73ffffffffffffffffffffffffffffffffffffffff82169050919050565b5f61365082613627565b9050919050565b61366081613646565b82525050565b5f6136718383613657565b60208301905092915050565b5f602082019050919050565b5f613693826135fe565b61369d8185613608565b93506136a883613618565b805f5b838110156136d85781516136bf8882613666565b97506136ca8361367d565b9250506001810190506136ab565b5085935050505092915050565b5f6020820190508181035f8301526136fd8184613689565b905092915050565b5f819050919050565b5f61372861372361371e84613627565b613705565b613627565b9050919050565b5f6137398261370e565b9050919050565b5f61374a8261372f565b9050919050565b61375a81613740565b82525050565b5f60c0820190506137735f830189613751565b613780602083018861357d565b61378d604083018761357d565b61379a606083018661357d565b6137a7608083018561357d565b6137b460a083018461357d565b979650505050505050565b6137c881613646565b81146137d2575f80fd5b50565b5f813590506137e3816137bf565b92915050565b5f80604083850312156137ff576137fe6135a5565b5b5f61380c858286016135bf565b925050602061381d858286016137d5565b9150509250929050565b5f60608201905061383a5f83018661357d565b613847602083018561357d565b613854604083018461357d565b949350505050565b5f8060408385031215613872576138716135a5565b5b5f61387f858286016135bf565b9250506020613890858286016135bf565b9150509250929050565b6138a381613646565b82525050565b5f6020820190506138bc5f83018461389a565b92915050565b5f6080820190506138d55f83018761357d565b6138e2602083018661357d565b6138ef604083018561357d565b6138fc606083018461357d565b95945050505050565b5f6020828403121561391a576139196135a5565b5b5f613927848285016137d5565b91505092915050565b5f805f60608486031215613947576139466135a5565b5b5f613954868287016135bf565b9350506020613965868287016137d5565b9250506040613976868287016135bf565b9150509250925092565b5f61398a8261372f565b9050919050565b61399a81613980565b82525050565b5f6020820190506139b35f830184613991565b92915050565b5f82825260208201905092915050565b7f706f6f6c206e6f742065786973740000000000000000000000000000000000005f82015250565b5f6139fd600e836139b9565b9150613a08826139c9565b602082019050919050565b5f6020820190508181035f830152613a2a816139f1565b9050919050565b7f4e487b71000000000000000000000000000000000000000000000000000000005f52603260045260245ffd5b7f5374616b696e6720706572696f64206e6f742079657420656e646564000000005f82015250565b5f613a92601c836139b9565b9150613a9d82613a5e565b602082019050919050565b5f6020820190508181035f830152613abf81613a86565b9050919050565b5f604082019050613ad95f83018561389a565b613ae6602083018461357d565b9392505050565b5f8115159050919050565b613b0181613aed565b8114613b0b575f80fd5b50565b5f81519050613b1c81613af8565b92915050565b5f60208284031215613b3757613b366135a5565b5b5f613b4484828501613b0e565b91505092915050565b5f608082019050613b605f83018761389a565b613b6d602083018661357d565b613b7a604083018561357d565b613b87606083018461357d565b95945050505050565b7f4e487b71000000000000000000000000000000000000000000000000000000005f52601160045260245ffd5b5f613bc782613574565b9150613bd283613574565b9250828203905081811115613bea57613be9613b90565b5b92915050565b5f613bfa82613574565b9150613c0583613574565b9250828201905080821115613c1d57613c1c613b90565b5b92915050565b7f77697468647261773a206e6f7420676f6f6400000000000000000000000000005f82015250565b5f613c576012836139b9565b9150613c6282613c23565b602082019050919050565b5f6020820190508181035f830152613c8481613c4b565b9050919050565b5f613c9582613574565b9150613ca083613574565b9250828202613cae81613574565b91508282048414831517613cc557613cc4613b90565b5b5092915050565b7f4e487b71000000000000000000000000000000000000000000000000000000005f52601260045260245ffd5b5f613d0382613574565b9150613d0e83613574565b925082613d1e57613d1d613ccc565b5b828204905092915050565b5f81519050613d37816135a9565b92915050565b5f60208284031215613d5257613d516135a5565b5b5f613d5f84828501613d29565b91505092915050565b5f60a082019050613d7b5f83018861389a565b613d88602083018761357d565b613d95604083018661357d565b613da2606083018561357d565b613daf608083018461357d565b9695505050505050565b5f613dc382613574565b91507fffffffffffffffffffffffffffffffffffffffffffffffffffffffffffffffff8203613df557613df4613b90565b5b600182019050919050565b7f4d61782070657220626c6f636b2031303020424e4300000000000000000000005f82015250565b5f613e346015836139b9565b9150613e3f82613e00565b602082019050919050565b5f6020820190508181035f830152613e6181613e28565b9050919050565b7f4d696e2070657220626c6f636b20302e30303120424e430000000000000000005f82015250565b5f613e9c6017836139b9565b9150613ea782613e68565b602082019050919050565b5f6020820190508181035f830152613ec981613e90565b9050919050565b7f50657263656e742053756d0000000000000000000000000000000000000000005f82015250565b5f613f04600b836139b9565b9150613f0f82613ed0565b602082019050919050565b5f6020820190508181035f830152613f3181613ef8565b9050919050565b5f604082019050613f4b5f83018561357d565b613f58602083018461357d565b9392505050565b7f456e642054696d65206d75737420626520696e207468652066757475726500005f82015250565b5f613f93601e836139b9565b9150613f9e82613f5f565b602082019050919050565b5f6020820190508181035f830152613fc081613f87565b9050919050565b7f7761697420666f72206e657720626c6f636b00000000000000000000000000005f82015250565b5f613ffb6012836139b9565b915061400682613fc7565b602082019050919050565b5f6020820190508181035f83015261402881613fef565b9050919050565b7f5a65726f000000000000000000000000000000000000000000000000000000005f82015250565b5f6140636004836139b9565b915061406e8261402f565b602082019050919050565b5f6020820190508181035f83015261409081614057565b9050919050565b5f6080820190506140aa5f83018761357d565b6140b7602083018661389a565b6140c4604083018561357d565b6140d1606083018461357d565b95945050505050565b5f6060820190506140ed5f83018661389a565b6140fa602083018561389a565b614107604083018461357d565b949350505050565b7f4e487b71000000000000000000000000000000000000000000000000000000005f52603160045260245ffd5b7f706f6f6c206578697374656400000000000000000000000000000000000000005f82015250565b5f614170600c836139b9565b915061417b8261413c565b602082019050919050565b5f6020820190508181035f83015261419d81614164565b905091905056fea2646970667358221220442147e1ce23c21cdde5fdee3a33bf5c1462ae816e6677bff0dd9b297f6a8dca64736f6c63430008140033",
  "linkReferences": {},
  "deployedLinkReferences": {}
}