{
  "_format": "hh-sol-artifact-1",
  "contractName": "Staking",
  "sourceName": "contracts/contract/Staking.sol",
  "abi": [
    {
      "inputs": [
        {
          "internalType": "address",
          "name": "_BNCToken",
          "type": "address"
        },
        {
          "internalType": "address",
          "name": "_dev0Addr",
          "type": "address"
        },
        {
          "internalType": "uint256",
          "name": "_dev0Percent",
          "type": "uint256"
        },
        {
          "internalType": "uint256",
          "name": "_stakingPercent",
          "type": "uint256"
        },
        {
          "internalType": "uint256",
          "name": "_BNCPerBlock",
          "type": "uint256"
        },
        {
          "internalType": "uint256",
          "name": "_startBlock",
          "type": "uint256"
        },
        {
          "internalType": "address",
          "name": "_initialOwner",
          "type": "address"
        }
      ],
      "stateMutability": "nonpayable",
      "type": "constructor"
    },
    {
      "inputs": [
        {
          "internalType": "address",
          "name": "owner",
          "type": "address"
        }
      ],
      "name": "OwnableInvalidOwner",
      "type": "error"
    },
    {
      "inputs": [
        {
          "internalType": "address",
          "name": "account",
          "type": "address"
        }
      ],
      "name": "OwnableUnauthorizedAccount",
      "type": "error"
    },
    {
      "inputs": [],
      "name": "ReentrancyGuardReentrantCall",
      "type": "error"
    },
    {
      "anonymous": false,
      "inputs": [
        {
          "indexed": false,
          "internalType": "uint256",
          "name": "_allocPoint",
          "type": "uint256"
        },
        {
          "indexed": false,
          "internalType": "address",
          "name": "_lpToken",
          "type": "address"
        },
        {
          "indexed": false,
          "internalType": "uint256",
          "name": "stakingPoolStartTime",
          "type": "uint256"
        }
      ],
      "name": "AddStakingPool",
      "type": "event"
    },
    {
      "anonymous": false,
      "inputs": [
        {
          "indexed": true,
          "internalType": "address",
          "name": "user",
          "type": "address"
        },
        {
          "indexed": true,
          "internalType": "uint256",
          "name": "pid",
          "type": "uint256"
        },
        {
          "indexed": false,
          "internalType": "uint256",
          "name": "amount",
          "type": "uint256"
        }
      ],
      "name": "ClaimBNC",
      "type": "event"
    },
    {
      "anonymous": false,
      "inputs": [
        {
          "indexed": true,
          "internalType": "address",
          "name": "user",
          "type": "address"
        },
        {
          "indexed": true,
          "internalType": "uint256",
          "name": "pid",
          "type": "uint256"
        },
        {
          "indexed": false,
          "internalType": "uint256",
          "name": "amount",
          "type": "uint256"
        },
        {
          "indexed": false,
          "internalType": "uint256",
          "name": "stakingStartTime",
          "type": "uint256"
        }
      ],
      "name": "Deposit",
      "type": "event"
    },
    {
      "anonymous": false,
      "inputs": [
        {
          "indexed": false,
          "internalType": "uint256",
          "name": "_pid",
          "type": "uint256"
        },
        {
          "indexed": false,
          "internalType": "uint256",
          "name": "pendingReward",
          "type": "uint256"
        },
        {
          "indexed": false,
          "internalType": "uint256",
          "name": "totalStaked",
          "type": "uint256"
        }
      ],
      "name": "DistributeRewards",
      "type": "event"
    },
    {
      "anonymous": false,
      "inputs": [
        {
          "indexed": true,
          "internalType": "address",
          "name": "user",
          "type": "address"
        },
        {
          "indexed": true,
          "internalType": "uint256",
          "name": "pid",
          "type": "uint256"
        },
        {
          "indexed": false,
          "internalType": "uint256",
          "name": "amount",
          "type": "uint256"
        }
      ],
      "name": "EmergencyWithdraw",
      "type": "event"
    },
    {
      "anonymous": false,
      "inputs": [
        {
          "indexed": false,
          "internalType": "address",
          "name": "_Ninja",
          "type": "address"
        },
        {
          "indexed": false,
          "internalType": "uint256",
          "name": "_totalLPToken",
          "type": "uint256"
        },
        {
          "indexed": false,
          "internalType": "uint256",
          "name": "_totalNinjaReward",
          "type": "uint256"
        },
        {
          "indexed": false,
          "internalType": "uint256",
          "name": "_stakingLeftTime",
          "type": "uint256"
        }
      ],
      "name": "NinjaLiftInfo",
      "type": "event"
    },
    {
      "anonymous": false,
      "inputs": [
        {
          "indexed": true,
          "internalType": "address",
          "name": "previousOwner",
          "type": "address"
        },
        {
          "indexed": true,
          "internalType": "address",
          "name": "newOwner",
          "type": "address"
        }
      ],
      "name": "OwnershipTransferred",
      "type": "event"
    },
    {
      "anonymous": false,
      "inputs": [
        {
          "indexed": true,
          "internalType": "address",
          "name": "dev0Addr",
          "type": "address"
        }
      ],
      "name": "SetDev0Address",
      "type": "event"
    },
    {
      "anonymous": false,
      "inputs": [
        {
          "indexed": false,
          "internalType": "uint256",
          "name": "stakingPercent",
          "type": "uint256"
        },
        {
          "indexed": false,
          "internalType": "uint256",
          "name": "dev0Percent",
          "type": "uint256"
        }
      ],
      "name": "SetPercent",
      "type": "event"
    },
    {
      "anonymous": false,
      "inputs": [
        {
          "indexed": false,
          "internalType": "uint256",
          "name": "BNCPerBlock",
          "type": "uint256"
        }
      ],
      "name": "UpdateBNCPerBlock",
      "type": "event"
    },
    {
      "anonymous": false,
      "inputs": [
        {
          "indexed": true,
          "internalType": "address",
          "name": "user",
          "type": "address"
        },
        {
          "indexed": true,
          "internalType": "uint256",
          "name": "pid",
          "type": "uint256"
        },
        {
          "indexed": false,
          "internalType": "uint256",
          "name": "amount",
          "type": "uint256"
        }
      ],
      "name": "Withdraw",
      "type": "event"
    },
    {
      "inputs": [],
      "name": "AlltotalNinjaReward",
      "outputs": [
        {
          "internalType": "uint256",
          "name": "",
          "type": "uint256"
        }
      ],
      "stateMutability": "view",
      "type": "function"
    },
    {
      "inputs": [],
      "name": "BNC",
      "outputs": [
        {
          "internalType": "contract WBNC",
          "name": "",
          "type": "address"
        }
      ],
      "stateMutability": "view",
      "type": "function"
    },
    {
      "inputs": [],
      "name": "BNCPerBlock",
      "outputs": [
        {
          "internalType": "uint256",
          "name": "",
          "type": "uint256"
        }
      ],
      "stateMutability": "view",
      "type": "function"
    },
    {
      "inputs": [],
      "name": "BONUS_MULTIPLIER",
      "outputs": [
        {
          "internalType": "uint256",
          "name": "",
          "type": "uint256"
        }
      ],
      "stateMutability": "view",
      "type": "function"
    },
    {
      "inputs": [
        {
          "internalType": "uint256",
          "name": "_allocPoint",
          "type": "uint256"
        },
        {
          "internalType": "address",
          "name": "_lpToken",
          "type": "address"
        }
      ],
      "name": "addStakingPool",
      "outputs": [],
      "stateMutability": "nonpayable",
      "type": "function"
    },
    {
      "inputs": [
        {
          "internalType": "uint256",
          "name": "_pid",
          "type": "uint256"
        }
      ],
      "name": "calculateRewardPer100Tokens",
      "outputs": [
        {
          "internalType": "uint256",
          "name": "",
          "type": "uint256"
        }
      ],
      "stateMutability": "view",
      "type": "function"
    },
    {
      "inputs": [
        {
          "internalType": "uint256",
          "name": "_pid",
          "type": "uint256"
        }
      ],
      "name": "claimBNC",
      "outputs": [],
      "stateMutability": "nonpayable",
      "type": "function"
    },
    {
      "inputs": [],
      "name": "data",
      "outputs": [
        {
          "internalType": "contract Data",
          "name": "",
          "type": "address"
        }
      ],
      "stateMutability": "view",
      "type": "function"
    },
    {
      "inputs": [
        {
          "internalType": "uint256",
          "name": "_pid",
          "type": "uint256"
        },
        {
          "internalType": "uint256",
          "name": "_amount",
          "type": "uint256"
        }
      ],
      "name": "deposit",
      "outputs": [],
      "stateMutability": "nonpayable",
      "type": "function"
    },
    {
      "inputs": [],
      "name": "dev0Addr",
      "outputs": [
        {
          "internalType": "address",
          "name": "",
          "type": "address"
        }
      ],
      "stateMutability": "view",
      "type": "function"
    },
    {
      "inputs": [],
      "name": "dev0Percent",
      "outputs": [
        {
          "internalType": "uint256",
          "name": "",
          "type": "uint256"
        }
      ],
      "stateMutability": "view",
      "type": "function"
    },
    {
      "inputs": [
        {
          "internalType": "uint256",
          "name": "_pid",
          "type": "uint256"
        }
      ],
      "name": "emergencyWithdraw",
      "outputs": [],
      "stateMutability": "nonpayable",
      "type": "function"
    },
    {
      "inputs": [
        {
          "internalType": "uint256",
          "name": "_pid",
          "type": "uint256"
        },
        {
          "internalType": "address",
          "name": "_user",
          "type": "address"
        }
      ],
      "name": "estimatedUserRewardFromNinjs",
      "outputs": [
        {
          "internalType": "uint256",
          "name": "",
          "type": "uint256"
        }
      ],
      "stateMutability": "view",
      "type": "function"
    },
    {
      "inputs": [
        {
          "internalType": "uint256",
          "name": "_pid",
          "type": "uint256"
        },
        {
          "internalType": "address",
          "name": "_user",
          "type": "address"
        }
      ],
      "name": "getAccBNCPerShareFromUser",
      "outputs": [
        {
          "internalType": "uint256",
          "name": "",
          "type": "uint256"
        }
      ],
      "stateMutability": "view",
      "type": "function"
    },
    {
      "inputs": [],
      "name": "getAllTotalNinjaReward",
      "outputs": [
        {
          "internalType": "uint256",
          "name": "",
          "type": "uint256"
        }
      ],
      "stateMutability": "view",
      "type": "function"
    },
    {
      "inputs": [
        {
          "internalType": "uint256",
          "name": "_lasttotalNinjaRewardRate",
          "type": "uint256"
        }
      ],
      "name": "getLastNinjaRewardInfo",
      "outputs": [
        {
          "internalType": "uint256",
          "name": "",
          "type": "uint256"
        }
      ],
      "stateMutability": "view",
      "type": "function"
    },
    {
      "inputs": [
        {
          "internalType": "uint256",
          "name": "_from",
          "type": "uint256"
        },
        {
          "internalType": "uint256",
          "name": "_to",
          "type": "uint256"
        }
      ],
      "name": "getMultiplier",
      "outputs": [
        {
          "internalType": "uint256",
          "name": "",
          "type": "uint256"
        }
      ],
      "stateMutability": "view",
      "type": "function"
    },
    {
      "inputs": [
        {
          "internalType": "uint256",
          "name": "_pid",
          "type": "uint256"
        },
        {
          "internalType": "address",
          "name": "_user",
          "type": "address"
        }
      ],
      "name": "getNinjaInfo",
      "outputs": [
        {
          "components": [
            {
              "internalType": "uint256",
              "name": "totalLPToken",
              "type": "uint256"
            },
            {
              "internalType": "uint256",
              "name": "totalNinjaReward",
              "type": "uint256"
            },
            {
              "internalType": "uint256",
              "name": "stakingLeftTime",
              "type": "uint256"
            }
          ],
          "internalType": "struct Staking.NinjaInfo",
          "name": "",
          "type": "tuple"
        }
      ],
      "stateMutability": "view",
      "type": "function"
    },
    {
      "inputs": [],
      "name": "lastBlockDevWithdraw",
      "outputs": [
        {
          "internalType": "uint256",
          "name": "",
          "type": "uint256"
        }
      ],
      "stateMutability": "view",
      "type": "function"
    },
    {
      "inputs": [],
      "name": "massUpdatePools",
      "outputs": [],
      "stateMutability": "nonpayable",
      "type": "function"
    },
    {
      "inputs": [
        {
          "internalType": "uint256",
          "name": "",
          "type": "uint256"
        },
        {
          "internalType": "address",
          "name": "",
          "type": "address"
        }
      ],
      "name": "ninjaInfo",
      "outputs": [
        {
          "internalType": "uint256",
          "name": "totalLPToken",
          "type": "uint256"
        },
        {
          "internalType": "uint256",
          "name": "totalNinjaReward",
          "type": "uint256"
        },
        {
          "internalType": "uint256",
          "name": "stakingLeftTime",
          "type": "uint256"
        }
      ],
      "stateMutability": "view",
      "type": "function"
    },
    {
      "inputs": [],
      "name": "owner",
      "outputs": [
        {
          "internalType": "address",
          "name": "",
          "type": "address"
        }
      ],
      "stateMutability": "view",
      "type": "function"
    },
    {
      "inputs": [
        {
          "internalType": "uint256",
          "name": "_pid",
          "type": "uint256"
        },
        {
          "internalType": "address",
          "name": "_user",
          "type": "address"
        }
      ],
      "name": "pendingBNC",
      "outputs": [
        {
          "internalType": "uint256",
          "name": "",
          "type": "uint256"
        }
      ],
      "stateMutability": "view",
      "type": "function"
    },
    {
      "inputs": [
        {
          "internalType": "uint256",
          "name": "_pid",
          "type": "uint256"
        }
      ],
      "name": "perBlockReward",
      "outputs": [
        {
          "internalType": "uint256",
          "name": "",
          "type": "uint256"
        }
      ],
      "stateMutability": "view",
      "type": "function"
    },
    {
      "inputs": [],
      "name": "percentDec",
      "outputs": [
        {
          "internalType": "uint256",
          "name": "",
          "type": "uint256"
        }
      ],
      "stateMutability": "view",
      "type": "function"
    },
    {
      "inputs": [
        {
          "internalType": "uint256",
          "name": "",
          "type": "uint256"
        }
      ],
      "name": "poolInfo",
      "outputs": [
        {
          "internalType": "contract IERC20",
          "name": "lpToken",
          "type": "address"
        },
        {
          "internalType": "uint256",
          "name": "allocPoint",
          "type": "uint256"
        },
        {
          "internalType": "uint256",
          "name": "lastRewardBlock",
          "type": "uint256"
        },
        {
          "internalType": "uint256",
          "name": "accBNCPerShare",
          "type": "uint256"
        },
        {
          "internalType": "uint256",
          "name": "stakingEndTime",
          "type": "uint256"
        },
        {
          "internalType": "uint256",
          "name": "stakingPoolStartTime",
          "type": "uint256"
        }
      ],
      "stateMutability": "view",
      "type": "function"
    },
    {
      "inputs": [],
      "name": "poolLength",
      "outputs": [
        {
          "internalType": "uint256",
          "name": "",
          "type": "uint256"
        }
      ],
      "stateMutability": "view",
      "type": "function"
    },
    {
      "inputs": [],
      "name": "renounceOwnership",
      "outputs": [],
      "stateMutability": "nonpayable",
      "type": "function"
    },
    {
      "inputs": [
        {
          "internalType": "uint256",
          "name": "_pid",
          "type": "uint256"
        }
      ],
      "name": "rewardPer100Tokens",
      "outputs": [
        {
          "internalType": "uint256",
          "name": "",
          "type": "uint256"
        }
      ],
      "stateMutability": "view",
      "type": "function"
    },
    {
      "inputs": [
        {
          "internalType": "uint256",
          "name": "_pid",
          "type": "uint256"
        },
        {
          "internalType": "uint256",
          "name": "_allocPoint",
          "type": "uint256"
        }
      ],
      "name": "set",
      "outputs": [],
      "stateMutability": "nonpayable",
      "type": "function"
    },
    {
      "inputs": [
        {
          "internalType": "address",
          "name": "_dev0Addr",
          "type": "address"
        }
      ],
      "name": "setDevAddress",
      "outputs": [],
      "stateMutability": "nonpayable",
      "type": "function"
    },
    {
      "inputs": [
        {
          "internalType": "uint256",
          "name": "_stakingPercent",
          "type": "uint256"
        },
        {
          "internalType": "uint256",
          "name": "_dev0Percent",
          "type": "uint256"
        }
      ],
      "name": "setPercent",
      "outputs": [],
      "stateMutability": "nonpayable",
      "type": "function"
    },
    {
      "inputs": [
        {
          "internalType": "uint256",
          "name": "_pid",
          "type": "uint256"
        },
        {
          "internalType": "uint256",
          "name": "_days",
          "type": "uint256"
        }
      ],
      "name": "setStakingEndDays",
      "outputs": [],
      "stateMutability": "nonpayable",
      "type": "function"
    },
    {
      "inputs": [],
      "name": "stakingPercent",
      "outputs": [
        {
          "internalType": "uint256",
          "name": "",
          "type": "uint256"
        }
      ],
      "stateMutability": "view",
      "type": "function"
    },
    {
      "inputs": [
        {
          "internalType": "uint256",
          "name": "",
          "type": "uint256"
        },
        {
          "internalType": "uint256",
          "name": "",
          "type": "uint256"
        }
      ],
      "name": "stakingUsers",
      "outputs": [
        {
          "internalType": "address",
          "name": "",
          "type": "address"
        }
      ],
      "stateMutability": "view",
      "type": "function"
    },
    {
      "inputs": [],
      "name": "startBlock",
      "outputs": [
        {
          "internalType": "uint256",
          "name": "",
          "type": "uint256"
        }
      ],
      "stateMutability": "view",
      "type": "function"
    },
    {
      "inputs": [],
      "name": "totalAllocPoint",
      "outputs": [
        {
          "internalType": "uint256",
          "name": "",
          "type": "uint256"
        }
      ],
      "stateMutability": "view",
      "type": "function"
    },
    {
      "inputs": [
        {
          "internalType": "address",
          "name": "newOwner",
          "type": "address"
        }
      ],
      "name": "transferOwnership",
      "outputs": [],
      "stateMutability": "nonpayable",
      "type": "function"
    },
    {
      "inputs": [
        {
          "internalType": "uint256",
          "name": "newAmount",
          "type": "uint256"
        }
      ],
      "name": "updateBNCPerBlock",
      "outputs": [],
      "stateMutability": "nonpayable",
      "type": "function"
    },
    {
      "inputs": [
        {
          "internalType": "uint256",
          "name": "_pid",
          "type": "uint256"
        }
      ],
      "name": "updatePool",
      "outputs": [],
      "stateMutability": "nonpayable",
      "type": "function"
    },
    {
      "inputs": [
        {
          "internalType": "uint256",
          "name": "_pid",
          "type": "uint256"
        },
        {
          "internalType": "address",
          "name": "_user",
          "type": "address"
        }
      ],
      "name": "userBlockRewardPerBlock",
      "outputs": [
        {
          "internalType": "uint256",
          "name": "",
          "type": "uint256"
        }
      ],
      "stateMutability": "view",
      "type": "function"
    },
    {
      "inputs": [
        {
          "internalType": "uint256",
          "name": "",
          "type": "uint256"
        },
        {
          "internalType": "address",
          "name": "",
          "type": "address"
        }
      ],
      "name": "userInfo",
      "outputs": [
        {
          "internalType": "uint256",
          "name": "amount",
          "type": "uint256"
        },
        {
          "internalType": "uint256",
          "name": "exactRewardCal",
          "type": "uint256"
        },
        {
          "internalType": "uint256",
          "name": "pendingReward",
          "type": "uint256"
        },
        {
          "internalType": "uint256",
          "name": "stakingStartTime",
          "type": "uint256"
        }
      ],
      "stateMutability": "view",
      "type": "function"
    },
    {
      "inputs": [
        {
          "internalType": "uint256",
          "name": "_pid",
          "type": "uint256"
        },
        {
          "internalType": "uint256",
          "name": "_amount",
          "type": "uint256"
        }
      ],
      "name": "withdraw",
      "outputs": [],
      "stateMutability": "nonpayable",
      "type": "function"
    },
    {
      "inputs": [],
      "name": "withdrawDevFee",
      "outputs": [],
      "stateMutability": "nonpayable",
      "type": "function"
    }
  ],
  "bytecode": "0x608060405261271060045560016009555f600f555f60105534801562000023575f80fd5b5060405162004094380380620040948339818101604052810190620000499190620002e4565b805f73ffffffffffffffffffffffffffffffffffffffff168173ffffffffffffffffffffffffffffffffffffffff1603620000bd575f6040517f1e4fbdf7000000000000000000000000000000000000000000000000000000008152600401620000b49190620003a3565b60405180910390fd5b620000ce816200018660201b60201c565b50600180819055508660025f6101000a81548173ffffffffffffffffffffffffffffffffffffffff021916908373ffffffffffffffffffffffffffffffffffffffff1602179055508560075f6101000a81548173ffffffffffffffffffffffffffffffffffffffff021916908373ffffffffffffffffffffffffffffffffffffffff1602179055508460068190555083600581905550826008819055508160118190555081600a8190555050505050505050620003be565b5f805f9054906101000a900473ffffffffffffffffffffffffffffffffffffffff169050815f806101000a81548173ffffffffffffffffffffffffffffffffffffffff021916908373ffffffffffffffffffffffffffffffffffffffff1602179055508173ffffffffffffffffffffffffffffffffffffffff168173ffffffffffffffffffffffffffffffffffffffff167f8be0079c531659141344cd1fd0a4f28419497f9722a3daafe3b4186f6b6457e060405160405180910390a35050565b5f80fd5b5f73ffffffffffffffffffffffffffffffffffffffff82169050919050565b5f62000276826200024b565b9050919050565b62000288816200026a565b811462000293575f80fd5b50565b5f81519050620002a6816200027d565b92915050565b5f819050919050565b620002c081620002ac565b8114620002cb575f80fd5b50565b5f81519050620002de81620002b5565b92915050565b5f805f805f805f60e0888a03121562000302576200030162000247565b5b5f620003118a828b0162000296565b9750506020620003248a828b0162000296565b9650506040620003378a828b01620002ce565b95505060606200034a8a828b01620002ce565b94505060806200035d8a828b01620002ce565b93505060a0620003708a828b01620002ce565b92505060c0620003838a828b0162000296565b91505092959891949750929550565b6200039d816200026a565b82525050565b5f602082019050620003b85f83018462000392565b92915050565b613cc880620003cc5f395ff3fe608060405234801561000f575f80fd5b5060043610610272575f3560e01c80638da5cb5b1161014f578063c2e40266116100c1578063e2bbb15811610085578063e2bbb1581461077c578063e88e0e3a14610798578063edbaf9f2146107b6578063f2747099146107e6578063f29588c714610816578063f2fde38b1461083457610272565b8063c2e40266146106ea578063c6a37cb81461071a578063cb93f7ef14610738578063d0d41fe114610742578063e12da02e1461075e57610272565b8063a5981e7b11610113578063a5981e7b14610628578063abb7626814610644578063b76e360c14610660578063bd62a7d91461067e578063be1193ea1461069c578063bfa621f5146106ba57610272565b80638da5cb5b1461055b5780638dbb1e3a1461057957806393f1a40b146105a95780639586712a146105dc578063a1ee5ec8146105f857610272565b80634e0f4e9f116101e8578063715018a6116101ac578063715018a6146104bf57806373d4a13a146104c95780637709fc4b146104e757806387831b43146105035780638a50bb36146105215780638aa285501461053d57610272565b80634e0f4e9f1461041d57806351eb05a61461044d5780635312ea8e14610469578063630b5ba11461048557806370d6fcbd1461048f57610272565b806317caf6f11161023a57806317caf6f11461035b5780631ab06ee51461037957806321b1aecb14610395578063441a3e70146103b357806348cd4cb1146103cf57806348fec104146103ed57610272565b8063081e3eda146102765780630d25b679146102945780631526fe27146102c457806316090615146102f9578063172728cc1461032b575b5f80fd5b61027e610850565b60405161028b919061315f565b60405180910390f35b6102ae60048036038101906102a991906131a6565b61085c565b6040516102bb919061315f565b60405180910390f35b6102de60048036038101906102d991906131a6565b610865565b6040516102f09695949392919061324b565b60405180910390f35b610313600480360381019061030e91906132e5565b6108cb565b60405161032293929190613323565b60405180910390f35b61034560048036038101906103409190613358565b6108fc565b60405161035291906133a5565b60405180910390f35b610363610944565b604051610370919061315f565b60405180910390f35b610393600480360381019061038e9190613358565b61094a565b005b61039d610a11565b6040516103aa919061315f565b60405180910390f35b6103cd60048036038101906103c89190613358565b610a17565b005b6103d7610cbf565b6040516103e4919061315f565b60405180910390f35b610407600480360381019061040291906131a6565b610cc5565b604051610414919061315f565b60405180910390f35b610437600480360381019061043291906132e5565b610ded565b604051610444919061315f565b60405180910390f35b610467600480360381019061046291906131a6565b611033565b005b610483600480360381019061047e91906131a6565b611289565b005b61048d61162f565b005b6104a960048036038101906104a491906132e5565b611660565b6040516104b6919061315f565b60405180910390f35b6104c76117c7565b005b6104d16117da565b6040516104de91906133de565b60405180910390f35b61050160048036038101906104fc91906131a6565b6117ff565b005b61050b6118e0565b604051610518919061315f565b60405180910390f35b61053b600480360381019061053691906131a6565b6118e9565b005b610545611a8b565b604051610552919061315f565b60405180910390f35b610563611a91565b60405161057091906133a5565b60405180910390f35b610593600480360381019061058e9190613358565b611ab8565b6040516105a0919061315f565b60405180910390f35b6105c360048036038101906105be91906132e5565b611ada565b6040516105d394939291906133f7565b60405180910390f35b6105f660048036038101906105f191906132e5565b611b11565b005b610612600480360381019061060d91906132e5565b611cb5565b60405161061f9190613489565b60405180910390f35b610642600480360381019061063d9190613358565b611d39565b005b61065e60048036038101906106599190613358565b611de5565b005b610668611ec7565b604051610675919061315f565b60405180910390f35b610686611ecd565b604051610693919061315f565b60405180910390f35b6106a4611ed3565b6040516106b1919061315f565b60405180910390f35b6106d460048036038101906106cf91906131a6565b611ed9565b6040516106e1919061315f565b60405180910390f35b61070460048036038101906106ff91906132e5565b611f29565b604051610711919061315f565b60405180910390f35b61072261208a565b60405161072f919061315f565b60405180910390f35b610740612090565b005b61075c600480360381019061075791906134a2565b6121c0565b005b6107666122dd565b604051610773919061315f565b60405180910390f35b61079660048036038101906107919190613358565b6122e3565b005b6107a06125a6565b6040516107ad91906133a5565b60405180910390f35b6107d060048036038101906107cb91906131a6565b6125cb565b6040516107dd919061315f565b60405180910390f35b61080060048036038101906107fb91906132e5565b6126f6565b60405161080d919061315f565b60405180910390f35b61081e61279b565b60405161082b91906134ed565b60405180910390f35b61084e600480360381019061084991906134a2565b6127c0565b005b5f600b80549050905090565b5f819050919050565b600b8181548110610874575f80fd5b905f5260205f2090600602015f91509050805f015f9054906101000a900473ffffffffffffffffffffffffffffffffffffffff16908060010154908060020154908060030154908060040154908060050154905086565b600d602052815f5260405f20602052805f5260405f205f9150915050805f0154908060010154908060020154905083565b600e602052815f5260405f208181548110610915575f80fd5b905f5260205f20015f915091509054906101000a900473ffffffffffffffffffffffffffffffffffffffff1681565b60105481565b610952612844565b81600b80549050811061099a576040517f08c379a000000000000000000000000000000000000000000000000000000000815260040161099190613560565b60405180910390fd5b6109a261162f565b81600b84815481106109b7576109b661357e565b5b905f5260205f209060060201600101546010546109d491906135d8565b6109de919061360b565b60108190555081600b84815481106109f9576109f861357e565b5b905f5260205f20906006020160010181905550505050565b60045481565b610a1f6128cb565b81600b805490508110610a67576040517f08c379a0000000000000000000000000000000000000000000000000000000008152600401610a5e90613560565b60405180910390fd5b5f600b8481548110610a7c57610a7b61357e565b5b905f5260205f20906006020190505f600c5f8681526020019081526020015f205f3373ffffffffffffffffffffffffffffffffffffffff1673ffffffffffffffffffffffffffffffffffffffff1681526020019081526020015f2090508160040154421015610b20576040517f08c379a0000000000000000000000000000000000000000000000000000000008152600401610b1790613688565b60405180910390fd5b83815f01541015610b66576040517f08c379a0000000000000000000000000000000000000000000000000000000008152600401610b5d906136f0565b60405180910390fd5b610b6f85611033565b610b798533612911565b5f841115610c365783815f0154610b9091906135d8565b815f0181905550815f015f9054906101000a900473ffffffffffffffffffffffffffffffffffffffff1673ffffffffffffffffffffffffffffffffffffffff1663a9059cbb33866040518363ffffffff1660e01b8152600401610bf492919061370e565b6020604051808303815f875af1158015610c10573d5f803e3d5ffd5b505050506040513d601f19601f82011682018060405250810190610c34919061376a565b505b64e8d4a510008260030154825f0154610c4f9190613795565b610c599190613803565b8160010181905550843373ffffffffffffffffffffffffffffffffffffffff167ff279e6a1f5e320cca91135676d9cb6e44ca8a08c0b88342bcdb1144f6511b56886604051610ca8919061315f565b60405180910390a3505050610cbb612a29565b5050565b60115481565b5f80600b8381548110610cdb57610cda61357e565b5b905f5260205f20906006020190505f6010548260010154600854610cff9190613795565b610d099190613803565b90505f825f015f9054906101000a900473ffffffffffffffffffffffffffffffffffffffff1673ffffffffffffffffffffffffffffffffffffffff166370a08231306040518263ffffffff1660e01b8152600401610d6791906133a5565b602060405180830381865afa158015610d82573d5f803e3d5ffd5b505050506040513d601f19601f82011682018060405250810190610da69190613847565b90505f808211610db6575f610de2565b606482670de0b6b3a764000085610dcd9190613795565b610dd79190613803565b610de19190613795565b5b905050505050919050565b5f82600b805490508110610e36576040517f08c379a0000000000000000000000000000000000000000000000000000000008152600401610e2d90613560565b60405180910390fd5b5f600b8581548110610e4b57610e4a61357e565b5b905f5260205f20906006020190505f600c5f8781526020019081526020015f205f8673ffffffffffffffffffffffffffffffffffffffff1673ffffffffffffffffffffffffffffffffffffffff1681526020019081526020015f2090505f826003015490505f835f015f9054906101000a900473ffffffffffffffffffffffffffffffffffffffff1673ffffffffffffffffffffffffffffffffffffffff166370a08231306040518263ffffffff1660e01b8152600401610f0c91906133a5565b602060405180830381865afa158015610f27573d5f803e3d5ffd5b505050506040513d601f19601f82011682018060405250810190610f4b9190613847565b9050836002015443118015610f6057505f8114155b15610fe9575f610f74856002015443611ab8565b90505f600454600554601054886001015460085486610f939190613795565b610f9d9190613795565b610fa79190613803565b610fb19190613795565b610fbb9190613803565b90508264e8d4a5100082610fcf9190613795565b610fd99190613803565b84610fe4919061360b565b935050505b826001015464e8d4a5100083855f01546110039190613795565b61100d9190613803565b846002015461101c919061360b565b61102691906135d8565b9550505050505092915050565b80600b80549050811061107b576040517f08c379a000000000000000000000000000000000000000000000000000000000815260040161107290613560565b60405180910390fd5b5f600b83815481106110905761108f61357e565b5b905f5260205f2090600602019050806002015443116110af5750611285565b5f815f015f9054906101000a900473ffffffffffffffffffffffffffffffffffffffff1673ffffffffffffffffffffffffffffffffffffffff166370a08231306040518263ffffffff1660e01b815260040161110b91906133a5565b602060405180830381865afa158015611126573d5f803e3d5ffd5b505050506040513d601f19601f8201168201806040525081019061114a9190613847565b90505f8111611163574382600201819055505050611285565b5f611172836002015443611ab8565b90505f6004546005546010548660010154600854866111919190613795565b61119b9190613795565b6111a59190613803565b6111af9190613795565b6111b99190613803565b905060025f9054906101000a900473ffffffffffffffffffffffffffffffffffffffff1673ffffffffffffffffffffffffffffffffffffffff16634e6ec24730836040518363ffffffff1660e01b815260040161121792919061370e565b5f604051808303815f87803b15801561122e575f80fd5b505af1158015611240573d5f803e3d5ffd5b505050508264e8d4a51000826112569190613795565b6112609190613803565b846003015461126f919061360b565b8460030181905550438460020181905550505050505b5050565b6112916128cb565b80600b8054905081106112d9576040517f08c379a00000000000000000000000000000000000000000000000000000000081526004016112d090613560565b60405180910390fd5b5f600b83815481106112ee576112ed61357e565b5b905f5260205f20906006020190505f600c5f8581526020019081526020015f205f3373ffffffffffffffffffffffffffffffffffffffff1673ffffffffffffffffffffffffffffffffffffffff1681526020019081526020015f2090505f815f01549050825f015f9054906101000a900473ffffffffffffffffffffffffffffffffffffffff1673ffffffffffffffffffffffffffffffffffffffff1663a9059cbb33836040518363ffffffff1660e01b81526004016113af92919061370e565b6020604051808303815f875af11580156113cb573d5f803e3d5ffd5b505050506040513d601f19601f820116820180604052508101906113ef919061376a565b50843373ffffffffffffffffffffffffffffffffffffffff167fbb757047c2b5f3974fe26b7c10f732e7bce710b0952a71082702781e62ae059583604051611437919061315f565b60405180910390a35f826002015490505f82855f015f9054906101000a900473ffffffffffffffffffffffffffffffffffffffff1673ffffffffffffffffffffffffffffffffffffffff166370a08231306040518263ffffffff1660e01b81526004016114a491906133a5565b602060405180830381865afa1580156114bf573d5f803e3d5ffd5b505050506040513d601f19601f820116820180604052508101906114e39190613847565b6114ed91906135d8565b90505f8164e8d4a51000856115029190613795565b61150c9190613803565b90505f818461151b9190613803565b90506115268161085c565b505f8311801561153557505f84115b1561154657611545898585612a32565b5b5f600d5f8b81526020019081526020015f205f3373ffffffffffffffffffffffffffffffffffffffff1673ffffffffffffffffffffffffffffffffffffffff1681526020019081526020015f20905085815f01819055508481600101819055504281600201819055507f141808067eef662560896fb26b7bea7a8972524c1d1163e9fa1428990cb61d4933825f0154836001015484600201546040516115ef9493929190613872565b60405180910390a15f875f01819055505f87600101819055505f876002018190555061161b8a33612bd1565b50505050505050505061162c612a29565b50565b5f600b8054905090505f5b8181101561165c5761164b81611033565b80611655906138b5565b905061163a565b5050565b5f80600b84815481106116765761167561357e565b5b905f5260205f20906006020190505f600c5f8681526020019081526020015f205f8573ffffffffffffffffffffffffffffffffffffffff1673ffffffffffffffffffffffffffffffffffffffff1681526020019081526020015f2090505f6116dd86611ed9565b90505f835f015f9054906101000a900473ffffffffffffffffffffffffffffffffffffffff1673ffffffffffffffffffffffffffffffffffffffff166370a08231306040518263ffffffff1660e01b815260040161173b91906133a5565b602060405180830381865afa158015611756573d5f803e3d5ffd5b505050506040513d601f19601f8201168201806040525081019061177a9190613847565b64e8d4a51000845f015461178e9190613795565b6117989190613803565b90505f64e8d4a5100082846117ad9190613795565b6117b79190613803565b9050809550505050505092915050565b6117cf612844565b6117d85f612da0565b565b60035f9054906101000a900473ffffffffffffffffffffffffffffffffffffffff1681565b611807612844565b68056bc75e2d63100000811115611853576040517f08c379a000000000000000000000000000000000000000000000000000000000815260040161184a90613946565b60405180910390fd5b66038d7ea4c6800081101561189d576040517f08c379a0000000000000000000000000000000000000000000000000000000008152600401611894906139ae565b60405180910390fd5b806008819055507f1e19929b3cb970f6d66d05a2698000db2ac7eafe495aee2c6c32bd7960a97ead6008546040516118d5919061315f565b60405180910390a150565b5f600f54905090565b6118f16128cb565b80600b805490508110611939576040517f08c379a000000000000000000000000000000000000000000000000000000000815260040161193090613560565b60405180910390fd5b61194282611033565b61194c8233612911565b5f600c5f8481526020019081526020015f205f3373ffffffffffffffffffffffffffffffffffffffff1673ffffffffffffffffffffffffffffffffffffffff1681526020019081526020015f2090505f600b84815481106119b0576119af61357e565b5b905f5260205f20906006020190508060040154421015611a05576040517f08c379a00000000000000000000000000000000000000000000000000000000081526004016119fc90613688565b60405180910390fd5b5f82600201541115611a7d575f826002015490505f8360020181905550611a2c3382612e61565b843373ffffffffffffffffffffffffffffffffffffffff167f9da87e8cce29a4140e89780f6e64e0b1cd58e4fa1cb5ee53effe97264f290c6c83604051611a73919061315f565b60405180910390a3505b505050611a88612a29565b50565b60095481565b5f805f9054906101000a900473ffffffffffffffffffffffffffffffffffffffff16905090565b5f60095483611ac79190613795565b82611ad291906135d8565b905092915050565b600c602052815f5260405f20602052805f5260405f205f9150915050805f0154908060010154908060020154908060030154905084565b611b19612844565b611b228161304a565b611b2a61162f565b5f6011544310611b3a5743611b3e565b6011545b905082601054611b4e919061360b565b6010819055505f429050600b6040518060c001604052808573ffffffffffffffffffffffffffffffffffffffff1681526020018681526020018481526020015f81526020015f815260200183815250908060018154018082558091505060019003905f5260205f2090600602015f909190919091505f820151815f015f6101000a81548173ffffffffffffffffffffffffffffffffffffffff021916908373ffffffffffffffffffffffffffffffffffffffff1602179055506020820151816001015560408201518160020155606082015181600301556080820151816004015560a0820151816005015550505f600b6001600b80549050611c5091906135d8565b81548110611c6157611c6061357e565b5b905f5260205f20906006020190507f835d6aaf6651debe772fc75038ad94a8927c1a1e221626d79104ad9d96f3a68385858360050154604051611ca6939291906139cc565b60405180910390a15050505050565b611cbd613129565b600d5f8481526020019081526020015f205f8373ffffffffffffffffffffffffffffffffffffffff1673ffffffffffffffffffffffffffffffffffffffff1681526020019081526020015f206040518060600160405290815f820154815260200160018201548152602001600282015481525050905092915050565b611d41612844565b5f8190506004548184611d54919061360b565b1115611d95576040517f08c379a0000000000000000000000000000000000000000000000000000000008152600401611d8c90613a4b565b60405180910390fd5b82600581905550816006819055507fcbd554161f22a88862569b669f84507adc410008353e0a023297d3ea419126f7600554600654604051611dd8929190613a69565b60405180910390a1505050565b611ded612844565b81600b805490508110611e35576040517f08c379a0000000000000000000000000000000000000000000000000000000008152600401611e2c90613560565b60405180910390fd5b5f600b8481548110611e4a57611e4961357e565b5b905f5260205f20906006020190505f6201518084611e689190613795565b42611e73919061360b565b9050428111611eb7576040517f08c379a0000000000000000000000000000000000000000000000000000000008152600401611eae90613ada565b60405180910390fd5b8082600401819055505050505050565b600a5481565b60065481565b60055481565b5f80600b8381548110611eef57611eee61357e565b5b905f5260205f20906006020190505f6010548260010154600854611f139190613795565b611f1d9190613803565b90508092505050919050565b5f80600b8481548110611f3f57611f3e61357e565b5b905f5260205f20906006020190505f600c5f8681526020019081526020015f205f8573ffffffffffffffffffffffffffffffffffffffff1673ffffffffffffffffffffffffffffffffffffffff1681526020019081526020015f2090505f825f015f9054906101000a900473ffffffffffffffffffffffffffffffffffffffff1673ffffffffffffffffffffffffffffffffffffffff166370a08231306040518263ffffffff1660e01b8152600401611ff891906133a5565b602060405180830381865afa158015612013573d5f803e3d5ffd5b505050506040513d601f19601f820116820180604052508101906120379190613847565b90505f8164e8d4a51000845f015461204f9190613795565b6120599190613803565b90505f64e8d4a5100082600f546120709190613795565b61207a9190613803565b9050809550505050505092915050565b60085481565b43600a54106120d4576040517f08c379a00000000000000000000000000000000000000000000000000000000081526004016120cb90613b42565b60405180910390fd5b5f600854600a54436120e691906135d8565b6120f09190613795565b905060025f9054906101000a900473ffffffffffffffffffffffffffffffffffffffff1673ffffffffffffffffffffffffffffffffffffffff16634e6ec24760075f9054906101000a900473ffffffffffffffffffffffffffffffffffffffff16600454600654856121629190613795565b61216c9190613803565b6040518363ffffffff1660e01b815260040161218992919061370e565b5f604051808303815f87803b1580156121a0575f80fd5b505af11580156121b2573d5f803e3d5ffd5b5050505043600a8190555050565b6121c8612844565b5f73ffffffffffffffffffffffffffffffffffffffff168173ffffffffffffffffffffffffffffffffffffffff1603612236576040517f08c379a000000000000000000000000000000000000000000000000000000000815260040161222d90613baa565b60405180910390fd5b8060075f6101000a81548173ffffffffffffffffffffffffffffffffffffffff021916908373ffffffffffffffffffffffffffffffffffffffff16021790555060075f9054906101000a900473ffffffffffffffffffffffffffffffffffffffff1673ffffffffffffffffffffffffffffffffffffffff167fb1c7911ca1455735ffd17fec398b65f34157a7b58831b586878f5d3c2cf44ee260405160405180910390a250565b600f5481565b6122eb6128cb565b81600b805490508110612333576040517f08c379a000000000000000000000000000000000000000000000000000000000815260040161232a90613560565b60405180910390fd5b5f600b84815481106123485761234761357e565b5b905f5260205f20906006020190505f600c5f8681526020019081526020015f205f3373ffffffffffffffffffffffffffffffffffffffff1673ffffffffffffffffffffffffffffffffffffffff1681526020019081526020015f2090506123ae85611033565b6123b88533612911565b5f84111561247c575f825f015f9054906101000a900473ffffffffffffffffffffffffffffffffffffffff1690508073ffffffffffffffffffffffffffffffffffffffff166323b872dd3330886040518463ffffffff1660e01b815260040161242393929190613bc8565b6020604051808303815f875af115801561243f573d5f803e3d5ffd5b505050506040513d601f19601f82011682018060405250810190612463919061376a565b5084825f0154612473919061360b565b825f0181905550505b5f8411801561248d57505f815f0154145b1561250257600e5f8681526020019081526020015f2033908060018154018082558091505060019003905f5260205f20015f9091909190916101000a81548173ffffffffffffffffffffffffffffffffffffffff021916908373ffffffffffffffffffffffffffffffffffffffff1602179055505b64e8d4a510008260030154825f015461251b9190613795565b6125259190613803565b81600101819055505f816003015403612542574281600301819055505b843373ffffffffffffffffffffffffffffffffffffffff167f36af321ec8d3c75236829c5317affd40ddb308863a1236d2d277a4025cccee1e86846003015460405161258f929190613a69565b60405180910390a35050506125a2612a29565b5050565b60075f9054906101000a900473ffffffffffffffffffffffffffffffffffffffff1681565b5f80600b83815481106125e1576125e061357e565b5b905f5260205f20906006020190505f60105482600101546008546126059190613795565b61260f9190613803565b90505f825f015f9054906101000a900473ffffffffffffffffffffffffffffffffffffffff1673ffffffffffffffffffffffffffffffffffffffff166370a08231306040518263ffffffff1660e01b815260040161266d91906133a5565b602060405180830381865afa158015612688573d5f803e3d5ffd5b505050506040513d601f19601f820116820180604052508101906126ac9190613847565b90505f8082116126bc575f6126e8565b606482670de0b6b3a7640000856126d39190613795565b6126dd9190613803565b6126e79190613795565b5b905080945050505050919050565b5f80600b848154811061270c5761270b61357e565b5b905f5260205f20906006020190505f600c5f8681526020019081526020015f205f8573ffffffffffffffffffffffffffffffffffffffff1673ffffffffffffffffffffffffffffffffffffffff1681526020019081526020015f2090505f64e8d4a510008360030154835f01546127839190613795565b61278d9190613803565b905080935050505092915050565b60025f9054906101000a900473ffffffffffffffffffffffffffffffffffffffff1681565b6127c8612844565b5f73ffffffffffffffffffffffffffffffffffffffff168173ffffffffffffffffffffffffffffffffffffffff1603612838575f6040517f1e4fbdf700000000000000000000000000000000000000000000000000000000815260040161282f91906133a5565b60405180910390fd5b61284181612da0565b50565b61284c613122565b73ffffffffffffffffffffffffffffffffffffffff1661286a611a91565b73ffffffffffffffffffffffffffffffffffffffff16146128c95761288d613122565b6040517f118cdaa70000000000000000000000000000000000000000000000000000000081526004016128c091906133a5565b60405180910390fd5b565b600260015403612907576040517f3ee5aeb500000000000000000000000000000000000000000000000000000000815260040160405180910390fd5b6002600181905550565b81600b805490508110612959576040517f08c379a000000000000000000000000000000000000000000000000000000000815260040161295090613560565b60405180910390fd5b5f600b848154811061296e5761296d61357e565b5b905f5260205f20906006020190505f600c5f8681526020019081526020015f205f8573ffffffffffffffffffffffffffffffffffffffff1673ffffffffffffffffffffffffffffffffffffffff1681526020019081526020015f2090505f816001015464e8d4a510008460030154845f01546129ea9190613795565b6129f49190613803565b6129fe91906135d8565b90505f811115612a2157808260020154612a18919061360b565b82600201819055505b505050505050565b60018081905550565b5f600e5f8581526020019081526020015f208054905090505f5b81811015612b8f575f600e5f8781526020019081526020015f208281548110612a7857612a7761357e565b5b905f5260205f20015f9054906101000a900473ffffffffffffffffffffffffffffffffffffffff1690505f600c5f8881526020019081526020015f205f8373ffffffffffffffffffffffffffffffffffffffff1673ffffffffffffffffffffffffffffffffffffffff1681526020019081526020015f2090505f8564e8d4a51000835f0154612b079190613795565b612b119190613803565b905064e8d4a510008188612b259190613795565b612b2f9190613803565b600f5f828254612b3f919061360b565b9250508190555064e8d4a510008188612b589190613795565b612b629190613803565b826002015f828254612b74919061360b565b9250508190555050505080612b88906138b5565b9050612a4c565b507f2b3815017a53df0f7a02daff8930fa0330e6091a501c5de817e0df95894bab1d848484604051612bc393929190613323565b60405180910390a150505050565b5f600e5f8481526020019081526020015f208054905090505f5b81811015612d9a578273ffffffffffffffffffffffffffffffffffffffff16600e5f8681526020019081526020015f208281548110612c2d57612c2c61357e565b5b905f5260205f20015f9054906101000a900473ffffffffffffffffffffffffffffffffffffffff1673ffffffffffffffffffffffffffffffffffffffff1603612d8757600e5f8581526020019081526020015f20600183612c8e91906135d8565b81548110612c9f57612c9e61357e565b5b905f5260205f20015f9054906101000a900473ffffffffffffffffffffffffffffffffffffffff16600e5f8681526020019081526020015f208281548110612cea57612ce961357e565b5b905f5260205f20015f6101000a81548173ffffffffffffffffffffffffffffffffffffffff021916908373ffffffffffffffffffffffffffffffffffffffff160217905550600e5f8581526020019081526020015f20805480612d5057612d4f613bfd565b5b600190038181905f5260205f20015f6101000a81549073ffffffffffffffffffffffffffffffffffffffff02191690559055612d9a565b8080612d92906138b5565b915050612beb565b50505050565b5f805f9054906101000a900473ffffffffffffffffffffffffffffffffffffffff169050815f806101000a81548173ffffffffffffffffffffffffffffffffffffffff021916908373ffffffffffffffffffffffffffffffffffffffff1602179055508173ffffffffffffffffffffffffffffffffffffffff168173ffffffffffffffffffffffffffffffffffffffff167f8be0079c531659141344cd1fd0a4f28419497f9722a3daafe3b4186f6b6457e060405160405180910390a35050565b5f60025f9054906101000a900473ffffffffffffffffffffffffffffffffffffffff1673ffffffffffffffffffffffffffffffffffffffff166327e235e3306040518263ffffffff1660e01b8152600401612ebc91906133a5565b602060405180830381865afa158015612ed7573d5f803e3d5ffd5b505050506040513d601f19601f82011682018060405250810190612efb9190613847565b905080821115612fa75760025f9054906101000a900473ffffffffffffffffffffffffffffffffffffffff1673ffffffffffffffffffffffffffffffffffffffff1663a9059cbb84836040518363ffffffff1660e01b8152600401612f6192919061370e565b6020604051808303815f875af1158015612f7d573d5f803e3d5ffd5b505050506040513d601f19601f82011682018060405250810190612fa1919061376a565b50613045565b60025f9054906101000a900473ffffffffffffffffffffffffffffffffffffffff1673ffffffffffffffffffffffffffffffffffffffff1663a9059cbb84846040518363ffffffff1660e01b815260040161300392919061370e565b6020604051808303815f875af115801561301f573d5f803e3d5ffd5b505050506040513d601f19601f82011682018060405250810190613043919061376a565b505b505050565b5f600b8054905090505f5b8181101561311d578273ffffffffffffffffffffffffffffffffffffffff16600b82815481106130885761308761357e565b5b905f5260205f2090600602015f015f9054906101000a900473ffffffffffffffffffffffffffffffffffffffff1673ffffffffffffffffffffffffffffffffffffffff160361310c576040517f08c379a000000000000000000000000000000000000000000000000000000000815260040161310390613c74565b60405180910390fd5b80613116906138b5565b9050613055565b505050565b5f33905090565b60405180606001604052805f81526020015f81526020015f81525090565b5f819050919050565b61315981613147565b82525050565b5f6020820190506131725f830184613150565b92915050565b5f80fd5b61318581613147565b811461318f575f80fd5b50565b5f813590506131a08161317c565b92915050565b5f602082840312156131bb576131ba613178565b5b5f6131c884828501613192565b91505092915050565b5f73ffffffffffffffffffffffffffffffffffffffff82169050919050565b5f819050919050565b5f61321361320e613209846131d1565b6131f0565b6131d1565b9050919050565b5f613224826131f9565b9050919050565b5f6132358261321a565b9050919050565b6132458161322b565b82525050565b5f60c08201905061325e5f83018961323c565b61326b6020830188613150565b6132786040830187613150565b6132856060830186613150565b6132926080830185613150565b61329f60a0830184613150565b979650505050505050565b5f6132b4826131d1565b9050919050565b6132c4816132aa565b81146132ce575f80fd5b50565b5f813590506132df816132bb565b92915050565b5f80604083850312156132fb576132fa613178565b5b5f61330885828601613192565b9250506020613319858286016132d1565b9150509250929050565b5f6060820190506133365f830186613150565b6133436020830185613150565b6133506040830184613150565b949350505050565b5f806040838503121561336e5761336d613178565b5b5f61337b85828601613192565b925050602061338c85828601613192565b9150509250929050565b61339f816132aa565b82525050565b5f6020820190506133b85f830184613396565b92915050565b5f6133c88261321a565b9050919050565b6133d8816133be565b82525050565b5f6020820190506133f15f8301846133cf565b92915050565b5f60808201905061340a5f830187613150565b6134176020830186613150565b6134246040830185613150565b6134316060830184613150565b95945050505050565b61344381613147565b82525050565b606082015f82015161345d5f85018261343a565b506020820151613470602085018261343a565b506040820151613483604085018261343a565b50505050565b5f60608201905061349c5f830184613449565b92915050565b5f602082840312156134b7576134b6613178565b5b5f6134c4848285016132d1565b91505092915050565b5f6134d78261321a565b9050919050565b6134e7816134cd565b82525050565b5f6020820190506135005f8301846134de565b92915050565b5f82825260208201905092915050565b7f706f6f6c206e6f742065786973740000000000000000000000000000000000005f82015250565b5f61354a600e83613506565b915061355582613516565b602082019050919050565b5f6020820190508181035f8301526135778161353e565b9050919050565b7f4e487b71000000000000000000000000000000000000000000000000000000005f52603260045260245ffd5b7f4e487b71000000000000000000000000000000000000000000000000000000005f52601160045260245ffd5b5f6135e282613147565b91506135ed83613147565b9250828203905081811115613605576136046135ab565b5b92915050565b5f61361582613147565b915061362083613147565b9250828201905080821115613638576136376135ab565b5b92915050565b7f5374616b696e6720706572696f64206e6f742079657420656e646564000000005f82015250565b5f613672601c83613506565b915061367d8261363e565b602082019050919050565b5f6020820190508181035f83015261369f81613666565b9050919050565b7f77697468647261773a206e6f7420676f6f6400000000000000000000000000005f82015250565b5f6136da601283613506565b91506136e5826136a6565b602082019050919050565b5f6020820190508181035f830152613707816136ce565b9050919050565b5f6040820190506137215f830185613396565b61372e6020830184613150565b9392505050565b5f8115159050919050565b61374981613735565b8114613753575f80fd5b50565b5f8151905061376481613740565b92915050565b5f6020828403121561377f5761377e613178565b5b5f61378c84828501613756565b91505092915050565b5f61379f82613147565b91506137aa83613147565b92508282026137b881613147565b915082820484148315176137cf576137ce6135ab565b5b5092915050565b7f4e487b71000000000000000000000000000000000000000000000000000000005f52601260045260245ffd5b5f61380d82613147565b915061381883613147565b925082613828576138276137d6565b5b828204905092915050565b5f815190506138418161317c565b92915050565b5f6020828403121561385c5761385b613178565b5b5f61386984828501613833565b91505092915050565b5f6080820190506138855f830187613396565b6138926020830186613150565b61389f6040830185613150565b6138ac6060830184613150565b95945050505050565b5f6138bf82613147565b91507fffffffffffffffffffffffffffffffffffffffffffffffffffffffffffffffff82036138f1576138f06135ab565b5b600182019050919050565b7f4d61782070657220626c6f636b2031303020424e4300000000000000000000005f82015250565b5f613930601583613506565b915061393b826138fc565b602082019050919050565b5f6020820190508181035f83015261395d81613924565b9050919050565b7f4d696e2070657220626c6f636b20302e30303120424e430000000000000000005f82015250565b5f613998601783613506565b91506139a382613964565b602082019050919050565b5f6020820190508181035f8301526139c58161398c565b9050919050565b5f6060820190506139df5f830186613150565b6139ec6020830185613396565b6139f96040830184613150565b949350505050565b7f50657263656e742053756d0000000000000000000000000000000000000000005f82015250565b5f613a35600b83613506565b9150613a4082613a01565b602082019050919050565b5f6020820190508181035f830152613a6281613a29565b9050919050565b5f604082019050613a7c5f830185613150565b613a896020830184613150565b9392505050565b7f456e642054696d65206d75737420626520696e207468652066757475726500005f82015250565b5f613ac4601e83613506565b9150613acf82613a90565b602082019050919050565b5f6020820190508181035f830152613af181613ab8565b9050919050565b7f7761697420666f72206e657720626c6f636b00000000000000000000000000005f82015250565b5f613b2c601283613506565b9150613b3782613af8565b602082019050919050565b5f6020820190508181035f830152613b5981613b20565b9050919050565b7f5a65726f000000000000000000000000000000000000000000000000000000005f82015250565b5f613b94600483613506565b9150613b9f82613b60565b602082019050919050565b5f6020820190508181035f830152613bc181613b88565b9050919050565b5f606082019050613bdb5f830186613396565b613be86020830185613396565b613bf56040830184613150565b949350505050565b7f4e487b71000000000000000000000000000000000000000000000000000000005f52603160045260245ffd5b7f706f6f6c206578697374656400000000000000000000000000000000000000005f82015250565b5f613c5e600c83613506565b9150613c6982613c2a565b602082019050919050565b5f6020820190508181035f830152613c8b81613c52565b905091905056fea26469706673582212202065eea779ecb2a5afa02702a1ac37ca33695b3728d4c4c15a5d325d570ac32964736f6c63430008140033",
  "linkReferences": {},
  "deployedLinkReferences": {}
}