{
  "_format": "hh-sol-artifact-1",
  "contractName": "Staking",
  "sourceName": "contracts/contract/Staking.sol",
  "abi": [
    {
      "inputs": [
        {
          "internalType": "address",
          "name": "_BNCToken",
          "type": "address"
        },
        {
          "internalType": "address",
          "name": "_dev0Addr",
          "type": "address"
        },
        {
          "internalType": "uint256",
          "name": "_dev0Percent",
          "type": "uint256"
        },
        {
          "internalType": "uint256",
          "name": "_stakingPercent",
          "type": "uint256"
        },
        {
          "internalType": "uint256",
          "name": "_BNCPerBlock",
          "type": "uint256"
        },
        {
          "internalType": "uint256",
          "name": "_startBlock",
          "type": "uint256"
        },
        {
          "internalType": "address",
          "name": "_initialOwner",
          "type": "address"
        }
      ],
      "stateMutability": "nonpayable",
      "type": "constructor"
    },
    {
      "inputs": [
        {
          "internalType": "address",
          "name": "owner",
          "type": "address"
        }
      ],
      "name": "OwnableInvalidOwner",
      "type": "error"
    },
    {
      "inputs": [
        {
          "internalType": "address",
          "name": "account",
          "type": "address"
        }
      ],
      "name": "OwnableUnauthorizedAccount",
      "type": "error"
    },
    {
      "inputs": [],
      "name": "ReentrancyGuardReentrantCall",
      "type": "error"
    },
    {
      "anonymous": false,
      "inputs": [
        {
          "indexed": false,
          "internalType": "uint256",
          "name": "_allocPoint",
          "type": "uint256"
        },
        {
          "indexed": false,
          "internalType": "address",
          "name": "_lpToken",
          "type": "address"
        },
        {
          "indexed": false,
          "internalType": "uint256",
          "name": "stakingPoolStartTime",
          "type": "uint256"
        },
        {
          "indexed": false,
          "internalType": "uint256",
          "name": "stakingEndTime",
          "type": "uint256"
        }
      ],
      "name": "AddStakingPool",
      "type": "event"
    },
    {
      "anonymous": false,
      "inputs": [
        {
          "indexed": true,
          "internalType": "address",
          "name": "user",
          "type": "address"
        },
        {
          "indexed": true,
          "internalType": "uint256",
          "name": "pid",
          "type": "uint256"
        },
        {
          "indexed": false,
          "internalType": "uint256",
          "name": "amount",
          "type": "uint256"
        }
      ],
      "name": "ClaimBNC",
      "type": "event"
    },
    {
      "anonymous": false,
      "inputs": [
        {
          "indexed": true,
          "internalType": "address",
          "name": "user",
          "type": "address"
        },
        {
          "indexed": true,
          "internalType": "uint256",
          "name": "pid",
          "type": "uint256"
        },
        {
          "indexed": false,
          "internalType": "uint256",
          "name": "amount",
          "type": "uint256"
        },
        {
          "indexed": false,
          "internalType": "uint256",
          "name": "stakingStartTime",
          "type": "uint256"
        }
      ],
      "name": "Deposit",
      "type": "event"
    },
    {
      "anonymous": false,
      "inputs": [
        {
          "indexed": false,
          "internalType": "uint256",
          "name": "_pid",
          "type": "uint256"
        },
        {
          "indexed": false,
          "internalType": "uint256",
          "name": "pendingReward",
          "type": "uint256"
        },
        {
          "indexed": false,
          "internalType": "uint256",
          "name": "totalStaked",
          "type": "uint256"
        }
      ],
      "name": "DistributeRewards",
      "type": "event"
    },
    {
      "anonymous": false,
      "inputs": [
        {
          "indexed": true,
          "internalType": "address",
          "name": "user",
          "type": "address"
        },
        {
          "indexed": true,
          "internalType": "uint256",
          "name": "pid",
          "type": "uint256"
        },
        {
          "indexed": false,
          "internalType": "uint256",
          "name": "amount",
          "type": "uint256"
        }
      ],
      "name": "EmergencyWithdraw",
      "type": "event"
    },
    {
      "anonymous": false,
      "inputs": [
        {
          "indexed": false,
          "internalType": "address",
          "name": "user",
          "type": "address"
        },
        {
          "indexed": false,
          "internalType": "uint256",
          "name": "pid",
          "type": "uint256"
        },
        {
          "indexed": false,
          "internalType": "uint256",
          "name": "LP",
          "type": "uint256"
        },
        {
          "indexed": false,
          "internalType": "uint256",
          "name": "BNC",
          "type": "uint256"
        }
      ],
      "name": "MaturedWithdrawWithdraw",
      "type": "event"
    },
    {
      "anonymous": false,
      "inputs": [
        {
          "indexed": false,
          "internalType": "uint256",
          "name": "_pendingBNC",
          "type": "uint256"
        },
        {
          "indexed": false,
          "internalType": "uint256",
          "name": "_userBlockRewardPerBlock",
          "type": "uint256"
        },
        {
          "indexed": false,
          "internalType": "uint256",
          "name": "_estimatedUserRewardFromNinjs",
          "type": "uint256"
        }
      ],
      "name": "MyAllReward",
      "type": "event"
    },
    {
      "anonymous": false,
      "inputs": [
        {
          "indexed": false,
          "internalType": "address",
          "name": "_Ninja",
          "type": "address"
        },
        {
          "indexed": false,
          "internalType": "uint256",
          "name": "_totalLPToken",
          "type": "uint256"
        },
        {
          "indexed": false,
          "internalType": "uint256",
          "name": "_totalNinjaReward",
          "type": "uint256"
        },
        {
          "indexed": false,
          "internalType": "uint256",
          "name": "_stakingLeftTime",
          "type": "uint256"
        },
        {
          "indexed": false,
          "internalType": "uint256",
          "name": "_ninjaRewardRate",
          "type": "uint256"
        }
      ],
      "name": "NinjaLiftInfo",
      "type": "event"
    },
    {
      "anonymous": false,
      "inputs": [
        {
          "indexed": true,
          "internalType": "address",
          "name": "previousOwner",
          "type": "address"
        },
        {
          "indexed": true,
          "internalType": "address",
          "name": "newOwner",
          "type": "address"
        }
      ],
      "name": "OwnershipTransferred",
      "type": "event"
    },
    {
      "anonymous": false,
      "inputs": [
        {
          "indexed": true,
          "internalType": "address",
          "name": "dev0Addr",
          "type": "address"
        }
      ],
      "name": "SetDev0Address",
      "type": "event"
    },
    {
      "anonymous": false,
      "inputs": [
        {
          "indexed": false,
          "internalType": "uint256",
          "name": "stakingPercent",
          "type": "uint256"
        },
        {
          "indexed": false,
          "internalType": "uint256",
          "name": "dev0Percent",
          "type": "uint256"
        }
      ],
      "name": "SetPercent",
      "type": "event"
    },
    {
      "anonymous": false,
      "inputs": [
        {
          "indexed": false,
          "internalType": "uint256",
          "name": "BNCPerBlock",
          "type": "uint256"
        }
      ],
      "name": "UpdateBNCPerBlock",
      "type": "event"
    },
    {
      "anonymous": false,
      "inputs": [
        {
          "indexed": true,
          "internalType": "address",
          "name": "user",
          "type": "address"
        },
        {
          "indexed": true,
          "internalType": "uint256",
          "name": "pid",
          "type": "uint256"
        },
        {
          "indexed": false,
          "internalType": "uint256",
          "name": "amount",
          "type": "uint256"
        }
      ],
      "name": "Withdraw",
      "type": "event"
    },
    {
      "inputs": [],
      "name": "AlltotalNinjaReward",
      "outputs": [
        {
          "internalType": "uint256",
          "name": "",
          "type": "uint256"
        }
      ],
      "stateMutability": "view",
      "type": "function"
    },
    {
      "inputs": [],
      "name": "BNC",
      "outputs": [
        {
          "internalType": "contract WBNC",
          "name": "",
          "type": "address"
        }
      ],
      "stateMutability": "view",
      "type": "function"
    },
    {
      "inputs": [],
      "name": "BNCPerBlock",
      "outputs": [
        {
          "internalType": "uint256",
          "name": "",
          "type": "uint256"
        }
      ],
      "stateMutability": "view",
      "type": "function"
    },
    {
      "inputs": [],
      "name": "BONUS_MULTIPLIER",
      "outputs": [
        {
          "internalType": "uint256",
          "name": "",
          "type": "uint256"
        }
      ],
      "stateMutability": "view",
      "type": "function"
    },
    {
      "inputs": [
        {
          "internalType": "uint256",
          "name": "_allocPoint",
          "type": "uint256"
        },
        {
          "internalType": "address",
          "name": "_lpToken",
          "type": "address"
        },
        {
          "internalType": "uint256",
          "name": "_endDays",
          "type": "uint256"
        }
      ],
      "name": "addStakingPool",
      "outputs": [],
      "stateMutability": "nonpayable",
      "type": "function"
    },
    {
      "inputs": [
        {
          "internalType": "uint256",
          "name": "_pid",
          "type": "uint256"
        }
      ],
      "name": "claimBNC",
      "outputs": [],
      "stateMutability": "nonpayable",
      "type": "function"
    },
    {
      "inputs": [],
      "name": "data",
      "outputs": [
        {
          "internalType": "contract Data",
          "name": "",
          "type": "address"
        }
      ],
      "stateMutability": "view",
      "type": "function"
    },
    {
      "inputs": [
        {
          "internalType": "uint256",
          "name": "_pid",
          "type": "uint256"
        },
        {
          "internalType": "uint256",
          "name": "_amount",
          "type": "uint256"
        }
      ],
      "name": "deposit",
      "outputs": [],
      "stateMutability": "nonpayable",
      "type": "function"
    },
    {
      "inputs": [],
      "name": "dev0Addr",
      "outputs": [
        {
          "internalType": "address",
          "name": "",
          "type": "address"
        }
      ],
      "stateMutability": "view",
      "type": "function"
    },
    {
      "inputs": [],
      "name": "dev0Percent",
      "outputs": [
        {
          "internalType": "uint256",
          "name": "",
          "type": "uint256"
        }
      ],
      "stateMutability": "view",
      "type": "function"
    },
    {
      "inputs": [
        {
          "internalType": "uint256",
          "name": "_pid",
          "type": "uint256"
        }
      ],
      "name": "emergencyWithdraw",
      "outputs": [],
      "stateMutability": "nonpayable",
      "type": "function"
    },
    {
      "inputs": [
        {
          "internalType": "uint256",
          "name": "_pid",
          "type": "uint256"
        },
        {
          "internalType": "address",
          "name": "_user",
          "type": "address"
        }
      ],
      "name": "estimatedUserRewardFromNinjs",
      "outputs": [
        {
          "internalType": "uint256",
          "name": "",
          "type": "uint256"
        }
      ],
      "stateMutability": "view",
      "type": "function"
    },
    {
      "inputs": [
        {
          "internalType": "uint256",
          "name": "_pid",
          "type": "uint256"
        },
        {
          "internalType": "address",
          "name": "_user",
          "type": "address"
        }
      ],
      "name": "getAccBNCPerShareFromUser",
      "outputs": [
        {
          "internalType": "uint256",
          "name": "",
          "type": "uint256"
        }
      ],
      "stateMutability": "view",
      "type": "function"
    },
    {
      "inputs": [],
      "name": "getAllTotalNinjaReward",
      "outputs": [
        {
          "internalType": "uint256",
          "name": "",
          "type": "uint256"
        }
      ],
      "stateMutability": "view",
      "type": "function"
    },
    {
      "inputs": [
        {
          "internalType": "uint256",
          "name": "_lasttotalNinjaRewardRate",
          "type": "uint256"
        }
      ],
      "name": "getLastNinjaRewardInfo",
      "outputs": [
        {
          "internalType": "uint256",
          "name": "",
          "type": "uint256"
        }
      ],
      "stateMutability": "pure",
      "type": "function"
    },
    {
      "inputs": [
        {
          "internalType": "uint256",
          "name": "_from",
          "type": "uint256"
        },
        {
          "internalType": "uint256",
          "name": "_to",
          "type": "uint256"
        }
      ],
      "name": "getMultiplier",
      "outputs": [
        {
          "internalType": "uint256",
          "name": "",
          "type": "uint256"
        }
      ],
      "stateMutability": "view",
      "type": "function"
    },
    {
      "inputs": [
        {
          "internalType": "uint256",
          "name": "_pid",
          "type": "uint256"
        }
      ],
      "name": "getStakingUsers",
      "outputs": [
        {
          "internalType": "address[]",
          "name": "",
          "type": "address[]"
        }
      ],
      "stateMutability": "view",
      "type": "function"
    },
    {
      "inputs": [],
      "name": "lastBlockDevWithdraw",
      "outputs": [
        {
          "internalType": "uint256",
          "name": "",
          "type": "uint256"
        }
      ],
      "stateMutability": "view",
      "type": "function"
    },
    {
      "inputs": [],
      "name": "massUpdatePools",
      "outputs": [],
      "stateMutability": "nonpayable",
      "type": "function"
    },
    {
      "inputs": [
        {
          "internalType": "uint256",
          "name": "_pid",
          "type": "uint256"
        }
      ],
      "name": "maturedWithdraw",
      "outputs": [],
      "stateMutability": "nonpayable",
      "type": "function"
    },
    {
      "inputs": [
        {
          "internalType": "uint256",
          "name": "_pid",
          "type": "uint256"
        },
        {
          "internalType": "address",
          "name": "_user",
          "type": "address"
        }
      ],
      "name": "myAllReward",
      "outputs": [
        {
          "internalType": "uint256",
          "name": "",
          "type": "uint256"
        },
        {
          "internalType": "uint256",
          "name": "",
          "type": "uint256"
        },
        {
          "internalType": "uint256",
          "name": "",
          "type": "uint256"
        }
      ],
      "stateMutability": "view",
      "type": "function"
    },
    {
      "inputs": [
        {
          "internalType": "uint256",
          "name": "",
          "type": "uint256"
        },
        {
          "internalType": "address",
          "name": "",
          "type": "address"
        }
      ],
      "name": "ninjaInfo",
      "outputs": [
        {
          "internalType": "uint256",
          "name": "totalLPToken",
          "type": "uint256"
        },
        {
          "internalType": "uint256",
          "name": "totalNinjaReward",
          "type": "uint256"
        },
        {
          "internalType": "uint256",
          "name": "stakingLeftTime",
          "type": "uint256"
        }
      ],
      "stateMutability": "view",
      "type": "function"
    },
    {
      "inputs": [],
      "name": "owner",
      "outputs": [
        {
          "internalType": "address",
          "name": "",
          "type": "address"
        }
      ],
      "stateMutability": "view",
      "type": "function"
    },
    {
      "inputs": [
        {
          "internalType": "uint256",
          "name": "_pid",
          "type": "uint256"
        },
        {
          "internalType": "address",
          "name": "_user",
          "type": "address"
        }
      ],
      "name": "pendingBNC",
      "outputs": [
        {
          "internalType": "uint256",
          "name": "",
          "type": "uint256"
        }
      ],
      "stateMutability": "view",
      "type": "function"
    },
    {
      "inputs": [
        {
          "internalType": "uint256",
          "name": "_pid",
          "type": "uint256"
        }
      ],
      "name": "perBlockReward",
      "outputs": [
        {
          "internalType": "uint256",
          "name": "",
          "type": "uint256"
        }
      ],
      "stateMutability": "view",
      "type": "function"
    },
    {
      "inputs": [],
      "name": "percentDec",
      "outputs": [
        {
          "internalType": "uint256",
          "name": "",
          "type": "uint256"
        }
      ],
      "stateMutability": "view",
      "type": "function"
    },
    {
      "inputs": [
        {
          "internalType": "uint256",
          "name": "",
          "type": "uint256"
        }
      ],
      "name": "poolInfo",
      "outputs": [
        {
          "internalType": "contract IERC20",
          "name": "lpToken",
          "type": "address"
        },
        {
          "internalType": "uint256",
          "name": "allocPoint",
          "type": "uint256"
        },
        {
          "internalType": "uint256",
          "name": "lastRewardBlock",
          "type": "uint256"
        },
        {
          "internalType": "uint256",
          "name": "accBNCPerShare",
          "type": "uint256"
        },
        {
          "internalType": "uint256",
          "name": "stakingPoolEndTime",
          "type": "uint256"
        },
        {
          "internalType": "uint256",
          "name": "stakingPoolStartTime",
          "type": "uint256"
        }
      ],
      "stateMutability": "view",
      "type": "function"
    },
    {
      "inputs": [],
      "name": "poolLength",
      "outputs": [
        {
          "internalType": "uint256",
          "name": "",
          "type": "uint256"
        }
      ],
      "stateMutability": "view",
      "type": "function"
    },
    {
      "inputs": [],
      "name": "renounceOwnership",
      "outputs": [],
      "stateMutability": "nonpayable",
      "type": "function"
    },
    {
      "inputs": [
        {
          "internalType": "uint256",
          "name": "_pid",
          "type": "uint256"
        }
      ],
      "name": "rewardPer100Tokens",
      "outputs": [
        {
          "internalType": "uint256",
          "name": "",
          "type": "uint256"
        }
      ],
      "stateMutability": "view",
      "type": "function"
    },
    {
      "inputs": [
        {
          "internalType": "uint256",
          "name": "_pid",
          "type": "uint256"
        },
        {
          "internalType": "uint256",
          "name": "_allocPoint",
          "type": "uint256"
        }
      ],
      "name": "set",
      "outputs": [],
      "stateMutability": "nonpayable",
      "type": "function"
    },
    {
      "inputs": [
        {
          "internalType": "address",
          "name": "_dev0Addr",
          "type": "address"
        }
      ],
      "name": "setDevAddress",
      "outputs": [],
      "stateMutability": "nonpayable",
      "type": "function"
    },
    {
      "inputs": [
        {
          "internalType": "uint256",
          "name": "_stakingPercent",
          "type": "uint256"
        },
        {
          "internalType": "uint256",
          "name": "_dev0Percent",
          "type": "uint256"
        }
      ],
      "name": "setPercent",
      "outputs": [],
      "stateMutability": "nonpayable",
      "type": "function"
    },
    {
      "inputs": [
        {
          "internalType": "uint256",
          "name": "_pid",
          "type": "uint256"
        },
        {
          "internalType": "uint256",
          "name": "_days",
          "type": "uint256"
        }
      ],
      "name": "setStakingEndDays",
      "outputs": [],
      "stateMutability": "nonpayable",
      "type": "function"
    },
    {
      "inputs": [],
      "name": "stakingPercent",
      "outputs": [
        {
          "internalType": "uint256",
          "name": "",
          "type": "uint256"
        }
      ],
      "stateMutability": "view",
      "type": "function"
    },
    {
      "inputs": [
        {
          "internalType": "uint256",
          "name": "",
          "type": "uint256"
        },
        {
          "internalType": "uint256",
          "name": "",
          "type": "uint256"
        }
      ],
      "name": "stakingUsers",
      "outputs": [
        {
          "internalType": "address",
          "name": "",
          "type": "address"
        }
      ],
      "stateMutability": "view",
      "type": "function"
    },
    {
      "inputs": [],
      "name": "startBlock",
      "outputs": [
        {
          "internalType": "uint256",
          "name": "",
          "type": "uint256"
        }
      ],
      "stateMutability": "view",
      "type": "function"
    },
    {
      "inputs": [],
      "name": "totalAllocPoint",
      "outputs": [
        {
          "internalType": "uint256",
          "name": "",
          "type": "uint256"
        }
      ],
      "stateMutability": "view",
      "type": "function"
    },
    {
      "inputs": [
        {
          "internalType": "address",
          "name": "newOwner",
          "type": "address"
        }
      ],
      "name": "transferOwnership",
      "outputs": [],
      "stateMutability": "nonpayable",
      "type": "function"
    },
    {
      "inputs": [
        {
          "internalType": "uint256",
          "name": "newAmount",
          "type": "uint256"
        }
      ],
      "name": "updateBNCPerBlock",
      "outputs": [],
      "stateMutability": "nonpayable",
      "type": "function"
    },
    {
      "inputs": [
        {
          "internalType": "uint256",
          "name": "_pid",
          "type": "uint256"
        },
        {
          "internalType": "address",
          "name": "_user",
          "type": "address"
        }
      ],
      "name": "updatePendingBNC",
      "outputs": [
        {
          "internalType": "uint256",
          "name": "",
          "type": "uint256"
        }
      ],
      "stateMutability": "nonpayable",
      "type": "function"
    },
    {
      "inputs": [
        {
          "internalType": "uint256",
          "name": "_pid",
          "type": "uint256"
        }
      ],
      "name": "updatePool",
      "outputs": [],
      "stateMutability": "nonpayable",
      "type": "function"
    },
    {
      "inputs": [
        {
          "internalType": "uint256",
          "name": "_pid",
          "type": "uint256"
        },
        {
          "internalType": "address",
          "name": "_user",
          "type": "address"
        }
      ],
      "name": "userBlockRewardPerBlock",
      "outputs": [
        {
          "internalType": "uint256",
          "name": "",
          "type": "uint256"
        }
      ],
      "stateMutability": "view",
      "type": "function"
    },
    {
      "inputs": [
        {
          "internalType": "uint256",
          "name": "",
          "type": "uint256"
        },
        {
          "internalType": "address",
          "name": "",
          "type": "address"
        }
      ],
      "name": "userInfo",
      "outputs": [
        {
          "internalType": "uint256",
          "name": "amount",
          "type": "uint256"
        },
        {
          "internalType": "uint256",
          "name": "exactRewardCal",
          "type": "uint256"
        },
        {
          "internalType": "uint256",
          "name": "pendingReward",
          "type": "uint256"
        },
        {
          "internalType": "uint256",
          "name": "stakingStartTime",
          "type": "uint256"
        }
      ],
      "stateMutability": "view",
      "type": "function"
    },
    {
      "inputs": [
        {
          "internalType": "uint256",
          "name": "_pid",
          "type": "uint256"
        },
        {
          "internalType": "uint256",
          "name": "_amount",
          "type": "uint256"
        }
      ],
      "name": "withdraw",
      "outputs": [],
      "stateMutability": "nonpayable",
      "type": "function"
    },
    {
      "inputs": [],
      "name": "withdrawDevFee",
      "outputs": [],
      "stateMutability": "nonpayable",
      "type": "function"
    }
  ],
  "bytecode": "0x608060405261271060045560016009555f600f555f60105534801562000023575f80fd5b506040516200462d3803806200462d8339818101604052810190620000499190620002e4565b805f73ffffffffffffffffffffffffffffffffffffffff168173ffffffffffffffffffffffffffffffffffffffff1603620000bd575f6040517f1e4fbdf7000000000000000000000000000000000000000000000000000000008152600401620000b49190620003a3565b60405180910390fd5b620000ce816200018660201b60201c565b50600180819055508660025f6101000a81548173ffffffffffffffffffffffffffffffffffffffff021916908373ffffffffffffffffffffffffffffffffffffffff1602179055508560075f6101000a81548173ffffffffffffffffffffffffffffffffffffffff021916908373ffffffffffffffffffffffffffffffffffffffff1602179055508460068190555083600581905550826008819055508160118190555081600a8190555050505050505050620003be565b5f805f9054906101000a900473ffffffffffffffffffffffffffffffffffffffff169050815f806101000a81548173ffffffffffffffffffffffffffffffffffffffff021916908373ffffffffffffffffffffffffffffffffffffffff1602179055508173ffffffffffffffffffffffffffffffffffffffff168173ffffffffffffffffffffffffffffffffffffffff167f8be0079c531659141344cd1fd0a4f28419497f9722a3daafe3b4186f6b6457e060405160405180910390a35050565b5f80fd5b5f73ffffffffffffffffffffffffffffffffffffffff82169050919050565b5f62000276826200024b565b9050919050565b62000288816200026a565b811462000293575f80fd5b50565b5f81519050620002a6816200027d565b92915050565b5f819050919050565b620002c081620002ac565b8114620002cb575f80fd5b50565b5f81519050620002de81620002b5565b92915050565b5f805f805f805f60e0888a03121562000302576200030162000247565b5b5f620003118a828b0162000296565b9750506020620003248a828b0162000296565b9650506040620003378a828b01620002ce565b95505060606200034a8a828b01620002ce565b94505060806200035d8a828b01620002ce565b93505060a0620003708a828b01620002ce565b92505060c0620003838a828b0162000296565b91505092959891949750929550565b6200039d816200026a565b82525050565b5f602082019050620003b85f83018462000392565b92915050565b61426180620003cc5f395ff3fe608060405234801561000f575f80fd5b5060043610610288575f3560e01c80638aa285501161015a578063c2e40266116100cc578063e2bbb15811610085578063e2bbb158146107e0578063e88e0e3a146107fc578063eab443141461081a578063f27470991461084a578063f29588c71461087a578063f2fde38b1461089857610288565b8063c2e4026614610732578063c6a37cb814610762578063cb93f7ef14610780578063d0d41fe11461078a578063d84439d5146107a6578063e12da02e146107c257610288565b8063abb762681161011e578063abb762681461065a578063b76e360c14610676578063bb7ef61f14610694578063bd62a7d9146106c6578063be1193ea146106e4578063bfa621f51461070257610288565b80638aa285501461059f5780638da5cb5b146105bd5780638dbb1e3a146105db57806393f1a40b1461060b578063a5981e7b1461063e57610288565b806348cd4cb1116101fe57806370d6fcbd116101b757806370d6fcbd146104f1578063715018a61461052157806373d4a13a1461052b5780637709fc4b1461054957806387831b43146105655780638a50bb361461058357610288565b806348cd4cb11461043157806348fec1041461044f5780634e0f4e9f1461047f57806351eb05a6146104af5780635312ea8e146104cb578063630b5ba1146104e757610288565b80631609061511610250578063160906151461035b578063172728cc1461038d57806317caf6f1146103bd5780631ab06ee5146103db57806321b1aecb146103f7578063441a3e701461041557610288565b8063081e3eda1461028c5780630bd399fd146102aa5780630d25b679146102c657806315155add146102f65780631526fe2714610326575b5f80fd5b6102946108b4565b6040516102a191906135da565b60405180910390f35b6102c460048036038101906102bf9190613621565b6108c0565b005b6102e060048036038101906102db9190613621565b610b10565b6040516102ed91906135da565b60405180910390f35b610310600480360381019061030b9190613621565b610b19565b60405161031d9190613733565b60405180910390f35b610340600480360381019061033b9190613621565b610bb5565b604051610352969594939291906137ae565b60405180910390f35b61037560048036038101906103709190613837565b610c1b565b60405161038493929190613875565b60405180910390f35b6103a760048036038101906103a291906138aa565b610c4c565b6040516103b491906138f7565b60405180910390f35b6103c5610c94565b6040516103d291906135da565b60405180910390f35b6103f560048036038101906103f091906138aa565b610c9a565b005b6103ff610d61565b60405161040c91906135da565b60405180910390f35b61042f600480360381019061042a91906138aa565b610d67565b005b61043961100f565b60405161044691906135da565b60405180910390f35b61046960048036038101906104649190613621565b611015565b60405161047691906135da565b60405180910390f35b61049960048036038101906104949190613837565b611140565b6040516104a691906135da565b60405180910390f35b6104c960048036038101906104c49190613621565b611386565b005b6104e560048036038101906104e09190613621565b6115dc565b005b6104ef6119cd565b005b61050b60048036038101906105069190613837565b6119fe565b60405161051891906135da565b60405180910390f35b610529611b65565b005b610533611b78565b6040516105409190613930565b60405180910390f35b610563600480360381019061055e9190613621565b611b9d565b005b61056d611c7e565b60405161057a91906135da565b60405180910390f35b61059d60048036038101906105989190613621565b611c87565b005b6105a7611e29565b6040516105b491906135da565b60405180910390f35b6105c5611e2f565b6040516105d291906138f7565b60405180910390f35b6105f560048036038101906105f091906138aa565b611e56565b60405161060291906135da565b60405180910390f35b61062560048036038101906106209190613837565b611e78565b6040516106359493929190613949565b60405180910390f35b610658600480360381019061065391906138aa565b611eaf565b005b610674600480360381019061066f91906138aa565b611f5b565b005b61067e61203b565b60405161068b91906135da565b60405180910390f35b6106ae60048036038101906106a99190613837565b612041565b6040516106bd93929190613875565b60405180910390f35b6106ce61207e565b6040516106db91906135da565b60405180910390f35b6106ec612084565b6040516106f991906135da565b60405180910390f35b61071c60048036038101906107179190613621565b61208a565b60405161072991906135da565b60405180910390f35b61074c60048036038101906107479190613837565b6120da565b60405161075991906135da565b60405180910390f35b61076a61223b565b60405161077791906135da565b60405180910390f35b610788612241565b005b6107a4600480360381019061079f919061398c565b612379565b005b6107c060048036038101906107bb91906139b7565b612496565b005b6107ca612668565b6040516107d791906135da565b60405180910390f35b6107fa60048036038101906107f591906138aa565b61266e565b005b610804612931565b60405161081191906138f7565b60405180910390f35b610834600480360381019061082f9190613837565b612956565b60405161084191906135da565b60405180910390f35b610864600480360381019061085f9190613837565b612bbd565b60405161087191906135da565b60405180910390f35b610882612c62565b60405161088f9190613a27565b60405180910390f35b6108b260048036038101906108ad919061398c565b612c87565b005b5f600b80549050905090565b6108c8612d0b565b80600b805490508110610910576040517f08c379a000000000000000000000000000000000000000000000000000000000815260040161090790613a9a565b60405180910390fd5b5f600b838154811061092557610924613ab8565b5b905f5260205f20906006020190505f600c5f8581526020019081526020015f205f3373ffffffffffffffffffffffffffffffffffffffff1673ffffffffffffffffffffffffffffffffffffffff1681526020019081526020015f20905081600401544210156109c9576040517f08c379a00000000000000000000000000000000000000000000000000000000081526004016109c090613b2f565b60405180910390fd5b6109d284611386565b6109dc8433612d51565b5f815f01541115610a8957815f015f9054906101000a900473ffffffffffffffffffffffffffffffffffffffff1673ffffffffffffffffffffffffffffffffffffffff1663a9059cbb33835f01546040518363ffffffff1660e01b8152600401610a47929190613b4d565b6020604051808303815f875af1158015610a63573d5f803e3d5ffd5b505050506040513d601f19601f82011682018060405250810190610a879190613ba9565b505b5f81600201541115610aa457610aa3338260020154612e69565b5b5f815f01819055505f81600201819055505f81600101819055507f594aca6d6c4b5c5da2a4c49c995c49bd3b8366b81a8249e69f687adc2c7a3f2d3385835f01548460020154604051610afa9493929190613bd4565b60405180910390a1505050610b0d613052565b50565b5f819050919050565b6060600e5f8381526020019081526020015f20805480602002602001604051908101604052809291908181526020018280548015610ba957602002820191905f5260205f20905b815f9054906101000a900473ffffffffffffffffffffffffffffffffffffffff1673ffffffffffffffffffffffffffffffffffffffff1681526020019060010190808311610b60575b50505050509050919050565b600b8181548110610bc4575f80fd5b905f5260205f2090600602015f91509050805f015f9054906101000a900473ffffffffffffffffffffffffffffffffffffffff16908060010154908060020154908060030154908060040154908060050154905086565b600d602052815f5260405f20602052805f5260405f205f9150915050805f0154908060010154908060020154905083565b600e602052815f5260405f208181548110610c65575f80fd5b905f5260205f20015f915091509054906101000a900473ffffffffffffffffffffffffffffffffffffffff1681565b60105481565b610ca261305b565b81600b805490508110610cea576040517f08c379a0000000000000000000000000000000000000000000000000000000008152600401610ce190613a9a565b60405180910390fd5b610cf26119cd565b81600b8481548110610d0757610d06613ab8565b5b905f5260205f20906006020160010154601054610d249190613c44565b610d2e9190613c77565b60108190555081600b8481548110610d4957610d48613ab8565b5b905f5260205f20906006020160010181905550505050565b60045481565b610d6f612d0b565b81600b805490508110610db7576040517f08c379a0000000000000000000000000000000000000000000000000000000008152600401610dae90613a9a565b60405180910390fd5b5f600b8481548110610dcc57610dcb613ab8565b5b905f5260205f20906006020190505f600c5f8681526020019081526020015f205f3373ffffffffffffffffffffffffffffffffffffffff1673ffffffffffffffffffffffffffffffffffffffff1681526020019081526020015f2090508160040154421015610e70576040517f08c379a0000000000000000000000000000000000000000000000000000000008152600401610e6790613b2f565b60405180910390fd5b83815f01541015610eb6576040517f08c379a0000000000000000000000000000000000000000000000000000000008152600401610ead90613cf4565b60405180910390fd5b610ebf85611386565b610ec98533612d51565b5f841115610f865783815f0154610ee09190613c44565b815f0181905550815f015f9054906101000a900473ffffffffffffffffffffffffffffffffffffffff1673ffffffffffffffffffffffffffffffffffffffff1663a9059cbb33866040518363ffffffff1660e01b8152600401610f44929190613b4d565b6020604051808303815f875af1158015610f60573d5f803e3d5ffd5b505050506040513d601f19601f82011682018060405250810190610f849190613ba9565b505b64e8d4a510008260030154825f0154610f9f9190613d12565b610fa99190613d80565b8160010181905550843373ffffffffffffffffffffffffffffffffffffffff167ff279e6a1f5e320cca91135676d9cb6e44ca8a08c0b88342bcdb1144f6511b56886604051610ff891906135da565b60405180910390a350505061100b613052565b5050565b60115481565b5f80600b838154811061102b5761102a613ab8565b5b905f5260205f20906006020190505f601054826001015460085461104f9190613d12565b6110599190613d80565b90505f825f015f9054906101000a900473ffffffffffffffffffffffffffffffffffffffff1673ffffffffffffffffffffffffffffffffffffffff166370a08231306040518263ffffffff1660e01b81526004016110b791906138f7565b602060405180830381865afa1580156110d2573d5f803e3d5ffd5b505050506040513d601f19601f820116820180604052508101906110f69190613dc4565b90505f808211611106575f611132565b606482670de0b6b3a76400008561111d9190613d12565b6111279190613d80565b6111319190613d12565b5b905080945050505050919050565b5f82600b805490508110611189576040517f08c379a000000000000000000000000000000000000000000000000000000000815260040161118090613a9a565b60405180910390fd5b5f600b858154811061119e5761119d613ab8565b5b905f5260205f20906006020190505f600c5f8781526020019081526020015f205f8673ffffffffffffffffffffffffffffffffffffffff1673ffffffffffffffffffffffffffffffffffffffff1681526020019081526020015f2090505f826003015490505f835f015f9054906101000a900473ffffffffffffffffffffffffffffffffffffffff1673ffffffffffffffffffffffffffffffffffffffff166370a08231306040518263ffffffff1660e01b815260040161125f91906138f7565b602060405180830381865afa15801561127a573d5f803e3d5ffd5b505050506040513d601f19601f8201168201806040525081019061129e9190613dc4565b90508360020154431180156112b357505f8114155b1561133c575f6112c7856002015443611e56565b90505f6004546005546010548860010154600854866112e69190613d12565b6112f09190613d12565b6112fa9190613d80565b6113049190613d12565b61130e9190613d80565b90508264e8d4a51000826113229190613d12565b61132c9190613d80565b846113379190613c77565b935050505b826001015464e8d4a5100083855f01546113569190613d12565b6113609190613d80565b846002015461136f9190613c77565b6113799190613c44565b9550505050505092915050565b80600b8054905081106113ce576040517f08c379a00000000000000000000000000000000000000000000000000000000081526004016113c590613a9a565b60405180910390fd5b5f600b83815481106113e3576113e2613ab8565b5b905f5260205f20906006020190508060020154431161140257506115d8565b5f815f015f9054906101000a900473ffffffffffffffffffffffffffffffffffffffff1673ffffffffffffffffffffffffffffffffffffffff166370a08231306040518263ffffffff1660e01b815260040161145e91906138f7565b602060405180830381865afa158015611479573d5f803e3d5ffd5b505050506040513d601f19601f8201168201806040525081019061149d9190613dc4565b90505f81116114b65743826002018190555050506115d8565b5f6114c5836002015443611e56565b90505f6004546005546010548660010154600854866114e49190613d12565b6114ee9190613d12565b6114f89190613d80565b6115029190613d12565b61150c9190613d80565b905060025f9054906101000a900473ffffffffffffffffffffffffffffffffffffffff1673ffffffffffffffffffffffffffffffffffffffff16634e6ec24730836040518363ffffffff1660e01b815260040161156a929190613b4d565b5f604051808303815f87803b158015611581575f80fd5b505af1158015611593573d5f803e3d5ffd5b505050508264e8d4a51000826115a99190613d12565b6115b39190613d80565b84600301546115c29190613c77565b8460030181905550438460020181905550505050505b5050565b6115e4612d0b565b80600b80549050811061162c576040517f08c379a000000000000000000000000000000000000000000000000000000000815260040161162390613a9a565b60405180910390fd5b5f600b838154811061164157611640613ab8565b5b905f5260205f20906006020190505f600c5f8581526020019081526020015f205f3373ffffffffffffffffffffffffffffffffffffffff1673ffffffffffffffffffffffffffffffffffffffff1681526020019081526020015f2090506116a88433612956565b505f815f015490505f826002015490505f82855f015f9054906101000a900473ffffffffffffffffffffffffffffffffffffffff1673ffffffffffffffffffffffffffffffffffffffff166370a08231306040518263ffffffff1660e01b815260040161171591906138f7565b602060405180830381865afa158015611730573d5f803e3d5ffd5b505050506040513d601f19601f820116820180604052508101906117549190613dc4565b61175e9190613c44565b90505f600d5f8981526020019081526020015f205f3373ffffffffffffffffffffffffffffffffffffffff1673ffffffffffffffffffffffffffffffffffffffff1681526020019081526020015f20905083815f018190555082816001018190555042816002018190555082600f5f8282546117da9190613c77565b925050819055505f80841180156117f057505f83115b6117fa575f61182b565b600e5f8a81526020019081526020015f208054905064e8d4a51000856118209190613d12565b61182a9190613d80565b5b905061183681610b10565b507f649c84831f10e26ab05a0e59436157f1e7fad268f97e5ba8c43768809683f79733835f01548460010154856002015485604051611879959493929190613def565b60405180910390a15f8311801561188f57505f84115b156118a05761189f8985856130e2565b5b865f015f9054906101000a900473ffffffffffffffffffffffffffffffffffffffff1673ffffffffffffffffffffffffffffffffffffffff1663a9059cbb33876040518363ffffffff1660e01b81526004016118fd929190613b4d565b6020604051808303815f875af1158015611919573d5f803e3d5ffd5b505050506040513d601f19601f8201168201806040525081019061193d9190613ba9565b50883373ffffffffffffffffffffffffffffffffffffffff167fbb757047c2b5f3974fe26b7c10f732e7bce710b0952a71082702781e62ae05958760405161198591906135da565b60405180910390a35f865f01819055505f86600201819055505f86600101819055505f86600301819055506119ba8933613253565b50505050505050506119ca613052565b50565b5f600b8054905090505f5b818110156119fa576119e981611386565b806119f390613e40565b90506119d8565b5050565b5f80600b8481548110611a1457611a13613ab8565b5b905f5260205f20906006020190505f600c5f8681526020019081526020015f205f8573ffffffffffffffffffffffffffffffffffffffff1673ffffffffffffffffffffffffffffffffffffffff1681526020019081526020015f2090505f611a7b8661208a565b90505f835f015f9054906101000a900473ffffffffffffffffffffffffffffffffffffffff1673ffffffffffffffffffffffffffffffffffffffff166370a08231306040518263ffffffff1660e01b8152600401611ad991906138f7565b602060405180830381865afa158015611af4573d5f803e3d5ffd5b505050506040513d601f19601f82011682018060405250810190611b189190613dc4565b64e8d4a51000845f0154611b2c9190613d12565b611b369190613d80565b90505f64e8d4a510008284611b4b9190613d12565b611b559190613d80565b9050809550505050505092915050565b611b6d61305b565b611b765f613422565b565b60035f9054906101000a900473ffffffffffffffffffffffffffffffffffffffff1681565b611ba561305b565b68056bc75e2d63100000811115611bf1576040517f08c379a0000000000000000000000000000000000000000000000000000000008152600401611be890613ed1565b60405180910390fd5b66038d7ea4c68000811015611c3b576040517f08c379a0000000000000000000000000000000000000000000000000000000008152600401611c3290613f39565b60405180910390fd5b806008819055507f1e19929b3cb970f6d66d05a2698000db2ac7eafe495aee2c6c32bd7960a97ead600854604051611c7391906135da565b60405180910390a150565b5f600f54905090565b611c8f612d0b565b80600b805490508110611cd7576040517f08c379a0000000000000000000000000000000000000000000000000000000008152600401611cce90613a9a565b60405180910390fd5b611ce082611386565b611cea8233612d51565b5f600c5f8481526020019081526020015f205f3373ffffffffffffffffffffffffffffffffffffffff1673ffffffffffffffffffffffffffffffffffffffff1681526020019081526020015f2090505f600b8481548110611d4e57611d4d613ab8565b5b905f5260205f20906006020190508060040154421015611da3576040517f08c379a0000000000000000000000000000000000000000000000000000000008152600401611d9a90613b2f565b60405180910390fd5b5f82600201541115611e1b575f826002015490505f8360020181905550611dca3382612e69565b843373ffffffffffffffffffffffffffffffffffffffff167f9da87e8cce29a4140e89780f6e64e0b1cd58e4fa1cb5ee53effe97264f290c6c83604051611e1191906135da565b60405180910390a3505b505050611e26613052565b50565b60095481565b5f805f9054906101000a900473ffffffffffffffffffffffffffffffffffffffff16905090565b5f60095483611e659190613d12565b82611e709190613c44565b905092915050565b600c602052815f5260405f20602052805f5260405f205f9150915050805f0154908060010154908060020154908060030154905084565b611eb761305b565b5f8190506004548184611eca9190613c77565b1115611f0b576040517f08c379a0000000000000000000000000000000000000000000000000000000008152600401611f0290613fa1565b60405180910390fd5b82600581905550816006819055507fcbd554161f22a88862569b669f84507adc410008353e0a023297d3ea419126f7600554600654604051611f4e929190613fbf565b60405180910390a1505050565b611f6361305b565b81600b805490508110611fab576040517f08c379a0000000000000000000000000000000000000000000000000000000008152600401611fa290613a9a565b60405180910390fd5b5f600b8481548110611fc057611fbf613ab8565b5b905f5260205f20906006020190505f600184611fdc9190613d12565b42611fe79190613c77565b905042811161202b576040517f08c379a000000000000000000000000000000000000000000000000000000000815260040161202290614030565b60405180910390fd5b8082600401819055505050505050565b600a5481565b5f805f8061204f8686611140565b90505f61205c87876119fe565b90505f61206988886120da565b90508282829550955095505050509250925092565b60065481565b60055481565b5f80600b83815481106120a05761209f613ab8565b5b905f5260205f20906006020190505f60105482600101546008546120c49190613d12565b6120ce9190613d80565b90508092505050919050565b5f80600b84815481106120f0576120ef613ab8565b5b905f5260205f20906006020190505f600c5f8681526020019081526020015f205f8573ffffffffffffffffffffffffffffffffffffffff1673ffffffffffffffffffffffffffffffffffffffff1681526020019081526020015f2090505f825f015f9054906101000a900473ffffffffffffffffffffffffffffffffffffffff1673ffffffffffffffffffffffffffffffffffffffff166370a08231306040518263ffffffff1660e01b81526004016121a991906138f7565b602060405180830381865afa1580156121c4573d5f803e3d5ffd5b505050506040513d601f19601f820116820180604052508101906121e89190613dc4565b90505f8164e8d4a51000845f01546122009190613d12565b61220a9190613d80565b90505f64e8d4a5100082600f546122219190613d12565b61222b9190613d80565b9050809550505050505092915050565b60085481565b61224961305b565b43600a541061228d576040517f08c379a000000000000000000000000000000000000000000000000000000000815260040161228490614098565b60405180910390fd5b5f600854600a544361229f9190613c44565b6122a99190613d12565b905060025f9054906101000a900473ffffffffffffffffffffffffffffffffffffffff1673ffffffffffffffffffffffffffffffffffffffff16634e6ec24760075f9054906101000a900473ffffffffffffffffffffffffffffffffffffffff166004546006548561231b9190613d12565b6123259190613d80565b6040518363ffffffff1660e01b8152600401612342929190613b4d565b5f604051808303815f87803b158015612359575f80fd5b505af115801561236b573d5f803e3d5ffd5b5050505043600a8190555050565b61238161305b565b5f73ffffffffffffffffffffffffffffffffffffffff168173ffffffffffffffffffffffffffffffffffffffff16036123ef576040517f08c379a00000000000000000000000000000000000000000000000000000000081526004016123e690614100565b60405180910390fd5b8060075f6101000a81548173ffffffffffffffffffffffffffffffffffffffff021916908373ffffffffffffffffffffffffffffffffffffffff16021790555060075f9054906101000a900473ffffffffffffffffffffffffffffffffffffffff1673ffffffffffffffffffffffffffffffffffffffff167fb1c7911ca1455735ffd17fec398b65f34157a7b58831b586878f5d3c2cf44ee260405160405180910390a250565b61249e61305b565b6124a7826134e3565b6124af6119cd565b5f60115443106124bf57436124c3565b6011545b9050836010546124d39190613c77565b6010819055505f4290505f62015180846124ed9190613d12565b426124f89190613c77565b9050600b6040518060c001604052808773ffffffffffffffffffffffffffffffffffffffff1681526020018881526020018581526020015f81526020015f815260200184815250908060018154018082558091505060019003905f5260205f2090600602015f909190919091505f820151815f015f6101000a81548173ffffffffffffffffffffffffffffffffffffffff021916908373ffffffffffffffffffffffffffffffffffffffff1602179055506020820151816001015560408201518160020155606082015181600301556080820151816004015560a0820151816005015550505f600b6001600b805490506125f29190613c44565b8154811061260357612602613ab8565b5b905f5260205f20906006020190508181600401819055507feeb213a5f24f4d07164e968a0886fa179ee7b22af50a6fa2d60874f91c573e72878783600501548460040154604051612657949392919061411e565b60405180910390a150505050505050565b600f5481565b612676612d0b565b81600b8054905081106126be576040517f08c379a00000000000000000000000000000000000000000000000000000000081526004016126b590613a9a565b60405180910390fd5b5f600b84815481106126d3576126d2613ab8565b5b905f5260205f20906006020190505f600c5f8681526020019081526020015f205f3373ffffffffffffffffffffffffffffffffffffffff1673ffffffffffffffffffffffffffffffffffffffff1681526020019081526020015f20905061273985611386565b6127438533612d51565b5f8411801561275457505f815f0154145b156127c957600e5f8681526020019081526020015f2033908060018154018082558091505060019003905f5260205f20015f9091909190916101000a81548173ffffffffffffffffffffffffffffffffffffffff021916908373ffffffffffffffffffffffffffffffffffffffff1602179055505b5f84111561288d575f825f015f9054906101000a900473ffffffffffffffffffffffffffffffffffffffff1690508073ffffffffffffffffffffffffffffffffffffffff166323b872dd3330886040518463ffffffff1660e01b815260040161283493929190614161565b6020604051808303815f875af1158015612850573d5f803e3d5ffd5b505050506040513d601f19601f820116820180604052508101906128749190613ba9565b5084825f01546128849190613c77565b825f0181905550505b64e8d4a510008260030154825f01546128a69190613d12565b6128b09190613d80565b81600101819055505f8160030154036128cd574281600301819055505b843373ffffffffffffffffffffffffffffffffffffffff167f36af321ec8d3c75236829c5317affd40ddb308863a1236d2d277a4025cccee1e86846003015460405161291a929190613fbf565b60405180910390a350505061292d613052565b5050565b60075f9054906101000a900473ffffffffffffffffffffffffffffffffffffffff1681565b5f82600b80549050811061299f576040517f08c379a000000000000000000000000000000000000000000000000000000000815260040161299690613a9a565b60405180910390fd5b5f600b85815481106129b4576129b3613ab8565b5b905f5260205f20906006020190505f600c5f8781526020019081526020015f205f8673ffffffffffffffffffffffffffffffffffffffff1673ffffffffffffffffffffffffffffffffffffffff1681526020019081526020015f2090505f826003015490505f835f015f9054906101000a900473ffffffffffffffffffffffffffffffffffffffff1673ffffffffffffffffffffffffffffffffffffffff166370a08231306040518263ffffffff1660e01b8152600401612a7591906138f7565b602060405180830381865afa158015612a90573d5f803e3d5ffd5b505050506040513d601f19601f82011682018060405250810190612ab49190613dc4565b9050836002015443118015612ac957505f8114155b15612b52575f612add856002015443611e56565b90505f600454600554601054886001015460085486612afc9190613d12565b612b069190613d12565b612b109190613d80565b612b1a9190613d12565b612b249190613d80565b90508264e8d4a5100082612b389190613d12565b612b429190613d80565b84612b4d9190613c77565b935050505b5f836001015464e8d4a5100084865f0154612b6d9190613d12565b612b779190613d80565b8560020154612b869190613c77565b612b909190613c44565b9050808460020154612ba29190613c77565b84600201819055508360020154965050505050505092915050565b5f80600b8481548110612bd357612bd2613ab8565b5b905f5260205f20906006020190505f600c5f8681526020019081526020015f205f8573ffffffffffffffffffffffffffffffffffffffff1673ffffffffffffffffffffffffffffffffffffffff1681526020019081526020015f2090505f64e8d4a510008360030154835f0154612c4a9190613d12565b612c549190613d80565b905080935050505092915050565b60025f9054906101000a900473ffffffffffffffffffffffffffffffffffffffff1681565b612c8f61305b565b5f73ffffffffffffffffffffffffffffffffffffffff168173ffffffffffffffffffffffffffffffffffffffff1603612cff575f6040517f1e4fbdf7000000000000000000000000000000000000000000000000000000008152600401612cf691906138f7565b60405180910390fd5b612d0881613422565b50565b600260015403612d47576040517f3ee5aeb500000000000000000000000000000000000000000000000000000000815260040160405180910390fd5b6002600181905550565b81600b805490508110612d99576040517f08c379a0000000000000000000000000000000000000000000000000000000008152600401612d9090613a9a565b60405180910390fd5b5f600b8481548110612dae57612dad613ab8565b5b905f5260205f20906006020190505f600c5f8681526020019081526020015f205f8573ffffffffffffffffffffffffffffffffffffffff1673ffffffffffffffffffffffffffffffffffffffff1681526020019081526020015f2090505f816001015464e8d4a510008460030154845f0154612e2a9190613d12565b612e349190613d80565b612e3e9190613c44565b90505f811115612e6157808260020154612e589190613c77565b82600201819055505b505050505050565b5f60025f9054906101000a900473ffffffffffffffffffffffffffffffffffffffff1673ffffffffffffffffffffffffffffffffffffffff166327e235e3306040518263ffffffff1660e01b8152600401612ec491906138f7565b602060405180830381865afa158015612edf573d5f803e3d5ffd5b505050506040513d601f19601f82011682018060405250810190612f039190613dc4565b905080821115612faf5760025f9054906101000a900473ffffffffffffffffffffffffffffffffffffffff1673ffffffffffffffffffffffffffffffffffffffff1663a9059cbb84836040518363ffffffff1660e01b8152600401612f69929190613b4d565b6020604051808303815f875af1158015612f85573d5f803e3d5ffd5b505050506040513d601f19601f82011682018060405250810190612fa99190613ba9565b5061304d565b60025f9054906101000a900473ffffffffffffffffffffffffffffffffffffffff1673ffffffffffffffffffffffffffffffffffffffff1663a9059cbb84846040518363ffffffff1660e01b815260040161300b929190613b4d565b6020604051808303815f875af1158015613027573d5f803e3d5ffd5b505050506040513d601f19601f8201168201806040525081019061304b9190613ba9565b505b505050565b60018081905550565b6130636135bb565b73ffffffffffffffffffffffffffffffffffffffff16613081611e2f565b73ffffffffffffffffffffffffffffffffffffffff16146130e0576130a46135bb565b6040517f118cdaa70000000000000000000000000000000000000000000000000000000081526004016130d791906138f7565b60405180910390fd5b565b5f600e5f8581526020019081526020015f208054905090505f5b81811015613211575f600e5f8781526020019081526020015f20828154811061312857613127613ab8565b5b905f5260205f20015f9054906101000a900473ffffffffffffffffffffffffffffffffffffffff1690505f600c5f8881526020019081526020015f205f8373ffffffffffffffffffffffffffffffffffffffff1673ffffffffffffffffffffffffffffffffffffffff1681526020019081526020015f2090505f8564e8d4a51000835f01546131b79190613d12565b6131c19190613d80565b90505f64e8d4a5100082896131d69190613d12565b6131e09190613d80565b905080836002015f8282546131f59190613c77565b92505081905550505050508061320a90613e40565b90506130fc565b507f2b3815017a53df0f7a02daff8930fa0330e6091a501c5de817e0df95894bab1d84848460405161324593929190613875565b60405180910390a150505050565b5f600e5f8481526020019081526020015f208054905090505f5b8181101561341c578273ffffffffffffffffffffffffffffffffffffffff16600e5f8681526020019081526020015f2082815481106132af576132ae613ab8565b5b905f5260205f20015f9054906101000a900473ffffffffffffffffffffffffffffffffffffffff1673ffffffffffffffffffffffffffffffffffffffff160361340957600e5f8581526020019081526020015f206001836133109190613c44565b8154811061332157613320613ab8565b5b905f5260205f20015f9054906101000a900473ffffffffffffffffffffffffffffffffffffffff16600e5f8681526020019081526020015f20828154811061336c5761336b613ab8565b5b905f5260205f20015f6101000a81548173ffffffffffffffffffffffffffffffffffffffff021916908373ffffffffffffffffffffffffffffffffffffffff160217905550600e5f8581526020019081526020015f208054806133d2576133d1614196565b5b600190038181905f5260205f20015f6101000a81549073ffffffffffffffffffffffffffffffffffffffff0219169055905561341c565b808061341490613e40565b91505061326d565b50505050565b5f805f9054906101000a900473ffffffffffffffffffffffffffffffffffffffff169050815f806101000a81548173ffffffffffffffffffffffffffffffffffffffff021916908373ffffffffffffffffffffffffffffffffffffffff1602179055508173ffffffffffffffffffffffffffffffffffffffff168173ffffffffffffffffffffffffffffffffffffffff167f8be0079c531659141344cd1fd0a4f28419497f9722a3daafe3b4186f6b6457e060405160405180910390a35050565b5f600b8054905090505f5b818110156135b6578273ffffffffffffffffffffffffffffffffffffffff16600b828154811061352157613520613ab8565b5b905f5260205f2090600602015f015f9054906101000a900473ffffffffffffffffffffffffffffffffffffffff1673ffffffffffffffffffffffffffffffffffffffff16036135a5576040517f08c379a000000000000000000000000000000000000000000000000000000000815260040161359c9061420d565b60405180910390fd5b806135af90613e40565b90506134ee565b505050565b5f33905090565b5f819050919050565b6135d4816135c2565b82525050565b5f6020820190506135ed5f8301846135cb565b92915050565b5f80fd5b613600816135c2565b811461360a575f80fd5b50565b5f8135905061361b816135f7565b92915050565b5f60208284031215613636576136356135f3565b5b5f6136438482850161360d565b91505092915050565b5f81519050919050565b5f82825260208201905092915050565b5f819050602082019050919050565b5f73ffffffffffffffffffffffffffffffffffffffff82169050919050565b5f61369e82613675565b9050919050565b6136ae81613694565b82525050565b5f6136bf83836136a5565b60208301905092915050565b5f602082019050919050565b5f6136e18261364c565b6136eb8185613656565b93506136f683613666565b805f5b8381101561372657815161370d88826136b4565b9750613718836136cb565b9250506001810190506136f9565b5085935050505092915050565b5f6020820190508181035f83015261374b81846136d7565b905092915050565b5f819050919050565b5f61377661377161376c84613675565b613753565b613675565b9050919050565b5f6137878261375c565b9050919050565b5f6137988261377d565b9050919050565b6137a88161378e565b82525050565b5f60c0820190506137c15f83018961379f565b6137ce60208301886135cb565b6137db60408301876135cb565b6137e860608301866135cb565b6137f560808301856135cb565b61380260a08301846135cb565b979650505050505050565b61381681613694565b8114613820575f80fd5b50565b5f813590506138318161380d565b92915050565b5f806040838503121561384d5761384c6135f3565b5b5f61385a8582860161360d565b925050602061386b85828601613823565b9150509250929050565b5f6060820190506138885f8301866135cb565b61389560208301856135cb565b6138a260408301846135cb565b949350505050565b5f80604083850312156138c0576138bf6135f3565b5b5f6138cd8582860161360d565b92505060206138de8582860161360d565b9150509250929050565b6138f181613694565b82525050565b5f60208201905061390a5f8301846138e8565b92915050565b5f61391a8261377d565b9050919050565b61392a81613910565b82525050565b5f6020820190506139435f830184613921565b92915050565b5f60808201905061395c5f8301876135cb565b61396960208301866135cb565b61397660408301856135cb565b61398360608301846135cb565b95945050505050565b5f602082840312156139a1576139a06135f3565b5b5f6139ae84828501613823565b91505092915050565b5f805f606084860312156139ce576139cd6135f3565b5b5f6139db8682870161360d565b93505060206139ec86828701613823565b92505060406139fd8682870161360d565b9150509250925092565b5f613a118261377d565b9050919050565b613a2181613a07565b82525050565b5f602082019050613a3a5f830184613a18565b92915050565b5f82825260208201905092915050565b7f706f6f6c206e6f742065786973740000000000000000000000000000000000005f82015250565b5f613a84600e83613a40565b9150613a8f82613a50565b602082019050919050565b5f6020820190508181035f830152613ab181613a78565b9050919050565b7f4e487b71000000000000000000000000000000000000000000000000000000005f52603260045260245ffd5b7f5374616b696e6720706572696f64206e6f742079657420656e646564000000005f82015250565b5f613b19601c83613a40565b9150613b2482613ae5565b602082019050919050565b5f6020820190508181035f830152613b4681613b0d565b9050919050565b5f604082019050613b605f8301856138e8565b613b6d60208301846135cb565b9392505050565b5f8115159050919050565b613b8881613b74565b8114613b92575f80fd5b50565b5f81519050613ba381613b7f565b92915050565b5f60208284031215613bbe57613bbd6135f3565b5b5f613bcb84828501613b95565b91505092915050565b5f608082019050613be75f8301876138e8565b613bf460208301866135cb565b613c0160408301856135cb565b613c0e60608301846135cb565b95945050505050565b7f4e487b71000000000000000000000000000000000000000000000000000000005f52601160045260245ffd5b5f613c4e826135c2565b9150613c59836135c2565b9250828203905081811115613c7157613c70613c17565b5b92915050565b5f613c81826135c2565b9150613c8c836135c2565b9250828201905080821115613ca457613ca3613c17565b5b92915050565b7f77697468647261773a206e6f7420676f6f6400000000000000000000000000005f82015250565b5f613cde601283613a40565b9150613ce982613caa565b602082019050919050565b5f6020820190508181035f830152613d0b81613cd2565b9050919050565b5f613d1c826135c2565b9150613d27836135c2565b9250828202613d35816135c2565b91508282048414831517613d4c57613d4b613c17565b5b5092915050565b7f4e487b71000000000000000000000000000000000000000000000000000000005f52601260045260245ffd5b5f613d8a826135c2565b9150613d95836135c2565b925082613da557613da4613d53565b5b828204905092915050565b5f81519050613dbe816135f7565b92915050565b5f60208284031215613dd957613dd86135f3565b5b5f613de684828501613db0565b91505092915050565b5f60a082019050613e025f8301886138e8565b613e0f60208301876135cb565b613e1c60408301866135cb565b613e2960608301856135cb565b613e3660808301846135cb565b9695505050505050565b5f613e4a826135c2565b91507fffffffffffffffffffffffffffffffffffffffffffffffffffffffffffffffff8203613e7c57613e7b613c17565b5b600182019050919050565b7f4d61782070657220626c6f636b2031303020424e4300000000000000000000005f82015250565b5f613ebb601583613a40565b9150613ec682613e87565b602082019050919050565b5f6020820190508181035f830152613ee881613eaf565b9050919050565b7f4d696e2070657220626c6f636b20302e30303120424e430000000000000000005f82015250565b5f613f23601783613a40565b9150613f2e82613eef565b602082019050919050565b5f6020820190508181035f830152613f5081613f17565b9050919050565b7f50657263656e742053756d0000000000000000000000000000000000000000005f82015250565b5f613f8b600b83613a40565b9150613f9682613f57565b602082019050919050565b5f6020820190508181035f830152613fb881613f7f565b9050919050565b5f604082019050613fd25f8301856135cb565b613fdf60208301846135cb565b9392505050565b7f456e642054696d65206d75737420626520696e207468652066757475726500005f82015250565b5f61401a601e83613a40565b915061402582613fe6565b602082019050919050565b5f6020820190508181035f8301526140478161400e565b9050919050565b7f7761697420666f72206e657720626c6f636b00000000000000000000000000005f82015250565b5f614082601283613a40565b915061408d8261404e565b602082019050919050565b5f6020820190508181035f8301526140af81614076565b9050919050565b7f5a65726f000000000000000000000000000000000000000000000000000000005f82015250565b5f6140ea600483613a40565b91506140f5826140b6565b602082019050919050565b5f6020820190508181035f830152614117816140de565b9050919050565b5f6080820190506141315f8301876135cb565b61413e60208301866138e8565b61414b60408301856135cb565b61415860608301846135cb565b95945050505050565b5f6060820190506141745f8301866138e8565b61418160208301856138e8565b61418e60408301846135cb565b949350505050565b7f4e487b71000000000000000000000000000000000000000000000000000000005f52603160045260245ffd5b7f706f6f6c206578697374656400000000000000000000000000000000000000005f82015250565b5f6141f7600c83613a40565b9150614202826141c3565b602082019050919050565b5f6020820190508181035f830152614224816141eb565b905091905056fea264697066735822122051464c25a985f9fe558f0646c9f64e8b20e0ccefb87a3883174fdd56bed0943264736f6c63430008140033",
  "linkReferences": {},
  "deployedLinkReferences": {}
}